{
  "_format": "hh-sol-artifact-1",
  "contractName": "BoringOwnableData",
  "sourceName": "contracts/utils/BoringOwnable.sol",
  "abi": [
    {
      "inputs": [],
      "name": "owner",
      "outputs": [
        {
          "internalType": "address",
          "name": "",
          "type": "address"
        }
      ],
      "stateMutability": "view",
      "type": "function"
    },
    {
      "inputs": [],
      "name": "pendingOwner",
      "outputs": [
        {
          "internalType": "address",
          "name": "",
          "type": "address"
        }
      ],
      "stateMutability": "view",
      "type": "function"
    }
  ],
  "bytecode": "0x608060405234801561001057600080fd5b5060d48061001f6000396000f3fe6080604052348015600f57600080fd5b506004361060325760003560e01c80638da5cb5b146037578063e30c397814607f575b600080fd5b60005460569073ffffffffffffffffffffffffffffffffffffffff1681565b60405173ffffffffffffffffffffffffffffffffffffffff909116815260200160405180910390f35b60015460569073ffffffffffffffffffffffffffffffffffffffff168156fea2646970667358221220c8200e7cf82fc1eca0a1b74ebc1897b0cbc13f427378ad6d0bbd5918e3f3174564736f6c634300080a0033",
  "linkReferences": {},
  "deployedLinkReferences": {}
}