{
  "_format": "hh-sol-artifact-1",
  "contractName": "SushiXSwap",
  "sourceName": "contracts/SushiXSwap.sol",
  "abi": [
    {
      "inputs": [
        {
          "internalType": "contract IBentoBoxMinimal",
          "name": "_bentoBox",
          "type": "address"
        },
        {
          "internalType": "contract IStargateRouter",
          "name": "_stargateRouter",
          "type": "address"
        },
        {
          "internalType": "address",
          "name": "_factory",
          "type": "address"
        },
        {
          "internalType": "bytes32",
          "name": "_pairCodeHash",
          "type": "bytes32"
        },
        {
          "internalType": "contract IStargateWidget",
          "name": "_stargateWidget",
          "type": "address"
        },
        {
          "internalType": "address",
          "name": "_SGETH",
          "type": "address"
        }
      ],
      "stateMutability": "nonpayable",
      "type": "constructor"
    },
    {
      "inputs": [],
      "name": "InsufficientGas",
      "type": "error"
    },
    {
      "inputs": [],
      "name": "NotStargateRouter",
      "type": "error"
    },
    {
      "inputs": [],
      "name": "TooLittleReceived",
      "type": "error"
    },
    {
      "anonymous": false,
      "inputs": [
        {
          "indexed": true,
          "internalType": "bytes32",
          "name": "srcContext",
          "type": "bytes32"
        },
        {
          "indexed": false,
          "internalType": "bool",
          "name": "failed",
          "type": "bool"
        }
      ],
      "name": "StargateSushiXSwapDst",
      "type": "event"
    },
    {
      "anonymous": false,
      "inputs": [
        {
          "indexed": true,
          "internalType": "bytes32",
          "name": "srcContext",
          "type": "bytes32"
        }
      ],
      "name": "StargateSushiXSwapSrc",
      "type": "event"
    },
    {
      "inputs": [],
      "name": "SGETH",
      "outputs": [
        {
          "internalType": "address",
          "name": "",
          "type": "address"
        }
      ],
      "stateMutability": "view",
      "type": "function"
    },
    {
      "inputs": [
        {
          "internalType": "contract IERC20",
          "name": "token",
          "type": "address"
        }
      ],
      "name": "approveToStargateRouter",
      "outputs": [],
      "stateMutability": "nonpayable",
      "type": "function"
    },
    {
      "inputs": [],
      "name": "bentoBox",
      "outputs": [
        {
          "internalType": "contract IBentoBoxMinimal",
          "name": "",
          "type": "address"
        }
      ],
      "stateMutability": "view",
      "type": "function"
    },
    {
      "inputs": [
        {
          "internalType": "uint8[]",
          "name": "actions",
          "type": "uint8[]"
        },
        {
          "internalType": "uint256[]",
          "name": "values",
          "type": "uint256[]"
        },
        {
          "internalType": "bytes[]",
          "name": "datas",
          "type": "bytes[]"
        }
      ],
      "name": "cook",
      "outputs": [],
      "stateMutability": "payable",
      "type": "function"
    },
    {
      "inputs": [],
      "name": "factory",
      "outputs": [
        {
          "internalType": "address",
          "name": "",
          "type": "address"
        }
      ],
      "stateMutability": "view",
      "type": "function"
    },
    {
      "inputs": [
        {
          "internalType": "uint16",
          "name": "_dstChainId",
          "type": "uint16"
        },
        {
          "internalType": "uint8",
          "name": "_functionType",
          "type": "uint8"
        },
        {
          "internalType": "address",
          "name": "_receiver",
          "type": "address"
        },
        {
          "internalType": "uint256",
          "name": "_gas",
          "type": "uint256"
        },
        {
          "internalType": "uint256",
          "name": "_dustAmount",
          "type": "uint256"
        },
        {
          "internalType": "bytes",
          "name": "_payload",
          "type": "bytes"
        }
      ],
      "name": "getFee",
      "outputs": [
        {
          "internalType": "uint256",
          "name": "a",
          "type": "uint256"
        },
        {
          "internalType": "uint256",
          "name": "b",
          "type": "uint256"
        }
      ],
      "stateMutability": "view",
      "type": "function"
    },
    {
      "inputs": [],
      "name": "pairCodeHash",
      "outputs": [
        {
          "internalType": "bytes32",
          "name": "",
          "type": "bytes32"
        }
      ],
      "stateMutability": "view",
      "type": "function"
    },
    {
      "inputs": [
        {
          "internalType": "uint16",
          "name": "",
          "type": "uint16"
        },
        {
          "internalType": "bytes",
          "name": "",
          "type": "bytes"
        },
        {
          "internalType": "uint256",
          "name": "",
          "type": "uint256"
        },
        {
          "internalType": "address",
          "name": "_token",
          "type": "address"
        },
        {
          "internalType": "uint256",
          "name": "amountLD",
          "type": "uint256"
        },
        {
          "internalType": "bytes",
          "name": "payload",
          "type": "bytes"
        }
      ],
      "name": "sgReceive",
      "outputs": [],
      "stateMutability": "nonpayable",
      "type": "function"
    },
    {
      "inputs": [],
      "name": "stargateRouter",
      "outputs": [
        {
          "internalType": "contract IStargateRouter",
          "name": "",
          "type": "address"
        }
      ],
      "stateMutability": "view",
      "type": "function"
    },
    {
      "inputs": [],
      "name": "stargateWidget",
      "outputs": [
        {
          "internalType": "contract IStargateWidget",
          "name": "",
          "type": "address"
        }
      ],
      "stateMutability": "view",
      "type": "function"
    },
    {
      "stateMutability": "payable",
      "type": "receive"
    }
  ],
  "bytecode": "0x6101406040523480156200001257600080fd5b50604051620051a7380380620051a78339810160408190526200003591620000da565b6001600160a01b03808716608081905281871660a05281841660c05281861660e052610100859052908216610120526040805163577268d960e11b8152905163aee4d1b29160048082019260009290919082900301818387803b1580156200009c57600080fd5b505af1158015620000b1573d6000803e3d6000fd5b5050505050505050505062000162565b6001600160a01b0381168114620000d757600080fd5b50565b60008060008060008060c08789031215620000f457600080fd5b86516200010181620000c1565b60208801519096506200011481620000c1565b60408801519095506200012781620000c1565b6060880151608089015191955093506200014181620000c1565b60a08801519092506200015481620000c1565b809150509295509295509295565b60805160a05160c05160e0516101005161012051614f1d6200028a6000396000818161027901528181610d8b0152610f5c0152600081816101af0152818161165b0152818161177e0152612f61015260008181610245015281816116380152818161172701528181612efb0152612f3e01526000818161017b01526127de0152600081816101f101528181610b6901528181610cfc015281816110a2015261258001526000818160e8015281816103a1015281816106210152818161064c015281816108350152818161114d0152818161122e015281816112fa015281816113c40152818161195101528181611978015281816119b901528181611bde01528181611df501528181611f3901528181612139015281816122ae01526123e50152614f1d6000f3fe6080604052600436106100b55760003560e01c8063a9e56f3c11610069578063c45a01551161004e578063c45a015514610233578063cf36fd2414610267578063d1ac35351461029b57600080fd5b8063a9e56f3c146101df578063ab8236f31461021357600080fd5b80636ce4fe031161009a5780636ce4fe03146101345780636f435ac2146101695780639aab92481461019d57600080fd5b8063656f3d64146100c15780636b2ace87146100d657600080fd5b366100bc57005b600080fd5b6100d46100cf366004613b34565b6102bb565b005b3480156100e257600080fd5b5061010a7f000000000000000000000000000000000000000000000000000000000000000081565b60405173ffffffffffffffffffffffffffffffffffffffff90911681526020015b60405180910390f35b34801561014057600080fd5b5061015461014f366004613c4c565b610b64565b6040805192835260208301919091520161012b565b34801561017557600080fd5b5061010a7f000000000000000000000000000000000000000000000000000000000000000081565b3480156101a957600080fd5b506101d17f000000000000000000000000000000000000000000000000000000000000000081565b60405190815260200161012b565b3480156101eb57600080fd5b5061010a7f000000000000000000000000000000000000000000000000000000000000000081565b34801561021f57600080fd5b506100d461022e366004613cd3565b610ce4565b34801561023f57600080fd5b5061010a7f000000000000000000000000000000000000000000000000000000000000000081565b34801561027357600080fd5b5061010a7f000000000000000000000000000000000000000000000000000000000000000081565b3480156102a757600080fd5b506100d46102b6366004613d63565b611086565b825160005b81811015610b5d5760008582815181106102dc576102dc613d87565b60200260200101519050600060ff168160ff16141561040957600080600080600088878151811061030f5761030f613d87565b602002602001015180602001905181019061032a9190613dd6565b6040517fc0a47c9300000000000000000000000000000000000000000000000000000000815273ffffffffffffffffffffffffffffffffffffffff8681166004830152306024830152851515604483015260ff851660648301526084820184905260a48201839052959a50939850919650945092507f00000000000000000000000000000000000000000000000000000000000000009091169063c0a47c939060c401600060405180830381600087803b1580156103e757600080fd5b505af11580156103fb573d6000803e3d6000fd5b505050505050505050610b54565b60ff8116600114156104805760008060008087868151811061042d5761042d613d87565b60200260200101518060200190518101906104489190613e30565b935093509350935061047784338585858e8c8151811061046a5761046a613d87565b60200260200101516110ea565b50505050610b54565b60ff8116600214156104e35760008060008060008887815181106104a6576104a6613d87565b60200260200101518060200190518101906104c19190613e78565b945094509450945094506104d98533868686866111c5565b5050505050610b54565b60ff8116600b141561053a57600080600086858151811061050657610506613d87565b60200260200101518060200190518101906105219190613ed5565b925092509250610532838383611428565b505050610b54565b60ff8116600314156106805760008060008087868151811061055e5761055e613d87565b60200260200101518060200190518101906105799190613e30565b9350935093509350816000141561061b576040517f70a0823100000000000000000000000000000000000000000000000000000000815230600482015273ffffffffffffffffffffffffffffffffffffffff8516906370a0823190602401602060405180830381865afa1580156105f4573d6000803e3d6000fd5b505050506040513d601f19601f820116820180604052508101906106189190613f18565b91505b610646847f00000000000000000000000000000000000000000000000000000000000000008461144f565b610477847f00000000000000000000000000000000000000000000000000000000000000008585858e8c8151811061046a5761046a613d87565b60ff81166004141561078c5760008060008685815181106106a3576106a3613d87565b60200260200101518060200190518101906106be9190613ed5565b92509250925080600014156107815773ffffffffffffffffffffffffffffffffffffffff83161561077e576040517f70a0823100000000000000000000000000000000000000000000000000000000815230600482015273ffffffffffffffffffffffffffffffffffffffff8416906370a0823190602401602060405180830381865afa158015610753573d6000803e3d6000fd5b505050506040513d601f19601f820116820180604052508101906107779190613f18565b9050610781565b50475b61053283838361144f565b60ff8116600514156108b15760008060008060008887815181106107b2576107b2613d87565b60200260200101518060200190518101906107cd9190613e78565b945094509450945094508260001480156107e5575081155b156108a3576040517ff7888aec00000000000000000000000000000000000000000000000000000000815273ffffffffffffffffffffffffffffffffffffffff86811660048301523060248301527f0000000000000000000000000000000000000000000000000000000000000000169063f7888aec90604401602060405180830381865afa15801561087c573d6000803e3d6000fd5b505050506040513d601f19601f820116820180604052508101906108a09190613f18565b91505b6104d98530868686866111c5565b60ff811660061415610902576000808584815181106108d2576108d2613d87565b60200260200101518060200190518101906108ed9190613f31565b915091506108fb82826114d5565b5050610b54565b60ff8116600c141561094c5760008085848151811061092357610923613d87565b602002602001015180602001905181019061093e9190613f6b565b915091506108fb82826115cb565b60ff811660071415610a6a5760008060008087868151811061097057610970613d87565b602002602001015180602001905181019061098b9190613f99565b935093509350935060008460001415610a5257826000815181106109b1576109b1613d87565b60209081029190910101516040517f70a0823100000000000000000000000000000000000000000000000000000000815230600482015273ffffffffffffffffffffffffffffffffffffffff909116906370a0823190602401602060405180830381865afa158015610a27573d6000803e3d6000fd5b505050506040513d601f19601f82011682018060405250810190610a4b9190613f18565b9450600190505b610a5f8585858585611630565b505050505050610b54565b60ff811660081415610ab0576000848381518110610a8a57610a8a613d87565b6020026020010151806020019051810190610aa591906140ca565b90506108fb816118a4565b60ff811660091415610afc576000848381518110610ad057610ad0613d87565b6020026020010151806020019051810190610aeb91906143f7565b9050610af681611bce565b50610b54565b60ff8116600a1415610b5457600080600080878681518110610b2057610b20613d87565b6020026020010151806020019051810190610b3b91906146f4565b9350935093509350610b4f84848484612506565b505050505b506001016102c0565b5050505050565b6000807f000000000000000000000000000000000000000000000000000000000000000073ffffffffffffffffffffffffffffffffffffffff16630a512369898989604051602001610be1919060609190911b7fffffffffffffffffffffffffffffffffffffffff00000000000000000000000016815260140190565b60405160208183030381529060405287604051602001610c019190614872565b60405160208183030381529060405260405180606001604052808c81526020018b81526020018d604051602001610c63919060609190911b7fffffffffffffffffffffffffffffffffffffffff00000000000000000000000016815260140190565b6040516020818303038152906040528152506040518663ffffffff1660e01b8152600401610c959594939291906148ae565b6040805180830381865afa158015610cb1573d6000803e3d6000fd5b505050506040513d601f19601f82011682018060405250810190610cd59190614906565b90999098509650505050505050565b3373ffffffffffffffffffffffffffffffffffffffff7f00000000000000000000000000000000000000000000000000000000000000001614610d53576040517f8c66bf5600000000000000000000000000000000000000000000000000000000815260040160405180910390fd5b600080600080600085806020019051810190610d6f919061492a565b939850919650945092509050620186a06000815a1015610ea7577f000000000000000000000000000000000000000000000000000000000000000073ffffffffffffffffffffffffffffffffffffffff168a73ffffffffffffffffffffffffffffffffffffffff1614610dfd57610dfd73ffffffffffffffffffffffffffffffffffffffff8b16888b612889565b4715610e625760405173ffffffffffffffffffffffffffffffffffffffff8816904790600081818185875af1925050503d8060008114610e59576040519150601f19603f3d011682016040523d82523d6000602084013e610e5e565b606091505b5050505b5060405160018082529083907fd02bbeba90c0a3636769d1b8c9f07e2b5e4131b8fbcc2d6ba56054e20b98d75d9060200160405180910390a25050505050505061107e565b6000825a610eb591906149ff565b6040517f656f3d64000000000000000000000000000000000000000000000000000000008152909150309063656f3d64908390610efa908b908b908b90600401614ad9565b600060405180830381600088803b158015610f1457600080fd5b5087f193505050508015610f26575060015b610fd4573d808015610f54576040519150601f19603f3d011682016040523d82523d6000602084013e610f59565b606091505b507f000000000000000000000000000000000000000000000000000000000000000073ffffffffffffffffffffffffffffffffffffffff168c73ffffffffffffffffffffffffffffffffffffffff1614610fce57610fce73ffffffffffffffffffffffffffffffffffffffff8d168a8d612889565b60019250505b47156110395760405173ffffffffffffffffffffffffffffffffffffffff8916904790600081818185875af1925050503d8060008114611030576040519150601f19603f3d011682016040523d82523d6000602084013e611035565b606091505b5050505b837fd02bbeba90c0a3636769d1b8c9f07e2b5e4131b8fbcc2d6ba56054e20b98d75d8360405161106d911515815260200190565b60405180910390a250505050505050505b505050505050565b6110e773ffffffffffffffffffffffffffffffffffffffff82167f00000000000000000000000000000000000000000000000000000000000000007fffffffffffffffffffffffffffffffffffffffffffffffffffffffffffffffff61295d565b50565b6040517f02b9446c00000000000000000000000000000000000000000000000000000000815273ffffffffffffffffffffffffffffffffffffffff87811660048301528681166024830152858116604483015260648201859052608482018490527f000000000000000000000000000000000000000000000000000000000000000016906302b9446c90839060a401604080518083038185885af1158015611196573d6000803e3d6000fd5b50505050506040513d601f19601f820116820180604052508101906111bb9190614906565b5050505050505050565b80156112a1576040517f97da6d3000000000000000000000000000000000000000000000000000000000815273ffffffffffffffffffffffffffffffffffffffff87811660048301528681166024830152858116604483015260648201859052608482018490527f000000000000000000000000000000000000000000000000000000000000000016906397da6d309060a40160408051808303816000875af1158015611276573d6000803e3d6000fd5b505050506040513d601f19601f8201168201806040525081019061129a9190614906565b505061107e565b8215611368576040517fda5139ca00000000000000000000000000000000000000000000000000000000815273ffffffffffffffffffffffffffffffffffffffff878116600483015260248201859052600060448301527f0000000000000000000000000000000000000000000000000000000000000000169063da5139ca90606401602060405180830381865afa158015611341573d6000803e3d6000fd5b505050506040513d601f19601f820116820180604052508101906113659190613f18565b91505b6040517ff18d03cc00000000000000000000000000000000000000000000000000000000815273ffffffffffffffffffffffffffffffffffffffff878116600483015286811660248301528581166044830152606482018490527f0000000000000000000000000000000000000000000000000000000000000000169063f18d03cc90608401600060405180830381600087803b15801561140857600080fd5b505af115801561141c573d6000803e3d6000fd5b50505050505050505050565b61144a73ffffffffffffffffffffffffffffffffffffffff8416338484612adf565b505050565b73ffffffffffffffffffffffffffffffffffffffff83161561148c5761144a73ffffffffffffffffffffffffffffffffffffffff84168383612889565b60405173ffffffffffffffffffffffffffffffffffffffff83169082156108fc029083906000818181858888f193505050501580156114cf573d6000803e3d6000fd5b50505050565b6040517f70a0823100000000000000000000000000000000000000000000000000000000815230600482015273ffffffffffffffffffffffffffffffffffffffff831690632e1a7d4d9082906370a0823190602401602060405180830381865afa158015611547573d6000803e3d6000fd5b505050506040513d601f19601f8201168201806040525081019061156b9190613f18565b6040518263ffffffff1660e01b815260040161158991815260200190565b600060405180830381600087803b1580156115a357600080fd5b505af11580156115b7573d6000803e3d6000fd5b505050506115c76000824761144f565b5050565b8173ffffffffffffffffffffffffffffffffffffffff1663d0e30db0826040518263ffffffff1660e01b81526004016000604051808303818588803b15801561161357600080fd5b505af1158015611627573d6000803e3d6000fd5b50505050505050565b60008061167f7f000000000000000000000000000000000000000000000000000000000000000088877f0000000000000000000000000000000000000000000000000000000000000000612b3d565b9050806001825161169091906149ff565b815181106116a0576116a0613d87565b6020026020010151915085821015611719576040517f08c379a000000000000000000000000000000000000000000000000000000000815260206004820152601760248201527f696e73756666696369656e742d616d6f756e742d6f757400000000000000000060448201526064015b60405180910390fd5b821561188f5761188f6117a27f00000000000000000000000000000000000000000000000000000000000000008760008151811061175957611759613d87565b60200260200101518860018151811061177457611774613d87565b60200260200101517f0000000000000000000000000000000000000000000000000000000000000000612ce4565b866000815181106117b5576117b5613d87565b60209081029190910101516040517f70a0823100000000000000000000000000000000000000000000000000000000815230600482015273ffffffffffffffffffffffffffffffffffffffff909116906370a0823190602401602060405180830381865afa15801561182b573d6000803e3d6000fd5b505050506040513d601f19601f8201168201806040525081019061184f9190613f18565b8760008151811061186257611862613d87565b602002602001015173ffffffffffffffffffffffffffffffffffffffff166128899092919063ffffffff16565b61189a818686612dfe565b5095945050505050565b6000816020015160001415611ab05781516040517f70a0823100000000000000000000000000000000000000000000000000000000815230600482015260009173ffffffffffffffffffffffffffffffffffffffff16906370a0823190602401602060405180830381865afa158015611921573d6000803e3d6000fd5b505050506040513d601f19601f820116820180604052508101906119459190613f18565b905061197683600001517f00000000000000000000000000000000000000000000000000000000000000008361144f565b7f000000000000000000000000000000000000000000000000000000000000000073ffffffffffffffffffffffffffffffffffffffff166302b9446c84600001517f000000000000000000000000000000000000000000000000000000000000000086606001516000815181106119ef576119ef613d87565b6020908102919091010151516040517fffffffff0000000000000000000000000000000000000000000000000000000060e086901b16815273ffffffffffffffffffffffffffffffffffffffff93841660048201529183166024830152919091166044820152606481018490526000608482015260a40160408051808303816000875af1158015611a84573d6000803e3d6000fd5b505050506040513d601f19601f82011682018060405250810190611aa89190614906565b602085015250505b60608201515160005b81811015611b895783606001518181518110611ad757611ad7613d87565b60200260200101516000015173ffffffffffffffffffffffffffffffffffffffff1663627dd56a85606001518381518110611b1457611b14613d87565b6020026020010151602001516040518263ffffffff1660e01b8152600401611b3c9190614872565b6020604051808303816000875af1158015611b5b573d6000803e3d6000fd5b505050506040513d601f19601f82011682018060405250810190611b7f9190613f18565b9250600101611ab9565b508260400151821015611bc8576040517fc9f52c7100000000000000000000000000000000000000000000000000000000815260040160405180910390fd5b50919050565b80515160005b81811015611dde577f000000000000000000000000000000000000000000000000000000000000000073ffffffffffffffffffffffffffffffffffffffff1663f18d03cc84600001518381518110611c2e57611c2e613d87565b6020026020010151600001513086600001518581518110611c5157611c51613d87565b60200260200101516020015187600001518681518110611c7357611c73613d87565b6020908102919091010151606001516040517fffffffff0000000000000000000000000000000000000000000000000000000060e087901b16815273ffffffffffffffffffffffffffffffffffffffff94851660048201529284166024840152921660448201526064810191909152608401600060405180830381600087803b158015611cff57600080fd5b505af1158015611d13573d6000803e3d6000fd5b5050505082600001518181518110611d2d57611d2d613d87565b60200260200101516020015173ffffffffffffffffffffffffffffffffffffffff1663627dd56a84600001518381518110611d6a57611d6a613d87565b6020026020010151608001516040518263ffffffff1660e01b8152600401611d929190614872565b6020604051808303816000875af1158015611db1573d6000803e3d6000fd5b505050506040513d601f19601f82011682018060405250810190611dd59190613f18565b50600101611bd4565b505060208101515160005b818110156121225760007f000000000000000000000000000000000000000000000000000000000000000073ffffffffffffffffffffffffffffffffffffffff1663f7888aec85602001518481518110611e4557611e45613d87565b6020908102919091010151516040517fffffffff0000000000000000000000000000000000000000000000000000000060e084901b16815273ffffffffffffffffffffffffffffffffffffffff9091166004820152306024820152604401602060405180830381865afa158015611ec0573d6000803e3d6000fd5b505050506040513d601f19601f82011682018060405250810190611ee49190613f18565b90506000611ef46008600a614c3c565b85602001518481518110611f0a57611f0a613d87565b60200260200101516040015167ffffffffffffffff1683611f2b9190614c4b565b611f359190614c88565b90507f000000000000000000000000000000000000000000000000000000000000000073ffffffffffffffffffffffffffffffffffffffff1663f18d03cc86602001518581518110611f8957611f89613d87565b6020026020010151600001513088602001518781518110611fac57611fac613d87565b60209081029190910181015101516040517fffffffff0000000000000000000000000000000000000000000000000000000060e086901b16815273ffffffffffffffffffffffffffffffffffffffff9384166004820152918316602483015291909116604482015260648101849052608401600060405180830381600087803b15801561203857600080fd5b505af115801561204c573d6000803e3d6000fd5b505050508460200151838151811061206657612066613d87565b60200260200101516020015173ffffffffffffffffffffffffffffffffffffffff1663627dd56a866020015185815181106120a3576120a3613d87565b6020026020010151606001516040518263ffffffff1660e01b81526004016120cb9190614872565b6020604051808303816000875af11580156120ea573d6000803e3d6000fd5b505050506040513d601f19601f8201168201806040525081019061210e9190613f18565b50505061211b8160010190565b9050611de9565b505060408101515160005b8181101561144a5760007f000000000000000000000000000000000000000000000000000000000000000073ffffffffffffffffffffffffffffffffffffffff1663f7888aec8560400151848151811061218957612189613d87565b6020908102919091010151516040517fffffffff0000000000000000000000000000000000000000000000000000000060e084901b16815273ffffffffffffffffffffffffffffffffffffffff9091166004820152306024820152604401602060405180830381865afa158015612204573d6000803e3d6000fd5b505050506040513d601f19601f820116820180604052508101906122289190613f18565b90508360400151828151811061224057612240613d87565b602002602001015160600151811015612285576040517fc9f52c7100000000000000000000000000000000000000000000000000000000815260040160405180910390fd5b8360400151828151811061229b5761229b613d87565b602002602001015160400151156123e3577f000000000000000000000000000000000000000000000000000000000000000073ffffffffffffffffffffffffffffffffffffffff166397da6d30856040015184815181106122fe576122fe613d87565b602002602001015160000151308760400151868151811061232157612321613d87565b60209081029190910181015101516040517fffffffff0000000000000000000000000000000000000000000000000000000060e086901b16815273ffffffffffffffffffffffffffffffffffffffff93841660048201529183166024830152919091166044820152600060648201526084810184905260a40160408051808303816000875af11580156123b8573d6000803e3d6000fd5b505050506040513d601f19601f820116820180604052508101906123dc9190614906565b50506124fd565b7f000000000000000000000000000000000000000000000000000000000000000073ffffffffffffffffffffffffffffffffffffffff1663f18d03cc8560400151848151811061243557612435613d87565b602002602001015160000151308760400151868151811061245857612458613d87565b60209081029190910181015101516040517fffffffff0000000000000000000000000000000000000000000000000000000060e086901b16815273ffffffffffffffffffffffffffffffffffffffff9384166004820152918316602483015291909116604482015260648101849052608401600060405180830381600087803b1580156124e457600080fd5b505af11580156124f8573d6000803e3d6000fd5b505050505b5060010161212d565b600084610100015184848488610140015160405160200161252b959493929190614cc3565b6040516020818303038152906040529050620186a0856101200151101561257e576040517f1c26714c00000000000000000000000000000000000000000000000000000000815260040160405180910390fd5b7f000000000000000000000000000000000000000000000000000000000000000073ffffffffffffffffffffffffffffffffffffffff16639fbf10fc47876000015188604001518960600151338b60800151600014156126715760208c01516040517f70a0823100000000000000000000000000000000000000000000000000000000815230600482015273ffffffffffffffffffffffffffffffffffffffff909116906370a0823190602401602060405180830381865afa158015612648573d6000803e3d6000fd5b505050506040513d601f19601f8201168201806040525081019061266c9190613f18565b612677565b8b608001515b8c60a0015160405180606001604052808f610120015181526020018f60c0015181526020018f60e001516040516020016126dc919060609190911b7fffffffffffffffffffffffffffffffffffffffff00000000000000000000000016815260140190565b6040516020818303038152906040528152508e60e0015160405160200161272e919060609190911b7fffffffffffffffffffffffffffffffffffffffff00000000000000000000000016815260140190565b6040516020818303038152906040528b6040518b63ffffffff1660e01b815260040161276299989796959493929190614d2b565b6000604051808303818588803b15801561277b57600080fd5b505af115801561278f573d6000803e3d6000fd5b50506040517fa87376e90000000000000000000000000000000000000000000000000000000081527e0100000000000000000000000000000000000000000000000000000000000060048201527f000000000000000000000000000000000000000000000000000000000000000073ffffffffffffffffffffffffffffffffffffffff16935063a87376e992506024019050600060405180830381600087803b15801561283b57600080fd5b505af115801561284f573d6000803e3d6000fd5b505050506101408501516040517fef89f27cad105cfe7c63f4a5c70e6b1392b571ff544a83de4bf71ceb46bacfee90600090a25050505050565b60405173ffffffffffffffffffffffffffffffffffffffff831660248201526044810182905261144a9084907fa9059cbb00000000000000000000000000000000000000000000000000000000906064015b604080517fffffffffffffffffffffffffffffffffffffffffffffffffffffffffffffffe08184030181529190526020810180517bffffffffffffffffffffffffffffffffffffffffffffffffffffffff167fffffffff000000000000000000000000000000000000000000000000000000009093169290921790915261303b565b8015806129fd57506040517fdd62ed3e00000000000000000000000000000000000000000000000000000000815230600482015273ffffffffffffffffffffffffffffffffffffffff838116602483015284169063dd62ed3e90604401602060405180830381865afa1580156129d7573d6000803e3d6000fd5b505050506040513d601f19601f820116820180604052508101906129fb9190613f18565b155b612a89576040517f08c379a000000000000000000000000000000000000000000000000000000000815260206004820152603660248201527f5361666545524332303a20617070726f76652066726f6d206e6f6e2d7a65726f60448201527f20746f206e6f6e2d7a65726f20616c6c6f77616e6365000000000000000000006064820152608401611710565b60405173ffffffffffffffffffffffffffffffffffffffff831660248201526044810182905261144a9084907f095ea7b300000000000000000000000000000000000000000000000000000000906064016128db565b60405173ffffffffffffffffffffffffffffffffffffffff808516602483015283166044820152606481018290526114cf9085907f23b872dd00000000000000000000000000000000000000000000000000000000906084016128db565b6060600283511015612bab576040517f08c379a000000000000000000000000000000000000000000000000000000000815260206004820152601e60248201527f556e697377617056324c6962726172793a20494e56414c49445f5041544800006044820152606401611710565b825167ffffffffffffffff811115612bc557612bc561384b565b604051908082528060200260200182016040528015612bee578160200160208202803683370190505b5090508381600081518110612c0557612c05613d87565b60200260200101818152505060005b60018451612c2291906149ff565b811015612cdb57600080612c7688878581518110612c4257612c42613d87565b602002602001015188866001612c589190614db6565b81518110612c6857612c68613d87565b602002602001015188613147565b91509150612c9e848481518110612c8f57612c8f613d87565b60200260200101518383613248565b84612caa856001614db6565b81518110612cba57612cba613d87565b60200260200101818152505050508080612cd390614dce565b915050612c14565b50949350505050565b6000806000612cf386866133c2565b6040517fffffffffffffffffffffffffffffffffffffffff000000000000000000000000606084811b8216602084015283901b166034820152919350915087906048016040516020818303038152906040528051906020012085604051602001612dbd939291907fff00000000000000000000000000000000000000000000000000000000000000815260609390931b7fffffffffffffffffffffffffffffffffffffffff0000000000000000000000001660018401526015830191909152603582015260550190565b604080517fffffffffffffffffffffffffffffffffffffffffffffffffffffffffffffffe08184030181529190528051602090910120979650505050505050565b60005b60018351612e0f91906149ff565b8110156114cf57600080848381518110612e2b57612e2b613d87565b602002602001015185846001612e419190614db6565b81518110612e5157612e51613d87565b6020026020010151915091506000612e6983836133c2565b509050600087612e7a866001614db6565b81518110612e8a57612e8a613d87565b602002602001015190506000808373ffffffffffffffffffffffffffffffffffffffff168673ffffffffffffffffffffffffffffffffffffffff1614612ed257826000612ed6565b6000835b91509150600060028a51612eea91906149ff565b8810612ef65788612f37565b612f377f0000000000000000000000000000000000000000000000000000000000000000878c612f278c6002614db6565b8151811061177457611774613d87565b9050612f857f000000000000000000000000000000000000000000000000000000000000000088887f0000000000000000000000000000000000000000000000000000000000000000612ce4565b73ffffffffffffffffffffffffffffffffffffffff1663022c0d9f84848460006040519080825280601f01601f191660200182016040528015612fcf576020820181803683370190505b506040518563ffffffff1660e01b8152600401612fef9493929190614e07565b600060405180830381600087803b15801561300957600080fd5b505af115801561301d573d6000803e3d6000fd5b5050505050505050505050808061303390614dce565b915050612e01565b600061309d826040518060400160405280602081526020017f5361666545524332303a206c6f772d6c6576656c2063616c6c206661696c65648152508573ffffffffffffffffffffffffffffffffffffffff166135479092919063ffffffff16565b80519091501561144a57808060200190518101906130bb9190614e42565b61144a576040517f08c379a000000000000000000000000000000000000000000000000000000000815260206004820152602a60248201527f5361666545524332303a204552433230206f7065726174696f6e20646964206e60448201527f6f742073756363656564000000000000000000000000000000000000000000006064820152608401611710565b600080600061315686866133c2565b50905060008061316889898989612ce4565b73ffffffffffffffffffffffffffffffffffffffff16630902f1ac6040518163ffffffff1660e01b8152600401606060405180830381865afa1580156131b2573d6000803e3d6000fd5b505050506040513d601f19601f820116820180604052508101906131d69190614e7b565b506dffffffffffffffffffffffffffff1691506dffffffffffffffffffffffffffff1691508273ffffffffffffffffffffffffffffffffffffffff168873ffffffffffffffffffffffffffffffffffffffff1614613235578082613238565b81815b909a909950975050505050505050565b60008084116132d9576040517f08c379a000000000000000000000000000000000000000000000000000000000815260206004820152602b60248201527f556e697377617056324c6962726172793a20494e53554646494349454e545f4960448201527f4e5055545f414d4f554e540000000000000000000000000000000000000000006064820152608401611710565b6000831180156132e95750600082115b613375576040517f08c379a000000000000000000000000000000000000000000000000000000000815260206004820152602860248201527f556e697377617056324c6962726172793a20494e53554646494349454e545f4c60448201527f49515549444954590000000000000000000000000000000000000000000000006064820152608401611710565b6000613383856103e561355e565b90506000613391828561355e565b905060006133ab836133a5886103e861355e565b906135ee565b90506133b78183614c88565b979650505050505050565b6000808273ffffffffffffffffffffffffffffffffffffffff168473ffffffffffffffffffffffffffffffffffffffff161415613481576040517f08c379a000000000000000000000000000000000000000000000000000000000815260206004820152602560248201527f556e697377617056324c6962726172793a204944454e544943414c5f4144445260448201527f45535345530000000000000000000000000000000000000000000000000000006064820152608401611710565b8273ffffffffffffffffffffffffffffffffffffffff168473ffffffffffffffffffffffffffffffffffffffff16106134bb5782846134be565b83835b909250905073ffffffffffffffffffffffffffffffffffffffff8216613540576040517f08c379a000000000000000000000000000000000000000000000000000000000815260206004820152601e60248201527f556e697377617056324c6962726172793a205a45524f5f4144445245535300006044820152606401611710565b9250929050565b60606135568484600085613666565b949350505050565b6000811580613582575082826135748183614c4b565b92506135809083614c88565b145b6135e8576040517f08c379a000000000000000000000000000000000000000000000000000000000815260206004820152601460248201527f64732d6d6174682d6d756c2d6f766572666c6f770000000000000000000000006044820152606401611710565b92915050565b6000826135fb8382614db6565b91508110156135e8576040517f08c379a000000000000000000000000000000000000000000000000000000000815260206004820152601460248201527f64732d6d6174682d6164642d6f766572666c6f770000000000000000000000006044820152606401611710565b6060824710156136f8576040517f08c379a000000000000000000000000000000000000000000000000000000000815260206004820152602660248201527f416464726573733a20696e73756666696369656e742062616c616e636520666f60448201527f722063616c6c00000000000000000000000000000000000000000000000000006064820152608401611710565b6000808673ffffffffffffffffffffffffffffffffffffffff1685876040516137219190614ecb565b60006040518083038185875af1925050503d806000811461375e576040519150601f19603f3d011682016040523d82523d6000602084013e613763565b606091505b50915091506133b787838387606083156138025782516137fb5773ffffffffffffffffffffffffffffffffffffffff85163b6137fb576040517f08c379a000000000000000000000000000000000000000000000000000000000815260206004820152601d60248201527f416464726573733a2063616c6c20746f206e6f6e2d636f6e74726163740000006044820152606401611710565b5081613556565b61355683838151156138175781518083602001fd5b806040517f08c379a00000000000000000000000000000000000000000000000000000000081526004016117109190614872565b7f4e487b7100000000000000000000000000000000000000000000000000000000600052604160045260246000fd5b6040516080810167ffffffffffffffff8111828210171561389d5761389d61384b565b60405290565b6040805190810167ffffffffffffffff8111828210171561389d5761389d61384b565b6040516060810167ffffffffffffffff8111828210171561389d5761389d61384b565b60405160a0810167ffffffffffffffff8111828210171561389d5761389d61384b565b604051610160810167ffffffffffffffff8111828210171561389d5761389d61384b565b604051601f82017fffffffffffffffffffffffffffffffffffffffffffffffffffffffffffffffe016810167ffffffffffffffff811182821017156139775761397761384b565b604052919050565b600067ffffffffffffffff8211156139995761399961384b565b5060051b60200190565b60ff811681146110e757600080fd5b600082601f8301126139c357600080fd5b813560206139d86139d38361397f565b613930565b82815260059290921b840181019181810190868411156139f757600080fd5b8286015b84811015613a1257803583529183019183016139fb565b509695505050505050565b600067ffffffffffffffff821115613a3757613a3761384b565b50601f017fffffffffffffffffffffffffffffffffffffffffffffffffffffffffffffffe01660200190565b600082601f830112613a7457600080fd5b8135613a826139d382613a1d565b818152846020838601011115613a9757600080fd5b816020850160208301376000918101602001919091529392505050565b600082601f830112613ac557600080fd5b81356020613ad56139d38361397f565b82815260059290921b84018101918181019086841115613af457600080fd5b8286015b84811015613a1257803567ffffffffffffffff811115613b185760008081fd5b613b268986838b0101613a63565b845250918301918301613af8565b600080600060608486031215613b4957600080fd5b833567ffffffffffffffff80821115613b6157600080fd5b818601915086601f830112613b7557600080fd5b81356020613b856139d38361397f565b82815260059290921b8401810191818101908a841115613ba457600080fd5b948201945b83861015613bcb578535613bbc816139a3565b82529482019490820190613ba9565b97505087013592505080821115613be157600080fd5b613bed878388016139b2565b93506040860135915080821115613c0357600080fd5b50613c1086828701613ab4565b9150509250925092565b61ffff811681146110e757600080fd5b73ffffffffffffffffffffffffffffffffffffffff811681146110e757600080fd5b60008060008060008060c08789031215613c6557600080fd5b8635613c7081613c1a565b95506020870135613c80816139a3565b94506040870135613c9081613c2a565b9350606087013592506080870135915060a087013567ffffffffffffffff811115613cba57600080fd5b613cc689828a01613a63565b9150509295509295509295565b60008060008060008060c08789031215613cec57600080fd5b8635613cf781613c1a565b9550602087013567ffffffffffffffff80821115613d1457600080fd5b613d208a838b01613a63565b96506040890135955060608901359150613d3982613c2a565b9093506080880135925060a08801359080821115613d5657600080fd5b50613cc689828a01613a63565b600060208284031215613d7557600080fd5b8135613d8081613c2a565b9392505050565b7f4e487b7100000000000000000000000000000000000000000000000000000000600052603260045260246000fd5b8051613dc181613c2a565b919050565b80518015158114613dc157600080fd5b600080600080600060a08688031215613dee57600080fd5b8551613df981613c2a565b9450613e0760208701613dc6565b93506040860151613e17816139a3565b6060870151608090970151959894975095949392505050565b60008060008060808587031215613e4657600080fd5b8451613e5181613c2a565b6020860151909450613e6281613c2a565b6040860151606090960151949790965092505050565b600080600080600060a08688031215613e9057600080fd5b8551613e9b81613c2a565b6020870151909550613eac81613c2a565b6040870151606088015191955093509150613ec960808701613dc6565b90509295509295909350565b600080600060608486031215613eea57600080fd5b8351613ef581613c2a565b6020850151909350613f0681613c2a565b80925050604084015190509250925092565b600060208284031215613f2a57600080fd5b5051919050565b60008060408385031215613f4457600080fd5b8251613f4f81613c2a565b6020840151909250613f6081613c2a565b809150509250929050565b60008060408385031215613f7e57600080fd5b8251613f8981613c2a565b6020939093015192949293505050565b60008060008060808587031215613faf57600080fd5b845193506020808601519350604086015167ffffffffffffffff811115613fd557600080fd5b8601601f81018813613fe657600080fd5b8051613ff46139d38261397f565b81815260059190911b8201830190838101908a83111561401357600080fd5b928401925b8284101561403a57835161402b81613c2a565b82529284019290840190614018565b809650505050505061404e60608601613db6565b905092959194509250565b60005b8381101561407457818101518382015260200161405c565b838111156114cf5750506000910152565b600082601f83011261409657600080fd5b81516140a46139d382613a1d565b8181528460208386010111156140b957600080fd5b613556826020830160208701614059565b600060208083850312156140dd57600080fd5b825167ffffffffffffffff808211156140f557600080fd5b908401906080828703121561410957600080fd5b61411161387a565b825161411c81613c2a565b815282840151848201526040808401518183015260608401518381111561414257600080fd5b80850194505087601f85011261415757600080fd5b83516141656139d38261397f565b81815260059190911b8501860190868101908a83111561418457600080fd5b8787015b8381101561421e578051878111156141a05760008081fd5b8801808d037fffffffffffffffffffffffffffffffffffffffffffffffffffffffffffffffe0018613156141d45760008081fd5b6141dc6138a3565b8a8201516141e981613c2a565b815281870151898111156141fd5760008081fd5b61420b8f8d83860101614085565b828d015250845250918801918801614188565b506060850152509198975050505050505050565b600082601f83011261424357600080fd5b815160206142536139d38361397f565b82815260059290921b8401810191818101908684111561427257600080fd5b8286015b84811015613a1257805167ffffffffffffffff808211156142975760008081fd5b81890191506080807fffffffffffffffffffffffffffffffffffffffffffffffffffffffffffffffe0848d030112156142d05760008081fd5b6142d861387a565b878401516142e581613c2a565b81526040848101516142f681613c2a565b828a0152606085810151858116811461430f5760008081fd5b8383015292850151928484111561432857600091508182fd5b6143368e8b86890101614085565b90830152508652505050918301918301614276565b600082601f83011261435c57600080fd5b8151602061436c6139d38361397f565b82815260079290921b8401810191818101908684111561438b57600080fd5b8286015b84811015613a1257608081890312156143a85760008081fd5b6143b061387a565b81516143bb81613c2a565b8152818501516143ca81613c2a565b8186015260406143db838201613dc6565b908201526060828101519082015283529183019160800161438f565b6000602080838503121561440a57600080fd5b825167ffffffffffffffff8082111561442257600080fd5b908401906060828703121561443657600080fd5b61443e6138c6565b82518281111561444d57600080fd5b8301601f8101881361445e57600080fd5b805161446c6139d38261397f565b81815260059190911b8201860190868101908a83111561448b57600080fd5b8784015b83811015614553578051878111156144a657600080fd5b850160a0818e037fffffffffffffffffffffffffffffffffffffffffffffffffffffffffffffffe00112156144da57600080fd5b6144e26138e9565b8a8201516144ef81613c2a565b815260408201516144ff81613c2a565b818c015261450f60608301613dc6565b60408201526080820151606082015260a0820151898111156145315760008081fd5b61453f8f8d83860101614085565b60808301525084525091880191880161448f565b508452505050828401518281111561456a57600080fd5b61457688828601614232565b8583015250604083015193508184111561458f57600080fd5b61459b8785850161434b565b60408201529695505050505050565b8051613dc181613c1a565b600082601f8301126145c657600080fd5b815160206145d66139d38361397f565b82815260059290921b840181019181810190868411156145f557600080fd5b8286015b84811015613a1257805161460c816139a3565b83529183019183016145f9565b600082601f83011261462a57600080fd5b8151602061463a6139d38361397f565b82815260059290921b8401810191818101908684111561465957600080fd5b8286015b84811015613a12578051835291830191830161465d565b600082601f83011261468557600080fd5b815160206146956139d38361397f565b82815260059290921b840181019181810190868411156146b457600080fd5b8286015b84811015613a1257805167ffffffffffffffff8111156146d85760008081fd5b6146e68986838b0101614085565b8452509183019183016146b8565b6000806000808486036101c081121561470c57600080fd5b6101608082121561471c57600080fd5b61472461390c565b915061472f876145aa565b825261473d60208801613db6565b602083015260408701516040830152606087015160608301526080870151608083015260a087015160a083015260c087015160c083015261478060e08801613db6565b60e0830152610100614793818901613db6565b908301526101208781015190830152610140808801519083015286015190945067ffffffffffffffff808211156147c957600080fd5b6147d5888389016145b5565b94506101808701519150808211156147ec57600080fd5b6147f888838901614619565b93506101a087015191508082111561480f57600080fd5b5061481c87828801614674565b91505092959194509250565b60008151808452614840816020860160208601614059565b601f017fffffffffffffffffffffffffffffffffffffffffffffffffffffffffffffffe0169290920160200192915050565b602081526000613d806020830184614828565b805182526020810151602083015260006040820151606060408501526135566060850182614828565b61ffff8616815260ff8516602082015260a0604082015260006148d460a0830186614828565b82810360608401526148e68186614828565b905082810360808401526148fa8185614885565b98975050505050505050565b6000806040838503121561491957600080fd5b505080516020909101519092909150565b600080600080600060a0868803121561494257600080fd5b855161494d81613c2a565b602087015190955067ffffffffffffffff8082111561496b57600080fd5b61497789838a016145b5565b9550604088015191508082111561498d57600080fd5b61499989838a01614619565b945060608801519150808211156149af57600080fd5b506149bc88828901614674565b925050608086015190509295509295909350565b7f4e487b7100000000000000000000000000000000000000000000000000000000600052601160045260246000fd5b600082821015614a1157614a116149d0565b500390565b600081518084526020808501945080840160005b83811015614a4957815160ff1687529582019590820190600101614a2a565b509495945050505050565b600081518084526020808501945080840160005b83811015614a4957815187529582019590820190600101614a68565b600081518084526020808501808196508360051b8101915082860160005b85811015614acc578284038952614aba848351614828565b98850198935090840190600101614aa2565b5091979650505050505050565b606081526000614aec6060830186614a16565b8281036020840152614afe8186614a54565b90508281036040840152614b128185614a84565b9695505050505050565b600181815b80851115614b7557817fffffffffffffffffffffffffffffffffffffffffffffffffffffffffffffffff04821115614b5b57614b5b6149d0565b80851615614b6857918102915b93841c9390800290614b21565b509250929050565b600082614b8c575060016135e8565b81614b99575060006135e8565b8160018114614baf5760028114614bb957614bd5565b60019150506135e8565b60ff841115614bca57614bca6149d0565b50506001821b6135e8565b5060208310610133831016604e8410600b8410161715614bf8575081810a6135e8565b614c028383614b1c565b807fffffffffffffffffffffffffffffffffffffffffffffffffffffffffffffffff04821115614c3457614c346149d0565b029392505050565b6000613d8060ff841683614b7d565b6000817fffffffffffffffffffffffffffffffffffffffffffffffffffffffffffffffff0483118215151615614c8357614c836149d0565b500290565b600082614cbe577f4e487b7100000000000000000000000000000000000000000000000000000000600052601260045260246000fd5b500490565b73ffffffffffffffffffffffffffffffffffffffff8616815260a060208201526000614cf260a0830187614a16565b8281036040840152614d048187614a54565b90508281036060840152614d188186614a84565b9150508260808301529695505050505050565b600061012061ffff8c1683528a602084015289604084015273ffffffffffffffffffffffffffffffffffffffff891660608401528760808401528660a08401528060c0840152614d7d81840187614885565b905082810360e0840152614d918186614828565b9050828103610100840152614da68185614828565b9c9b505050505050505050505050565b60008219821115614dc957614dc96149d0565b500190565b60007fffffffffffffffffffffffffffffffffffffffffffffffffffffffffffffffff821415614e0057614e006149d0565b5060010190565b84815283602082015273ffffffffffffffffffffffffffffffffffffffff83166040820152608060608201526000614b126080830184614828565b600060208284031215614e5457600080fd5b613d8082613dc6565b80516dffffffffffffffffffffffffffff81168114613dc157600080fd5b600080600060608486031215614e9057600080fd5b614e9984614e5d565b9250614ea760208501614e5d565b9150604084015163ffffffff81168114614ec057600080fd5b809150509250925092565b60008251614edd818460208701614059565b919091019291505056fea2646970667358221220d1c92f34fa9d16ac6233aac7636ba0334520e544df3523bc916d278f3b0df89364736f6c634300080b0033",
  "linkReferences": {},
  "deployedLinkReferences": {}
}