{
  "_format": "hh-sol-artifact-1",
  "contractName": "FuroStreamRouter",
  "sourceName": "contracts/FuroStreamRouter.sol",
  "abi": [
    {
      "inputs": [
        {
          "internalType": "contract IBentoBoxMinimal",
          "name": "_bentoBox",
          "type": "address"
        },
        {
          "internalType": "contract IFuroStream",
          "name": "_furoStream",
          "type": "address"
        },
        {
          "internalType": "address",
          "name": "_wETH",
          "type": "address"
        }
      ],
      "stateMutability": "nonpayable",
      "type": "constructor"
    },
    {
      "inputs": [],
      "name": "InsufficientShares",
      "type": "error"
    },
    {
      "inputs": [],
      "name": "bentoBox",
      "outputs": [
        {
          "internalType": "contract IBentoBoxMinimal",
          "name": "",
          "type": "address"
        }
      ],
      "stateMutability": "view",
      "type": "function"
    },
    {
      "inputs": [
        {
          "internalType": "address",
          "name": "recipient",
          "type": "address"
        },
        {
          "internalType": "address",
          "name": "token",
          "type": "address"
        },
        {
          "internalType": "uint64",
          "name": "startTime",
          "type": "uint64"
        },
        {
          "internalType": "uint64",
          "name": "endTime",
          "type": "uint64"
        },
        {
          "internalType": "uint256",
          "name": "amount",
          "type": "uint256"
        },
        {
          "internalType": "bool",
          "name": "fromBentoBox",
          "type": "bool"
        },
        {
          "internalType": "uint256",
          "name": "minShare",
          "type": "uint256"
        }
      ],
      "name": "createStream",
      "outputs": [
        {
          "internalType": "uint256",
          "name": "streamId",
          "type": "uint256"
        },
        {
          "internalType": "uint256",
          "name": "depositedShares",
          "type": "uint256"
        }
      ],
      "stateMutability": "payable",
      "type": "function"
    },
    {
      "inputs": [],
      "name": "furoStream",
      "outputs": [
        {
          "internalType": "contract IFuroStream",
          "name": "",
          "type": "address"
        }
      ],
      "stateMutability": "view",
      "type": "function"
    },
    {
      "inputs": [
        {
          "internalType": "bytes[]",
          "name": "data",
          "type": "bytes[]"
        }
      ],
      "name": "multicall",
      "outputs": [
        {
          "internalType": "bytes[]",
          "name": "results",
          "type": "bytes[]"
        }
      ],
      "stateMutability": "payable",
      "type": "function"
    },
    {
      "inputs": [
        {
          "internalType": "address",
          "name": "user",
          "type": "address"
        },
        {
          "internalType": "bool",
          "name": "approved",
          "type": "bool"
        },
        {
          "internalType": "uint8",
          "name": "v",
          "type": "uint8"
        },
        {
          "internalType": "bytes32",
          "name": "r",
          "type": "bytes32"
        },
        {
          "internalType": "bytes32",
          "name": "s",
          "type": "bytes32"
        }
      ],
      "name": "setBentoBoxApproval",
      "outputs": [],
      "stateMutability": "payable",
      "type": "function"
    },
    {
      "inputs": [],
      "name": "wETH",
      "outputs": [
        {
          "internalType": "address",
          "name": "",
          "type": "address"
        }
      ],
      "stateMutability": "view",
      "type": "function"
    }
  ],
  "bytecode": "0x60e060405234801561001057600080fd5b50604051610fc0380380610fc083398101604081905261002f91610133565b6001600160a01b03838116608081905283821660a081905291831660c05260405163c0a47c9360e01b81523060048201526024810192909252600160448301526000606483018190526084830181905260a48301529063c0a47c939060c401600060405180830381600087803b1580156100a857600080fd5b505af11580156100bc573d6000803e3d6000fd5b50505050826001600160a01b031663aee4d1b26040518163ffffffff1660e01b8152600401600060405180830381600087803b1580156100fb57600080fd5b505af115801561010f573d6000803e3d6000fd5b50505050505050610180565b6001600160a01b038116811461013057600080fd5b50565b60008060006060848603121561014857600080fd5b83516101538161011b565b60208501519093506101648161011b565b60408501519092506101758161011b565b809150509250925092565b60805160a05160c051610de16101df6000396000818161016b015261031f015260008181610117015281816102a8015261043301526000818160be015281816101f7015281816106860152818161075001526107ca0152610de16000f3fe6080604052600436106100655760003560e01c80636f972346116100435780636f97234614610105578063ac9650d814610139578063f24286211461015957600080fd5b8063489bb0b21461006a57806365e1d2e11461007f5780636b2ace87146100ac575b600080fd5b61007d6100783660046108f3565b61018d565b005b61009261008d366004610968565b61025a565b604080519283526020830191909152015b60405180910390f35b3480156100b857600080fd5b506100e07f000000000000000000000000000000000000000000000000000000000000000081565b60405173ffffffffffffffffffffffffffffffffffffffff90911681526020016100a3565b34801561011157600080fd5b506100e07f000000000000000000000000000000000000000000000000000000000000000081565b61014c6101473660046109e0565b6104b0565b6040516100a39190610acf565b34801561016557600080fd5b506100e07f000000000000000000000000000000000000000000000000000000000000000081565b6040517fc0a47c9300000000000000000000000000000000000000000000000000000000815273ffffffffffffffffffffffffffffffffffffffff8681166004830152306024830152851515604483015260ff851660648301526084820184905260a482018390527f0000000000000000000000000000000000000000000000000000000000000000169063c0a47c939060c401600060405180830381600087803b15801561023b57600080fd5b505af115801561024f573d6000803e3d6000fd5b505050505050505050565b60008061026a883330888861062b565b9050828110156102a6576040517f3999656700000000000000000000000000000000000000000000000000000000815260040160405180910390fd5b7f000000000000000000000000000000000000000000000000000000000000000073ffffffffffffffffffffffffffffffffffffffff1663c14cf8f08a600073ffffffffffffffffffffffffffffffffffffffff168b73ffffffffffffffffffffffffffffffffffffffff161461031d578a61033f565b7f00000000000000000000000000000000000000000000000000000000000000005b6040517fffffffff0000000000000000000000000000000000000000000000000000000060e085901b16815273ffffffffffffffffffffffffffffffffffffffff92831660048201529116602482015267ffffffffffffffff808b1660448301528916606482015260848101889052600160a482015260c40160408051808303816000875af11580156103d6573d6000803e3d6000fd5b505050506040513d601f19601f820116820180604052508101906103fa9190610b4f565b506040517f2b913453000000000000000000000000000000000000000000000000000000008152600481018290523360248201529092507f000000000000000000000000000000000000000000000000000000000000000073ffffffffffffffffffffffffffffffffffffffff1690632b91345390604401600060405180830381600087803b15801561048c57600080fd5b505af11580156104a0573d6000803e3d6000fd5b5050505097509795505050505050565b60608167ffffffffffffffff8111156104cb576104cb610b73565b6040519080825280602002602001820160405280156104fe57816020015b60608152602001906001900390816104e95790505b50905060005b82811015610624576000803086868581811061052257610522610ba2565b90506020028101906105349190610bd1565b604051610542929190610c3d565b600060405180830381855af49150503d806000811461057d576040519150601f19603f3d011682016040523d82523d6000602084013e610582565b606091505b5091509150816105f15760448151101561059b57600080fd5b600481019050808060200190518101906105b59190610c4d565b6040517f08c379a00000000000000000000000000000000000000000000000000000000081526004016105e89190610d18565b60405180910390fd5b8084848151811061060457610604610ba2565b60200260200101819052505050808061061c90610d32565b915050610504565b5092915050565b600081156107b3576040517fda5139ca00000000000000000000000000000000000000000000000000000000815273ffffffffffffffffffffffffffffffffffffffff878116600483015260248201859052600060448301527f0000000000000000000000000000000000000000000000000000000000000000169063da5139ca90606401602060405180830381865afa1580156106cd573d6000803e3d6000fd5b505050506040513d601f19601f820116820180604052508101906106f19190610d92565b6040517ff18d03cc00000000000000000000000000000000000000000000000000000000815273ffffffffffffffffffffffffffffffffffffffff888116600483015287811660248301528681166044830152606482018390529192507f00000000000000000000000000000000000000000000000000000000000000009091169063f18d03cc90608401600060405180830381600087803b15801561079657600080fd5b505af11580156107aa573d6000803e3d6000fd5b505050506108b1565b73ffffffffffffffffffffffffffffffffffffffff7f00000000000000000000000000000000000000000000000000000000000000008116906302b9446c90881615610800576000610802565b845b6040517fffffffff0000000000000000000000000000000000000000000000000000000060e084901b16815273ffffffffffffffffffffffffffffffffffffffff808b166004830152808a16602483015288166044820152606481018790526000608482015260a401604080518083038185885af1158015610888573d6000803e3d6000fd5b50505050506040513d601f19601f820116820180604052508101906108ad9190610b4f565b9150505b95945050505050565b803573ffffffffffffffffffffffffffffffffffffffff811681146108de57600080fd5b919050565b803580151581146108de57600080fd5b600080600080600060a0868803121561090b57600080fd5b610914866108ba565b9450610922602087016108e3565b9350604086013560ff8116811461093857600080fd5b94979396509394606081013594506080013592915050565b803567ffffffffffffffff811681146108de57600080fd5b600080600080600080600060e0888a03121561098357600080fd5b61098c886108ba565b965061099a602089016108ba565b95506109a860408901610950565b94506109b660608901610950565b9350608088013592506109cb60a089016108e3565b915060c0880135905092959891949750929550565b600080602083850312156109f357600080fd5b823567ffffffffffffffff80821115610a0b57600080fd5b818501915085601f830112610a1f57600080fd5b813581811115610a2e57600080fd5b8660208260051b8501011115610a4357600080fd5b60209290920196919550909350505050565b60005b83811015610a70578181015183820152602001610a58565b83811115610a7f576000848401525b50505050565b60008151808452610a9d816020860160208601610a55565b601f017fffffffffffffffffffffffffffffffffffffffffffffffffffffffffffffffe0169290920160200192915050565b6000602080830181845280855180835260408601915060408160051b870101925083870160005b82811015610b42577fffffffffffffffffffffffffffffffffffffffffffffffffffffffffffffffc0888603018452610b30858351610a85565b94509285019290850190600101610af6565b5092979650505050505050565b60008060408385031215610b6257600080fd5b505080516020909101519092909150565b7f4e487b7100000000000000000000000000000000000000000000000000000000600052604160045260246000fd5b7f4e487b7100000000000000000000000000000000000000000000000000000000600052603260045260246000fd5b60008083357fffffffffffffffffffffffffffffffffffffffffffffffffffffffffffffffe1843603018112610c0657600080fd5b83018035915067ffffffffffffffff821115610c2157600080fd5b602001915036819003821315610c3657600080fd5b9250929050565b8183823760009101908152919050565b600060208284031215610c5f57600080fd5b815167ffffffffffffffff80821115610c7757600080fd5b818401915084601f830112610c8b57600080fd5b815181811115610c9d57610c9d610b73565b604051601f82017fffffffffffffffffffffffffffffffffffffffffffffffffffffffffffffffe0908116603f01168101908382118183101715610ce357610ce3610b73565b81604052828152876020848701011115610cfc57600080fd5b610d0d836020830160208801610a55565b979650505050505050565b602081526000610d2b6020830184610a85565b9392505050565b60007fffffffffffffffffffffffffffffffffffffffffffffffffffffffffffffffff821415610d8b577f4e487b7100000000000000000000000000000000000000000000000000000000600052601160045260246000fd5b5060010190565b600060208284031215610da457600080fd5b505191905056fea2646970667358221220ff906d27dbf4a271dfc1ff09fae051496a19063598dcc04ed98d66846394bbe764736f6c634300080a0033",
  "linkReferences": {},
  "deployedLinkReferences": {}
}