{"contracts/RouteProcessor.sol":{"RouteProcessor":{"abi":[{"inputs":[{"internalType":"address","name":"_bentoBox","type":"address"}],"stateMutability":"nonpayable","type":"constructor"},{"inputs":[],"name":"bentoBox","outputs":[{"internalType":"contract IBentoBoxMinimal","name":"","type":"address"}],"stateMutability":"view","type":"function"},{"inputs":[{"internalType":"address","name":"tokenIn","type":"address"},{"internalType":"uint256","name":"amountIn","type":"uint256"},{"internalType":"address","name":"tokenOut","type":"address"},{"internalType":"uint256","name":"amountOutMin","type":"uint256"},{"internalType":"address","name":"to","type":"address"},{"internalType":"bytes","name":"route","type":"bytes"}],"name":"processRoute","outputs":[{"internalType":"uint256","name":"amountOut","type":"uint256"}],"stateMutability":"payable","type":"function"},{"inputs":[{"internalType":"address payable","name":"transferValueTo","type":"address"},{"internalType":"uint256","name":"amountValueTransfer","type":"uint256"},{"internalType":"address","name":"tokenIn","type":"address"},{"internalType":"uint256","name":"amountIn","type":"uint256"},{"internalType":"address","name":"tokenOut","type":"address"},{"internalType":"uint256","name":"amountOutMin","type":"uint256"},{"internalType":"address","name":"to","type":"address"},{"internalType":"bytes","name":"route","type":"bytes"}],"name":"transferValueAndprocessRoute","outputs":[{"internalType":"uint256","name":"amountOut","type":"uint256"}],"stateMutability":"payable","type":"function"},{"stateMutability":"payable","type":"receive"}],"devdoc":{"author":"Okavango","kind":"dev","methods":{"processRoute(address,uint256,address,uint256,address,bytes)":{"params":{"amountIn":"Amount of the input token","amountOutMin":"Minimum amount of the output token","tokenIn":"Address of the input token","tokenOut":"Address of the output token"},"returns":{"amountOut":"Actual amount of the output token"}},"transferValueAndprocessRoute(address,uint256,address,uint256,address,uint256,address,bytes)":{"params":{"amountIn":"Amount of the input token","amountOutMin":"Minimum amount of the output token","amountValueTransfer":"How much value to transfer","tokenIn":"Address of the input token","tokenOut":"Address of the output token","transferValueTo":"Address where the value should be transferred"},"returns":{"amountOut":"Actual amount of the output token"}}},"title":"A route processor for the Sushi Aggregator","version":1},"evm":{"bytecode":{"linkReferences":{},"object":"60a0604052600160005534801561001557600080fd5b506040516200255e3803806200255e83398101604081905261003691610047565b6001600160a01b0316608052610077565b60006020828403121561005957600080fd5b81516001600160a01b038116811461007057600080fd5b9392505050565b60805161247f620000df60003960008181607c015281816110470152818161122001528181611307015281816113f20152818161150a015281816115e5015281816116aa0152818161175701528181611838015281816118fe01526119cd015261247f6000f3fe6080604052600436106100385760003560e01c80632646478b146100445780636b2ace871461006a57806393b3774c146100c357600080fd5b3661003f57005b600080fd5b610057610052366004611f4c565b6100d6565b6040519081526020015b60405180910390f35b34801561007657600080fd5b5061009e7f000000000000000000000000000000000000000000000000000000000000000081565b60405173ffffffffffffffffffffffffffffffffffffffff9091168152602001610061565b6100576100d1366004611fd3565b61016b565b60008054600114610148576040517f08c379a000000000000000000000000000000000000000000000000000000000815260206004820152601860248201527f526f75746550726f636573736f72206973206c6f636b6564000000000000000060448201526064015b60405180910390fd5b600260005561015b8787878787876102bc565b6001600055979650505050505050565b600080546001146101d8576040517f08c379a000000000000000000000000000000000000000000000000000000000815260206004820152601860248201527f526f75746550726f636573736f72206973206c6f636b65640000000000000000604482015260640161013f565b60026000908155604051819073ffffffffffffffffffffffffffffffffffffffff8c16908b908381818185875af1925050503d8060008114610236576040519150601f19603f3d011682016040523d82523d6000602084013e61023b565b606091505b5091509150818160405160200161025291906120a4565b60405160208183030381529060405290610299576040517f08c379a000000000000000000000000000000000000000000000000000000000815260040161013f919061210a565b506102a88989898989896102bc565b60016000559b9a5050505050505050505050565b6000808073ffffffffffffffffffffffffffffffffffffffff871673eeeeeeeeeeeeeeeeeeeeeeeeeeeeeeeeeeeeeeee14610386576040517f70a0823100000000000000000000000000000000000000000000000000000000815273ffffffffffffffffffffffffffffffffffffffff86811660048301528816906370a0823190602401602060405180830381865afa15801561035d573d6000803e3d6000fd5b505050506040513d601f19601f820116820180604052508101906103819190612124565b61039f565b8473ffffffffffffffffffffffffffffffffffffffff16315b604080518082019091528581528551860160208201529091505b80516020820151111561058d5760006103d88280516001018051915290565b905060148160ff1610156104e5578060ff16600a1415610401576103fb82610765565b50610587565b8060ff166004141561041b5761041682610a87565b610587565b8060ff166003141561044257610431828c610bcb565b61043b908561216c565b9350610587565b8060ff16600514156104575761043182610c63565b8060ff166006141561046d576104168783610dfc565b8060ff166007141561048357610431828c610f4d565b6040517f08c379a000000000000000000000000000000000000000000000000000000000815260206004820152601460248201527f556e6b6e6f776e20636f6d6d616e6420636f6465000000000000000000000000604482015260640161013f565b60188160ff161015610532578060ff166014141561050757610416828c610fdc565b8060ff166015141561051c57610416826110dc565b8060ff166017141561048357610416828c611196565b8060ff166018141561054857610431828c611251565b8060ff166019141561055d5761041682611378565b8060ff16601a14156105725761041682611574565b8060ff16601b14156104835761041682611887565b506103b9565b8883146105f6576040517f08c379a000000000000000000000000000000000000000000000000000000000815260206004820152601460248201527f57726f6e6720616d6f756e74496e2076616c7565000000000000000000000000604482015260640161013f565b600073ffffffffffffffffffffffffffffffffffffffff891673eeeeeeeeeeeeeeeeeeeeeeeeeeeeeeeeeeeeeeee146106be576040517f70a0823100000000000000000000000000000000000000000000000000000000815273ffffffffffffffffffffffffffffffffffffffff88811660048301528a16906370a0823190602401602060405180830381865afa158015610695573d6000803e3d6000fd5b505050506040513d601f19601f820116820180604052508101906106b99190612124565b6106d7565b8673ffffffffffffffffffffffffffffffffffffffff16315b90506106e3888461216c565b81101561074c576040517f08c379a000000000000000000000000000000000000000000000000000000000815260206004820152601f60248201527f4d696e696d616c206f757075742062616c616e63652076696f6c6174696f6e00604482015260640161013f565b6107568382612184565b9b9a5050505050505050505050565b6000806107788380516014018051915290565b9050600061078c8480516014018051915290565b905060006107a08580516001018051915290565b905060006107b48680516014018051915290565b90506000808573ffffffffffffffffffffffffffffffffffffffff16630902f1ac6040518163ffffffff1660e01b8152600401606060405180830381865afa158015610804573d6000803e3d6000fd5b505050506040513d601f19601f8201168201806040525081019061082891906121be565b506dffffffffffffffffffffffffffff1691506dffffffffffffffffffffffffffff16915060008211801561085d5750600081115b6108c3576040517f08c379a000000000000000000000000000000000000000000000000000000000815260206004820152601360248201527f57726f6e6720706f6f6c20726573657276657300000000000000000000000000604482015260640161013f565b6000808560ff166001146108d85782846108db565b83835b6040517f70a0823100000000000000000000000000000000000000000000000000000000815273ffffffffffffffffffffffffffffffffffffffff8b811660048301529294509092506000918491908a16906370a0823190602401602060405180830381865afa158015610953573d6000803e3d6000fd5b505050506040513d601f19601f820116820180604052508101906109779190612124565b6109819190612184565b90506000610991826103e561220e565b9050806109a0856103e861220e565b6109aa919061216c565b6109b4848361220e565b6109be919061224b565b9a506000808960ff166001146109d6578c60006109da565b60008d5b604080516000815260208101918290527f022c0d9f00000000000000000000000000000000000000000000000000000000909152919350915073ffffffffffffffffffffffffffffffffffffffff8d169063022c0d9f90610a4490859085908e9060248101612286565b600060405180830381600087803b158015610a5e57600080fd5b505af1158015610a72573d6000803e3d6000fd5b50505050505050505050505050505050919050565b6000610a998280516014018051915290565b90506000610aad8380516001018051915290565b6040517f70a0823100000000000000000000000000000000000000000000000000000000815230600482015290915060009060019073ffffffffffffffffffffffffffffffffffffffff8516906370a0823190602401602060405180830381865afa158015610b20573d6000803e3d6000fd5b505050506040513d601f19601f82011682018060405250810190610b449190612124565b610b4e9190612184565b905060005b8260ff16811015610bc4576000610b708680516014018051915290565b90506000610b848780516002018051915290565b61ffff8082168602049485900394909150610bb673ffffffffffffffffffffffffffffffffffffffff881684836119fe565b505050806001019050610b53565b5050505050565b600080610bde8480516001018051915290565b90506000915060005b8160ff16811015610c5b576000610c048680516014018051915290565b90506000610c188780516020018051915290565b9050610c24818661216c565b9450610c4873ffffffffffffffffffffffffffffffffffffffff8716338484611ad7565b505080610c54906122cb565b9050610be7565b505092915050565b600080610c768380516014018051915290565b90508073ffffffffffffffffffffffffffffffffffffffff1663d0e30db0476040518263ffffffff1660e01b81526004016000604051808303818588803b158015610cc057600080fd5b505af1158015610cd4573d6000803e3d6000fd5b50505050506000610ceb8480516001018051915290565b90506000925060005b8160ff16811015610d67576000610d118680516014018051915290565b90506000610d258780516020018051915290565b9050610d31818761216c565b9550610d5473ffffffffffffffffffffffffffffffffffffffff861683836119fe565b505080610d60906122cb565b9050610cf4565b504715610df5576040517f08c379a0000000000000000000000000000000000000000000000000000000008152602060048201526024808201527f526f75746550726f636573736f723a20696e76616c696420696e70757420616d60448201527f6f756e7400000000000000000000000000000000000000000000000000000000606482015260840161013f565b5050919050565b6000610e0e8280516014018051915290565b6040517f70a0823100000000000000000000000000000000000000000000000000000000815230600482015290915073ffffffffffffffffffffffffffffffffffffffff821690632e1a7d4d9060019083906370a0823190602401602060405180830381865afa158015610e86573d6000803e3d6000fd5b505050506040513d601f19601f82011682018060405250810190610eaa9190612124565b610eb49190612184565b6040518263ffffffff1660e01b8152600401610ed291815260200190565b600060405180830381600087803b158015610eec57600080fd5b505af1158015610f00573d6000803e3d6000fd5b505060405173ffffffffffffffffffffffffffffffffffffffff861692504780156108fc029250906000818181858888f19350505050158015610f47573d6000803e3d6000fd5b50505050565b600080610f608480516001018051915290565b90506000915060005b8160ff16811015610c5b576000610f868680516014018051915290565b90506000610f9a8780516020018051915290565b9050610fa6818661216c565b9450610fc973ffffffffffffffffffffffffffffffffffffffff871683836119fe565b505080610fd5906122cb565b9050610f69565b6000610fee8380516014018051915290565b905060006110028480516020018051915290565b6040517f02b9446c00000000000000000000000000000000000000000000000000000000815273ffffffffffffffffffffffffffffffffffffffff85811660048301527f0000000000000000000000000000000000000000000000000000000000000000811660248301819052908516604483015260648201839052600060848301529192506302b9446c9060a4015b60408051808303816000875af11580156110b0573d6000803e3d6000fd5b505050506040513d601f19601f820116820180604052508101906110d49190612304565b505050505050565b60006110ee8280516014018051915290565b8251602080820180519092010184526040517f627dd56a0000000000000000000000000000000000000000000000000000000081529192509073ffffffffffffffffffffffffffffffffffffffff83169063627dd56a9061115390849060040161210a565b6020604051808303816000875af1158015611172573d6000803e3d6000fd5b505050506040513d601f19601f82011682018060405250810190610f479190612124565b60006111a88380516014018051915290565b905060006111bc8480516020018051915290565b6040517f97da6d3000000000000000000000000000000000000000000000000000000000815273ffffffffffffffffffffffffffffffffffffffff8581166004830152306024830152848116604483015260648201839052600060848301529192507f0000000000000000000000000000000000000000000000000000000000000000909116906397da6d309060a401611092565b6000806112648480516001018051915290565b90506000915060005b8160ff16811015610c5b57600061128a8680516014018051915290565b9050600061129e8780516020018051915290565b90506112aa818661216c565b6040517ff18d03cc00000000000000000000000000000000000000000000000000000000815273ffffffffffffffffffffffffffffffffffffffff88811660048301523360248301528481166044830152606482018490529196507f00000000000000000000000000000000000000000000000000000000000000009091169063f18d03cc90608401600060405180830381600087803b15801561134d57600080fd5b505af1158015611361573d6000803e3d6000fd5b50505050505080611371906122cb565b905061126d565b600061138a8280516014018051915290565b9050600061139e8380516001018051915290565b6040517ff7888aec00000000000000000000000000000000000000000000000000000000815273ffffffffffffffffffffffffffffffffffffffff84811660048301523060248301529192506000916001917f00000000000000000000000000000000000000000000000000000000000000009091169063f7888aec90604401602060405180830381865afa15801561143b573d6000803e3d6000fd5b505050506040513d601f19601f8201168201806040525081019061145f9190612124565b6114699190612184565b905060005b8260ff16811015610bc457600061148b8680516014018051915290565b9050600061149f8780516002018051915290565b6040517ff18d03cc00000000000000000000000000000000000000000000000000000000815273ffffffffffffffffffffffffffffffffffffffff8881166004830152306024830152848116604483015261ffff8084168802046064830181905296879003969293507f0000000000000000000000000000000000000000000000000000000000000000169063f18d03cc90608401600060405180830381600087803b15801561154e57600080fd5b505af1158015611562573d6000803e3d6000fd5b5050505050505080600101905061146e565b60006115868280516014018051915290565b9050600061159a8380516014018051915290565b6040517f4ffe34db00000000000000000000000000000000000000000000000000000000815273ffffffffffffffffffffffffffffffffffffffff80831660048301529192506000917f00000000000000000000000000000000000000000000000000000000000000001690634ffe34db906024016040805180830381865afa15801561162b573d6000803e3d6000fd5b505050506040513d601f19601f8201168201806040525081019061164f9190612348565b516040517fdf23b45b00000000000000000000000000000000000000000000000000000000815273ffffffffffffffffffffffffffffffffffffffff84811660048301526fffffffffffffffffffffffffffffffff909216917f0000000000000000000000000000000000000000000000000000000000000000169063df23b45b90602401606060405180830381865afa1580156116f1573d6000803e3d6000fd5b505050506040513d601f19601f8201168201806040525081019061171591906123bb565b60409081015190517f70a0823100000000000000000000000000000000000000000000000000000000815273ffffffffffffffffffffffffffffffffffffffff7f0000000000000000000000000000000000000000000000000000000000000000811660048301526fffffffffffffffffffffffffffffffff909216918516906370a0823190602401602060405180830381865afa1580156117bb573d6000803e3d6000fd5b505050506040513d601f19601f820116820180604052508101906117df9190612124565b6117e9919061216c565b6117f39190612184565b6040517f02b9446c00000000000000000000000000000000000000000000000000000000815273ffffffffffffffffffffffffffffffffffffffff84811660048301527f0000000000000000000000000000000000000000000000000000000000000000811660248301819052908616604483015260648201839052600060848301529192506302b9446c9060a401611092565b60006118998280516014018051915290565b905060006118ad8380516014018051915290565b6040517ff7888aec00000000000000000000000000000000000000000000000000000000815273ffffffffffffffffffffffffffffffffffffffff84811660048301523060248301529192506000917f0000000000000000000000000000000000000000000000000000000000000000169063f7888aec90604401602060405180830381865afa158015611945573d6000803e3d6000fd5b505050506040513d601f19601f820116820180604052508101906119699190612124565b6040517f97da6d3000000000000000000000000000000000000000000000000000000000815273ffffffffffffffffffffffffffffffffffffffff8581166004830152306024830152848116604483015260006064830152608482018390529192507f0000000000000000000000000000000000000000000000000000000000000000909116906397da6d309060a401611092565b60405173ffffffffffffffffffffffffffffffffffffffff8316602482015260448101829052611ad29084907fa9059cbb00000000000000000000000000000000000000000000000000000000906064015b604080517fffffffffffffffffffffffffffffffffffffffffffffffffffffffffffffffe08184030181529190526020810180517bffffffffffffffffffffffffffffffffffffffffffffffffffffffff167fffffffff0000000000000000000000000000000000000000000000000000000090931692909217909152611b35565b505050565b60405173ffffffffffffffffffffffffffffffffffffffff80851660248301528316604482015260648101829052610f479085907f23b872dd0000000000000000000000000000000000000000000000000000000090608401611a50565b6000611b97826040518060400160405280602081526020017f5361666545524332303a206c6f772d6c6576656c2063616c6c206661696c65648152508573ffffffffffffffffffffffffffffffffffffffff16611c419092919063ffffffff16565b805190915015611ad25780806020019051810190611bb59190612427565b611ad2576040517f08c379a000000000000000000000000000000000000000000000000000000000815260206004820152602a60248201527f5361666545524332303a204552433230206f7065726174696f6e20646964206e60448201527f6f74207375636365656400000000000000000000000000000000000000000000606482015260840161013f565b6060611c508484600085611c58565b949350505050565b606082471015611cea576040517f08c379a000000000000000000000000000000000000000000000000000000000815260206004820152602660248201527f416464726573733a20696e73756666696369656e742062616c616e636520666f60448201527f722063616c6c0000000000000000000000000000000000000000000000000000606482015260840161013f565b6000808673ffffffffffffffffffffffffffffffffffffffff168587604051611d1391906120a4565b60006040518083038185875af1925050503d8060008114611d50576040519150601f19603f3d011682016040523d82523d6000602084013e611d55565b606091505b5091509150611d6687838387611d71565b979650505050505050565b60608315611e04578251611dfd5773ffffffffffffffffffffffffffffffffffffffff85163b611dfd576040517f08c379a000000000000000000000000000000000000000000000000000000000815260206004820152601d60248201527f416464726573733a2063616c6c20746f206e6f6e2d636f6e7472616374000000604482015260640161013f565b5081611c50565b611c508383815115611e195781518083602001fd5b806040517f08c379a000000000000000000000000000000000000000000000000000000000815260040161013f919061210a565b73ffffffffffffffffffffffffffffffffffffffff81168114611e6f57600080fd5b50565b7f4e487b7100000000000000000000000000000000000000000000000000000000600052604160045260246000fd5b600082601f830112611eb257600080fd5b813567ffffffffffffffff80821115611ecd57611ecd611e72565b604051601f83017fffffffffffffffffffffffffffffffffffffffffffffffffffffffffffffffe0908116603f01168101908282118183101715611f1357611f13611e72565b81604052838152866020858801011115611f2c57600080fd5b836020870160208301376000602085830101528094505050505092915050565b60008060008060008060c08789031215611f6557600080fd5b8635611f7081611e4d565b9550602087013594506040870135611f8781611e4d565b9350606087013592506080870135611f9e81611e4d565b915060a087013567ffffffffffffffff811115611fba57600080fd5b611fc689828a01611ea1565b9150509295509295509295565b600080600080600080600080610100898b031215611ff057600080fd5b8835611ffb81611e4d565b975060208901359650604089013561201281611e4d565b955060608901359450608089013561202981611e4d565b935060a0890135925060c089013561204081611e4d565b915060e089013567ffffffffffffffff81111561205c57600080fd5b6120688b828c01611ea1565b9150509295985092959890939650565b60005b8381101561209357818101518382015260200161207b565b83811115610f475750506000910152565b600082516120b6818460208701612078565b9190910192915050565b600081518084526120d8816020860160208601612078565b601f017fffffffffffffffffffffffffffffffffffffffffffffffffffffffffffffffe0169290920160200192915050565b60208152600061211d60208301846120c0565b9392505050565b60006020828403121561213657600080fd5b5051919050565b7f4e487b7100000000000000000000000000000000000000000000000000000000600052601160045260246000fd5b6000821982111561217f5761217f61213d565b500190565b6000828210156121965761219661213d565b500390565b80516dffffffffffffffffffffffffffff811681146121b957600080fd5b919050565b6000806000606084860312156121d357600080fd5b6121dc8461219b565b92506121ea6020850161219b565b9150604084015163ffffffff8116811461220357600080fd5b809150509250925092565b6000817fffffffffffffffffffffffffffffffffffffffffffffffffffffffffffffffff04831182151516156122465761224661213d565b500290565b600082612281577f4e487b7100000000000000000000000000000000000000000000000000000000600052601260045260246000fd5b500490565b84815283602082015273ffffffffffffffffffffffffffffffffffffffff831660408201526080606082015260006122c160808301846120c0565b9695505050505050565b60007fffffffffffffffffffffffffffffffffffffffffffffffffffffffffffffffff8214156122fd576122fd61213d565b5060010190565b6000806040838503121561231757600080fd5b505080516020909101519092909150565b80516fffffffffffffffffffffffffffffffff811681146121b957600080fd5b60006040828403121561235a57600080fd5b6040516040810181811067ffffffffffffffff8211171561237d5761237d611e72565b60405261238983612328565b815261239760208401612328565b60208201529392505050565b805167ffffffffffffffff811681146121b957600080fd5b6000606082840312156123cd57600080fd5b6040516060810181811067ffffffffffffffff821117156123f0576123f0611e72565b6040526123fc836123a3565b815261240a602084016123a3565b602082015261241b60408401612328565b60408201529392505050565b60006020828403121561243957600080fd5b8151801515811461211d57600080fdfea264697066735822122094b1f4dca42af174e67447a8c123dbb05c58e628ef14bf7157e50e77841c08ac64736f6c634300080a0033","opcodes":"PUSH1 0xA0 PUSH1 0x40 MSTORE PUSH1 0x1 PUSH1 0x0 SSTORE CALLVALUE DUP1 ISZERO PUSH2 0x15 JUMPI PUSH1 0x0 DUP1 REVERT JUMPDEST POP PUSH1 0x40 MLOAD PUSH3 0x255E CODESIZE SUB DUP1 PUSH3 0x255E DUP4 CODECOPY DUP2 ADD PUSH1 0x40 DUP2 SWAP1 MSTORE PUSH2 0x36 SWAP2 PUSH2 0x47 JUMP JUMPDEST PUSH1 0x1 PUSH1 0x1 PUSH1 0xA0 SHL SUB AND PUSH1 0x80 MSTORE PUSH2 0x77 JUMP JUMPDEST PUSH1 0x0 PUSH1 0x20 DUP3 DUP5 SUB SLT ISZERO PUSH2 0x59 JUMPI PUSH1 0x0 DUP1 REVERT JUMPDEST DUP2 MLOAD PUSH1 0x1 PUSH1 0x1 PUSH1 0xA0 SHL SUB DUP2 AND DUP2 EQ PUSH2 0x70 JUMPI PUSH1 0x0 DUP1 REVERT JUMPDEST SWAP4 SWAP3 POP POP POP JUMP JUMPDEST PUSH1 0x80 MLOAD PUSH2 0x247F PUSH3 0xDF PUSH1 0x0 CODECOPY PUSH1 0x0 DUP2 DUP2 PUSH1 0x7C ADD MSTORE DUP2 DUP2 PUSH2 0x1047 ADD MSTORE DUP2 DUP2 PUSH2 0x1220 ADD MSTORE DUP2 DUP2 PUSH2 0x1307 ADD MSTORE DUP2 DUP2 PUSH2 0x13F2 ADD MSTORE DUP2 DUP2 PUSH2 0x150A ADD MSTORE DUP2 DUP2 PUSH2 0x15E5 ADD MSTORE DUP2 DUP2 PUSH2 0x16AA ADD MSTORE DUP2 DUP2 PUSH2 0x1757 ADD MSTORE DUP2 DUP2 PUSH2 0x1838 ADD MSTORE DUP2 DUP2 PUSH2 0x18FE ADD MSTORE PUSH2 0x19CD ADD MSTORE PUSH2 0x247F PUSH1 0x0 RETURN INVALID PUSH1 0x80 PUSH1 0x40 MSTORE PUSH1 0x4 CALLDATASIZE LT PUSH2 0x38 JUMPI PUSH1 0x0 CALLDATALOAD PUSH1 0xE0 SHR DUP1 PUSH4 0x2646478B EQ PUSH2 0x44 JUMPI DUP1 PUSH4 0x6B2ACE87 EQ PUSH2 0x6A JUMPI DUP1 PUSH4 0x93B3774C EQ PUSH2 0xC3 JUMPI PUSH1 0x0 DUP1 REVERT JUMPDEST CALLDATASIZE PUSH2 0x3F JUMPI STOP JUMPDEST PUSH1 0x0 DUP1 REVERT JUMPDEST PUSH2 0x57 PUSH2 0x52 CALLDATASIZE PUSH1 0x4 PUSH2 0x1F4C JUMP JUMPDEST PUSH2 0xD6 JUMP JUMPDEST PUSH1 0x40 MLOAD SWAP1 DUP2 MSTORE PUSH1 0x20 ADD JUMPDEST PUSH1 0x40 MLOAD DUP1 SWAP2 SUB SWAP1 RETURN JUMPDEST CALLVALUE DUP1 ISZERO PUSH2 0x76 JUMPI PUSH1 0x0 DUP1 REVERT JUMPDEST POP PUSH2 0x9E PUSH32 0x0 DUP2 JUMP JUMPDEST PUSH1 0x40 MLOAD PUSH20 0xFFFFFFFFFFFFFFFFFFFFFFFFFFFFFFFFFFFFFFFF SWAP1 SWAP2 AND DUP2 MSTORE PUSH1 0x20 ADD PUSH2 0x61 JUMP JUMPDEST PUSH2 0x57 PUSH2 0xD1 CALLDATASIZE PUSH1 0x4 PUSH2 0x1FD3 JUMP JUMPDEST PUSH2 0x16B JUMP JUMPDEST PUSH1 0x0 DUP1 SLOAD PUSH1 0x1 EQ PUSH2 0x148 JUMPI PUSH1 0x40 MLOAD PUSH32 0x8C379A000000000000000000000000000000000000000000000000000000000 DUP2 MSTORE PUSH1 0x20 PUSH1 0x4 DUP3 ADD MSTORE PUSH1 0x18 PUSH1 0x24 DUP3 ADD MSTORE PUSH32 0x526F75746550726F636573736F72206973206C6F636B65640000000000000000 PUSH1 0x44 DUP3 ADD MSTORE PUSH1 0x64 ADD JUMPDEST PUSH1 0x40 MLOAD DUP1 SWAP2 SUB SWAP1 REVERT JUMPDEST PUSH1 0x2 PUSH1 0x0 SSTORE PUSH2 0x15B DUP8 DUP8 DUP8 DUP8 DUP8 DUP8 PUSH2 0x2BC JUMP JUMPDEST PUSH1 0x1 PUSH1 0x0 SSTORE SWAP8 SWAP7 POP POP POP POP POP POP POP JUMP JUMPDEST PUSH1 0x0 DUP1 SLOAD PUSH1 0x1 EQ PUSH2 0x1D8 JUMPI PUSH1 0x40 MLOAD PUSH32 0x8C379A000000000000000000000000000000000000000000000000000000000 DUP2 MSTORE PUSH1 0x20 PUSH1 0x4 DUP3 ADD MSTORE PUSH1 0x18 PUSH1 0x24 DUP3 ADD MSTORE PUSH32 0x526F75746550726F636573736F72206973206C6F636B65640000000000000000 PUSH1 0x44 DUP3 ADD MSTORE PUSH1 0x64 ADD PUSH2 0x13F JUMP JUMPDEST PUSH1 0x2 PUSH1 0x0 SWAP1 DUP2 SSTORE PUSH1 0x40 MLOAD DUP2 SWAP1 PUSH20 0xFFFFFFFFFFFFFFFFFFFFFFFFFFFFFFFFFFFFFFFF DUP13 AND SWAP1 DUP12 SWAP1 DUP4 DUP2 DUP2 DUP2 DUP6 DUP8 GAS CALL SWAP3 POP POP POP RETURNDATASIZE DUP1 PUSH1 0x0 DUP2 EQ PUSH2 0x236 JUMPI PUSH1 0x40 MLOAD SWAP2 POP PUSH1 0x1F NOT PUSH1 0x3F RETURNDATASIZE ADD AND DUP3 ADD PUSH1 0x40 MSTORE RETURNDATASIZE DUP3 MSTORE RETURNDATASIZE PUSH1 0x0 PUSH1 0x20 DUP5 ADD RETURNDATACOPY PUSH2 0x23B JUMP JUMPDEST PUSH1 0x60 SWAP2 POP JUMPDEST POP SWAP2 POP SWAP2 POP DUP2 DUP2 PUSH1 0x40 MLOAD PUSH1 0x20 ADD PUSH2 0x252 SWAP2 SWAP1 PUSH2 0x20A4 JUMP JUMPDEST PUSH1 0x40 MLOAD PUSH1 0x20 DUP2 DUP4 SUB SUB DUP2 MSTORE SWAP1 PUSH1 0x40 MSTORE SWAP1 PUSH2 0x299 JUMPI PUSH1 0x40 MLOAD PUSH32 0x8C379A000000000000000000000000000000000000000000000000000000000 DUP2 MSTORE PUSH1 0x4 ADD PUSH2 0x13F SWAP2 SWAP1 PUSH2 0x210A JUMP JUMPDEST POP PUSH2 0x2A8 DUP10 DUP10 DUP10 DUP10 DUP10 DUP10 PUSH2 0x2BC JUMP JUMPDEST PUSH1 0x1 PUSH1 0x0 SSTORE SWAP12 SWAP11 POP POP POP POP POP POP POP POP POP POP POP JUMP JUMPDEST PUSH1 0x0 DUP1 DUP1 PUSH20 0xFFFFFFFFFFFFFFFFFFFFFFFFFFFFFFFFFFFFFFFF DUP8 AND PUSH20 0xEEEEEEEEEEEEEEEEEEEEEEEEEEEEEEEEEEEEEEEE EQ PUSH2 0x386 JUMPI PUSH1 0x40 MLOAD PUSH32 0x70A0823100000000000000000000000000000000000000000000000000000000 DUP2 MSTORE PUSH20 0xFFFFFFFFFFFFFFFFFFFFFFFFFFFFFFFFFFFFFFFF DUP7 DUP2 AND PUSH1 0x4 DUP4 ADD MSTORE DUP9 AND SWAP1 PUSH4 0x70A08231 SWAP1 PUSH1 0x24 ADD PUSH1 0x20 PUSH1 0x40 MLOAD DUP1 DUP4 SUB DUP2 DUP7 GAS STATICCALL ISZERO DUP1 ISZERO PUSH2 0x35D JUMPI RETURNDATASIZE PUSH1 0x0 DUP1 RETURNDATACOPY RETURNDATASIZE PUSH1 0x0 REVERT JUMPDEST POP POP POP POP PUSH1 0x40 MLOAD RETURNDATASIZE PUSH1 0x1F NOT PUSH1 0x1F DUP3 ADD AND DUP3 ADD DUP1 PUSH1 0x40 MSTORE POP DUP2 ADD SWAP1 PUSH2 0x381 SWAP2 SWAP1 PUSH2 0x2124 JUMP JUMPDEST PUSH2 0x39F JUMP JUMPDEST DUP5 PUSH20 0xFFFFFFFFFFFFFFFFFFFFFFFFFFFFFFFFFFFFFFFF AND BALANCE JUMPDEST PUSH1 0x40 DUP1 MLOAD DUP1 DUP3 ADD SWAP1 SWAP2 MSTORE DUP6 DUP2 MSTORE DUP6 MLOAD DUP7 ADD PUSH1 0x20 DUP3 ADD MSTORE SWAP1 SWAP2 POP JUMPDEST DUP1 MLOAD PUSH1 0x20 DUP3 ADD MLOAD GT ISZERO PUSH2 0x58D JUMPI PUSH1 0x0 PUSH2 0x3D8 DUP3 DUP1 MLOAD PUSH1 0x1 ADD DUP1 MLOAD SWAP2 MSTORE SWAP1 JUMP JUMPDEST SWAP1 POP PUSH1 0x14 DUP2 PUSH1 0xFF AND LT ISZERO PUSH2 0x4E5 JUMPI DUP1 PUSH1 0xFF AND PUSH1 0xA EQ ISZERO PUSH2 0x401 JUMPI PUSH2 0x3FB DUP3 PUSH2 0x765 JUMP JUMPDEST POP PUSH2 0x587 JUMP JUMPDEST DUP1 PUSH1 0xFF AND PUSH1 0x4 EQ ISZERO PUSH2 0x41B JUMPI PUSH2 0x416 DUP3 PUSH2 0xA87 JUMP JUMPDEST PUSH2 0x587 JUMP JUMPDEST DUP1 PUSH1 0xFF AND PUSH1 0x3 EQ ISZERO PUSH2 0x442 JUMPI PUSH2 0x431 DUP3 DUP13 PUSH2 0xBCB JUMP JUMPDEST PUSH2 0x43B SWAP1 DUP6 PUSH2 0x216C JUMP JUMPDEST SWAP4 POP PUSH2 0x587 JUMP JUMPDEST DUP1 PUSH1 0xFF AND PUSH1 0x5 EQ ISZERO PUSH2 0x457 JUMPI PUSH2 0x431 DUP3 PUSH2 0xC63 JUMP JUMPDEST DUP1 PUSH1 0xFF AND PUSH1 0x6 EQ ISZERO PUSH2 0x46D JUMPI PUSH2 0x416 DUP8 DUP4 PUSH2 0xDFC JUMP JUMPDEST DUP1 PUSH1 0xFF AND PUSH1 0x7 EQ ISZERO PUSH2 0x483 JUMPI PUSH2 0x431 DUP3 DUP13 PUSH2 0xF4D JUMP JUMPDEST PUSH1 0x40 MLOAD PUSH32 0x8C379A000000000000000000000000000000000000000000000000000000000 DUP2 MSTORE PUSH1 0x20 PUSH1 0x4 DUP3 ADD MSTORE PUSH1 0x14 PUSH1 0x24 DUP3 ADD MSTORE PUSH32 0x556E6B6E6F776E20636F6D6D616E6420636F6465000000000000000000000000 PUSH1 0x44 DUP3 ADD MSTORE PUSH1 0x64 ADD PUSH2 0x13F JUMP JUMPDEST PUSH1 0x18 DUP2 PUSH1 0xFF AND LT ISZERO PUSH2 0x532 JUMPI DUP1 PUSH1 0xFF AND PUSH1 0x14 EQ ISZERO PUSH2 0x507 JUMPI PUSH2 0x416 DUP3 DUP13 PUSH2 0xFDC JUMP JUMPDEST DUP1 PUSH1 0xFF AND PUSH1 0x15 EQ ISZERO PUSH2 0x51C JUMPI PUSH2 0x416 DUP3 PUSH2 0x10DC JUMP JUMPDEST DUP1 PUSH1 0xFF AND PUSH1 0x17 EQ ISZERO PUSH2 0x483 JUMPI PUSH2 0x416 DUP3 DUP13 PUSH2 0x1196 JUMP JUMPDEST DUP1 PUSH1 0xFF AND PUSH1 0x18 EQ ISZERO PUSH2 0x548 JUMPI PUSH2 0x431 DUP3 DUP13 PUSH2 0x1251 JUMP JUMPDEST DUP1 PUSH1 0xFF AND PUSH1 0x19 EQ ISZERO PUSH2 0x55D JUMPI PUSH2 0x416 DUP3 PUSH2 0x1378 JUMP JUMPDEST DUP1 PUSH1 0xFF AND PUSH1 0x1A EQ ISZERO PUSH2 0x572 JUMPI PUSH2 0x416 DUP3 PUSH2 0x1574 JUMP JUMPDEST DUP1 PUSH1 0xFF AND PUSH1 0x1B EQ ISZERO PUSH2 0x483 JUMPI PUSH2 0x416 DUP3 PUSH2 0x1887 JUMP JUMPDEST POP PUSH2 0x3B9 JUMP JUMPDEST DUP9 DUP4 EQ PUSH2 0x5F6 JUMPI PUSH1 0x40 MLOAD PUSH32 0x8C379A000000000000000000000000000000000000000000000000000000000 DUP2 MSTORE PUSH1 0x20 PUSH1 0x4 DUP3 ADD MSTORE PUSH1 0x14 PUSH1 0x24 DUP3 ADD MSTORE PUSH32 0x57726F6E6720616D6F756E74496E2076616C7565000000000000000000000000 PUSH1 0x44 DUP3 ADD MSTORE PUSH1 0x64 ADD PUSH2 0x13F JUMP JUMPDEST PUSH1 0x0 PUSH20 0xFFFFFFFFFFFFFFFFFFFFFFFFFFFFFFFFFFFFFFFF DUP10 AND PUSH20 0xEEEEEEEEEEEEEEEEEEEEEEEEEEEEEEEEEEEEEEEE EQ PUSH2 0x6BE JUMPI PUSH1 0x40 MLOAD PUSH32 0x70A0823100000000000000000000000000000000000000000000000000000000 DUP2 MSTORE PUSH20 0xFFFFFFFFFFFFFFFFFFFFFFFFFFFFFFFFFFFFFFFF DUP9 DUP2 AND PUSH1 0x4 DUP4 ADD MSTORE DUP11 AND SWAP1 PUSH4 0x70A08231 SWAP1 PUSH1 0x24 ADD PUSH1 0x20 PUSH1 0x40 MLOAD DUP1 DUP4 SUB DUP2 DUP7 GAS STATICCALL ISZERO DUP1 ISZERO PUSH2 0x695 JUMPI RETURNDATASIZE PUSH1 0x0 DUP1 RETURNDATACOPY RETURNDATASIZE PUSH1 0x0 REVERT JUMPDEST POP POP POP POP PUSH1 0x40 MLOAD RETURNDATASIZE PUSH1 0x1F NOT PUSH1 0x1F DUP3 ADD AND DUP3 ADD DUP1 PUSH1 0x40 MSTORE POP DUP2 ADD SWAP1 PUSH2 0x6B9 SWAP2 SWAP1 PUSH2 0x2124 JUMP JUMPDEST PUSH2 0x6D7 JUMP JUMPDEST DUP7 PUSH20 0xFFFFFFFFFFFFFFFFFFFFFFFFFFFFFFFFFFFFFFFF AND BALANCE JUMPDEST SWAP1 POP PUSH2 0x6E3 DUP9 DUP5 PUSH2 0x216C JUMP JUMPDEST DUP2 LT ISZERO PUSH2 0x74C JUMPI PUSH1 0x40 MLOAD PUSH32 0x8C379A000000000000000000000000000000000000000000000000000000000 DUP2 MSTORE PUSH1 0x20 PUSH1 0x4 DUP3 ADD MSTORE PUSH1 0x1F PUSH1 0x24 DUP3 ADD MSTORE PUSH32 0x4D696E696D616C206F757075742062616C616E63652076696F6C6174696F6E00 PUSH1 0x44 DUP3 ADD MSTORE PUSH1 0x64 ADD PUSH2 0x13F JUMP JUMPDEST PUSH2 0x756 DUP4 DUP3 PUSH2 0x2184 JUMP JUMPDEST SWAP12 SWAP11 POP POP POP POP POP POP POP POP POP POP POP JUMP JUMPDEST PUSH1 0x0 DUP1 PUSH2 0x778 DUP4 DUP1 MLOAD PUSH1 0x14 ADD DUP1 MLOAD SWAP2 MSTORE SWAP1 JUMP JUMPDEST SWAP1 POP PUSH1 0x0 PUSH2 0x78C DUP5 DUP1 MLOAD PUSH1 0x14 ADD DUP1 MLOAD SWAP2 MSTORE SWAP1 JUMP JUMPDEST SWAP1 POP PUSH1 0x0 PUSH2 0x7A0 DUP6 DUP1 MLOAD PUSH1 0x1 ADD DUP1 MLOAD SWAP2 MSTORE SWAP1 JUMP JUMPDEST SWAP1 POP PUSH1 0x0 PUSH2 0x7B4 DUP7 DUP1 MLOAD PUSH1 0x14 ADD DUP1 MLOAD SWAP2 MSTORE SWAP1 JUMP JUMPDEST SWAP1 POP PUSH1 0x0 DUP1 DUP6 PUSH20 0xFFFFFFFFFFFFFFFFFFFFFFFFFFFFFFFFFFFFFFFF AND PUSH4 0x902F1AC PUSH1 0x40 MLOAD DUP2 PUSH4 0xFFFFFFFF AND PUSH1 0xE0 SHL DUP2 MSTORE PUSH1 0x4 ADD PUSH1 0x60 PUSH1 0x40 MLOAD DUP1 DUP4 SUB DUP2 DUP7 GAS STATICCALL ISZERO DUP1 ISZERO PUSH2 0x804 JUMPI RETURNDATASIZE PUSH1 0x0 DUP1 RETURNDATACOPY RETURNDATASIZE PUSH1 0x0 REVERT JUMPDEST POP POP POP POP PUSH1 0x40 MLOAD RETURNDATASIZE PUSH1 0x1F NOT PUSH1 0x1F DUP3 ADD AND DUP3 ADD DUP1 PUSH1 0x40 MSTORE POP DUP2 ADD SWAP1 PUSH2 0x828 SWAP2 SWAP1 PUSH2 0x21BE JUMP JUMPDEST POP PUSH14 0xFFFFFFFFFFFFFFFFFFFFFFFFFFFF AND SWAP2 POP PUSH14 0xFFFFFFFFFFFFFFFFFFFFFFFFFFFF AND SWAP2 POP PUSH1 0x0 DUP3 GT DUP1 ISZERO PUSH2 0x85D JUMPI POP PUSH1 0x0 DUP2 GT JUMPDEST PUSH2 0x8C3 JUMPI PUSH1 0x40 MLOAD PUSH32 0x8C379A000000000000000000000000000000000000000000000000000000000 DUP2 MSTORE PUSH1 0x20 PUSH1 0x4 DUP3 ADD MSTORE PUSH1 0x13 PUSH1 0x24 DUP3 ADD MSTORE PUSH32 0x57726F6E6720706F6F6C20726573657276657300000000000000000000000000 PUSH1 0x44 DUP3 ADD MSTORE PUSH1 0x64 ADD PUSH2 0x13F JUMP JUMPDEST PUSH1 0x0 DUP1 DUP6 PUSH1 0xFF AND PUSH1 0x1 EQ PUSH2 0x8D8 JUMPI DUP3 DUP5 PUSH2 0x8DB JUMP JUMPDEST DUP4 DUP4 JUMPDEST PUSH1 0x40 MLOAD PUSH32 0x70A0823100000000000000000000000000000000000000000000000000000000 DUP2 MSTORE PUSH20 0xFFFFFFFFFFFFFFFFFFFFFFFFFFFFFFFFFFFFFFFF DUP12 DUP2 AND PUSH1 0x4 DUP4 ADD MSTORE SWAP3 SWAP5 POP SWAP1 SWAP3 POP PUSH1 0x0 SWAP2 DUP5 SWAP2 SWAP1 DUP11 AND SWAP1 PUSH4 0x70A08231 SWAP1 PUSH1 0x24 ADD PUSH1 0x20 PUSH1 0x40 MLOAD DUP1 DUP4 SUB DUP2 DUP7 GAS STATICCALL ISZERO DUP1 ISZERO PUSH2 0x953 JUMPI RETURNDATASIZE PUSH1 0x0 DUP1 RETURNDATACOPY RETURNDATASIZE PUSH1 0x0 REVERT JUMPDEST POP POP POP POP PUSH1 0x40 MLOAD RETURNDATASIZE PUSH1 0x1F NOT PUSH1 0x1F DUP3 ADD AND DUP3 ADD DUP1 PUSH1 0x40 MSTORE POP DUP2 ADD SWAP1 PUSH2 0x977 SWAP2 SWAP1 PUSH2 0x2124 JUMP JUMPDEST PUSH2 0x981 SWAP2 SWAP1 PUSH2 0x2184 JUMP JUMPDEST SWAP1 POP PUSH1 0x0 PUSH2 0x991 DUP3 PUSH2 0x3E5 PUSH2 0x220E JUMP JUMPDEST SWAP1 POP DUP1 PUSH2 0x9A0 DUP6 PUSH2 0x3E8 PUSH2 0x220E JUMP JUMPDEST PUSH2 0x9AA SWAP2 SWAP1 PUSH2 0x216C JUMP JUMPDEST PUSH2 0x9B4 DUP5 DUP4 PUSH2 0x220E JUMP JUMPDEST PUSH2 0x9BE SWAP2 SWAP1 PUSH2 0x224B JUMP JUMPDEST SWAP11 POP PUSH1 0x0 DUP1 DUP10 PUSH1 0xFF AND PUSH1 0x1 EQ PUSH2 0x9D6 JUMPI DUP13 PUSH1 0x0 PUSH2 0x9DA JUMP JUMPDEST PUSH1 0x0 DUP14 JUMPDEST PUSH1 0x40 DUP1 MLOAD PUSH1 0x0 DUP2 MSTORE PUSH1 0x20 DUP2 ADD SWAP2 DUP3 SWAP1 MSTORE PUSH32 0x22C0D9F00000000000000000000000000000000000000000000000000000000 SWAP1 SWAP2 MSTORE SWAP2 SWAP4 POP SWAP2 POP PUSH20 0xFFFFFFFFFFFFFFFFFFFFFFFFFFFFFFFFFFFFFFFF DUP14 AND SWAP1 PUSH4 0x22C0D9F SWAP1 PUSH2 0xA44 SWAP1 DUP6 SWAP1 DUP6 SWAP1 DUP15 SWAP1 PUSH1 0x24 DUP2 ADD PUSH2 0x2286 JUMP JUMPDEST PUSH1 0x0 PUSH1 0x40 MLOAD DUP1 DUP4 SUB DUP2 PUSH1 0x0 DUP8 DUP1 EXTCODESIZE ISZERO DUP1 ISZERO PUSH2 0xA5E JUMPI PUSH1 0x0 DUP1 REVERT JUMPDEST POP GAS CALL ISZERO DUP1 ISZERO PUSH2 0xA72 JUMPI RETURNDATASIZE PUSH1 0x0 DUP1 RETURNDATACOPY RETURNDATASIZE PUSH1 0x0 REVERT JUMPDEST POP POP POP POP POP POP POP POP POP POP POP POP POP POP POP POP SWAP2 SWAP1 POP JUMP JUMPDEST PUSH1 0x0 PUSH2 0xA99 DUP3 DUP1 MLOAD PUSH1 0x14 ADD DUP1 MLOAD SWAP2 MSTORE SWAP1 JUMP JUMPDEST SWAP1 POP PUSH1 0x0 PUSH2 0xAAD DUP4 DUP1 MLOAD PUSH1 0x1 ADD DUP1 MLOAD SWAP2 MSTORE SWAP1 JUMP JUMPDEST PUSH1 0x40 MLOAD PUSH32 0x70A0823100000000000000000000000000000000000000000000000000000000 DUP2 MSTORE ADDRESS PUSH1 0x4 DUP3 ADD MSTORE SWAP1 SWAP2 POP PUSH1 0x0 SWAP1 PUSH1 0x1 SWAP1 PUSH20 0xFFFFFFFFFFFFFFFFFFFFFFFFFFFFFFFFFFFFFFFF DUP6 AND SWAP1 PUSH4 0x70A08231 SWAP1 PUSH1 0x24 ADD PUSH1 0x20 PUSH1 0x40 MLOAD DUP1 DUP4 SUB DUP2 DUP7 GAS STATICCALL ISZERO DUP1 ISZERO PUSH2 0xB20 JUMPI RETURNDATASIZE PUSH1 0x0 DUP1 RETURNDATACOPY RETURNDATASIZE PUSH1 0x0 REVERT JUMPDEST POP POP POP POP PUSH1 0x40 MLOAD RETURNDATASIZE PUSH1 0x1F NOT PUSH1 0x1F DUP3 ADD AND DUP3 ADD DUP1 PUSH1 0x40 MSTORE POP DUP2 ADD SWAP1 PUSH2 0xB44 SWAP2 SWAP1 PUSH2 0x2124 JUMP JUMPDEST PUSH2 0xB4E SWAP2 SWAP1 PUSH2 0x2184 JUMP JUMPDEST SWAP1 POP PUSH1 0x0 JUMPDEST DUP3 PUSH1 0xFF AND DUP2 LT ISZERO PUSH2 0xBC4 JUMPI PUSH1 0x0 PUSH2 0xB70 DUP7 DUP1 MLOAD PUSH1 0x14 ADD DUP1 MLOAD SWAP2 MSTORE SWAP1 JUMP JUMPDEST SWAP1 POP PUSH1 0x0 PUSH2 0xB84 DUP8 DUP1 MLOAD PUSH1 0x2 ADD DUP1 MLOAD SWAP2 MSTORE SWAP1 JUMP JUMPDEST PUSH2 0xFFFF DUP1 DUP3 AND DUP7 MUL DIV SWAP5 DUP6 SWAP1 SUB SWAP5 SWAP1 SWAP2 POP PUSH2 0xBB6 PUSH20 0xFFFFFFFFFFFFFFFFFFFFFFFFFFFFFFFFFFFFFFFF DUP9 AND DUP5 DUP4 PUSH2 0x19FE JUMP JUMPDEST POP POP POP DUP1 PUSH1 0x1 ADD SWAP1 POP PUSH2 0xB53 JUMP JUMPDEST POP POP POP POP POP JUMP JUMPDEST PUSH1 0x0 DUP1 PUSH2 0xBDE DUP5 DUP1 MLOAD PUSH1 0x1 ADD DUP1 MLOAD SWAP2 MSTORE SWAP1 JUMP JUMPDEST SWAP1 POP PUSH1 0x0 SWAP2 POP PUSH1 0x0 JUMPDEST DUP2 PUSH1 0xFF AND DUP2 LT ISZERO PUSH2 0xC5B JUMPI PUSH1 0x0 PUSH2 0xC04 DUP7 DUP1 MLOAD PUSH1 0x14 ADD DUP1 MLOAD SWAP2 MSTORE SWAP1 JUMP JUMPDEST SWAP1 POP PUSH1 0x0 PUSH2 0xC18 DUP8 DUP1 MLOAD PUSH1 0x20 ADD DUP1 MLOAD SWAP2 MSTORE SWAP1 JUMP JUMPDEST SWAP1 POP PUSH2 0xC24 DUP2 DUP7 PUSH2 0x216C JUMP JUMPDEST SWAP5 POP PUSH2 0xC48 PUSH20 0xFFFFFFFFFFFFFFFFFFFFFFFFFFFFFFFFFFFFFFFF DUP8 AND CALLER DUP5 DUP5 PUSH2 0x1AD7 JUMP JUMPDEST POP POP DUP1 PUSH2 0xC54 SWAP1 PUSH2 0x22CB JUMP JUMPDEST SWAP1 POP PUSH2 0xBE7 JUMP JUMPDEST POP POP SWAP3 SWAP2 POP POP JUMP JUMPDEST PUSH1 0x0 DUP1 PUSH2 0xC76 DUP4 DUP1 MLOAD PUSH1 0x14 ADD DUP1 MLOAD SWAP2 MSTORE SWAP1 JUMP JUMPDEST SWAP1 POP DUP1 PUSH20 0xFFFFFFFFFFFFFFFFFFFFFFFFFFFFFFFFFFFFFFFF AND PUSH4 0xD0E30DB0 SELFBALANCE PUSH1 0x40 MLOAD DUP3 PUSH4 0xFFFFFFFF AND PUSH1 0xE0 SHL DUP2 MSTORE PUSH1 0x4 ADD PUSH1 0x0 PUSH1 0x40 MLOAD DUP1 DUP4 SUB DUP2 DUP6 DUP9 DUP1 EXTCODESIZE ISZERO DUP1 ISZERO PUSH2 0xCC0 JUMPI PUSH1 0x0 DUP1 REVERT JUMPDEST POP GAS CALL ISZERO DUP1 ISZERO PUSH2 0xCD4 JUMPI RETURNDATASIZE PUSH1 0x0 DUP1 RETURNDATACOPY RETURNDATASIZE PUSH1 0x0 REVERT JUMPDEST POP POP POP POP POP PUSH1 0x0 PUSH2 0xCEB DUP5 DUP1 MLOAD PUSH1 0x1 ADD DUP1 MLOAD SWAP2 MSTORE SWAP1 JUMP JUMPDEST SWAP1 POP PUSH1 0x0 SWAP3 POP PUSH1 0x0 JUMPDEST DUP2 PUSH1 0xFF AND DUP2 LT ISZERO PUSH2 0xD67 JUMPI PUSH1 0x0 PUSH2 0xD11 DUP7 DUP1 MLOAD PUSH1 0x14 ADD DUP1 MLOAD SWAP2 MSTORE SWAP1 JUMP JUMPDEST SWAP1 POP PUSH1 0x0 PUSH2 0xD25 DUP8 DUP1 MLOAD PUSH1 0x20 ADD DUP1 MLOAD SWAP2 MSTORE SWAP1 JUMP JUMPDEST SWAP1 POP PUSH2 0xD31 DUP2 DUP8 PUSH2 0x216C JUMP JUMPDEST SWAP6 POP PUSH2 0xD54 PUSH20 0xFFFFFFFFFFFFFFFFFFFFFFFFFFFFFFFFFFFFFFFF DUP7 AND DUP4 DUP4 PUSH2 0x19FE JUMP JUMPDEST POP POP DUP1 PUSH2 0xD60 SWAP1 PUSH2 0x22CB JUMP JUMPDEST SWAP1 POP PUSH2 0xCF4 JUMP JUMPDEST POP SELFBALANCE ISZERO PUSH2 0xDF5 JUMPI PUSH1 0x40 MLOAD PUSH32 0x8C379A000000000000000000000000000000000000000000000000000000000 DUP2 MSTORE PUSH1 0x20 PUSH1 0x4 DUP3 ADD MSTORE PUSH1 0x24 DUP1 DUP3 ADD MSTORE PUSH32 0x526F75746550726F636573736F723A20696E76616C696420696E70757420616D PUSH1 0x44 DUP3 ADD MSTORE PUSH32 0x6F756E7400000000000000000000000000000000000000000000000000000000 PUSH1 0x64 DUP3 ADD MSTORE PUSH1 0x84 ADD PUSH2 0x13F JUMP JUMPDEST POP POP SWAP2 SWAP1 POP JUMP JUMPDEST PUSH1 0x0 PUSH2 0xE0E DUP3 DUP1 MLOAD PUSH1 0x14 ADD DUP1 MLOAD SWAP2 MSTORE SWAP1 JUMP JUMPDEST PUSH1 0x40 MLOAD PUSH32 0x70A0823100000000000000000000000000000000000000000000000000000000 DUP2 MSTORE ADDRESS PUSH1 0x4 DUP3 ADD MSTORE SWAP1 SWAP2 POP PUSH20 0xFFFFFFFFFFFFFFFFFFFFFFFFFFFFFFFFFFFFFFFF DUP3 AND SWAP1 PUSH4 0x2E1A7D4D SWAP1 PUSH1 0x1 SWAP1 DUP4 SWAP1 PUSH4 0x70A08231 SWAP1 PUSH1 0x24 ADD PUSH1 0x20 PUSH1 0x40 MLOAD DUP1 DUP4 SUB DUP2 DUP7 GAS STATICCALL ISZERO DUP1 ISZERO PUSH2 0xE86 JUMPI RETURNDATASIZE PUSH1 0x0 DUP1 RETURNDATACOPY RETURNDATASIZE PUSH1 0x0 REVERT JUMPDEST POP POP POP POP PUSH1 0x40 MLOAD RETURNDATASIZE PUSH1 0x1F NOT PUSH1 0x1F DUP3 ADD AND DUP3 ADD DUP1 PUSH1 0x40 MSTORE POP DUP2 ADD SWAP1 PUSH2 0xEAA SWAP2 SWAP1 PUSH2 0x2124 JUMP JUMPDEST PUSH2 0xEB4 SWAP2 SWAP1 PUSH2 0x2184 JUMP JUMPDEST PUSH1 0x40 MLOAD DUP3 PUSH4 0xFFFFFFFF AND PUSH1 0xE0 SHL DUP2 MSTORE PUSH1 0x4 ADD PUSH2 0xED2 SWAP2 DUP2 MSTORE PUSH1 0x20 ADD SWAP1 JUMP JUMPDEST PUSH1 0x0 PUSH1 0x40 MLOAD DUP1 DUP4 SUB DUP2 PUSH1 0x0 DUP8 DUP1 EXTCODESIZE ISZERO DUP1 ISZERO PUSH2 0xEEC JUMPI PUSH1 0x0 DUP1 REVERT JUMPDEST POP GAS CALL ISZERO DUP1 ISZERO PUSH2 0xF00 JUMPI RETURNDATASIZE PUSH1 0x0 DUP1 RETURNDATACOPY RETURNDATASIZE PUSH1 0x0 REVERT JUMPDEST POP POP PUSH1 0x40 MLOAD PUSH20 0xFFFFFFFFFFFFFFFFFFFFFFFFFFFFFFFFFFFFFFFF DUP7 AND SWAP3 POP SELFBALANCE DUP1 ISZERO PUSH2 0x8FC MUL SWAP3 POP SWAP1 PUSH1 0x0 DUP2 DUP2 DUP2 DUP6 DUP9 DUP9 CALL SWAP4 POP POP POP POP ISZERO DUP1 ISZERO PUSH2 0xF47 JUMPI RETURNDATASIZE PUSH1 0x0 DUP1 RETURNDATACOPY RETURNDATASIZE PUSH1 0x0 REVERT JUMPDEST POP POP POP POP JUMP JUMPDEST PUSH1 0x0 DUP1 PUSH2 0xF60 DUP5 DUP1 MLOAD PUSH1 0x1 ADD DUP1 MLOAD SWAP2 MSTORE SWAP1 JUMP JUMPDEST SWAP1 POP PUSH1 0x0 SWAP2 POP PUSH1 0x0 JUMPDEST DUP2 PUSH1 0xFF AND DUP2 LT ISZERO PUSH2 0xC5B JUMPI PUSH1 0x0 PUSH2 0xF86 DUP7 DUP1 MLOAD PUSH1 0x14 ADD DUP1 MLOAD SWAP2 MSTORE SWAP1 JUMP JUMPDEST SWAP1 POP PUSH1 0x0 PUSH2 0xF9A DUP8 DUP1 MLOAD PUSH1 0x20 ADD DUP1 MLOAD SWAP2 MSTORE SWAP1 JUMP JUMPDEST SWAP1 POP PUSH2 0xFA6 DUP2 DUP7 PUSH2 0x216C JUMP JUMPDEST SWAP5 POP PUSH2 0xFC9 PUSH20 0xFFFFFFFFFFFFFFFFFFFFFFFFFFFFFFFFFFFFFFFF DUP8 AND DUP4 DUP4 PUSH2 0x19FE JUMP JUMPDEST POP POP DUP1 PUSH2 0xFD5 SWAP1 PUSH2 0x22CB JUMP JUMPDEST SWAP1 POP PUSH2 0xF69 JUMP JUMPDEST PUSH1 0x0 PUSH2 0xFEE DUP4 DUP1 MLOAD PUSH1 0x14 ADD DUP1 MLOAD SWAP2 MSTORE SWAP1 JUMP JUMPDEST SWAP1 POP PUSH1 0x0 PUSH2 0x1002 DUP5 DUP1 MLOAD PUSH1 0x20 ADD DUP1 MLOAD SWAP2 MSTORE SWAP1 JUMP JUMPDEST PUSH1 0x40 MLOAD PUSH32 0x2B9446C00000000000000000000000000000000000000000000000000000000 DUP2 MSTORE PUSH20 0xFFFFFFFFFFFFFFFFFFFFFFFFFFFFFFFFFFFFFFFF DUP6 DUP2 AND PUSH1 0x4 DUP4 ADD MSTORE PUSH32 0x0 DUP2 AND PUSH1 0x24 DUP4 ADD DUP2 SWAP1 MSTORE SWAP1 DUP6 AND PUSH1 0x44 DUP4 ADD MSTORE PUSH1 0x64 DUP3 ADD DUP4 SWAP1 MSTORE PUSH1 0x0 PUSH1 0x84 DUP4 ADD MSTORE SWAP2 SWAP3 POP PUSH4 0x2B9446C SWAP1 PUSH1 0xA4 ADD JUMPDEST PUSH1 0x40 DUP1 MLOAD DUP1 DUP4 SUB DUP2 PUSH1 0x0 DUP8 GAS CALL ISZERO DUP1 ISZERO PUSH2 0x10B0 JUMPI RETURNDATASIZE PUSH1 0x0 DUP1 RETURNDATACOPY RETURNDATASIZE PUSH1 0x0 REVERT JUMPDEST POP POP POP POP PUSH1 0x40 MLOAD RETURNDATASIZE PUSH1 0x1F NOT PUSH1 0x1F DUP3 ADD AND DUP3 ADD DUP1 PUSH1 0x40 MSTORE POP DUP2 ADD SWAP1 PUSH2 0x10D4 SWAP2 SWAP1 PUSH2 0x2304 JUMP JUMPDEST POP POP POP POP POP POP JUMP JUMPDEST PUSH1 0x0 PUSH2 0x10EE DUP3 DUP1 MLOAD PUSH1 0x14 ADD DUP1 MLOAD SWAP2 MSTORE SWAP1 JUMP JUMPDEST DUP3 MLOAD PUSH1 0x20 DUP1 DUP3 ADD DUP1 MLOAD SWAP1 SWAP3 ADD ADD DUP5 MSTORE PUSH1 0x40 MLOAD PUSH32 0x627DD56A00000000000000000000000000000000000000000000000000000000 DUP2 MSTORE SWAP2 SWAP3 POP SWAP1 PUSH20 0xFFFFFFFFFFFFFFFFFFFFFFFFFFFFFFFFFFFFFFFF DUP4 AND SWAP1 PUSH4 0x627DD56A SWAP1 PUSH2 0x1153 SWAP1 DUP5 SWAP1 PUSH1 0x4 ADD PUSH2 0x210A JUMP JUMPDEST PUSH1 0x20 PUSH1 0x40 MLOAD DUP1 DUP4 SUB DUP2 PUSH1 0x0 DUP8 GAS CALL ISZERO DUP1 ISZERO PUSH2 0x1172 JUMPI RETURNDATASIZE PUSH1 0x0 DUP1 RETURNDATACOPY RETURNDATASIZE PUSH1 0x0 REVERT JUMPDEST POP POP POP POP PUSH1 0x40 MLOAD RETURNDATASIZE PUSH1 0x1F NOT PUSH1 0x1F DUP3 ADD AND DUP3 ADD DUP1 PUSH1 0x40 MSTORE POP DUP2 ADD SWAP1 PUSH2 0xF47 SWAP2 SWAP1 PUSH2 0x2124 JUMP JUMPDEST PUSH1 0x0 PUSH2 0x11A8 DUP4 DUP1 MLOAD PUSH1 0x14 ADD DUP1 MLOAD SWAP2 MSTORE SWAP1 JUMP JUMPDEST SWAP1 POP PUSH1 0x0 PUSH2 0x11BC DUP5 DUP1 MLOAD PUSH1 0x20 ADD DUP1 MLOAD SWAP2 MSTORE SWAP1 JUMP JUMPDEST PUSH1 0x40 MLOAD PUSH32 0x97DA6D3000000000000000000000000000000000000000000000000000000000 DUP2 MSTORE PUSH20 0xFFFFFFFFFFFFFFFFFFFFFFFFFFFFFFFFFFFFFFFF DUP6 DUP2 AND PUSH1 0x4 DUP4 ADD MSTORE ADDRESS PUSH1 0x24 DUP4 ADD MSTORE DUP5 DUP2 AND PUSH1 0x44 DUP4 ADD MSTORE PUSH1 0x64 DUP3 ADD DUP4 SWAP1 MSTORE PUSH1 0x0 PUSH1 0x84 DUP4 ADD MSTORE SWAP2 SWAP3 POP PUSH32 0x0 SWAP1 SWAP2 AND SWAP1 PUSH4 0x97DA6D30 SWAP1 PUSH1 0xA4 ADD PUSH2 0x1092 JUMP JUMPDEST PUSH1 0x0 DUP1 PUSH2 0x1264 DUP5 DUP1 MLOAD PUSH1 0x1 ADD DUP1 MLOAD SWAP2 MSTORE SWAP1 JUMP JUMPDEST SWAP1 POP PUSH1 0x0 SWAP2 POP PUSH1 0x0 JUMPDEST DUP2 PUSH1 0xFF AND DUP2 LT ISZERO PUSH2 0xC5B JUMPI PUSH1 0x0 PUSH2 0x128A DUP7 DUP1 MLOAD PUSH1 0x14 ADD DUP1 MLOAD SWAP2 MSTORE SWAP1 JUMP JUMPDEST SWAP1 POP PUSH1 0x0 PUSH2 0x129E DUP8 DUP1 MLOAD PUSH1 0x20 ADD DUP1 MLOAD SWAP2 MSTORE SWAP1 JUMP JUMPDEST SWAP1 POP PUSH2 0x12AA DUP2 DUP7 PUSH2 0x216C JUMP JUMPDEST PUSH1 0x40 MLOAD PUSH32 0xF18D03CC00000000000000000000000000000000000000000000000000000000 DUP2 MSTORE PUSH20 0xFFFFFFFFFFFFFFFFFFFFFFFFFFFFFFFFFFFFFFFF DUP9 DUP2 AND PUSH1 0x4 DUP4 ADD MSTORE CALLER PUSH1 0x24 DUP4 ADD MSTORE DUP5 DUP2 AND PUSH1 0x44 DUP4 ADD MSTORE PUSH1 0x64 DUP3 ADD DUP5 SWAP1 MSTORE SWAP2 SWAP7 POP PUSH32 0x0 SWAP1 SWAP2 AND SWAP1 PUSH4 0xF18D03CC SWAP1 PUSH1 0x84 ADD PUSH1 0x0 PUSH1 0x40 MLOAD DUP1 DUP4 SUB DUP2 PUSH1 0x0 DUP8 DUP1 EXTCODESIZE ISZERO DUP1 ISZERO PUSH2 0x134D JUMPI PUSH1 0x0 DUP1 REVERT JUMPDEST POP GAS CALL ISZERO DUP1 ISZERO PUSH2 0x1361 JUMPI RETURNDATASIZE PUSH1 0x0 DUP1 RETURNDATACOPY RETURNDATASIZE PUSH1 0x0 REVERT JUMPDEST POP POP POP POP POP POP DUP1 PUSH2 0x1371 SWAP1 PUSH2 0x22CB JUMP JUMPDEST SWAP1 POP PUSH2 0x126D JUMP JUMPDEST PUSH1 0x0 PUSH2 0x138A DUP3 DUP1 MLOAD PUSH1 0x14 ADD DUP1 MLOAD SWAP2 MSTORE SWAP1 JUMP JUMPDEST SWAP1 POP PUSH1 0x0 PUSH2 0x139E DUP4 DUP1 MLOAD PUSH1 0x1 ADD DUP1 MLOAD SWAP2 MSTORE SWAP1 JUMP JUMPDEST PUSH1 0x40 MLOAD PUSH32 0xF7888AEC00000000000000000000000000000000000000000000000000000000 DUP2 MSTORE PUSH20 0xFFFFFFFFFFFFFFFFFFFFFFFFFFFFFFFFFFFFFFFF DUP5 DUP2 AND PUSH1 0x4 DUP4 ADD MSTORE ADDRESS PUSH1 0x24 DUP4 ADD MSTORE SWAP2 SWAP3 POP PUSH1 0x0 SWAP2 PUSH1 0x1 SWAP2 PUSH32 0x0 SWAP1 SWAP2 AND SWAP1 PUSH4 0xF7888AEC SWAP1 PUSH1 0x44 ADD PUSH1 0x20 PUSH1 0x40 MLOAD DUP1 DUP4 SUB DUP2 DUP7 GAS STATICCALL ISZERO DUP1 ISZERO PUSH2 0x143B JUMPI RETURNDATASIZE PUSH1 0x0 DUP1 RETURNDATACOPY RETURNDATASIZE PUSH1 0x0 REVERT JUMPDEST POP POP POP POP PUSH1 0x40 MLOAD RETURNDATASIZE PUSH1 0x1F NOT PUSH1 0x1F DUP3 ADD AND DUP3 ADD DUP1 PUSH1 0x40 MSTORE POP DUP2 ADD SWAP1 PUSH2 0x145F SWAP2 SWAP1 PUSH2 0x2124 JUMP JUMPDEST PUSH2 0x1469 SWAP2 SWAP1 PUSH2 0x2184 JUMP JUMPDEST SWAP1 POP PUSH1 0x0 JUMPDEST DUP3 PUSH1 0xFF AND DUP2 LT ISZERO PUSH2 0xBC4 JUMPI PUSH1 0x0 PUSH2 0x148B DUP7 DUP1 MLOAD PUSH1 0x14 ADD DUP1 MLOAD SWAP2 MSTORE SWAP1 JUMP JUMPDEST SWAP1 POP PUSH1 0x0 PUSH2 0x149F DUP8 DUP1 MLOAD PUSH1 0x2 ADD DUP1 MLOAD SWAP2 MSTORE SWAP1 JUMP JUMPDEST PUSH1 0x40 MLOAD PUSH32 0xF18D03CC00000000000000000000000000000000000000000000000000000000 DUP2 MSTORE PUSH20 0xFFFFFFFFFFFFFFFFFFFFFFFFFFFFFFFFFFFFFFFF DUP9 DUP2 AND PUSH1 0x4 DUP4 ADD MSTORE ADDRESS PUSH1 0x24 DUP4 ADD MSTORE DUP5 DUP2 AND PUSH1 0x44 DUP4 ADD MSTORE PUSH2 0xFFFF DUP1 DUP5 AND DUP9 MUL DIV PUSH1 0x64 DUP4 ADD DUP2 SWAP1 MSTORE SWAP7 DUP8 SWAP1 SUB SWAP7 SWAP3 SWAP4 POP PUSH32 0x0 AND SWAP1 PUSH4 0xF18D03CC SWAP1 PUSH1 0x84 ADD PUSH1 0x0 PUSH1 0x40 MLOAD DUP1 DUP4 SUB DUP2 PUSH1 0x0 DUP8 DUP1 EXTCODESIZE ISZERO DUP1 ISZERO PUSH2 0x154E JUMPI PUSH1 0x0 DUP1 REVERT JUMPDEST POP GAS CALL ISZERO DUP1 ISZERO PUSH2 0x1562 JUMPI RETURNDATASIZE PUSH1 0x0 DUP1 RETURNDATACOPY RETURNDATASIZE PUSH1 0x0 REVERT JUMPDEST POP POP POP POP POP POP POP DUP1 PUSH1 0x1 ADD SWAP1 POP PUSH2 0x146E JUMP JUMPDEST PUSH1 0x0 PUSH2 0x1586 DUP3 DUP1 MLOAD PUSH1 0x14 ADD DUP1 MLOAD SWAP2 MSTORE SWAP1 JUMP JUMPDEST SWAP1 POP PUSH1 0x0 PUSH2 0x159A DUP4 DUP1 MLOAD PUSH1 0x14 ADD DUP1 MLOAD SWAP2 MSTORE SWAP1 JUMP JUMPDEST PUSH1 0x40 MLOAD PUSH32 0x4FFE34DB00000000000000000000000000000000000000000000000000000000 DUP2 MSTORE PUSH20 0xFFFFFFFFFFFFFFFFFFFFFFFFFFFFFFFFFFFFFFFF DUP1 DUP4 AND PUSH1 0x4 DUP4 ADD MSTORE SWAP2 SWAP3 POP PUSH1 0x0 SWAP2 PUSH32 0x0 AND SWAP1 PUSH4 0x4FFE34DB SWAP1 PUSH1 0x24 ADD PUSH1 0x40 DUP1 MLOAD DUP1 DUP4 SUB DUP2 DUP7 GAS STATICCALL ISZERO DUP1 ISZERO PUSH2 0x162B JUMPI RETURNDATASIZE PUSH1 0x0 DUP1 RETURNDATACOPY RETURNDATASIZE PUSH1 0x0 REVERT JUMPDEST POP POP POP POP PUSH1 0x40 MLOAD RETURNDATASIZE PUSH1 0x1F NOT PUSH1 0x1F DUP3 ADD AND DUP3 ADD DUP1 PUSH1 0x40 MSTORE POP DUP2 ADD SWAP1 PUSH2 0x164F SWAP2 SWAP1 PUSH2 0x2348 JUMP JUMPDEST MLOAD PUSH1 0x40 MLOAD PUSH32 0xDF23B45B00000000000000000000000000000000000000000000000000000000 DUP2 MSTORE PUSH20 0xFFFFFFFFFFFFFFFFFFFFFFFFFFFFFFFFFFFFFFFF DUP5 DUP2 AND PUSH1 0x4 DUP4 ADD MSTORE PUSH16 0xFFFFFFFFFFFFFFFFFFFFFFFFFFFFFFFF SWAP1 SWAP3 AND SWAP2 PUSH32 0x0 AND SWAP1 PUSH4 0xDF23B45B SWAP1 PUSH1 0x24 ADD PUSH1 0x60 PUSH1 0x40 MLOAD DUP1 DUP4 SUB DUP2 DUP7 GAS STATICCALL ISZERO DUP1 ISZERO PUSH2 0x16F1 JUMPI RETURNDATASIZE PUSH1 0x0 DUP1 RETURNDATACOPY RETURNDATASIZE PUSH1 0x0 REVERT JUMPDEST POP POP POP POP PUSH1 0x40 MLOAD RETURNDATASIZE PUSH1 0x1F NOT PUSH1 0x1F DUP3 ADD AND DUP3 ADD DUP1 PUSH1 0x40 MSTORE POP DUP2 ADD SWAP1 PUSH2 0x1715 SWAP2 SWAP1 PUSH2 0x23BB JUMP JUMPDEST PUSH1 0x40 SWAP1 DUP2 ADD MLOAD SWAP1 MLOAD PUSH32 0x70A0823100000000000000000000000000000000000000000000000000000000 DUP2 MSTORE PUSH20 0xFFFFFFFFFFFFFFFFFFFFFFFFFFFFFFFFFFFFFFFF PUSH32 0x0 DUP2 AND PUSH1 0x4 DUP4 ADD MSTORE PUSH16 0xFFFFFFFFFFFFFFFFFFFFFFFFFFFFFFFF SWAP1 SWAP3 AND SWAP2 DUP6 AND SWAP1 PUSH4 0x70A08231 SWAP1 PUSH1 0x24 ADD PUSH1 0x20 PUSH1 0x40 MLOAD DUP1 DUP4 SUB DUP2 DUP7 GAS STATICCALL ISZERO DUP1 ISZERO PUSH2 0x17BB JUMPI RETURNDATASIZE PUSH1 0x0 DUP1 RETURNDATACOPY RETURNDATASIZE PUSH1 0x0 REVERT JUMPDEST POP POP POP POP PUSH1 0x40 MLOAD RETURNDATASIZE PUSH1 0x1F NOT PUSH1 0x1F DUP3 ADD AND DUP3 ADD DUP1 PUSH1 0x40 MSTORE POP DUP2 ADD SWAP1 PUSH2 0x17DF SWAP2 SWAP1 PUSH2 0x2124 JUMP JUMPDEST PUSH2 0x17E9 SWAP2 SWAP1 PUSH2 0x216C JUMP JUMPDEST PUSH2 0x17F3 SWAP2 SWAP1 PUSH2 0x2184 JUMP JUMPDEST PUSH1 0x40 MLOAD PUSH32 0x2B9446C00000000000000000000000000000000000000000000000000000000 DUP2 MSTORE PUSH20 0xFFFFFFFFFFFFFFFFFFFFFFFFFFFFFFFFFFFFFFFF DUP5 DUP2 AND PUSH1 0x4 DUP4 ADD MSTORE PUSH32 0x0 DUP2 AND PUSH1 0x24 DUP4 ADD DUP2 SWAP1 MSTORE SWAP1 DUP7 AND PUSH1 0x44 DUP4 ADD MSTORE PUSH1 0x64 DUP3 ADD DUP4 SWAP1 MSTORE PUSH1 0x0 PUSH1 0x84 DUP4 ADD MSTORE SWAP2 SWAP3 POP PUSH4 0x2B9446C SWAP1 PUSH1 0xA4 ADD PUSH2 0x1092 JUMP JUMPDEST PUSH1 0x0 PUSH2 0x1899 DUP3 DUP1 MLOAD PUSH1 0x14 ADD DUP1 MLOAD SWAP2 MSTORE SWAP1 JUMP JUMPDEST SWAP1 POP PUSH1 0x0 PUSH2 0x18AD DUP4 DUP1 MLOAD PUSH1 0x14 ADD DUP1 MLOAD SWAP2 MSTORE SWAP1 JUMP JUMPDEST PUSH1 0x40 MLOAD PUSH32 0xF7888AEC00000000000000000000000000000000000000000000000000000000 DUP2 MSTORE PUSH20 0xFFFFFFFFFFFFFFFFFFFFFFFFFFFFFFFFFFFFFFFF DUP5 DUP2 AND PUSH1 0x4 DUP4 ADD MSTORE ADDRESS PUSH1 0x24 DUP4 ADD MSTORE SWAP2 SWAP3 POP PUSH1 0x0 SWAP2 PUSH32 0x0 AND SWAP1 PUSH4 0xF7888AEC SWAP1 PUSH1 0x44 ADD PUSH1 0x20 PUSH1 0x40 MLOAD DUP1 DUP4 SUB DUP2 DUP7 GAS STATICCALL ISZERO DUP1 ISZERO PUSH2 0x1945 JUMPI RETURNDATASIZE PUSH1 0x0 DUP1 RETURNDATACOPY RETURNDATASIZE PUSH1 0x0 REVERT JUMPDEST POP POP POP POP PUSH1 0x40 MLOAD RETURNDATASIZE PUSH1 0x1F NOT PUSH1 0x1F DUP3 ADD AND DUP3 ADD DUP1 PUSH1 0x40 MSTORE POP DUP2 ADD SWAP1 PUSH2 0x1969 SWAP2 SWAP1 PUSH2 0x2124 JUMP JUMPDEST PUSH1 0x40 MLOAD PUSH32 0x97DA6D3000000000000000000000000000000000000000000000000000000000 DUP2 MSTORE PUSH20 0xFFFFFFFFFFFFFFFFFFFFFFFFFFFFFFFFFFFFFFFF DUP6 DUP2 AND PUSH1 0x4 DUP4 ADD MSTORE ADDRESS PUSH1 0x24 DUP4 ADD MSTORE DUP5 DUP2 AND PUSH1 0x44 DUP4 ADD MSTORE PUSH1 0x0 PUSH1 0x64 DUP4 ADD MSTORE PUSH1 0x84 DUP3 ADD DUP4 SWAP1 MSTORE SWAP2 SWAP3 POP PUSH32 0x0 SWAP1 SWAP2 AND SWAP1 PUSH4 0x97DA6D30 SWAP1 PUSH1 0xA4 ADD PUSH2 0x1092 JUMP JUMPDEST PUSH1 0x40 MLOAD PUSH20 0xFFFFFFFFFFFFFFFFFFFFFFFFFFFFFFFFFFFFFFFF DUP4 AND PUSH1 0x24 DUP3 ADD MSTORE PUSH1 0x44 DUP2 ADD DUP3 SWAP1 MSTORE PUSH2 0x1AD2 SWAP1 DUP5 SWAP1 PUSH32 0xA9059CBB00000000000000000000000000000000000000000000000000000000 SWAP1 PUSH1 0x64 ADD JUMPDEST PUSH1 0x40 DUP1 MLOAD PUSH32 0xFFFFFFFFFFFFFFFFFFFFFFFFFFFFFFFFFFFFFFFFFFFFFFFFFFFFFFFFFFFFFFE0 DUP2 DUP5 SUB ADD DUP2 MSTORE SWAP2 SWAP1 MSTORE PUSH1 0x20 DUP2 ADD DUP1 MLOAD PUSH28 0xFFFFFFFFFFFFFFFFFFFFFFFFFFFFFFFFFFFFFFFFFFFFFFFFFFFFFFFF AND PUSH32 0xFFFFFFFF00000000000000000000000000000000000000000000000000000000 SWAP1 SWAP4 AND SWAP3 SWAP1 SWAP3 OR SWAP1 SWAP2 MSTORE PUSH2 0x1B35 JUMP JUMPDEST POP POP POP JUMP JUMPDEST PUSH1 0x40 MLOAD PUSH20 0xFFFFFFFFFFFFFFFFFFFFFFFFFFFFFFFFFFFFFFFF DUP1 DUP6 AND PUSH1 0x24 DUP4 ADD MSTORE DUP4 AND PUSH1 0x44 DUP3 ADD MSTORE PUSH1 0x64 DUP2 ADD DUP3 SWAP1 MSTORE PUSH2 0xF47 SWAP1 DUP6 SWAP1 PUSH32 0x23B872DD00000000000000000000000000000000000000000000000000000000 SWAP1 PUSH1 0x84 ADD PUSH2 0x1A50 JUMP JUMPDEST PUSH1 0x0 PUSH2 0x1B97 DUP3 PUSH1 0x40 MLOAD DUP1 PUSH1 0x40 ADD PUSH1 0x40 MSTORE DUP1 PUSH1 0x20 DUP2 MSTORE PUSH1 0x20 ADD PUSH32 0x5361666545524332303A206C6F772D6C6576656C2063616C6C206661696C6564 DUP2 MSTORE POP DUP6 PUSH20 0xFFFFFFFFFFFFFFFFFFFFFFFFFFFFFFFFFFFFFFFF AND PUSH2 0x1C41 SWAP1 SWAP3 SWAP2 SWAP1 PUSH4 0xFFFFFFFF AND JUMP JUMPDEST DUP1 MLOAD SWAP1 SWAP2 POP ISZERO PUSH2 0x1AD2 JUMPI DUP1 DUP1 PUSH1 0x20 ADD SWAP1 MLOAD DUP2 ADD SWAP1 PUSH2 0x1BB5 SWAP2 SWAP1 PUSH2 0x2427 JUMP JUMPDEST PUSH2 0x1AD2 JUMPI PUSH1 0x40 MLOAD PUSH32 0x8C379A000000000000000000000000000000000000000000000000000000000 DUP2 MSTORE PUSH1 0x20 PUSH1 0x4 DUP3 ADD MSTORE PUSH1 0x2A PUSH1 0x24 DUP3 ADD MSTORE PUSH32 0x5361666545524332303A204552433230206F7065726174696F6E20646964206E PUSH1 0x44 DUP3 ADD MSTORE PUSH32 0x6F74207375636365656400000000000000000000000000000000000000000000 PUSH1 0x64 DUP3 ADD MSTORE PUSH1 0x84 ADD PUSH2 0x13F JUMP JUMPDEST PUSH1 0x60 PUSH2 0x1C50 DUP5 DUP5 PUSH1 0x0 DUP6 PUSH2 0x1C58 JUMP JUMPDEST SWAP5 SWAP4 POP POP POP POP JUMP JUMPDEST PUSH1 0x60 DUP3 SELFBALANCE LT ISZERO PUSH2 0x1CEA JUMPI PUSH1 0x40 MLOAD PUSH32 0x8C379A000000000000000000000000000000000000000000000000000000000 DUP2 MSTORE PUSH1 0x20 PUSH1 0x4 DUP3 ADD MSTORE PUSH1 0x26 PUSH1 0x24 DUP3 ADD MSTORE PUSH32 0x416464726573733A20696E73756666696369656E742062616C616E636520666F PUSH1 0x44 DUP3 ADD MSTORE PUSH32 0x722063616C6C0000000000000000000000000000000000000000000000000000 PUSH1 0x64 DUP3 ADD MSTORE PUSH1 0x84 ADD PUSH2 0x13F JUMP JUMPDEST PUSH1 0x0 DUP1 DUP7 PUSH20 0xFFFFFFFFFFFFFFFFFFFFFFFFFFFFFFFFFFFFFFFF AND DUP6 DUP8 PUSH1 0x40 MLOAD PUSH2 0x1D13 SWAP2 SWAP1 PUSH2 0x20A4 JUMP JUMPDEST PUSH1 0x0 PUSH1 0x40 MLOAD DUP1 DUP4 SUB DUP2 DUP6 DUP8 GAS CALL SWAP3 POP POP POP RETURNDATASIZE DUP1 PUSH1 0x0 DUP2 EQ PUSH2 0x1D50 JUMPI PUSH1 0x40 MLOAD SWAP2 POP PUSH1 0x1F NOT PUSH1 0x3F RETURNDATASIZE ADD AND DUP3 ADD PUSH1 0x40 MSTORE RETURNDATASIZE DUP3 MSTORE RETURNDATASIZE PUSH1 0x0 PUSH1 0x20 DUP5 ADD RETURNDATACOPY PUSH2 0x1D55 JUMP JUMPDEST PUSH1 0x60 SWAP2 POP JUMPDEST POP SWAP2 POP SWAP2 POP PUSH2 0x1D66 DUP8 DUP4 DUP4 DUP8 PUSH2 0x1D71 JUMP JUMPDEST SWAP8 SWAP7 POP POP POP POP POP POP POP JUMP JUMPDEST PUSH1 0x60 DUP4 ISZERO PUSH2 0x1E04 JUMPI DUP3 MLOAD PUSH2 0x1DFD JUMPI PUSH20 0xFFFFFFFFFFFFFFFFFFFFFFFFFFFFFFFFFFFFFFFF DUP6 AND EXTCODESIZE PUSH2 0x1DFD JUMPI PUSH1 0x40 MLOAD PUSH32 0x8C379A000000000000000000000000000000000000000000000000000000000 DUP2 MSTORE PUSH1 0x20 PUSH1 0x4 DUP3 ADD MSTORE PUSH1 0x1D PUSH1 0x24 DUP3 ADD MSTORE PUSH32 0x416464726573733A2063616C6C20746F206E6F6E2D636F6E7472616374000000 PUSH1 0x44 DUP3 ADD MSTORE PUSH1 0x64 ADD PUSH2 0x13F JUMP JUMPDEST POP DUP2 PUSH2 0x1C50 JUMP JUMPDEST PUSH2 0x1C50 DUP4 DUP4 DUP2 MLOAD ISZERO PUSH2 0x1E19 JUMPI DUP2 MLOAD DUP1 DUP4 PUSH1 0x20 ADD REVERT JUMPDEST DUP1 PUSH1 0x40 MLOAD PUSH32 0x8C379A000000000000000000000000000000000000000000000000000000000 DUP2 MSTORE PUSH1 0x4 ADD PUSH2 0x13F SWAP2 SWAP1 PUSH2 0x210A JUMP JUMPDEST PUSH20 0xFFFFFFFFFFFFFFFFFFFFFFFFFFFFFFFFFFFFFFFF DUP2 AND DUP2 EQ PUSH2 0x1E6F JUMPI PUSH1 0x0 DUP1 REVERT JUMPDEST POP JUMP JUMPDEST PUSH32 0x4E487B7100000000000000000000000000000000000000000000000000000000 PUSH1 0x0 MSTORE PUSH1 0x41 PUSH1 0x4 MSTORE PUSH1 0x24 PUSH1 0x0 REVERT JUMPDEST PUSH1 0x0 DUP3 PUSH1 0x1F DUP4 ADD SLT PUSH2 0x1EB2 JUMPI PUSH1 0x0 DUP1 REVERT JUMPDEST DUP2 CALLDATALOAD PUSH8 0xFFFFFFFFFFFFFFFF DUP1 DUP3 GT ISZERO PUSH2 0x1ECD JUMPI PUSH2 0x1ECD PUSH2 0x1E72 JUMP JUMPDEST PUSH1 0x40 MLOAD PUSH1 0x1F DUP4 ADD PUSH32 0xFFFFFFFFFFFFFFFFFFFFFFFFFFFFFFFFFFFFFFFFFFFFFFFFFFFFFFFFFFFFFFE0 SWAP1 DUP2 AND PUSH1 0x3F ADD AND DUP2 ADD SWAP1 DUP3 DUP3 GT DUP2 DUP4 LT OR ISZERO PUSH2 0x1F13 JUMPI PUSH2 0x1F13 PUSH2 0x1E72 JUMP JUMPDEST DUP2 PUSH1 0x40 MSTORE DUP4 DUP2 MSTORE DUP7 PUSH1 0x20 DUP6 DUP9 ADD ADD GT ISZERO PUSH2 0x1F2C JUMPI PUSH1 0x0 DUP1 REVERT JUMPDEST DUP4 PUSH1 0x20 DUP8 ADD PUSH1 0x20 DUP4 ADD CALLDATACOPY PUSH1 0x0 PUSH1 0x20 DUP6 DUP4 ADD ADD MSTORE DUP1 SWAP5 POP POP POP POP POP SWAP3 SWAP2 POP POP JUMP JUMPDEST PUSH1 0x0 DUP1 PUSH1 0x0 DUP1 PUSH1 0x0 DUP1 PUSH1 0xC0 DUP8 DUP10 SUB SLT ISZERO PUSH2 0x1F65 JUMPI PUSH1 0x0 DUP1 REVERT JUMPDEST DUP7 CALLDATALOAD PUSH2 0x1F70 DUP2 PUSH2 0x1E4D JUMP JUMPDEST SWAP6 POP PUSH1 0x20 DUP8 ADD CALLDATALOAD SWAP5 POP PUSH1 0x40 DUP8 ADD CALLDATALOAD PUSH2 0x1F87 DUP2 PUSH2 0x1E4D JUMP JUMPDEST SWAP4 POP PUSH1 0x60 DUP8 ADD CALLDATALOAD SWAP3 POP PUSH1 0x80 DUP8 ADD CALLDATALOAD PUSH2 0x1F9E DUP2 PUSH2 0x1E4D JUMP JUMPDEST SWAP2 POP PUSH1 0xA0 DUP8 ADD CALLDATALOAD PUSH8 0xFFFFFFFFFFFFFFFF DUP2 GT ISZERO PUSH2 0x1FBA JUMPI PUSH1 0x0 DUP1 REVERT JUMPDEST PUSH2 0x1FC6 DUP10 DUP3 DUP11 ADD PUSH2 0x1EA1 JUMP JUMPDEST SWAP2 POP POP SWAP3 SWAP6 POP SWAP3 SWAP6 POP SWAP3 SWAP6 JUMP JUMPDEST PUSH1 0x0 DUP1 PUSH1 0x0 DUP1 PUSH1 0x0 DUP1 PUSH1 0x0 DUP1 PUSH2 0x100 DUP10 DUP12 SUB SLT ISZERO PUSH2 0x1FF0 JUMPI PUSH1 0x0 DUP1 REVERT JUMPDEST DUP9 CALLDATALOAD PUSH2 0x1FFB DUP2 PUSH2 0x1E4D JUMP JUMPDEST SWAP8 POP PUSH1 0x20 DUP10 ADD CALLDATALOAD SWAP7 POP PUSH1 0x40 DUP10 ADD CALLDATALOAD PUSH2 0x2012 DUP2 PUSH2 0x1E4D JUMP JUMPDEST SWAP6 POP PUSH1 0x60 DUP10 ADD CALLDATALOAD SWAP5 POP PUSH1 0x80 DUP10 ADD CALLDATALOAD PUSH2 0x2029 DUP2 PUSH2 0x1E4D JUMP JUMPDEST SWAP4 POP PUSH1 0xA0 DUP10 ADD CALLDATALOAD SWAP3 POP PUSH1 0xC0 DUP10 ADD CALLDATALOAD PUSH2 0x2040 DUP2 PUSH2 0x1E4D JUMP JUMPDEST SWAP2 POP PUSH1 0xE0 DUP10 ADD CALLDATALOAD PUSH8 0xFFFFFFFFFFFFFFFF DUP2 GT ISZERO PUSH2 0x205C JUMPI PUSH1 0x0 DUP1 REVERT JUMPDEST PUSH2 0x2068 DUP12 DUP3 DUP13 ADD PUSH2 0x1EA1 JUMP JUMPDEST SWAP2 POP POP SWAP3 SWAP6 SWAP9 POP SWAP3 SWAP6 SWAP9 SWAP1 SWAP4 SWAP7 POP JUMP JUMPDEST PUSH1 0x0 JUMPDEST DUP4 DUP2 LT ISZERO PUSH2 0x2093 JUMPI DUP2 DUP2 ADD MLOAD DUP4 DUP3 ADD MSTORE PUSH1 0x20 ADD PUSH2 0x207B JUMP JUMPDEST DUP4 DUP2 GT ISZERO PUSH2 0xF47 JUMPI POP POP PUSH1 0x0 SWAP2 ADD MSTORE JUMP JUMPDEST PUSH1 0x0 DUP3 MLOAD PUSH2 0x20B6 DUP2 DUP5 PUSH1 0x20 DUP8 ADD PUSH2 0x2078 JUMP JUMPDEST SWAP2 SWAP1 SWAP2 ADD SWAP3 SWAP2 POP POP JUMP JUMPDEST PUSH1 0x0 DUP2 MLOAD DUP1 DUP5 MSTORE PUSH2 0x20D8 DUP2 PUSH1 0x20 DUP7 ADD PUSH1 0x20 DUP7 ADD PUSH2 0x2078 JUMP JUMPDEST PUSH1 0x1F ADD PUSH32 0xFFFFFFFFFFFFFFFFFFFFFFFFFFFFFFFFFFFFFFFFFFFFFFFFFFFFFFFFFFFFFFE0 AND SWAP3 SWAP1 SWAP3 ADD PUSH1 0x20 ADD SWAP3 SWAP2 POP POP JUMP JUMPDEST PUSH1 0x20 DUP2 MSTORE PUSH1 0x0 PUSH2 0x211D PUSH1 0x20 DUP4 ADD DUP5 PUSH2 0x20C0 JUMP JUMPDEST SWAP4 SWAP3 POP POP POP JUMP JUMPDEST PUSH1 0x0 PUSH1 0x20 DUP3 DUP5 SUB SLT ISZERO PUSH2 0x2136 JUMPI PUSH1 0x0 DUP1 REVERT JUMPDEST POP MLOAD SWAP2 SWAP1 POP JUMP JUMPDEST PUSH32 0x4E487B7100000000000000000000000000000000000000000000000000000000 PUSH1 0x0 MSTORE PUSH1 0x11 PUSH1 0x4 MSTORE PUSH1 0x24 PUSH1 0x0 REVERT JUMPDEST PUSH1 0x0 DUP3 NOT DUP3 GT ISZERO PUSH2 0x217F JUMPI PUSH2 0x217F PUSH2 0x213D JUMP JUMPDEST POP ADD SWAP1 JUMP JUMPDEST PUSH1 0x0 DUP3 DUP3 LT ISZERO PUSH2 0x2196 JUMPI PUSH2 0x2196 PUSH2 0x213D JUMP JUMPDEST POP SUB SWAP1 JUMP JUMPDEST DUP1 MLOAD PUSH14 0xFFFFFFFFFFFFFFFFFFFFFFFFFFFF DUP2 AND DUP2 EQ PUSH2 0x21B9 JUMPI PUSH1 0x0 DUP1 REVERT JUMPDEST SWAP2 SWAP1 POP JUMP JUMPDEST PUSH1 0x0 DUP1 PUSH1 0x0 PUSH1 0x60 DUP5 DUP7 SUB SLT ISZERO PUSH2 0x21D3 JUMPI PUSH1 0x0 DUP1 REVERT JUMPDEST PUSH2 0x21DC DUP5 PUSH2 0x219B JUMP JUMPDEST SWAP3 POP PUSH2 0x21EA PUSH1 0x20 DUP6 ADD PUSH2 0x219B JUMP JUMPDEST SWAP2 POP PUSH1 0x40 DUP5 ADD MLOAD PUSH4 0xFFFFFFFF DUP2 AND DUP2 EQ PUSH2 0x2203 JUMPI PUSH1 0x0 DUP1 REVERT JUMPDEST DUP1 SWAP2 POP POP SWAP3 POP SWAP3 POP SWAP3 JUMP JUMPDEST PUSH1 0x0 DUP2 PUSH32 0xFFFFFFFFFFFFFFFFFFFFFFFFFFFFFFFFFFFFFFFFFFFFFFFFFFFFFFFFFFFFFFFF DIV DUP4 GT DUP3 ISZERO ISZERO AND ISZERO PUSH2 0x2246 JUMPI PUSH2 0x2246 PUSH2 0x213D JUMP JUMPDEST POP MUL SWAP1 JUMP JUMPDEST PUSH1 0x0 DUP3 PUSH2 0x2281 JUMPI PUSH32 0x4E487B7100000000000000000000000000000000000000000000000000000000 PUSH1 0x0 MSTORE PUSH1 0x12 PUSH1 0x4 MSTORE PUSH1 0x24 PUSH1 0x0 REVERT JUMPDEST POP DIV SWAP1 JUMP JUMPDEST DUP5 DUP2 MSTORE DUP4 PUSH1 0x20 DUP3 ADD MSTORE PUSH20 0xFFFFFFFFFFFFFFFFFFFFFFFFFFFFFFFFFFFFFFFF DUP4 AND PUSH1 0x40 DUP3 ADD MSTORE PUSH1 0x80 PUSH1 0x60 DUP3 ADD MSTORE PUSH1 0x0 PUSH2 0x22C1 PUSH1 0x80 DUP4 ADD DUP5 PUSH2 0x20C0 JUMP JUMPDEST SWAP7 SWAP6 POP POP POP POP POP POP JUMP JUMPDEST PUSH1 0x0 PUSH32 0xFFFFFFFFFFFFFFFFFFFFFFFFFFFFFFFFFFFFFFFFFFFFFFFFFFFFFFFFFFFFFFFF DUP3 EQ ISZERO PUSH2 0x22FD JUMPI PUSH2 0x22FD PUSH2 0x213D JUMP JUMPDEST POP PUSH1 0x1 ADD SWAP1 JUMP JUMPDEST PUSH1 0x0 DUP1 PUSH1 0x40 DUP4 DUP6 SUB SLT ISZERO PUSH2 0x2317 JUMPI PUSH1 0x0 DUP1 REVERT JUMPDEST POP POP DUP1 MLOAD PUSH1 0x20 SWAP1 SWAP2 ADD MLOAD SWAP1 SWAP3 SWAP1 SWAP2 POP JUMP JUMPDEST DUP1 MLOAD PUSH16 0xFFFFFFFFFFFFFFFFFFFFFFFFFFFFFFFF DUP2 AND DUP2 EQ PUSH2 0x21B9 JUMPI PUSH1 0x0 DUP1 REVERT JUMPDEST PUSH1 0x0 PUSH1 0x40 DUP3 DUP5 SUB SLT ISZERO PUSH2 0x235A JUMPI PUSH1 0x0 DUP1 REVERT JUMPDEST PUSH1 0x40 MLOAD PUSH1 0x40 DUP2 ADD DUP2 DUP2 LT PUSH8 0xFFFFFFFFFFFFFFFF DUP3 GT OR ISZERO PUSH2 0x237D JUMPI PUSH2 0x237D PUSH2 0x1E72 JUMP JUMPDEST PUSH1 0x40 MSTORE PUSH2 0x2389 DUP4 PUSH2 0x2328 JUMP JUMPDEST DUP2 MSTORE PUSH2 0x2397 PUSH1 0x20 DUP5 ADD PUSH2 0x2328 JUMP JUMPDEST PUSH1 0x20 DUP3 ADD MSTORE SWAP4 SWAP3 POP POP POP JUMP JUMPDEST DUP1 MLOAD PUSH8 0xFFFFFFFFFFFFFFFF DUP2 AND DUP2 EQ PUSH2 0x21B9 JUMPI PUSH1 0x0 DUP1 REVERT JUMPDEST PUSH1 0x0 PUSH1 0x60 DUP3 DUP5 SUB SLT ISZERO PUSH2 0x23CD JUMPI PUSH1 0x0 DUP1 REVERT JUMPDEST PUSH1 0x40 MLOAD PUSH1 0x60 DUP2 ADD DUP2 DUP2 LT PUSH8 0xFFFFFFFFFFFFFFFF DUP3 GT OR ISZERO PUSH2 0x23F0 JUMPI PUSH2 0x23F0 PUSH2 0x1E72 JUMP JUMPDEST PUSH1 0x40 MSTORE PUSH2 0x23FC DUP4 PUSH2 0x23A3 JUMP JUMPDEST DUP2 MSTORE PUSH2 0x240A PUSH1 0x20 DUP5 ADD PUSH2 0x23A3 JUMP JUMPDEST PUSH1 0x20 DUP3 ADD MSTORE PUSH2 0x241B PUSH1 0x40 DUP5 ADD PUSH2 0x2328 JUMP JUMPDEST PUSH1 0x40 DUP3 ADD MSTORE SWAP4 SWAP3 POP POP POP JUMP JUMPDEST PUSH1 0x0 PUSH1 0x20 DUP3 DUP5 SUB SLT ISZERO PUSH2 0x2439 JUMPI PUSH1 0x0 DUP1 REVERT JUMPDEST DUP2 MLOAD DUP1 ISZERO ISZERO DUP2 EQ PUSH2 0x211D JUMPI PUSH1 0x0 DUP1 REVERT INVALID LOG2 PUSH5 0x6970667358 0x22 SLT KECCAK256 SWAP5 0xB1 DELEGATECALL 0xDC LOG4 0x2A CALL PUSH21 0xE67447A8C123DBB05C58E628EF14BF7157E50E7784 SHR ADDMOD 0xAC PUSH5 0x736F6C6343 STOP ADDMOD EXP STOP CALLER "},"gasEstimates":{"creation":{"codeDepositCost":"1868600","executionCost":"infinite","totalCost":"infinite"},"external":{"bentoBox()":"infinite","processRoute(address,uint256,address,uint256,address,bytes)":"infinite","transferValueAndprocessRoute(address,uint256,address,uint256,address,uint256,address,bytes)":"infinite"},"internal":{"bentoDepositAllFromBento(uint256)":"infinite","bentoDepositAmountFromBento(uint256,address)":"infinite","bentoWithdrawAllFromRP(uint256)":"infinite","bentoWithdrawShareFromRP(uint256,address)":"infinite","distributeBentoPortions(uint256)":"infinite","distributeBentoShares(uint256,address)":"infinite","distributeERC20Amounts(uint256,address)":"infinite","distributeERC20AmountsFromRP(uint256,address)":"infinite","distributeERC20Shares(uint256)":"infinite","processRouteInternal(address,uint256,address,uint256,address,bytes memory)":"infinite","swapTrident(uint256)":"infinite","swapUniswapPool(uint256)":"infinite","unwrapNative(address,uint256)":"infinite","wrapAndDistributeERC20Amounts(uint256)":"infinite"}},"methodIdentifiers":{"bentoBox()":"6b2ace87","processRoute(address,uint256,address,uint256,address,bytes)":"2646478b","transferValueAndprocessRoute(address,uint256,address,uint256,address,uint256,address,bytes)":"93b3774c"}},"storageLayout":{"storage":[{"astId":978,"contract":"contracts/RouteProcessor.sol:RouteProcessor","label":"unlocked","offset":0,"slot":"0","type":"t_uint256"}],"types":{"t_uint256":{"encoding":"inplace","label":"uint256","numberOfBytes":"32"}}},"userdoc":{"kind":"user","methods":{"processRoute(address,uint256,address,uint256,address,bytes)":{"notice":"Processes the route generated off-chain. Has a lock"},"transferValueAndprocessRoute(address,uint256,address,uint256,address,uint256,address,bytes)":{"notice":"Transfers some value to <transferValueTo> and then processes the route"}},"version":1}}}}