{"contracts/RouteProcessor3.sol":{"RouteProcessor3":{"abi":[{"inputs":[{"internalType":"address","name":"_bentoBox","type":"address"},{"internalType":"address[]","name":"priviledgedUserList","type":"address[]"}],"stateMutability":"nonpayable","type":"constructor"},{"anonymous":false,"inputs":[{"indexed":true,"internalType":"address","name":"previousOwner","type":"address"},{"indexed":true,"internalType":"address","name":"newOwner","type":"address"}],"name":"OwnershipTransferred","type":"event"},{"anonymous":false,"inputs":[{"indexed":true,"internalType":"address","name":"from","type":"address"},{"indexed":false,"internalType":"address","name":"to","type":"address"},{"indexed":true,"internalType":"address","name":"tokenIn","type":"address"},{"indexed":true,"internalType":"address","name":"tokenOut","type":"address"},{"indexed":false,"internalType":"uint256","name":"amountIn","type":"uint256"},{"indexed":false,"internalType":"uint256","name":"amountOutMin","type":"uint256"},{"indexed":false,"internalType":"uint256","name":"amountOut","type":"uint256"}],"name":"Route","type":"event"},{"inputs":[],"name":"bentoBox","outputs":[{"internalType":"contract IBentoBoxMinimal","name":"","type":"address"}],"stateMutability":"view","type":"function"},{"inputs":[],"name":"owner","outputs":[{"internalType":"address","name":"","type":"address"}],"stateMutability":"view","type":"function"},{"inputs":[],"name":"pause","outputs":[],"stateMutability":"nonpayable","type":"function"},{"inputs":[{"internalType":"address","name":"tokenIn","type":"address"},{"internalType":"uint256","name":"amountIn","type":"uint256"},{"internalType":"address","name":"tokenOut","type":"address"},{"internalType":"uint256","name":"amountOutMin","type":"uint256"},{"internalType":"address","name":"to","type":"address"},{"internalType":"bytes","name":"route","type":"bytes"}],"name":"processRoute","outputs":[{"internalType":"uint256","name":"amountOut","type":"uint256"}],"stateMutability":"payable","type":"function"},{"inputs":[],"name":"renounceOwnership","outputs":[],"stateMutability":"nonpayable","type":"function"},{"inputs":[],"name":"resume","outputs":[],"stateMutability":"nonpayable","type":"function"},{"inputs":[{"internalType":"address","name":"user","type":"address"},{"internalType":"bool","name":"priviledge","type":"bool"}],"name":"setPriviledge","outputs":[],"stateMutability":"nonpayable","type":"function"},{"inputs":[{"internalType":"address","name":"newOwner","type":"address"}],"name":"transferOwnership","outputs":[],"stateMutability":"nonpayable","type":"function"},{"inputs":[{"internalType":"address payable","name":"transferValueTo","type":"address"},{"internalType":"uint256","name":"amountValueTransfer","type":"uint256"},{"internalType":"address","name":"tokenIn","type":"address"},{"internalType":"uint256","name":"amountIn","type":"uint256"},{"internalType":"address","name":"tokenOut","type":"address"},{"internalType":"uint256","name":"amountOutMin","type":"uint256"},{"internalType":"address","name":"to","type":"address"},{"internalType":"bytes","name":"route","type":"bytes"}],"name":"transferValueAndprocessRoute","outputs":[{"internalType":"uint256","name":"amountOut","type":"uint256"}],"stateMutability":"payable","type":"function"},{"inputs":[{"internalType":"int256","name":"amount0Delta","type":"int256"},{"internalType":"int256","name":"amount1Delta","type":"int256"},{"internalType":"bytes","name":"data","type":"bytes"}],"name":"uniswapV3SwapCallback","outputs":[],"stateMutability":"nonpayable","type":"function"},{"stateMutability":"payable","type":"receive"}],"devdoc":{"author":"Ilya Lyalin version 2.1","kind":"dev","methods":{"owner()":{"details":"Returns the address of the current owner."},"processRoute(address,uint256,address,uint256,address,bytes)":{"params":{"amountIn":"Amount of the input token","amountOutMin":"Minimum amount of the output token","tokenIn":"Address of the input token","tokenOut":"Address of the output token"},"returns":{"amountOut":"Actual amount of the output token"}},"renounceOwnership()":{"details":"Leaves the contract without owner. It will not be possible to call `onlyOwner` functions anymore. Can only be called by the current owner. NOTE: Renouncing ownership will leave the contract without an owner, thereby removing any functionality that is only available to the owner."},"transferOwnership(address)":{"details":"Transfers ownership of the contract to a new account (`newOwner`). Can only be called by the current owner."},"transferValueAndprocessRoute(address,uint256,address,uint256,address,uint256,address,bytes)":{"params":{"amountIn":"Amount of the input token","amountOutMin":"Minimum amount of the output token","amountValueTransfer":"How much value to transfer","tokenIn":"Address of the input token","tokenOut":"Address of the output token","transferValueTo":"Address where the value should be transferred"},"returns":{"amountOut":"Actual amount of the output token"}},"uniswapV3SwapCallback(int256,int256,bytes)":{"details":"In the implementation you must pay the pool tokens owed for the swap. The caller of this method must be checked to be a UniswapV3Pool deployed by the canonical UniswapV3Factory. amount0Delta and amount1Delta can both be 0 if no tokens were swapped.","params":{"amount0Delta":"The amount of token0 that was sent (negative) or must be received (positive) by the pool by the end of the swap. If positive, the callback must send that amount of token0 to the pool.","amount1Delta":"The amount of token1 that was sent (negative) or must be received (positive) by the pool by the end of the swap. If positive, the callback must send that amount of token1 to the pool.","data":"Any data passed through by the caller via the IUniswapV3PoolActions#swap call"}}},"title":"A route processor for the Sushi Aggregator","version":1},"evm":{"bytecode":{"linkReferences":{},"object":"60a06040526002805461ffff60a01b191661010160a01b1790553480156200002657600080fd5b50604051620038a3380380620038a383398101604081905262000049916200016e565b6200005433620000eb565b6001600160a01b038216608052600280546001600160a01b031916600117905560005b8151811015620000e25760018060008484815181106200009b576200009b62000257565b6020908102919091018101516001600160a01b03168252810191909152604001600020805460ff191691151591909117905580620000d9816200026d565b91505062000077565b50505062000297565b600080546001600160a01b038381166001600160a01b0319831681178455604051919092169283917f8be0079c531659141344cd1fd0a4f28419497f9722a3daafe3b4186f6b6457e09190a35050565b80516001600160a01b03811681146200015357600080fd5b919050565b634e487b7160e01b600052604160045260246000fd5b600080604083850312156200018257600080fd5b6200018d836200013b565b602084810151919350906001600160401b0380821115620001ad57600080fd5b818601915086601f830112620001c257600080fd5b815181811115620001d757620001d762000158565b8060051b604051601f19603f83011681018181108582111715620001ff57620001ff62000158565b6040529182528482019250838101850191898311156200021e57600080fd5b938501935b82851015620002475762000237856200013b565b8452938501939285019262000223565b8096505050505050509250929050565b634e487b7160e01b600052603260045260246000fd5b60006000198214156200029057634e487b7160e01b600052601160045260246000fd5b5060010190565b6080516135a362000300600039600081816101100152818161150901528181612460015281816124a701528181612511015281816125d601528181612683015281816127670152818161285801528181612904015281816129d30152612acf01526135a36000f3fe6080604052600436106100b55760003560e01c80638da5cb5b116100695780639a1f34061161004e5780639a1f3406146101bf578063f2fde38b146101df578063fa461e33146101ff57600080fd5b80638da5cb5b1461018157806393b3774c146101ac57600080fd5b80636b2ace871161009a5780636b2ace87146100fe578063715018a6146101575780638456cb591461016c57600080fd5b8063046f7da2146100c15780632646478b146100d857600080fd5b366100bc57005b600080fd5b3480156100cd57600080fd5b506100d661021f565b005b6100eb6100e6366004612f16565b61032d565b6040519081526020015b60405180910390f35b34801561010a57600080fd5b506101327f000000000000000000000000000000000000000000000000000000000000000081565b60405173ffffffffffffffffffffffffffffffffffffffff90911681526020016100f5565b34801561016357600080fd5b506100d66104d7565b34801561017857600080fd5b506100d66104eb565b34801561018d57600080fd5b5060005473ffffffffffffffffffffffffffffffffffffffff16610132565b6100eb6101ba366004612f9d565b6105f4565b3480156101cb57600080fd5b506100d66101da366004613050565b610860565b3480156101eb57600080fd5b506100d66101fa366004613089565b6108be565b34801561020b57600080fd5b506100d661021a3660046130ad565b610975565b60005473ffffffffffffffffffffffffffffffffffffffff1633148061025a57503360009081526001602081905260409091205460ff161515145b6102eb576040517f08c379a000000000000000000000000000000000000000000000000000000000815260206004820152603160248201527f52503a2063616c6c6572206973206e6f7420746865206f776e6572206f72206160448201527f2070726976696c6564676564207573657200000000000000000000000000000060648201526084015b60405180910390fd5b600280547fffffffffffffffffffff00ffffffffffffffffffffffffffffffffffffffffff167501000000000000000000000000000000000000000000179055565b60025460009074010000000000000000000000000000000000000000900460ff166001146103b7576040517f08c379a000000000000000000000000000000000000000000000000000000000815260206004820152601860248201527f526f75746550726f636573736f72206973206c6f636b6564000000000000000060448201526064016102e2565b6002547501000000000000000000000000000000000000000000900460ff1660011461043f576040517f08c379a000000000000000000000000000000000000000000000000000000000815260206004820152601860248201527f526f75746550726f636573736f7220697320706175736564000000000000000060448201526064016102e2565b600280547fffffffffffffffffffffff00ffffffffffffffffffffffffffffffffffffffff167402000000000000000000000000000000000000000017905561048c878787878787610b23565b9050600280547fffffffffffffffffffffff00ffffffffffffffffffffffffffffffffffffffff16740100000000000000000000000000000000000000001790559695505050505050565b6104df611180565b6104e96000611201565b565b60005473ffffffffffffffffffffffffffffffffffffffff1633148061052657503360009081526001602081905260409091205460ff161515145b6105b2576040517f08c379a000000000000000000000000000000000000000000000000000000000815260206004820152603160248201527f52503a2063616c6c6572206973206e6f7420746865206f776e6572206f72206160448201527f2070726976696c6564676564207573657200000000000000000000000000000060648201526084016102e2565b600280547fffffffffffffffffffff00ffffffffffffffffffffffffffffffffffffffffff167502000000000000000000000000000000000000000000179055565b60025460009074010000000000000000000000000000000000000000900460ff1660011461067e576040517f08c379a000000000000000000000000000000000000000000000000000000000815260206004820152601860248201527f526f75746550726f636573736f72206973206c6f636b6564000000000000000060448201526064016102e2565b6002547501000000000000000000000000000000000000000000900460ff16600114610706576040517f08c379a000000000000000000000000000000000000000000000000000000000815260206004820152601860248201527f526f75746550726f636573736f7220697320706175736564000000000000000060448201526064016102e2565b600280547fffffffffffffffffffffff00ffffffffffffffffffffffffffffffffffffffff1674020000000000000000000000000000000000000000179055604051600090819073ffffffffffffffffffffffffffffffffffffffff8c16908b908381818185875af1925050503d806000811461079f576040519150601f19603f3d011682016040523d82523d6000602084013e6107a4565b606091505b509150915081816040516020016107bb9190613159565b60405160208183030381529060405290610802576040517f08c379a00000000000000000000000000000000000000000000000000000000081526004016102e291906131bf565b50610811898989898989610b23565b92505050600280547fffffffffffffffffffffff00ffffffffffffffffffffffffffffffffffffffff167401000000000000000000000000000000000000000017905598975050505050505050565b610868611180565b73ffffffffffffffffffffffffffffffffffffffff91909116600090815260016020526040902080547fffffffffffffffffffffffffffffffffffffffffffffffffffffffffffffff0016911515919091179055565b6108c6611180565b73ffffffffffffffffffffffffffffffffffffffff8116610969576040517f08c379a000000000000000000000000000000000000000000000000000000000815260206004820152602660248201527f4f776e61626c653a206e6577206f776e657220697320746865207a65726f206160448201527f646472657373000000000000000000000000000000000000000000000000000060648201526084016102e2565b61097281611201565b50565b60025473ffffffffffffffffffffffffffffffffffffffff163314610a1c576040517f08c379a000000000000000000000000000000000000000000000000000000000815260206004820152603e60248201527f526f75746550726f636573736f722e756e697377617056335377617043616c6c60448201527f6261636b3a2063616c6c2066726f6d20756e6b6e6f776e20736f75726365000060648201526084016102e2565b600280547fffffffffffffffffffffffff00000000000000000000000000000000000000001660011790556000610a5582840184613089565b90506000808613610a665784610a68565b855b905060008113610afa576040517f08c379a000000000000000000000000000000000000000000000000000000000815260206004820152603960248201527f526f75746550726f636573736f722e756e697377617056335377617043616c6c60448201527f6261636b3a206e6f7420706f73697469766520616d6f756e740000000000000060648201526084016102e2565b610b1b73ffffffffffffffffffffffffffffffffffffffff83163383611276565b505050505050565b60008073ffffffffffffffffffffffffffffffffffffffff881673eeeeeeeeeeeeeeeeeeeeeeeeeeeeeeeeeeeeeeee14610bea576040517f70a0823100000000000000000000000000000000000000000000000000000000815233600482015273ffffffffffffffffffffffffffffffffffffffff8916906370a0823190602401602060405180830381865afa158015610bc1573d6000803e3d6000fd5b505050506040513d601f19601f82011682018060405250810190610be591906131d2565b610bec565b475b9050600073ffffffffffffffffffffffffffffffffffffffff871673eeeeeeeeeeeeeeeeeeeeeeeeeeeeeeeeeeeeeeee14610cb6576040517f70a0823100000000000000000000000000000000000000000000000000000000815273ffffffffffffffffffffffffffffffffffffffff86811660048301528816906370a0823190602401602060405180830381865afa158015610c8d573d6000803e3d6000fd5b505050506040513d601f19601f82011682018060405250810190610cb191906131d2565b610ccf565b8473ffffffffffffffffffffffffffffffffffffffff16315b604080518082019091528581528551860160208201529091505b805160208201511115610e1c576000610d088280516001018051915290565b90508060ff1660011415610d2457610d1f8261134f565b610e16565b8060ff1660021415610d3a57610d1f828b61142c565b8060ff1660031415610d4f57610d1f8261144c565b8060ff1660041415610d6457610d1f82611471565b8060ff1660051415610d7957610d1f82611492565b8060ff1660061415610d8f57610d1f8b836115ed565b6040517f08c379a0000000000000000000000000000000000000000000000000000000008152602060048201526024808201527f526f75746550726f636573736f723a20556e6b6e6f776e20636f6d6d616e642060448201527f636f64650000000000000000000000000000000000000000000000000000000060648201526084016102e2565b50610ce9565b600073ffffffffffffffffffffffffffffffffffffffff8b1673eeeeeeeeeeeeeeeeeeeeeeeeeeeeeeeeeeeeeeee14610ee2576040517f70a0823100000000000000000000000000000000000000000000000000000000815233600482015273ffffffffffffffffffffffffffffffffffffffff8c16906370a0823190602401602060405180830381865afa158015610eb9573d6000803e3d6000fd5b505050506040513d601f19601f82011682018060405250810190610edd91906131d2565b610ee4565b475b905083610ef18b8361321a565b1015610f7f576040517f08c379a000000000000000000000000000000000000000000000000000000000815260206004820152602f60248201527f526f75746550726f636573736f723a204d696e696d616c20696d70757420626160448201527f6c616e63652076696f6c6174696f6e000000000000000000000000000000000060648201526084016102e2565b600073ffffffffffffffffffffffffffffffffffffffff8a1673eeeeeeeeeeeeeeeeeeeeeeeeeeeeeeeeeeeeeeee14611047576040517f70a0823100000000000000000000000000000000000000000000000000000000815273ffffffffffffffffffffffffffffffffffffffff89811660048301528b16906370a0823190602401602060405180830381865afa15801561101e573d6000803e3d6000fd5b505050506040513d601f19601f8201168201806040525081019061104291906131d2565b611060565b8773ffffffffffffffffffffffffffffffffffffffff16315b905061106c898561321a565b8110156110fb576040517f08c379a000000000000000000000000000000000000000000000000000000000815260206004820152602f60248201527f526f75746550726f636573736f723a204d696e696d616c206f7570757420626160448201527f6c616e63652076696f6c6174696f6e000000000000000000000000000000000060648201526084016102e2565b6111058482613232565b6040805173ffffffffffffffffffffffffffffffffffffffff8b81168252602082018f90529181018c905260608101839052919750808c1691908e169033907f2db5ddd0b42bdbca0d69ea16f234a870a485854ae0d91f16643d6f317d8b89949060800160405180910390a450505050509695505050505050565b60005473ffffffffffffffffffffffffffffffffffffffff1633146104e9576040517f08c379a000000000000000000000000000000000000000000000000000000000815260206004820181905260248201527f4f776e61626c653a2063616c6c6572206973206e6f7420746865206f776e657260448201526064016102e2565b6000805473ffffffffffffffffffffffffffffffffffffffff8381167fffffffffffffffffffffffff0000000000000000000000000000000000000000831681178455604051919092169283917f8be0079c531659141344cd1fd0a4f28419497f9722a3daafe3b4186f6b6457e09190a35050565b60405173ffffffffffffffffffffffffffffffffffffffff831660248201526044810182905261134a9084907fa9059cbb00000000000000000000000000000000000000000000000000000000906064015b604080517fffffffffffffffffffffffffffffffffffffffffffffffffffffffffffffffe08184030181529190526020810180517bffffffffffffffffffffffffffffffffffffffffffffffffffffffff167fffffffff0000000000000000000000000000000000000000000000000000000090931692909217909152611680565b505050565b60006113618280516014018051915290565b6040517f70a0823100000000000000000000000000000000000000000000000000000000815230600482015290915060009073ffffffffffffffffffffffffffffffffffffffff8316906370a0823190602401602060405180830381865afa1580156113d1573d6000803e3d6000fd5b505050506040513d601f19601f820116820180604052508101906113f591906131d2565b90508015611420577fffffffffffffffffffffffffffffffffffffffffffffffffffffffffffffffff015b61134a8330848461178c565b600061143e8380516014018051915290565b905061134a8333838561178c565b4761146d823073eeeeeeeeeeeeeeeeeeeeeeeeeeeeeeeeeeeeeeee8461178c565b5050565b60006114838280516014018051915290565b905061146d82308360006117e7565b60006114a48280516014018051915290565b905060006114b88380516001018051915290565b6040517ff7888aec00000000000000000000000000000000000000000000000000000000815273ffffffffffffffffffffffffffffffffffffffff84811660048301523060248301529192506000917f0000000000000000000000000000000000000000000000000000000000000000169063f7888aec90604401602060405180830381865afa158015611550573d6000803e3d6000fd5b505050506040513d601f19601f8201168201806040525081019061157491906131d2565b9050801561159f577fffffffffffffffffffffffffffffffffffffffffffffffffffffffffffffffff015b60005b8260ff168110156115e65760006115bf8680516002018051915290565b61ffff80821685020493849003939091506115dc873088846117e7565b50506001016115a2565b5050505050565b60006115ff8280516020018051915290565b905060006116138380516020018051915290565b905060006116278480516001018051915290565b9050600061163b8580516020018051915290565b9050600061164f8680516020018051915290565b905061167773ffffffffffffffffffffffffffffffffffffffff8816333088888888886118fc565b50505050505050565b60006116e2826040518060400160405280602081526020017f5361666545524332303a206c6f772d6c6576656c2063616c6c206661696c65648152508573ffffffffffffffffffffffffffffffffffffffff16611b7c9092919063ffffffff16565b80519091501561134a57808060200190518101906117009190613249565b61134a576040517f08c379a000000000000000000000000000000000000000000000000000000000815260206004820152602a60248201527f5361666545524332303a204552433230206f7065726174696f6e20646964206e60448201527f6f7420737563636565640000000000000000000000000000000000000000000060648201526084016102e2565b600061179e8580516001018051915290565b905060005b8160ff16811015610b1b5760006117c08780516002018051915290565b61ffff80821686020494859003949091506117dd888888846117e7565b50506001016117a3565b60006117f98580516001018051915290565b905060ff81166118145761180f85858585611b93565b6115e6565b8060ff166001141561182c5761180f85858585611f0c565b8060ff16600214156118445761180f858585856121f0565b8060ff166003141561185c5761180f858585856123ef565b8060ff16600414156118745761180f85858585612a49565b6040517f08c379a000000000000000000000000000000000000000000000000000000000815260206004820152602160248201527f526f75746550726f636573736f723a20556e6b6e6f776e20706f6f6c2074797060448201527f650000000000000000000000000000000000000000000000000000000000000060648201526084016102e2565b6040517f7ecebe0000000000000000000000000000000000000000000000000000000000815273ffffffffffffffffffffffffffffffffffffffff8881166004830152600091908a1690637ecebe0090602401602060405180830381865afa15801561196c573d6000803e3d6000fd5b505050506040513d601f19601f8201168201806040525081019061199091906131d2565b6040517fd505accf00000000000000000000000000000000000000000000000000000000815273ffffffffffffffffffffffffffffffffffffffff8a811660048301528981166024830152604482018990526064820188905260ff8716608483015260a4820186905260c48201859052919250908a169063d505accf9060e401600060405180830381600087803b158015611a2a57600080fd5b505af1158015611a3e573d6000803e3d6000fd5b50506040517f7ecebe0000000000000000000000000000000000000000000000000000000000815273ffffffffffffffffffffffffffffffffffffffff8b81166004830152600093508c169150637ecebe0090602401602060405180830381865afa158015611ab1573d6000803e3d6000fd5b505050506040513d601f19601f82011682018060405250810190611ad591906131d2565b9050611ae282600161321a565b8114611b70576040517f08c379a000000000000000000000000000000000000000000000000000000000815260206004820152602160248201527f5361666545524332303a207065726d697420646964206e6f742073756363656560448201527f640000000000000000000000000000000000000000000000000000000000000060648201526084016102e2565b50505050505050505050565b6060611b8b8484600085612bc1565b949350505050565b6000611ba58580516014018051915290565b90506000611bb98680516001018051915290565b90506000611bcd8780516014018051915290565b90506000808473ffffffffffffffffffffffffffffffffffffffff16630902f1ac6040518163ffffffff1660e01b8152600401606060405180830381865afa158015611c1d573d6000803e3d6000fd5b505050506040513d601f19601f82011682018060405250810190611c419190613289565b506dffffffffffffffffffffffffffff1691506dffffffffffffffffffffffffffff169150600082118015611c765750600081115b611cdc576040517f08c379a000000000000000000000000000000000000000000000000000000000815260206004820152601360248201527f57726f6e6720706f6f6c2072657365727665730000000000000000000000000060448201526064016102e2565b6000808560ff16600114611cf1578284611cf4565b83835b9150915087600014611d665773ffffffffffffffffffffffffffffffffffffffff8a16301415611d4457611d3f73ffffffffffffffffffffffffffffffffffffffff8a16888a611276565b611e06565b611d3f73ffffffffffffffffffffffffffffffffffffffff8a168b898b612cda565b6040517f70a0823100000000000000000000000000000000000000000000000000000000815273ffffffffffffffffffffffffffffffffffffffff88811660048301528391908b16906370a0823190602401602060405180830381865afa158015611dd5573d6000803e3d6000fd5b505050506040513d601f19601f82011682018060405250810190611df991906131d2565b611e039190613232565b97505b6000611e14896103e56132d9565b9050600081611e25856103e86132d9565b611e2f919061321a565b611e3984846132d9565b611e439190613316565b90506000808960ff16600114611e5b57826000611e5f565b6000835b604080516000815260208101918290527f022c0d9f00000000000000000000000000000000000000000000000000000000909152919350915073ffffffffffffffffffffffffffffffffffffffff8c169063022c0d9f90611ec990859085908e9060248101613351565b600060405180830381600087803b158015611ee357600080fd5b505af1158015611ef7573d6000803e3d6000fd5b50505050505050505050505050505050505050565b6000611f1e8580516014018051915290565b9050600080611f338780516001018051915290565b60ff161190506000611f4b8780516014018051915290565b905073ffffffffffffffffffffffffffffffffffffffff861630146120315773ffffffffffffffffffffffffffffffffffffffff8616331461200f576040517f08c379a000000000000000000000000000000000000000000000000000000000815260206004820152602260248201527f73776170556e6956333a20756e65787065637465642066726f6d20616464726560448201527f737300000000000000000000000000000000000000000000000000000000000060648201526084016102e2565b61203173ffffffffffffffffffffffffffffffffffffffff8616333087612cda565b600280547fffffffffffffffffffffffff00000000000000000000000000000000000000001673ffffffffffffffffffffffffffffffffffffffff851690811790915563128acb08828487816120a5576120a0600173fffd8963efd1fc6a506488495d951d5263988d26613396565b6120b5565b6120b56401000276a360016133cb565b6040805173ffffffffffffffffffffffffffffffffffffffff8d166020820152016040516020818303038152906040526040518663ffffffff1660e01b8152600401612105959493929190613403565b60408051808303816000875af1158015612123573d6000803e3d6000fd5b505050506040513d601f19601f82011682018060405250810190612147919061344a565b505060025473ffffffffffffffffffffffffffffffffffffffff16600114611677576040517f08c379a0000000000000000000000000000000000000000000000000000000008152602060048201526024808201527f526f75746550726f636573736f722e73776170556e6956333a20756e6578706560448201527f637465640000000000000000000000000000000000000000000000000000000060648201526084016102e2565b60006122028580516001018051915290565b905060006122168680516014018051915290565b9050600180831614156122e55760006122358780516014018051915290565b9050600283166122a1578073ffffffffffffffffffffffffffffffffffffffff1663d0e30db0856040518263ffffffff1660e01b81526004016000604051808303818588803b15801561228757600080fd5b505af115801561229b573d6000803e3d6000fd5b50505050505b73ffffffffffffffffffffffffffffffffffffffff821630146122df576122df73ffffffffffffffffffffffffffffffffffffffff82168386611276565b50610b1b565b600282166123ad5773ffffffffffffffffffffffffffffffffffffffff8516301461232c5761232c73ffffffffffffffffffffffffffffffffffffffff8516863086612cda565b6040517f2e1a7d4d0000000000000000000000000000000000000000000000000000000081526004810184905273ffffffffffffffffffffffffffffffffffffffff851690632e1a7d4d90602401600060405180830381600087803b15801561239457600080fd5b505af11580156123a8573d6000803e3d6000fd5b505050505b60405173ffffffffffffffffffffffffffffffffffffffff8216904780156108fc02916000818181858888f19350505050158015611677573d6000803e3d6000fd5b60006124018580516001018051915290565b905060006124158680516014018051915290565b905060ff8216156127f85782156124cc5773ffffffffffffffffffffffffffffffffffffffff851630141561248a5761248573ffffffffffffffffffffffffffffffffffffffff85167f000000000000000000000000000000000000000000000000000000000000000085611276565b612722565b61248573ffffffffffffffffffffffffffffffffffffffff8516867f000000000000000000000000000000000000000000000000000000000000000086612cda565b6040517f4ffe34db00000000000000000000000000000000000000000000000000000000815273ffffffffffffffffffffffffffffffffffffffff85811660048301527f00000000000000000000000000000000000000000000000000000000000000001690634ffe34db906024016040805180830381865afa158015612557573d6000803e3d6000fd5b505050506040513d601f19601f8201168201806040525081019061257b919061348e565b516040517fdf23b45b00000000000000000000000000000000000000000000000000000000815273ffffffffffffffffffffffffffffffffffffffff86811660048301526fffffffffffffffffffffffffffffffff909216917f0000000000000000000000000000000000000000000000000000000000000000169063df23b45b90602401606060405180830381865afa15801561261d573d6000803e3d6000fd5b505050506040513d601f19601f820116820180604052508101906126419190613501565b60409081015190517f70a0823100000000000000000000000000000000000000000000000000000000815273ffffffffffffffffffffffffffffffffffffffff7f0000000000000000000000000000000000000000000000000000000000000000811660048301526fffffffffffffffffffffffffffffffff909216918716906370a0823190602401602060405180830381865afa1580156126e7573d6000803e3d6000fd5b505050506040513d601f19601f8201168201806040525081019061270b91906131d2565b612715919061321a565b61271f9190613232565b92505b6040517f02b9446c00000000000000000000000000000000000000000000000000000000815273ffffffffffffffffffffffffffffffffffffffff85811660048301527f000000000000000000000000000000000000000000000000000000000000000081166024830181905290831660448301526064820185905260006084830152906302b9446c9060a40160408051808303816000875af11580156127cd573d6000803e3d6000fd5b505050506040513d601f19601f820116820180604052508101906127f1919061344a565b5050610b1b565b82156128b9576040517ff18d03cc00000000000000000000000000000000000000000000000000000000815273ffffffffffffffffffffffffffffffffffffffff85811660048301528681166024830152306044830152606482018590527f0000000000000000000000000000000000000000000000000000000000000000169063f18d03cc90608401600060405180830381600087803b15801561289c57600080fd5b505af11580156128b0573d6000803e3d6000fd5b50505050612972565b6040517ff7888aec00000000000000000000000000000000000000000000000000000000815273ffffffffffffffffffffffffffffffffffffffff85811660048301523060248301527f0000000000000000000000000000000000000000000000000000000000000000169063f7888aec90604401602060405180830381865afa15801561294b573d6000803e3d6000fd5b505050506040513d601f19601f8201168201806040525081019061296f91906131d2565b92505b6040517f97da6d3000000000000000000000000000000000000000000000000000000000815273ffffffffffffffffffffffffffffffffffffffff8581166004830152306024830152828116604483015260006064830152608482018590527f000000000000000000000000000000000000000000000000000000000000000016906397da6d309060a40160408051808303816000875af1158015612a1b573d6000803e3d6000fd5b505050506040513d601f19601f82011682018060405250810190612a3f919061344a565b5050505050505050565b6000612a5b8580516014018051915290565b8551602080820180519092010187529091508215612b2c576040517ff18d03cc00000000000000000000000000000000000000000000000000000000815273ffffffffffffffffffffffffffffffffffffffff858116600483015286811660248301528381166044830152606482018590527f0000000000000000000000000000000000000000000000000000000000000000169063f18d03cc90608401600060405180830381600087803b158015612b1357600080fd5b505af1158015612b27573d6000803e3d6000fd5b505050505b6040517f627dd56a00000000000000000000000000000000000000000000000000000000815273ffffffffffffffffffffffffffffffffffffffff83169063627dd56a90612b7e9084906004016131bf565b6020604051808303816000875af1158015612b9d573d6000803e3d6000fd5b505050506040513d601f19601f8201168201806040525081019061167791906131d2565b606082471015612c53576040517f08c379a000000000000000000000000000000000000000000000000000000000815260206004820152602660248201527f416464726573733a20696e73756666696369656e742062616c616e636520666f60448201527f722063616c6c000000000000000000000000000000000000000000000000000060648201526084016102e2565b6000808673ffffffffffffffffffffffffffffffffffffffff168587604051612c7c9190613159565b60006040518083038185875af1925050503d8060008114612cb9576040519150601f19603f3d011682016040523d82523d6000602084013e612cbe565b606091505b5091509150612ccf87838387612d3e565b979650505050505050565b60405173ffffffffffffffffffffffffffffffffffffffff80851660248301528316604482015260648101829052612d389085907f23b872dd00000000000000000000000000000000000000000000000000000000906084016112c8565b50505050565b60608315612dd1578251612dca5773ffffffffffffffffffffffffffffffffffffffff85163b612dca576040517f08c379a000000000000000000000000000000000000000000000000000000000815260206004820152601d60248201527f416464726573733a2063616c6c20746f206e6f6e2d636f6e747261637400000060448201526064016102e2565b5081611b8b565b611b8b8383815115612de65781518083602001fd5b806040517f08c379a00000000000000000000000000000000000000000000000000000000081526004016102e291906131bf565b73ffffffffffffffffffffffffffffffffffffffff8116811461097257600080fd5b7f4e487b7100000000000000000000000000000000000000000000000000000000600052604160045260246000fd5b600082601f830112612e7c57600080fd5b813567ffffffffffffffff80821115612e9757612e97612e3c565b604051601f83017fffffffffffffffffffffffffffffffffffffffffffffffffffffffffffffffe0908116603f01168101908282118183101715612edd57612edd612e3c565b81604052838152866020858801011115612ef657600080fd5b836020870160208301376000602085830101528094505050505092915050565b60008060008060008060c08789031215612f2f57600080fd5b8635612f3a81612e1a565b9550602087013594506040870135612f5181612e1a565b9350606087013592506080870135612f6881612e1a565b915060a087013567ffffffffffffffff811115612f8457600080fd5b612f9089828a01612e6b565b9150509295509295509295565b600080600080600080600080610100898b031215612fba57600080fd5b8835612fc581612e1a565b9750602089013596506040890135612fdc81612e1a565b9550606089013594506080890135612ff381612e1a565b935060a0890135925060c089013561300a81612e1a565b915060e089013567ffffffffffffffff81111561302657600080fd5b6130328b828c01612e6b565b9150509295985092959890939650565b801515811461097257600080fd5b6000806040838503121561306357600080fd5b823561306e81612e1a565b9150602083013561307e81613042565b809150509250929050565b60006020828403121561309b57600080fd5b81356130a681612e1a565b9392505050565b600080600080606085870312156130c357600080fd5b8435935060208501359250604085013567ffffffffffffffff808211156130e957600080fd5b818701915087601f8301126130fd57600080fd5b81358181111561310c57600080fd5b88602082850101111561311e57600080fd5b95989497505060200194505050565b60005b83811015613148578181015183820152602001613130565b83811115612d385750506000910152565b6000825161316b81846020870161312d565b9190910192915050565b6000815180845261318d81602086016020860161312d565b601f017fffffffffffffffffffffffffffffffffffffffffffffffffffffffffffffffe0169290920160200192915050565b6020815260006130a66020830184613175565b6000602082840312156131e457600080fd5b5051919050565b7f4e487b7100000000000000000000000000000000000000000000000000000000600052601160045260246000fd5b6000821982111561322d5761322d6131eb565b500190565b600082821015613244576132446131eb565b500390565b60006020828403121561325b57600080fd5b81516130a681613042565b80516dffffffffffffffffffffffffffff8116811461328457600080fd5b919050565b60008060006060848603121561329e57600080fd5b6132a784613266565b92506132b560208501613266565b9150604084015163ffffffff811681146132ce57600080fd5b809150509250925092565b6000817fffffffffffffffffffffffffffffffffffffffffffffffffffffffffffffffff0483118215151615613311576133116131eb565b500290565b60008261334c577f4e487b7100000000000000000000000000000000000000000000000000000000600052601260045260246000fd5b500490565b84815283602082015273ffffffffffffffffffffffffffffffffffffffff8316604082015260806060820152600061338c6080830184613175565b9695505050505050565b600073ffffffffffffffffffffffffffffffffffffffff838116908316818110156133c3576133c36131eb565b039392505050565b600073ffffffffffffffffffffffffffffffffffffffff8083168185168083038211156133fa576133fa6131eb565b01949350505050565b600073ffffffffffffffffffffffffffffffffffffffff8088168352861515602084015285604084015280851660608401525060a06080830152612ccf60a0830184613175565b6000806040838503121561345d57600080fd5b505080516020909101519092909150565b80516fffffffffffffffffffffffffffffffff8116811461328457600080fd5b6000604082840312156134a057600080fd5b6040516040810181811067ffffffffffffffff821117156134c3576134c3612e3c565b6040526134cf8361346e565b81526134dd6020840161346e565b60208201529392505050565b805167ffffffffffffffff8116811461328457600080fd5b60006060828403121561351357600080fd5b6040516060810181811067ffffffffffffffff8211171561353657613536612e3c565b604052613542836134e9565b8152613550602084016134e9565b60208201526135616040840161346e565b6040820152939250505056fea2646970667358221220354456a1d8bdd3dd96dec0afd1602b5fde91f00da7bb5f2ccf8af687b214144e64736f6c634300080a0033","opcodes":"PUSH1 0xA0 PUSH1 0x40 MSTORE PUSH1 0x2 DUP1 SLOAD PUSH2 0xFFFF PUSH1 0xA0 SHL NOT AND PUSH2 0x101 PUSH1 0xA0 SHL OR SWAP1 SSTORE CALLVALUE DUP1 ISZERO PUSH3 0x26 JUMPI PUSH1 0x0 DUP1 REVERT JUMPDEST POP PUSH1 0x40 MLOAD PUSH3 0x38A3 CODESIZE SUB DUP1 PUSH3 0x38A3 DUP4 CODECOPY DUP2 ADD PUSH1 0x40 DUP2 SWAP1 MSTORE PUSH3 0x49 SWAP2 PUSH3 0x16E JUMP JUMPDEST PUSH3 0x54 CALLER PUSH3 0xEB JUMP JUMPDEST PUSH1 0x1 PUSH1 0x1 PUSH1 0xA0 SHL SUB DUP3 AND PUSH1 0x80 MSTORE PUSH1 0x2 DUP1 SLOAD PUSH1 0x1 PUSH1 0x1 PUSH1 0xA0 SHL SUB NOT AND PUSH1 0x1 OR SWAP1 SSTORE PUSH1 0x0 JUMPDEST DUP2 MLOAD DUP2 LT ISZERO PUSH3 0xE2 JUMPI PUSH1 0x1 DUP1 PUSH1 0x0 DUP5 DUP5 DUP2 MLOAD DUP2 LT PUSH3 0x9B JUMPI PUSH3 0x9B PUSH3 0x257 JUMP JUMPDEST PUSH1 0x20 SWAP1 DUP2 MUL SWAP2 SWAP1 SWAP2 ADD DUP2 ADD MLOAD PUSH1 0x1 PUSH1 0x1 PUSH1 0xA0 SHL SUB AND DUP3 MSTORE DUP2 ADD SWAP2 SWAP1 SWAP2 MSTORE PUSH1 0x40 ADD PUSH1 0x0 KECCAK256 DUP1 SLOAD PUSH1 0xFF NOT AND SWAP2 ISZERO ISZERO SWAP2 SWAP1 SWAP2 OR SWAP1 SSTORE DUP1 PUSH3 0xD9 DUP2 PUSH3 0x26D JUMP JUMPDEST SWAP2 POP POP PUSH3 0x77 JUMP JUMPDEST POP POP POP PUSH3 0x297 JUMP JUMPDEST PUSH1 0x0 DUP1 SLOAD PUSH1 0x1 PUSH1 0x1 PUSH1 0xA0 SHL SUB DUP4 DUP2 AND PUSH1 0x1 PUSH1 0x1 PUSH1 0xA0 SHL SUB NOT DUP4 AND DUP2 OR DUP5 SSTORE PUSH1 0x40 MLOAD SWAP2 SWAP1 SWAP3 AND SWAP3 DUP4 SWAP2 PUSH32 0x8BE0079C531659141344CD1FD0A4F28419497F9722A3DAAFE3B4186F6B6457E0 SWAP2 SWAP1 LOG3 POP POP JUMP JUMPDEST DUP1 MLOAD PUSH1 0x1 PUSH1 0x1 PUSH1 0xA0 SHL SUB DUP2 AND DUP2 EQ PUSH3 0x153 JUMPI PUSH1 0x0 DUP1 REVERT JUMPDEST SWAP2 SWAP1 POP JUMP JUMPDEST PUSH4 0x4E487B71 PUSH1 0xE0 SHL PUSH1 0x0 MSTORE PUSH1 0x41 PUSH1 0x4 MSTORE PUSH1 0x24 PUSH1 0x0 REVERT JUMPDEST PUSH1 0x0 DUP1 PUSH1 0x40 DUP4 DUP6 SUB SLT ISZERO PUSH3 0x182 JUMPI PUSH1 0x0 DUP1 REVERT JUMPDEST PUSH3 0x18D DUP4 PUSH3 0x13B JUMP JUMPDEST PUSH1 0x20 DUP5 DUP2 ADD MLOAD SWAP2 SWAP4 POP SWAP1 PUSH1 0x1 PUSH1 0x1 PUSH1 0x40 SHL SUB DUP1 DUP3 GT ISZERO PUSH3 0x1AD JUMPI PUSH1 0x0 DUP1 REVERT JUMPDEST DUP2 DUP7 ADD SWAP2 POP DUP7 PUSH1 0x1F DUP4 ADD SLT PUSH3 0x1C2 JUMPI PUSH1 0x0 DUP1 REVERT JUMPDEST DUP2 MLOAD DUP2 DUP2 GT ISZERO PUSH3 0x1D7 JUMPI PUSH3 0x1D7 PUSH3 0x158 JUMP JUMPDEST DUP1 PUSH1 0x5 SHL PUSH1 0x40 MLOAD PUSH1 0x1F NOT PUSH1 0x3F DUP4 ADD AND DUP2 ADD DUP2 DUP2 LT DUP6 DUP3 GT OR ISZERO PUSH3 0x1FF JUMPI PUSH3 0x1FF PUSH3 0x158 JUMP JUMPDEST PUSH1 0x40 MSTORE SWAP2 DUP3 MSTORE DUP5 DUP3 ADD SWAP3 POP DUP4 DUP2 ADD DUP6 ADD SWAP2 DUP10 DUP4 GT ISZERO PUSH3 0x21E JUMPI PUSH1 0x0 DUP1 REVERT JUMPDEST SWAP4 DUP6 ADD SWAP4 JUMPDEST DUP3 DUP6 LT ISZERO PUSH3 0x247 JUMPI PUSH3 0x237 DUP6 PUSH3 0x13B JUMP JUMPDEST DUP5 MSTORE SWAP4 DUP6 ADD SWAP4 SWAP3 DUP6 ADD SWAP3 PUSH3 0x223 JUMP JUMPDEST DUP1 SWAP7 POP POP POP POP POP POP POP SWAP3 POP SWAP3 SWAP1 POP JUMP JUMPDEST PUSH4 0x4E487B71 PUSH1 0xE0 SHL PUSH1 0x0 MSTORE PUSH1 0x32 PUSH1 0x4 MSTORE PUSH1 0x24 PUSH1 0x0 REVERT JUMPDEST PUSH1 0x0 PUSH1 0x0 NOT DUP3 EQ ISZERO PUSH3 0x290 JUMPI PUSH4 0x4E487B71 PUSH1 0xE0 SHL PUSH1 0x0 MSTORE PUSH1 0x11 PUSH1 0x4 MSTORE PUSH1 0x24 PUSH1 0x0 REVERT JUMPDEST POP PUSH1 0x1 ADD SWAP1 JUMP JUMPDEST PUSH1 0x80 MLOAD PUSH2 0x35A3 PUSH3 0x300 PUSH1 0x0 CODECOPY PUSH1 0x0 DUP2 DUP2 PUSH2 0x110 ADD MSTORE DUP2 DUP2 PUSH2 0x1509 ADD MSTORE DUP2 DUP2 PUSH2 0x2460 ADD MSTORE DUP2 DUP2 PUSH2 0x24A7 ADD MSTORE DUP2 DUP2 PUSH2 0x2511 ADD MSTORE DUP2 DUP2 PUSH2 0x25D6 ADD MSTORE DUP2 DUP2 PUSH2 0x2683 ADD MSTORE DUP2 DUP2 PUSH2 0x2767 ADD MSTORE DUP2 DUP2 PUSH2 0x2858 ADD MSTORE DUP2 DUP2 PUSH2 0x2904 ADD MSTORE DUP2 DUP2 PUSH2 0x29D3 ADD MSTORE PUSH2 0x2ACF ADD MSTORE PUSH2 0x35A3 PUSH1 0x0 RETURN INVALID PUSH1 0x80 PUSH1 0x40 MSTORE PUSH1 0x4 CALLDATASIZE LT PUSH2 0xB5 JUMPI PUSH1 0x0 CALLDATALOAD PUSH1 0xE0 SHR DUP1 PUSH4 0x8DA5CB5B GT PUSH2 0x69 JUMPI DUP1 PUSH4 0x9A1F3406 GT PUSH2 0x4E JUMPI DUP1 PUSH4 0x9A1F3406 EQ PUSH2 0x1BF JUMPI DUP1 PUSH4 0xF2FDE38B EQ PUSH2 0x1DF JUMPI DUP1 PUSH4 0xFA461E33 EQ PUSH2 0x1FF JUMPI PUSH1 0x0 DUP1 REVERT JUMPDEST DUP1 PUSH4 0x8DA5CB5B EQ PUSH2 0x181 JUMPI DUP1 PUSH4 0x93B3774C EQ PUSH2 0x1AC JUMPI PUSH1 0x0 DUP1 REVERT JUMPDEST DUP1 PUSH4 0x6B2ACE87 GT PUSH2 0x9A JUMPI DUP1 PUSH4 0x6B2ACE87 EQ PUSH2 0xFE JUMPI DUP1 PUSH4 0x715018A6 EQ PUSH2 0x157 JUMPI DUP1 PUSH4 0x8456CB59 EQ PUSH2 0x16C JUMPI PUSH1 0x0 DUP1 REVERT JUMPDEST DUP1 PUSH4 0x46F7DA2 EQ PUSH2 0xC1 JUMPI DUP1 PUSH4 0x2646478B EQ PUSH2 0xD8 JUMPI PUSH1 0x0 DUP1 REVERT JUMPDEST CALLDATASIZE PUSH2 0xBC JUMPI STOP JUMPDEST PUSH1 0x0 DUP1 REVERT JUMPDEST CALLVALUE DUP1 ISZERO PUSH2 0xCD JUMPI PUSH1 0x0 DUP1 REVERT JUMPDEST POP PUSH2 0xD6 PUSH2 0x21F JUMP JUMPDEST STOP JUMPDEST PUSH2 0xEB PUSH2 0xE6 CALLDATASIZE PUSH1 0x4 PUSH2 0x2F16 JUMP JUMPDEST PUSH2 0x32D JUMP JUMPDEST PUSH1 0x40 MLOAD SWAP1 DUP2 MSTORE PUSH1 0x20 ADD JUMPDEST PUSH1 0x40 MLOAD DUP1 SWAP2 SUB SWAP1 RETURN JUMPDEST CALLVALUE DUP1 ISZERO PUSH2 0x10A JUMPI PUSH1 0x0 DUP1 REVERT JUMPDEST POP PUSH2 0x132 PUSH32 0x0 DUP2 JUMP JUMPDEST PUSH1 0x40 MLOAD PUSH20 0xFFFFFFFFFFFFFFFFFFFFFFFFFFFFFFFFFFFFFFFF SWAP1 SWAP2 AND DUP2 MSTORE PUSH1 0x20 ADD PUSH2 0xF5 JUMP JUMPDEST CALLVALUE DUP1 ISZERO PUSH2 0x163 JUMPI PUSH1 0x0 DUP1 REVERT JUMPDEST POP PUSH2 0xD6 PUSH2 0x4D7 JUMP JUMPDEST CALLVALUE DUP1 ISZERO PUSH2 0x178 JUMPI PUSH1 0x0 DUP1 REVERT JUMPDEST POP PUSH2 0xD6 PUSH2 0x4EB JUMP JUMPDEST CALLVALUE DUP1 ISZERO PUSH2 0x18D JUMPI PUSH1 0x0 DUP1 REVERT JUMPDEST POP PUSH1 0x0 SLOAD PUSH20 0xFFFFFFFFFFFFFFFFFFFFFFFFFFFFFFFFFFFFFFFF AND PUSH2 0x132 JUMP JUMPDEST PUSH2 0xEB PUSH2 0x1BA CALLDATASIZE PUSH1 0x4 PUSH2 0x2F9D JUMP JUMPDEST PUSH2 0x5F4 JUMP JUMPDEST CALLVALUE DUP1 ISZERO PUSH2 0x1CB JUMPI PUSH1 0x0 DUP1 REVERT JUMPDEST POP PUSH2 0xD6 PUSH2 0x1DA CALLDATASIZE PUSH1 0x4 PUSH2 0x3050 JUMP JUMPDEST PUSH2 0x860 JUMP JUMPDEST CALLVALUE DUP1 ISZERO PUSH2 0x1EB JUMPI PUSH1 0x0 DUP1 REVERT JUMPDEST POP PUSH2 0xD6 PUSH2 0x1FA CALLDATASIZE PUSH1 0x4 PUSH2 0x3089 JUMP JUMPDEST PUSH2 0x8BE JUMP JUMPDEST CALLVALUE DUP1 ISZERO PUSH2 0x20B JUMPI PUSH1 0x0 DUP1 REVERT JUMPDEST POP PUSH2 0xD6 PUSH2 0x21A CALLDATASIZE PUSH1 0x4 PUSH2 0x30AD JUMP JUMPDEST PUSH2 0x975 JUMP JUMPDEST PUSH1 0x0 SLOAD PUSH20 0xFFFFFFFFFFFFFFFFFFFFFFFFFFFFFFFFFFFFFFFF AND CALLER EQ DUP1 PUSH2 0x25A JUMPI POP CALLER PUSH1 0x0 SWAP1 DUP2 MSTORE PUSH1 0x1 PUSH1 0x20 DUP2 SWAP1 MSTORE PUSH1 0x40 SWAP1 SWAP2 KECCAK256 SLOAD PUSH1 0xFF AND ISZERO ISZERO EQ JUMPDEST PUSH2 0x2EB JUMPI PUSH1 0x40 MLOAD PUSH32 0x8C379A000000000000000000000000000000000000000000000000000000000 DUP2 MSTORE PUSH1 0x20 PUSH1 0x4 DUP3 ADD MSTORE PUSH1 0x31 PUSH1 0x24 DUP3 ADD MSTORE PUSH32 0x52503A2063616C6C6572206973206E6F7420746865206F776E6572206F722061 PUSH1 0x44 DUP3 ADD MSTORE PUSH32 0x2070726976696C65646765642075736572000000000000000000000000000000 PUSH1 0x64 DUP3 ADD MSTORE PUSH1 0x84 ADD JUMPDEST PUSH1 0x40 MLOAD DUP1 SWAP2 SUB SWAP1 REVERT JUMPDEST PUSH1 0x2 DUP1 SLOAD PUSH32 0xFFFFFFFFFFFFFFFFFFFF00FFFFFFFFFFFFFFFFFFFFFFFFFFFFFFFFFFFFFFFFFF AND PUSH22 0x1000000000000000000000000000000000000000000 OR SWAP1 SSTORE JUMP JUMPDEST PUSH1 0x2 SLOAD PUSH1 0x0 SWAP1 PUSH21 0x10000000000000000000000000000000000000000 SWAP1 DIV PUSH1 0xFF AND PUSH1 0x1 EQ PUSH2 0x3B7 JUMPI PUSH1 0x40 MLOAD PUSH32 0x8C379A000000000000000000000000000000000000000000000000000000000 DUP2 MSTORE PUSH1 0x20 PUSH1 0x4 DUP3 ADD MSTORE PUSH1 0x18 PUSH1 0x24 DUP3 ADD MSTORE PUSH32 0x526F75746550726F636573736F72206973206C6F636B65640000000000000000 PUSH1 0x44 DUP3 ADD MSTORE PUSH1 0x64 ADD PUSH2 0x2E2 JUMP JUMPDEST PUSH1 0x2 SLOAD PUSH22 0x1000000000000000000000000000000000000000000 SWAP1 DIV PUSH1 0xFF AND PUSH1 0x1 EQ PUSH2 0x43F JUMPI PUSH1 0x40 MLOAD PUSH32 0x8C379A000000000000000000000000000000000000000000000000000000000 DUP2 MSTORE PUSH1 0x20 PUSH1 0x4 DUP3 ADD MSTORE PUSH1 0x18 PUSH1 0x24 DUP3 ADD MSTORE PUSH32 0x526F75746550726F636573736F72206973207061757365640000000000000000 PUSH1 0x44 DUP3 ADD MSTORE PUSH1 0x64 ADD PUSH2 0x2E2 JUMP JUMPDEST PUSH1 0x2 DUP1 SLOAD PUSH32 0xFFFFFFFFFFFFFFFFFFFFFF00FFFFFFFFFFFFFFFFFFFFFFFFFFFFFFFFFFFFFFFF AND PUSH21 0x20000000000000000000000000000000000000000 OR SWAP1 SSTORE PUSH2 0x48C DUP8 DUP8 DUP8 DUP8 DUP8 DUP8 PUSH2 0xB23 JUMP JUMPDEST SWAP1 POP PUSH1 0x2 DUP1 SLOAD PUSH32 0xFFFFFFFFFFFFFFFFFFFFFF00FFFFFFFFFFFFFFFFFFFFFFFFFFFFFFFFFFFFFFFF AND PUSH21 0x10000000000000000000000000000000000000000 OR SWAP1 SSTORE SWAP7 SWAP6 POP POP POP POP POP POP JUMP JUMPDEST PUSH2 0x4DF PUSH2 0x1180 JUMP JUMPDEST PUSH2 0x4E9 PUSH1 0x0 PUSH2 0x1201 JUMP JUMPDEST JUMP JUMPDEST PUSH1 0x0 SLOAD PUSH20 0xFFFFFFFFFFFFFFFFFFFFFFFFFFFFFFFFFFFFFFFF AND CALLER EQ DUP1 PUSH2 0x526 JUMPI POP CALLER PUSH1 0x0 SWAP1 DUP2 MSTORE PUSH1 0x1 PUSH1 0x20 DUP2 SWAP1 MSTORE PUSH1 0x40 SWAP1 SWAP2 KECCAK256 SLOAD PUSH1 0xFF AND ISZERO ISZERO EQ JUMPDEST PUSH2 0x5B2 JUMPI PUSH1 0x40 MLOAD PUSH32 0x8C379A000000000000000000000000000000000000000000000000000000000 DUP2 MSTORE PUSH1 0x20 PUSH1 0x4 DUP3 ADD MSTORE PUSH1 0x31 PUSH1 0x24 DUP3 ADD MSTORE PUSH32 0x52503A2063616C6C6572206973206E6F7420746865206F776E6572206F722061 PUSH1 0x44 DUP3 ADD MSTORE PUSH32 0x2070726976696C65646765642075736572000000000000000000000000000000 PUSH1 0x64 DUP3 ADD MSTORE PUSH1 0x84 ADD PUSH2 0x2E2 JUMP JUMPDEST PUSH1 0x2 DUP1 SLOAD PUSH32 0xFFFFFFFFFFFFFFFFFFFF00FFFFFFFFFFFFFFFFFFFFFFFFFFFFFFFFFFFFFFFFFF AND PUSH22 0x2000000000000000000000000000000000000000000 OR SWAP1 SSTORE JUMP JUMPDEST PUSH1 0x2 SLOAD PUSH1 0x0 SWAP1 PUSH21 0x10000000000000000000000000000000000000000 SWAP1 DIV PUSH1 0xFF AND PUSH1 0x1 EQ PUSH2 0x67E JUMPI PUSH1 0x40 MLOAD PUSH32 0x8C379A000000000000000000000000000000000000000000000000000000000 DUP2 MSTORE PUSH1 0x20 PUSH1 0x4 DUP3 ADD MSTORE PUSH1 0x18 PUSH1 0x24 DUP3 ADD MSTORE PUSH32 0x526F75746550726F636573736F72206973206C6F636B65640000000000000000 PUSH1 0x44 DUP3 ADD MSTORE PUSH1 0x64 ADD PUSH2 0x2E2 JUMP JUMPDEST PUSH1 0x2 SLOAD PUSH22 0x1000000000000000000000000000000000000000000 SWAP1 DIV PUSH1 0xFF AND PUSH1 0x1 EQ PUSH2 0x706 JUMPI PUSH1 0x40 MLOAD PUSH32 0x8C379A000000000000000000000000000000000000000000000000000000000 DUP2 MSTORE PUSH1 0x20 PUSH1 0x4 DUP3 ADD MSTORE PUSH1 0x18 PUSH1 0x24 DUP3 ADD MSTORE PUSH32 0x526F75746550726F636573736F72206973207061757365640000000000000000 PUSH1 0x44 DUP3 ADD MSTORE PUSH1 0x64 ADD PUSH2 0x2E2 JUMP JUMPDEST PUSH1 0x2 DUP1 SLOAD PUSH32 0xFFFFFFFFFFFFFFFFFFFFFF00FFFFFFFFFFFFFFFFFFFFFFFFFFFFFFFFFFFFFFFF AND PUSH21 0x20000000000000000000000000000000000000000 OR SWAP1 SSTORE PUSH1 0x40 MLOAD PUSH1 0x0 SWAP1 DUP2 SWAP1 PUSH20 0xFFFFFFFFFFFFFFFFFFFFFFFFFFFFFFFFFFFFFFFF DUP13 AND SWAP1 DUP12 SWAP1 DUP4 DUP2 DUP2 DUP2 DUP6 DUP8 GAS CALL SWAP3 POP POP POP RETURNDATASIZE DUP1 PUSH1 0x0 DUP2 EQ PUSH2 0x79F JUMPI PUSH1 0x40 MLOAD SWAP2 POP PUSH1 0x1F NOT PUSH1 0x3F RETURNDATASIZE ADD AND DUP3 ADD PUSH1 0x40 MSTORE RETURNDATASIZE DUP3 MSTORE RETURNDATASIZE PUSH1 0x0 PUSH1 0x20 DUP5 ADD RETURNDATACOPY PUSH2 0x7A4 JUMP JUMPDEST PUSH1 0x60 SWAP2 POP JUMPDEST POP SWAP2 POP SWAP2 POP DUP2 DUP2 PUSH1 0x40 MLOAD PUSH1 0x20 ADD PUSH2 0x7BB SWAP2 SWAP1 PUSH2 0x3159 JUMP JUMPDEST PUSH1 0x40 MLOAD PUSH1 0x20 DUP2 DUP4 SUB SUB DUP2 MSTORE SWAP1 PUSH1 0x40 MSTORE SWAP1 PUSH2 0x802 JUMPI PUSH1 0x40 MLOAD PUSH32 0x8C379A000000000000000000000000000000000000000000000000000000000 DUP2 MSTORE PUSH1 0x4 ADD PUSH2 0x2E2 SWAP2 SWAP1 PUSH2 0x31BF JUMP JUMPDEST POP PUSH2 0x811 DUP10 DUP10 DUP10 DUP10 DUP10 DUP10 PUSH2 0xB23 JUMP JUMPDEST SWAP3 POP POP POP PUSH1 0x2 DUP1 SLOAD PUSH32 0xFFFFFFFFFFFFFFFFFFFFFF00FFFFFFFFFFFFFFFFFFFFFFFFFFFFFFFFFFFFFFFF AND PUSH21 0x10000000000000000000000000000000000000000 OR SWAP1 SSTORE SWAP9 SWAP8 POP POP POP POP POP POP POP POP JUMP JUMPDEST PUSH2 0x868 PUSH2 0x1180 JUMP JUMPDEST PUSH20 0xFFFFFFFFFFFFFFFFFFFFFFFFFFFFFFFFFFFFFFFF SWAP2 SWAP1 SWAP2 AND PUSH1 0x0 SWAP1 DUP2 MSTORE PUSH1 0x1 PUSH1 0x20 MSTORE PUSH1 0x40 SWAP1 KECCAK256 DUP1 SLOAD PUSH32 0xFFFFFFFFFFFFFFFFFFFFFFFFFFFFFFFFFFFFFFFFFFFFFFFFFFFFFFFFFFFFFF00 AND SWAP2 ISZERO ISZERO SWAP2 SWAP1 SWAP2 OR SWAP1 SSTORE JUMP JUMPDEST PUSH2 0x8C6 PUSH2 0x1180 JUMP JUMPDEST PUSH20 0xFFFFFFFFFFFFFFFFFFFFFFFFFFFFFFFFFFFFFFFF DUP2 AND PUSH2 0x969 JUMPI PUSH1 0x40 MLOAD PUSH32 0x8C379A000000000000000000000000000000000000000000000000000000000 DUP2 MSTORE PUSH1 0x20 PUSH1 0x4 DUP3 ADD MSTORE PUSH1 0x26 PUSH1 0x24 DUP3 ADD MSTORE PUSH32 0x4F776E61626C653A206E6577206F776E657220697320746865207A65726F2061 PUSH1 0x44 DUP3 ADD MSTORE PUSH32 0x6464726573730000000000000000000000000000000000000000000000000000 PUSH1 0x64 DUP3 ADD MSTORE PUSH1 0x84 ADD PUSH2 0x2E2 JUMP JUMPDEST PUSH2 0x972 DUP2 PUSH2 0x1201 JUMP JUMPDEST POP JUMP JUMPDEST PUSH1 0x2 SLOAD PUSH20 0xFFFFFFFFFFFFFFFFFFFFFFFFFFFFFFFFFFFFFFFF AND CALLER EQ PUSH2 0xA1C JUMPI PUSH1 0x40 MLOAD PUSH32 0x8C379A000000000000000000000000000000000000000000000000000000000 DUP2 MSTORE PUSH1 0x20 PUSH1 0x4 DUP3 ADD MSTORE PUSH1 0x3E PUSH1 0x24 DUP3 ADD MSTORE PUSH32 0x526F75746550726F636573736F722E756E697377617056335377617043616C6C PUSH1 0x44 DUP3 ADD MSTORE PUSH32 0x6261636B3A2063616C6C2066726F6D20756E6B6E6F776E20736F757263650000 PUSH1 0x64 DUP3 ADD MSTORE PUSH1 0x84 ADD PUSH2 0x2E2 JUMP JUMPDEST PUSH1 0x2 DUP1 SLOAD PUSH32 0xFFFFFFFFFFFFFFFFFFFFFFFF0000000000000000000000000000000000000000 AND PUSH1 0x1 OR SWAP1 SSTORE PUSH1 0x0 PUSH2 0xA55 DUP3 DUP5 ADD DUP5 PUSH2 0x3089 JUMP JUMPDEST SWAP1 POP PUSH1 0x0 DUP1 DUP7 SGT PUSH2 0xA66 JUMPI DUP5 PUSH2 0xA68 JUMP JUMPDEST DUP6 JUMPDEST SWAP1 POP PUSH1 0x0 DUP2 SGT PUSH2 0xAFA JUMPI PUSH1 0x40 MLOAD PUSH32 0x8C379A000000000000000000000000000000000000000000000000000000000 DUP2 MSTORE PUSH1 0x20 PUSH1 0x4 DUP3 ADD MSTORE PUSH1 0x39 PUSH1 0x24 DUP3 ADD MSTORE PUSH32 0x526F75746550726F636573736F722E756E697377617056335377617043616C6C PUSH1 0x44 DUP3 ADD MSTORE PUSH32 0x6261636B3A206E6F7420706F73697469766520616D6F756E7400000000000000 PUSH1 0x64 DUP3 ADD MSTORE PUSH1 0x84 ADD PUSH2 0x2E2 JUMP JUMPDEST PUSH2 0xB1B PUSH20 0xFFFFFFFFFFFFFFFFFFFFFFFFFFFFFFFFFFFFFFFF DUP4 AND CALLER DUP4 PUSH2 0x1276 JUMP JUMPDEST POP POP POP POP POP POP JUMP JUMPDEST PUSH1 0x0 DUP1 PUSH20 0xFFFFFFFFFFFFFFFFFFFFFFFFFFFFFFFFFFFFFFFF DUP9 AND PUSH20 0xEEEEEEEEEEEEEEEEEEEEEEEEEEEEEEEEEEEEEEEE EQ PUSH2 0xBEA JUMPI PUSH1 0x40 MLOAD PUSH32 0x70A0823100000000000000000000000000000000000000000000000000000000 DUP2 MSTORE CALLER PUSH1 0x4 DUP3 ADD MSTORE PUSH20 0xFFFFFFFFFFFFFFFFFFFFFFFFFFFFFFFFFFFFFFFF DUP10 AND SWAP1 PUSH4 0x70A08231 SWAP1 PUSH1 0x24 ADD PUSH1 0x20 PUSH1 0x40 MLOAD DUP1 DUP4 SUB DUP2 DUP7 GAS STATICCALL ISZERO DUP1 ISZERO PUSH2 0xBC1 JUMPI RETURNDATASIZE PUSH1 0x0 DUP1 RETURNDATACOPY RETURNDATASIZE PUSH1 0x0 REVERT JUMPDEST POP POP POP POP PUSH1 0x40 MLOAD RETURNDATASIZE PUSH1 0x1F NOT PUSH1 0x1F DUP3 ADD AND DUP3 ADD DUP1 PUSH1 0x40 MSTORE POP DUP2 ADD SWAP1 PUSH2 0xBE5 SWAP2 SWAP1 PUSH2 0x31D2 JUMP JUMPDEST PUSH2 0xBEC JUMP JUMPDEST SELFBALANCE JUMPDEST SWAP1 POP PUSH1 0x0 PUSH20 0xFFFFFFFFFFFFFFFFFFFFFFFFFFFFFFFFFFFFFFFF DUP8 AND PUSH20 0xEEEEEEEEEEEEEEEEEEEEEEEEEEEEEEEEEEEEEEEE EQ PUSH2 0xCB6 JUMPI PUSH1 0x40 MLOAD PUSH32 0x70A0823100000000000000000000000000000000000000000000000000000000 DUP2 MSTORE PUSH20 0xFFFFFFFFFFFFFFFFFFFFFFFFFFFFFFFFFFFFFFFF DUP7 DUP2 AND PUSH1 0x4 DUP4 ADD MSTORE DUP9 AND SWAP1 PUSH4 0x70A08231 SWAP1 PUSH1 0x24 ADD PUSH1 0x20 PUSH1 0x40 MLOAD DUP1 DUP4 SUB DUP2 DUP7 GAS STATICCALL ISZERO DUP1 ISZERO PUSH2 0xC8D JUMPI RETURNDATASIZE PUSH1 0x0 DUP1 RETURNDATACOPY RETURNDATASIZE PUSH1 0x0 REVERT JUMPDEST POP POP POP POP PUSH1 0x40 MLOAD RETURNDATASIZE PUSH1 0x1F NOT PUSH1 0x1F DUP3 ADD AND DUP3 ADD DUP1 PUSH1 0x40 MSTORE POP DUP2 ADD SWAP1 PUSH2 0xCB1 SWAP2 SWAP1 PUSH2 0x31D2 JUMP JUMPDEST PUSH2 0xCCF JUMP JUMPDEST DUP5 PUSH20 0xFFFFFFFFFFFFFFFFFFFFFFFFFFFFFFFFFFFFFFFF AND BALANCE JUMPDEST PUSH1 0x40 DUP1 MLOAD DUP1 DUP3 ADD SWAP1 SWAP2 MSTORE DUP6 DUP2 MSTORE DUP6 MLOAD DUP7 ADD PUSH1 0x20 DUP3 ADD MSTORE SWAP1 SWAP2 POP JUMPDEST DUP1 MLOAD PUSH1 0x20 DUP3 ADD MLOAD GT ISZERO PUSH2 0xE1C JUMPI PUSH1 0x0 PUSH2 0xD08 DUP3 DUP1 MLOAD PUSH1 0x1 ADD DUP1 MLOAD SWAP2 MSTORE SWAP1 JUMP JUMPDEST SWAP1 POP DUP1 PUSH1 0xFF AND PUSH1 0x1 EQ ISZERO PUSH2 0xD24 JUMPI PUSH2 0xD1F DUP3 PUSH2 0x134F JUMP JUMPDEST PUSH2 0xE16 JUMP JUMPDEST DUP1 PUSH1 0xFF AND PUSH1 0x2 EQ ISZERO PUSH2 0xD3A JUMPI PUSH2 0xD1F DUP3 DUP12 PUSH2 0x142C JUMP JUMPDEST DUP1 PUSH1 0xFF AND PUSH1 0x3 EQ ISZERO PUSH2 0xD4F JUMPI PUSH2 0xD1F DUP3 PUSH2 0x144C JUMP JUMPDEST DUP1 PUSH1 0xFF AND PUSH1 0x4 EQ ISZERO PUSH2 0xD64 JUMPI PUSH2 0xD1F DUP3 PUSH2 0x1471 JUMP JUMPDEST DUP1 PUSH1 0xFF AND PUSH1 0x5 EQ ISZERO PUSH2 0xD79 JUMPI PUSH2 0xD1F DUP3 PUSH2 0x1492 JUMP JUMPDEST DUP1 PUSH1 0xFF AND PUSH1 0x6 EQ ISZERO PUSH2 0xD8F JUMPI PUSH2 0xD1F DUP12 DUP4 PUSH2 0x15ED JUMP JUMPDEST PUSH1 0x40 MLOAD PUSH32 0x8C379A000000000000000000000000000000000000000000000000000000000 DUP2 MSTORE PUSH1 0x20 PUSH1 0x4 DUP3 ADD MSTORE PUSH1 0x24 DUP1 DUP3 ADD MSTORE PUSH32 0x526F75746550726F636573736F723A20556E6B6E6F776E20636F6D6D616E6420 PUSH1 0x44 DUP3 ADD MSTORE PUSH32 0x636F646500000000000000000000000000000000000000000000000000000000 PUSH1 0x64 DUP3 ADD MSTORE PUSH1 0x84 ADD PUSH2 0x2E2 JUMP JUMPDEST POP PUSH2 0xCE9 JUMP JUMPDEST PUSH1 0x0 PUSH20 0xFFFFFFFFFFFFFFFFFFFFFFFFFFFFFFFFFFFFFFFF DUP12 AND PUSH20 0xEEEEEEEEEEEEEEEEEEEEEEEEEEEEEEEEEEEEEEEE EQ PUSH2 0xEE2 JUMPI PUSH1 0x40 MLOAD PUSH32 0x70A0823100000000000000000000000000000000000000000000000000000000 DUP2 MSTORE CALLER PUSH1 0x4 DUP3 ADD MSTORE PUSH20 0xFFFFFFFFFFFFFFFFFFFFFFFFFFFFFFFFFFFFFFFF DUP13 AND SWAP1 PUSH4 0x70A08231 SWAP1 PUSH1 0x24 ADD PUSH1 0x20 PUSH1 0x40 MLOAD DUP1 DUP4 SUB DUP2 DUP7 GAS STATICCALL ISZERO DUP1 ISZERO PUSH2 0xEB9 JUMPI RETURNDATASIZE PUSH1 0x0 DUP1 RETURNDATACOPY RETURNDATASIZE PUSH1 0x0 REVERT JUMPDEST POP POP POP POP PUSH1 0x40 MLOAD RETURNDATASIZE PUSH1 0x1F NOT PUSH1 0x1F DUP3 ADD AND DUP3 ADD DUP1 PUSH1 0x40 MSTORE POP DUP2 ADD SWAP1 PUSH2 0xEDD SWAP2 SWAP1 PUSH2 0x31D2 JUMP JUMPDEST PUSH2 0xEE4 JUMP JUMPDEST SELFBALANCE JUMPDEST SWAP1 POP DUP4 PUSH2 0xEF1 DUP12 DUP4 PUSH2 0x321A JUMP JUMPDEST LT ISZERO PUSH2 0xF7F JUMPI PUSH1 0x40 MLOAD PUSH32 0x8C379A000000000000000000000000000000000000000000000000000000000 DUP2 MSTORE PUSH1 0x20 PUSH1 0x4 DUP3 ADD MSTORE PUSH1 0x2F PUSH1 0x24 DUP3 ADD MSTORE PUSH32 0x526F75746550726F636573736F723A204D696E696D616C20696D707574206261 PUSH1 0x44 DUP3 ADD MSTORE PUSH32 0x6C616E63652076696F6C6174696F6E0000000000000000000000000000000000 PUSH1 0x64 DUP3 ADD MSTORE PUSH1 0x84 ADD PUSH2 0x2E2 JUMP JUMPDEST PUSH1 0x0 PUSH20 0xFFFFFFFFFFFFFFFFFFFFFFFFFFFFFFFFFFFFFFFF DUP11 AND PUSH20 0xEEEEEEEEEEEEEEEEEEEEEEEEEEEEEEEEEEEEEEEE EQ PUSH2 0x1047 JUMPI PUSH1 0x40 MLOAD PUSH32 0x70A0823100000000000000000000000000000000000000000000000000000000 DUP2 MSTORE PUSH20 0xFFFFFFFFFFFFFFFFFFFFFFFFFFFFFFFFFFFFFFFF DUP10 DUP2 AND PUSH1 0x4 DUP4 ADD MSTORE DUP12 AND SWAP1 PUSH4 0x70A08231 SWAP1 PUSH1 0x24 ADD PUSH1 0x20 PUSH1 0x40 MLOAD DUP1 DUP4 SUB DUP2 DUP7 GAS STATICCALL ISZERO DUP1 ISZERO PUSH2 0x101E JUMPI RETURNDATASIZE PUSH1 0x0 DUP1 RETURNDATACOPY RETURNDATASIZE PUSH1 0x0 REVERT JUMPDEST POP POP POP POP PUSH1 0x40 MLOAD RETURNDATASIZE PUSH1 0x1F NOT PUSH1 0x1F DUP3 ADD AND DUP3 ADD DUP1 PUSH1 0x40 MSTORE POP DUP2 ADD SWAP1 PUSH2 0x1042 SWAP2 SWAP1 PUSH2 0x31D2 JUMP JUMPDEST PUSH2 0x1060 JUMP JUMPDEST DUP8 PUSH20 0xFFFFFFFFFFFFFFFFFFFFFFFFFFFFFFFFFFFFFFFF AND BALANCE JUMPDEST SWAP1 POP PUSH2 0x106C DUP10 DUP6 PUSH2 0x321A JUMP JUMPDEST DUP2 LT ISZERO PUSH2 0x10FB JUMPI PUSH1 0x40 MLOAD PUSH32 0x8C379A000000000000000000000000000000000000000000000000000000000 DUP2 MSTORE PUSH1 0x20 PUSH1 0x4 DUP3 ADD MSTORE PUSH1 0x2F PUSH1 0x24 DUP3 ADD MSTORE PUSH32 0x526F75746550726F636573736F723A204D696E696D616C206F75707574206261 PUSH1 0x44 DUP3 ADD MSTORE PUSH32 0x6C616E63652076696F6C6174696F6E0000000000000000000000000000000000 PUSH1 0x64 DUP3 ADD MSTORE PUSH1 0x84 ADD PUSH2 0x2E2 JUMP JUMPDEST PUSH2 0x1105 DUP5 DUP3 PUSH2 0x3232 JUMP JUMPDEST PUSH1 0x40 DUP1 MLOAD PUSH20 0xFFFFFFFFFFFFFFFFFFFFFFFFFFFFFFFFFFFFFFFF DUP12 DUP2 AND DUP3 MSTORE PUSH1 0x20 DUP3 ADD DUP16 SWAP1 MSTORE SWAP2 DUP2 ADD DUP13 SWAP1 MSTORE PUSH1 0x60 DUP2 ADD DUP4 SWAP1 MSTORE SWAP2 SWAP8 POP DUP1 DUP13 AND SWAP2 SWAP1 DUP15 AND SWAP1 CALLER SWAP1 PUSH32 0x2DB5DDD0B42BDBCA0D69EA16F234A870A485854AE0D91F16643D6F317D8B8994 SWAP1 PUSH1 0x80 ADD PUSH1 0x40 MLOAD DUP1 SWAP2 SUB SWAP1 LOG4 POP POP POP POP POP SWAP7 SWAP6 POP POP POP POP POP POP JUMP JUMPDEST PUSH1 0x0 SLOAD PUSH20 0xFFFFFFFFFFFFFFFFFFFFFFFFFFFFFFFFFFFFFFFF AND CALLER EQ PUSH2 0x4E9 JUMPI PUSH1 0x40 MLOAD PUSH32 0x8C379A000000000000000000000000000000000000000000000000000000000 DUP2 MSTORE PUSH1 0x20 PUSH1 0x4 DUP3 ADD DUP2 SWAP1 MSTORE PUSH1 0x24 DUP3 ADD MSTORE PUSH32 0x4F776E61626C653A2063616C6C6572206973206E6F7420746865206F776E6572 PUSH1 0x44 DUP3 ADD MSTORE PUSH1 0x64 ADD PUSH2 0x2E2 JUMP JUMPDEST PUSH1 0x0 DUP1 SLOAD PUSH20 0xFFFFFFFFFFFFFFFFFFFFFFFFFFFFFFFFFFFFFFFF DUP4 DUP2 AND PUSH32 0xFFFFFFFFFFFFFFFFFFFFFFFF0000000000000000000000000000000000000000 DUP4 AND DUP2 OR DUP5 SSTORE PUSH1 0x40 MLOAD SWAP2 SWAP1 SWAP3 AND SWAP3 DUP4 SWAP2 PUSH32 0x8BE0079C531659141344CD1FD0A4F28419497F9722A3DAAFE3B4186F6B6457E0 SWAP2 SWAP1 LOG3 POP POP JUMP JUMPDEST PUSH1 0x40 MLOAD PUSH20 0xFFFFFFFFFFFFFFFFFFFFFFFFFFFFFFFFFFFFFFFF DUP4 AND PUSH1 0x24 DUP3 ADD MSTORE PUSH1 0x44 DUP2 ADD DUP3 SWAP1 MSTORE PUSH2 0x134A SWAP1 DUP5 SWAP1 PUSH32 0xA9059CBB00000000000000000000000000000000000000000000000000000000 SWAP1 PUSH1 0x64 ADD JUMPDEST PUSH1 0x40 DUP1 MLOAD PUSH32 0xFFFFFFFFFFFFFFFFFFFFFFFFFFFFFFFFFFFFFFFFFFFFFFFFFFFFFFFFFFFFFFE0 DUP2 DUP5 SUB ADD DUP2 MSTORE SWAP2 SWAP1 MSTORE PUSH1 0x20 DUP2 ADD DUP1 MLOAD PUSH28 0xFFFFFFFFFFFFFFFFFFFFFFFFFFFFFFFFFFFFFFFFFFFFFFFFFFFFFFFF AND PUSH32 0xFFFFFFFF00000000000000000000000000000000000000000000000000000000 SWAP1 SWAP4 AND SWAP3 SWAP1 SWAP3 OR SWAP1 SWAP2 MSTORE PUSH2 0x1680 JUMP JUMPDEST POP POP POP JUMP JUMPDEST PUSH1 0x0 PUSH2 0x1361 DUP3 DUP1 MLOAD PUSH1 0x14 ADD DUP1 MLOAD SWAP2 MSTORE SWAP1 JUMP JUMPDEST PUSH1 0x40 MLOAD PUSH32 0x70A0823100000000000000000000000000000000000000000000000000000000 DUP2 MSTORE ADDRESS PUSH1 0x4 DUP3 ADD MSTORE SWAP1 SWAP2 POP PUSH1 0x0 SWAP1 PUSH20 0xFFFFFFFFFFFFFFFFFFFFFFFFFFFFFFFFFFFFFFFF DUP4 AND SWAP1 PUSH4 0x70A08231 SWAP1 PUSH1 0x24 ADD PUSH1 0x20 PUSH1 0x40 MLOAD DUP1 DUP4 SUB DUP2 DUP7 GAS STATICCALL ISZERO DUP1 ISZERO PUSH2 0x13D1 JUMPI RETURNDATASIZE PUSH1 0x0 DUP1 RETURNDATACOPY RETURNDATASIZE PUSH1 0x0 REVERT JUMPDEST POP POP POP POP PUSH1 0x40 MLOAD RETURNDATASIZE PUSH1 0x1F NOT PUSH1 0x1F DUP3 ADD AND DUP3 ADD DUP1 PUSH1 0x40 MSTORE POP DUP2 ADD SWAP1 PUSH2 0x13F5 SWAP2 SWAP1 PUSH2 0x31D2 JUMP JUMPDEST SWAP1 POP DUP1 ISZERO PUSH2 0x1420 JUMPI PUSH32 0xFFFFFFFFFFFFFFFFFFFFFFFFFFFFFFFFFFFFFFFFFFFFFFFFFFFFFFFFFFFFFFFF ADD JUMPDEST PUSH2 0x134A DUP4 ADDRESS DUP5 DUP5 PUSH2 0x178C JUMP JUMPDEST PUSH1 0x0 PUSH2 0x143E DUP4 DUP1 MLOAD PUSH1 0x14 ADD DUP1 MLOAD SWAP2 MSTORE SWAP1 JUMP JUMPDEST SWAP1 POP PUSH2 0x134A DUP4 CALLER DUP4 DUP6 PUSH2 0x178C JUMP JUMPDEST SELFBALANCE PUSH2 0x146D DUP3 ADDRESS PUSH20 0xEEEEEEEEEEEEEEEEEEEEEEEEEEEEEEEEEEEEEEEE DUP5 PUSH2 0x178C JUMP JUMPDEST POP POP JUMP JUMPDEST PUSH1 0x0 PUSH2 0x1483 DUP3 DUP1 MLOAD PUSH1 0x14 ADD DUP1 MLOAD SWAP2 MSTORE SWAP1 JUMP JUMPDEST SWAP1 POP PUSH2 0x146D DUP3 ADDRESS DUP4 PUSH1 0x0 PUSH2 0x17E7 JUMP JUMPDEST PUSH1 0x0 PUSH2 0x14A4 DUP3 DUP1 MLOAD PUSH1 0x14 ADD DUP1 MLOAD SWAP2 MSTORE SWAP1 JUMP JUMPDEST SWAP1 POP PUSH1 0x0 PUSH2 0x14B8 DUP4 DUP1 MLOAD PUSH1 0x1 ADD DUP1 MLOAD SWAP2 MSTORE SWAP1 JUMP JUMPDEST PUSH1 0x40 MLOAD PUSH32 0xF7888AEC00000000000000000000000000000000000000000000000000000000 DUP2 MSTORE PUSH20 0xFFFFFFFFFFFFFFFFFFFFFFFFFFFFFFFFFFFFFFFF DUP5 DUP2 AND PUSH1 0x4 DUP4 ADD MSTORE ADDRESS PUSH1 0x24 DUP4 ADD MSTORE SWAP2 SWAP3 POP PUSH1 0x0 SWAP2 PUSH32 0x0 AND SWAP1 PUSH4 0xF7888AEC SWAP1 PUSH1 0x44 ADD PUSH1 0x20 PUSH1 0x40 MLOAD DUP1 DUP4 SUB DUP2 DUP7 GAS STATICCALL ISZERO DUP1 ISZERO PUSH2 0x1550 JUMPI RETURNDATASIZE PUSH1 0x0 DUP1 RETURNDATACOPY RETURNDATASIZE PUSH1 0x0 REVERT JUMPDEST POP POP POP POP PUSH1 0x40 MLOAD RETURNDATASIZE PUSH1 0x1F NOT PUSH1 0x1F DUP3 ADD AND DUP3 ADD DUP1 PUSH1 0x40 MSTORE POP DUP2 ADD SWAP1 PUSH2 0x1574 SWAP2 SWAP1 PUSH2 0x31D2 JUMP JUMPDEST SWAP1 POP DUP1 ISZERO PUSH2 0x159F JUMPI PUSH32 0xFFFFFFFFFFFFFFFFFFFFFFFFFFFFFFFFFFFFFFFFFFFFFFFFFFFFFFFFFFFFFFFF ADD JUMPDEST PUSH1 0x0 JUMPDEST DUP3 PUSH1 0xFF AND DUP2 LT ISZERO PUSH2 0x15E6 JUMPI PUSH1 0x0 PUSH2 0x15BF DUP7 DUP1 MLOAD PUSH1 0x2 ADD DUP1 MLOAD SWAP2 MSTORE SWAP1 JUMP JUMPDEST PUSH2 0xFFFF DUP1 DUP3 AND DUP6 MUL DIV SWAP4 DUP5 SWAP1 SUB SWAP4 SWAP1 SWAP2 POP PUSH2 0x15DC DUP8 ADDRESS DUP9 DUP5 PUSH2 0x17E7 JUMP JUMPDEST POP POP PUSH1 0x1 ADD PUSH2 0x15A2 JUMP JUMPDEST POP POP POP POP POP JUMP JUMPDEST PUSH1 0x0 PUSH2 0x15FF DUP3 DUP1 MLOAD PUSH1 0x20 ADD DUP1 MLOAD SWAP2 MSTORE SWAP1 JUMP JUMPDEST SWAP1 POP PUSH1 0x0 PUSH2 0x1613 DUP4 DUP1 MLOAD PUSH1 0x20 ADD DUP1 MLOAD SWAP2 MSTORE SWAP1 JUMP JUMPDEST SWAP1 POP PUSH1 0x0 PUSH2 0x1627 DUP5 DUP1 MLOAD PUSH1 0x1 ADD DUP1 MLOAD SWAP2 MSTORE SWAP1 JUMP JUMPDEST SWAP1 POP PUSH1 0x0 PUSH2 0x163B DUP6 DUP1 MLOAD PUSH1 0x20 ADD DUP1 MLOAD SWAP2 MSTORE SWAP1 JUMP JUMPDEST SWAP1 POP PUSH1 0x0 PUSH2 0x164F DUP7 DUP1 MLOAD PUSH1 0x20 ADD DUP1 MLOAD SWAP2 MSTORE SWAP1 JUMP JUMPDEST SWAP1 POP PUSH2 0x1677 PUSH20 0xFFFFFFFFFFFFFFFFFFFFFFFFFFFFFFFFFFFFFFFF DUP9 AND CALLER ADDRESS DUP9 DUP9 DUP9 DUP9 DUP9 PUSH2 0x18FC JUMP JUMPDEST POP POP POP POP POP POP POP JUMP JUMPDEST PUSH1 0x0 PUSH2 0x16E2 DUP3 PUSH1 0x40 MLOAD DUP1 PUSH1 0x40 ADD PUSH1 0x40 MSTORE DUP1 PUSH1 0x20 DUP2 MSTORE PUSH1 0x20 ADD PUSH32 0x5361666545524332303A206C6F772D6C6576656C2063616C6C206661696C6564 DUP2 MSTORE POP DUP6 PUSH20 0xFFFFFFFFFFFFFFFFFFFFFFFFFFFFFFFFFFFFFFFF AND PUSH2 0x1B7C SWAP1 SWAP3 SWAP2 SWAP1 PUSH4 0xFFFFFFFF AND JUMP JUMPDEST DUP1 MLOAD SWAP1 SWAP2 POP ISZERO PUSH2 0x134A JUMPI DUP1 DUP1 PUSH1 0x20 ADD SWAP1 MLOAD DUP2 ADD SWAP1 PUSH2 0x1700 SWAP2 SWAP1 PUSH2 0x3249 JUMP JUMPDEST PUSH2 0x134A JUMPI PUSH1 0x40 MLOAD PUSH32 0x8C379A000000000000000000000000000000000000000000000000000000000 DUP2 MSTORE PUSH1 0x20 PUSH1 0x4 DUP3 ADD MSTORE PUSH1 0x2A PUSH1 0x24 DUP3 ADD MSTORE PUSH32 0x5361666545524332303A204552433230206F7065726174696F6E20646964206E PUSH1 0x44 DUP3 ADD MSTORE PUSH32 0x6F74207375636365656400000000000000000000000000000000000000000000 PUSH1 0x64 DUP3 ADD MSTORE PUSH1 0x84 ADD PUSH2 0x2E2 JUMP JUMPDEST PUSH1 0x0 PUSH2 0x179E DUP6 DUP1 MLOAD PUSH1 0x1 ADD DUP1 MLOAD SWAP2 MSTORE SWAP1 JUMP JUMPDEST SWAP1 POP PUSH1 0x0 JUMPDEST DUP2 PUSH1 0xFF AND DUP2 LT ISZERO PUSH2 0xB1B JUMPI PUSH1 0x0 PUSH2 0x17C0 DUP8 DUP1 MLOAD PUSH1 0x2 ADD DUP1 MLOAD SWAP2 MSTORE SWAP1 JUMP JUMPDEST PUSH2 0xFFFF DUP1 DUP3 AND DUP7 MUL DIV SWAP5 DUP6 SWAP1 SUB SWAP5 SWAP1 SWAP2 POP PUSH2 0x17DD DUP9 DUP9 DUP9 DUP5 PUSH2 0x17E7 JUMP JUMPDEST POP POP PUSH1 0x1 ADD PUSH2 0x17A3 JUMP JUMPDEST PUSH1 0x0 PUSH2 0x17F9 DUP6 DUP1 MLOAD PUSH1 0x1 ADD DUP1 MLOAD SWAP2 MSTORE SWAP1 JUMP JUMPDEST SWAP1 POP PUSH1 0xFF DUP2 AND PUSH2 0x1814 JUMPI PUSH2 0x180F DUP6 DUP6 DUP6 DUP6 PUSH2 0x1B93 JUMP JUMPDEST PUSH2 0x15E6 JUMP JUMPDEST DUP1 PUSH1 0xFF AND PUSH1 0x1 EQ ISZERO PUSH2 0x182C JUMPI PUSH2 0x180F DUP6 DUP6 DUP6 DUP6 PUSH2 0x1F0C JUMP JUMPDEST DUP1 PUSH1 0xFF AND PUSH1 0x2 EQ ISZERO PUSH2 0x1844 JUMPI PUSH2 0x180F DUP6 DUP6 DUP6 DUP6 PUSH2 0x21F0 JUMP JUMPDEST DUP1 PUSH1 0xFF AND PUSH1 0x3 EQ ISZERO PUSH2 0x185C JUMPI PUSH2 0x180F DUP6 DUP6 DUP6 DUP6 PUSH2 0x23EF JUMP JUMPDEST DUP1 PUSH1 0xFF AND PUSH1 0x4 EQ ISZERO PUSH2 0x1874 JUMPI PUSH2 0x180F DUP6 DUP6 DUP6 DUP6 PUSH2 0x2A49 JUMP JUMPDEST PUSH1 0x40 MLOAD PUSH32 0x8C379A000000000000000000000000000000000000000000000000000000000 DUP2 MSTORE PUSH1 0x20 PUSH1 0x4 DUP3 ADD MSTORE PUSH1 0x21 PUSH1 0x24 DUP3 ADD MSTORE PUSH32 0x526F75746550726F636573736F723A20556E6B6E6F776E20706F6F6C20747970 PUSH1 0x44 DUP3 ADD MSTORE PUSH32 0x6500000000000000000000000000000000000000000000000000000000000000 PUSH1 0x64 DUP3 ADD MSTORE PUSH1 0x84 ADD PUSH2 0x2E2 JUMP JUMPDEST PUSH1 0x40 MLOAD PUSH32 0x7ECEBE0000000000000000000000000000000000000000000000000000000000 DUP2 MSTORE PUSH20 0xFFFFFFFFFFFFFFFFFFFFFFFFFFFFFFFFFFFFFFFF DUP9 DUP2 AND PUSH1 0x4 DUP4 ADD MSTORE PUSH1 0x0 SWAP2 SWAP1 DUP11 AND SWAP1 PUSH4 0x7ECEBE00 SWAP1 PUSH1 0x24 ADD PUSH1 0x20 PUSH1 0x40 MLOAD DUP1 DUP4 SUB DUP2 DUP7 GAS STATICCALL ISZERO DUP1 ISZERO PUSH2 0x196C JUMPI RETURNDATASIZE PUSH1 0x0 DUP1 RETURNDATACOPY RETURNDATASIZE PUSH1 0x0 REVERT JUMPDEST POP POP POP POP PUSH1 0x40 MLOAD RETURNDATASIZE PUSH1 0x1F NOT PUSH1 0x1F DUP3 ADD AND DUP3 ADD DUP1 PUSH1 0x40 MSTORE POP DUP2 ADD SWAP1 PUSH2 0x1990 SWAP2 SWAP1 PUSH2 0x31D2 JUMP JUMPDEST PUSH1 0x40 MLOAD PUSH32 0xD505ACCF00000000000000000000000000000000000000000000000000000000 DUP2 MSTORE PUSH20 0xFFFFFFFFFFFFFFFFFFFFFFFFFFFFFFFFFFFFFFFF DUP11 DUP2 AND PUSH1 0x4 DUP4 ADD MSTORE DUP10 DUP2 AND PUSH1 0x24 DUP4 ADD MSTORE PUSH1 0x44 DUP3 ADD DUP10 SWAP1 MSTORE PUSH1 0x64 DUP3 ADD DUP9 SWAP1 MSTORE PUSH1 0xFF DUP8 AND PUSH1 0x84 DUP4 ADD MSTORE PUSH1 0xA4 DUP3 ADD DUP7 SWAP1 MSTORE PUSH1 0xC4 DUP3 ADD DUP6 SWAP1 MSTORE SWAP2 SWAP3 POP SWAP1 DUP11 AND SWAP1 PUSH4 0xD505ACCF SWAP1 PUSH1 0xE4 ADD PUSH1 0x0 PUSH1 0x40 MLOAD DUP1 DUP4 SUB DUP2 PUSH1 0x0 DUP8 DUP1 EXTCODESIZE ISZERO DUP1 ISZERO PUSH2 0x1A2A JUMPI PUSH1 0x0 DUP1 REVERT JUMPDEST POP GAS CALL ISZERO DUP1 ISZERO PUSH2 0x1A3E JUMPI RETURNDATASIZE PUSH1 0x0 DUP1 RETURNDATACOPY RETURNDATASIZE PUSH1 0x0 REVERT JUMPDEST POP POP PUSH1 0x40 MLOAD PUSH32 0x7ECEBE0000000000000000000000000000000000000000000000000000000000 DUP2 MSTORE PUSH20 0xFFFFFFFFFFFFFFFFFFFFFFFFFFFFFFFFFFFFFFFF DUP12 DUP2 AND PUSH1 0x4 DUP4 ADD MSTORE PUSH1 0x0 SWAP4 POP DUP13 AND SWAP2 POP PUSH4 0x7ECEBE00 SWAP1 PUSH1 0x24 ADD PUSH1 0x20 PUSH1 0x40 MLOAD DUP1 DUP4 SUB DUP2 DUP7 GAS STATICCALL ISZERO DUP1 ISZERO PUSH2 0x1AB1 JUMPI RETURNDATASIZE PUSH1 0x0 DUP1 RETURNDATACOPY RETURNDATASIZE PUSH1 0x0 REVERT JUMPDEST POP POP POP POP PUSH1 0x40 MLOAD RETURNDATASIZE PUSH1 0x1F NOT PUSH1 0x1F DUP3 ADD AND DUP3 ADD DUP1 PUSH1 0x40 MSTORE POP DUP2 ADD SWAP1 PUSH2 0x1AD5 SWAP2 SWAP1 PUSH2 0x31D2 JUMP JUMPDEST SWAP1 POP PUSH2 0x1AE2 DUP3 PUSH1 0x1 PUSH2 0x321A JUMP JUMPDEST DUP2 EQ PUSH2 0x1B70 JUMPI PUSH1 0x40 MLOAD PUSH32 0x8C379A000000000000000000000000000000000000000000000000000000000 DUP2 MSTORE PUSH1 0x20 PUSH1 0x4 DUP3 ADD MSTORE PUSH1 0x21 PUSH1 0x24 DUP3 ADD MSTORE PUSH32 0x5361666545524332303A207065726D697420646964206E6F7420737563636565 PUSH1 0x44 DUP3 ADD MSTORE PUSH32 0x6400000000000000000000000000000000000000000000000000000000000000 PUSH1 0x64 DUP3 ADD MSTORE PUSH1 0x84 ADD PUSH2 0x2E2 JUMP JUMPDEST POP POP POP POP POP POP POP POP POP POP JUMP JUMPDEST PUSH1 0x60 PUSH2 0x1B8B DUP5 DUP5 PUSH1 0x0 DUP6 PUSH2 0x2BC1 JUMP JUMPDEST SWAP5 SWAP4 POP POP POP POP JUMP JUMPDEST PUSH1 0x0 PUSH2 0x1BA5 DUP6 DUP1 MLOAD PUSH1 0x14 ADD DUP1 MLOAD SWAP2 MSTORE SWAP1 JUMP JUMPDEST SWAP1 POP PUSH1 0x0 PUSH2 0x1BB9 DUP7 DUP1 MLOAD PUSH1 0x1 ADD DUP1 MLOAD SWAP2 MSTORE SWAP1 JUMP JUMPDEST SWAP1 POP PUSH1 0x0 PUSH2 0x1BCD DUP8 DUP1 MLOAD PUSH1 0x14 ADD DUP1 MLOAD SWAP2 MSTORE SWAP1 JUMP JUMPDEST SWAP1 POP PUSH1 0x0 DUP1 DUP5 PUSH20 0xFFFFFFFFFFFFFFFFFFFFFFFFFFFFFFFFFFFFFFFF AND PUSH4 0x902F1AC PUSH1 0x40 MLOAD DUP2 PUSH4 0xFFFFFFFF AND PUSH1 0xE0 SHL DUP2 MSTORE PUSH1 0x4 ADD PUSH1 0x60 PUSH1 0x40 MLOAD DUP1 DUP4 SUB DUP2 DUP7 GAS STATICCALL ISZERO DUP1 ISZERO PUSH2 0x1C1D JUMPI RETURNDATASIZE PUSH1 0x0 DUP1 RETURNDATACOPY RETURNDATASIZE PUSH1 0x0 REVERT JUMPDEST POP POP POP POP PUSH1 0x40 MLOAD RETURNDATASIZE PUSH1 0x1F NOT PUSH1 0x1F DUP3 ADD AND DUP3 ADD DUP1 PUSH1 0x40 MSTORE POP DUP2 ADD SWAP1 PUSH2 0x1C41 SWAP2 SWAP1 PUSH2 0x3289 JUMP JUMPDEST POP PUSH14 0xFFFFFFFFFFFFFFFFFFFFFFFFFFFF AND SWAP2 POP PUSH14 0xFFFFFFFFFFFFFFFFFFFFFFFFFFFF AND SWAP2 POP PUSH1 0x0 DUP3 GT DUP1 ISZERO PUSH2 0x1C76 JUMPI POP PUSH1 0x0 DUP2 GT JUMPDEST PUSH2 0x1CDC JUMPI PUSH1 0x40 MLOAD PUSH32 0x8C379A000000000000000000000000000000000000000000000000000000000 DUP2 MSTORE PUSH1 0x20 PUSH1 0x4 DUP3 ADD MSTORE PUSH1 0x13 PUSH1 0x24 DUP3 ADD MSTORE PUSH32 0x57726F6E6720706F6F6C20726573657276657300000000000000000000000000 PUSH1 0x44 DUP3 ADD MSTORE PUSH1 0x64 ADD PUSH2 0x2E2 JUMP JUMPDEST PUSH1 0x0 DUP1 DUP6 PUSH1 0xFF AND PUSH1 0x1 EQ PUSH2 0x1CF1 JUMPI DUP3 DUP5 PUSH2 0x1CF4 JUMP JUMPDEST DUP4 DUP4 JUMPDEST SWAP2 POP SWAP2 POP DUP8 PUSH1 0x0 EQ PUSH2 0x1D66 JUMPI PUSH20 0xFFFFFFFFFFFFFFFFFFFFFFFFFFFFFFFFFFFFFFFF DUP11 AND ADDRESS EQ ISZERO PUSH2 0x1D44 JUMPI PUSH2 0x1D3F PUSH20 0xFFFFFFFFFFFFFFFFFFFFFFFFFFFFFFFFFFFFFFFF DUP11 AND DUP9 DUP11 PUSH2 0x1276 JUMP JUMPDEST PUSH2 0x1E06 JUMP JUMPDEST PUSH2 0x1D3F PUSH20 0xFFFFFFFFFFFFFFFFFFFFFFFFFFFFFFFFFFFFFFFF DUP11 AND DUP12 DUP10 DUP12 PUSH2 0x2CDA JUMP JUMPDEST PUSH1 0x40 MLOAD PUSH32 0x70A0823100000000000000000000000000000000000000000000000000000000 DUP2 MSTORE PUSH20 0xFFFFFFFFFFFFFFFFFFFFFFFFFFFFFFFFFFFFFFFF DUP9 DUP2 AND PUSH1 0x4 DUP4 ADD MSTORE DUP4 SWAP2 SWAP1 DUP12 AND SWAP1 PUSH4 0x70A08231 SWAP1 PUSH1 0x24 ADD PUSH1 0x20 PUSH1 0x40 MLOAD DUP1 DUP4 SUB DUP2 DUP7 GAS STATICCALL ISZERO DUP1 ISZERO PUSH2 0x1DD5 JUMPI RETURNDATASIZE PUSH1 0x0 DUP1 RETURNDATACOPY RETURNDATASIZE PUSH1 0x0 REVERT JUMPDEST POP POP POP POP PUSH1 0x40 MLOAD RETURNDATASIZE PUSH1 0x1F NOT PUSH1 0x1F DUP3 ADD AND DUP3 ADD DUP1 PUSH1 0x40 MSTORE POP DUP2 ADD SWAP1 PUSH2 0x1DF9 SWAP2 SWAP1 PUSH2 0x31D2 JUMP JUMPDEST PUSH2 0x1E03 SWAP2 SWAP1 PUSH2 0x3232 JUMP JUMPDEST SWAP8 POP JUMPDEST PUSH1 0x0 PUSH2 0x1E14 DUP10 PUSH2 0x3E5 PUSH2 0x32D9 JUMP JUMPDEST SWAP1 POP PUSH1 0x0 DUP2 PUSH2 0x1E25 DUP6 PUSH2 0x3E8 PUSH2 0x32D9 JUMP JUMPDEST PUSH2 0x1E2F SWAP2 SWAP1 PUSH2 0x321A JUMP JUMPDEST PUSH2 0x1E39 DUP5 DUP5 PUSH2 0x32D9 JUMP JUMPDEST PUSH2 0x1E43 SWAP2 SWAP1 PUSH2 0x3316 JUMP JUMPDEST SWAP1 POP PUSH1 0x0 DUP1 DUP10 PUSH1 0xFF AND PUSH1 0x1 EQ PUSH2 0x1E5B JUMPI DUP3 PUSH1 0x0 PUSH2 0x1E5F JUMP JUMPDEST PUSH1 0x0 DUP4 JUMPDEST PUSH1 0x40 DUP1 MLOAD PUSH1 0x0 DUP2 MSTORE PUSH1 0x20 DUP2 ADD SWAP2 DUP3 SWAP1 MSTORE PUSH32 0x22C0D9F00000000000000000000000000000000000000000000000000000000 SWAP1 SWAP2 MSTORE SWAP2 SWAP4 POP SWAP2 POP PUSH20 0xFFFFFFFFFFFFFFFFFFFFFFFFFFFFFFFFFFFFFFFF DUP13 AND SWAP1 PUSH4 0x22C0D9F SWAP1 PUSH2 0x1EC9 SWAP1 DUP6 SWAP1 DUP6 SWAP1 DUP15 SWAP1 PUSH1 0x24 DUP2 ADD PUSH2 0x3351 JUMP JUMPDEST PUSH1 0x0 PUSH1 0x40 MLOAD DUP1 DUP4 SUB DUP2 PUSH1 0x0 DUP8 DUP1 EXTCODESIZE ISZERO DUP1 ISZERO PUSH2 0x1EE3 JUMPI PUSH1 0x0 DUP1 REVERT JUMPDEST POP GAS CALL ISZERO DUP1 ISZERO PUSH2 0x1EF7 JUMPI RETURNDATASIZE PUSH1 0x0 DUP1 RETURNDATACOPY RETURNDATASIZE PUSH1 0x0 REVERT JUMPDEST POP POP POP POP POP POP POP POP POP POP POP POP POP POP POP POP POP POP POP JUMP JUMPDEST PUSH1 0x0 PUSH2 0x1F1E DUP6 DUP1 MLOAD PUSH1 0x14 ADD DUP1 MLOAD SWAP2 MSTORE SWAP1 JUMP JUMPDEST SWAP1 POP PUSH1 0x0 DUP1 PUSH2 0x1F33 DUP8 DUP1 MLOAD PUSH1 0x1 ADD DUP1 MLOAD SWAP2 MSTORE SWAP1 JUMP JUMPDEST PUSH1 0xFF AND GT SWAP1 POP PUSH1 0x0 PUSH2 0x1F4B DUP8 DUP1 MLOAD PUSH1 0x14 ADD DUP1 MLOAD SWAP2 MSTORE SWAP1 JUMP JUMPDEST SWAP1 POP PUSH20 0xFFFFFFFFFFFFFFFFFFFFFFFFFFFFFFFFFFFFFFFF DUP7 AND ADDRESS EQ PUSH2 0x2031 JUMPI PUSH20 0xFFFFFFFFFFFFFFFFFFFFFFFFFFFFFFFFFFFFFFFF DUP7 AND CALLER EQ PUSH2 0x200F JUMPI PUSH1 0x40 MLOAD PUSH32 0x8C379A000000000000000000000000000000000000000000000000000000000 DUP2 MSTORE PUSH1 0x20 PUSH1 0x4 DUP3 ADD MSTORE PUSH1 0x22 PUSH1 0x24 DUP3 ADD MSTORE PUSH32 0x73776170556E6956333A20756E65787065637465642066726F6D206164647265 PUSH1 0x44 DUP3 ADD MSTORE PUSH32 0x7373000000000000000000000000000000000000000000000000000000000000 PUSH1 0x64 DUP3 ADD MSTORE PUSH1 0x84 ADD PUSH2 0x2E2 JUMP JUMPDEST PUSH2 0x2031 PUSH20 0xFFFFFFFFFFFFFFFFFFFFFFFFFFFFFFFFFFFFFFFF DUP7 AND CALLER ADDRESS DUP8 PUSH2 0x2CDA JUMP JUMPDEST PUSH1 0x2 DUP1 SLOAD PUSH32 0xFFFFFFFFFFFFFFFFFFFFFFFF0000000000000000000000000000000000000000 AND PUSH20 0xFFFFFFFFFFFFFFFFFFFFFFFFFFFFFFFFFFFFFFFF DUP6 AND SWAP1 DUP2 OR SWAP1 SWAP2 SSTORE PUSH4 0x128ACB08 DUP3 DUP5 DUP8 DUP2 PUSH2 0x20A5 JUMPI PUSH2 0x20A0 PUSH1 0x1 PUSH20 0xFFFD8963EFD1FC6A506488495D951D5263988D26 PUSH2 0x3396 JUMP JUMPDEST PUSH2 0x20B5 JUMP JUMPDEST PUSH2 0x20B5 PUSH5 0x1000276A3 PUSH1 0x1 PUSH2 0x33CB JUMP JUMPDEST PUSH1 0x40 DUP1 MLOAD PUSH20 0xFFFFFFFFFFFFFFFFFFFFFFFFFFFFFFFFFFFFFFFF DUP14 AND PUSH1 0x20 DUP3 ADD MSTORE ADD PUSH1 0x40 MLOAD PUSH1 0x20 DUP2 DUP4 SUB SUB DUP2 MSTORE SWAP1 PUSH1 0x40 MSTORE PUSH1 0x40 MLOAD DUP7 PUSH4 0xFFFFFFFF AND PUSH1 0xE0 SHL DUP2 MSTORE PUSH1 0x4 ADD PUSH2 0x2105 SWAP6 SWAP5 SWAP4 SWAP3 SWAP2 SWAP1 PUSH2 0x3403 JUMP JUMPDEST PUSH1 0x40 DUP1 MLOAD DUP1 DUP4 SUB DUP2 PUSH1 0x0 DUP8 GAS CALL ISZERO DUP1 ISZERO PUSH2 0x2123 JUMPI RETURNDATASIZE PUSH1 0x0 DUP1 RETURNDATACOPY RETURNDATASIZE PUSH1 0x0 REVERT JUMPDEST POP POP POP POP PUSH1 0x40 MLOAD RETURNDATASIZE PUSH1 0x1F NOT PUSH1 0x1F DUP3 ADD AND DUP3 ADD DUP1 PUSH1 0x40 MSTORE POP DUP2 ADD SWAP1 PUSH2 0x2147 SWAP2 SWAP1 PUSH2 0x344A JUMP JUMPDEST POP POP PUSH1 0x2 SLOAD PUSH20 0xFFFFFFFFFFFFFFFFFFFFFFFFFFFFFFFFFFFFFFFF AND PUSH1 0x1 EQ PUSH2 0x1677 JUMPI PUSH1 0x40 MLOAD PUSH32 0x8C379A000000000000000000000000000000000000000000000000000000000 DUP2 MSTORE PUSH1 0x20 PUSH1 0x4 DUP3 ADD MSTORE PUSH1 0x24 DUP1 DUP3 ADD MSTORE PUSH32 0x526F75746550726F636573736F722E73776170556E6956333A20756E65787065 PUSH1 0x44 DUP3 ADD MSTORE PUSH32 0x6374656400000000000000000000000000000000000000000000000000000000 PUSH1 0x64 DUP3 ADD MSTORE PUSH1 0x84 ADD PUSH2 0x2E2 JUMP JUMPDEST PUSH1 0x0 PUSH2 0x2202 DUP6 DUP1 MLOAD PUSH1 0x1 ADD DUP1 MLOAD SWAP2 MSTORE SWAP1 JUMP JUMPDEST SWAP1 POP PUSH1 0x0 PUSH2 0x2216 DUP7 DUP1 MLOAD PUSH1 0x14 ADD DUP1 MLOAD SWAP2 MSTORE SWAP1 JUMP JUMPDEST SWAP1 POP PUSH1 0x1 DUP1 DUP4 AND EQ ISZERO PUSH2 0x22E5 JUMPI PUSH1 0x0 PUSH2 0x2235 DUP8 DUP1 MLOAD PUSH1 0x14 ADD DUP1 MLOAD SWAP2 MSTORE SWAP1 JUMP JUMPDEST SWAP1 POP PUSH1 0x2 DUP4 AND PUSH2 0x22A1 JUMPI DUP1 PUSH20 0xFFFFFFFFFFFFFFFFFFFFFFFFFFFFFFFFFFFFFFFF AND PUSH4 0xD0E30DB0 DUP6 PUSH1 0x40 MLOAD DUP3 PUSH4 0xFFFFFFFF AND PUSH1 0xE0 SHL DUP2 MSTORE PUSH1 0x4 ADD PUSH1 0x0 PUSH1 0x40 MLOAD DUP1 DUP4 SUB DUP2 DUP6 DUP9 DUP1 EXTCODESIZE ISZERO DUP1 ISZERO PUSH2 0x2287 JUMPI PUSH1 0x0 DUP1 REVERT JUMPDEST POP GAS CALL ISZERO DUP1 ISZERO PUSH2 0x229B JUMPI RETURNDATASIZE PUSH1 0x0 DUP1 RETURNDATACOPY RETURNDATASIZE PUSH1 0x0 REVERT JUMPDEST POP POP POP POP POP JUMPDEST PUSH20 0xFFFFFFFFFFFFFFFFFFFFFFFFFFFFFFFFFFFFFFFF DUP3 AND ADDRESS EQ PUSH2 0x22DF JUMPI PUSH2 0x22DF PUSH20 0xFFFFFFFFFFFFFFFFFFFFFFFFFFFFFFFFFFFFFFFF DUP3 AND DUP4 DUP7 PUSH2 0x1276 JUMP JUMPDEST POP PUSH2 0xB1B JUMP JUMPDEST PUSH1 0x2 DUP3 AND PUSH2 0x23AD JUMPI PUSH20 0xFFFFFFFFFFFFFFFFFFFFFFFFFFFFFFFFFFFFFFFF DUP6 AND ADDRESS EQ PUSH2 0x232C JUMPI PUSH2 0x232C PUSH20 0xFFFFFFFFFFFFFFFFFFFFFFFFFFFFFFFFFFFFFFFF DUP6 AND DUP7 ADDRESS DUP7 PUSH2 0x2CDA JUMP JUMPDEST PUSH1 0x40 MLOAD PUSH32 0x2E1A7D4D00000000000000000000000000000000000000000000000000000000 DUP2 MSTORE PUSH1 0x4 DUP2 ADD DUP5 SWAP1 MSTORE PUSH20 0xFFFFFFFFFFFFFFFFFFFFFFFFFFFFFFFFFFFFFFFF DUP6 AND SWAP1 PUSH4 0x2E1A7D4D SWAP1 PUSH1 0x24 ADD PUSH1 0x0 PUSH1 0x40 MLOAD DUP1 DUP4 SUB DUP2 PUSH1 0x0 DUP8 DUP1 EXTCODESIZE ISZERO DUP1 ISZERO PUSH2 0x2394 JUMPI PUSH1 0x0 DUP1 REVERT JUMPDEST POP GAS CALL ISZERO DUP1 ISZERO PUSH2 0x23A8 JUMPI RETURNDATASIZE PUSH1 0x0 DUP1 RETURNDATACOPY RETURNDATASIZE PUSH1 0x0 REVERT JUMPDEST POP POP POP POP JUMPDEST PUSH1 0x40 MLOAD PUSH20 0xFFFFFFFFFFFFFFFFFFFFFFFFFFFFFFFFFFFFFFFF DUP3 AND SWAP1 SELFBALANCE DUP1 ISZERO PUSH2 0x8FC MUL SWAP2 PUSH1 0x0 DUP2 DUP2 DUP2 DUP6 DUP9 DUP9 CALL SWAP4 POP POP POP POP ISZERO DUP1 ISZERO PUSH2 0x1677 JUMPI RETURNDATASIZE PUSH1 0x0 DUP1 RETURNDATACOPY RETURNDATASIZE PUSH1 0x0 REVERT JUMPDEST PUSH1 0x0 PUSH2 0x2401 DUP6 DUP1 MLOAD PUSH1 0x1 ADD DUP1 MLOAD SWAP2 MSTORE SWAP1 JUMP JUMPDEST SWAP1 POP PUSH1 0x0 PUSH2 0x2415 DUP7 DUP1 MLOAD PUSH1 0x14 ADD DUP1 MLOAD SWAP2 MSTORE SWAP1 JUMP JUMPDEST SWAP1 POP PUSH1 0xFF DUP3 AND ISZERO PUSH2 0x27F8 JUMPI DUP3 ISZERO PUSH2 0x24CC JUMPI PUSH20 0xFFFFFFFFFFFFFFFFFFFFFFFFFFFFFFFFFFFFFFFF DUP6 AND ADDRESS EQ ISZERO PUSH2 0x248A JUMPI PUSH2 0x2485 PUSH20 0xFFFFFFFFFFFFFFFFFFFFFFFFFFFFFFFFFFFFFFFF DUP6 AND PUSH32 0x0 DUP6 PUSH2 0x1276 JUMP JUMPDEST PUSH2 0x2722 JUMP JUMPDEST PUSH2 0x2485 PUSH20 0xFFFFFFFFFFFFFFFFFFFFFFFFFFFFFFFFFFFFFFFF DUP6 AND DUP7 PUSH32 0x0 DUP7 PUSH2 0x2CDA JUMP JUMPDEST PUSH1 0x40 MLOAD PUSH32 0x4FFE34DB00000000000000000000000000000000000000000000000000000000 DUP2 MSTORE PUSH20 0xFFFFFFFFFFFFFFFFFFFFFFFFFFFFFFFFFFFFFFFF DUP6 DUP2 AND PUSH1 0x4 DUP4 ADD MSTORE PUSH32 0x0 AND SWAP1 PUSH4 0x4FFE34DB SWAP1 PUSH1 0x24 ADD PUSH1 0x40 DUP1 MLOAD DUP1 DUP4 SUB DUP2 DUP7 GAS STATICCALL ISZERO DUP1 ISZERO PUSH2 0x2557 JUMPI RETURNDATASIZE PUSH1 0x0 DUP1 RETURNDATACOPY RETURNDATASIZE PUSH1 0x0 REVERT JUMPDEST POP POP POP POP PUSH1 0x40 MLOAD RETURNDATASIZE PUSH1 0x1F NOT PUSH1 0x1F DUP3 ADD AND DUP3 ADD DUP1 PUSH1 0x40 MSTORE POP DUP2 ADD SWAP1 PUSH2 0x257B SWAP2 SWAP1 PUSH2 0x348E JUMP JUMPDEST MLOAD PUSH1 0x40 MLOAD PUSH32 0xDF23B45B00000000000000000000000000000000000000000000000000000000 DUP2 MSTORE PUSH20 0xFFFFFFFFFFFFFFFFFFFFFFFFFFFFFFFFFFFFFFFF DUP7 DUP2 AND PUSH1 0x4 DUP4 ADD MSTORE PUSH16 0xFFFFFFFFFFFFFFFFFFFFFFFFFFFFFFFF SWAP1 SWAP3 AND SWAP2 PUSH32 0x0 AND SWAP1 PUSH4 0xDF23B45B SWAP1 PUSH1 0x24 ADD PUSH1 0x60 PUSH1 0x40 MLOAD DUP1 DUP4 SUB DUP2 DUP7 GAS STATICCALL ISZERO DUP1 ISZERO PUSH2 0x261D JUMPI RETURNDATASIZE PUSH1 0x0 DUP1 RETURNDATACOPY RETURNDATASIZE PUSH1 0x0 REVERT JUMPDEST POP POP POP POP PUSH1 0x40 MLOAD RETURNDATASIZE PUSH1 0x1F NOT PUSH1 0x1F DUP3 ADD AND DUP3 ADD DUP1 PUSH1 0x40 MSTORE POP DUP2 ADD SWAP1 PUSH2 0x2641 SWAP2 SWAP1 PUSH2 0x3501 JUMP JUMPDEST PUSH1 0x40 SWAP1 DUP2 ADD MLOAD SWAP1 MLOAD PUSH32 0x70A0823100000000000000000000000000000000000000000000000000000000 DUP2 MSTORE PUSH20 0xFFFFFFFFFFFFFFFFFFFFFFFFFFFFFFFFFFFFFFFF PUSH32 0x0 DUP2 AND PUSH1 0x4 DUP4 ADD MSTORE PUSH16 0xFFFFFFFFFFFFFFFFFFFFFFFFFFFFFFFF SWAP1 SWAP3 AND SWAP2 DUP8 AND SWAP1 PUSH4 0x70A08231 SWAP1 PUSH1 0x24 ADD PUSH1 0x20 PUSH1 0x40 MLOAD DUP1 DUP4 SUB DUP2 DUP7 GAS STATICCALL ISZERO DUP1 ISZERO PUSH2 0x26E7 JUMPI RETURNDATASIZE PUSH1 0x0 DUP1 RETURNDATACOPY RETURNDATASIZE PUSH1 0x0 REVERT JUMPDEST POP POP POP POP PUSH1 0x40 MLOAD RETURNDATASIZE PUSH1 0x1F NOT PUSH1 0x1F DUP3 ADD AND DUP3 ADD DUP1 PUSH1 0x40 MSTORE POP DUP2 ADD SWAP1 PUSH2 0x270B SWAP2 SWAP1 PUSH2 0x31D2 JUMP JUMPDEST PUSH2 0x2715 SWAP2 SWAP1 PUSH2 0x321A JUMP JUMPDEST PUSH2 0x271F SWAP2 SWAP1 PUSH2 0x3232 JUMP JUMPDEST SWAP3 POP JUMPDEST PUSH1 0x40 MLOAD PUSH32 0x2B9446C00000000000000000000000000000000000000000000000000000000 DUP2 MSTORE PUSH20 0xFFFFFFFFFFFFFFFFFFFFFFFFFFFFFFFFFFFFFFFF DUP6 DUP2 AND PUSH1 0x4 DUP4 ADD MSTORE PUSH32 0x0 DUP2 AND PUSH1 0x24 DUP4 ADD DUP2 SWAP1 MSTORE SWAP1 DUP4 AND PUSH1 0x44 DUP4 ADD MSTORE PUSH1 0x64 DUP3 ADD DUP6 SWAP1 MSTORE PUSH1 0x0 PUSH1 0x84 DUP4 ADD MSTORE SWAP1 PUSH4 0x2B9446C SWAP1 PUSH1 0xA4 ADD PUSH1 0x40 DUP1 MLOAD DUP1 DUP4 SUB DUP2 PUSH1 0x0 DUP8 GAS CALL ISZERO DUP1 ISZERO PUSH2 0x27CD JUMPI RETURNDATASIZE PUSH1 0x0 DUP1 RETURNDATACOPY RETURNDATASIZE PUSH1 0x0 REVERT JUMPDEST POP POP POP POP PUSH1 0x40 MLOAD RETURNDATASIZE PUSH1 0x1F NOT PUSH1 0x1F DUP3 ADD AND DUP3 ADD DUP1 PUSH1 0x40 MSTORE POP DUP2 ADD SWAP1 PUSH2 0x27F1 SWAP2 SWAP1 PUSH2 0x344A JUMP JUMPDEST POP POP PUSH2 0xB1B JUMP JUMPDEST DUP3 ISZERO PUSH2 0x28B9 JUMPI PUSH1 0x40 MLOAD PUSH32 0xF18D03CC00000000000000000000000000000000000000000000000000000000 DUP2 MSTORE PUSH20 0xFFFFFFFFFFFFFFFFFFFFFFFFFFFFFFFFFFFFFFFF DUP6 DUP2 AND PUSH1 0x4 DUP4 ADD MSTORE DUP7 DUP2 AND PUSH1 0x24 DUP4 ADD MSTORE ADDRESS PUSH1 0x44 DUP4 ADD MSTORE PUSH1 0x64 DUP3 ADD DUP6 SWAP1 MSTORE PUSH32 0x0 AND SWAP1 PUSH4 0xF18D03CC SWAP1 PUSH1 0x84 ADD PUSH1 0x0 PUSH1 0x40 MLOAD DUP1 DUP4 SUB DUP2 PUSH1 0x0 DUP8 DUP1 EXTCODESIZE ISZERO DUP1 ISZERO PUSH2 0x289C JUMPI PUSH1 0x0 DUP1 REVERT JUMPDEST POP GAS CALL ISZERO DUP1 ISZERO PUSH2 0x28B0 JUMPI RETURNDATASIZE PUSH1 0x0 DUP1 RETURNDATACOPY RETURNDATASIZE PUSH1 0x0 REVERT JUMPDEST POP POP POP POP PUSH2 0x2972 JUMP JUMPDEST PUSH1 0x40 MLOAD PUSH32 0xF7888AEC00000000000000000000000000000000000000000000000000000000 DUP2 MSTORE PUSH20 0xFFFFFFFFFFFFFFFFFFFFFFFFFFFFFFFFFFFFFFFF DUP6 DUP2 AND PUSH1 0x4 DUP4 ADD MSTORE ADDRESS PUSH1 0x24 DUP4 ADD MSTORE PUSH32 0x0 AND SWAP1 PUSH4 0xF7888AEC SWAP1 PUSH1 0x44 ADD PUSH1 0x20 PUSH1 0x40 MLOAD DUP1 DUP4 SUB DUP2 DUP7 GAS STATICCALL ISZERO DUP1 ISZERO PUSH2 0x294B JUMPI RETURNDATASIZE PUSH1 0x0 DUP1 RETURNDATACOPY RETURNDATASIZE PUSH1 0x0 REVERT JUMPDEST POP POP POP POP PUSH1 0x40 MLOAD RETURNDATASIZE PUSH1 0x1F NOT PUSH1 0x1F DUP3 ADD AND DUP3 ADD DUP1 PUSH1 0x40 MSTORE POP DUP2 ADD SWAP1 PUSH2 0x296F SWAP2 SWAP1 PUSH2 0x31D2 JUMP JUMPDEST SWAP3 POP JUMPDEST PUSH1 0x40 MLOAD PUSH32 0x97DA6D3000000000000000000000000000000000000000000000000000000000 DUP2 MSTORE PUSH20 0xFFFFFFFFFFFFFFFFFFFFFFFFFFFFFFFFFFFFFFFF DUP6 DUP2 AND PUSH1 0x4 DUP4 ADD MSTORE ADDRESS PUSH1 0x24 DUP4 ADD MSTORE DUP3 DUP2 AND PUSH1 0x44 DUP4 ADD MSTORE PUSH1 0x0 PUSH1 0x64 DUP4 ADD MSTORE PUSH1 0x84 DUP3 ADD DUP6 SWAP1 MSTORE PUSH32 0x0 AND SWAP1 PUSH4 0x97DA6D30 SWAP1 PUSH1 0xA4 ADD PUSH1 0x40 DUP1 MLOAD DUP1 DUP4 SUB DUP2 PUSH1 0x0 DUP8 GAS CALL ISZERO DUP1 ISZERO PUSH2 0x2A1B JUMPI RETURNDATASIZE PUSH1 0x0 DUP1 RETURNDATACOPY RETURNDATASIZE PUSH1 0x0 REVERT JUMPDEST POP POP POP POP PUSH1 0x40 MLOAD RETURNDATASIZE PUSH1 0x1F NOT PUSH1 0x1F DUP3 ADD AND DUP3 ADD DUP1 PUSH1 0x40 MSTORE POP DUP2 ADD SWAP1 PUSH2 0x2A3F SWAP2 SWAP1 PUSH2 0x344A JUMP JUMPDEST POP POP POP POP POP POP POP POP JUMP JUMPDEST PUSH1 0x0 PUSH2 0x2A5B DUP6 DUP1 MLOAD PUSH1 0x14 ADD DUP1 MLOAD SWAP2 MSTORE SWAP1 JUMP JUMPDEST DUP6 MLOAD PUSH1 0x20 DUP1 DUP3 ADD DUP1 MLOAD SWAP1 SWAP3 ADD ADD DUP8 MSTORE SWAP1 SWAP2 POP DUP3 ISZERO PUSH2 0x2B2C JUMPI PUSH1 0x40 MLOAD PUSH32 0xF18D03CC00000000000000000000000000000000000000000000000000000000 DUP2 MSTORE PUSH20 0xFFFFFFFFFFFFFFFFFFFFFFFFFFFFFFFFFFFFFFFF DUP6 DUP2 AND PUSH1 0x4 DUP4 ADD MSTORE DUP7 DUP2 AND PUSH1 0x24 DUP4 ADD MSTORE DUP4 DUP2 AND PUSH1 0x44 DUP4 ADD MSTORE PUSH1 0x64 DUP3 ADD DUP6 SWAP1 MSTORE PUSH32 0x0 AND SWAP1 PUSH4 0xF18D03CC SWAP1 PUSH1 0x84 ADD PUSH1 0x0 PUSH1 0x40 MLOAD DUP1 DUP4 SUB DUP2 PUSH1 0x0 DUP8 DUP1 EXTCODESIZE ISZERO DUP1 ISZERO PUSH2 0x2B13 JUMPI PUSH1 0x0 DUP1 REVERT JUMPDEST POP GAS CALL ISZERO DUP1 ISZERO PUSH2 0x2B27 JUMPI RETURNDATASIZE PUSH1 0x0 DUP1 RETURNDATACOPY RETURNDATASIZE PUSH1 0x0 REVERT JUMPDEST POP POP POP POP JUMPDEST PUSH1 0x40 MLOAD PUSH32 0x627DD56A00000000000000000000000000000000000000000000000000000000 DUP2 MSTORE PUSH20 0xFFFFFFFFFFFFFFFFFFFFFFFFFFFFFFFFFFFFFFFF DUP4 AND SWAP1 PUSH4 0x627DD56A SWAP1 PUSH2 0x2B7E SWAP1 DUP5 SWAP1 PUSH1 0x4 ADD PUSH2 0x31BF JUMP JUMPDEST PUSH1 0x20 PUSH1 0x40 MLOAD DUP1 DUP4 SUB DUP2 PUSH1 0x0 DUP8 GAS CALL ISZERO DUP1 ISZERO PUSH2 0x2B9D JUMPI RETURNDATASIZE PUSH1 0x0 DUP1 RETURNDATACOPY RETURNDATASIZE PUSH1 0x0 REVERT JUMPDEST POP POP POP POP PUSH1 0x40 MLOAD RETURNDATASIZE PUSH1 0x1F NOT PUSH1 0x1F DUP3 ADD AND DUP3 ADD DUP1 PUSH1 0x40 MSTORE POP DUP2 ADD SWAP1 PUSH2 0x1677 SWAP2 SWAP1 PUSH2 0x31D2 JUMP JUMPDEST PUSH1 0x60 DUP3 SELFBALANCE LT ISZERO PUSH2 0x2C53 JUMPI PUSH1 0x40 MLOAD PUSH32 0x8C379A000000000000000000000000000000000000000000000000000000000 DUP2 MSTORE PUSH1 0x20 PUSH1 0x4 DUP3 ADD MSTORE PUSH1 0x26 PUSH1 0x24 DUP3 ADD MSTORE PUSH32 0x416464726573733A20696E73756666696369656E742062616C616E636520666F PUSH1 0x44 DUP3 ADD MSTORE PUSH32 0x722063616C6C0000000000000000000000000000000000000000000000000000 PUSH1 0x64 DUP3 ADD MSTORE PUSH1 0x84 ADD PUSH2 0x2E2 JUMP JUMPDEST PUSH1 0x0 DUP1 DUP7 PUSH20 0xFFFFFFFFFFFFFFFFFFFFFFFFFFFFFFFFFFFFFFFF AND DUP6 DUP8 PUSH1 0x40 MLOAD PUSH2 0x2C7C SWAP2 SWAP1 PUSH2 0x3159 JUMP JUMPDEST PUSH1 0x0 PUSH1 0x40 MLOAD DUP1 DUP4 SUB DUP2 DUP6 DUP8 GAS CALL SWAP3 POP POP POP RETURNDATASIZE DUP1 PUSH1 0x0 DUP2 EQ PUSH2 0x2CB9 JUMPI PUSH1 0x40 MLOAD SWAP2 POP PUSH1 0x1F NOT PUSH1 0x3F RETURNDATASIZE ADD AND DUP3 ADD PUSH1 0x40 MSTORE RETURNDATASIZE DUP3 MSTORE RETURNDATASIZE PUSH1 0x0 PUSH1 0x20 DUP5 ADD RETURNDATACOPY PUSH2 0x2CBE JUMP JUMPDEST PUSH1 0x60 SWAP2 POP JUMPDEST POP SWAP2 POP SWAP2 POP PUSH2 0x2CCF DUP8 DUP4 DUP4 DUP8 PUSH2 0x2D3E JUMP JUMPDEST SWAP8 SWAP7 POP POP POP POP POP POP POP JUMP JUMPDEST PUSH1 0x40 MLOAD PUSH20 0xFFFFFFFFFFFFFFFFFFFFFFFFFFFFFFFFFFFFFFFF DUP1 DUP6 AND PUSH1 0x24 DUP4 ADD MSTORE DUP4 AND PUSH1 0x44 DUP3 ADD MSTORE PUSH1 0x64 DUP2 ADD DUP3 SWAP1 MSTORE PUSH2 0x2D38 SWAP1 DUP6 SWAP1 PUSH32 0x23B872DD00000000000000000000000000000000000000000000000000000000 SWAP1 PUSH1 0x84 ADD PUSH2 0x12C8 JUMP JUMPDEST POP POP POP POP JUMP JUMPDEST PUSH1 0x60 DUP4 ISZERO PUSH2 0x2DD1 JUMPI DUP3 MLOAD PUSH2 0x2DCA JUMPI PUSH20 0xFFFFFFFFFFFFFFFFFFFFFFFFFFFFFFFFFFFFFFFF DUP6 AND EXTCODESIZE PUSH2 0x2DCA JUMPI PUSH1 0x40 MLOAD PUSH32 0x8C379A000000000000000000000000000000000000000000000000000000000 DUP2 MSTORE PUSH1 0x20 PUSH1 0x4 DUP3 ADD MSTORE PUSH1 0x1D PUSH1 0x24 DUP3 ADD MSTORE PUSH32 0x416464726573733A2063616C6C20746F206E6F6E2D636F6E7472616374000000 PUSH1 0x44 DUP3 ADD MSTORE PUSH1 0x64 ADD PUSH2 0x2E2 JUMP JUMPDEST POP DUP2 PUSH2 0x1B8B JUMP JUMPDEST PUSH2 0x1B8B DUP4 DUP4 DUP2 MLOAD ISZERO PUSH2 0x2DE6 JUMPI DUP2 MLOAD DUP1 DUP4 PUSH1 0x20 ADD REVERT JUMPDEST DUP1 PUSH1 0x40 MLOAD PUSH32 0x8C379A000000000000000000000000000000000000000000000000000000000 DUP2 MSTORE PUSH1 0x4 ADD PUSH2 0x2E2 SWAP2 SWAP1 PUSH2 0x31BF JUMP JUMPDEST PUSH20 0xFFFFFFFFFFFFFFFFFFFFFFFFFFFFFFFFFFFFFFFF DUP2 AND DUP2 EQ PUSH2 0x972 JUMPI PUSH1 0x0 DUP1 REVERT JUMPDEST PUSH32 0x4E487B7100000000000000000000000000000000000000000000000000000000 PUSH1 0x0 MSTORE PUSH1 0x41 PUSH1 0x4 MSTORE PUSH1 0x24 PUSH1 0x0 REVERT JUMPDEST PUSH1 0x0 DUP3 PUSH1 0x1F DUP4 ADD SLT PUSH2 0x2E7C JUMPI PUSH1 0x0 DUP1 REVERT JUMPDEST DUP2 CALLDATALOAD PUSH8 0xFFFFFFFFFFFFFFFF DUP1 DUP3 GT ISZERO PUSH2 0x2E97 JUMPI PUSH2 0x2E97 PUSH2 0x2E3C JUMP JUMPDEST PUSH1 0x40 MLOAD PUSH1 0x1F DUP4 ADD PUSH32 0xFFFFFFFFFFFFFFFFFFFFFFFFFFFFFFFFFFFFFFFFFFFFFFFFFFFFFFFFFFFFFFE0 SWAP1 DUP2 AND PUSH1 0x3F ADD AND DUP2 ADD SWAP1 DUP3 DUP3 GT DUP2 DUP4 LT OR ISZERO PUSH2 0x2EDD JUMPI PUSH2 0x2EDD PUSH2 0x2E3C JUMP JUMPDEST DUP2 PUSH1 0x40 MSTORE DUP4 DUP2 MSTORE DUP7 PUSH1 0x20 DUP6 DUP9 ADD ADD GT ISZERO PUSH2 0x2EF6 JUMPI PUSH1 0x0 DUP1 REVERT JUMPDEST DUP4 PUSH1 0x20 DUP8 ADD PUSH1 0x20 DUP4 ADD CALLDATACOPY PUSH1 0x0 PUSH1 0x20 DUP6 DUP4 ADD ADD MSTORE DUP1 SWAP5 POP POP POP POP POP SWAP3 SWAP2 POP POP JUMP JUMPDEST PUSH1 0x0 DUP1 PUSH1 0x0 DUP1 PUSH1 0x0 DUP1 PUSH1 0xC0 DUP8 DUP10 SUB SLT ISZERO PUSH2 0x2F2F JUMPI PUSH1 0x0 DUP1 REVERT JUMPDEST DUP7 CALLDATALOAD PUSH2 0x2F3A DUP2 PUSH2 0x2E1A JUMP JUMPDEST SWAP6 POP PUSH1 0x20 DUP8 ADD CALLDATALOAD SWAP5 POP PUSH1 0x40 DUP8 ADD CALLDATALOAD PUSH2 0x2F51 DUP2 PUSH2 0x2E1A JUMP JUMPDEST SWAP4 POP PUSH1 0x60 DUP8 ADD CALLDATALOAD SWAP3 POP PUSH1 0x80 DUP8 ADD CALLDATALOAD PUSH2 0x2F68 DUP2 PUSH2 0x2E1A JUMP JUMPDEST SWAP2 POP PUSH1 0xA0 DUP8 ADD CALLDATALOAD PUSH8 0xFFFFFFFFFFFFFFFF DUP2 GT ISZERO PUSH2 0x2F84 JUMPI PUSH1 0x0 DUP1 REVERT JUMPDEST PUSH2 0x2F90 DUP10 DUP3 DUP11 ADD PUSH2 0x2E6B JUMP JUMPDEST SWAP2 POP POP SWAP3 SWAP6 POP SWAP3 SWAP6 POP SWAP3 SWAP6 JUMP JUMPDEST PUSH1 0x0 DUP1 PUSH1 0x0 DUP1 PUSH1 0x0 DUP1 PUSH1 0x0 DUP1 PUSH2 0x100 DUP10 DUP12 SUB SLT ISZERO PUSH2 0x2FBA JUMPI PUSH1 0x0 DUP1 REVERT JUMPDEST DUP9 CALLDATALOAD PUSH2 0x2FC5 DUP2 PUSH2 0x2E1A JUMP JUMPDEST SWAP8 POP PUSH1 0x20 DUP10 ADD CALLDATALOAD SWAP7 POP PUSH1 0x40 DUP10 ADD CALLDATALOAD PUSH2 0x2FDC DUP2 PUSH2 0x2E1A JUMP JUMPDEST SWAP6 POP PUSH1 0x60 DUP10 ADD CALLDATALOAD SWAP5 POP PUSH1 0x80 DUP10 ADD CALLDATALOAD PUSH2 0x2FF3 DUP2 PUSH2 0x2E1A JUMP JUMPDEST SWAP4 POP PUSH1 0xA0 DUP10 ADD CALLDATALOAD SWAP3 POP PUSH1 0xC0 DUP10 ADD CALLDATALOAD PUSH2 0x300A DUP2 PUSH2 0x2E1A JUMP JUMPDEST SWAP2 POP PUSH1 0xE0 DUP10 ADD CALLDATALOAD PUSH8 0xFFFFFFFFFFFFFFFF DUP2 GT ISZERO PUSH2 0x3026 JUMPI PUSH1 0x0 DUP1 REVERT JUMPDEST PUSH2 0x3032 DUP12 DUP3 DUP13 ADD PUSH2 0x2E6B JUMP JUMPDEST SWAP2 POP POP SWAP3 SWAP6 SWAP9 POP SWAP3 SWAP6 SWAP9 SWAP1 SWAP4 SWAP7 POP JUMP JUMPDEST DUP1 ISZERO ISZERO DUP2 EQ PUSH2 0x972 JUMPI PUSH1 0x0 DUP1 REVERT JUMPDEST PUSH1 0x0 DUP1 PUSH1 0x40 DUP4 DUP6 SUB SLT ISZERO PUSH2 0x3063 JUMPI PUSH1 0x0 DUP1 REVERT JUMPDEST DUP3 CALLDATALOAD PUSH2 0x306E DUP2 PUSH2 0x2E1A JUMP JUMPDEST SWAP2 POP PUSH1 0x20 DUP4 ADD CALLDATALOAD PUSH2 0x307E DUP2 PUSH2 0x3042 JUMP JUMPDEST DUP1 SWAP2 POP POP SWAP3 POP SWAP3 SWAP1 POP JUMP JUMPDEST PUSH1 0x0 PUSH1 0x20 DUP3 DUP5 SUB SLT ISZERO PUSH2 0x309B JUMPI PUSH1 0x0 DUP1 REVERT JUMPDEST DUP2 CALLDATALOAD PUSH2 0x30A6 DUP2 PUSH2 0x2E1A JUMP JUMPDEST SWAP4 SWAP3 POP POP POP JUMP JUMPDEST PUSH1 0x0 DUP1 PUSH1 0x0 DUP1 PUSH1 0x60 DUP6 DUP8 SUB SLT ISZERO PUSH2 0x30C3 JUMPI PUSH1 0x0 DUP1 REVERT JUMPDEST DUP5 CALLDATALOAD SWAP4 POP PUSH1 0x20 DUP6 ADD CALLDATALOAD SWAP3 POP PUSH1 0x40 DUP6 ADD CALLDATALOAD PUSH8 0xFFFFFFFFFFFFFFFF DUP1 DUP3 GT ISZERO PUSH2 0x30E9 JUMPI PUSH1 0x0 DUP1 REVERT JUMPDEST DUP2 DUP8 ADD SWAP2 POP DUP8 PUSH1 0x1F DUP4 ADD SLT PUSH2 0x30FD JUMPI PUSH1 0x0 DUP1 REVERT JUMPDEST DUP2 CALLDATALOAD DUP2 DUP2 GT ISZERO PUSH2 0x310C JUMPI PUSH1 0x0 DUP1 REVERT JUMPDEST DUP9 PUSH1 0x20 DUP3 DUP6 ADD ADD GT ISZERO PUSH2 0x311E JUMPI PUSH1 0x0 DUP1 REVERT JUMPDEST SWAP6 SWAP9 SWAP5 SWAP8 POP POP PUSH1 0x20 ADD SWAP5 POP POP POP JUMP JUMPDEST PUSH1 0x0 JUMPDEST DUP4 DUP2 LT ISZERO PUSH2 0x3148 JUMPI DUP2 DUP2 ADD MLOAD DUP4 DUP3 ADD MSTORE PUSH1 0x20 ADD PUSH2 0x3130 JUMP JUMPDEST DUP4 DUP2 GT ISZERO PUSH2 0x2D38 JUMPI POP POP PUSH1 0x0 SWAP2 ADD MSTORE JUMP JUMPDEST PUSH1 0x0 DUP3 MLOAD PUSH2 0x316B DUP2 DUP5 PUSH1 0x20 DUP8 ADD PUSH2 0x312D JUMP JUMPDEST SWAP2 SWAP1 SWAP2 ADD SWAP3 SWAP2 POP POP JUMP JUMPDEST PUSH1 0x0 DUP2 MLOAD DUP1 DUP5 MSTORE PUSH2 0x318D DUP2 PUSH1 0x20 DUP7 ADD PUSH1 0x20 DUP7 ADD PUSH2 0x312D JUMP JUMPDEST PUSH1 0x1F ADD PUSH32 0xFFFFFFFFFFFFFFFFFFFFFFFFFFFFFFFFFFFFFFFFFFFFFFFFFFFFFFFFFFFFFFE0 AND SWAP3 SWAP1 SWAP3 ADD PUSH1 0x20 ADD SWAP3 SWAP2 POP POP JUMP JUMPDEST PUSH1 0x20 DUP2 MSTORE PUSH1 0x0 PUSH2 0x30A6 PUSH1 0x20 DUP4 ADD DUP5 PUSH2 0x3175 JUMP JUMPDEST PUSH1 0x0 PUSH1 0x20 DUP3 DUP5 SUB SLT ISZERO PUSH2 0x31E4 JUMPI PUSH1 0x0 DUP1 REVERT JUMPDEST POP MLOAD SWAP2 SWAP1 POP JUMP JUMPDEST PUSH32 0x4E487B7100000000000000000000000000000000000000000000000000000000 PUSH1 0x0 MSTORE PUSH1 0x11 PUSH1 0x4 MSTORE PUSH1 0x24 PUSH1 0x0 REVERT JUMPDEST PUSH1 0x0 DUP3 NOT DUP3 GT ISZERO PUSH2 0x322D JUMPI PUSH2 0x322D PUSH2 0x31EB JUMP JUMPDEST POP ADD SWAP1 JUMP JUMPDEST PUSH1 0x0 DUP3 DUP3 LT ISZERO PUSH2 0x3244 JUMPI PUSH2 0x3244 PUSH2 0x31EB JUMP JUMPDEST POP SUB SWAP1 JUMP JUMPDEST PUSH1 0x0 PUSH1 0x20 DUP3 DUP5 SUB SLT ISZERO PUSH2 0x325B JUMPI PUSH1 0x0 DUP1 REVERT JUMPDEST DUP2 MLOAD PUSH2 0x30A6 DUP2 PUSH2 0x3042 JUMP JUMPDEST DUP1 MLOAD PUSH14 0xFFFFFFFFFFFFFFFFFFFFFFFFFFFF DUP2 AND DUP2 EQ PUSH2 0x3284 JUMPI PUSH1 0x0 DUP1 REVERT JUMPDEST SWAP2 SWAP1 POP JUMP JUMPDEST PUSH1 0x0 DUP1 PUSH1 0x0 PUSH1 0x60 DUP5 DUP7 SUB SLT ISZERO PUSH2 0x329E JUMPI PUSH1 0x0 DUP1 REVERT JUMPDEST PUSH2 0x32A7 DUP5 PUSH2 0x3266 JUMP JUMPDEST SWAP3 POP PUSH2 0x32B5 PUSH1 0x20 DUP6 ADD PUSH2 0x3266 JUMP JUMPDEST SWAP2 POP PUSH1 0x40 DUP5 ADD MLOAD PUSH4 0xFFFFFFFF DUP2 AND DUP2 EQ PUSH2 0x32CE JUMPI PUSH1 0x0 DUP1 REVERT JUMPDEST DUP1 SWAP2 POP POP SWAP3 POP SWAP3 POP SWAP3 JUMP JUMPDEST PUSH1 0x0 DUP2 PUSH32 0xFFFFFFFFFFFFFFFFFFFFFFFFFFFFFFFFFFFFFFFFFFFFFFFFFFFFFFFFFFFFFFFF DIV DUP4 GT DUP3 ISZERO ISZERO AND ISZERO PUSH2 0x3311 JUMPI PUSH2 0x3311 PUSH2 0x31EB JUMP JUMPDEST POP MUL SWAP1 JUMP JUMPDEST PUSH1 0x0 DUP3 PUSH2 0x334C JUMPI PUSH32 0x4E487B7100000000000000000000000000000000000000000000000000000000 PUSH1 0x0 MSTORE PUSH1 0x12 PUSH1 0x4 MSTORE PUSH1 0x24 PUSH1 0x0 REVERT JUMPDEST POP DIV SWAP1 JUMP JUMPDEST DUP5 DUP2 MSTORE DUP4 PUSH1 0x20 DUP3 ADD MSTORE PUSH20 0xFFFFFFFFFFFFFFFFFFFFFFFFFFFFFFFFFFFFFFFF DUP4 AND PUSH1 0x40 DUP3 ADD MSTORE PUSH1 0x80 PUSH1 0x60 DUP3 ADD MSTORE PUSH1 0x0 PUSH2 0x338C PUSH1 0x80 DUP4 ADD DUP5 PUSH2 0x3175 JUMP JUMPDEST SWAP7 SWAP6 POP POP POP POP POP POP JUMP JUMPDEST PUSH1 0x0 PUSH20 0xFFFFFFFFFFFFFFFFFFFFFFFFFFFFFFFFFFFFFFFF DUP4 DUP2 AND SWAP1 DUP4 AND DUP2 DUP2 LT ISZERO PUSH2 0x33C3 JUMPI PUSH2 0x33C3 PUSH2 0x31EB JUMP JUMPDEST SUB SWAP4 SWAP3 POP POP POP JUMP JUMPDEST PUSH1 0x0 PUSH20 0xFFFFFFFFFFFFFFFFFFFFFFFFFFFFFFFFFFFFFFFF DUP1 DUP4 AND DUP2 DUP6 AND DUP1 DUP4 SUB DUP3 GT ISZERO PUSH2 0x33FA JUMPI PUSH2 0x33FA PUSH2 0x31EB JUMP JUMPDEST ADD SWAP5 SWAP4 POP POP POP POP JUMP JUMPDEST PUSH1 0x0 PUSH20 0xFFFFFFFFFFFFFFFFFFFFFFFFFFFFFFFFFFFFFFFF DUP1 DUP9 AND DUP4 MSTORE DUP7 ISZERO ISZERO PUSH1 0x20 DUP5 ADD MSTORE DUP6 PUSH1 0x40 DUP5 ADD MSTORE DUP1 DUP6 AND PUSH1 0x60 DUP5 ADD MSTORE POP PUSH1 0xA0 PUSH1 0x80 DUP4 ADD MSTORE PUSH2 0x2CCF PUSH1 0xA0 DUP4 ADD DUP5 PUSH2 0x3175 JUMP JUMPDEST PUSH1 0x0 DUP1 PUSH1 0x40 DUP4 DUP6 SUB SLT ISZERO PUSH2 0x345D JUMPI PUSH1 0x0 DUP1 REVERT JUMPDEST POP POP DUP1 MLOAD PUSH1 0x20 SWAP1 SWAP2 ADD MLOAD SWAP1 SWAP3 SWAP1 SWAP2 POP JUMP JUMPDEST DUP1 MLOAD PUSH16 0xFFFFFFFFFFFFFFFFFFFFFFFFFFFFFFFF DUP2 AND DUP2 EQ PUSH2 0x3284 JUMPI PUSH1 0x0 DUP1 REVERT JUMPDEST PUSH1 0x0 PUSH1 0x40 DUP3 DUP5 SUB SLT ISZERO PUSH2 0x34A0 JUMPI PUSH1 0x0 DUP1 REVERT JUMPDEST PUSH1 0x40 MLOAD PUSH1 0x40 DUP2 ADD DUP2 DUP2 LT PUSH8 0xFFFFFFFFFFFFFFFF DUP3 GT OR ISZERO PUSH2 0x34C3 JUMPI PUSH2 0x34C3 PUSH2 0x2E3C JUMP JUMPDEST PUSH1 0x40 MSTORE PUSH2 0x34CF DUP4 PUSH2 0x346E JUMP JUMPDEST DUP2 MSTORE PUSH2 0x34DD PUSH1 0x20 DUP5 ADD PUSH2 0x346E JUMP JUMPDEST PUSH1 0x20 DUP3 ADD MSTORE SWAP4 SWAP3 POP POP POP JUMP JUMPDEST DUP1 MLOAD PUSH8 0xFFFFFFFFFFFFFFFF DUP2 AND DUP2 EQ PUSH2 0x3284 JUMPI PUSH1 0x0 DUP1 REVERT JUMPDEST PUSH1 0x0 PUSH1 0x60 DUP3 DUP5 SUB SLT ISZERO PUSH2 0x3513 JUMPI PUSH1 0x0 DUP1 REVERT JUMPDEST PUSH1 0x40 MLOAD PUSH1 0x60 DUP2 ADD DUP2 DUP2 LT PUSH8 0xFFFFFFFFFFFFFFFF DUP3 GT OR ISZERO PUSH2 0x3536 JUMPI PUSH2 0x3536 PUSH2 0x2E3C JUMP JUMPDEST PUSH1 0x40 MSTORE PUSH2 0x3542 DUP4 PUSH2 0x34E9 JUMP JUMPDEST DUP2 MSTORE PUSH2 0x3550 PUSH1 0x20 DUP5 ADD PUSH2 0x34E9 JUMP JUMPDEST PUSH1 0x20 DUP3 ADD MSTORE PUSH2 0x3561 PUSH1 0x40 DUP5 ADD PUSH2 0x346E JUMP JUMPDEST PUSH1 0x40 DUP3 ADD MSTORE SWAP4 SWAP3 POP POP POP JUMP INVALID LOG2 PUSH5 0x6970667358 0x22 SLT KECCAK256 CALLDATALOAD DIFFICULTY JUMP LOG1 0xD8 0xBD 0xD3 0xDD SWAP7 0xDE 0xC0 0xAF 0xD1 PUSH1 0x2B 0x5F 0xDE SWAP2 CREATE 0xD 0xA7 0xBB 0x5F 0x2C 0xCF DUP11 0xF6 DUP8 0xB2 EQ EQ 0x4E PUSH5 0x736F6C6343 STOP ADDMOD EXP STOP CALLER "},"gasEstimates":{"creation":{"codeDepositCost":"2746200","executionCost":"infinite","totalCost":"infinite"},"external":{"bentoBox()":"infinite","owner()":"2330","pause()":"28774","processRoute(address,uint256,address,uint256,address,bytes)":"infinite","renounceOwnership()":"infinite","resume()":"28731","setPriviledge(address,bool)":"infinite","transferOwnership(address)":"infinite","transferValueAndprocessRoute(address,uint256,address,uint256,address,uint256,address,bytes)":"infinite","uniswapV3SwapCallback(int256,int256,bytes)":"infinite"},"internal":{"applyPermit(address,uint256)":"infinite","bentoBridge(uint256,address,address,uint256)":"infinite","distributeAndSwap(uint256,address,address,uint256)":"infinite","processInsideBento(uint256)":"infinite","processMyERC20(uint256)":"infinite","processNative(uint256)":"infinite","processOnePool(uint256)":"infinite","processRouteInternal(address,uint256,address,uint256,address,bytes memory)":"infinite","processUserERC20(uint256,uint256)":"infinite","swap(uint256,address,address,uint256)":"infinite","swapTrident(uint256,address,address,uint256)":"infinite","swapUniV2(uint256,address,address,uint256)":"infinite","swapUniV3(uint256,address,address,uint256)":"infinite","wrapNative(uint256,address,address,uint256)":"infinite"}},"methodIdentifiers":{"bentoBox()":"6b2ace87","owner()":"8da5cb5b","pause()":"8456cb59","processRoute(address,uint256,address,uint256,address,bytes)":"2646478b","renounceOwnership()":"715018a6","resume()":"046f7da2","setPriviledge(address,bool)":"9a1f3406","transferOwnership(address)":"f2fde38b","transferValueAndprocessRoute(address,uint256,address,uint256,address,uint256,address,bytes)":"93b3774c","uniswapV3SwapCallback(int256,int256,bytes)":"fa461e33"}},"storageLayout":{"storage":[{"astId":7,"contract":"contracts/RouteProcessor3.sol:RouteProcessor3","label":"_owner","offset":0,"slot":"0","type":"t_address"},{"astId":2194,"contract":"contracts/RouteProcessor3.sol:RouteProcessor3","label":"priviledgedUsers","offset":0,"slot":"1","type":"t_mapping(t_address,t_bool)"},{"astId":2196,"contract":"contracts/RouteProcessor3.sol:RouteProcessor3","label":"lastCalledPool","offset":0,"slot":"2","type":"t_address"},{"astId":2199,"contract":"contracts/RouteProcessor3.sol:RouteProcessor3","label":"unlocked","offset":20,"slot":"2","type":"t_uint8"},{"astId":2202,"contract":"contracts/RouteProcessor3.sol:RouteProcessor3","label":"paused","offset":21,"slot":"2","type":"t_uint8"}],"types":{"t_address":{"encoding":"inplace","label":"address","numberOfBytes":"20"},"t_bool":{"encoding":"inplace","label":"bool","numberOfBytes":"1"},"t_mapping(t_address,t_bool)":{"encoding":"mapping","key":"t_address","label":"mapping(address => bool)","numberOfBytes":"32","value":"t_bool"},"t_uint8":{"encoding":"inplace","label":"uint8","numberOfBytes":"1"}}},"userdoc":{"kind":"user","methods":{"processRoute(address,uint256,address,uint256,address,bytes)":{"notice":"Processes the route generated off-chain. Has a lock"},"transferValueAndprocessRoute(address,uint256,address,uint256,address,uint256,address,bytes)":{"notice":"Transfers some value to <transferValueTo> and then processes the route"},"uniswapV3SwapCallback(int256,int256,bytes)":{"notice":"Called to `msg.sender` after executing a swap via IUniswapV3Pool#swap."}},"version":1}}}}