{"contracts/TestRouter.sol":{"TestRouter":{"abi":[{"inputs":[{"internalType":"contract IUniswapV3Pool","name":"pool","type":"address"},{"internalType":"int24","name":"tickLower","type":"int24"},{"internalType":"int24","name":"tickUpper","type":"int24"},{"internalType":"uint128","name":"amount","type":"uint128"}],"name":"mint","outputs":[{"internalType":"uint256","name":"","type":"uint256"},{"internalType":"uint256","name":"","type":"uint256"}],"stateMutability":"nonpayable","type":"function"},{"inputs":[{"internalType":"contract IUniswapV3Pool","name":"pool","type":"address"},{"internalType":"bool","name":"zeroForOne","type":"bool"},{"internalType":"int256","name":"amountSpecified","type":"int256"}],"name":"swap","outputs":[{"internalType":"int256","name":"","type":"int256"},{"internalType":"int256","name":"","type":"int256"}],"stateMutability":"nonpayable","type":"function"},{"inputs":[{"internalType":"uint256","name":"amount0Owed","type":"uint256"},{"internalType":"uint256","name":"amount1Owed","type":"uint256"},{"internalType":"bytes","name":"data","type":"bytes"}],"name":"uniswapV3MintCallback","outputs":[],"stateMutability":"nonpayable","type":"function"},{"inputs":[{"internalType":"int256","name":"amount0Delta","type":"int256"},{"internalType":"int256","name":"amount1Delta","type":"int256"},{"internalType":"bytes","name":"data","type":"bytes"}],"name":"uniswapV3SwapCallback","outputs":[],"stateMutability":"nonpayable","type":"function"}],"devdoc":{"details":"DO NOT USE IN PRODUCTION. This is only intended to be used for         tests and lacks slippage and callback caller checks.","kind":"dev","methods":{"uniswapV3MintCallback(uint256,uint256,bytes)":{"details":"In the implementation you must pay the pool tokens owed for the minted liquidity. The caller of this method must be checked to be a UniswapV3Pool deployed by the canonical UniswapV3Factory.","params":{"amount0Owed":"The amount of token0 due to the pool for the minted liquidity","amount1Owed":"The amount of token1 due to the pool for the minted liquidity","data":"Any data passed through by the caller via the IUniswapV3PoolActions#mint call"}},"uniswapV3SwapCallback(int256,int256,bytes)":{"details":"In the implementation you must pay the pool tokens owed for the swap. The caller of this method must be checked to be a UniswapV3Pool deployed by the canonical UniswapV3Factory. amount0Delta and amount1Delta can both be 0 if no tokens were swapped.","params":{"amount0Delta":"The amount of token0 that was sent (negative) or must be received (positive) by the pool by the end of the swap. If positive, the callback must send that amount of token0 to the pool.","amount1Delta":"The amount of token1 that was sent (negative) or must be received (positive) by the pool by the end of the swap. If positive, the callback must send that amount of token1 to the pool.","data":"Any data passed through by the caller via the IUniswapV3PoolActions#swap call"}}},"stateVariables":{"MAX_SQRT_RATIO":{"details":"The maximum value that can be returned from #getSqrtRatioAtTick. Equivalent to getSqrtRatioAtTick(MAX_TICK)"},"MIN_SQRT_RATIO":{"details":"The minimum value that can be returned from #getSqrtRatioAtTick. Equivalent to getSqrtRatioAtTick(MIN_TICK)"}},"title":"TestRouter","version":1},"evm":{"bytecode":{"linkReferences":{},"object":"608060405234801561001057600080fd5b50610d6d806100206000396000f3fe608060405234801561001057600080fd5b506004361061004c5760003560e01c80635b71a46e14610051578063b8cca34e1461007d578063d348799714610090578063fa461e33146100a5575b600080fd5b61006461005f366004610911565b6100b8565b6040805192835260208301919091520160405180910390f35b61006461008b366004610961565b61019b565b6100a361009e366004610a1b565b61040d565b005b6100a36100b3366004610a1b565b61041f565b6000808473ffffffffffffffffffffffffffffffffffffffff1663128acb0833868688610103576100fe600173fffd8963efd1fc6a506488495d951d5263988d26610a9d565b610113565b6101136401000276a36001610ad2565b60408051336020820152016040516020818303038152906040526040518663ffffffff1660e01b815260040161014d959493929190610b80565b60408051808303816000875af115801561016b573d6000803e3d6000fd5b505050506040513d601f19601f8201168201806040525081019061018f9190610bc7565b91509150935093915050565b60008060008673ffffffffffffffffffffffffffffffffffffffff1663d0c93a7c6040518163ffffffff1660e01b8152600401602060405180830381865afa1580156101eb573d6000803e3d6000fd5b505050506040513d601f19601f8201168201806040525081019061020f9190610beb565b905061021b8187610c0f565b60020b156102b0576040517f08c379a000000000000000000000000000000000000000000000000000000000815260206004820152602b60248201527f7469636b4c6f776572206d7573742062652061206d756c7469706c65206f662060448201527f7469636b53706163696e6700000000000000000000000000000000000000000060648201526084015b60405180910390fd5b6102ba8186610c0f565b60020b1561034a576040517f08c379a000000000000000000000000000000000000000000000000000000000815260206004820152602b60248201527f7469636b5570706572206d7573742062652061206d756c7469706c65206f662060448201527f7469636b53706163696e6700000000000000000000000000000000000000000060648201526084016102a7565b6040805133602080830182905283518084039091018152828401938490527f3c8a7d8d0000000000000000000000000000000000000000000000000000000090935273ffffffffffffffffffffffffffffffffffffffff8a1692633c8a7d8d926103bd92918b918b918b91604401610c58565b60408051808303816000875af11580156103db573d6000803e3d6000fd5b505050506040513d601f19601f820116820180604052508101906103ff9190610bc7565b925092505094509492505050565b6104198484848461045b565b50505050565b600080851361042f576000610431565b845b90506000808513610443576000610445565b845b90506104538282868661045b565b505050505050565b33600061046a83850185610cb1565b90506104ff8133888573ffffffffffffffffffffffffffffffffffffffff16630dfe16816040518163ffffffff1660e01b8152600401602060405180830381865afa1580156104bd573d6000803e3d6000fd5b505050506040513d601f19601f820116820180604052508101906104e19190610cce565b73ffffffffffffffffffffffffffffffffffffffff16929190610550565b6104538133878573ffffffffffffffffffffffffffffffffffffffff1663d21220a76040518163ffffffff1660e01b8152600401602060405180830381865afa1580156104bd573d6000803e3d6000fd5b6040805173ffffffffffffffffffffffffffffffffffffffff8581166024830152848116604483015260648083018590528351808403909101815260849092018352602080830180517bffffffffffffffffffffffffffffffffffffffffffffffffffffffff167f23b872dd0000000000000000000000000000000000000000000000000000000017905283518085019094528084527f5361666545524332303a206c6f772d6c6576656c2063616c6c206661696c656490840152610419928792916000916106239185169084906106d2565b8051909150156106cd57808060200190518101906106419190610ceb565b6106cd576040517f08c379a000000000000000000000000000000000000000000000000000000000815260206004820152602a60248201527f5361666545524332303a204552433230206f7065726174696f6e20646964206e60448201527f6f7420737563636565640000000000000000000000000000000000000000000060648201526084016102a7565b505050565b60606106e184846000856106e9565b949350505050565b60608247101561077b576040517f08c379a000000000000000000000000000000000000000000000000000000000815260206004820152602660248201527f416464726573733a20696e73756666696369656e742062616c616e636520666f60448201527f722063616c6c000000000000000000000000000000000000000000000000000060648201526084016102a7565b6000808673ffffffffffffffffffffffffffffffffffffffff1685876040516107a49190610d08565b60006040518083038185875af1925050503d80600081146107e1576040519150601f19603f3d011682016040523d82523d6000602084013e6107e6565b606091505b50915091506107f787838387610802565b979650505050505050565b6060831561089557825161088e5773ffffffffffffffffffffffffffffffffffffffff85163b61088e576040517f08c379a000000000000000000000000000000000000000000000000000000000815260206004820152601d60248201527f416464726573733a2063616c6c20746f206e6f6e2d636f6e747261637400000060448201526064016102a7565b50816106e1565b6106e183838151156108aa5781518083602001fd5b806040517f08c379a00000000000000000000000000000000000000000000000000000000081526004016102a79190610d24565b73ffffffffffffffffffffffffffffffffffffffff8116811461090057600080fd5b50565b801515811461090057600080fd5b60008060006060848603121561092657600080fd5b8335610931816108de565b9250602084013561094181610903565b929592945050506040919091013590565b8060020b811461090057600080fd5b6000806000806080858703121561097757600080fd5b8435610982816108de565b9350602085013561099281610952565b925060408501356109a281610952565b915060608501356fffffffffffffffffffffffffffffffff811681146109c757600080fd5b939692955090935050565b60008083601f8401126109e457600080fd5b50813567ffffffffffffffff8111156109fc57600080fd5b602083019150836020828501011115610a1457600080fd5b9250929050565b60008060008060608587031215610a3157600080fd5b8435935060208501359250604085013567ffffffffffffffff811115610a5657600080fd5b610a62878288016109d2565b95989497509550505050565b7f4e487b7100000000000000000000000000000000000000000000000000000000600052601160045260246000fd5b600073ffffffffffffffffffffffffffffffffffffffff83811690831681811015610aca57610aca610a6e565b039392505050565b600073ffffffffffffffffffffffffffffffffffffffff808316818516808303821115610b0157610b01610a6e565b01949350505050565b60005b83811015610b25578181015183820152602001610b0d565b838111156104195750506000910152565b60008151808452610b4e816020860160208601610b0a565b601f017fffffffffffffffffffffffffffffffffffffffffffffffffffffffffffffffe0169290920160200192915050565b600073ffffffffffffffffffffffffffffffffffffffff8088168352861515602084015285604084015280851660608401525060a060808301526107f760a0830184610b36565b60008060408385031215610bda57600080fd5b505080516020909101519092909150565b600060208284031215610bfd57600080fd5b8151610c0881610952565b9392505050565b60008260020b80610c49577f4e487b7100000000000000000000000000000000000000000000000000000000600052601260045260246000fd5b808360020b0791505092915050565b73ffffffffffffffffffffffffffffffffffffffff861681528460020b60208201528360020b60408201526fffffffffffffffffffffffffffffffff8316606082015260a0608082015260006107f760a0830184610b36565b600060208284031215610cc357600080fd5b8135610c08816108de565b600060208284031215610ce057600080fd5b8151610c08816108de565b600060208284031215610cfd57600080fd5b8151610c0881610903565b60008251610d1a818460208701610b0a565b9190910192915050565b602081526000610c086020830184610b3656fea2646970667358221220add673d7d6a7804ba9ace362a6ad647ddf99cb7969c2ccebf6916e1ed98cd68964736f6c634300080a0033","opcodes":"PUSH1 0x80 PUSH1 0x40 MSTORE CALLVALUE DUP1 ISZERO PUSH2 0x10 JUMPI PUSH1 0x0 DUP1 REVERT JUMPDEST POP PUSH2 0xD6D DUP1 PUSH2 0x20 PUSH1 0x0 CODECOPY PUSH1 0x0 RETURN INVALID PUSH1 0x80 PUSH1 0x40 MSTORE CALLVALUE DUP1 ISZERO PUSH2 0x10 JUMPI PUSH1 0x0 DUP1 REVERT JUMPDEST POP PUSH1 0x4 CALLDATASIZE LT PUSH2 0x4C JUMPI PUSH1 0x0 CALLDATALOAD PUSH1 0xE0 SHR DUP1 PUSH4 0x5B71A46E EQ PUSH2 0x51 JUMPI DUP1 PUSH4 0xB8CCA34E EQ PUSH2 0x7D JUMPI DUP1 PUSH4 0xD3487997 EQ PUSH2 0x90 JUMPI DUP1 PUSH4 0xFA461E33 EQ PUSH2 0xA5 JUMPI JUMPDEST PUSH1 0x0 DUP1 REVERT JUMPDEST PUSH2 0x64 PUSH2 0x5F CALLDATASIZE PUSH1 0x4 PUSH2 0x911 JUMP JUMPDEST PUSH2 0xB8 JUMP JUMPDEST PUSH1 0x40 DUP1 MLOAD SWAP3 DUP4 MSTORE PUSH1 0x20 DUP4 ADD SWAP2 SWAP1 SWAP2 MSTORE ADD PUSH1 0x40 MLOAD DUP1 SWAP2 SUB SWAP1 RETURN JUMPDEST PUSH2 0x64 PUSH2 0x8B CALLDATASIZE PUSH1 0x4 PUSH2 0x961 JUMP JUMPDEST PUSH2 0x19B JUMP JUMPDEST PUSH2 0xA3 PUSH2 0x9E CALLDATASIZE PUSH1 0x4 PUSH2 0xA1B JUMP JUMPDEST PUSH2 0x40D JUMP JUMPDEST STOP JUMPDEST PUSH2 0xA3 PUSH2 0xB3 CALLDATASIZE PUSH1 0x4 PUSH2 0xA1B JUMP JUMPDEST PUSH2 0x41F JUMP JUMPDEST PUSH1 0x0 DUP1 DUP5 PUSH20 0xFFFFFFFFFFFFFFFFFFFFFFFFFFFFFFFFFFFFFFFF AND PUSH4 0x128ACB08 CALLER DUP7 DUP7 DUP9 PUSH2 0x103 JUMPI PUSH2 0xFE PUSH1 0x1 PUSH20 0xFFFD8963EFD1FC6A506488495D951D5263988D26 PUSH2 0xA9D JUMP JUMPDEST PUSH2 0x113 JUMP JUMPDEST PUSH2 0x113 PUSH5 0x1000276A3 PUSH1 0x1 PUSH2 0xAD2 JUMP JUMPDEST PUSH1 0x40 DUP1 MLOAD CALLER PUSH1 0x20 DUP3 ADD MSTORE ADD PUSH1 0x40 MLOAD PUSH1 0x20 DUP2 DUP4 SUB SUB DUP2 MSTORE SWAP1 PUSH1 0x40 MSTORE PUSH1 0x40 MLOAD DUP7 PUSH4 0xFFFFFFFF AND PUSH1 0xE0 SHL DUP2 MSTORE PUSH1 0x4 ADD PUSH2 0x14D SWAP6 SWAP5 SWAP4 SWAP3 SWAP2 SWAP1 PUSH2 0xB80 JUMP JUMPDEST PUSH1 0x40 DUP1 MLOAD DUP1 DUP4 SUB DUP2 PUSH1 0x0 DUP8 GAS CALL ISZERO DUP1 ISZERO PUSH2 0x16B JUMPI RETURNDATASIZE PUSH1 0x0 DUP1 RETURNDATACOPY RETURNDATASIZE PUSH1 0x0 REVERT JUMPDEST POP POP POP POP PUSH1 0x40 MLOAD RETURNDATASIZE PUSH1 0x1F NOT PUSH1 0x1F DUP3 ADD AND DUP3 ADD DUP1 PUSH1 0x40 MSTORE POP DUP2 ADD SWAP1 PUSH2 0x18F SWAP2 SWAP1 PUSH2 0xBC7 JUMP JUMPDEST SWAP2 POP SWAP2 POP SWAP4 POP SWAP4 SWAP2 POP POP JUMP JUMPDEST PUSH1 0x0 DUP1 PUSH1 0x0 DUP7 PUSH20 0xFFFFFFFFFFFFFFFFFFFFFFFFFFFFFFFFFFFFFFFF AND PUSH4 0xD0C93A7C PUSH1 0x40 MLOAD DUP2 PUSH4 0xFFFFFFFF AND PUSH1 0xE0 SHL DUP2 MSTORE PUSH1 0x4 ADD PUSH1 0x20 PUSH1 0x40 MLOAD DUP1 DUP4 SUB DUP2 DUP7 GAS STATICCALL ISZERO DUP1 ISZERO PUSH2 0x1EB JUMPI RETURNDATASIZE PUSH1 0x0 DUP1 RETURNDATACOPY RETURNDATASIZE PUSH1 0x0 REVERT JUMPDEST POP POP POP POP PUSH1 0x40 MLOAD RETURNDATASIZE PUSH1 0x1F NOT PUSH1 0x1F DUP3 ADD AND DUP3 ADD DUP1 PUSH1 0x40 MSTORE POP DUP2 ADD SWAP1 PUSH2 0x20F SWAP2 SWAP1 PUSH2 0xBEB JUMP JUMPDEST SWAP1 POP PUSH2 0x21B DUP2 DUP8 PUSH2 0xC0F JUMP JUMPDEST PUSH1 0x2 SIGNEXTEND ISZERO PUSH2 0x2B0 JUMPI PUSH1 0x40 MLOAD PUSH32 0x8C379A000000000000000000000000000000000000000000000000000000000 DUP2 MSTORE PUSH1 0x20 PUSH1 0x4 DUP3 ADD MSTORE PUSH1 0x2B PUSH1 0x24 DUP3 ADD MSTORE PUSH32 0x7469636B4C6F776572206D7573742062652061206D756C7469706C65206F6620 PUSH1 0x44 DUP3 ADD MSTORE PUSH32 0x7469636B53706163696E67000000000000000000000000000000000000000000 PUSH1 0x64 DUP3 ADD MSTORE PUSH1 0x84 ADD JUMPDEST PUSH1 0x40 MLOAD DUP1 SWAP2 SUB SWAP1 REVERT JUMPDEST PUSH2 0x2BA DUP2 DUP7 PUSH2 0xC0F JUMP JUMPDEST PUSH1 0x2 SIGNEXTEND ISZERO PUSH2 0x34A JUMPI PUSH1 0x40 MLOAD PUSH32 0x8C379A000000000000000000000000000000000000000000000000000000000 DUP2 MSTORE PUSH1 0x20 PUSH1 0x4 DUP3 ADD MSTORE PUSH1 0x2B PUSH1 0x24 DUP3 ADD MSTORE PUSH32 0x7469636B5570706572206D7573742062652061206D756C7469706C65206F6620 PUSH1 0x44 DUP3 ADD MSTORE PUSH32 0x7469636B53706163696E67000000000000000000000000000000000000000000 PUSH1 0x64 DUP3 ADD MSTORE PUSH1 0x84 ADD PUSH2 0x2A7 JUMP JUMPDEST PUSH1 0x40 DUP1 MLOAD CALLER PUSH1 0x20 DUP1 DUP4 ADD DUP3 SWAP1 MSTORE DUP4 MLOAD DUP1 DUP5 SUB SWAP1 SWAP2 ADD DUP2 MSTORE DUP3 DUP5 ADD SWAP4 DUP5 SWAP1 MSTORE PUSH32 0x3C8A7D8D00000000000000000000000000000000000000000000000000000000 SWAP1 SWAP4 MSTORE PUSH20 0xFFFFFFFFFFFFFFFFFFFFFFFFFFFFFFFFFFFFFFFF DUP11 AND SWAP3 PUSH4 0x3C8A7D8D SWAP3 PUSH2 0x3BD SWAP3 SWAP2 DUP12 SWAP2 DUP12 SWAP2 DUP12 SWAP2 PUSH1 0x44 ADD PUSH2 0xC58 JUMP JUMPDEST PUSH1 0x40 DUP1 MLOAD DUP1 DUP4 SUB DUP2 PUSH1 0x0 DUP8 GAS CALL ISZERO DUP1 ISZERO PUSH2 0x3DB JUMPI RETURNDATASIZE PUSH1 0x0 DUP1 RETURNDATACOPY RETURNDATASIZE PUSH1 0x0 REVERT JUMPDEST POP POP POP POP PUSH1 0x40 MLOAD RETURNDATASIZE PUSH1 0x1F NOT PUSH1 0x1F DUP3 ADD AND DUP3 ADD DUP1 PUSH1 0x40 MSTORE POP DUP2 ADD SWAP1 PUSH2 0x3FF SWAP2 SWAP1 PUSH2 0xBC7 JUMP JUMPDEST SWAP3 POP SWAP3 POP POP SWAP5 POP SWAP5 SWAP3 POP POP POP JUMP JUMPDEST PUSH2 0x419 DUP5 DUP5 DUP5 DUP5 PUSH2 0x45B JUMP JUMPDEST POP POP POP POP JUMP JUMPDEST PUSH1 0x0 DUP1 DUP6 SGT PUSH2 0x42F JUMPI PUSH1 0x0 PUSH2 0x431 JUMP JUMPDEST DUP5 JUMPDEST SWAP1 POP PUSH1 0x0 DUP1 DUP6 SGT PUSH2 0x443 JUMPI PUSH1 0x0 PUSH2 0x445 JUMP JUMPDEST DUP5 JUMPDEST SWAP1 POP PUSH2 0x453 DUP3 DUP3 DUP7 DUP7 PUSH2 0x45B JUMP JUMPDEST POP POP POP POP POP POP JUMP JUMPDEST CALLER PUSH1 0x0 PUSH2 0x46A DUP4 DUP6 ADD DUP6 PUSH2 0xCB1 JUMP JUMPDEST SWAP1 POP PUSH2 0x4FF DUP2 CALLER DUP9 DUP6 PUSH20 0xFFFFFFFFFFFFFFFFFFFFFFFFFFFFFFFFFFFFFFFF AND PUSH4 0xDFE1681 PUSH1 0x40 MLOAD DUP2 PUSH4 0xFFFFFFFF AND PUSH1 0xE0 SHL DUP2 MSTORE PUSH1 0x4 ADD PUSH1 0x20 PUSH1 0x40 MLOAD DUP1 DUP4 SUB DUP2 DUP7 GAS STATICCALL ISZERO DUP1 ISZERO PUSH2 0x4BD JUMPI RETURNDATASIZE PUSH1 0x0 DUP1 RETURNDATACOPY RETURNDATASIZE PUSH1 0x0 REVERT JUMPDEST POP POP POP POP PUSH1 0x40 MLOAD RETURNDATASIZE PUSH1 0x1F NOT PUSH1 0x1F DUP3 ADD AND DUP3 ADD DUP1 PUSH1 0x40 MSTORE POP DUP2 ADD SWAP1 PUSH2 0x4E1 SWAP2 SWAP1 PUSH2 0xCCE JUMP JUMPDEST PUSH20 0xFFFFFFFFFFFFFFFFFFFFFFFFFFFFFFFFFFFFFFFF AND SWAP3 SWAP2 SWAP1 PUSH2 0x550 JUMP JUMPDEST PUSH2 0x453 DUP2 CALLER DUP8 DUP6 PUSH20 0xFFFFFFFFFFFFFFFFFFFFFFFFFFFFFFFFFFFFFFFF AND PUSH4 0xD21220A7 PUSH1 0x40 MLOAD DUP2 PUSH4 0xFFFFFFFF AND PUSH1 0xE0 SHL DUP2 MSTORE PUSH1 0x4 ADD PUSH1 0x20 PUSH1 0x40 MLOAD DUP1 DUP4 SUB DUP2 DUP7 GAS STATICCALL ISZERO DUP1 ISZERO PUSH2 0x4BD JUMPI RETURNDATASIZE PUSH1 0x0 DUP1 RETURNDATACOPY RETURNDATASIZE PUSH1 0x0 REVERT JUMPDEST PUSH1 0x40 DUP1 MLOAD PUSH20 0xFFFFFFFFFFFFFFFFFFFFFFFFFFFFFFFFFFFFFFFF DUP6 DUP2 AND PUSH1 0x24 DUP4 ADD MSTORE DUP5 DUP2 AND PUSH1 0x44 DUP4 ADD MSTORE PUSH1 0x64 DUP1 DUP4 ADD DUP6 SWAP1 MSTORE DUP4 MLOAD DUP1 DUP5 SUB SWAP1 SWAP2 ADD DUP2 MSTORE PUSH1 0x84 SWAP1 SWAP3 ADD DUP4 MSTORE PUSH1 0x20 DUP1 DUP4 ADD DUP1 MLOAD PUSH28 0xFFFFFFFFFFFFFFFFFFFFFFFFFFFFFFFFFFFFFFFFFFFFFFFFFFFFFFFF AND PUSH32 0x23B872DD00000000000000000000000000000000000000000000000000000000 OR SWAP1 MSTORE DUP4 MLOAD DUP1 DUP6 ADD SWAP1 SWAP5 MSTORE DUP1 DUP5 MSTORE PUSH32 0x5361666545524332303A206C6F772D6C6576656C2063616C6C206661696C6564 SWAP1 DUP5 ADD MSTORE PUSH2 0x419 SWAP3 DUP8 SWAP3 SWAP2 PUSH1 0x0 SWAP2 PUSH2 0x623 SWAP2 DUP6 AND SWAP1 DUP5 SWAP1 PUSH2 0x6D2 JUMP JUMPDEST DUP1 MLOAD SWAP1 SWAP2 POP ISZERO PUSH2 0x6CD JUMPI DUP1 DUP1 PUSH1 0x20 ADD SWAP1 MLOAD DUP2 ADD SWAP1 PUSH2 0x641 SWAP2 SWAP1 PUSH2 0xCEB JUMP JUMPDEST PUSH2 0x6CD JUMPI PUSH1 0x40 MLOAD PUSH32 0x8C379A000000000000000000000000000000000000000000000000000000000 DUP2 MSTORE PUSH1 0x20 PUSH1 0x4 DUP3 ADD MSTORE PUSH1 0x2A PUSH1 0x24 DUP3 ADD MSTORE PUSH32 0x5361666545524332303A204552433230206F7065726174696F6E20646964206E PUSH1 0x44 DUP3 ADD MSTORE PUSH32 0x6F74207375636365656400000000000000000000000000000000000000000000 PUSH1 0x64 DUP3 ADD MSTORE PUSH1 0x84 ADD PUSH2 0x2A7 JUMP JUMPDEST POP POP POP JUMP JUMPDEST PUSH1 0x60 PUSH2 0x6E1 DUP5 DUP5 PUSH1 0x0 DUP6 PUSH2 0x6E9 JUMP JUMPDEST SWAP5 SWAP4 POP POP POP POP JUMP JUMPDEST PUSH1 0x60 DUP3 SELFBALANCE LT ISZERO PUSH2 0x77B JUMPI PUSH1 0x40 MLOAD PUSH32 0x8C379A000000000000000000000000000000000000000000000000000000000 DUP2 MSTORE PUSH1 0x20 PUSH1 0x4 DUP3 ADD MSTORE PUSH1 0x26 PUSH1 0x24 DUP3 ADD MSTORE PUSH32 0x416464726573733A20696E73756666696369656E742062616C616E636520666F PUSH1 0x44 DUP3 ADD MSTORE PUSH32 0x722063616C6C0000000000000000000000000000000000000000000000000000 PUSH1 0x64 DUP3 ADD MSTORE PUSH1 0x84 ADD PUSH2 0x2A7 JUMP JUMPDEST PUSH1 0x0 DUP1 DUP7 PUSH20 0xFFFFFFFFFFFFFFFFFFFFFFFFFFFFFFFFFFFFFFFF AND DUP6 DUP8 PUSH1 0x40 MLOAD PUSH2 0x7A4 SWAP2 SWAP1 PUSH2 0xD08 JUMP JUMPDEST PUSH1 0x0 PUSH1 0x40 MLOAD DUP1 DUP4 SUB DUP2 DUP6 DUP8 GAS CALL SWAP3 POP POP POP RETURNDATASIZE DUP1 PUSH1 0x0 DUP2 EQ PUSH2 0x7E1 JUMPI PUSH1 0x40 MLOAD SWAP2 POP PUSH1 0x1F NOT PUSH1 0x3F RETURNDATASIZE ADD AND DUP3 ADD PUSH1 0x40 MSTORE RETURNDATASIZE DUP3 MSTORE RETURNDATASIZE PUSH1 0x0 PUSH1 0x20 DUP5 ADD RETURNDATACOPY PUSH2 0x7E6 JUMP JUMPDEST PUSH1 0x60 SWAP2 POP JUMPDEST POP SWAP2 POP SWAP2 POP PUSH2 0x7F7 DUP8 DUP4 DUP4 DUP8 PUSH2 0x802 JUMP JUMPDEST SWAP8 SWAP7 POP POP POP POP POP POP POP JUMP JUMPDEST PUSH1 0x60 DUP4 ISZERO PUSH2 0x895 JUMPI DUP3 MLOAD PUSH2 0x88E JUMPI PUSH20 0xFFFFFFFFFFFFFFFFFFFFFFFFFFFFFFFFFFFFFFFF DUP6 AND EXTCODESIZE PUSH2 0x88E JUMPI PUSH1 0x40 MLOAD PUSH32 0x8C379A000000000000000000000000000000000000000000000000000000000 DUP2 MSTORE PUSH1 0x20 PUSH1 0x4 DUP3 ADD MSTORE PUSH1 0x1D PUSH1 0x24 DUP3 ADD MSTORE PUSH32 0x416464726573733A2063616C6C20746F206E6F6E2D636F6E7472616374000000 PUSH1 0x44 DUP3 ADD MSTORE PUSH1 0x64 ADD PUSH2 0x2A7 JUMP JUMPDEST POP DUP2 PUSH2 0x6E1 JUMP JUMPDEST PUSH2 0x6E1 DUP4 DUP4 DUP2 MLOAD ISZERO PUSH2 0x8AA JUMPI DUP2 MLOAD DUP1 DUP4 PUSH1 0x20 ADD REVERT JUMPDEST DUP1 PUSH1 0x40 MLOAD PUSH32 0x8C379A000000000000000000000000000000000000000000000000000000000 DUP2 MSTORE PUSH1 0x4 ADD PUSH2 0x2A7 SWAP2 SWAP1 PUSH2 0xD24 JUMP JUMPDEST PUSH20 0xFFFFFFFFFFFFFFFFFFFFFFFFFFFFFFFFFFFFFFFF DUP2 AND DUP2 EQ PUSH2 0x900 JUMPI PUSH1 0x0 DUP1 REVERT JUMPDEST POP JUMP JUMPDEST DUP1 ISZERO ISZERO DUP2 EQ PUSH2 0x900 JUMPI PUSH1 0x0 DUP1 REVERT JUMPDEST PUSH1 0x0 DUP1 PUSH1 0x0 PUSH1 0x60 DUP5 DUP7 SUB SLT ISZERO PUSH2 0x926 JUMPI PUSH1 0x0 DUP1 REVERT JUMPDEST DUP4 CALLDATALOAD PUSH2 0x931 DUP2 PUSH2 0x8DE JUMP JUMPDEST SWAP3 POP PUSH1 0x20 DUP5 ADD CALLDATALOAD PUSH2 0x941 DUP2 PUSH2 0x903 JUMP JUMPDEST SWAP3 SWAP6 SWAP3 SWAP5 POP POP POP PUSH1 0x40 SWAP2 SWAP1 SWAP2 ADD CALLDATALOAD SWAP1 JUMP JUMPDEST DUP1 PUSH1 0x2 SIGNEXTEND DUP2 EQ PUSH2 0x900 JUMPI PUSH1 0x0 DUP1 REVERT JUMPDEST PUSH1 0x0 DUP1 PUSH1 0x0 DUP1 PUSH1 0x80 DUP6 DUP8 SUB SLT ISZERO PUSH2 0x977 JUMPI PUSH1 0x0 DUP1 REVERT JUMPDEST DUP5 CALLDATALOAD PUSH2 0x982 DUP2 PUSH2 0x8DE JUMP JUMPDEST SWAP4 POP PUSH1 0x20 DUP6 ADD CALLDATALOAD PUSH2 0x992 DUP2 PUSH2 0x952 JUMP JUMPDEST SWAP3 POP PUSH1 0x40 DUP6 ADD CALLDATALOAD PUSH2 0x9A2 DUP2 PUSH2 0x952 JUMP JUMPDEST SWAP2 POP PUSH1 0x60 DUP6 ADD CALLDATALOAD PUSH16 0xFFFFFFFFFFFFFFFFFFFFFFFFFFFFFFFF DUP2 AND DUP2 EQ PUSH2 0x9C7 JUMPI PUSH1 0x0 DUP1 REVERT JUMPDEST SWAP4 SWAP7 SWAP3 SWAP6 POP SWAP1 SWAP4 POP POP JUMP JUMPDEST PUSH1 0x0 DUP1 DUP4 PUSH1 0x1F DUP5 ADD SLT PUSH2 0x9E4 JUMPI PUSH1 0x0 DUP1 REVERT JUMPDEST POP DUP2 CALLDATALOAD PUSH8 0xFFFFFFFFFFFFFFFF DUP2 GT ISZERO PUSH2 0x9FC JUMPI PUSH1 0x0 DUP1 REVERT JUMPDEST PUSH1 0x20 DUP4 ADD SWAP2 POP DUP4 PUSH1 0x20 DUP3 DUP6 ADD ADD GT ISZERO PUSH2 0xA14 JUMPI PUSH1 0x0 DUP1 REVERT JUMPDEST SWAP3 POP SWAP3 SWAP1 POP JUMP JUMPDEST PUSH1 0x0 DUP1 PUSH1 0x0 DUP1 PUSH1 0x60 DUP6 DUP8 SUB SLT ISZERO PUSH2 0xA31 JUMPI PUSH1 0x0 DUP1 REVERT JUMPDEST DUP5 CALLDATALOAD SWAP4 POP PUSH1 0x20 DUP6 ADD CALLDATALOAD SWAP3 POP PUSH1 0x40 DUP6 ADD CALLDATALOAD PUSH8 0xFFFFFFFFFFFFFFFF DUP2 GT ISZERO PUSH2 0xA56 JUMPI PUSH1 0x0 DUP1 REVERT JUMPDEST PUSH2 0xA62 DUP8 DUP3 DUP9 ADD PUSH2 0x9D2 JUMP JUMPDEST SWAP6 SWAP9 SWAP5 SWAP8 POP SWAP6 POP POP POP POP JUMP JUMPDEST PUSH32 0x4E487B7100000000000000000000000000000000000000000000000000000000 PUSH1 0x0 MSTORE PUSH1 0x11 PUSH1 0x4 MSTORE PUSH1 0x24 PUSH1 0x0 REVERT JUMPDEST PUSH1 0x0 PUSH20 0xFFFFFFFFFFFFFFFFFFFFFFFFFFFFFFFFFFFFFFFF DUP4 DUP2 AND SWAP1 DUP4 AND DUP2 DUP2 LT ISZERO PUSH2 0xACA JUMPI PUSH2 0xACA PUSH2 0xA6E JUMP JUMPDEST SUB SWAP4 SWAP3 POP POP POP JUMP JUMPDEST PUSH1 0x0 PUSH20 0xFFFFFFFFFFFFFFFFFFFFFFFFFFFFFFFFFFFFFFFF DUP1 DUP4 AND DUP2 DUP6 AND DUP1 DUP4 SUB DUP3 GT ISZERO PUSH2 0xB01 JUMPI PUSH2 0xB01 PUSH2 0xA6E JUMP JUMPDEST ADD SWAP5 SWAP4 POP POP POP POP JUMP JUMPDEST PUSH1 0x0 JUMPDEST DUP4 DUP2 LT ISZERO PUSH2 0xB25 JUMPI DUP2 DUP2 ADD MLOAD DUP4 DUP3 ADD MSTORE PUSH1 0x20 ADD PUSH2 0xB0D JUMP JUMPDEST DUP4 DUP2 GT ISZERO PUSH2 0x419 JUMPI POP POP PUSH1 0x0 SWAP2 ADD MSTORE JUMP JUMPDEST PUSH1 0x0 DUP2 MLOAD DUP1 DUP5 MSTORE PUSH2 0xB4E DUP2 PUSH1 0x20 DUP7 ADD PUSH1 0x20 DUP7 ADD PUSH2 0xB0A JUMP JUMPDEST PUSH1 0x1F ADD PUSH32 0xFFFFFFFFFFFFFFFFFFFFFFFFFFFFFFFFFFFFFFFFFFFFFFFFFFFFFFFFFFFFFFE0 AND SWAP3 SWAP1 SWAP3 ADD PUSH1 0x20 ADD SWAP3 SWAP2 POP POP JUMP JUMPDEST PUSH1 0x0 PUSH20 0xFFFFFFFFFFFFFFFFFFFFFFFFFFFFFFFFFFFFFFFF DUP1 DUP9 AND DUP4 MSTORE DUP7 ISZERO ISZERO PUSH1 0x20 DUP5 ADD MSTORE DUP6 PUSH1 0x40 DUP5 ADD MSTORE DUP1 DUP6 AND PUSH1 0x60 DUP5 ADD MSTORE POP PUSH1 0xA0 PUSH1 0x80 DUP4 ADD MSTORE PUSH2 0x7F7 PUSH1 0xA0 DUP4 ADD DUP5 PUSH2 0xB36 JUMP JUMPDEST PUSH1 0x0 DUP1 PUSH1 0x40 DUP4 DUP6 SUB SLT ISZERO PUSH2 0xBDA JUMPI PUSH1 0x0 DUP1 REVERT JUMPDEST POP POP DUP1 MLOAD PUSH1 0x20 SWAP1 SWAP2 ADD MLOAD SWAP1 SWAP3 SWAP1 SWAP2 POP JUMP JUMPDEST PUSH1 0x0 PUSH1 0x20 DUP3 DUP5 SUB SLT ISZERO PUSH2 0xBFD JUMPI PUSH1 0x0 DUP1 REVERT JUMPDEST DUP2 MLOAD PUSH2 0xC08 DUP2 PUSH2 0x952 JUMP JUMPDEST SWAP4 SWAP3 POP POP POP JUMP JUMPDEST PUSH1 0x0 DUP3 PUSH1 0x2 SIGNEXTEND DUP1 PUSH2 0xC49 JUMPI PUSH32 0x4E487B7100000000000000000000000000000000000000000000000000000000 PUSH1 0x0 MSTORE PUSH1 0x12 PUSH1 0x4 MSTORE PUSH1 0x24 PUSH1 0x0 REVERT JUMPDEST DUP1 DUP4 PUSH1 0x2 SIGNEXTEND SMOD SWAP2 POP POP SWAP3 SWAP2 POP POP JUMP JUMPDEST PUSH20 0xFFFFFFFFFFFFFFFFFFFFFFFFFFFFFFFFFFFFFFFF DUP7 AND DUP2 MSTORE DUP5 PUSH1 0x2 SIGNEXTEND PUSH1 0x20 DUP3 ADD MSTORE DUP4 PUSH1 0x2 SIGNEXTEND PUSH1 0x40 DUP3 ADD MSTORE PUSH16 0xFFFFFFFFFFFFFFFFFFFFFFFFFFFFFFFF DUP4 AND PUSH1 0x60 DUP3 ADD MSTORE PUSH1 0xA0 PUSH1 0x80 DUP3 ADD MSTORE PUSH1 0x0 PUSH2 0x7F7 PUSH1 0xA0 DUP4 ADD DUP5 PUSH2 0xB36 JUMP JUMPDEST PUSH1 0x0 PUSH1 0x20 DUP3 DUP5 SUB SLT ISZERO PUSH2 0xCC3 JUMPI PUSH1 0x0 DUP1 REVERT JUMPDEST DUP2 CALLDATALOAD PUSH2 0xC08 DUP2 PUSH2 0x8DE JUMP JUMPDEST PUSH1 0x0 PUSH1 0x20 DUP3 DUP5 SUB SLT ISZERO PUSH2 0xCE0 JUMPI PUSH1 0x0 DUP1 REVERT JUMPDEST DUP2 MLOAD PUSH2 0xC08 DUP2 PUSH2 0x8DE JUMP JUMPDEST PUSH1 0x0 PUSH1 0x20 DUP3 DUP5 SUB SLT ISZERO PUSH2 0xCFD JUMPI PUSH1 0x0 DUP1 REVERT JUMPDEST DUP2 MLOAD PUSH2 0xC08 DUP2 PUSH2 0x903 JUMP JUMPDEST PUSH1 0x0 DUP3 MLOAD PUSH2 0xD1A DUP2 DUP5 PUSH1 0x20 DUP8 ADD PUSH2 0xB0A JUMP JUMPDEST SWAP2 SWAP1 SWAP2 ADD SWAP3 SWAP2 POP POP JUMP JUMPDEST PUSH1 0x20 DUP2 MSTORE PUSH1 0x0 PUSH2 0xC08 PUSH1 0x20 DUP4 ADD DUP5 PUSH2 0xB36 JUMP INVALID LOG2 PUSH5 0x6970667358 0x22 SLT KECCAK256 0xAD 0xD6 PUSH20 0xD7D6A7804BA9ACE362A6AD647DDF99CB7969C2CC 0xEB 0xF6 SWAP2 PUSH15 0x1ED98CD68964736F6C634300080A00 CALLER "},"gasEstimates":{"creation":{"codeDepositCost":"687400","executionCost":"721","totalCost":"688121"},"external":{"mint(address,int24,int24,uint128)":"infinite","swap(address,bool,int256)":"infinite","uniswapV3MintCallback(uint256,uint256,bytes)":"infinite","uniswapV3SwapCallback(int256,int256,bytes)":"infinite"},"internal":{"_callback(uint256,uint256,bytes calldata)":"infinite"}},"methodIdentifiers":{"mint(address,int24,int24,uint128)":"b8cca34e","swap(address,bool,int256)":"5b71a46e","uniswapV3MintCallback(uint256,uint256,bytes)":"d3487997","uniswapV3SwapCallback(int256,int256,bytes)":"fa461e33"}},"storageLayout":{"storage":[],"types":null},"userdoc":{"kind":"user","methods":{"uniswapV3MintCallback(uint256,uint256,bytes)":{"notice":"Called to `msg.sender` after minting liquidity to a position from IUniswapV3Pool#mint."},"uniswapV3SwapCallback(int256,int256,bytes)":{"notice":"Called to `msg.sender` after executing a swap via IUniswapV3Pool#swap."}},"version":1}}}}