{"contracts/flat/BentoBoxV1Flat.sol":{"BentoBoxV1":{"abi":[{"inputs":[{"internalType":"contract IERC20","name":"wethToken_","type":"address"}],"stateMutability":"nonpayable","type":"constructor"},{"anonymous":false,"inputs":[{"indexed":true,"internalType":"address","name":"masterContract","type":"address"},{"indexed":false,"internalType":"bytes","name":"data","type":"bytes"},{"indexed":true,"internalType":"address","name":"cloneAddress","type":"address"}],"name":"LogDeploy","type":"event"},{"anonymous":false,"inputs":[{"indexed":true,"internalType":"contract IERC20","name":"token","type":"address"},{"indexed":true,"internalType":"address","name":"from","type":"address"},{"indexed":true,"internalType":"address","name":"to","type":"address"},{"indexed":false,"internalType":"uint256","name":"amount","type":"uint256"},{"indexed":false,"internalType":"uint256","name":"share","type":"uint256"}],"name":"LogDeposit","type":"event"},{"anonymous":false,"inputs":[{"indexed":true,"internalType":"address","name":"borrower","type":"address"},{"indexed":true,"internalType":"contract IERC20","name":"token","type":"address"},{"indexed":false,"internalType":"uint256","name":"amount","type":"uint256"},{"indexed":false,"internalType":"uint256","name":"feeAmount","type":"uint256"},{"indexed":true,"internalType":"address","name":"receiver","type":"address"}],"name":"LogFlashLoan","type":"event"},{"anonymous":false,"inputs":[{"indexed":true,"internalType":"address","name":"protocol","type":"address"}],"name":"LogRegisterProtocol","type":"event"},{"anonymous":false,"inputs":[{"indexed":true,"internalType":"address","name":"masterContract","type":"address"},{"indexed":true,"internalType":"address","name":"user","type":"address"},{"indexed":false,"internalType":"bool","name":"approved","type":"bool"}],"name":"LogSetMasterContractApproval","type":"event"},{"anonymous":false,"inputs":[{"indexed":true,"internalType":"contract IERC20","name":"token","type":"address"},{"indexed":false,"internalType":"uint256","name":"amount","type":"uint256"}],"name":"LogStrategyDivest","type":"event"},{"anonymous":false,"inputs":[{"indexed":true,"internalType":"contract IERC20","name":"token","type":"address"},{"indexed":false,"internalType":"uint256","name":"amount","type":"uint256"}],"name":"LogStrategyInvest","type":"event"},{"anonymous":false,"inputs":[{"indexed":true,"internalType":"contract IERC20","name":"token","type":"address"},{"indexed":false,"internalType":"uint256","name":"amount","type":"uint256"}],"name":"LogStrategyLoss","type":"event"},{"anonymous":false,"inputs":[{"indexed":true,"internalType":"contract IERC20","name":"token","type":"address"},{"indexed":false,"internalType":"uint256","name":"amount","type":"uint256"}],"name":"LogStrategyProfit","type":"event"},{"anonymous":false,"inputs":[{"indexed":true,"internalType":"contract IERC20","name":"token","type":"address"},{"indexed":true,"internalType":"contract IStrategy","name":"strategy","type":"address"}],"name":"LogStrategyQueued","type":"event"},{"anonymous":false,"inputs":[{"indexed":true,"internalType":"contract IERC20","name":"token","type":"address"},{"indexed":true,"internalType":"contract IStrategy","name":"strategy","type":"address"}],"name":"LogStrategySet","type":"event"},{"anonymous":false,"inputs":[{"indexed":true,"internalType":"contract IERC20","name":"token","type":"address"},{"indexed":false,"internalType":"uint256","name":"targetPercentage","type":"uint256"}],"name":"LogStrategyTargetPercentage","type":"event"},{"anonymous":false,"inputs":[{"indexed":true,"internalType":"contract IERC20","name":"token","type":"address"},{"indexed":true,"internalType":"address","name":"from","type":"address"},{"indexed":true,"internalType":"address","name":"to","type":"address"},{"indexed":false,"internalType":"uint256","name":"share","type":"uint256"}],"name":"LogTransfer","type":"event"},{"anonymous":false,"inputs":[{"indexed":true,"internalType":"address","name":"masterContract","type":"address"},{"indexed":false,"internalType":"bool","name":"approved","type":"bool"}],"name":"LogWhiteListMasterContract","type":"event"},{"anonymous":false,"inputs":[{"indexed":true,"internalType":"contract IERC20","name":"token","type":"address"},{"indexed":true,"internalType":"address","name":"from","type":"address"},{"indexed":true,"internalType":"address","name":"to","type":"address"},{"indexed":false,"internalType":"uint256","name":"amount","type":"uint256"},{"indexed":false,"internalType":"uint256","name":"share","type":"uint256"}],"name":"LogWithdraw","type":"event"},{"anonymous":false,"inputs":[{"indexed":true,"internalType":"address","name":"previousOwner","type":"address"},{"indexed":true,"internalType":"address","name":"newOwner","type":"address"}],"name":"OwnershipTransferred","type":"event"},{"inputs":[],"name":"DOMAIN_SEPARATOR","outputs":[{"internalType":"bytes32","name":"","type":"bytes32"}],"stateMutability":"view","type":"function"},{"inputs":[{"internalType":"contract IERC20","name":"","type":"address"},{"internalType":"address","name":"","type":"address"}],"name":"balanceOf","outputs":[{"internalType":"uint256","name":"","type":"uint256"}],"stateMutability":"view","type":"function"},{"inputs":[{"internalType":"bytes[]","name":"calls","type":"bytes[]"},{"internalType":"bool","name":"revertOnFail","type":"bool"}],"name":"batch","outputs":[{"internalType":"bool[]","name":"successes","type":"bool[]"},{"internalType":"bytes[]","name":"results","type":"bytes[]"}],"stateMutability":"payable","type":"function"},{"inputs":[{"internalType":"contract IBatchFlashBorrower","name":"borrower","type":"address"},{"internalType":"address[]","name":"receivers","type":"address[]"},{"internalType":"contract IERC20[]","name":"tokens","type":"address[]"},{"internalType":"uint256[]","name":"amounts","type":"uint256[]"},{"internalType":"bytes","name":"data","type":"bytes"}],"name":"batchFlashLoan","outputs":[],"stateMutability":"nonpayable","type":"function"},{"inputs":[],"name":"claimOwnership","outputs":[],"stateMutability":"nonpayable","type":"function"},{"inputs":[{"internalType":"address","name":"masterContract","type":"address"},{"internalType":"bytes","name":"data","type":"bytes"},{"internalType":"bool","name":"useCreate2","type":"bool"}],"name":"deploy","outputs":[{"internalType":"address","name":"cloneAddress","type":"address"}],"stateMutability":"payable","type":"function"},{"inputs":[{"internalType":"contract IERC20","name":"token_","type":"address"},{"internalType":"address","name":"from","type":"address"},{"internalType":"address","name":"to","type":"address"},{"internalType":"uint256","name":"amount","type":"uint256"},{"internalType":"uint256","name":"share","type":"uint256"}],"name":"deposit","outputs":[{"internalType":"uint256","name":"amountOut","type":"uint256"},{"internalType":"uint256","name":"shareOut","type":"uint256"}],"stateMutability":"payable","type":"function"},{"inputs":[{"internalType":"contract IFlashBorrower","name":"borrower","type":"address"},{"internalType":"address","name":"receiver","type":"address"},{"internalType":"contract IERC20","name":"token","type":"address"},{"internalType":"uint256","name":"amount","type":"uint256"},{"internalType":"bytes","name":"data","type":"bytes"}],"name":"flashLoan","outputs":[],"stateMutability":"nonpayable","type":"function"},{"inputs":[{"internalType":"contract IERC20","name":"token","type":"address"},{"internalType":"bool","name":"balance","type":"bool"},{"internalType":"uint256","name":"maxChangeAmount","type":"uint256"}],"name":"harvest","outputs":[],"stateMutability":"nonpayable","type":"function"},{"inputs":[{"internalType":"address","name":"","type":"address"},{"internalType":"address","name":"","type":"address"}],"name":"masterContractApproved","outputs":[{"internalType":"bool","name":"","type":"bool"}],"stateMutability":"view","type":"function"},{"inputs":[{"internalType":"address","name":"","type":"address"}],"name":"masterContractOf","outputs":[{"internalType":"address","name":"","type":"address"}],"stateMutability":"view","type":"function"},{"inputs":[{"internalType":"address","name":"","type":"address"}],"name":"nonces","outputs":[{"internalType":"uint256","name":"","type":"uint256"}],"stateMutability":"view","type":"function"},{"inputs":[],"name":"owner","outputs":[{"internalType":"address","name":"","type":"address"}],"stateMutability":"view","type":"function"},{"inputs":[],"name":"pendingOwner","outputs":[{"internalType":"address","name":"","type":"address"}],"stateMutability":"view","type":"function"},{"inputs":[{"internalType":"contract IERC20","name":"","type":"address"}],"name":"pendingStrategy","outputs":[{"internalType":"contract IStrategy","name":"","type":"address"}],"stateMutability":"view","type":"function"},{"inputs":[{"internalType":"contract IERC20","name":"token","type":"address"},{"internalType":"address","name":"from","type":"address"},{"internalType":"address","name":"to","type":"address"},{"internalType":"uint256","name":"amount","type":"uint256"},{"internalType":"uint256","name":"deadline","type":"uint256"},{"internalType":"uint8","name":"v","type":"uint8"},{"internalType":"bytes32","name":"r","type":"bytes32"},{"internalType":"bytes32","name":"s","type":"bytes32"}],"name":"permitToken","outputs":[],"stateMutability":"nonpayable","type":"function"},{"inputs":[],"name":"registerProtocol","outputs":[],"stateMutability":"nonpayable","type":"function"},{"inputs":[{"internalType":"address","name":"user","type":"address"},{"internalType":"address","name":"masterContract","type":"address"},{"internalType":"bool","name":"approved","type":"bool"},{"internalType":"uint8","name":"v","type":"uint8"},{"internalType":"bytes32","name":"r","type":"bytes32"},{"internalType":"bytes32","name":"s","type":"bytes32"}],"name":"setMasterContractApproval","outputs":[],"stateMutability":"nonpayable","type":"function"},{"inputs":[{"internalType":"contract IERC20","name":"token","type":"address"},{"internalType":"contract IStrategy","name":"newStrategy","type":"address"}],"name":"setStrategy","outputs":[],"stateMutability":"nonpayable","type":"function"},{"inputs":[{"internalType":"contract IERC20","name":"token","type":"address"},{"internalType":"uint64","name":"targetPercentage_","type":"uint64"}],"name":"setStrategyTargetPercentage","outputs":[],"stateMutability":"nonpayable","type":"function"},{"inputs":[{"internalType":"contract IERC20","name":"","type":"address"}],"name":"strategy","outputs":[{"internalType":"contract IStrategy","name":"","type":"address"}],"stateMutability":"view","type":"function"},{"inputs":[{"internalType":"contract IERC20","name":"","type":"address"}],"name":"strategyData","outputs":[{"internalType":"uint64","name":"strategyStartDate","type":"uint64"},{"internalType":"uint64","name":"targetPercentage","type":"uint64"},{"internalType":"uint128","name":"balance","type":"uint128"}],"stateMutability":"view","type":"function"},{"inputs":[{"internalType":"contract IERC20","name":"token","type":"address"},{"internalType":"uint256","name":"share","type":"uint256"},{"internalType":"bool","name":"roundUp","type":"bool"}],"name":"toAmount","outputs":[{"internalType":"uint256","name":"amount","type":"uint256"}],"stateMutability":"view","type":"function"},{"inputs":[{"internalType":"contract IERC20","name":"token","type":"address"},{"internalType":"uint256","name":"amount","type":"uint256"},{"internalType":"bool","name":"roundUp","type":"bool"}],"name":"toShare","outputs":[{"internalType":"uint256","name":"share","type":"uint256"}],"stateMutability":"view","type":"function"},{"inputs":[{"internalType":"contract IERC20","name":"","type":"address"}],"name":"totals","outputs":[{"internalType":"uint128","name":"elastic","type":"uint128"},{"internalType":"uint128","name":"base","type":"uint128"}],"stateMutability":"view","type":"function"},{"inputs":[{"internalType":"contract IERC20","name":"token","type":"address"},{"internalType":"address","name":"from","type":"address"},{"internalType":"address","name":"to","type":"address"},{"internalType":"uint256","name":"share","type":"uint256"}],"name":"transfer","outputs":[],"stateMutability":"nonpayable","type":"function"},{"inputs":[{"internalType":"contract IERC20","name":"token","type":"address"},{"internalType":"address","name":"from","type":"address"},{"internalType":"address[]","name":"tos","type":"address[]"},{"internalType":"uint256[]","name":"shares","type":"uint256[]"}],"name":"transferMultiple","outputs":[],"stateMutability":"nonpayable","type":"function"},{"inputs":[{"internalType":"address","name":"newOwner","type":"address"},{"internalType":"bool","name":"direct","type":"bool"},{"internalType":"bool","name":"renounce","type":"bool"}],"name":"transferOwnership","outputs":[],"stateMutability":"nonpayable","type":"function"},{"inputs":[{"internalType":"address","name":"masterContract","type":"address"},{"internalType":"bool","name":"approved","type":"bool"}],"name":"whitelistMasterContract","outputs":[],"stateMutability":"nonpayable","type":"function"},{"inputs":[{"internalType":"address","name":"","type":"address"}],"name":"whitelistedMasterContracts","outputs":[{"internalType":"bool","name":"","type":"bool"}],"stateMutability":"view","type":"function"},{"inputs":[{"internalType":"contract IERC20","name":"token_","type":"address"},{"internalType":"address","name":"from","type":"address"},{"internalType":"address","name":"to","type":"address"},{"internalType":"uint256","name":"amount","type":"uint256"},{"internalType":"uint256","name":"share","type":"uint256"}],"name":"withdraw","outputs":[{"internalType":"uint256","name":"amountOut","type":"uint256"},{"internalType":"uint256","name":"shareOut","type":"uint256"}],"stateMutability":"nonpayable","type":"function"},{"stateMutability":"payable","type":"receive"}],"devdoc":{"author":"BoringCrypto, Keno","kind":"dev","methods":{"batch(bytes[],bool)":{"params":{"calls":"An array of inputs for each call.","revertOnFail":"If True then reverts after a failed call and stops doing further calls."},"returns":{"results":"An array with the returned data of each function call, mapped one-to-one to `calls`.","successes":"An array indicating the success of a call, mapped one-to-one to `calls`."}},"batchFlashLoan(address,address[],address[],uint256[],bytes)":{"params":{"amounts":"of the tokens for each receiver.","borrower":"The address of the contract that implements and conforms to `IBatchFlashBorrower` and handles the flashloan.","data":"The calldata to pass to the `borrower` contract.","receivers":"An array of the token receivers. A one-to-one mapping with `tokens` and `amounts`.","tokens":"The addresses of the tokens."}},"deploy(address,bytes,bool)":{"params":{"data":"Additional abi encoded calldata that is passed to the new clone via `IMasterContract.init`.","masterContract":"The address of the contract to clone.","useCreate2":"Creates the clone by using the CREATE2 opcode, in this case `data` will be used as salt."},"returns":{"cloneAddress":"Address of the created clone contract."}},"deposit(address,address,address,uint256,uint256)":{"params":{"amount":"Token amount in native representation to deposit.","from":"which account to pull the tokens.","share":"Token amount represented in shares to deposit. Takes precedence over `amount`.","to":"which account to push the tokens.","token_":"The ERC-20 token to deposit."},"returns":{"amountOut":"The amount deposited.","shareOut":"The deposited amount represented in shares."}},"flashLoan(address,address,address,uint256,bytes)":{"params":{"amount":"of the tokens to receive.","borrower":"The address of the contract that implements and conforms to `IFlashBorrower` and handles the flashloan.","data":"The calldata to pass to the `borrower` contract.","receiver":"Address of the token receiver.","token":"The address of the token to receive."}},"harvest(address,bool,uint256)":{"params":{"balance":"True if housekeeping should be done.","maxChangeAmount":"The maximum amount for either pulling or pushing from/to the `IStrategy` contract.","token":"The address of the token for which a strategy is deployed."}},"setMasterContractApproval(address,address,bool,uint8,bytes32,bytes32)":{"params":{"approved":"If True approves access. If False revokes access.","masterContract":"The address who gains or loses access.","r":"Part of the signature. (See EIP-191)","s":"Part of the signature. (See EIP-191)","user":"The address of the user that approves or revokes access.","v":"Part of the signature. (See EIP-191)"}},"setStrategy(address,address)":{"details":"Only the owner of this contract is allowed to change this.","params":{"newStrategy":"The address of the contract that conforms to `IStrategy`.","token":"The address of the token that maps to a strategy to change."}},"setStrategyTargetPercentage(address,uint64)":{"details":"Only the owner of this contract is allowed to change this.","params":{"targetPercentage_":"The new target in percent. Must be lesser or equal to `MAX_TARGET_PERCENTAGE`.","token":"The address of the token that maps to a strategy to change."}},"toAmount(address,uint256,bool)":{"details":"Helper function represent shares back into the `token` amount.","params":{"roundUp":"If the result should be rounded up.","share":"The amount of shares.","token":"The ERC-20 token."},"returns":{"amount":"The share amount back into native representation."}},"toShare(address,uint256,bool)":{"details":"Helper function to represent an `amount` of `token` in shares.","params":{"amount":"The `token` amount.","roundUp":"If the result `share` should be rounded up.","token":"The ERC-20 token."},"returns":{"share":"The token amount represented in shares."}},"transfer(address,address,address,uint256)":{"params":{"from":"which user to pull the tokens.","share":"The amount of `token` in shares.","to":"which user to push the tokens.","token":"The ERC-20 token to transfer."}},"transferMultiple(address,address,address[],uint256[])":{"params":{"from":"which user to pull the tokens.","shares":"The amount of `token` in shares for each receiver in `tos`.","token":"The ERC-20 token to transfer.","tos":"The receivers of the tokens."}},"transferOwnership(address,bool,bool)":{"params":{"direct":"True if `newOwner` should be set immediately. False if `newOwner` needs to use `claimOwnership`.","newOwner":"Address of the new owner.","renounce":"Allows the `newOwner` to be `address(0)` if `direct` and `renounce` is True. Has no effect otherwise."}},"withdraw(address,address,address,uint256,uint256)":{"params":{"amount":"of tokens. Either one of `amount` or `share` needs to be supplied.","from":"which user to pull the tokens.","share":"Like above, but `share` takes precedence over `amount`.","to":"which user to push the tokens.","token_":"The ERC-20 token to withdraw."}}},"title":"BentoBox","version":1},"evm":{"bytecode":{"linkReferences":{},"object":"60e06040523480156200001157600080fd5b5060405162005ad838038062005ad8833981016040819052620000349162000116565b600080546001600160a01b0319163390811782556040519091907f8be0079c531659141344cd1fd0a4f28419497f9722a3daafe3b4186f6b6457e0908290a34660a081905262000084816200009e565b6080525060601b6001600160601b03191660c0526200016a565b60007f8cad95687ba82c2ce50e74f7b754645e5117c3a5bec8151c0726d5857980a8667fd7df266aff736d415a9dc14b4158201d612e70d75b9c7f4e375ccfd20aa5166f8330604051602001620000f9949392919062000146565b604051602081830303815290604052805190602001209050919050565b60006020828403121562000128578081fd5b81516001600160a01b03811681146200013f578182fd5b9392505050565b938452602084019290925260408301526001600160a01b0316606082015260800190565b60805160a05160c05160601c61592f620001a9600039806107615280610b3752806129105280612bd65250806114845250806114b9525061592f6000f3fe6080604052600436106101dc5760003560e01c80637c516e9411610102578063d2423b5111610095578063f1676d3711610064578063f1676d3714610555578063f18d03cc14610575578063f483b3da14610595578063f7888aec146105b5576101e3565b8063d2423b51146104d0578063da5139ca146104f1578063df23b45b14610511578063e30c397814610540576101e3565b806397da6d30116100d157806397da6d301461045b578063aee4d1b21461047b578063bafe4f1414610490578063c0a47c93146104b0576101e3565b80637c516e94146103e65780637ecebe00146104065780638da5cb5b1461042657806391e0eab51461043b576101e3565b80633e2a9d4e1161017a5780635662311811610149578063566231181461036657806366c6bb0b1461038657806372cb5d97146103a6578063733a9d7c146103c6576101e3565b80633e2a9d4e146102e35780634e71e0c8146103035780634ffe34db146103185780635108a55814610346576101e3565b806312a90c8a116101b657806312a90c8a146102545780631f54245b14610281578063228bfd9f146102a15780633644e515146102c1576101e3565b806302b9446c146101e8578063078dfbe7146102125780630fca884314610234576101e3565b366101e357005b600080fd5b6101fb6101f6366004614929565b6105d5565b6040516102099291906157da565b60405180910390f35b34801561021e57600080fd5b5061023261022d3660046146dd565b610c8c565b005b34801561024057600080fd5b5061023261024f366004614a04565b610e17565b34801561026057600080fd5b5061027461026f3660046145f0565b6111d9565b6040516102099190615066565b61029461028f366004614727565b6111ee565b6040516102099190614dc7565b3480156102ad57600080fd5b506102946102bc3660046145f0565b611457565b3480156102cd57600080fd5b506102d661147f565b6040516102099190615071565b3480156102ef57600080fd5b506102326102fe366004614b0c565b6114df565b34801561030f57600080fd5b50610232611613565b34801561032457600080fd5b506103386103333660046145f0565b6116f9565b6040516102099291906157b7565b34801561035257600080fd5b506102946103613660046145f0565b611735565b34801561037257600080fd5b506102d6610381366004614ad6565b61175d565b34801561039257600080fd5b506102326103a1366004614a96565b6117d4565b3480156103b257600080fd5b506102326103c13660046148c7565b611f89565b3480156103d257600080fd5b506102326103e13660046146b0565b612588565b3480156103f257600080fd5b50610232610401366004614983565b6126a5565b34801561041257600080fd5b506102d66104213660046145f0565b61273f565b34801561043257600080fd5b50610294612751565b34801561044757600080fd5b5061027461045636600461460c565b61276d565b34801561046757600080fd5b506101fb610476366004614929565b61278d565b34801561048757600080fd5b50610232612d7d565b34801561049c57600080fd5b506102946104ab3660046145f0565b612ddc565b3480156104bc57600080fd5b506102326104cb366004614644565b612e04565b6104e36104de36600461478d565b61325d565b604051610209929190614fcc565b3480156104fd57600080fd5b506102d661050c366004614ad6565b613409565b34801561051d57600080fd5b5061053161052c3660046145f0565b613478565b604051610209939291906157fd565b34801561054c57600080fd5b506102946134cd565b34801561056157600080fd5b50610232610570366004614b45565b6134e9565b34801561058157600080fd5b506102326105903660046148d9565b6136c4565b3480156105a157600080fd5b506102326105b03660046147f3565b61391e565b3480156105c157600080fd5b506102d66105d03660046148c7565b613c69565b6000808573ffffffffffffffffffffffffffffffffffffffff81163314801590610615575073ffffffffffffffffffffffffffffffffffffffff81163014155b156106ee573360009081526002602052604090205473ffffffffffffffffffffffffffffffffffffffff1680610680576040517f08c379a0000000000000000000000000000000000000000000000000000000008152600401610677906155ae565b60405180910390fd5b73ffffffffffffffffffffffffffffffffffffffff80821660009081526003602090815260408083209386168352929052205460ff166106ec576040517f08c379a000000000000000000000000000000000000000000000000000000000815260040161067790615431565b505b73ffffffffffffffffffffffffffffffffffffffff861661073b576040517f08c379a00000000000000000000000000000000000000000000000000000000081526004016106779061538e565b600073ffffffffffffffffffffffffffffffffffffffff89161561075f5788610781565b7f00000000000000000000000000000000000000000000000000000000000000005b905061078b614514565b5073ffffffffffffffffffffffffffffffffffffffff81166000908152600760209081526040918290208251808401909352546fffffffffffffffffffffffffffffffff808216808552700100000000000000000000000000000000909204169183019190915215158061087c575060008273ffffffffffffffffffffffffffffffffffffffff166318160ddd6040518163ffffffff1660e01b815260040160206040518083038186803b15801561084257600080fd5b505afa158015610856573d6000803e3d6000fd5b505050506040513d601f19601f8201168201806040525081019061087a9190614bb6565b115b6108b2576040517f08c379a0000000000000000000000000000000000000000000000000000000008152600401610677906152b2565b8561091c576108c381886000613c86565b95506103e86108f16108d488613d44565b60208401516fffffffffffffffffffffffffffffffff1690613d94565b6fffffffffffffffffffffffffffffffff16101561091757600080945094505050610c81565b61092b565b61092881876001613dec565b96505b73ffffffffffffffffffffffffffffffffffffffff891630141580610964575073ffffffffffffffffffffffffffffffffffffffff8a16155b8061099557508051610991906fffffffffffffffffffffffffffffffff1661098b84613e8f565b90613f73565b8711155b6109cb576040517f08c379a000000000000000000000000000000000000000000000000000000000815260040161067790615168565b73ffffffffffffffffffffffffffffffffffffffff8083166000908152600660209081526040808320938c1683529290522054610a089087613fb0565b73ffffffffffffffffffffffffffffffffffffffff8084166000908152600660209081526040808320938d1683529290522055610a64610a4787613d44565b60208301516fffffffffffffffffffffffffffffffff1690613d94565b6fffffffffffffffffffffffffffffffff166020820152610aa1610a8788613d44565b82516fffffffffffffffffffffffffffffffff1690613d94565b6fffffffffffffffffffffffffffffffff908116825273ffffffffffffffffffffffffffffffffffffffff808416600090815260076020908152604090912084518154928601518516700100000000000000000000000000000000029085167fffffffffffffffffffffffffffffffff0000000000000000000000000000000090931692909217909316179091558a16610bbb577f000000000000000000000000000000000000000000000000000000000000000073ffffffffffffffffffffffffffffffffffffffff1663d0e30db0886040518263ffffffff1660e01b81526004016000604051808303818588803b158015610b9d57600080fd5b505af1158015610bb1573d6000803e3d6000fd5b5050505050610bfa565b73ffffffffffffffffffffffffffffffffffffffff89163014610bfa57610bfa73ffffffffffffffffffffffffffffffffffffffff83168a308a613fed565b8773ffffffffffffffffffffffffffffffffffffffff168973ffffffffffffffffffffffffffffffffffffffff168373ffffffffffffffffffffffffffffffffffffffff167fb2346165e782564f17f5b7e555c21f4fd96fbc93458572bf0113ea35a958fc558a8a604051610c709291906157da565b60405180910390a486945085935050505b509550959350505050565b60005473ffffffffffffffffffffffffffffffffffffffff163314610cdd576040517f08c379a0000000000000000000000000000000000000000000000000000000008152600401610677906153fc565b8115610dd15773ffffffffffffffffffffffffffffffffffffffff8316151580610d045750805b610d3a576040517f08c379a00000000000000000000000000000000000000000000000000000000081526004016106779061527b565b6000805460405173ffffffffffffffffffffffffffffffffffffffff808716939216917f8be0079c531659141344cd1fd0a4f28419497f9722a3daafe3b4186f6b6457e091a36000805473ffffffffffffffffffffffffffffffffffffffff85167fffffffffffffffffffffffff000000000000000000000000000000000000000091821617909155600180549091169055610e12565b600180547fffffffffffffffffffffffff00000000000000000000000000000000000000001673ffffffffffffffffffffffffffffffffffffffff85161790555b505050565b8473ffffffffffffffffffffffffffffffffffffffff81163314801590610e54575073ffffffffffffffffffffffffffffffffffffffff81163014155b15610f24573360009081526002602052604090205473ffffffffffffffffffffffffffffffffffffffff1680610eb6576040517f08c379a0000000000000000000000000000000000000000000000000000000008152600401610677906155ae565b73ffffffffffffffffffffffffffffffffffffffff80821660009081526003602090815260408083209386168352929052205460ff16610f22576040517f08c379a000000000000000000000000000000000000000000000000000000000815260040161067790615431565b505b600085858281610f3057fe5b9050602002016020810190610f4591906145f0565b73ffffffffffffffffffffffffffffffffffffffff161415610f93576040517f08c379a000000000000000000000000000000000000000000000000000000000815260040161067790615357565b600084815b81811015611157576000888883818110610fae57fe5b9050602002016020810190610fc391906145f0565b9050611066878784818110610fd457fe5b90506020020135600660008e73ffffffffffffffffffffffffffffffffffffffff1673ffffffffffffffffffffffffffffffffffffffff16815260200190815260200160002060008473ffffffffffffffffffffffffffffffffffffffff1673ffffffffffffffffffffffffffffffffffffffff16815260200190815260200160002054613fb090919063ffffffff16565b73ffffffffffffffffffffffffffffffffffffffff808d166000908152600660209081526040808320938616835292905220556110be8787848181106110a857fe5b9050602002013585613fb090919063ffffffff16565b93508073ffffffffffffffffffffffffffffffffffffffff168a73ffffffffffffffffffffffffffffffffffffffff168c73ffffffffffffffffffffffffffffffffffffffff167f6eabe333476233fd382224f233210cb808a7bc4c4de64f9d76628bf63c677b1a8a8a8781811061113257fe5b905060200201356040516111469190615071565b60405180910390a450600101610f98565b5073ffffffffffffffffffffffffffffffffffffffff808a166000908152600660209081526040808320938c16835292905220546111959083613f73565b73ffffffffffffffffffffffffffffffffffffffff998a1660009081526006602090815260408083209b909c16825299909952989097209790975550505050505050565b60046020526000908152604090205460ff1681565b600073ffffffffffffffffffffffffffffffffffffffff851661123d576040517f08c379a000000000000000000000000000000000000000000000000000000000815260040161067790615542565b606085901b82156112c6576000858560405161125a929190614d71565b604051809103902090506040517f3d602d80600a3d3981f3363d3d373d3d3d363d7300000000000000000000000081528260148201527f5af43d82803e903d91602b57fd5bf300000000000000000000000000000000006028820152816037826000f593505050611322565b6040517f3d602d80600a3d3981f3363d3d373d3d3d363d7300000000000000000000000081528160148201527f5af43d82803e903d91602b57fd5bf3000000000000000000000000000000000060288201526037816000f09250505b73ffffffffffffffffffffffffffffffffffffffff8281166000818152600260205260409081902080547fffffffffffffffffffffffff000000000000000000000000000000000000000016938a169390931790925590517f4ddf47d4000000000000000000000000000000000000000000000000000000008152634ddf47d49034906113b5908990899060040161510a565b6000604051808303818588803b1580156113ce57600080fd5b505af11580156113e2573d6000803e3d6000fd5b50505050508173ffffffffffffffffffffffffffffffffffffffff168673ffffffffffffffffffffffffffffffffffffffff167fd62166f3c2149208e51788b1401cc356bf5da1fc6c7886a32e18570f57d88b3b878760405161144692919061510a565b60405180910390a350949350505050565b60086020526000908152604090205473ffffffffffffffffffffffffffffffffffffffff1681565b6000467f000000000000000000000000000000000000000000000000000000000000000081146114b7576114b281614158565b6114d9565b7f00000000000000000000000000000000000000000000000000000000000000005b91505090565b60005473ffffffffffffffffffffffffffffffffffffffff163314611530576040517f08c379a0000000000000000000000000000000000000000000000000000000008152600401610677906153fc565b605f8167ffffffffffffffff161115611575576040517f08c379a00000000000000000000000000000000000000000000000000000000081526004016106779061572d565b73ffffffffffffffffffffffffffffffffffffffff82166000818152600a60205260409081902080547fffffffffffffffffffffffffffffffff0000000000000000ffffffffffffffff166801000000000000000067ffffffffffffffff861602179055517f7543af99b5602c06e62da0631b5308489a5ff859150105a623b6eb15e8deae0b906116079084906157e8565b60405180910390a25050565b60015473ffffffffffffffffffffffffffffffffffffffff16338114611665576040517f08c379a000000000000000000000000000000000000000000000000000000000815260040161067790615468565b6000805460405173ffffffffffffffffffffffffffffffffffffffff808516939216917f8be0079c531659141344cd1fd0a4f28419497f9722a3daafe3b4186f6b6457e091a36000805473ffffffffffffffffffffffffffffffffffffffff9092167fffffffffffffffffffffffff0000000000000000000000000000000000000000928316179055600180549091169055565b6007602052600090815260409020546fffffffffffffffffffffffffffffffff8082169170010000000000000000000000000000000090041682565b60096020526000908152604090205473ffffffffffffffffffffffffffffffffffffffff1681565b73ffffffffffffffffffffffffffffffffffffffff831660009081526007602090815260408083208151808301909252546fffffffffffffffffffffffffffffffff808216835270010000000000000000000000000000000090910416918101919091526117cc908484613dec565b949350505050565b6117dc61452b565b5073ffffffffffffffffffffffffffffffffffffffff8381166000818152600a602090815260408083208151606081018352905467ffffffffffffffff8082168352680100000000000000008204168285015270010000000000000000000000000000000090046fffffffffffffffffffffffffffffffff16818301908152948452600890925280832054935190517f18fccc760000000000000000000000000000000000000000000000000000000081529194939093169283916318fccc76916118ab91339060040161577f565b602060405180830381600087803b1580156118c557600080fd5b505af11580156118d9573d6000803e3d6000fd5b505050506040513d601f19601f820116820180604052508101906118fd9190614bb6565b90508015801561190b575084155b1561191857505050610e12565b73ffffffffffffffffffffffffffffffffffffffff86166000908152600760205260408120546fffffffffffffffffffffffffffffffff1690821315611a1257816119638282613fb0565b915061196e82613d44565b73ffffffffffffffffffffffffffffffffffffffff89166000818152600760205260409081902080547fffffffffffffffffffffffffffffffff00000000000000000000000000000000166fffffffffffffffffffffffffffffffff949094169390931790925590517f911c9f20a03edabcbcbd18dca1174cce47a91b234ced7a5a3c60ba0d5b56c5d290611a04908490615071565b60405180910390a250611b2d565b6000821215611b2d576000829003611a2a8282613f73565b9150611a3582613d44565b73ffffffffffffffffffffffffffffffffffffffff8916600090815260076020526040902080547fffffffffffffffffffffffffffffffff00000000000000000000000000000000166fffffffffffffffffffffffffffffffff92909216919091179055611ac2611aa582613d44565b60408701516fffffffffffffffffffffffffffffffff16906141cf565b6fffffffffffffffffffffffffffffffff166040808701919091525173ffffffffffffffffffffffffffffffffffffffff8916907f8f1f26eb9b6aa8689dbdd519ead1999d9c8819d4738e403b2003b18197d9cf9790611b23908490615071565b60405180910390a2505b8515611eb15760006064611b58866020015167ffffffffffffffff168461422190919063ffffffff16565b81611b5f57fe5b0490508085604001516fffffffffffffffffffffffffffffffff161015611cfe576000611bab86604001516fffffffffffffffffffffffffffffffff1683613f7390919063ffffffff16565b90508615801590611bbb57508681115b15611bc35750855b611be473ffffffffffffffffffffffffffffffffffffffff8a168683614272565b611c0d611bf082613d44565b60408801516fffffffffffffffffffffffffffffffff1690613d94565b6fffffffffffffffffffffffffffffffff16604080880191909152517f6939aaf500000000000000000000000000000000000000000000000000000000815273ffffffffffffffffffffffffffffffffffffffff861690636939aaf590611c78908490600401615071565b600060405180830381600087803b158015611c9257600080fd5b505af1158015611ca6573d6000803e3d6000fd5b505050508873ffffffffffffffffffffffffffffffffffffffff167fb18e7e4f6eac147a63a3bb6beb2d9039c88698623aff3efc4febbc20b0164ee582604051611cf09190615071565b60405180910390a250611eaf565b8085604001516fffffffffffffffffffffffffffffffff161115611eaf576000611d47611d2a83613d44565b60408801516fffffffffffffffffffffffffffffffff16906141cf565b6fffffffffffffffffffffffffffffffff1690508615801590611d6957508681115b15611d715750855b6040517f2e1a7d4d00000000000000000000000000000000000000000000000000000000815260009073ffffffffffffffffffffffffffffffffffffffff871690632e1a7d4d90611dc6908590600401615071565b602060405180830381600087803b158015611de057600080fd5b505af1158015611df4573d6000803e3d6000fd5b505050506040513d601f19601f82011682018060405250810190611e189190614bb6565b9050611e43611e2682613d44565b60408901516fffffffffffffffffffffffffffffffff16906141cf565b6fffffffffffffffffffffffffffffffff166040808901919091525173ffffffffffffffffffffffffffffffffffffffff8b16907f39aa22060f8dd4d291720311feedf3b72fef47c06c66ccf5c22b502c62e7550a90611ea4908490615071565b60405180910390a250505b505b50505073ffffffffffffffffffffffffffffffffffffffff84166000908152600a6020908152604091829020835181549285015193909401516fffffffffffffffffffffffffffffffff9081167001000000000000000000000000000000000267ffffffffffffffff94851668010000000000000000027fffffffffffffffffffffffffffffffff0000000000000000ffffffffffffffff959096167fffffffffffffffffffffffffffffffffffffffffffffffff000000000000000090941693909317939093169390931791909116179055505050565b60005473ffffffffffffffffffffffffffffffffffffffff163314611fda576040517f08c379a0000000000000000000000000000000000000000000000000000000008152600401610677906153fc565b611fe261452b565b5073ffffffffffffffffffffffffffffffffffffffff8281166000818152600a602090815260408083208151606081018352905467ffffffffffffffff80821683526801000000000000000082048116838601527001000000000000000000000000000000009091046fffffffffffffffffffffffffffffffff16828401529484526009909252909120548151919316911615806120ac57508273ffffffffffffffffffffffffffffffffffffffff168173ffffffffffffffffffffffffffffffffffffffff1614155b156121645773ffffffffffffffffffffffffffffffffffffffff848116600090815260096020526040902080547fffffffffffffffffffffffff00000000000000000000000000000000000000001691851691909117905561210d426143da565b67ffffffffffffffff16825260405173ffffffffffffffffffffffffffffffffffffffff80851691908616907f6f7ccdf3f86039e5a1dcf6028bf7b4773cbf7a234716ba2e5392b12bb0f8558f90600090a36124b4565b815167ffffffffffffffff16158015906121895750815167ffffffffffffffff164210155b6121bf576040517f08c379a0000000000000000000000000000000000000000000000000000000008152600401610677906153c5565b73ffffffffffffffffffffffffffffffffffffffff84811660009081526008602052604090205416156124185773ffffffffffffffffffffffffffffffffffffffff808516600090815260086020526040808220548582015191517f7f8661a100000000000000000000000000000000000000000000000000000000815292931691637f8661a19161225391600401615762565b602060405180830381600087803b15801561226d57600080fd5b505af1158015612281573d6000803e3d6000fd5b505050506040513d601f19601f820116820180604052508101906122a59190614bb6565b905060008113156123365773ffffffffffffffffffffffffffffffffffffffff8516600090815260076020526040902081906122e1908261441e565b508573ffffffffffffffffffffffffffffffffffffffff167f911c9f20a03edabcbcbd18dca1174cce47a91b234ced7a5a3c60ba0d5b56c5d2826040516123289190615071565b60405180910390a2506123c4565b60008112156123c45773ffffffffffffffffffffffffffffffffffffffff851660009081526007602052604081209082900390612373908261448c565b508573ffffffffffffffffffffffffffffffffffffffff167f8f1f26eb9b6aa8689dbdd519ead1999d9c8819d4738e403b2003b18197d9cf97826040516123ba9190615071565b60405180910390a2505b8473ffffffffffffffffffffffffffffffffffffffff167f39aa22060f8dd4d291720311feedf3b72fef47c06c66ccf5c22b502c62e7550a846040015160405161240e9190615762565b60405180910390a2505b73ffffffffffffffffffffffffffffffffffffffff808516600081815260086020908152604080832080548688167fffffffffffffffffffffffff0000000000000000000000000000000000000000918216179091558388528782018490528484526009909252808320805490921690915551928616927f03e6352a885adc4cc54767592939c3b1bbd65685658c3beaaba66a888120e2179190a35b5073ffffffffffffffffffffffffffffffffffffffff929092166000908152600a6020908152604091829020845181549286015193909501517fffffffffffffffffffffffffffffffffffffffffffffffff000000000000000090921667ffffffffffffffff958616177fffffffffffffffffffffffffffffffff0000000000000000ffffffffffffffff16680100000000000000009590931694909402919091176fffffffffffffffffffffffffffffffff90811670010000000000000000000000000000000091909216021790915550565b60005473ffffffffffffffffffffffffffffffffffffffff1633146125d9576040517f08c379a0000000000000000000000000000000000000000000000000000000008152600401610677906153fc565b73ffffffffffffffffffffffffffffffffffffffff8216612626576040517f08c379a00000000000000000000000000000000000000000000000000000000081526004016106779061519f565b73ffffffffffffffffffffffffffffffffffffffff82166000818152600460205260409081902080547fffffffffffffffffffffffffffffffffffffffffffffffffffffffffffffff0016841515179055517f31a1e0eac44b54ac6c2a2efa87e92c83405ffcf33fceef02a7bca695130e260090611607908490615066565b6040517fd505accf00000000000000000000000000000000000000000000000000000000815273ffffffffffffffffffffffffffffffffffffffff89169063d505accf90612703908a908a908a908a908a908a908a90600401614f58565b600060405180830381600087803b15801561271d57600080fd5b505af1158015612731573d6000803e3d6000fd5b505050505050505050505050565b60056020526000908152604090205481565b60005473ffffffffffffffffffffffffffffffffffffffff1681565b600360209081526000928352604080842090915290825290205460ff1681565b6000808573ffffffffffffffffffffffffffffffffffffffff811633148015906127cd575073ffffffffffffffffffffffffffffffffffffffff81163014155b1561289d573360009081526002602052604090205473ffffffffffffffffffffffffffffffffffffffff168061282f576040517f08c379a0000000000000000000000000000000000000000000000000000000008152600401610677906155ae565b73ffffffffffffffffffffffffffffffffffffffff80821660009081526003602090815260408083209386168352929052205460ff1661289b576040517f08c379a000000000000000000000000000000000000000000000000000000000815260040161067790615431565b505b73ffffffffffffffffffffffffffffffffffffffff86166128ea576040517f08c379a00000000000000000000000000000000000000000000000000000000081526004016106779061538e565b600073ffffffffffffffffffffffffffffffffffffffff89161561290e5788612930565b7f00000000000000000000000000000000000000000000000000000000000000005b905061293a614514565b5073ffffffffffffffffffffffffffffffffffffffff81166000908152600760209081526040918290208251808401909352546fffffffffffffffffffffffffffffffff80821684527001000000000000000000000000000000009091041690820152856129b5576129ae81886001613c86565b95506129c4565b6129c181876000613dec565b96505b73ffffffffffffffffffffffffffffffffffffffff8083166000908152600660209081526040808320938d1683529290522054612a019087613f73565b73ffffffffffffffffffffffffffffffffffffffff8084166000908152600660209081526040808320938e1683529290522055612a5a612a4088613d44565b82516fffffffffffffffffffffffffffffffff16906141cf565b6fffffffffffffffffffffffffffffffff168152612a97612a7a87613d44565b60208301516fffffffffffffffffffffffffffffffff16906141cf565b6fffffffffffffffffffffffffffffffff16602082018190526103e8111580612ad4575060208101516fffffffffffffffffffffffffffffffff16155b612b0a576040517f08c379a000000000000000000000000000000000000000000000000000000000815260040161067790615244565b73ffffffffffffffffffffffffffffffffffffffff828116600090815260076020908152604090912083518154928501517fffffffffffffffffffffffffffffffff000000000000000000000000000000009093166fffffffffffffffffffffffffffffffff91821617811670010000000000000000000000000000000091909316029190911790558a16612ce6576040517f2e1a7d4d00000000000000000000000000000000000000000000000000000000815273ffffffffffffffffffffffffffffffffffffffff7f00000000000000000000000000000000000000000000000000000000000000001690632e1a7d4d90612c0b908a90600401615071565b600060405180830381600087803b158015612c2557600080fd5b505af1158015612c39573d6000803e3d6000fd5b5050505060008873ffffffffffffffffffffffffffffffffffffffff1688604051612c6390614dc4565b60006040518083038185875af1925050503d8060008114612ca0576040519150601f19603f3d011682016040523d82523d6000602084013e612ca5565b606091505b5050905080612ce0576040517f08c379a0000000000000000000000000000000000000000000000000000000008152600401610677906156bf565b50612d07565b612d0773ffffffffffffffffffffffffffffffffffffffff83168989614272565b8773ffffffffffffffffffffffffffffffffffffffff168973ffffffffffffffffffffffffffffffffffffffff168373ffffffffffffffffffffffffffffffffffffffff167fad9ab9ee6953d4d177f4a03b3a3ac3178ffcb9816319f348060194aa76b144868a8a604051610c709291906157da565b3360008181526002602052604080822080547fffffffffffffffffffffffff00000000000000000000000000000000000000001684179055517fdfb44ffabf0d3a8f650d3ce43eff98f6d050e7ea1a396d5794f014e7dadabacb9190a2565b60026020526000908152604090205473ffffffffffffffffffffffffffffffffffffffff1681565b73ffffffffffffffffffffffffffffffffffffffff8516612e51576040517f08c379a000000000000000000000000000000000000000000000000000000000815260040161067790615577565b81158015612e5d575080155b8015612e6a575060ff8316155b15612f815773ffffffffffffffffffffffffffffffffffffffff86163314612ebe576040517f08c379a0000000000000000000000000000000000000000000000000000000008152600401610677906151d6565b73ffffffffffffffffffffffffffffffffffffffff8681166000908152600260205260409020541615612f1d576040517f08c379a0000000000000000000000000000000000000000000000000000000008152600401610677906154d4565b73ffffffffffffffffffffffffffffffffffffffff851660009081526004602052604090205460ff16612f7c576040517f08c379a000000000000000000000000000000000000000000000000000000000815260040161067790615688565b6131be565b73ffffffffffffffffffffffffffffffffffffffff8616612fce576040517f08c379a00000000000000000000000000000000000000000000000000000000081526004016106779061561a565b60006040518060400160405280600281526020017f190100000000000000000000000000000000000000000000000000000000000081525061300e61147f565b7f1962bc9f5484cb7a998701b81090e966ee1fce5771af884cceee7c081b14ade28761305a577fb426802f1f7dc850a7b6b38805edea2442f3992878a9ab985abfe8091d95d0b161307c565b7f422ac5323fe049241dee67716229a1cc1bc7b313b23dfe3ef6d42ab177a3b2845b73ffffffffffffffffffffffffffffffffffffffff8b1660009081526005602090815260409182902080546001810190915591516130c39493928e928e928e92910161507a565b604051602081830303815290604052805190602001206040516020016130eb93929190614d9d565b60405160208183030381529060405280519060200120905060006001828686866040516000815260200160405260405161312894939291906150ec565b6020604051602081039080840390855afa15801561314a573d6000803e3d6000fd5b5050506020604051035190508773ffffffffffffffffffffffffffffffffffffffff168173ffffffffffffffffffffffffffffffffffffffff16146131bb576040517f08c379a00000000000000000000000000000000000000000000000000000000081526004016106779061550b565b50505b73ffffffffffffffffffffffffffffffffffffffff8581166000818152600360209081526040808320948b16808452949091529081902080547fffffffffffffffffffffffffffffffffffffffffffffffffffffffffffffff0016881515179055517f5f6ebb64ba012a851c6f014e6cad458ddf213d1512049b31cd06365c2b0592579061324d908890615066565b60405180910390a3505050505050565b6060808367ffffffffffffffff8111801561327757600080fd5b506040519080825280602002602001820160405280156132a1578160200160208202803683370190505b5091508367ffffffffffffffff811180156132bb57600080fd5b506040519080825280602002602001820160405280156132ef57816020015b60608152602001906001900390816132da5790505b50905060005b8481101561340057600060603088888581811061330e57fe5b90506020028101906133209190615833565b60405161332e929190614d71565b600060405180830381855af49150503d8060008114613369576040519150601f19603f3d011682016040523d82523d6000602084013e61336e565b606091505b5091509150818061337d575085155b613386826144b4565b906133be576040517f08c379a0000000000000000000000000000000000000000000000000000000008152600401610677919061511e565b50818584815181106133cc57fe5b602002602001019015159081151581525050808484815181106133eb57fe5b602090810291909101015250506001016132f5565b50935093915050565b73ffffffffffffffffffffffffffffffffffffffff831660009081526007602090815260408083208151808301909252546fffffffffffffffffffffffffffffffff808216835270010000000000000000000000000000000090910416918101919091526117cc908484613c86565b600a6020526000908152604090205467ffffffffffffffff808216916801000000000000000081049091169070010000000000000000000000000000000090046fffffffffffffffffffffffffffffffff1683565b60015473ffffffffffffffffffffffffffffffffffffffff1681565b6000620186a06134fa856032614221565b8161350157fe5b04905061352573ffffffffffffffffffffffffffffffffffffffff86168786614272565b6040517f23e30c8b00000000000000000000000000000000000000000000000000000000815273ffffffffffffffffffffffffffffffffffffffff8816906323e30c8b906135819033908990899087908a908a90600401614ed5565b600060405180830381600087803b15801561359b57600080fd5b505af11580156135af573d6000803e3d6000fd5b505050506135fc6135bf82613d44565b73ffffffffffffffffffffffffffffffffffffffff87166000908152600760205260409020906fffffffffffffffffffffffffffffffff1661441e565b61360586613e8f565b101561363d576040517f08c379a000000000000000000000000000000000000000000000000000000000815260040161067790615651565b8573ffffffffffffffffffffffffffffffffffffffff168573ffffffffffffffffffffffffffffffffffffffff168873ffffffffffffffffffffffffffffffffffffffff167f3be9b85936d5d30a1655ea116a17ee3d827b2cd428cc026ce5bf2ac46a22320487856040516136b39291906157da565b60405180910390a450505050505050565b8273ffffffffffffffffffffffffffffffffffffffff81163314801590613701575073ffffffffffffffffffffffffffffffffffffffff81163014155b156137d1573360009081526002602052604090205473ffffffffffffffffffffffffffffffffffffffff1680613763576040517f08c379a0000000000000000000000000000000000000000000000000000000008152600401610677906155ae565b73ffffffffffffffffffffffffffffffffffffffff80821660009081526003602090815260408083209386168352929052205460ff166137cf576040517f08c379a000000000000000000000000000000000000000000000000000000000815260040161067790615431565b505b73ffffffffffffffffffffffffffffffffffffffff831661381e576040517f08c379a00000000000000000000000000000000000000000000000000000000081526004016106779061538e565b73ffffffffffffffffffffffffffffffffffffffff80861660009081526006602090815260408083209388168352929052205461385b9083613f73565b73ffffffffffffffffffffffffffffffffffffffff8681166000908152600660209081526040808320898516845290915280822093909355908516815220546138a49083613fb0565b73ffffffffffffffffffffffffffffffffffffffff80871660008181526006602090815260408083208986168085529252918290209490945551918716917f6eabe333476233fd382224f233210cb808a7bc4c4de64f9d76628bf63c677b1a9061390f908790615071565b60405180910390a45050505050565b60608567ffffffffffffffff8111801561393757600080fd5b50604051908082528060200260200182016040528015613961578160200160208202803683370190505b5090508560005b81811015613a3d57600087878381811061397e57fe5b905060200201359050620186a061399f60328361422190919063ffffffff16565b816139a657fe5b048483815181106139b357fe5b602002602001018181525050613a348c8c848181106139ce57fe5b90506020020160208101906139e391906145f0565b8989858181106139ef57fe5b905060200201358c8c86818110613a0257fe5b9050602002016020810190613a1791906145f0565b73ffffffffffffffffffffffffffffffffffffffff169190614272565b50600101613968565b506040517fd9d1762300000000000000000000000000000000000000000000000000000000815273ffffffffffffffffffffffffffffffffffffffff8c169063d9d1762390613a9e9033908c908c908c908c908a908d908d90600401614de8565b600060405180830381600087803b158015613ab857600080fd5b505af1158015613acc573d6000803e3d6000fd5b5050505060005b81811015612731576000898983818110613ae957fe5b9050602002016020810190613afe91906145f0565b9050613b5c613b1f858481518110613b1257fe5b6020026020010151613d44565b73ffffffffffffffffffffffffffffffffffffffff83166000908152600760205260409020906fffffffffffffffffffffffffffffffff1661441e565b613b6582613e8f565b1015613b9d576040517f08c379a000000000000000000000000000000000000000000000000000000000815260040161067790615651565b8b8b83818110613ba957fe5b9050602002016020810190613bbe91906145f0565b73ffffffffffffffffffffffffffffffffffffffff168173ffffffffffffffffffffffffffffffffffffffff168e73ffffffffffffffffffffffffffffffffffffffff167f3be9b85936d5d30a1655ea116a17ee3d827b2cd428cc026ce5bf2ac46a2232048b8b87818110613c2f57fe5b90506020020135888781518110613c4257fe5b6020026020010151604051613c589291906157da565b60405180910390a450600101613ad3565b600660209081526000928352604080842090915290825290205481565b82516000906fffffffffffffffffffffffffffffffff16613ca8575081613d3d565b835160208501516fffffffffffffffffffffffffffffffff91821691613cd091869116614221565b81613cd757fe5b049050818015613d2d57508284602001516fffffffffffffffffffffffffffffffff16613d2386600001516fffffffffffffffffffffffffffffffff168461422190919063ffffffff16565b81613d2a57fe5b04105b15613d3d576117cc816001613fb0565b9392505050565b60006fffffffffffffffffffffffffffffffff821115613d90576040517f08c379a0000000000000000000000000000000000000000000000000000000008152600401610677906152e9565b5090565b8181016fffffffffffffffffffffffffffffffff8083169082161015613de6576040517f08c379a000000000000000000000000000000000000000000000000000000000815260040161067790615320565b92915050565b600083602001516fffffffffffffffffffffffffffffffff1660001415613e14575081613d3d565b602084015184516fffffffffffffffffffffffffffffffff91821691613e3c91869116614221565b81613e4357fe5b049050818015613d2d57508284600001516fffffffffffffffffffffffffffffffff16613d2386602001516fffffffffffffffffffffffffffffffff168461422190919063ffffffff16565b73ffffffffffffffffffffffffffffffffffffffff81166000818152600a60205260408082205490517f70a082310000000000000000000000000000000000000000000000000000000081529192613de6927001000000000000000000000000000000009092046fffffffffffffffffffffffffffffffff16916370a0823190613f1d903090600401614dc7565b60206040518083038186803b158015613f3557600080fd5b505afa158015613f49573d6000803e3d6000fd5b505050506040513d601f19601f82011682018060405250810190613f6d9190614bb6565b90613fb0565b80820382811115613de6576040517f08c379a000000000000000000000000000000000000000000000000000000000815260040161067790615131565b81810181811015613de6576040517f08c379a000000000000000000000000000000000000000000000000000000000815260040161067790615320565b600060608573ffffffffffffffffffffffffffffffffffffffff166323b872dd60e01b86868660405160240161402593929190614f27565b604080517fffffffffffffffffffffffffffffffffffffffffffffffffffffffffffffffe08184030181529181526020820180517bffffffffffffffffffffffffffffffffffffffffffffffffffffffff167fffffffff000000000000000000000000000000000000000000000000000000009094169390931790925290516140ae9190614d81565b6000604051808303816000865af19150503d80600081146140eb576040519150601f19603f3d011682016040523d82523d6000602084013e6140f0565b606091505b509150915081801561411a57508051158061411a57508080602001905181019061411a91906147d7565b614150576040517f08c379a0000000000000000000000000000000000000000000000000000000008152600401610677906155e5565b505050505050565b60007f8cad95687ba82c2ce50e74f7b754645e5117c3a5bec8151c0726d5857980a8667fd7df266aff736d415a9dc14b4158201d612e70d75b9c7f4e375ccfd20aa5166f83306040516020016141b194939291906150bb565b6040516020818303038152906040528051906020012090505b919050565b8082036fffffffffffffffffffffffffffffffff8084169082161115613de6576040517f08c379a000000000000000000000000000000000000000000000000000000000815260040161067790615131565b600081158061423c5750508082028282828161423957fe5b04145b613de6576040517f08c379a0000000000000000000000000000000000000000000000000000000008152600401610677906156f6565b600060608473ffffffffffffffffffffffffffffffffffffffff1663a9059cbb60e01b85856040516024016142a8929190614fa6565b604080517fffffffffffffffffffffffffffffffffffffffffffffffffffffffffffffffe08184030181529181526020820180517bffffffffffffffffffffffffffffffffffffffffffffffffffffffff167fffffffff000000000000000000000000000000000000000000000000000000009094169390931790925290516143319190614d81565b6000604051808303816000865af19150503d806000811461436e576040519150601f19603f3d011682016040523d82523d6000602084013e614373565b606091505b509150915081801561439d57508051158061439d57508080602001905181019061439d91906147d7565b6143d3576040517f08c379a00000000000000000000000000000000000000000000000000000000081526004016106779061520d565b5050505050565b600067ffffffffffffffff821115613d90576040517f08c379a00000000000000000000000000000000000000000000000000000000081526004016106779061549d565b600061444661442c83613d44565b84546fffffffffffffffffffffffffffffffff1690613d94565b83547fffffffffffffffffffffffffffffffff00000000000000000000000000000000166fffffffffffffffffffffffffffffffff919091169081179093555090919050565b600061444661449a83613d44565b84546fffffffffffffffffffffffffffffffff16906141cf565b60606044825110156144fa575060408051808201909152601d81527f5472616e73616374696f6e2072657665727465642073696c656e746c7900000060208201526141ca565b60048201915081806020019051810190613de69190614bce565b604080518082019091526000808252602082015290565b604080516060810182526000808252602082018190529181019190915290565b60008083601f84011261455c578182fd5b50813567ffffffffffffffff811115614573578182fd5b602083019150836020808302850101111561458d57600080fd5b9250929050565b60008083601f8401126145a5578182fd5b50813567ffffffffffffffff8111156145bc578182fd5b60208301915083602082850101111561458d57600080fd5b8035613de6816158c6565b803560ff81168114613de657600080fd5b600060208284031215614601578081fd5b8135613d3d816158c6565b6000806040838503121561461e578081fd5b8235614629816158c6565b91506020830135614639816158c6565b809150509250929050565b60008060008060008060c0878903121561465c578182fd5b8635614667816158c6565b95506020870135614677816158c6565b94506040870135614687816158eb565b935061469688606089016145df565b92506080870135915060a087013590509295509295509295565b600080604083850312156146c2578182fd5b82356146cd816158c6565b91506020830135614639816158eb565b6000806000606084860312156146f1578283fd5b83356146fc816158c6565b9250602084013561470c816158eb565b9150604084013561471c816158eb565b809150509250925092565b6000806000806060858703121561473c578384fd5b8435614747816158c6565b9350602085013567ffffffffffffffff811115614762578384fd5b61476e87828801614594565b9094509250506040850135614782816158eb565b939692955090935050565b6000806000604084860312156147a1578081fd5b833567ffffffffffffffff8111156147b7578182fd5b6147c38682870161454b565b909450925050602084013561471c816158eb565b6000602082840312156147e8578081fd5b8151613d3d816158eb565b600080600080600080600080600060a08a8c031215614810578687fd5b893561481b816158c6565b985060208a013567ffffffffffffffff80821115614837578889fd5b6148438d838e0161454b565b909a50985060408c013591508082111561485b578485fd5b6148678d838e0161454b565b909850965060608c013591508082111561487f578485fd5b61488b8d838e0161454b565b909650945060808c01359150808211156148a3578384fd5b506148b08c828d01614594565b915080935050809150509295985092959850929598565b6000806040838503121561461e578182fd5b600080600080608085870312156148ee578182fd5b84356148f9816158c6565b93506020850135614909816158c6565b92506040850135614919816158c6565b9396929550929360600135925050565b600080600080600060a08688031215614940578283fd5b853561494b816158c6565b9450602086013561495b816158c6565b9350604086013561496b816158c6565b94979396509394606081013594506080013592915050565b600080600080600080600080610100898b03121561499f578182fd5b88356149aa816158c6565b975060208901356149ba816158c6565b965060408901356149ca816158c6565b955060608901359450608089013593506149e78a60a08b016145df565b925060c0890135915060e089013590509295985092959890939650565b60008060008060008060808789031215614a1c578384fd5b8635614a27816158c6565b95506020870135614a37816158c6565b9450604087013567ffffffffffffffff80821115614a53578586fd5b614a5f8a838b0161454b565b90965094506060890135915080821115614a77578384fd5b50614a8489828a0161454b565b979a9699509497509295939492505050565b600080600060608486031215614aaa578081fd5b8335614ab5816158c6565b92506020840135614ac5816158eb565b929592945050506040919091013590565b600080600060608486031215614aea578081fd5b8335614af5816158c6565b925060208401359150604084013561471c816158eb565b60008060408385031215614b1e578182fd5b8235614b29816158c6565b9150602083013567ffffffffffffffff81168114614639578182fd5b60008060008060008060a08789031215614b5d578384fd5b8635614b68816158c6565b95506020870135614b78816158c6565b94506040870135614b88816158c6565b935060608701359250608087013567ffffffffffffffff811115614baa578283fd5b614a8489828a01614594565b600060208284031215614bc7578081fd5b5051919050565b600060208284031215614bdf578081fd5b815167ffffffffffffffff80821115614bf6578283fd5b818401915084601f830112614c09578283fd5b815181811115614c17578384fd5b60405160207fffffffffffffffffffffffffffffffffffffffffffffffffffffffffffffffe0601f8401168201018181108482111715614c55578586fd5b604052818152838201602001871015614c6c578485fd5b614c7d826020830160208701615896565b9695505050505050565b73ffffffffffffffffffffffffffffffffffffffff16815260200190565b6000815180845260208085019450808401835b83811015614cd457815187529582019590820190600101614cb8565b509495945050505050565b600082845282826020860137806020848601015260207fffffffffffffffffffffffffffffffffffffffffffffffffffffffffffffffe0601f85011685010190509392505050565b60008151808452614d3f816020860160208601615896565b601f017fffffffffffffffffffffffffffffffffffffffffffffffffffffffffffffffe0169290920160200192915050565b6000828483379101908152919050565b60008251614d93818460208701615896565b9190910192915050565b60008451614daf818460208901615896565b91909101928352506020820152604001919050565b90565b73ffffffffffffffffffffffffffffffffffffffff91909116815260200190565b600060a0820173ffffffffffffffffffffffffffffffffffffffff8b168352602060a08185015281614e1a8b84615071565b90508b9250835b8b811015614e4c57828401614e3f83614e3a83886145d4565b614c87565b9094509150600101614e21565b5084810360408601528881527f07ffffffffffffffffffffffffffffffffffffffffffffffffffffffffffffff891115614e84578384fd5b8189029250828a8383013782810192505080820183815281858403016060860152614eaf8189614ca5565b925050508281036080840152614ec6818587614cdf565b9b9a5050505050505050505050565b600073ffffffffffffffffffffffffffffffffffffffff808916835280881660208401525085604083015284606083015260a06080830152614f1b60a083018486614cdf565b98975050505050505050565b73ffffffffffffffffffffffffffffffffffffffff9384168152919092166020820152604081019190915260600190565b73ffffffffffffffffffffffffffffffffffffffff97881681529590961660208601526040850193909352606084019190915260ff16608083015260a082015260c081019190915260e00190565b73ffffffffffffffffffffffffffffffffffffffff929092168252602082015260400190565b604080825283519082018190526000906020906060840190828701845b82811015615007578151151584529284019290840190600101614fe9565b5050508381038285015280855161501e8184615071565b91508192508381028201848801865b83811015615057578583038552615045838351614d27565b9487019492509086019060010161502d565b50909998505050505050505050565b901515815260200190565b90815260200190565b958652602086019490945273ffffffffffffffffffffffffffffffffffffffff9283166040860152911660608401521515608083015260a082015260c00190565b9384526020840192909252604083015273ffffffffffffffffffffffffffffffffffffffff16606082015260800190565b93845260ff9290921660208401526040830152606082015260800190565b6000602082526117cc602083018486614cdf565b600060208252613d3d6020830184614d27565b60208082526015908201527f426f72696e674d6174683a20556e646572666c6f770000000000000000000000604082015260600190565b60208082526017908201527f42656e746f426f783a20536b696d20746f6f206d756368000000000000000000604082015260600190565b6020808252601c908201527f4d6173746572434d67723a2043616e6e6f7420617070726f7665203000000000604082015260600190565b6020808252601b908201527f4d6173746572434d67723a2075736572206e6f742073656e6465720000000000604082015260600190565b6020808252601c908201527f426f72696e6745524332303a205472616e73666572206661696c656400000000604082015260600190565b60208082526016908201527f42656e746f426f783a2063616e6e6f7420656d70747900000000000000000000604082015260600190565b60208082526015908201527f4f776e61626c653a207a65726f20616464726573730000000000000000000000604082015260600190565b60208082526013908201527f42656e746f426f783a204e6f20746f6b656e7300000000000000000000000000604082015260600190565b6020808252601c908201527f426f72696e674d6174683a2075696e74313238204f766572666c6f7700000000604082015260600190565b60208082526018908201527f426f72696e674d6174683a20416464204f766572666c6f770000000000000000604082015260600190565b60208082526017908201527f42656e746f426f783a20746f5b305d206e6f7420736574000000000000000000604082015260600190565b60208082526014908201527f42656e746f426f783a20746f206e6f7420736574000000000000000000000000604082015260600190565b6020808252601a908201527f53747261746567794d616e616765723a20546f6f206561726c79000000000000604082015260600190565b6020808252818101527f4f776e61626c653a2063616c6c6572206973206e6f7420746865206f776e6572604082015260600190565b6020808252601f908201527f42656e746f426f783a205472616e73666572206e6f7420617070726f76656400604082015260600190565b6020808252818101527f4f776e61626c653a2063616c6c657220213d2070656e64696e67206f776e6572604082015260600190565b6020808252601b908201527f426f72696e674d6174683a2075696e743634204f766572666c6f770000000000604082015260600190565b60208082526019908201527f4d6173746572434d67723a207573657220697320636c6f6e6500000000000000604082015260600190565b6020808252601d908201527f4d6173746572434d67723a20496e76616c6964205369676e6174757265000000604082015260600190565b6020808252818101527f426f72696e67466163746f72793a204e6f206d6173746572436f6e7472616374604082015260600190565b6020808252601b908201527f4d6173746572434d67723a206d617374657243206e6f74207365740000000000604082015260600190565b6020808252601b908201527f42656e746f426f783a206e6f206d6173746572436f6e74726163740000000000604082015260600190565b6020808252818101527f426f72696e6745524332303a205472616e7366657246726f6d206661696c6564604082015260600190565b6020808252601c908201527f4d6173746572434d67723a20557365722063616e6e6f74206265203000000000604082015260600190565b60208082526016908201527f42656e746f426f783a2057726f6e6720616d6f756e7400000000000000000000604082015260600190565b6020808252601b908201527f4d6173746572434d67723a206e6f742077686974656c69737465640000000000604082015260600190565b6020808252601d908201527f42656e746f426f783a20455448207472616e73666572206661696c6564000000604082015260600190565b60208082526018908201527f426f72696e674d6174683a204d756c204f766572666c6f770000000000000000604082015260600190565b6020808252818101527f53747261746567794d616e616765723a2054617267657420746f6f2068696768604082015260600190565b6fffffffffffffffffffffffffffffffff91909116815260200190565b6fffffffffffffffffffffffffffffffff92909216825273ffffffffffffffffffffffffffffffffffffffff16602082015260400190565b6fffffffffffffffffffffffffffffffff92831681529116602082015260400190565b918252602082015260400190565b67ffffffffffffffff91909116815260200190565b67ffffffffffffffff93841681529190921660208201526fffffffffffffffffffffffffffffffff909116604082015260600190565b60008083357fffffffffffffffffffffffffffffffffffffffffffffffffffffffffffffffe1843603018112615867578283fd5b83018035915067ffffffffffffffff821115615881578283fd5b60200191503681900382131561458d57600080fd5b60005b838110156158b1578181015183820152602001615899565b838111156158c0576000848401525b50505050565b73ffffffffffffffffffffffffffffffffffffffff811681146158e857600080fd5b50565b80151581146158e857600080fdfea264697066735822122088b580cc2677df8688457cab88886d2c6dfbe77ea376aec2d08bbeacec36736064736f6c634300060c0033","opcodes":"PUSH1 0xE0 PUSH1 0x40 MSTORE CALLVALUE DUP1 ISZERO PUSH3 0x11 JUMPI PUSH1 0x0 DUP1 REVERT JUMPDEST POP PUSH1 0x40 MLOAD PUSH3 0x5AD8 CODESIZE SUB DUP1 PUSH3 0x5AD8 DUP4 CODECOPY DUP2 ADD PUSH1 0x40 DUP2 SWAP1 MSTORE PUSH3 0x34 SWAP2 PUSH3 0x116 JUMP JUMPDEST PUSH1 0x0 DUP1 SLOAD PUSH1 0x1 PUSH1 0x1 PUSH1 0xA0 SHL SUB NOT AND CALLER SWAP1 DUP2 OR DUP3 SSTORE PUSH1 0x40 MLOAD SWAP1 SWAP2 SWAP1 PUSH32 0x8BE0079C531659141344CD1FD0A4F28419497F9722A3DAAFE3B4186F6B6457E0 SWAP1 DUP3 SWAP1 LOG3 CHAINID PUSH1 0xA0 DUP2 SWAP1 MSTORE PUSH3 0x84 DUP2 PUSH3 0x9E JUMP JUMPDEST PUSH1 0x80 MSTORE POP PUSH1 0x60 SHL PUSH1 0x1 PUSH1 0x1 PUSH1 0x60 SHL SUB NOT AND PUSH1 0xC0 MSTORE PUSH3 0x16A JUMP JUMPDEST PUSH1 0x0 PUSH32 0x8CAD95687BA82C2CE50E74F7B754645E5117C3A5BEC8151C0726D5857980A866 PUSH32 0xD7DF266AFF736D415A9DC14B4158201D612E70D75B9C7F4E375CCFD20AA5166F DUP4 ADDRESS PUSH1 0x40 MLOAD PUSH1 0x20 ADD PUSH3 0xF9 SWAP5 SWAP4 SWAP3 SWAP2 SWAP1 PUSH3 0x146 JUMP JUMPDEST PUSH1 0x40 MLOAD PUSH1 0x20 DUP2 DUP4 SUB SUB DUP2 MSTORE SWAP1 PUSH1 0x40 MSTORE DUP1 MLOAD SWAP1 PUSH1 0x20 ADD KECCAK256 SWAP1 POP SWAP2 SWAP1 POP JUMP JUMPDEST PUSH1 0x0 PUSH1 0x20 DUP3 DUP5 SUB SLT ISZERO PUSH3 0x128 JUMPI DUP1 DUP2 REVERT JUMPDEST DUP2 MLOAD PUSH1 0x1 PUSH1 0x1 PUSH1 0xA0 SHL SUB DUP2 AND DUP2 EQ PUSH3 0x13F JUMPI DUP2 DUP3 REVERT JUMPDEST SWAP4 SWAP3 POP POP POP JUMP JUMPDEST SWAP4 DUP5 MSTORE PUSH1 0x20 DUP5 ADD SWAP3 SWAP1 SWAP3 MSTORE PUSH1 0x40 DUP4 ADD MSTORE PUSH1 0x1 PUSH1 0x1 PUSH1 0xA0 SHL SUB AND PUSH1 0x60 DUP3 ADD MSTORE PUSH1 0x80 ADD SWAP1 JUMP JUMPDEST PUSH1 0x80 MLOAD PUSH1 0xA0 MLOAD PUSH1 0xC0 MLOAD PUSH1 0x60 SHR PUSH2 0x592F PUSH3 0x1A9 PUSH1 0x0 CODECOPY DUP1 PUSH2 0x761 MSTORE DUP1 PUSH2 0xB37 MSTORE DUP1 PUSH2 0x2910 MSTORE DUP1 PUSH2 0x2BD6 MSTORE POP DUP1 PUSH2 0x1484 MSTORE POP DUP1 PUSH2 0x14B9 MSTORE POP PUSH2 0x592F PUSH1 0x0 RETURN INVALID PUSH1 0x80 PUSH1 0x40 MSTORE PUSH1 0x4 CALLDATASIZE LT PUSH2 0x1DC JUMPI PUSH1 0x0 CALLDATALOAD PUSH1 0xE0 SHR DUP1 PUSH4 0x7C516E94 GT PUSH2 0x102 JUMPI DUP1 PUSH4 0xD2423B51 GT PUSH2 0x95 JUMPI DUP1 PUSH4 0xF1676D37 GT PUSH2 0x64 JUMPI DUP1 PUSH4 0xF1676D37 EQ PUSH2 0x555 JUMPI DUP1 PUSH4 0xF18D03CC EQ PUSH2 0x575 JUMPI DUP1 PUSH4 0xF483B3DA EQ PUSH2 0x595 JUMPI DUP1 PUSH4 0xF7888AEC EQ PUSH2 0x5B5 JUMPI PUSH2 0x1E3 JUMP JUMPDEST DUP1 PUSH4 0xD2423B51 EQ PUSH2 0x4D0 JUMPI DUP1 PUSH4 0xDA5139CA EQ PUSH2 0x4F1 JUMPI DUP1 PUSH4 0xDF23B45B EQ PUSH2 0x511 JUMPI DUP1 PUSH4 0xE30C3978 EQ PUSH2 0x540 JUMPI PUSH2 0x1E3 JUMP JUMPDEST DUP1 PUSH4 0x97DA6D30 GT PUSH2 0xD1 JUMPI DUP1 PUSH4 0x97DA6D30 EQ PUSH2 0x45B JUMPI DUP1 PUSH4 0xAEE4D1B2 EQ PUSH2 0x47B JUMPI DUP1 PUSH4 0xBAFE4F14 EQ PUSH2 0x490 JUMPI DUP1 PUSH4 0xC0A47C93 EQ PUSH2 0x4B0 JUMPI PUSH2 0x1E3 JUMP JUMPDEST DUP1 PUSH4 0x7C516E94 EQ PUSH2 0x3E6 JUMPI DUP1 PUSH4 0x7ECEBE00 EQ PUSH2 0x406 JUMPI DUP1 PUSH4 0x8DA5CB5B EQ PUSH2 0x426 JUMPI DUP1 PUSH4 0x91E0EAB5 EQ PUSH2 0x43B JUMPI PUSH2 0x1E3 JUMP JUMPDEST DUP1 PUSH4 0x3E2A9D4E GT PUSH2 0x17A JUMPI DUP1 PUSH4 0x56623118 GT PUSH2 0x149 JUMPI DUP1 PUSH4 0x56623118 EQ PUSH2 0x366 JUMPI DUP1 PUSH4 0x66C6BB0B EQ PUSH2 0x386 JUMPI DUP1 PUSH4 0x72CB5D97 EQ PUSH2 0x3A6 JUMPI DUP1 PUSH4 0x733A9D7C EQ PUSH2 0x3C6 JUMPI PUSH2 0x1E3 JUMP JUMPDEST DUP1 PUSH4 0x3E2A9D4E EQ PUSH2 0x2E3 JUMPI DUP1 PUSH4 0x4E71E0C8 EQ PUSH2 0x303 JUMPI DUP1 PUSH4 0x4FFE34DB EQ PUSH2 0x318 JUMPI DUP1 PUSH4 0x5108A558 EQ PUSH2 0x346 JUMPI PUSH2 0x1E3 JUMP JUMPDEST DUP1 PUSH4 0x12A90C8A GT PUSH2 0x1B6 JUMPI DUP1 PUSH4 0x12A90C8A EQ PUSH2 0x254 JUMPI DUP1 PUSH4 0x1F54245B EQ PUSH2 0x281 JUMPI DUP1 PUSH4 0x228BFD9F EQ PUSH2 0x2A1 JUMPI DUP1 PUSH4 0x3644E515 EQ PUSH2 0x2C1 JUMPI PUSH2 0x1E3 JUMP JUMPDEST DUP1 PUSH4 0x2B9446C EQ PUSH2 0x1E8 JUMPI DUP1 PUSH4 0x78DFBE7 EQ PUSH2 0x212 JUMPI DUP1 PUSH4 0xFCA8843 EQ PUSH2 0x234 JUMPI PUSH2 0x1E3 JUMP JUMPDEST CALLDATASIZE PUSH2 0x1E3 JUMPI STOP JUMPDEST PUSH1 0x0 DUP1 REVERT JUMPDEST PUSH2 0x1FB PUSH2 0x1F6 CALLDATASIZE PUSH1 0x4 PUSH2 0x4929 JUMP JUMPDEST PUSH2 0x5D5 JUMP JUMPDEST PUSH1 0x40 MLOAD PUSH2 0x209 SWAP3 SWAP2 SWAP1 PUSH2 0x57DA JUMP JUMPDEST PUSH1 0x40 MLOAD DUP1 SWAP2 SUB SWAP1 RETURN JUMPDEST CALLVALUE DUP1 ISZERO PUSH2 0x21E JUMPI PUSH1 0x0 DUP1 REVERT JUMPDEST POP PUSH2 0x232 PUSH2 0x22D CALLDATASIZE PUSH1 0x4 PUSH2 0x46DD JUMP JUMPDEST PUSH2 0xC8C JUMP JUMPDEST STOP JUMPDEST CALLVALUE DUP1 ISZERO PUSH2 0x240 JUMPI PUSH1 0x0 DUP1 REVERT JUMPDEST POP PUSH2 0x232 PUSH2 0x24F CALLDATASIZE PUSH1 0x4 PUSH2 0x4A04 JUMP JUMPDEST PUSH2 0xE17 JUMP JUMPDEST CALLVALUE DUP1 ISZERO PUSH2 0x260 JUMPI PUSH1 0x0 DUP1 REVERT JUMPDEST POP PUSH2 0x274 PUSH2 0x26F CALLDATASIZE PUSH1 0x4 PUSH2 0x45F0 JUMP JUMPDEST PUSH2 0x11D9 JUMP JUMPDEST PUSH1 0x40 MLOAD PUSH2 0x209 SWAP2 SWAP1 PUSH2 0x5066 JUMP JUMPDEST PUSH2 0x294 PUSH2 0x28F CALLDATASIZE PUSH1 0x4 PUSH2 0x4727 JUMP JUMPDEST PUSH2 0x11EE JUMP JUMPDEST PUSH1 0x40 MLOAD PUSH2 0x209 SWAP2 SWAP1 PUSH2 0x4DC7 JUMP JUMPDEST CALLVALUE DUP1 ISZERO PUSH2 0x2AD JUMPI PUSH1 0x0 DUP1 REVERT JUMPDEST POP PUSH2 0x294 PUSH2 0x2BC CALLDATASIZE PUSH1 0x4 PUSH2 0x45F0 JUMP JUMPDEST PUSH2 0x1457 JUMP JUMPDEST CALLVALUE DUP1 ISZERO PUSH2 0x2CD JUMPI PUSH1 0x0 DUP1 REVERT JUMPDEST POP PUSH2 0x2D6 PUSH2 0x147F JUMP JUMPDEST PUSH1 0x40 MLOAD PUSH2 0x209 SWAP2 SWAP1 PUSH2 0x5071 JUMP JUMPDEST CALLVALUE DUP1 ISZERO PUSH2 0x2EF JUMPI PUSH1 0x0 DUP1 REVERT JUMPDEST POP PUSH2 0x232 PUSH2 0x2FE CALLDATASIZE PUSH1 0x4 PUSH2 0x4B0C JUMP JUMPDEST PUSH2 0x14DF JUMP JUMPDEST CALLVALUE DUP1 ISZERO PUSH2 0x30F JUMPI PUSH1 0x0 DUP1 REVERT JUMPDEST POP PUSH2 0x232 PUSH2 0x1613 JUMP JUMPDEST CALLVALUE DUP1 ISZERO PUSH2 0x324 JUMPI PUSH1 0x0 DUP1 REVERT JUMPDEST POP PUSH2 0x338 PUSH2 0x333 CALLDATASIZE PUSH1 0x4 PUSH2 0x45F0 JUMP JUMPDEST PUSH2 0x16F9 JUMP JUMPDEST PUSH1 0x40 MLOAD PUSH2 0x209 SWAP3 SWAP2 SWAP1 PUSH2 0x57B7 JUMP JUMPDEST CALLVALUE DUP1 ISZERO PUSH2 0x352 JUMPI PUSH1 0x0 DUP1 REVERT JUMPDEST POP PUSH2 0x294 PUSH2 0x361 CALLDATASIZE PUSH1 0x4 PUSH2 0x45F0 JUMP JUMPDEST PUSH2 0x1735 JUMP JUMPDEST CALLVALUE DUP1 ISZERO PUSH2 0x372 JUMPI PUSH1 0x0 DUP1 REVERT JUMPDEST POP PUSH2 0x2D6 PUSH2 0x381 CALLDATASIZE PUSH1 0x4 PUSH2 0x4AD6 JUMP JUMPDEST PUSH2 0x175D JUMP JUMPDEST CALLVALUE DUP1 ISZERO PUSH2 0x392 JUMPI PUSH1 0x0 DUP1 REVERT JUMPDEST POP PUSH2 0x232 PUSH2 0x3A1 CALLDATASIZE PUSH1 0x4 PUSH2 0x4A96 JUMP JUMPDEST PUSH2 0x17D4 JUMP JUMPDEST CALLVALUE DUP1 ISZERO PUSH2 0x3B2 JUMPI PUSH1 0x0 DUP1 REVERT JUMPDEST POP PUSH2 0x232 PUSH2 0x3C1 CALLDATASIZE PUSH1 0x4 PUSH2 0x48C7 JUMP JUMPDEST PUSH2 0x1F89 JUMP JUMPDEST CALLVALUE DUP1 ISZERO PUSH2 0x3D2 JUMPI PUSH1 0x0 DUP1 REVERT JUMPDEST POP PUSH2 0x232 PUSH2 0x3E1 CALLDATASIZE PUSH1 0x4 PUSH2 0x46B0 JUMP JUMPDEST PUSH2 0x2588 JUMP JUMPDEST CALLVALUE DUP1 ISZERO PUSH2 0x3F2 JUMPI PUSH1 0x0 DUP1 REVERT JUMPDEST POP PUSH2 0x232 PUSH2 0x401 CALLDATASIZE PUSH1 0x4 PUSH2 0x4983 JUMP JUMPDEST PUSH2 0x26A5 JUMP JUMPDEST CALLVALUE DUP1 ISZERO PUSH2 0x412 JUMPI PUSH1 0x0 DUP1 REVERT JUMPDEST POP PUSH2 0x2D6 PUSH2 0x421 CALLDATASIZE PUSH1 0x4 PUSH2 0x45F0 JUMP JUMPDEST PUSH2 0x273F JUMP JUMPDEST CALLVALUE DUP1 ISZERO PUSH2 0x432 JUMPI PUSH1 0x0 DUP1 REVERT JUMPDEST POP PUSH2 0x294 PUSH2 0x2751 JUMP JUMPDEST CALLVALUE DUP1 ISZERO PUSH2 0x447 JUMPI PUSH1 0x0 DUP1 REVERT JUMPDEST POP PUSH2 0x274 PUSH2 0x456 CALLDATASIZE PUSH1 0x4 PUSH2 0x460C JUMP JUMPDEST PUSH2 0x276D JUMP JUMPDEST CALLVALUE DUP1 ISZERO PUSH2 0x467 JUMPI PUSH1 0x0 DUP1 REVERT JUMPDEST POP PUSH2 0x1FB PUSH2 0x476 CALLDATASIZE PUSH1 0x4 PUSH2 0x4929 JUMP JUMPDEST PUSH2 0x278D JUMP JUMPDEST CALLVALUE DUP1 ISZERO PUSH2 0x487 JUMPI PUSH1 0x0 DUP1 REVERT JUMPDEST POP PUSH2 0x232 PUSH2 0x2D7D JUMP JUMPDEST CALLVALUE DUP1 ISZERO PUSH2 0x49C JUMPI PUSH1 0x0 DUP1 REVERT JUMPDEST POP PUSH2 0x294 PUSH2 0x4AB CALLDATASIZE PUSH1 0x4 PUSH2 0x45F0 JUMP JUMPDEST PUSH2 0x2DDC JUMP JUMPDEST CALLVALUE DUP1 ISZERO PUSH2 0x4BC JUMPI PUSH1 0x0 DUP1 REVERT JUMPDEST POP PUSH2 0x232 PUSH2 0x4CB CALLDATASIZE PUSH1 0x4 PUSH2 0x4644 JUMP JUMPDEST PUSH2 0x2E04 JUMP JUMPDEST PUSH2 0x4E3 PUSH2 0x4DE CALLDATASIZE PUSH1 0x4 PUSH2 0x478D JUMP JUMPDEST PUSH2 0x325D JUMP JUMPDEST PUSH1 0x40 MLOAD PUSH2 0x209 SWAP3 SWAP2 SWAP1 PUSH2 0x4FCC JUMP JUMPDEST CALLVALUE DUP1 ISZERO PUSH2 0x4FD JUMPI PUSH1 0x0 DUP1 REVERT JUMPDEST POP PUSH2 0x2D6 PUSH2 0x50C CALLDATASIZE PUSH1 0x4 PUSH2 0x4AD6 JUMP JUMPDEST PUSH2 0x3409 JUMP JUMPDEST CALLVALUE DUP1 ISZERO PUSH2 0x51D JUMPI PUSH1 0x0 DUP1 REVERT JUMPDEST POP PUSH2 0x531 PUSH2 0x52C CALLDATASIZE PUSH1 0x4 PUSH2 0x45F0 JUMP JUMPDEST PUSH2 0x3478 JUMP JUMPDEST PUSH1 0x40 MLOAD PUSH2 0x209 SWAP4 SWAP3 SWAP2 SWAP1 PUSH2 0x57FD JUMP JUMPDEST CALLVALUE DUP1 ISZERO PUSH2 0x54C JUMPI PUSH1 0x0 DUP1 REVERT JUMPDEST POP PUSH2 0x294 PUSH2 0x34CD JUMP JUMPDEST CALLVALUE DUP1 ISZERO PUSH2 0x561 JUMPI PUSH1 0x0 DUP1 REVERT JUMPDEST POP PUSH2 0x232 PUSH2 0x570 CALLDATASIZE PUSH1 0x4 PUSH2 0x4B45 JUMP JUMPDEST PUSH2 0x34E9 JUMP JUMPDEST CALLVALUE DUP1 ISZERO PUSH2 0x581 JUMPI PUSH1 0x0 DUP1 REVERT JUMPDEST POP PUSH2 0x232 PUSH2 0x590 CALLDATASIZE PUSH1 0x4 PUSH2 0x48D9 JUMP JUMPDEST PUSH2 0x36C4 JUMP JUMPDEST CALLVALUE DUP1 ISZERO PUSH2 0x5A1 JUMPI PUSH1 0x0 DUP1 REVERT JUMPDEST POP PUSH2 0x232 PUSH2 0x5B0 CALLDATASIZE PUSH1 0x4 PUSH2 0x47F3 JUMP JUMPDEST PUSH2 0x391E JUMP JUMPDEST CALLVALUE DUP1 ISZERO PUSH2 0x5C1 JUMPI PUSH1 0x0 DUP1 REVERT JUMPDEST POP PUSH2 0x2D6 PUSH2 0x5D0 CALLDATASIZE PUSH1 0x4 PUSH2 0x48C7 JUMP JUMPDEST PUSH2 0x3C69 JUMP JUMPDEST PUSH1 0x0 DUP1 DUP6 PUSH20 0xFFFFFFFFFFFFFFFFFFFFFFFFFFFFFFFFFFFFFFFF DUP2 AND CALLER EQ DUP1 ISZERO SWAP1 PUSH2 0x615 JUMPI POP PUSH20 0xFFFFFFFFFFFFFFFFFFFFFFFFFFFFFFFFFFFFFFFF DUP2 AND ADDRESS EQ ISZERO JUMPDEST ISZERO PUSH2 0x6EE JUMPI CALLER PUSH1 0x0 SWAP1 DUP2 MSTORE PUSH1 0x2 PUSH1 0x20 MSTORE PUSH1 0x40 SWAP1 KECCAK256 SLOAD PUSH20 0xFFFFFFFFFFFFFFFFFFFFFFFFFFFFFFFFFFFFFFFF AND DUP1 PUSH2 0x680 JUMPI PUSH1 0x40 MLOAD PUSH32 0x8C379A000000000000000000000000000000000000000000000000000000000 DUP2 MSTORE PUSH1 0x4 ADD PUSH2 0x677 SWAP1 PUSH2 0x55AE JUMP JUMPDEST PUSH1 0x40 MLOAD DUP1 SWAP2 SUB SWAP1 REVERT JUMPDEST PUSH20 0xFFFFFFFFFFFFFFFFFFFFFFFFFFFFFFFFFFFFFFFF DUP1 DUP3 AND PUSH1 0x0 SWAP1 DUP2 MSTORE PUSH1 0x3 PUSH1 0x20 SWAP1 DUP2 MSTORE PUSH1 0x40 DUP1 DUP4 KECCAK256 SWAP4 DUP7 AND DUP4 MSTORE SWAP3 SWAP1 MSTORE KECCAK256 SLOAD PUSH1 0xFF AND PUSH2 0x6EC JUMPI PUSH1 0x40 MLOAD PUSH32 0x8C379A000000000000000000000000000000000000000000000000000000000 DUP2 MSTORE PUSH1 0x4 ADD PUSH2 0x677 SWAP1 PUSH2 0x5431 JUMP JUMPDEST POP JUMPDEST PUSH20 0xFFFFFFFFFFFFFFFFFFFFFFFFFFFFFFFFFFFFFFFF DUP7 AND PUSH2 0x73B JUMPI PUSH1 0x40 MLOAD PUSH32 0x8C379A000000000000000000000000000000000000000000000000000000000 DUP2 MSTORE PUSH1 0x4 ADD PUSH2 0x677 SWAP1 PUSH2 0x538E JUMP JUMPDEST PUSH1 0x0 PUSH20 0xFFFFFFFFFFFFFFFFFFFFFFFFFFFFFFFFFFFFFFFF DUP10 AND ISZERO PUSH2 0x75F JUMPI DUP9 PUSH2 0x781 JUMP JUMPDEST PUSH32 0x0 JUMPDEST SWAP1 POP PUSH2 0x78B PUSH2 0x4514 JUMP JUMPDEST POP PUSH20 0xFFFFFFFFFFFFFFFFFFFFFFFFFFFFFFFFFFFFFFFF DUP2 AND PUSH1 0x0 SWAP1 DUP2 MSTORE PUSH1 0x7 PUSH1 0x20 SWAP1 DUP2 MSTORE PUSH1 0x40 SWAP2 DUP3 SWAP1 KECCAK256 DUP3 MLOAD DUP1 DUP5 ADD SWAP1 SWAP4 MSTORE SLOAD PUSH16 0xFFFFFFFFFFFFFFFFFFFFFFFFFFFFFFFF DUP1 DUP3 AND DUP1 DUP6 MSTORE PUSH17 0x100000000000000000000000000000000 SWAP1 SWAP3 DIV AND SWAP2 DUP4 ADD SWAP2 SWAP1 SWAP2 MSTORE ISZERO ISZERO DUP1 PUSH2 0x87C JUMPI POP PUSH1 0x0 DUP3 PUSH20 0xFFFFFFFFFFFFFFFFFFFFFFFFFFFFFFFFFFFFFFFF AND PUSH4 0x18160DDD PUSH1 0x40 MLOAD DUP2 PUSH4 0xFFFFFFFF AND PUSH1 0xE0 SHL DUP2 MSTORE PUSH1 0x4 ADD PUSH1 0x20 PUSH1 0x40 MLOAD DUP1 DUP4 SUB DUP2 DUP7 DUP1 EXTCODESIZE ISZERO DUP1 ISZERO PUSH2 0x842 JUMPI PUSH1 0x0 DUP1 REVERT JUMPDEST POP GAS STATICCALL ISZERO DUP1 ISZERO PUSH2 0x856 JUMPI RETURNDATASIZE PUSH1 0x0 DUP1 RETURNDATACOPY RETURNDATASIZE PUSH1 0x0 REVERT JUMPDEST POP POP POP POP PUSH1 0x40 MLOAD RETURNDATASIZE PUSH1 0x1F NOT PUSH1 0x1F DUP3 ADD AND DUP3 ADD DUP1 PUSH1 0x40 MSTORE POP DUP2 ADD SWAP1 PUSH2 0x87A SWAP2 SWAP1 PUSH2 0x4BB6 JUMP JUMPDEST GT JUMPDEST PUSH2 0x8B2 JUMPI PUSH1 0x40 MLOAD PUSH32 0x8C379A000000000000000000000000000000000000000000000000000000000 DUP2 MSTORE PUSH1 0x4 ADD PUSH2 0x677 SWAP1 PUSH2 0x52B2 JUMP JUMPDEST DUP6 PUSH2 0x91C JUMPI PUSH2 0x8C3 DUP2 DUP9 PUSH1 0x0 PUSH2 0x3C86 JUMP JUMPDEST SWAP6 POP PUSH2 0x3E8 PUSH2 0x8F1 PUSH2 0x8D4 DUP9 PUSH2 0x3D44 JUMP JUMPDEST PUSH1 0x20 DUP5 ADD MLOAD PUSH16 0xFFFFFFFFFFFFFFFFFFFFFFFFFFFFFFFF AND SWAP1 PUSH2 0x3D94 JUMP JUMPDEST PUSH16 0xFFFFFFFFFFFFFFFFFFFFFFFFFFFFFFFF AND LT ISZERO PUSH2 0x917 JUMPI PUSH1 0x0 DUP1 SWAP5 POP SWAP5 POP POP POP PUSH2 0xC81 JUMP JUMPDEST PUSH2 0x92B JUMP JUMPDEST PUSH2 0x928 DUP2 DUP8 PUSH1 0x1 PUSH2 0x3DEC JUMP JUMPDEST SWAP7 POP JUMPDEST PUSH20 0xFFFFFFFFFFFFFFFFFFFFFFFFFFFFFFFFFFFFFFFF DUP10 AND ADDRESS EQ ISZERO DUP1 PUSH2 0x964 JUMPI POP PUSH20 0xFFFFFFFFFFFFFFFFFFFFFFFFFFFFFFFFFFFFFFFF DUP11 AND ISZERO JUMPDEST DUP1 PUSH2 0x995 JUMPI POP DUP1 MLOAD PUSH2 0x991 SWAP1 PUSH16 0xFFFFFFFFFFFFFFFFFFFFFFFFFFFFFFFF AND PUSH2 0x98B DUP5 PUSH2 0x3E8F JUMP JUMPDEST SWAP1 PUSH2 0x3F73 JUMP JUMPDEST DUP8 GT ISZERO JUMPDEST PUSH2 0x9CB JUMPI PUSH1 0x40 MLOAD PUSH32 0x8C379A000000000000000000000000000000000000000000000000000000000 DUP2 MSTORE PUSH1 0x4 ADD PUSH2 0x677 SWAP1 PUSH2 0x5168 JUMP JUMPDEST PUSH20 0xFFFFFFFFFFFFFFFFFFFFFFFFFFFFFFFFFFFFFFFF DUP1 DUP4 AND PUSH1 0x0 SWAP1 DUP2 MSTORE PUSH1 0x6 PUSH1 0x20 SWAP1 DUP2 MSTORE PUSH1 0x40 DUP1 DUP4 KECCAK256 SWAP4 DUP13 AND DUP4 MSTORE SWAP3 SWAP1 MSTORE KECCAK256 SLOAD PUSH2 0xA08 SWAP1 DUP8 PUSH2 0x3FB0 JUMP JUMPDEST PUSH20 0xFFFFFFFFFFFFFFFFFFFFFFFFFFFFFFFFFFFFFFFF DUP1 DUP5 AND PUSH1 0x0 SWAP1 DUP2 MSTORE PUSH1 0x6 PUSH1 0x20 SWAP1 DUP2 MSTORE PUSH1 0x40 DUP1 DUP4 KECCAK256 SWAP4 DUP14 AND DUP4 MSTORE SWAP3 SWAP1 MSTORE KECCAK256 SSTORE PUSH2 0xA64 PUSH2 0xA47 DUP8 PUSH2 0x3D44 JUMP JUMPDEST PUSH1 0x20 DUP4 ADD MLOAD PUSH16 0xFFFFFFFFFFFFFFFFFFFFFFFFFFFFFFFF AND SWAP1 PUSH2 0x3D94 JUMP JUMPDEST PUSH16 0xFFFFFFFFFFFFFFFFFFFFFFFFFFFFFFFF AND PUSH1 0x20 DUP3 ADD MSTORE PUSH2 0xAA1 PUSH2 0xA87 DUP9 PUSH2 0x3D44 JUMP JUMPDEST DUP3 MLOAD PUSH16 0xFFFFFFFFFFFFFFFFFFFFFFFFFFFFFFFF AND SWAP1 PUSH2 0x3D94 JUMP JUMPDEST PUSH16 0xFFFFFFFFFFFFFFFFFFFFFFFFFFFFFFFF SWAP1 DUP2 AND DUP3 MSTORE PUSH20 0xFFFFFFFFFFFFFFFFFFFFFFFFFFFFFFFFFFFFFFFF DUP1 DUP5 AND PUSH1 0x0 SWAP1 DUP2 MSTORE PUSH1 0x7 PUSH1 0x20 SWAP1 DUP2 MSTORE PUSH1 0x40 SWAP1 SWAP2 KECCAK256 DUP5 MLOAD DUP2 SLOAD SWAP3 DUP7 ADD MLOAD DUP6 AND PUSH17 0x100000000000000000000000000000000 MUL SWAP1 DUP6 AND PUSH32 0xFFFFFFFFFFFFFFFFFFFFFFFFFFFFFFFF00000000000000000000000000000000 SWAP1 SWAP4 AND SWAP3 SWAP1 SWAP3 OR SWAP1 SWAP4 AND OR SWAP1 SWAP2 SSTORE DUP11 AND PUSH2 0xBBB JUMPI PUSH32 0x0 PUSH20 0xFFFFFFFFFFFFFFFFFFFFFFFFFFFFFFFFFFFFFFFF AND PUSH4 0xD0E30DB0 DUP9 PUSH1 0x40 MLOAD DUP3 PUSH4 0xFFFFFFFF AND PUSH1 0xE0 SHL DUP2 MSTORE PUSH1 0x4 ADD PUSH1 0x0 PUSH1 0x40 MLOAD DUP1 DUP4 SUB DUP2 DUP6 DUP9 DUP1 EXTCODESIZE ISZERO DUP1 ISZERO PUSH2 0xB9D JUMPI PUSH1 0x0 DUP1 REVERT JUMPDEST POP GAS CALL ISZERO DUP1 ISZERO PUSH2 0xBB1 JUMPI RETURNDATASIZE PUSH1 0x0 DUP1 RETURNDATACOPY RETURNDATASIZE PUSH1 0x0 REVERT JUMPDEST POP POP POP POP POP PUSH2 0xBFA JUMP JUMPDEST PUSH20 0xFFFFFFFFFFFFFFFFFFFFFFFFFFFFFFFFFFFFFFFF DUP10 AND ADDRESS EQ PUSH2 0xBFA JUMPI PUSH2 0xBFA PUSH20 0xFFFFFFFFFFFFFFFFFFFFFFFFFFFFFFFFFFFFFFFF DUP4 AND DUP11 ADDRESS DUP11 PUSH2 0x3FED JUMP JUMPDEST DUP8 PUSH20 0xFFFFFFFFFFFFFFFFFFFFFFFFFFFFFFFFFFFFFFFF AND DUP10 PUSH20 0xFFFFFFFFFFFFFFFFFFFFFFFFFFFFFFFFFFFFFFFF AND DUP4 PUSH20 0xFFFFFFFFFFFFFFFFFFFFFFFFFFFFFFFFFFFFFFFF AND PUSH32 0xB2346165E782564F17F5B7E555C21F4FD96FBC93458572BF0113EA35A958FC55 DUP11 DUP11 PUSH1 0x40 MLOAD PUSH2 0xC70 SWAP3 SWAP2 SWAP1 PUSH2 0x57DA JUMP JUMPDEST PUSH1 0x40 MLOAD DUP1 SWAP2 SUB SWAP1 LOG4 DUP7 SWAP5 POP DUP6 SWAP4 POP POP POP JUMPDEST POP SWAP6 POP SWAP6 SWAP4 POP POP POP POP JUMP JUMPDEST PUSH1 0x0 SLOAD PUSH20 0xFFFFFFFFFFFFFFFFFFFFFFFFFFFFFFFFFFFFFFFF AND CALLER EQ PUSH2 0xCDD JUMPI PUSH1 0x40 MLOAD PUSH32 0x8C379A000000000000000000000000000000000000000000000000000000000 DUP2 MSTORE PUSH1 0x4 ADD PUSH2 0x677 SWAP1 PUSH2 0x53FC JUMP JUMPDEST DUP2 ISZERO PUSH2 0xDD1 JUMPI PUSH20 0xFFFFFFFFFFFFFFFFFFFFFFFFFFFFFFFFFFFFFFFF DUP4 AND ISZERO ISZERO DUP1 PUSH2 0xD04 JUMPI POP DUP1 JUMPDEST PUSH2 0xD3A JUMPI PUSH1 0x40 MLOAD PUSH32 0x8C379A000000000000000000000000000000000000000000000000000000000 DUP2 MSTORE PUSH1 0x4 ADD PUSH2 0x677 SWAP1 PUSH2 0x527B JUMP JUMPDEST PUSH1 0x0 DUP1 SLOAD PUSH1 0x40 MLOAD PUSH20 0xFFFFFFFFFFFFFFFFFFFFFFFFFFFFFFFFFFFFFFFF DUP1 DUP8 AND SWAP4 SWAP3 AND SWAP2 PUSH32 0x8BE0079C531659141344CD1FD0A4F28419497F9722A3DAAFE3B4186F6B6457E0 SWAP2 LOG3 PUSH1 0x0 DUP1 SLOAD PUSH20 0xFFFFFFFFFFFFFFFFFFFFFFFFFFFFFFFFFFFFFFFF DUP6 AND PUSH32 0xFFFFFFFFFFFFFFFFFFFFFFFF0000000000000000000000000000000000000000 SWAP2 DUP3 AND OR SWAP1 SWAP2 SSTORE PUSH1 0x1 DUP1 SLOAD SWAP1 SWAP2 AND SWAP1 SSTORE PUSH2 0xE12 JUMP JUMPDEST PUSH1 0x1 DUP1 SLOAD PUSH32 0xFFFFFFFFFFFFFFFFFFFFFFFF0000000000000000000000000000000000000000 AND PUSH20 0xFFFFFFFFFFFFFFFFFFFFFFFFFFFFFFFFFFFFFFFF DUP6 AND OR SWAP1 SSTORE JUMPDEST POP POP POP JUMP JUMPDEST DUP5 PUSH20 0xFFFFFFFFFFFFFFFFFFFFFFFFFFFFFFFFFFFFFFFF DUP2 AND CALLER EQ DUP1 ISZERO SWAP1 PUSH2 0xE54 JUMPI POP PUSH20 0xFFFFFFFFFFFFFFFFFFFFFFFFFFFFFFFFFFFFFFFF DUP2 AND ADDRESS EQ ISZERO JUMPDEST ISZERO PUSH2 0xF24 JUMPI CALLER PUSH1 0x0 SWAP1 DUP2 MSTORE PUSH1 0x2 PUSH1 0x20 MSTORE PUSH1 0x40 SWAP1 KECCAK256 SLOAD PUSH20 0xFFFFFFFFFFFFFFFFFFFFFFFFFFFFFFFFFFFFFFFF AND DUP1 PUSH2 0xEB6 JUMPI PUSH1 0x40 MLOAD PUSH32 0x8C379A000000000000000000000000000000000000000000000000000000000 DUP2 MSTORE PUSH1 0x4 ADD PUSH2 0x677 SWAP1 PUSH2 0x55AE JUMP JUMPDEST PUSH20 0xFFFFFFFFFFFFFFFFFFFFFFFFFFFFFFFFFFFFFFFF DUP1 DUP3 AND PUSH1 0x0 SWAP1 DUP2 MSTORE PUSH1 0x3 PUSH1 0x20 SWAP1 DUP2 MSTORE PUSH1 0x40 DUP1 DUP4 KECCAK256 SWAP4 DUP7 AND DUP4 MSTORE SWAP3 SWAP1 MSTORE KECCAK256 SLOAD PUSH1 0xFF AND PUSH2 0xF22 JUMPI PUSH1 0x40 MLOAD PUSH32 0x8C379A000000000000000000000000000000000000000000000000000000000 DUP2 MSTORE PUSH1 0x4 ADD PUSH2 0x677 SWAP1 PUSH2 0x5431 JUMP JUMPDEST POP JUMPDEST PUSH1 0x0 DUP6 DUP6 DUP3 DUP2 PUSH2 0xF30 JUMPI INVALID JUMPDEST SWAP1 POP PUSH1 0x20 MUL ADD PUSH1 0x20 DUP2 ADD SWAP1 PUSH2 0xF45 SWAP2 SWAP1 PUSH2 0x45F0 JUMP JUMPDEST PUSH20 0xFFFFFFFFFFFFFFFFFFFFFFFFFFFFFFFFFFFFFFFF AND EQ ISZERO PUSH2 0xF93 JUMPI PUSH1 0x40 MLOAD PUSH32 0x8C379A000000000000000000000000000000000000000000000000000000000 DUP2 MSTORE PUSH1 0x4 ADD PUSH2 0x677 SWAP1 PUSH2 0x5357 JUMP JUMPDEST PUSH1 0x0 DUP5 DUP2 JUMPDEST DUP2 DUP2 LT ISZERO PUSH2 0x1157 JUMPI PUSH1 0x0 DUP9 DUP9 DUP4 DUP2 DUP2 LT PUSH2 0xFAE JUMPI INVALID JUMPDEST SWAP1 POP PUSH1 0x20 MUL ADD PUSH1 0x20 DUP2 ADD SWAP1 PUSH2 0xFC3 SWAP2 SWAP1 PUSH2 0x45F0 JUMP JUMPDEST SWAP1 POP PUSH2 0x1066 DUP8 DUP8 DUP5 DUP2 DUP2 LT PUSH2 0xFD4 JUMPI INVALID JUMPDEST SWAP1 POP PUSH1 0x20 MUL ADD CALLDATALOAD PUSH1 0x6 PUSH1 0x0 DUP15 PUSH20 0xFFFFFFFFFFFFFFFFFFFFFFFFFFFFFFFFFFFFFFFF AND PUSH20 0xFFFFFFFFFFFFFFFFFFFFFFFFFFFFFFFFFFFFFFFF AND DUP2 MSTORE PUSH1 0x20 ADD SWAP1 DUP2 MSTORE PUSH1 0x20 ADD PUSH1 0x0 KECCAK256 PUSH1 0x0 DUP5 PUSH20 0xFFFFFFFFFFFFFFFFFFFFFFFFFFFFFFFFFFFFFFFF AND PUSH20 0xFFFFFFFFFFFFFFFFFFFFFFFFFFFFFFFFFFFFFFFF AND DUP2 MSTORE PUSH1 0x20 ADD SWAP1 DUP2 MSTORE PUSH1 0x20 ADD PUSH1 0x0 KECCAK256 SLOAD PUSH2 0x3FB0 SWAP1 SWAP2 SWAP1 PUSH4 0xFFFFFFFF AND JUMP JUMPDEST PUSH20 0xFFFFFFFFFFFFFFFFFFFFFFFFFFFFFFFFFFFFFFFF DUP1 DUP14 AND PUSH1 0x0 SWAP1 DUP2 MSTORE PUSH1 0x6 PUSH1 0x20 SWAP1 DUP2 MSTORE PUSH1 0x40 DUP1 DUP4 KECCAK256 SWAP4 DUP7 AND DUP4 MSTORE SWAP3 SWAP1 MSTORE KECCAK256 SSTORE PUSH2 0x10BE DUP8 DUP8 DUP5 DUP2 DUP2 LT PUSH2 0x10A8 JUMPI INVALID JUMPDEST SWAP1 POP PUSH1 0x20 MUL ADD CALLDATALOAD DUP6 PUSH2 0x3FB0 SWAP1 SWAP2 SWAP1 PUSH4 0xFFFFFFFF AND JUMP JUMPDEST SWAP4 POP DUP1 PUSH20 0xFFFFFFFFFFFFFFFFFFFFFFFFFFFFFFFFFFFFFFFF AND DUP11 PUSH20 0xFFFFFFFFFFFFFFFFFFFFFFFFFFFFFFFFFFFFFFFF AND DUP13 PUSH20 0xFFFFFFFFFFFFFFFFFFFFFFFFFFFFFFFFFFFFFFFF AND PUSH32 0x6EABE333476233FD382224F233210CB808A7BC4C4DE64F9D76628BF63C677B1A DUP11 DUP11 DUP8 DUP2 DUP2 LT PUSH2 0x1132 JUMPI INVALID JUMPDEST SWAP1 POP PUSH1 0x20 MUL ADD CALLDATALOAD PUSH1 0x40 MLOAD PUSH2 0x1146 SWAP2 SWAP1 PUSH2 0x5071 JUMP JUMPDEST PUSH1 0x40 MLOAD DUP1 SWAP2 SUB SWAP1 LOG4 POP PUSH1 0x1 ADD PUSH2 0xF98 JUMP JUMPDEST POP PUSH20 0xFFFFFFFFFFFFFFFFFFFFFFFFFFFFFFFFFFFFFFFF DUP1 DUP11 AND PUSH1 0x0 SWAP1 DUP2 MSTORE PUSH1 0x6 PUSH1 0x20 SWAP1 DUP2 MSTORE PUSH1 0x40 DUP1 DUP4 KECCAK256 SWAP4 DUP13 AND DUP4 MSTORE SWAP3 SWAP1 MSTORE KECCAK256 SLOAD PUSH2 0x1195 SWAP1 DUP4 PUSH2 0x3F73 JUMP JUMPDEST PUSH20 0xFFFFFFFFFFFFFFFFFFFFFFFFFFFFFFFFFFFFFFFF SWAP10 DUP11 AND PUSH1 0x0 SWAP1 DUP2 MSTORE PUSH1 0x6 PUSH1 0x20 SWAP1 DUP2 MSTORE PUSH1 0x40 DUP1 DUP4 KECCAK256 SWAP12 SWAP1 SWAP13 AND DUP3 MSTORE SWAP10 SWAP1 SWAP10 MSTORE SWAP9 SWAP1 SWAP8 KECCAK256 SWAP8 SWAP1 SWAP8 SSTORE POP POP POP POP POP POP POP JUMP JUMPDEST PUSH1 0x4 PUSH1 0x20 MSTORE PUSH1 0x0 SWAP1 DUP2 MSTORE PUSH1 0x40 SWAP1 KECCAK256 SLOAD PUSH1 0xFF AND DUP2 JUMP JUMPDEST PUSH1 0x0 PUSH20 0xFFFFFFFFFFFFFFFFFFFFFFFFFFFFFFFFFFFFFFFF DUP6 AND PUSH2 0x123D JUMPI PUSH1 0x40 MLOAD PUSH32 0x8C379A000000000000000000000000000000000000000000000000000000000 DUP2 MSTORE PUSH1 0x4 ADD PUSH2 0x677 SWAP1 PUSH2 0x5542 JUMP JUMPDEST PUSH1 0x60 DUP6 SWAP1 SHL DUP3 ISZERO PUSH2 0x12C6 JUMPI PUSH1 0x0 DUP6 DUP6 PUSH1 0x40 MLOAD PUSH2 0x125A SWAP3 SWAP2 SWAP1 PUSH2 0x4D71 JUMP JUMPDEST PUSH1 0x40 MLOAD DUP1 SWAP2 SUB SWAP1 KECCAK256 SWAP1 POP PUSH1 0x40 MLOAD PUSH32 0x3D602D80600A3D3981F3363D3D373D3D3D363D73000000000000000000000000 DUP2 MSTORE DUP3 PUSH1 0x14 DUP3 ADD MSTORE PUSH32 0x5AF43D82803E903D91602B57FD5BF30000000000000000000000000000000000 PUSH1 0x28 DUP3 ADD MSTORE DUP2 PUSH1 0x37 DUP3 PUSH1 0x0 CREATE2 SWAP4 POP POP POP PUSH2 0x1322 JUMP JUMPDEST PUSH1 0x40 MLOAD PUSH32 0x3D602D80600A3D3981F3363D3D373D3D3D363D73000000000000000000000000 DUP2 MSTORE DUP2 PUSH1 0x14 DUP3 ADD MSTORE PUSH32 0x5AF43D82803E903D91602B57FD5BF30000000000000000000000000000000000 PUSH1 0x28 DUP3 ADD MSTORE PUSH1 0x37 DUP2 PUSH1 0x0 CREATE SWAP3 POP POP JUMPDEST PUSH20 0xFFFFFFFFFFFFFFFFFFFFFFFFFFFFFFFFFFFFFFFF DUP3 DUP2 AND PUSH1 0x0 DUP2 DUP2 MSTORE PUSH1 0x2 PUSH1 0x20 MSTORE PUSH1 0x40 SWAP1 DUP2 SWAP1 KECCAK256 DUP1 SLOAD PUSH32 0xFFFFFFFFFFFFFFFFFFFFFFFF0000000000000000000000000000000000000000 AND SWAP4 DUP11 AND SWAP4 SWAP1 SWAP4 OR SWAP1 SWAP3 SSTORE SWAP1 MLOAD PUSH32 0x4DDF47D400000000000000000000000000000000000000000000000000000000 DUP2 MSTORE PUSH4 0x4DDF47D4 SWAP1 CALLVALUE SWAP1 PUSH2 0x13B5 SWAP1 DUP10 SWAP1 DUP10 SWAP1 PUSH1 0x4 ADD PUSH2 0x510A JUMP JUMPDEST PUSH1 0x0 PUSH1 0x40 MLOAD DUP1 DUP4 SUB DUP2 DUP6 DUP9 DUP1 EXTCODESIZE ISZERO DUP1 ISZERO PUSH2 0x13CE JUMPI PUSH1 0x0 DUP1 REVERT JUMPDEST POP GAS CALL ISZERO DUP1 ISZERO PUSH2 0x13E2 JUMPI RETURNDATASIZE PUSH1 0x0 DUP1 RETURNDATACOPY RETURNDATASIZE PUSH1 0x0 REVERT JUMPDEST POP POP POP POP POP DUP2 PUSH20 0xFFFFFFFFFFFFFFFFFFFFFFFFFFFFFFFFFFFFFFFF AND DUP7 PUSH20 0xFFFFFFFFFFFFFFFFFFFFFFFFFFFFFFFFFFFFFFFF AND PUSH32 0xD62166F3C2149208E51788B1401CC356BF5DA1FC6C7886A32E18570F57D88B3B DUP8 DUP8 PUSH1 0x40 MLOAD PUSH2 0x1446 SWAP3 SWAP2 SWAP1 PUSH2 0x510A JUMP JUMPDEST PUSH1 0x40 MLOAD DUP1 SWAP2 SUB SWAP1 LOG3 POP SWAP5 SWAP4 POP POP POP POP JUMP JUMPDEST PUSH1 0x8 PUSH1 0x20 MSTORE PUSH1 0x0 SWAP1 DUP2 MSTORE PUSH1 0x40 SWAP1 KECCAK256 SLOAD PUSH20 0xFFFFFFFFFFFFFFFFFFFFFFFFFFFFFFFFFFFFFFFF AND DUP2 JUMP JUMPDEST PUSH1 0x0 CHAINID PUSH32 0x0 DUP2 EQ PUSH2 0x14B7 JUMPI PUSH2 0x14B2 DUP2 PUSH2 0x4158 JUMP JUMPDEST PUSH2 0x14D9 JUMP JUMPDEST PUSH32 0x0 JUMPDEST SWAP2 POP POP SWAP1 JUMP JUMPDEST PUSH1 0x0 SLOAD PUSH20 0xFFFFFFFFFFFFFFFFFFFFFFFFFFFFFFFFFFFFFFFF AND CALLER EQ PUSH2 0x1530 JUMPI PUSH1 0x40 MLOAD PUSH32 0x8C379A000000000000000000000000000000000000000000000000000000000 DUP2 MSTORE PUSH1 0x4 ADD PUSH2 0x677 SWAP1 PUSH2 0x53FC JUMP JUMPDEST PUSH1 0x5F DUP2 PUSH8 0xFFFFFFFFFFFFFFFF AND GT ISZERO PUSH2 0x1575 JUMPI PUSH1 0x40 MLOAD PUSH32 0x8C379A000000000000000000000000000000000000000000000000000000000 DUP2 MSTORE PUSH1 0x4 ADD PUSH2 0x677 SWAP1 PUSH2 0x572D JUMP JUMPDEST PUSH20 0xFFFFFFFFFFFFFFFFFFFFFFFFFFFFFFFFFFFFFFFF DUP3 AND PUSH1 0x0 DUP2 DUP2 MSTORE PUSH1 0xA PUSH1 0x20 MSTORE PUSH1 0x40 SWAP1 DUP2 SWAP1 KECCAK256 DUP1 SLOAD PUSH32 0xFFFFFFFFFFFFFFFFFFFFFFFFFFFFFFFF0000000000000000FFFFFFFFFFFFFFFF AND PUSH9 0x10000000000000000 PUSH8 0xFFFFFFFFFFFFFFFF DUP7 AND MUL OR SWAP1 SSTORE MLOAD PUSH32 0x7543AF99B5602C06E62DA0631B5308489A5FF859150105A623B6EB15E8DEAE0B SWAP1 PUSH2 0x1607 SWAP1 DUP5 SWAP1 PUSH2 0x57E8 JUMP JUMPDEST PUSH1 0x40 MLOAD DUP1 SWAP2 SUB SWAP1 LOG2 POP POP JUMP JUMPDEST PUSH1 0x1 SLOAD PUSH20 0xFFFFFFFFFFFFFFFFFFFFFFFFFFFFFFFFFFFFFFFF AND CALLER DUP2 EQ PUSH2 0x1665 JUMPI PUSH1 0x40 MLOAD PUSH32 0x8C379A000000000000000000000000000000000000000000000000000000000 DUP2 MSTORE PUSH1 0x4 ADD PUSH2 0x677 SWAP1 PUSH2 0x5468 JUMP JUMPDEST PUSH1 0x0 DUP1 SLOAD PUSH1 0x40 MLOAD PUSH20 0xFFFFFFFFFFFFFFFFFFFFFFFFFFFFFFFFFFFFFFFF DUP1 DUP6 AND SWAP4 SWAP3 AND SWAP2 PUSH32 0x8BE0079C531659141344CD1FD0A4F28419497F9722A3DAAFE3B4186F6B6457E0 SWAP2 LOG3 PUSH1 0x0 DUP1 SLOAD PUSH20 0xFFFFFFFFFFFFFFFFFFFFFFFFFFFFFFFFFFFFFFFF SWAP1 SWAP3 AND PUSH32 0xFFFFFFFFFFFFFFFFFFFFFFFF0000000000000000000000000000000000000000 SWAP3 DUP4 AND OR SWAP1 SSTORE PUSH1 0x1 DUP1 SLOAD SWAP1 SWAP2 AND SWAP1 SSTORE JUMP JUMPDEST PUSH1 0x7 PUSH1 0x20 MSTORE PUSH1 0x0 SWAP1 DUP2 MSTORE PUSH1 0x40 SWAP1 KECCAK256 SLOAD PUSH16 0xFFFFFFFFFFFFFFFFFFFFFFFFFFFFFFFF DUP1 DUP3 AND SWAP2 PUSH17 0x100000000000000000000000000000000 SWAP1 DIV AND DUP3 JUMP JUMPDEST PUSH1 0x9 PUSH1 0x20 MSTORE PUSH1 0x0 SWAP1 DUP2 MSTORE PUSH1 0x40 SWAP1 KECCAK256 SLOAD PUSH20 0xFFFFFFFFFFFFFFFFFFFFFFFFFFFFFFFFFFFFFFFF AND DUP2 JUMP JUMPDEST PUSH20 0xFFFFFFFFFFFFFFFFFFFFFFFFFFFFFFFFFFFFFFFF DUP4 AND PUSH1 0x0 SWAP1 DUP2 MSTORE PUSH1 0x7 PUSH1 0x20 SWAP1 DUP2 MSTORE PUSH1 0x40 DUP1 DUP4 KECCAK256 DUP2 MLOAD DUP1 DUP4 ADD SWAP1 SWAP3 MSTORE SLOAD PUSH16 0xFFFFFFFFFFFFFFFFFFFFFFFFFFFFFFFF DUP1 DUP3 AND DUP4 MSTORE PUSH17 0x100000000000000000000000000000000 SWAP1 SWAP2 DIV AND SWAP2 DUP2 ADD SWAP2 SWAP1 SWAP2 MSTORE PUSH2 0x17CC SWAP1 DUP5 DUP5 PUSH2 0x3DEC JUMP JUMPDEST SWAP5 SWAP4 POP POP POP POP JUMP JUMPDEST PUSH2 0x17DC PUSH2 0x452B JUMP JUMPDEST POP PUSH20 0xFFFFFFFFFFFFFFFFFFFFFFFFFFFFFFFFFFFFFFFF DUP4 DUP2 AND PUSH1 0x0 DUP2 DUP2 MSTORE PUSH1 0xA PUSH1 0x20 SWAP1 DUP2 MSTORE PUSH1 0x40 DUP1 DUP4 KECCAK256 DUP2 MLOAD PUSH1 0x60 DUP2 ADD DUP4 MSTORE SWAP1 SLOAD PUSH8 0xFFFFFFFFFFFFFFFF DUP1 DUP3 AND DUP4 MSTORE PUSH9 0x10000000000000000 DUP3 DIV AND DUP3 DUP6 ADD MSTORE PUSH17 0x100000000000000000000000000000000 SWAP1 DIV PUSH16 0xFFFFFFFFFFFFFFFFFFFFFFFFFFFFFFFF AND DUP2 DUP4 ADD SWAP1 DUP2 MSTORE SWAP5 DUP5 MSTORE PUSH1 0x8 SWAP1 SWAP3 MSTORE DUP1 DUP4 KECCAK256 SLOAD SWAP4 MLOAD SWAP1 MLOAD PUSH32 0x18FCCC7600000000000000000000000000000000000000000000000000000000 DUP2 MSTORE SWAP2 SWAP5 SWAP4 SWAP1 SWAP4 AND SWAP3 DUP4 SWAP2 PUSH4 0x18FCCC76 SWAP2 PUSH2 0x18AB SWAP2 CALLER SWAP1 PUSH1 0x4 ADD PUSH2 0x577F JUMP JUMPDEST PUSH1 0x20 PUSH1 0x40 MLOAD DUP1 DUP4 SUB DUP2 PUSH1 0x0 DUP8 DUP1 EXTCODESIZE ISZERO DUP1 ISZERO PUSH2 0x18C5 JUMPI PUSH1 0x0 DUP1 REVERT JUMPDEST POP GAS CALL ISZERO DUP1 ISZERO PUSH2 0x18D9 JUMPI RETURNDATASIZE PUSH1 0x0 DUP1 RETURNDATACOPY RETURNDATASIZE PUSH1 0x0 REVERT JUMPDEST POP POP POP POP PUSH1 0x40 MLOAD RETURNDATASIZE PUSH1 0x1F NOT PUSH1 0x1F DUP3 ADD AND DUP3 ADD DUP1 PUSH1 0x40 MSTORE POP DUP2 ADD SWAP1 PUSH2 0x18FD SWAP2 SWAP1 PUSH2 0x4BB6 JUMP JUMPDEST SWAP1 POP DUP1 ISZERO DUP1 ISZERO PUSH2 0x190B JUMPI POP DUP5 ISZERO JUMPDEST ISZERO PUSH2 0x1918 JUMPI POP POP POP PUSH2 0xE12 JUMP JUMPDEST PUSH20 0xFFFFFFFFFFFFFFFFFFFFFFFFFFFFFFFFFFFFFFFF DUP7 AND PUSH1 0x0 SWAP1 DUP2 MSTORE PUSH1 0x7 PUSH1 0x20 MSTORE PUSH1 0x40 DUP2 KECCAK256 SLOAD PUSH16 0xFFFFFFFFFFFFFFFFFFFFFFFFFFFFFFFF AND SWAP1 DUP3 SGT ISZERO PUSH2 0x1A12 JUMPI DUP2 PUSH2 0x1963 DUP3 DUP3 PUSH2 0x3FB0 JUMP JUMPDEST SWAP2 POP PUSH2 0x196E DUP3 PUSH2 0x3D44 JUMP JUMPDEST PUSH20 0xFFFFFFFFFFFFFFFFFFFFFFFFFFFFFFFFFFFFFFFF DUP10 AND PUSH1 0x0 DUP2 DUP2 MSTORE PUSH1 0x7 PUSH1 0x20 MSTORE PUSH1 0x40 SWAP1 DUP2 SWAP1 KECCAK256 DUP1 SLOAD PUSH32 0xFFFFFFFFFFFFFFFFFFFFFFFFFFFFFFFF00000000000000000000000000000000 AND PUSH16 0xFFFFFFFFFFFFFFFFFFFFFFFFFFFFFFFF SWAP5 SWAP1 SWAP5 AND SWAP4 SWAP1 SWAP4 OR SWAP1 SWAP3 SSTORE SWAP1 MLOAD PUSH32 0x911C9F20A03EDABCBCBD18DCA1174CCE47A91B234CED7A5A3C60BA0D5B56C5D2 SWAP1 PUSH2 0x1A04 SWAP1 DUP5 SWAP1 PUSH2 0x5071 JUMP JUMPDEST PUSH1 0x40 MLOAD DUP1 SWAP2 SUB SWAP1 LOG2 POP PUSH2 0x1B2D JUMP JUMPDEST PUSH1 0x0 DUP3 SLT ISZERO PUSH2 0x1B2D JUMPI PUSH1 0x0 DUP3 SWAP1 SUB PUSH2 0x1A2A DUP3 DUP3 PUSH2 0x3F73 JUMP JUMPDEST SWAP2 POP PUSH2 0x1A35 DUP3 PUSH2 0x3D44 JUMP JUMPDEST PUSH20 0xFFFFFFFFFFFFFFFFFFFFFFFFFFFFFFFFFFFFFFFF DUP10 AND PUSH1 0x0 SWAP1 DUP2 MSTORE PUSH1 0x7 PUSH1 0x20 MSTORE PUSH1 0x40 SWAP1 KECCAK256 DUP1 SLOAD PUSH32 0xFFFFFFFFFFFFFFFFFFFFFFFFFFFFFFFF00000000000000000000000000000000 AND PUSH16 0xFFFFFFFFFFFFFFFFFFFFFFFFFFFFFFFF SWAP3 SWAP1 SWAP3 AND SWAP2 SWAP1 SWAP2 OR SWAP1 SSTORE PUSH2 0x1AC2 PUSH2 0x1AA5 DUP3 PUSH2 0x3D44 JUMP JUMPDEST PUSH1 0x40 DUP8 ADD MLOAD PUSH16 0xFFFFFFFFFFFFFFFFFFFFFFFFFFFFFFFF AND SWAP1 PUSH2 0x41CF JUMP JUMPDEST PUSH16 0xFFFFFFFFFFFFFFFFFFFFFFFFFFFFFFFF AND PUSH1 0x40 DUP1 DUP8 ADD SWAP2 SWAP1 SWAP2 MSTORE MLOAD PUSH20 0xFFFFFFFFFFFFFFFFFFFFFFFFFFFFFFFFFFFFFFFF DUP10 AND SWAP1 PUSH32 0x8F1F26EB9B6AA8689DBDD519EAD1999D9C8819D4738E403B2003B18197D9CF97 SWAP1 PUSH2 0x1B23 SWAP1 DUP5 SWAP1 PUSH2 0x5071 JUMP JUMPDEST PUSH1 0x40 MLOAD DUP1 SWAP2 SUB SWAP1 LOG2 POP JUMPDEST DUP6 ISZERO PUSH2 0x1EB1 JUMPI PUSH1 0x0 PUSH1 0x64 PUSH2 0x1B58 DUP7 PUSH1 0x20 ADD MLOAD PUSH8 0xFFFFFFFFFFFFFFFF AND DUP5 PUSH2 0x4221 SWAP1 SWAP2 SWAP1 PUSH4 0xFFFFFFFF AND JUMP JUMPDEST DUP2 PUSH2 0x1B5F JUMPI INVALID JUMPDEST DIV SWAP1 POP DUP1 DUP6 PUSH1 0x40 ADD MLOAD PUSH16 0xFFFFFFFFFFFFFFFFFFFFFFFFFFFFFFFF AND LT ISZERO PUSH2 0x1CFE JUMPI PUSH1 0x0 PUSH2 0x1BAB DUP7 PUSH1 0x40 ADD MLOAD PUSH16 0xFFFFFFFFFFFFFFFFFFFFFFFFFFFFFFFF AND DUP4 PUSH2 0x3F73 SWAP1 SWAP2 SWAP1 PUSH4 0xFFFFFFFF AND JUMP JUMPDEST SWAP1 POP DUP7 ISZERO DUP1 ISZERO SWAP1 PUSH2 0x1BBB JUMPI POP DUP7 DUP2 GT JUMPDEST ISZERO PUSH2 0x1BC3 JUMPI POP DUP6 JUMPDEST PUSH2 0x1BE4 PUSH20 0xFFFFFFFFFFFFFFFFFFFFFFFFFFFFFFFFFFFFFFFF DUP11 AND DUP7 DUP4 PUSH2 0x4272 JUMP JUMPDEST PUSH2 0x1C0D PUSH2 0x1BF0 DUP3 PUSH2 0x3D44 JUMP JUMPDEST PUSH1 0x40 DUP9 ADD MLOAD PUSH16 0xFFFFFFFFFFFFFFFFFFFFFFFFFFFFFFFF AND SWAP1 PUSH2 0x3D94 JUMP JUMPDEST PUSH16 0xFFFFFFFFFFFFFFFFFFFFFFFFFFFFFFFF AND PUSH1 0x40 DUP1 DUP9 ADD SWAP2 SWAP1 SWAP2 MSTORE MLOAD PUSH32 0x6939AAF500000000000000000000000000000000000000000000000000000000 DUP2 MSTORE PUSH20 0xFFFFFFFFFFFFFFFFFFFFFFFFFFFFFFFFFFFFFFFF DUP7 AND SWAP1 PUSH4 0x6939AAF5 SWAP1 PUSH2 0x1C78 SWAP1 DUP5 SWAP1 PUSH1 0x4 ADD PUSH2 0x5071 JUMP JUMPDEST PUSH1 0x0 PUSH1 0x40 MLOAD DUP1 DUP4 SUB DUP2 PUSH1 0x0 DUP8 DUP1 EXTCODESIZE ISZERO DUP1 ISZERO PUSH2 0x1C92 JUMPI PUSH1 0x0 DUP1 REVERT JUMPDEST POP GAS CALL ISZERO DUP1 ISZERO PUSH2 0x1CA6 JUMPI RETURNDATASIZE PUSH1 0x0 DUP1 RETURNDATACOPY RETURNDATASIZE PUSH1 0x0 REVERT JUMPDEST POP POP POP POP DUP9 PUSH20 0xFFFFFFFFFFFFFFFFFFFFFFFFFFFFFFFFFFFFFFFF AND PUSH32 0xB18E7E4F6EAC147A63A3BB6BEB2D9039C88698623AFF3EFC4FEBBC20B0164EE5 DUP3 PUSH1 0x40 MLOAD PUSH2 0x1CF0 SWAP2 SWAP1 PUSH2 0x5071 JUMP JUMPDEST PUSH1 0x40 MLOAD DUP1 SWAP2 SUB SWAP1 LOG2 POP PUSH2 0x1EAF JUMP JUMPDEST DUP1 DUP6 PUSH1 0x40 ADD MLOAD PUSH16 0xFFFFFFFFFFFFFFFFFFFFFFFFFFFFFFFF AND GT ISZERO PUSH2 0x1EAF JUMPI PUSH1 0x0 PUSH2 0x1D47 PUSH2 0x1D2A DUP4 PUSH2 0x3D44 JUMP JUMPDEST PUSH1 0x40 DUP9 ADD MLOAD PUSH16 0xFFFFFFFFFFFFFFFFFFFFFFFFFFFFFFFF AND SWAP1 PUSH2 0x41CF JUMP JUMPDEST PUSH16 0xFFFFFFFFFFFFFFFFFFFFFFFFFFFFFFFF AND SWAP1 POP DUP7 ISZERO DUP1 ISZERO SWAP1 PUSH2 0x1D69 JUMPI POP DUP7 DUP2 GT JUMPDEST ISZERO PUSH2 0x1D71 JUMPI POP DUP6 JUMPDEST PUSH1 0x40 MLOAD PUSH32 0x2E1A7D4D00000000000000000000000000000000000000000000000000000000 DUP2 MSTORE PUSH1 0x0 SWAP1 PUSH20 0xFFFFFFFFFFFFFFFFFFFFFFFFFFFFFFFFFFFFFFFF DUP8 AND SWAP1 PUSH4 0x2E1A7D4D SWAP1 PUSH2 0x1DC6 SWAP1 DUP6 SWAP1 PUSH1 0x4 ADD PUSH2 0x5071 JUMP JUMPDEST PUSH1 0x20 PUSH1 0x40 MLOAD DUP1 DUP4 SUB DUP2 PUSH1 0x0 DUP8 DUP1 EXTCODESIZE ISZERO DUP1 ISZERO PUSH2 0x1DE0 JUMPI PUSH1 0x0 DUP1 REVERT JUMPDEST POP GAS CALL ISZERO DUP1 ISZERO PUSH2 0x1DF4 JUMPI RETURNDATASIZE PUSH1 0x0 DUP1 RETURNDATACOPY RETURNDATASIZE PUSH1 0x0 REVERT JUMPDEST POP POP POP POP PUSH1 0x40 MLOAD RETURNDATASIZE PUSH1 0x1F NOT PUSH1 0x1F DUP3 ADD AND DUP3 ADD DUP1 PUSH1 0x40 MSTORE POP DUP2 ADD SWAP1 PUSH2 0x1E18 SWAP2 SWAP1 PUSH2 0x4BB6 JUMP JUMPDEST SWAP1 POP PUSH2 0x1E43 PUSH2 0x1E26 DUP3 PUSH2 0x3D44 JUMP JUMPDEST PUSH1 0x40 DUP10 ADD MLOAD PUSH16 0xFFFFFFFFFFFFFFFFFFFFFFFFFFFFFFFF AND SWAP1 PUSH2 0x41CF JUMP JUMPDEST PUSH16 0xFFFFFFFFFFFFFFFFFFFFFFFFFFFFFFFF AND PUSH1 0x40 DUP1 DUP10 ADD SWAP2 SWAP1 SWAP2 MSTORE MLOAD PUSH20 0xFFFFFFFFFFFFFFFFFFFFFFFFFFFFFFFFFFFFFFFF DUP12 AND SWAP1 PUSH32 0x39AA22060F8DD4D291720311FEEDF3B72FEF47C06C66CCF5C22B502C62E7550A SWAP1 PUSH2 0x1EA4 SWAP1 DUP5 SWAP1 PUSH2 0x5071 JUMP JUMPDEST PUSH1 0x40 MLOAD DUP1 SWAP2 SUB SWAP1 LOG2 POP POP JUMPDEST POP JUMPDEST POP POP POP PUSH20 0xFFFFFFFFFFFFFFFFFFFFFFFFFFFFFFFFFFFFFFFF DUP5 AND PUSH1 0x0 SWAP1 DUP2 MSTORE PUSH1 0xA PUSH1 0x20 SWAP1 DUP2 MSTORE PUSH1 0x40 SWAP2 DUP3 SWAP1 KECCAK256 DUP4 MLOAD DUP2 SLOAD SWAP3 DUP6 ADD MLOAD SWAP4 SWAP1 SWAP5 ADD MLOAD PUSH16 0xFFFFFFFFFFFFFFFFFFFFFFFFFFFFFFFF SWAP1 DUP2 AND PUSH17 0x100000000000000000000000000000000 MUL PUSH8 0xFFFFFFFFFFFFFFFF SWAP5 DUP6 AND PUSH9 0x10000000000000000 MUL PUSH32 0xFFFFFFFFFFFFFFFFFFFFFFFFFFFFFFFF0000000000000000FFFFFFFFFFFFFFFF SWAP6 SWAP1 SWAP7 AND PUSH32 0xFFFFFFFFFFFFFFFFFFFFFFFFFFFFFFFFFFFFFFFFFFFFFFFF0000000000000000 SWAP1 SWAP5 AND SWAP4 SWAP1 SWAP4 OR SWAP4 SWAP1 SWAP4 AND SWAP4 SWAP1 SWAP4 OR SWAP2 SWAP1 SWAP2 AND OR SWAP1 SSTORE POP POP POP JUMP JUMPDEST PUSH1 0x0 SLOAD PUSH20 0xFFFFFFFFFFFFFFFFFFFFFFFFFFFFFFFFFFFFFFFF AND CALLER EQ PUSH2 0x1FDA JUMPI PUSH1 0x40 MLOAD PUSH32 0x8C379A000000000000000000000000000000000000000000000000000000000 DUP2 MSTORE PUSH1 0x4 ADD PUSH2 0x677 SWAP1 PUSH2 0x53FC JUMP JUMPDEST PUSH2 0x1FE2 PUSH2 0x452B JUMP JUMPDEST POP PUSH20 0xFFFFFFFFFFFFFFFFFFFFFFFFFFFFFFFFFFFFFFFF DUP3 DUP2 AND PUSH1 0x0 DUP2 DUP2 MSTORE PUSH1 0xA PUSH1 0x20 SWAP1 DUP2 MSTORE PUSH1 0x40 DUP1 DUP4 KECCAK256 DUP2 MLOAD PUSH1 0x60 DUP2 ADD DUP4 MSTORE SWAP1 SLOAD PUSH8 0xFFFFFFFFFFFFFFFF DUP1 DUP3 AND DUP4 MSTORE PUSH9 0x10000000000000000 DUP3 DIV DUP2 AND DUP4 DUP7 ADD MSTORE PUSH17 0x100000000000000000000000000000000 SWAP1 SWAP2 DIV PUSH16 0xFFFFFFFFFFFFFFFFFFFFFFFFFFFFFFFF AND DUP3 DUP5 ADD MSTORE SWAP5 DUP5 MSTORE PUSH1 0x9 SWAP1 SWAP3 MSTORE SWAP1 SWAP2 KECCAK256 SLOAD DUP2 MLOAD SWAP2 SWAP4 AND SWAP2 AND ISZERO DUP1 PUSH2 0x20AC JUMPI POP DUP3 PUSH20 0xFFFFFFFFFFFFFFFFFFFFFFFFFFFFFFFFFFFFFFFF AND DUP2 PUSH20 0xFFFFFFFFFFFFFFFFFFFFFFFFFFFFFFFFFFFFFFFF AND EQ ISZERO JUMPDEST ISZERO PUSH2 0x2164 JUMPI PUSH20 0xFFFFFFFFFFFFFFFFFFFFFFFFFFFFFFFFFFFFFFFF DUP5 DUP2 AND PUSH1 0x0 SWAP1 DUP2 MSTORE PUSH1 0x9 PUSH1 0x20 MSTORE PUSH1 0x40 SWAP1 KECCAK256 DUP1 SLOAD PUSH32 0xFFFFFFFFFFFFFFFFFFFFFFFF0000000000000000000000000000000000000000 AND SWAP2 DUP6 AND SWAP2 SWAP1 SWAP2 OR SWAP1 SSTORE PUSH2 0x210D TIMESTAMP PUSH2 0x43DA JUMP JUMPDEST PUSH8 0xFFFFFFFFFFFFFFFF AND DUP3 MSTORE PUSH1 0x40 MLOAD PUSH20 0xFFFFFFFFFFFFFFFFFFFFFFFFFFFFFFFFFFFFFFFF DUP1 DUP6 AND SWAP2 SWAP1 DUP7 AND SWAP1 PUSH32 0x6F7CCDF3F86039E5A1DCF6028BF7B4773CBF7A234716BA2E5392B12BB0F8558F SWAP1 PUSH1 0x0 SWAP1 LOG3 PUSH2 0x24B4 JUMP JUMPDEST DUP2 MLOAD PUSH8 0xFFFFFFFFFFFFFFFF AND ISZERO DUP1 ISZERO SWAP1 PUSH2 0x2189 JUMPI POP DUP2 MLOAD PUSH8 0xFFFFFFFFFFFFFFFF AND TIMESTAMP LT ISZERO JUMPDEST PUSH2 0x21BF JUMPI PUSH1 0x40 MLOAD PUSH32 0x8C379A000000000000000000000000000000000000000000000000000000000 DUP2 MSTORE PUSH1 0x4 ADD PUSH2 0x677 SWAP1 PUSH2 0x53C5 JUMP JUMPDEST PUSH20 0xFFFFFFFFFFFFFFFFFFFFFFFFFFFFFFFFFFFFFFFF DUP5 DUP2 AND PUSH1 0x0 SWAP1 DUP2 MSTORE PUSH1 0x8 PUSH1 0x20 MSTORE PUSH1 0x40 SWAP1 KECCAK256 SLOAD AND ISZERO PUSH2 0x2418 JUMPI PUSH20 0xFFFFFFFFFFFFFFFFFFFFFFFFFFFFFFFFFFFFFFFF DUP1 DUP6 AND PUSH1 0x0 SWAP1 DUP2 MSTORE PUSH1 0x8 PUSH1 0x20 MSTORE PUSH1 0x40 DUP1 DUP3 KECCAK256 SLOAD DUP6 DUP3 ADD MLOAD SWAP2 MLOAD PUSH32 0x7F8661A100000000000000000000000000000000000000000000000000000000 DUP2 MSTORE SWAP3 SWAP4 AND SWAP2 PUSH4 0x7F8661A1 SWAP2 PUSH2 0x2253 SWAP2 PUSH1 0x4 ADD PUSH2 0x5762 JUMP JUMPDEST PUSH1 0x20 PUSH1 0x40 MLOAD DUP1 DUP4 SUB DUP2 PUSH1 0x0 DUP8 DUP1 EXTCODESIZE ISZERO DUP1 ISZERO PUSH2 0x226D JUMPI PUSH1 0x0 DUP1 REVERT JUMPDEST POP GAS CALL ISZERO DUP1 ISZERO PUSH2 0x2281 JUMPI RETURNDATASIZE PUSH1 0x0 DUP1 RETURNDATACOPY RETURNDATASIZE PUSH1 0x0 REVERT JUMPDEST POP POP POP POP PUSH1 0x40 MLOAD RETURNDATASIZE PUSH1 0x1F NOT PUSH1 0x1F DUP3 ADD AND DUP3 ADD DUP1 PUSH1 0x40 MSTORE POP DUP2 ADD SWAP1 PUSH2 0x22A5 SWAP2 SWAP1 PUSH2 0x4BB6 JUMP JUMPDEST SWAP1 POP PUSH1 0x0 DUP2 SGT ISZERO PUSH2 0x2336 JUMPI PUSH20 0xFFFFFFFFFFFFFFFFFFFFFFFFFFFFFFFFFFFFFFFF DUP6 AND PUSH1 0x0 SWAP1 DUP2 MSTORE PUSH1 0x7 PUSH1 0x20 MSTORE PUSH1 0x40 SWAP1 KECCAK256 DUP2 SWAP1 PUSH2 0x22E1 SWAP1 DUP3 PUSH2 0x441E JUMP JUMPDEST POP DUP6 PUSH20 0xFFFFFFFFFFFFFFFFFFFFFFFFFFFFFFFFFFFFFFFF AND PUSH32 0x911C9F20A03EDABCBCBD18DCA1174CCE47A91B234CED7A5A3C60BA0D5B56C5D2 DUP3 PUSH1 0x40 MLOAD PUSH2 0x2328 SWAP2 SWAP1 PUSH2 0x5071 JUMP JUMPDEST PUSH1 0x40 MLOAD DUP1 SWAP2 SUB SWAP1 LOG2 POP PUSH2 0x23C4 JUMP JUMPDEST PUSH1 0x0 DUP2 SLT ISZERO PUSH2 0x23C4 JUMPI PUSH20 0xFFFFFFFFFFFFFFFFFFFFFFFFFFFFFFFFFFFFFFFF DUP6 AND PUSH1 0x0 SWAP1 DUP2 MSTORE PUSH1 0x7 PUSH1 0x20 MSTORE PUSH1 0x40 DUP2 KECCAK256 SWAP1 DUP3 SWAP1 SUB SWAP1 PUSH2 0x2373 SWAP1 DUP3 PUSH2 0x448C JUMP JUMPDEST POP DUP6 PUSH20 0xFFFFFFFFFFFFFFFFFFFFFFFFFFFFFFFFFFFFFFFF AND PUSH32 0x8F1F26EB9B6AA8689DBDD519EAD1999D9C8819D4738E403B2003B18197D9CF97 DUP3 PUSH1 0x40 MLOAD PUSH2 0x23BA SWAP2 SWAP1 PUSH2 0x5071 JUMP JUMPDEST PUSH1 0x40 MLOAD DUP1 SWAP2 SUB SWAP1 LOG2 POP JUMPDEST DUP5 PUSH20 0xFFFFFFFFFFFFFFFFFFFFFFFFFFFFFFFFFFFFFFFF AND PUSH32 0x39AA22060F8DD4D291720311FEEDF3B72FEF47C06C66CCF5C22B502C62E7550A DUP5 PUSH1 0x40 ADD MLOAD PUSH1 0x40 MLOAD PUSH2 0x240E SWAP2 SWAP1 PUSH2 0x5762 JUMP JUMPDEST PUSH1 0x40 MLOAD DUP1 SWAP2 SUB SWAP1 LOG2 POP JUMPDEST PUSH20 0xFFFFFFFFFFFFFFFFFFFFFFFFFFFFFFFFFFFFFFFF DUP1 DUP6 AND PUSH1 0x0 DUP2 DUP2 MSTORE PUSH1 0x8 PUSH1 0x20 SWAP1 DUP2 MSTORE PUSH1 0x40 DUP1 DUP4 KECCAK256 DUP1 SLOAD DUP7 DUP9 AND PUSH32 0xFFFFFFFFFFFFFFFFFFFFFFFF0000000000000000000000000000000000000000 SWAP2 DUP3 AND OR SWAP1 SWAP2 SSTORE DUP4 DUP9 MSTORE DUP8 DUP3 ADD DUP5 SWAP1 MSTORE DUP5 DUP5 MSTORE PUSH1 0x9 SWAP1 SWAP3 MSTORE DUP1 DUP4 KECCAK256 DUP1 SLOAD SWAP1 SWAP3 AND SWAP1 SWAP2 SSTORE MLOAD SWAP3 DUP7 AND SWAP3 PUSH32 0x3E6352A885ADC4CC54767592939C3B1BBD65685658C3BEAABA66A888120E217 SWAP2 SWAP1 LOG3 JUMPDEST POP PUSH20 0xFFFFFFFFFFFFFFFFFFFFFFFFFFFFFFFFFFFFFFFF SWAP3 SWAP1 SWAP3 AND PUSH1 0x0 SWAP1 DUP2 MSTORE PUSH1 0xA PUSH1 0x20 SWAP1 DUP2 MSTORE PUSH1 0x40 SWAP2 DUP3 SWAP1 KECCAK256 DUP5 MLOAD DUP2 SLOAD SWAP3 DUP7 ADD MLOAD SWAP4 SWAP1 SWAP6 ADD MLOAD PUSH32 0xFFFFFFFFFFFFFFFFFFFFFFFFFFFFFFFFFFFFFFFFFFFFFFFF0000000000000000 SWAP1 SWAP3 AND PUSH8 0xFFFFFFFFFFFFFFFF SWAP6 DUP7 AND OR PUSH32 0xFFFFFFFFFFFFFFFFFFFFFFFFFFFFFFFF0000000000000000FFFFFFFFFFFFFFFF AND PUSH9 0x10000000000000000 SWAP6 SWAP1 SWAP4 AND SWAP5 SWAP1 SWAP5 MUL SWAP2 SWAP1 SWAP2 OR PUSH16 0xFFFFFFFFFFFFFFFFFFFFFFFFFFFFFFFF SWAP1 DUP2 AND PUSH17 0x100000000000000000000000000000000 SWAP2 SWAP1 SWAP3 AND MUL OR SWAP1 SWAP2 SSTORE POP JUMP JUMPDEST PUSH1 0x0 SLOAD PUSH20 0xFFFFFFFFFFFFFFFFFFFFFFFFFFFFFFFFFFFFFFFF AND CALLER EQ PUSH2 0x25D9 JUMPI PUSH1 0x40 MLOAD PUSH32 0x8C379A000000000000000000000000000000000000000000000000000000000 DUP2 MSTORE PUSH1 0x4 ADD PUSH2 0x677 SWAP1 PUSH2 0x53FC JUMP JUMPDEST PUSH20 0xFFFFFFFFFFFFFFFFFFFFFFFFFFFFFFFFFFFFFFFF DUP3 AND PUSH2 0x2626 JUMPI PUSH1 0x40 MLOAD PUSH32 0x8C379A000000000000000000000000000000000000000000000000000000000 DUP2 MSTORE PUSH1 0x4 ADD PUSH2 0x677 SWAP1 PUSH2 0x519F JUMP JUMPDEST PUSH20 0xFFFFFFFFFFFFFFFFFFFFFFFFFFFFFFFFFFFFFFFF DUP3 AND PUSH1 0x0 DUP2 DUP2 MSTORE PUSH1 0x4 PUSH1 0x20 MSTORE PUSH1 0x40 SWAP1 DUP2 SWAP1 KECCAK256 DUP1 SLOAD PUSH32 0xFFFFFFFFFFFFFFFFFFFFFFFFFFFFFFFFFFFFFFFFFFFFFFFFFFFFFFFFFFFFFF00 AND DUP5 ISZERO ISZERO OR SWAP1 SSTORE MLOAD PUSH32 0x31A1E0EAC44B54AC6C2A2EFA87E92C83405FFCF33FCEEF02A7BCA695130E2600 SWAP1 PUSH2 0x1607 SWAP1 DUP5 SWAP1 PUSH2 0x5066 JUMP JUMPDEST PUSH1 0x40 MLOAD PUSH32 0xD505ACCF00000000000000000000000000000000000000000000000000000000 DUP2 MSTORE PUSH20 0xFFFFFFFFFFFFFFFFFFFFFFFFFFFFFFFFFFFFFFFF DUP10 AND SWAP1 PUSH4 0xD505ACCF SWAP1 PUSH2 0x2703 SWAP1 DUP11 SWAP1 DUP11 SWAP1 DUP11 SWAP1 DUP11 SWAP1 DUP11 SWAP1 DUP11 SWAP1 DUP11 SWAP1 PUSH1 0x4 ADD PUSH2 0x4F58 JUMP JUMPDEST PUSH1 0x0 PUSH1 0x40 MLOAD DUP1 DUP4 SUB DUP2 PUSH1 0x0 DUP8 DUP1 EXTCODESIZE ISZERO DUP1 ISZERO PUSH2 0x271D JUMPI PUSH1 0x0 DUP1 REVERT JUMPDEST POP GAS CALL ISZERO DUP1 ISZERO PUSH2 0x2731 JUMPI RETURNDATASIZE PUSH1 0x0 DUP1 RETURNDATACOPY RETURNDATASIZE PUSH1 0x0 REVERT JUMPDEST POP POP POP POP POP POP POP POP POP POP POP POP JUMP JUMPDEST PUSH1 0x5 PUSH1 0x20 MSTORE PUSH1 0x0 SWAP1 DUP2 MSTORE PUSH1 0x40 SWAP1 KECCAK256 SLOAD DUP2 JUMP JUMPDEST PUSH1 0x0 SLOAD PUSH20 0xFFFFFFFFFFFFFFFFFFFFFFFFFFFFFFFFFFFFFFFF AND DUP2 JUMP JUMPDEST PUSH1 0x3 PUSH1 0x20 SWAP1 DUP2 MSTORE PUSH1 0x0 SWAP3 DUP4 MSTORE PUSH1 0x40 DUP1 DUP5 KECCAK256 SWAP1 SWAP2 MSTORE SWAP1 DUP3 MSTORE SWAP1 KECCAK256 SLOAD PUSH1 0xFF AND DUP2 JUMP JUMPDEST PUSH1 0x0 DUP1 DUP6 PUSH20 0xFFFFFFFFFFFFFFFFFFFFFFFFFFFFFFFFFFFFFFFF DUP2 AND CALLER EQ DUP1 ISZERO SWAP1 PUSH2 0x27CD JUMPI POP PUSH20 0xFFFFFFFFFFFFFFFFFFFFFFFFFFFFFFFFFFFFFFFF DUP2 AND ADDRESS EQ ISZERO JUMPDEST ISZERO PUSH2 0x289D JUMPI CALLER PUSH1 0x0 SWAP1 DUP2 MSTORE PUSH1 0x2 PUSH1 0x20 MSTORE PUSH1 0x40 SWAP1 KECCAK256 SLOAD PUSH20 0xFFFFFFFFFFFFFFFFFFFFFFFFFFFFFFFFFFFFFFFF AND DUP1 PUSH2 0x282F JUMPI PUSH1 0x40 MLOAD PUSH32 0x8C379A000000000000000000000000000000000000000000000000000000000 DUP2 MSTORE PUSH1 0x4 ADD PUSH2 0x677 SWAP1 PUSH2 0x55AE JUMP JUMPDEST PUSH20 0xFFFFFFFFFFFFFFFFFFFFFFFFFFFFFFFFFFFFFFFF DUP1 DUP3 AND PUSH1 0x0 SWAP1 DUP2 MSTORE PUSH1 0x3 PUSH1 0x20 SWAP1 DUP2 MSTORE PUSH1 0x40 DUP1 DUP4 KECCAK256 SWAP4 DUP7 AND DUP4 MSTORE SWAP3 SWAP1 MSTORE KECCAK256 SLOAD PUSH1 0xFF AND PUSH2 0x289B JUMPI PUSH1 0x40 MLOAD PUSH32 0x8C379A000000000000000000000000000000000000000000000000000000000 DUP2 MSTORE PUSH1 0x4 ADD PUSH2 0x677 SWAP1 PUSH2 0x5431 JUMP JUMPDEST POP JUMPDEST PUSH20 0xFFFFFFFFFFFFFFFFFFFFFFFFFFFFFFFFFFFFFFFF DUP7 AND PUSH2 0x28EA JUMPI PUSH1 0x40 MLOAD PUSH32 0x8C379A000000000000000000000000000000000000000000000000000000000 DUP2 MSTORE PUSH1 0x4 ADD PUSH2 0x677 SWAP1 PUSH2 0x538E JUMP JUMPDEST PUSH1 0x0 PUSH20 0xFFFFFFFFFFFFFFFFFFFFFFFFFFFFFFFFFFFFFFFF DUP10 AND ISZERO PUSH2 0x290E JUMPI DUP9 PUSH2 0x2930 JUMP JUMPDEST PUSH32 0x0 JUMPDEST SWAP1 POP PUSH2 0x293A PUSH2 0x4514 JUMP JUMPDEST POP PUSH20 0xFFFFFFFFFFFFFFFFFFFFFFFFFFFFFFFFFFFFFFFF DUP2 AND PUSH1 0x0 SWAP1 DUP2 MSTORE PUSH1 0x7 PUSH1 0x20 SWAP1 DUP2 MSTORE PUSH1 0x40 SWAP2 DUP3 SWAP1 KECCAK256 DUP3 MLOAD DUP1 DUP5 ADD SWAP1 SWAP4 MSTORE SLOAD PUSH16 0xFFFFFFFFFFFFFFFFFFFFFFFFFFFFFFFF DUP1 DUP3 AND DUP5 MSTORE PUSH17 0x100000000000000000000000000000000 SWAP1 SWAP2 DIV AND SWAP1 DUP3 ADD MSTORE DUP6 PUSH2 0x29B5 JUMPI PUSH2 0x29AE DUP2 DUP9 PUSH1 0x1 PUSH2 0x3C86 JUMP JUMPDEST SWAP6 POP PUSH2 0x29C4 JUMP JUMPDEST PUSH2 0x29C1 DUP2 DUP8 PUSH1 0x0 PUSH2 0x3DEC JUMP JUMPDEST SWAP7 POP JUMPDEST PUSH20 0xFFFFFFFFFFFFFFFFFFFFFFFFFFFFFFFFFFFFFFFF DUP1 DUP4 AND PUSH1 0x0 SWAP1 DUP2 MSTORE PUSH1 0x6 PUSH1 0x20 SWAP1 DUP2 MSTORE PUSH1 0x40 DUP1 DUP4 KECCAK256 SWAP4 DUP14 AND DUP4 MSTORE SWAP3 SWAP1 MSTORE KECCAK256 SLOAD PUSH2 0x2A01 SWAP1 DUP8 PUSH2 0x3F73 JUMP JUMPDEST PUSH20 0xFFFFFFFFFFFFFFFFFFFFFFFFFFFFFFFFFFFFFFFF DUP1 DUP5 AND PUSH1 0x0 SWAP1 DUP2 MSTORE PUSH1 0x6 PUSH1 0x20 SWAP1 DUP2 MSTORE PUSH1 0x40 DUP1 DUP4 KECCAK256 SWAP4 DUP15 AND DUP4 MSTORE SWAP3 SWAP1 MSTORE KECCAK256 SSTORE PUSH2 0x2A5A PUSH2 0x2A40 DUP9 PUSH2 0x3D44 JUMP JUMPDEST DUP3 MLOAD PUSH16 0xFFFFFFFFFFFFFFFFFFFFFFFFFFFFFFFF AND SWAP1 PUSH2 0x41CF JUMP JUMPDEST PUSH16 0xFFFFFFFFFFFFFFFFFFFFFFFFFFFFFFFF AND DUP2 MSTORE PUSH2 0x2A97 PUSH2 0x2A7A DUP8 PUSH2 0x3D44 JUMP JUMPDEST PUSH1 0x20 DUP4 ADD MLOAD PUSH16 0xFFFFFFFFFFFFFFFFFFFFFFFFFFFFFFFF AND SWAP1 PUSH2 0x41CF JUMP JUMPDEST PUSH16 0xFFFFFFFFFFFFFFFFFFFFFFFFFFFFFFFF AND PUSH1 0x20 DUP3 ADD DUP2 SWAP1 MSTORE PUSH2 0x3E8 GT ISZERO DUP1 PUSH2 0x2AD4 JUMPI POP PUSH1 0x20 DUP2 ADD MLOAD PUSH16 0xFFFFFFFFFFFFFFFFFFFFFFFFFFFFFFFF AND ISZERO JUMPDEST PUSH2 0x2B0A JUMPI PUSH1 0x40 MLOAD PUSH32 0x8C379A000000000000000000000000000000000000000000000000000000000 DUP2 MSTORE PUSH1 0x4 ADD PUSH2 0x677 SWAP1 PUSH2 0x5244 JUMP JUMPDEST PUSH20 0xFFFFFFFFFFFFFFFFFFFFFFFFFFFFFFFFFFFFFFFF DUP3 DUP2 AND PUSH1 0x0 SWAP1 DUP2 MSTORE PUSH1 0x7 PUSH1 0x20 SWAP1 DUP2 MSTORE PUSH1 0x40 SWAP1 SWAP2 KECCAK256 DUP4 MLOAD DUP2 SLOAD SWAP3 DUP6 ADD MLOAD PUSH32 0xFFFFFFFFFFFFFFFFFFFFFFFFFFFFFFFF00000000000000000000000000000000 SWAP1 SWAP4 AND PUSH16 0xFFFFFFFFFFFFFFFFFFFFFFFFFFFFFFFF SWAP2 DUP3 AND OR DUP2 AND PUSH17 0x100000000000000000000000000000000 SWAP2 SWAP1 SWAP4 AND MUL SWAP2 SWAP1 SWAP2 OR SWAP1 SSTORE DUP11 AND PUSH2 0x2CE6 JUMPI PUSH1 0x40 MLOAD PUSH32 0x2E1A7D4D00000000000000000000000000000000000000000000000000000000 DUP2 MSTORE PUSH20 0xFFFFFFFFFFFFFFFFFFFFFFFFFFFFFFFFFFFFFFFF PUSH32 0x0 AND SWAP1 PUSH4 0x2E1A7D4D SWAP1 PUSH2 0x2C0B SWAP1 DUP11 SWAP1 PUSH1 0x4 ADD PUSH2 0x5071 JUMP JUMPDEST PUSH1 0x0 PUSH1 0x40 MLOAD DUP1 DUP4 SUB DUP2 PUSH1 0x0 DUP8 DUP1 EXTCODESIZE ISZERO DUP1 ISZERO PUSH2 0x2C25 JUMPI PUSH1 0x0 DUP1 REVERT JUMPDEST POP GAS CALL ISZERO DUP1 ISZERO PUSH2 0x2C39 JUMPI RETURNDATASIZE PUSH1 0x0 DUP1 RETURNDATACOPY RETURNDATASIZE PUSH1 0x0 REVERT JUMPDEST POP POP POP POP PUSH1 0x0 DUP9 PUSH20 0xFFFFFFFFFFFFFFFFFFFFFFFFFFFFFFFFFFFFFFFF AND DUP9 PUSH1 0x40 MLOAD PUSH2 0x2C63 SWAP1 PUSH2 0x4DC4 JUMP JUMPDEST PUSH1 0x0 PUSH1 0x40 MLOAD DUP1 DUP4 SUB DUP2 DUP6 DUP8 GAS CALL SWAP3 POP POP POP RETURNDATASIZE DUP1 PUSH1 0x0 DUP2 EQ PUSH2 0x2CA0 JUMPI PUSH1 0x40 MLOAD SWAP2 POP PUSH1 0x1F NOT PUSH1 0x3F RETURNDATASIZE ADD AND DUP3 ADD PUSH1 0x40 MSTORE RETURNDATASIZE DUP3 MSTORE RETURNDATASIZE PUSH1 0x0 PUSH1 0x20 DUP5 ADD RETURNDATACOPY PUSH2 0x2CA5 JUMP JUMPDEST PUSH1 0x60 SWAP2 POP JUMPDEST POP POP SWAP1 POP DUP1 PUSH2 0x2CE0 JUMPI PUSH1 0x40 MLOAD PUSH32 0x8C379A000000000000000000000000000000000000000000000000000000000 DUP2 MSTORE PUSH1 0x4 ADD PUSH2 0x677 SWAP1 PUSH2 0x56BF JUMP JUMPDEST POP PUSH2 0x2D07 JUMP JUMPDEST PUSH2 0x2D07 PUSH20 0xFFFFFFFFFFFFFFFFFFFFFFFFFFFFFFFFFFFFFFFF DUP4 AND DUP10 DUP10 PUSH2 0x4272 JUMP JUMPDEST DUP8 PUSH20 0xFFFFFFFFFFFFFFFFFFFFFFFFFFFFFFFFFFFFFFFF AND DUP10 PUSH20 0xFFFFFFFFFFFFFFFFFFFFFFFFFFFFFFFFFFFFFFFF AND DUP4 PUSH20 0xFFFFFFFFFFFFFFFFFFFFFFFFFFFFFFFFFFFFFFFF AND PUSH32 0xAD9AB9EE6953D4D177F4A03B3A3AC3178FFCB9816319F348060194AA76B14486 DUP11 DUP11 PUSH1 0x40 MLOAD PUSH2 0xC70 SWAP3 SWAP2 SWAP1 PUSH2 0x57DA JUMP JUMPDEST CALLER PUSH1 0x0 DUP2 DUP2 MSTORE PUSH1 0x2 PUSH1 0x20 MSTORE PUSH1 0x40 DUP1 DUP3 KECCAK256 DUP1 SLOAD PUSH32 0xFFFFFFFFFFFFFFFFFFFFFFFF0000000000000000000000000000000000000000 AND DUP5 OR SWAP1 SSTORE MLOAD PUSH32 0xDFB44FFABF0D3A8F650D3CE43EFF98F6D050E7EA1A396D5794F014E7DADABACB SWAP2 SWAP1 LOG2 JUMP JUMPDEST PUSH1 0x2 PUSH1 0x20 MSTORE PUSH1 0x0 SWAP1 DUP2 MSTORE PUSH1 0x40 SWAP1 KECCAK256 SLOAD PUSH20 0xFFFFFFFFFFFFFFFFFFFFFFFFFFFFFFFFFFFFFFFF AND DUP2 JUMP JUMPDEST PUSH20 0xFFFFFFFFFFFFFFFFFFFFFFFFFFFFFFFFFFFFFFFF DUP6 AND PUSH2 0x2E51 JUMPI PUSH1 0x40 MLOAD PUSH32 0x8C379A000000000000000000000000000000000000000000000000000000000 DUP2 MSTORE PUSH1 0x4 ADD PUSH2 0x677 SWAP1 PUSH2 0x5577 JUMP JUMPDEST DUP2 ISZERO DUP1 ISZERO PUSH2 0x2E5D JUMPI POP DUP1 ISZERO JUMPDEST DUP1 ISZERO PUSH2 0x2E6A JUMPI POP PUSH1 0xFF DUP4 AND ISZERO JUMPDEST ISZERO PUSH2 0x2F81 JUMPI PUSH20 0xFFFFFFFFFFFFFFFFFFFFFFFFFFFFFFFFFFFFFFFF DUP7 AND CALLER EQ PUSH2 0x2EBE JUMPI PUSH1 0x40 MLOAD PUSH32 0x8C379A000000000000000000000000000000000000000000000000000000000 DUP2 MSTORE PUSH1 0x4 ADD PUSH2 0x677 SWAP1 PUSH2 0x51D6 JUMP JUMPDEST PUSH20 0xFFFFFFFFFFFFFFFFFFFFFFFFFFFFFFFFFFFFFFFF DUP7 DUP2 AND PUSH1 0x0 SWAP1 DUP2 MSTORE PUSH1 0x2 PUSH1 0x20 MSTORE PUSH1 0x40 SWAP1 KECCAK256 SLOAD AND ISZERO PUSH2 0x2F1D JUMPI PUSH1 0x40 MLOAD PUSH32 0x8C379A000000000000000000000000000000000000000000000000000000000 DUP2 MSTORE PUSH1 0x4 ADD PUSH2 0x677 SWAP1 PUSH2 0x54D4 JUMP JUMPDEST PUSH20 0xFFFFFFFFFFFFFFFFFFFFFFFFFFFFFFFFFFFFFFFF DUP6 AND PUSH1 0x0 SWAP1 DUP2 MSTORE PUSH1 0x4 PUSH1 0x20 MSTORE PUSH1 0x40 SWAP1 KECCAK256 SLOAD PUSH1 0xFF AND PUSH2 0x2F7C JUMPI PUSH1 0x40 MLOAD PUSH32 0x8C379A000000000000000000000000000000000000000000000000000000000 DUP2 MSTORE PUSH1 0x4 ADD PUSH2 0x677 SWAP1 PUSH2 0x5688 JUMP JUMPDEST PUSH2 0x31BE JUMP JUMPDEST PUSH20 0xFFFFFFFFFFFFFFFFFFFFFFFFFFFFFFFFFFFFFFFF DUP7 AND PUSH2 0x2FCE JUMPI PUSH1 0x40 MLOAD PUSH32 0x8C379A000000000000000000000000000000000000000000000000000000000 DUP2 MSTORE PUSH1 0x4 ADD PUSH2 0x677 SWAP1 PUSH2 0x561A JUMP JUMPDEST PUSH1 0x0 PUSH1 0x40 MLOAD DUP1 PUSH1 0x40 ADD PUSH1 0x40 MSTORE DUP1 PUSH1 0x2 DUP2 MSTORE PUSH1 0x20 ADD PUSH32 0x1901000000000000000000000000000000000000000000000000000000000000 DUP2 MSTORE POP PUSH2 0x300E PUSH2 0x147F JUMP JUMPDEST PUSH32 0x1962BC9F5484CB7A998701B81090E966EE1FCE5771AF884CCEEE7C081B14ADE2 DUP8 PUSH2 0x305A JUMPI PUSH32 0xB426802F1F7DC850A7B6B38805EDEA2442F3992878A9AB985ABFE8091D95D0B1 PUSH2 0x307C JUMP JUMPDEST PUSH32 0x422AC5323FE049241DEE67716229A1CC1BC7B313B23DFE3EF6D42AB177A3B284 JUMPDEST PUSH20 0xFFFFFFFFFFFFFFFFFFFFFFFFFFFFFFFFFFFFFFFF DUP12 AND PUSH1 0x0 SWAP1 DUP2 MSTORE PUSH1 0x5 PUSH1 0x20 SWAP1 DUP2 MSTORE PUSH1 0x40 SWAP2 DUP3 SWAP1 KECCAK256 DUP1 SLOAD PUSH1 0x1 DUP2 ADD SWAP1 SWAP2 SSTORE SWAP2 MLOAD PUSH2 0x30C3 SWAP5 SWAP4 SWAP3 DUP15 SWAP3 DUP15 SWAP3 DUP15 SWAP3 SWAP2 ADD PUSH2 0x507A JUMP JUMPDEST PUSH1 0x40 MLOAD PUSH1 0x20 DUP2 DUP4 SUB SUB DUP2 MSTORE SWAP1 PUSH1 0x40 MSTORE DUP1 MLOAD SWAP1 PUSH1 0x20 ADD KECCAK256 PUSH1 0x40 MLOAD PUSH1 0x20 ADD PUSH2 0x30EB SWAP4 SWAP3 SWAP2 SWAP1 PUSH2 0x4D9D JUMP JUMPDEST PUSH1 0x40 MLOAD PUSH1 0x20 DUP2 DUP4 SUB SUB DUP2 MSTORE SWAP1 PUSH1 0x40 MSTORE DUP1 MLOAD SWAP1 PUSH1 0x20 ADD KECCAK256 SWAP1 POP PUSH1 0x0 PUSH1 0x1 DUP3 DUP7 DUP7 DUP7 PUSH1 0x40 MLOAD PUSH1 0x0 DUP2 MSTORE PUSH1 0x20 ADD PUSH1 0x40 MSTORE PUSH1 0x40 MLOAD PUSH2 0x3128 SWAP5 SWAP4 SWAP3 SWAP2 SWAP1 PUSH2 0x50EC JUMP JUMPDEST PUSH1 0x20 PUSH1 0x40 MLOAD PUSH1 0x20 DUP2 SUB SWAP1 DUP1 DUP5 SUB SWAP1 DUP6 GAS STATICCALL ISZERO DUP1 ISZERO PUSH2 0x314A JUMPI RETURNDATASIZE PUSH1 0x0 DUP1 RETURNDATACOPY RETURNDATASIZE PUSH1 0x0 REVERT JUMPDEST POP POP POP PUSH1 0x20 PUSH1 0x40 MLOAD SUB MLOAD SWAP1 POP DUP8 PUSH20 0xFFFFFFFFFFFFFFFFFFFFFFFFFFFFFFFFFFFFFFFF AND DUP2 PUSH20 0xFFFFFFFFFFFFFFFFFFFFFFFFFFFFFFFFFFFFFFFF AND EQ PUSH2 0x31BB JUMPI PUSH1 0x40 MLOAD PUSH32 0x8C379A000000000000000000000000000000000000000000000000000000000 DUP2 MSTORE PUSH1 0x4 ADD PUSH2 0x677 SWAP1 PUSH2 0x550B JUMP JUMPDEST POP POP JUMPDEST PUSH20 0xFFFFFFFFFFFFFFFFFFFFFFFFFFFFFFFFFFFFFFFF DUP6 DUP2 AND PUSH1 0x0 DUP2 DUP2 MSTORE PUSH1 0x3 PUSH1 0x20 SWAP1 DUP2 MSTORE PUSH1 0x40 DUP1 DUP4 KECCAK256 SWAP5 DUP12 AND DUP1 DUP5 MSTORE SWAP5 SWAP1 SWAP2 MSTORE SWAP1 DUP2 SWAP1 KECCAK256 DUP1 SLOAD PUSH32 0xFFFFFFFFFFFFFFFFFFFFFFFFFFFFFFFFFFFFFFFFFFFFFFFFFFFFFFFFFFFFFF00 AND DUP9 ISZERO ISZERO OR SWAP1 SSTORE MLOAD PUSH32 0x5F6EBB64BA012A851C6F014E6CAD458DDF213D1512049B31CD06365C2B059257 SWAP1 PUSH2 0x324D SWAP1 DUP9 SWAP1 PUSH2 0x5066 JUMP JUMPDEST PUSH1 0x40 MLOAD DUP1 SWAP2 SUB SWAP1 LOG3 POP POP POP POP POP POP JUMP JUMPDEST PUSH1 0x60 DUP1 DUP4 PUSH8 0xFFFFFFFFFFFFFFFF DUP2 GT DUP1 ISZERO PUSH2 0x3277 JUMPI PUSH1 0x0 DUP1 REVERT JUMPDEST POP PUSH1 0x40 MLOAD SWAP1 DUP1 DUP3 MSTORE DUP1 PUSH1 0x20 MUL PUSH1 0x20 ADD DUP3 ADD PUSH1 0x40 MSTORE DUP1 ISZERO PUSH2 0x32A1 JUMPI DUP2 PUSH1 0x20 ADD PUSH1 0x20 DUP3 MUL DUP1 CALLDATASIZE DUP4 CALLDATACOPY ADD SWAP1 POP JUMPDEST POP SWAP2 POP DUP4 PUSH8 0xFFFFFFFFFFFFFFFF DUP2 GT DUP1 ISZERO PUSH2 0x32BB JUMPI PUSH1 0x0 DUP1 REVERT JUMPDEST POP PUSH1 0x40 MLOAD SWAP1 DUP1 DUP3 MSTORE DUP1 PUSH1 0x20 MUL PUSH1 0x20 ADD DUP3 ADD PUSH1 0x40 MSTORE DUP1 ISZERO PUSH2 0x32EF JUMPI DUP2 PUSH1 0x20 ADD JUMPDEST PUSH1 0x60 DUP2 MSTORE PUSH1 0x20 ADD SWAP1 PUSH1 0x1 SWAP1 SUB SWAP1 DUP2 PUSH2 0x32DA JUMPI SWAP1 POP JUMPDEST POP SWAP1 POP PUSH1 0x0 JUMPDEST DUP5 DUP2 LT ISZERO PUSH2 0x3400 JUMPI PUSH1 0x0 PUSH1 0x60 ADDRESS DUP9 DUP9 DUP6 DUP2 DUP2 LT PUSH2 0x330E JUMPI INVALID JUMPDEST SWAP1 POP PUSH1 0x20 MUL DUP2 ADD SWAP1 PUSH2 0x3320 SWAP2 SWAP1 PUSH2 0x5833 JUMP JUMPDEST PUSH1 0x40 MLOAD PUSH2 0x332E SWAP3 SWAP2 SWAP1 PUSH2 0x4D71 JUMP JUMPDEST PUSH1 0x0 PUSH1 0x40 MLOAD DUP1 DUP4 SUB DUP2 DUP6 GAS DELEGATECALL SWAP2 POP POP RETURNDATASIZE DUP1 PUSH1 0x0 DUP2 EQ PUSH2 0x3369 JUMPI PUSH1 0x40 MLOAD SWAP2 POP PUSH1 0x1F NOT PUSH1 0x3F RETURNDATASIZE ADD AND DUP3 ADD PUSH1 0x40 MSTORE RETURNDATASIZE DUP3 MSTORE RETURNDATASIZE PUSH1 0x0 PUSH1 0x20 DUP5 ADD RETURNDATACOPY PUSH2 0x336E JUMP JUMPDEST PUSH1 0x60 SWAP2 POP JUMPDEST POP SWAP2 POP SWAP2 POP DUP2 DUP1 PUSH2 0x337D JUMPI POP DUP6 ISZERO JUMPDEST PUSH2 0x3386 DUP3 PUSH2 0x44B4 JUMP JUMPDEST SWAP1 PUSH2 0x33BE JUMPI PUSH1 0x40 MLOAD PUSH32 0x8C379A000000000000000000000000000000000000000000000000000000000 DUP2 MSTORE PUSH1 0x4 ADD PUSH2 0x677 SWAP2 SWAP1 PUSH2 0x511E JUMP JUMPDEST POP DUP2 DUP6 DUP5 DUP2 MLOAD DUP2 LT PUSH2 0x33CC JUMPI INVALID JUMPDEST PUSH1 0x20 MUL PUSH1 0x20 ADD ADD SWAP1 ISZERO ISZERO SWAP1 DUP2 ISZERO ISZERO DUP2 MSTORE POP POP DUP1 DUP5 DUP5 DUP2 MLOAD DUP2 LT PUSH2 0x33EB JUMPI INVALID JUMPDEST PUSH1 0x20 SWAP1 DUP2 MUL SWAP2 SWAP1 SWAP2 ADD ADD MSTORE POP POP PUSH1 0x1 ADD PUSH2 0x32F5 JUMP JUMPDEST POP SWAP4 POP SWAP4 SWAP2 POP POP JUMP JUMPDEST PUSH20 0xFFFFFFFFFFFFFFFFFFFFFFFFFFFFFFFFFFFFFFFF DUP4 AND PUSH1 0x0 SWAP1 DUP2 MSTORE PUSH1 0x7 PUSH1 0x20 SWAP1 DUP2 MSTORE PUSH1 0x40 DUP1 DUP4 KECCAK256 DUP2 MLOAD DUP1 DUP4 ADD SWAP1 SWAP3 MSTORE SLOAD PUSH16 0xFFFFFFFFFFFFFFFFFFFFFFFFFFFFFFFF DUP1 DUP3 AND DUP4 MSTORE PUSH17 0x100000000000000000000000000000000 SWAP1 SWAP2 DIV AND SWAP2 DUP2 ADD SWAP2 SWAP1 SWAP2 MSTORE PUSH2 0x17CC SWAP1 DUP5 DUP5 PUSH2 0x3C86 JUMP JUMPDEST PUSH1 0xA PUSH1 0x20 MSTORE PUSH1 0x0 SWAP1 DUP2 MSTORE PUSH1 0x40 SWAP1 KECCAK256 SLOAD PUSH8 0xFFFFFFFFFFFFFFFF DUP1 DUP3 AND SWAP2 PUSH9 0x10000000000000000 DUP2 DIV SWAP1 SWAP2 AND SWAP1 PUSH17 0x100000000000000000000000000000000 SWAP1 DIV PUSH16 0xFFFFFFFFFFFFFFFFFFFFFFFFFFFFFFFF AND DUP4 JUMP JUMPDEST PUSH1 0x1 SLOAD PUSH20 0xFFFFFFFFFFFFFFFFFFFFFFFFFFFFFFFFFFFFFFFF AND DUP2 JUMP JUMPDEST PUSH1 0x0 PUSH3 0x186A0 PUSH2 0x34FA DUP6 PUSH1 0x32 PUSH2 0x4221 JUMP JUMPDEST DUP2 PUSH2 0x3501 JUMPI INVALID JUMPDEST DIV SWAP1 POP PUSH2 0x3525 PUSH20 0xFFFFFFFFFFFFFFFFFFFFFFFFFFFFFFFFFFFFFFFF DUP7 AND DUP8 DUP7 PUSH2 0x4272 JUMP JUMPDEST PUSH1 0x40 MLOAD PUSH32 0x23E30C8B00000000000000000000000000000000000000000000000000000000 DUP2 MSTORE PUSH20 0xFFFFFFFFFFFFFFFFFFFFFFFFFFFFFFFFFFFFFFFF DUP9 AND SWAP1 PUSH4 0x23E30C8B SWAP1 PUSH2 0x3581 SWAP1 CALLER SWAP1 DUP10 SWAP1 DUP10 SWAP1 DUP8 SWAP1 DUP11 SWAP1 DUP11 SWAP1 PUSH1 0x4 ADD PUSH2 0x4ED5 JUMP JUMPDEST PUSH1 0x0 PUSH1 0x40 MLOAD DUP1 DUP4 SUB DUP2 PUSH1 0x0 DUP8 DUP1 EXTCODESIZE ISZERO DUP1 ISZERO PUSH2 0x359B JUMPI PUSH1 0x0 DUP1 REVERT JUMPDEST POP GAS CALL ISZERO DUP1 ISZERO PUSH2 0x35AF JUMPI RETURNDATASIZE PUSH1 0x0 DUP1 RETURNDATACOPY RETURNDATASIZE PUSH1 0x0 REVERT JUMPDEST POP POP POP POP PUSH2 0x35FC PUSH2 0x35BF DUP3 PUSH2 0x3D44 JUMP JUMPDEST PUSH20 0xFFFFFFFFFFFFFFFFFFFFFFFFFFFFFFFFFFFFFFFF DUP8 AND PUSH1 0x0 SWAP1 DUP2 MSTORE PUSH1 0x7 PUSH1 0x20 MSTORE PUSH1 0x40 SWAP1 KECCAK256 SWAP1 PUSH16 0xFFFFFFFFFFFFFFFFFFFFFFFFFFFFFFFF AND PUSH2 0x441E JUMP JUMPDEST PUSH2 0x3605 DUP7 PUSH2 0x3E8F JUMP JUMPDEST LT ISZERO PUSH2 0x363D JUMPI PUSH1 0x40 MLOAD PUSH32 0x8C379A000000000000000000000000000000000000000000000000000000000 DUP2 MSTORE PUSH1 0x4 ADD PUSH2 0x677 SWAP1 PUSH2 0x5651 JUMP JUMPDEST DUP6 PUSH20 0xFFFFFFFFFFFFFFFFFFFFFFFFFFFFFFFFFFFFFFFF AND DUP6 PUSH20 0xFFFFFFFFFFFFFFFFFFFFFFFFFFFFFFFFFFFFFFFF AND DUP9 PUSH20 0xFFFFFFFFFFFFFFFFFFFFFFFFFFFFFFFFFFFFFFFF AND PUSH32 0x3BE9B85936D5D30A1655EA116A17EE3D827B2CD428CC026CE5BF2AC46A223204 DUP8 DUP6 PUSH1 0x40 MLOAD PUSH2 0x36B3 SWAP3 SWAP2 SWAP1 PUSH2 0x57DA JUMP JUMPDEST PUSH1 0x40 MLOAD DUP1 SWAP2 SUB SWAP1 LOG4 POP POP POP POP POP POP POP JUMP JUMPDEST DUP3 PUSH20 0xFFFFFFFFFFFFFFFFFFFFFFFFFFFFFFFFFFFFFFFF DUP2 AND CALLER EQ DUP1 ISZERO SWAP1 PUSH2 0x3701 JUMPI POP PUSH20 0xFFFFFFFFFFFFFFFFFFFFFFFFFFFFFFFFFFFFFFFF DUP2 AND ADDRESS EQ ISZERO JUMPDEST ISZERO PUSH2 0x37D1 JUMPI CALLER PUSH1 0x0 SWAP1 DUP2 MSTORE PUSH1 0x2 PUSH1 0x20 MSTORE PUSH1 0x40 SWAP1 KECCAK256 SLOAD PUSH20 0xFFFFFFFFFFFFFFFFFFFFFFFFFFFFFFFFFFFFFFFF AND DUP1 PUSH2 0x3763 JUMPI PUSH1 0x40 MLOAD PUSH32 0x8C379A000000000000000000000000000000000000000000000000000000000 DUP2 MSTORE PUSH1 0x4 ADD PUSH2 0x677 SWAP1 PUSH2 0x55AE JUMP JUMPDEST PUSH20 0xFFFFFFFFFFFFFFFFFFFFFFFFFFFFFFFFFFFFFFFF DUP1 DUP3 AND PUSH1 0x0 SWAP1 DUP2 MSTORE PUSH1 0x3 PUSH1 0x20 SWAP1 DUP2 MSTORE PUSH1 0x40 DUP1 DUP4 KECCAK256 SWAP4 DUP7 AND DUP4 MSTORE SWAP3 SWAP1 MSTORE KECCAK256 SLOAD PUSH1 0xFF AND PUSH2 0x37CF JUMPI PUSH1 0x40 MLOAD PUSH32 0x8C379A000000000000000000000000000000000000000000000000000000000 DUP2 MSTORE PUSH1 0x4 ADD PUSH2 0x677 SWAP1 PUSH2 0x5431 JUMP JUMPDEST POP JUMPDEST PUSH20 0xFFFFFFFFFFFFFFFFFFFFFFFFFFFFFFFFFFFFFFFF DUP4 AND PUSH2 0x381E JUMPI PUSH1 0x40 MLOAD PUSH32 0x8C379A000000000000000000000000000000000000000000000000000000000 DUP2 MSTORE PUSH1 0x4 ADD PUSH2 0x677 SWAP1 PUSH2 0x538E JUMP JUMPDEST PUSH20 0xFFFFFFFFFFFFFFFFFFFFFFFFFFFFFFFFFFFFFFFF DUP1 DUP7 AND PUSH1 0x0 SWAP1 DUP2 MSTORE PUSH1 0x6 PUSH1 0x20 SWAP1 DUP2 MSTORE PUSH1 0x40 DUP1 DUP4 KECCAK256 SWAP4 DUP9 AND DUP4 MSTORE SWAP3 SWAP1 MSTORE KECCAK256 SLOAD PUSH2 0x385B SWAP1 DUP4 PUSH2 0x3F73 JUMP JUMPDEST PUSH20 0xFFFFFFFFFFFFFFFFFFFFFFFFFFFFFFFFFFFFFFFF DUP7 DUP2 AND PUSH1 0x0 SWAP1 DUP2 MSTORE PUSH1 0x6 PUSH1 0x20 SWAP1 DUP2 MSTORE PUSH1 0x40 DUP1 DUP4 KECCAK256 DUP10 DUP6 AND DUP5 MSTORE SWAP1 SWAP2 MSTORE DUP1 DUP3 KECCAK256 SWAP4 SWAP1 SWAP4 SSTORE SWAP1 DUP6 AND DUP2 MSTORE KECCAK256 SLOAD PUSH2 0x38A4 SWAP1 DUP4 PUSH2 0x3FB0 JUMP JUMPDEST PUSH20 0xFFFFFFFFFFFFFFFFFFFFFFFFFFFFFFFFFFFFFFFF DUP1 DUP8 AND PUSH1 0x0 DUP2 DUP2 MSTORE PUSH1 0x6 PUSH1 0x20 SWAP1 DUP2 MSTORE PUSH1 0x40 DUP1 DUP4 KECCAK256 DUP10 DUP7 AND DUP1 DUP6 MSTORE SWAP3 MSTORE SWAP2 DUP3 SWAP1 KECCAK256 SWAP5 SWAP1 SWAP5 SSTORE MLOAD SWAP2 DUP8 AND SWAP2 PUSH32 0x6EABE333476233FD382224F233210CB808A7BC4C4DE64F9D76628BF63C677B1A SWAP1 PUSH2 0x390F SWAP1 DUP8 SWAP1 PUSH2 0x5071 JUMP JUMPDEST PUSH1 0x40 MLOAD DUP1 SWAP2 SUB SWAP1 LOG4 POP POP POP POP POP JUMP JUMPDEST PUSH1 0x60 DUP6 PUSH8 0xFFFFFFFFFFFFFFFF DUP2 GT DUP1 ISZERO PUSH2 0x3937 JUMPI PUSH1 0x0 DUP1 REVERT JUMPDEST POP PUSH1 0x40 MLOAD SWAP1 DUP1 DUP3 MSTORE DUP1 PUSH1 0x20 MUL PUSH1 0x20 ADD DUP3 ADD PUSH1 0x40 MSTORE DUP1 ISZERO PUSH2 0x3961 JUMPI DUP2 PUSH1 0x20 ADD PUSH1 0x20 DUP3 MUL DUP1 CALLDATASIZE DUP4 CALLDATACOPY ADD SWAP1 POP JUMPDEST POP SWAP1 POP DUP6 PUSH1 0x0 JUMPDEST DUP2 DUP2 LT ISZERO PUSH2 0x3A3D JUMPI PUSH1 0x0 DUP8 DUP8 DUP4 DUP2 DUP2 LT PUSH2 0x397E JUMPI INVALID JUMPDEST SWAP1 POP PUSH1 0x20 MUL ADD CALLDATALOAD SWAP1 POP PUSH3 0x186A0 PUSH2 0x399F PUSH1 0x32 DUP4 PUSH2 0x4221 SWAP1 SWAP2 SWAP1 PUSH4 0xFFFFFFFF AND JUMP JUMPDEST DUP2 PUSH2 0x39A6 JUMPI INVALID JUMPDEST DIV DUP5 DUP4 DUP2 MLOAD DUP2 LT PUSH2 0x39B3 JUMPI INVALID JUMPDEST PUSH1 0x20 MUL PUSH1 0x20 ADD ADD DUP2 DUP2 MSTORE POP POP PUSH2 0x3A34 DUP13 DUP13 DUP5 DUP2 DUP2 LT PUSH2 0x39CE JUMPI INVALID JUMPDEST SWAP1 POP PUSH1 0x20 MUL ADD PUSH1 0x20 DUP2 ADD SWAP1 PUSH2 0x39E3 SWAP2 SWAP1 PUSH2 0x45F0 JUMP JUMPDEST DUP10 DUP10 DUP6 DUP2 DUP2 LT PUSH2 0x39EF JUMPI INVALID JUMPDEST SWAP1 POP PUSH1 0x20 MUL ADD CALLDATALOAD DUP13 DUP13 DUP7 DUP2 DUP2 LT PUSH2 0x3A02 JUMPI INVALID JUMPDEST SWAP1 POP PUSH1 0x20 MUL ADD PUSH1 0x20 DUP2 ADD SWAP1 PUSH2 0x3A17 SWAP2 SWAP1 PUSH2 0x45F0 JUMP JUMPDEST PUSH20 0xFFFFFFFFFFFFFFFFFFFFFFFFFFFFFFFFFFFFFFFF AND SWAP2 SWAP1 PUSH2 0x4272 JUMP JUMPDEST POP PUSH1 0x1 ADD PUSH2 0x3968 JUMP JUMPDEST POP PUSH1 0x40 MLOAD PUSH32 0xD9D1762300000000000000000000000000000000000000000000000000000000 DUP2 MSTORE PUSH20 0xFFFFFFFFFFFFFFFFFFFFFFFFFFFFFFFFFFFFFFFF DUP13 AND SWAP1 PUSH4 0xD9D17623 SWAP1 PUSH2 0x3A9E SWAP1 CALLER SWAP1 DUP13 SWAP1 DUP13 SWAP1 DUP13 SWAP1 DUP13 SWAP1 DUP11 SWAP1 DUP14 SWAP1 DUP14 SWAP1 PUSH1 0x4 ADD PUSH2 0x4DE8 JUMP JUMPDEST PUSH1 0x0 PUSH1 0x40 MLOAD DUP1 DUP4 SUB DUP2 PUSH1 0x0 DUP8 DUP1 EXTCODESIZE ISZERO DUP1 ISZERO PUSH2 0x3AB8 JUMPI PUSH1 0x0 DUP1 REVERT JUMPDEST POP GAS CALL ISZERO DUP1 ISZERO PUSH2 0x3ACC JUMPI RETURNDATASIZE PUSH1 0x0 DUP1 RETURNDATACOPY RETURNDATASIZE PUSH1 0x0 REVERT JUMPDEST POP POP POP POP PUSH1 0x0 JUMPDEST DUP2 DUP2 LT ISZERO PUSH2 0x2731 JUMPI PUSH1 0x0 DUP10 DUP10 DUP4 DUP2 DUP2 LT PUSH2 0x3AE9 JUMPI INVALID JUMPDEST SWAP1 POP PUSH1 0x20 MUL ADD PUSH1 0x20 DUP2 ADD SWAP1 PUSH2 0x3AFE SWAP2 SWAP1 PUSH2 0x45F0 JUMP JUMPDEST SWAP1 POP PUSH2 0x3B5C PUSH2 0x3B1F DUP6 DUP5 DUP2 MLOAD DUP2 LT PUSH2 0x3B12 JUMPI INVALID JUMPDEST PUSH1 0x20 MUL PUSH1 0x20 ADD ADD MLOAD PUSH2 0x3D44 JUMP JUMPDEST PUSH20 0xFFFFFFFFFFFFFFFFFFFFFFFFFFFFFFFFFFFFFFFF DUP4 AND PUSH1 0x0 SWAP1 DUP2 MSTORE PUSH1 0x7 PUSH1 0x20 MSTORE PUSH1 0x40 SWAP1 KECCAK256 SWAP1 PUSH16 0xFFFFFFFFFFFFFFFFFFFFFFFFFFFFFFFF AND PUSH2 0x441E JUMP JUMPDEST PUSH2 0x3B65 DUP3 PUSH2 0x3E8F JUMP JUMPDEST LT ISZERO PUSH2 0x3B9D JUMPI PUSH1 0x40 MLOAD PUSH32 0x8C379A000000000000000000000000000000000000000000000000000000000 DUP2 MSTORE PUSH1 0x4 ADD PUSH2 0x677 SWAP1 PUSH2 0x5651 JUMP JUMPDEST DUP12 DUP12 DUP4 DUP2 DUP2 LT PUSH2 0x3BA9 JUMPI INVALID JUMPDEST SWAP1 POP PUSH1 0x20 MUL ADD PUSH1 0x20 DUP2 ADD SWAP1 PUSH2 0x3BBE SWAP2 SWAP1 PUSH2 0x45F0 JUMP JUMPDEST PUSH20 0xFFFFFFFFFFFFFFFFFFFFFFFFFFFFFFFFFFFFFFFF AND DUP2 PUSH20 0xFFFFFFFFFFFFFFFFFFFFFFFFFFFFFFFFFFFFFFFF AND DUP15 PUSH20 0xFFFFFFFFFFFFFFFFFFFFFFFFFFFFFFFFFFFFFFFF AND PUSH32 0x3BE9B85936D5D30A1655EA116A17EE3D827B2CD428CC026CE5BF2AC46A223204 DUP12 DUP12 DUP8 DUP2 DUP2 LT PUSH2 0x3C2F JUMPI INVALID JUMPDEST SWAP1 POP PUSH1 0x20 MUL ADD CALLDATALOAD DUP9 DUP8 DUP2 MLOAD DUP2 LT PUSH2 0x3C42 JUMPI INVALID JUMPDEST PUSH1 0x20 MUL PUSH1 0x20 ADD ADD MLOAD PUSH1 0x40 MLOAD PUSH2 0x3C58 SWAP3 SWAP2 SWAP1 PUSH2 0x57DA JUMP JUMPDEST PUSH1 0x40 MLOAD DUP1 SWAP2 SUB SWAP1 LOG4 POP PUSH1 0x1 ADD PUSH2 0x3AD3 JUMP JUMPDEST PUSH1 0x6 PUSH1 0x20 SWAP1 DUP2 MSTORE PUSH1 0x0 SWAP3 DUP4 MSTORE PUSH1 0x40 DUP1 DUP5 KECCAK256 SWAP1 SWAP2 MSTORE SWAP1 DUP3 MSTORE SWAP1 KECCAK256 SLOAD DUP2 JUMP JUMPDEST DUP3 MLOAD PUSH1 0x0 SWAP1 PUSH16 0xFFFFFFFFFFFFFFFFFFFFFFFFFFFFFFFF AND PUSH2 0x3CA8 JUMPI POP DUP2 PUSH2 0x3D3D JUMP JUMPDEST DUP4 MLOAD PUSH1 0x20 DUP6 ADD MLOAD PUSH16 0xFFFFFFFFFFFFFFFFFFFFFFFFFFFFFFFF SWAP2 DUP3 AND SWAP2 PUSH2 0x3CD0 SWAP2 DUP7 SWAP2 AND PUSH2 0x4221 JUMP JUMPDEST DUP2 PUSH2 0x3CD7 JUMPI INVALID JUMPDEST DIV SWAP1 POP DUP2 DUP1 ISZERO PUSH2 0x3D2D JUMPI POP DUP3 DUP5 PUSH1 0x20 ADD MLOAD PUSH16 0xFFFFFFFFFFFFFFFFFFFFFFFFFFFFFFFF AND PUSH2 0x3D23 DUP7 PUSH1 0x0 ADD MLOAD PUSH16 0xFFFFFFFFFFFFFFFFFFFFFFFFFFFFFFFF AND DUP5 PUSH2 0x4221 SWAP1 SWAP2 SWAP1 PUSH4 0xFFFFFFFF AND JUMP JUMPDEST DUP2 PUSH2 0x3D2A JUMPI INVALID JUMPDEST DIV LT JUMPDEST ISZERO PUSH2 0x3D3D JUMPI PUSH2 0x17CC DUP2 PUSH1 0x1 PUSH2 0x3FB0 JUMP JUMPDEST SWAP4 SWAP3 POP POP POP JUMP JUMPDEST PUSH1 0x0 PUSH16 0xFFFFFFFFFFFFFFFFFFFFFFFFFFFFFFFF DUP3 GT ISZERO PUSH2 0x3D90 JUMPI PUSH1 0x40 MLOAD PUSH32 0x8C379A000000000000000000000000000000000000000000000000000000000 DUP2 MSTORE PUSH1 0x4 ADD PUSH2 0x677 SWAP1 PUSH2 0x52E9 JUMP JUMPDEST POP SWAP1 JUMP JUMPDEST DUP2 DUP2 ADD PUSH16 0xFFFFFFFFFFFFFFFFFFFFFFFFFFFFFFFF DUP1 DUP4 AND SWAP1 DUP3 AND LT ISZERO PUSH2 0x3DE6 JUMPI PUSH1 0x40 MLOAD PUSH32 0x8C379A000000000000000000000000000000000000000000000000000000000 DUP2 MSTORE PUSH1 0x4 ADD PUSH2 0x677 SWAP1 PUSH2 0x5320 JUMP JUMPDEST SWAP3 SWAP2 POP POP JUMP JUMPDEST PUSH1 0x0 DUP4 PUSH1 0x20 ADD MLOAD PUSH16 0xFFFFFFFFFFFFFFFFFFFFFFFFFFFFFFFF AND PUSH1 0x0 EQ ISZERO PUSH2 0x3E14 JUMPI POP DUP2 PUSH2 0x3D3D JUMP JUMPDEST PUSH1 0x20 DUP5 ADD MLOAD DUP5 MLOAD PUSH16 0xFFFFFFFFFFFFFFFFFFFFFFFFFFFFFFFF SWAP2 DUP3 AND SWAP2 PUSH2 0x3E3C SWAP2 DUP7 SWAP2 AND PUSH2 0x4221 JUMP JUMPDEST DUP2 PUSH2 0x3E43 JUMPI INVALID JUMPDEST DIV SWAP1 POP DUP2 DUP1 ISZERO PUSH2 0x3D2D JUMPI POP DUP3 DUP5 PUSH1 0x0 ADD MLOAD PUSH16 0xFFFFFFFFFFFFFFFFFFFFFFFFFFFFFFFF AND PUSH2 0x3D23 DUP7 PUSH1 0x20 ADD MLOAD PUSH16 0xFFFFFFFFFFFFFFFFFFFFFFFFFFFFFFFF AND DUP5 PUSH2 0x4221 SWAP1 SWAP2 SWAP1 PUSH4 0xFFFFFFFF AND JUMP JUMPDEST PUSH20 0xFFFFFFFFFFFFFFFFFFFFFFFFFFFFFFFFFFFFFFFF DUP2 AND PUSH1 0x0 DUP2 DUP2 MSTORE PUSH1 0xA PUSH1 0x20 MSTORE PUSH1 0x40 DUP1 DUP3 KECCAK256 SLOAD SWAP1 MLOAD PUSH32 0x70A0823100000000000000000000000000000000000000000000000000000000 DUP2 MSTORE SWAP2 SWAP3 PUSH2 0x3DE6 SWAP3 PUSH17 0x100000000000000000000000000000000 SWAP1 SWAP3 DIV PUSH16 0xFFFFFFFFFFFFFFFFFFFFFFFFFFFFFFFF AND SWAP2 PUSH4 0x70A08231 SWAP1 PUSH2 0x3F1D SWAP1 ADDRESS SWAP1 PUSH1 0x4 ADD PUSH2 0x4DC7 JUMP JUMPDEST PUSH1 0x20 PUSH1 0x40 MLOAD DUP1 DUP4 SUB DUP2 DUP7 DUP1 EXTCODESIZE ISZERO DUP1 ISZERO PUSH2 0x3F35 JUMPI PUSH1 0x0 DUP1 REVERT JUMPDEST POP GAS STATICCALL ISZERO DUP1 ISZERO PUSH2 0x3F49 JUMPI RETURNDATASIZE PUSH1 0x0 DUP1 RETURNDATACOPY RETURNDATASIZE PUSH1 0x0 REVERT JUMPDEST POP POP POP POP PUSH1 0x40 MLOAD RETURNDATASIZE PUSH1 0x1F NOT PUSH1 0x1F DUP3 ADD AND DUP3 ADD DUP1 PUSH1 0x40 MSTORE POP DUP2 ADD SWAP1 PUSH2 0x3F6D SWAP2 SWAP1 PUSH2 0x4BB6 JUMP JUMPDEST SWAP1 PUSH2 0x3FB0 JUMP JUMPDEST DUP1 DUP3 SUB DUP3 DUP2 GT ISZERO PUSH2 0x3DE6 JUMPI PUSH1 0x40 MLOAD PUSH32 0x8C379A000000000000000000000000000000000000000000000000000000000 DUP2 MSTORE PUSH1 0x4 ADD PUSH2 0x677 SWAP1 PUSH2 0x5131 JUMP JUMPDEST DUP2 DUP2 ADD DUP2 DUP2 LT ISZERO PUSH2 0x3DE6 JUMPI PUSH1 0x40 MLOAD PUSH32 0x8C379A000000000000000000000000000000000000000000000000000000000 DUP2 MSTORE PUSH1 0x4 ADD PUSH2 0x677 SWAP1 PUSH2 0x5320 JUMP JUMPDEST PUSH1 0x0 PUSH1 0x60 DUP6 PUSH20 0xFFFFFFFFFFFFFFFFFFFFFFFFFFFFFFFFFFFFFFFF AND PUSH4 0x23B872DD PUSH1 0xE0 SHL DUP7 DUP7 DUP7 PUSH1 0x40 MLOAD PUSH1 0x24 ADD PUSH2 0x4025 SWAP4 SWAP3 SWAP2 SWAP1 PUSH2 0x4F27 JUMP JUMPDEST PUSH1 0x40 DUP1 MLOAD PUSH32 0xFFFFFFFFFFFFFFFFFFFFFFFFFFFFFFFFFFFFFFFFFFFFFFFFFFFFFFFFFFFFFFE0 DUP2 DUP5 SUB ADD DUP2 MSTORE SWAP2 DUP2 MSTORE PUSH1 0x20 DUP3 ADD DUP1 MLOAD PUSH28 0xFFFFFFFFFFFFFFFFFFFFFFFFFFFFFFFFFFFFFFFFFFFFFFFFFFFFFFFF AND PUSH32 0xFFFFFFFF00000000000000000000000000000000000000000000000000000000 SWAP1 SWAP5 AND SWAP4 SWAP1 SWAP4 OR SWAP1 SWAP3 MSTORE SWAP1 MLOAD PUSH2 0x40AE SWAP2 SWAP1 PUSH2 0x4D81 JUMP JUMPDEST PUSH1 0x0 PUSH1 0x40 MLOAD DUP1 DUP4 SUB DUP2 PUSH1 0x0 DUP7 GAS CALL SWAP2 POP POP RETURNDATASIZE DUP1 PUSH1 0x0 DUP2 EQ PUSH2 0x40EB JUMPI PUSH1 0x40 MLOAD SWAP2 POP PUSH1 0x1F NOT PUSH1 0x3F RETURNDATASIZE ADD AND DUP3 ADD PUSH1 0x40 MSTORE RETURNDATASIZE DUP3 MSTORE RETURNDATASIZE PUSH1 0x0 PUSH1 0x20 DUP5 ADD RETURNDATACOPY PUSH2 0x40F0 JUMP JUMPDEST PUSH1 0x60 SWAP2 POP JUMPDEST POP SWAP2 POP SWAP2 POP DUP2 DUP1 ISZERO PUSH2 0x411A JUMPI POP DUP1 MLOAD ISZERO DUP1 PUSH2 0x411A JUMPI POP DUP1 DUP1 PUSH1 0x20 ADD SWAP1 MLOAD DUP2 ADD SWAP1 PUSH2 0x411A SWAP2 SWAP1 PUSH2 0x47D7 JUMP JUMPDEST PUSH2 0x4150 JUMPI PUSH1 0x40 MLOAD PUSH32 0x8C379A000000000000000000000000000000000000000000000000000000000 DUP2 MSTORE PUSH1 0x4 ADD PUSH2 0x677 SWAP1 PUSH2 0x55E5 JUMP JUMPDEST POP POP POP POP POP POP JUMP JUMPDEST PUSH1 0x0 PUSH32 0x8CAD95687BA82C2CE50E74F7B754645E5117C3A5BEC8151C0726D5857980A866 PUSH32 0xD7DF266AFF736D415A9DC14B4158201D612E70D75B9C7F4E375CCFD20AA5166F DUP4 ADDRESS PUSH1 0x40 MLOAD PUSH1 0x20 ADD PUSH2 0x41B1 SWAP5 SWAP4 SWAP3 SWAP2 SWAP1 PUSH2 0x50BB JUMP JUMPDEST PUSH1 0x40 MLOAD PUSH1 0x20 DUP2 DUP4 SUB SUB DUP2 MSTORE SWAP1 PUSH1 0x40 MSTORE DUP1 MLOAD SWAP1 PUSH1 0x20 ADD KECCAK256 SWAP1 POP JUMPDEST SWAP2 SWAP1 POP JUMP JUMPDEST DUP1 DUP3 SUB PUSH16 0xFFFFFFFFFFFFFFFFFFFFFFFFFFFFFFFF DUP1 DUP5 AND SWAP1 DUP3 AND GT ISZERO PUSH2 0x3DE6 JUMPI PUSH1 0x40 MLOAD PUSH32 0x8C379A000000000000000000000000000000000000000000000000000000000 DUP2 MSTORE PUSH1 0x4 ADD PUSH2 0x677 SWAP1 PUSH2 0x5131 JUMP JUMPDEST PUSH1 0x0 DUP2 ISZERO DUP1 PUSH2 0x423C JUMPI POP POP DUP1 DUP3 MUL DUP3 DUP3 DUP3 DUP2 PUSH2 0x4239 JUMPI INVALID JUMPDEST DIV EQ JUMPDEST PUSH2 0x3DE6 JUMPI PUSH1 0x40 MLOAD PUSH32 0x8C379A000000000000000000000000000000000000000000000000000000000 DUP2 MSTORE PUSH1 0x4 ADD PUSH2 0x677 SWAP1 PUSH2 0x56F6 JUMP JUMPDEST PUSH1 0x0 PUSH1 0x60 DUP5 PUSH20 0xFFFFFFFFFFFFFFFFFFFFFFFFFFFFFFFFFFFFFFFF AND PUSH4 0xA9059CBB PUSH1 0xE0 SHL DUP6 DUP6 PUSH1 0x40 MLOAD PUSH1 0x24 ADD PUSH2 0x42A8 SWAP3 SWAP2 SWAP1 PUSH2 0x4FA6 JUMP JUMPDEST PUSH1 0x40 DUP1 MLOAD PUSH32 0xFFFFFFFFFFFFFFFFFFFFFFFFFFFFFFFFFFFFFFFFFFFFFFFFFFFFFFFFFFFFFFE0 DUP2 DUP5 SUB ADD DUP2 MSTORE SWAP2 DUP2 MSTORE PUSH1 0x20 DUP3 ADD DUP1 MLOAD PUSH28 0xFFFFFFFFFFFFFFFFFFFFFFFFFFFFFFFFFFFFFFFFFFFFFFFFFFFFFFFF AND PUSH32 0xFFFFFFFF00000000000000000000000000000000000000000000000000000000 SWAP1 SWAP5 AND SWAP4 SWAP1 SWAP4 OR SWAP1 SWAP3 MSTORE SWAP1 MLOAD PUSH2 0x4331 SWAP2 SWAP1 PUSH2 0x4D81 JUMP JUMPDEST PUSH1 0x0 PUSH1 0x40 MLOAD DUP1 DUP4 SUB DUP2 PUSH1 0x0 DUP7 GAS CALL SWAP2 POP POP RETURNDATASIZE DUP1 PUSH1 0x0 DUP2 EQ PUSH2 0x436E JUMPI PUSH1 0x40 MLOAD SWAP2 POP PUSH1 0x1F NOT PUSH1 0x3F RETURNDATASIZE ADD AND DUP3 ADD PUSH1 0x40 MSTORE RETURNDATASIZE DUP3 MSTORE RETURNDATASIZE PUSH1 0x0 PUSH1 0x20 DUP5 ADD RETURNDATACOPY PUSH2 0x4373 JUMP JUMPDEST PUSH1 0x60 SWAP2 POP JUMPDEST POP SWAP2 POP SWAP2 POP DUP2 DUP1 ISZERO PUSH2 0x439D JUMPI POP DUP1 MLOAD ISZERO DUP1 PUSH2 0x439D JUMPI POP DUP1 DUP1 PUSH1 0x20 ADD SWAP1 MLOAD DUP2 ADD SWAP1 PUSH2 0x439D SWAP2 SWAP1 PUSH2 0x47D7 JUMP JUMPDEST PUSH2 0x43D3 JUMPI PUSH1 0x40 MLOAD PUSH32 0x8C379A000000000000000000000000000000000000000000000000000000000 DUP2 MSTORE PUSH1 0x4 ADD PUSH2 0x677 SWAP1 PUSH2 0x520D JUMP JUMPDEST POP POP POP POP POP JUMP JUMPDEST PUSH1 0x0 PUSH8 0xFFFFFFFFFFFFFFFF DUP3 GT ISZERO PUSH2 0x3D90 JUMPI PUSH1 0x40 MLOAD PUSH32 0x8C379A000000000000000000000000000000000000000000000000000000000 DUP2 MSTORE PUSH1 0x4 ADD PUSH2 0x677 SWAP1 PUSH2 0x549D JUMP JUMPDEST PUSH1 0x0 PUSH2 0x4446 PUSH2 0x442C DUP4 PUSH2 0x3D44 JUMP JUMPDEST DUP5 SLOAD PUSH16 0xFFFFFFFFFFFFFFFFFFFFFFFFFFFFFFFF AND SWAP1 PUSH2 0x3D94 JUMP JUMPDEST DUP4 SLOAD PUSH32 0xFFFFFFFFFFFFFFFFFFFFFFFFFFFFFFFF00000000000000000000000000000000 AND PUSH16 0xFFFFFFFFFFFFFFFFFFFFFFFFFFFFFFFF SWAP2 SWAP1 SWAP2 AND SWAP1 DUP2 OR SWAP1 SWAP4 SSTORE POP SWAP1 SWAP2 SWAP1 POP JUMP JUMPDEST PUSH1 0x0 PUSH2 0x4446 PUSH2 0x449A DUP4 PUSH2 0x3D44 JUMP JUMPDEST DUP5 SLOAD PUSH16 0xFFFFFFFFFFFFFFFFFFFFFFFFFFFFFFFF AND SWAP1 PUSH2 0x41CF JUMP JUMPDEST PUSH1 0x60 PUSH1 0x44 DUP3 MLOAD LT ISZERO PUSH2 0x44FA JUMPI POP PUSH1 0x40 DUP1 MLOAD DUP1 DUP3 ADD SWAP1 SWAP2 MSTORE PUSH1 0x1D DUP2 MSTORE PUSH32 0x5472616E73616374696F6E2072657665727465642073696C656E746C79000000 PUSH1 0x20 DUP3 ADD MSTORE PUSH2 0x41CA JUMP JUMPDEST PUSH1 0x4 DUP3 ADD SWAP2 POP DUP2 DUP1 PUSH1 0x20 ADD SWAP1 MLOAD DUP2 ADD SWAP1 PUSH2 0x3DE6 SWAP2 SWAP1 PUSH2 0x4BCE JUMP JUMPDEST PUSH1 0x40 DUP1 MLOAD DUP1 DUP3 ADD SWAP1 SWAP2 MSTORE PUSH1 0x0 DUP1 DUP3 MSTORE PUSH1 0x20 DUP3 ADD MSTORE SWAP1 JUMP JUMPDEST PUSH1 0x40 DUP1 MLOAD PUSH1 0x60 DUP2 ADD DUP3 MSTORE PUSH1 0x0 DUP1 DUP3 MSTORE PUSH1 0x20 DUP3 ADD DUP2 SWAP1 MSTORE SWAP2 DUP2 ADD SWAP2 SWAP1 SWAP2 MSTORE SWAP1 JUMP JUMPDEST PUSH1 0x0 DUP1 DUP4 PUSH1 0x1F DUP5 ADD SLT PUSH2 0x455C JUMPI DUP2 DUP3 REVERT JUMPDEST POP DUP2 CALLDATALOAD PUSH8 0xFFFFFFFFFFFFFFFF DUP2 GT ISZERO PUSH2 0x4573 JUMPI DUP2 DUP3 REVERT JUMPDEST PUSH1 0x20 DUP4 ADD SWAP2 POP DUP4 PUSH1 0x20 DUP1 DUP4 MUL DUP6 ADD ADD GT ISZERO PUSH2 0x458D JUMPI PUSH1 0x0 DUP1 REVERT JUMPDEST SWAP3 POP SWAP3 SWAP1 POP JUMP JUMPDEST PUSH1 0x0 DUP1 DUP4 PUSH1 0x1F DUP5 ADD SLT PUSH2 0x45A5 JUMPI DUP2 DUP3 REVERT JUMPDEST POP DUP2 CALLDATALOAD PUSH8 0xFFFFFFFFFFFFFFFF DUP2 GT ISZERO PUSH2 0x45BC JUMPI DUP2 DUP3 REVERT JUMPDEST PUSH1 0x20 DUP4 ADD SWAP2 POP DUP4 PUSH1 0x20 DUP3 DUP6 ADD ADD GT ISZERO PUSH2 0x458D JUMPI PUSH1 0x0 DUP1 REVERT JUMPDEST DUP1 CALLDATALOAD PUSH2 0x3DE6 DUP2 PUSH2 0x58C6 JUMP JUMPDEST DUP1 CALLDATALOAD PUSH1 0xFF DUP2 AND DUP2 EQ PUSH2 0x3DE6 JUMPI PUSH1 0x0 DUP1 REVERT JUMPDEST PUSH1 0x0 PUSH1 0x20 DUP3 DUP5 SUB SLT ISZERO PUSH2 0x4601 JUMPI DUP1 DUP2 REVERT JUMPDEST DUP2 CALLDATALOAD PUSH2 0x3D3D DUP2 PUSH2 0x58C6 JUMP JUMPDEST PUSH1 0x0 DUP1 PUSH1 0x40 DUP4 DUP6 SUB SLT ISZERO PUSH2 0x461E JUMPI DUP1 DUP2 REVERT JUMPDEST DUP3 CALLDATALOAD PUSH2 0x4629 DUP2 PUSH2 0x58C6 JUMP JUMPDEST SWAP2 POP PUSH1 0x20 DUP4 ADD CALLDATALOAD PUSH2 0x4639 DUP2 PUSH2 0x58C6 JUMP JUMPDEST DUP1 SWAP2 POP POP SWAP3 POP SWAP3 SWAP1 POP JUMP JUMPDEST PUSH1 0x0 DUP1 PUSH1 0x0 DUP1 PUSH1 0x0 DUP1 PUSH1 0xC0 DUP8 DUP10 SUB SLT ISZERO PUSH2 0x465C JUMPI DUP2 DUP3 REVERT JUMPDEST DUP7 CALLDATALOAD PUSH2 0x4667 DUP2 PUSH2 0x58C6 JUMP JUMPDEST SWAP6 POP PUSH1 0x20 DUP8 ADD CALLDATALOAD PUSH2 0x4677 DUP2 PUSH2 0x58C6 JUMP JUMPDEST SWAP5 POP PUSH1 0x40 DUP8 ADD CALLDATALOAD PUSH2 0x4687 DUP2 PUSH2 0x58EB JUMP JUMPDEST SWAP4 POP PUSH2 0x4696 DUP9 PUSH1 0x60 DUP10 ADD PUSH2 0x45DF JUMP JUMPDEST SWAP3 POP PUSH1 0x80 DUP8 ADD CALLDATALOAD SWAP2 POP PUSH1 0xA0 DUP8 ADD CALLDATALOAD SWAP1 POP SWAP3 SWAP6 POP SWAP3 SWAP6 POP SWAP3 SWAP6 JUMP JUMPDEST PUSH1 0x0 DUP1 PUSH1 0x40 DUP4 DUP6 SUB SLT ISZERO PUSH2 0x46C2 JUMPI DUP2 DUP3 REVERT JUMPDEST DUP3 CALLDATALOAD PUSH2 0x46CD DUP2 PUSH2 0x58C6 JUMP JUMPDEST SWAP2 POP PUSH1 0x20 DUP4 ADD CALLDATALOAD PUSH2 0x4639 DUP2 PUSH2 0x58EB JUMP JUMPDEST PUSH1 0x0 DUP1 PUSH1 0x0 PUSH1 0x60 DUP5 DUP7 SUB SLT ISZERO PUSH2 0x46F1 JUMPI DUP3 DUP4 REVERT JUMPDEST DUP4 CALLDATALOAD PUSH2 0x46FC DUP2 PUSH2 0x58C6 JUMP JUMPDEST SWAP3 POP PUSH1 0x20 DUP5 ADD CALLDATALOAD PUSH2 0x470C DUP2 PUSH2 0x58EB JUMP JUMPDEST SWAP2 POP PUSH1 0x40 DUP5 ADD CALLDATALOAD PUSH2 0x471C DUP2 PUSH2 0x58EB JUMP JUMPDEST DUP1 SWAP2 POP POP SWAP3 POP SWAP3 POP SWAP3 JUMP JUMPDEST PUSH1 0x0 DUP1 PUSH1 0x0 DUP1 PUSH1 0x60 DUP6 DUP8 SUB SLT ISZERO PUSH2 0x473C JUMPI DUP4 DUP5 REVERT JUMPDEST DUP5 CALLDATALOAD PUSH2 0x4747 DUP2 PUSH2 0x58C6 JUMP JUMPDEST SWAP4 POP PUSH1 0x20 DUP6 ADD CALLDATALOAD PUSH8 0xFFFFFFFFFFFFFFFF DUP2 GT ISZERO PUSH2 0x4762 JUMPI DUP4 DUP5 REVERT JUMPDEST PUSH2 0x476E DUP8 DUP3 DUP9 ADD PUSH2 0x4594 JUMP JUMPDEST SWAP1 SWAP5 POP SWAP3 POP POP PUSH1 0x40 DUP6 ADD CALLDATALOAD PUSH2 0x4782 DUP2 PUSH2 0x58EB JUMP JUMPDEST SWAP4 SWAP7 SWAP3 SWAP6 POP SWAP1 SWAP4 POP POP JUMP JUMPDEST PUSH1 0x0 DUP1 PUSH1 0x0 PUSH1 0x40 DUP5 DUP7 SUB SLT ISZERO PUSH2 0x47A1 JUMPI DUP1 DUP2 REVERT JUMPDEST DUP4 CALLDATALOAD PUSH8 0xFFFFFFFFFFFFFFFF DUP2 GT ISZERO PUSH2 0x47B7 JUMPI DUP2 DUP3 REVERT JUMPDEST PUSH2 0x47C3 DUP7 DUP3 DUP8 ADD PUSH2 0x454B JUMP JUMPDEST SWAP1 SWAP5 POP SWAP3 POP POP PUSH1 0x20 DUP5 ADD CALLDATALOAD PUSH2 0x471C DUP2 PUSH2 0x58EB JUMP JUMPDEST PUSH1 0x0 PUSH1 0x20 DUP3 DUP5 SUB SLT ISZERO PUSH2 0x47E8 JUMPI DUP1 DUP2 REVERT JUMPDEST DUP2 MLOAD PUSH2 0x3D3D DUP2 PUSH2 0x58EB JUMP JUMPDEST PUSH1 0x0 DUP1 PUSH1 0x0 DUP1 PUSH1 0x0 DUP1 PUSH1 0x0 DUP1 PUSH1 0x0 PUSH1 0xA0 DUP11 DUP13 SUB SLT ISZERO PUSH2 0x4810 JUMPI DUP7 DUP8 REVERT JUMPDEST DUP10 CALLDATALOAD PUSH2 0x481B DUP2 PUSH2 0x58C6 JUMP JUMPDEST SWAP9 POP PUSH1 0x20 DUP11 ADD CALLDATALOAD PUSH8 0xFFFFFFFFFFFFFFFF DUP1 DUP3 GT ISZERO PUSH2 0x4837 JUMPI DUP9 DUP10 REVERT JUMPDEST PUSH2 0x4843 DUP14 DUP4 DUP15 ADD PUSH2 0x454B JUMP JUMPDEST SWAP1 SWAP11 POP SWAP9 POP PUSH1 0x40 DUP13 ADD CALLDATALOAD SWAP2 POP DUP1 DUP3 GT ISZERO PUSH2 0x485B JUMPI DUP5 DUP6 REVERT JUMPDEST PUSH2 0x4867 DUP14 DUP4 DUP15 ADD PUSH2 0x454B JUMP JUMPDEST SWAP1 SWAP9 POP SWAP7 POP PUSH1 0x60 DUP13 ADD CALLDATALOAD SWAP2 POP DUP1 DUP3 GT ISZERO PUSH2 0x487F JUMPI DUP5 DUP6 REVERT JUMPDEST PUSH2 0x488B DUP14 DUP4 DUP15 ADD PUSH2 0x454B JUMP JUMPDEST SWAP1 SWAP7 POP SWAP5 POP PUSH1 0x80 DUP13 ADD CALLDATALOAD SWAP2 POP DUP1 DUP3 GT ISZERO PUSH2 0x48A3 JUMPI DUP4 DUP5 REVERT JUMPDEST POP PUSH2 0x48B0 DUP13 DUP3 DUP14 ADD PUSH2 0x4594 JUMP JUMPDEST SWAP2 POP DUP1 SWAP4 POP POP DUP1 SWAP2 POP POP SWAP3 SWAP6 SWAP9 POP SWAP3 SWAP6 SWAP9 POP SWAP3 SWAP6 SWAP9 JUMP JUMPDEST PUSH1 0x0 DUP1 PUSH1 0x40 DUP4 DUP6 SUB SLT ISZERO PUSH2 0x461E JUMPI DUP2 DUP3 REVERT JUMPDEST PUSH1 0x0 DUP1 PUSH1 0x0 DUP1 PUSH1 0x80 DUP6 DUP8 SUB SLT ISZERO PUSH2 0x48EE JUMPI DUP2 DUP3 REVERT JUMPDEST DUP5 CALLDATALOAD PUSH2 0x48F9 DUP2 PUSH2 0x58C6 JUMP JUMPDEST SWAP4 POP PUSH1 0x20 DUP6 ADD CALLDATALOAD PUSH2 0x4909 DUP2 PUSH2 0x58C6 JUMP JUMPDEST SWAP3 POP PUSH1 0x40 DUP6 ADD CALLDATALOAD PUSH2 0x4919 DUP2 PUSH2 0x58C6 JUMP JUMPDEST SWAP4 SWAP7 SWAP3 SWAP6 POP SWAP3 SWAP4 PUSH1 0x60 ADD CALLDATALOAD SWAP3 POP POP JUMP JUMPDEST PUSH1 0x0 DUP1 PUSH1 0x0 DUP1 PUSH1 0x0 PUSH1 0xA0 DUP7 DUP9 SUB SLT ISZERO PUSH2 0x4940 JUMPI DUP3 DUP4 REVERT JUMPDEST DUP6 CALLDATALOAD PUSH2 0x494B DUP2 PUSH2 0x58C6 JUMP JUMPDEST SWAP5 POP PUSH1 0x20 DUP7 ADD CALLDATALOAD PUSH2 0x495B DUP2 PUSH2 0x58C6 JUMP JUMPDEST SWAP4 POP PUSH1 0x40 DUP7 ADD CALLDATALOAD PUSH2 0x496B DUP2 PUSH2 0x58C6 JUMP JUMPDEST SWAP5 SWAP8 SWAP4 SWAP7 POP SWAP4 SWAP5 PUSH1 0x60 DUP2 ADD CALLDATALOAD SWAP5 POP PUSH1 0x80 ADD CALLDATALOAD SWAP3 SWAP2 POP POP JUMP JUMPDEST PUSH1 0x0 DUP1 PUSH1 0x0 DUP1 PUSH1 0x0 DUP1 PUSH1 0x0 DUP1 PUSH2 0x100 DUP10 DUP12 SUB SLT ISZERO PUSH2 0x499F JUMPI DUP2 DUP3 REVERT JUMPDEST DUP9 CALLDATALOAD PUSH2 0x49AA DUP2 PUSH2 0x58C6 JUMP JUMPDEST SWAP8 POP PUSH1 0x20 DUP10 ADD CALLDATALOAD PUSH2 0x49BA DUP2 PUSH2 0x58C6 JUMP JUMPDEST SWAP7 POP PUSH1 0x40 DUP10 ADD CALLDATALOAD PUSH2 0x49CA DUP2 PUSH2 0x58C6 JUMP JUMPDEST SWAP6 POP PUSH1 0x60 DUP10 ADD CALLDATALOAD SWAP5 POP PUSH1 0x80 DUP10 ADD CALLDATALOAD SWAP4 POP PUSH2 0x49E7 DUP11 PUSH1 0xA0 DUP12 ADD PUSH2 0x45DF JUMP JUMPDEST SWAP3 POP PUSH1 0xC0 DUP10 ADD CALLDATALOAD SWAP2 POP PUSH1 0xE0 DUP10 ADD CALLDATALOAD SWAP1 POP SWAP3 SWAP6 SWAP9 POP SWAP3 SWAP6 SWAP9 SWAP1 SWAP4 SWAP7 POP JUMP JUMPDEST PUSH1 0x0 DUP1 PUSH1 0x0 DUP1 PUSH1 0x0 DUP1 PUSH1 0x80 DUP8 DUP10 SUB SLT ISZERO PUSH2 0x4A1C JUMPI DUP4 DUP5 REVERT JUMPDEST DUP7 CALLDATALOAD PUSH2 0x4A27 DUP2 PUSH2 0x58C6 JUMP JUMPDEST SWAP6 POP PUSH1 0x20 DUP8 ADD CALLDATALOAD PUSH2 0x4A37 DUP2 PUSH2 0x58C6 JUMP JUMPDEST SWAP5 POP PUSH1 0x40 DUP8 ADD CALLDATALOAD PUSH8 0xFFFFFFFFFFFFFFFF DUP1 DUP3 GT ISZERO PUSH2 0x4A53 JUMPI DUP6 DUP7 REVERT JUMPDEST PUSH2 0x4A5F DUP11 DUP4 DUP12 ADD PUSH2 0x454B JUMP JUMPDEST SWAP1 SWAP7 POP SWAP5 POP PUSH1 0x60 DUP10 ADD CALLDATALOAD SWAP2 POP DUP1 DUP3 GT ISZERO PUSH2 0x4A77 JUMPI DUP4 DUP5 REVERT JUMPDEST POP PUSH2 0x4A84 DUP10 DUP3 DUP11 ADD PUSH2 0x454B JUMP JUMPDEST SWAP8 SWAP11 SWAP7 SWAP10 POP SWAP5 SWAP8 POP SWAP3 SWAP6 SWAP4 SWAP5 SWAP3 POP POP POP JUMP JUMPDEST PUSH1 0x0 DUP1 PUSH1 0x0 PUSH1 0x60 DUP5 DUP7 SUB SLT ISZERO PUSH2 0x4AAA JUMPI DUP1 DUP2 REVERT JUMPDEST DUP4 CALLDATALOAD PUSH2 0x4AB5 DUP2 PUSH2 0x58C6 JUMP JUMPDEST SWAP3 POP PUSH1 0x20 DUP5 ADD CALLDATALOAD PUSH2 0x4AC5 DUP2 PUSH2 0x58EB JUMP JUMPDEST SWAP3 SWAP6 SWAP3 SWAP5 POP POP POP PUSH1 0x40 SWAP2 SWAP1 SWAP2 ADD CALLDATALOAD SWAP1 JUMP JUMPDEST PUSH1 0x0 DUP1 PUSH1 0x0 PUSH1 0x60 DUP5 DUP7 SUB SLT ISZERO PUSH2 0x4AEA JUMPI DUP1 DUP2 REVERT JUMPDEST DUP4 CALLDATALOAD PUSH2 0x4AF5 DUP2 PUSH2 0x58C6 JUMP JUMPDEST SWAP3 POP PUSH1 0x20 DUP5 ADD CALLDATALOAD SWAP2 POP PUSH1 0x40 DUP5 ADD CALLDATALOAD PUSH2 0x471C DUP2 PUSH2 0x58EB JUMP JUMPDEST PUSH1 0x0 DUP1 PUSH1 0x40 DUP4 DUP6 SUB SLT ISZERO PUSH2 0x4B1E JUMPI DUP2 DUP3 REVERT JUMPDEST DUP3 CALLDATALOAD PUSH2 0x4B29 DUP2 PUSH2 0x58C6 JUMP JUMPDEST SWAP2 POP PUSH1 0x20 DUP4 ADD CALLDATALOAD PUSH8 0xFFFFFFFFFFFFFFFF DUP2 AND DUP2 EQ PUSH2 0x4639 JUMPI DUP2 DUP3 REVERT JUMPDEST PUSH1 0x0 DUP1 PUSH1 0x0 DUP1 PUSH1 0x0 DUP1 PUSH1 0xA0 DUP8 DUP10 SUB SLT ISZERO PUSH2 0x4B5D JUMPI DUP4 DUP5 REVERT JUMPDEST DUP7 CALLDATALOAD PUSH2 0x4B68 DUP2 PUSH2 0x58C6 JUMP JUMPDEST SWAP6 POP PUSH1 0x20 DUP8 ADD CALLDATALOAD PUSH2 0x4B78 DUP2 PUSH2 0x58C6 JUMP JUMPDEST SWAP5 POP PUSH1 0x40 DUP8 ADD CALLDATALOAD PUSH2 0x4B88 DUP2 PUSH2 0x58C6 JUMP JUMPDEST SWAP4 POP PUSH1 0x60 DUP8 ADD CALLDATALOAD SWAP3 POP PUSH1 0x80 DUP8 ADD CALLDATALOAD PUSH8 0xFFFFFFFFFFFFFFFF DUP2 GT ISZERO PUSH2 0x4BAA JUMPI DUP3 DUP4 REVERT JUMPDEST PUSH2 0x4A84 DUP10 DUP3 DUP11 ADD PUSH2 0x4594 JUMP JUMPDEST PUSH1 0x0 PUSH1 0x20 DUP3 DUP5 SUB SLT ISZERO PUSH2 0x4BC7 JUMPI DUP1 DUP2 REVERT JUMPDEST POP MLOAD SWAP2 SWAP1 POP JUMP JUMPDEST PUSH1 0x0 PUSH1 0x20 DUP3 DUP5 SUB SLT ISZERO PUSH2 0x4BDF JUMPI DUP1 DUP2 REVERT JUMPDEST DUP2 MLOAD PUSH8 0xFFFFFFFFFFFFFFFF DUP1 DUP3 GT ISZERO PUSH2 0x4BF6 JUMPI DUP3 DUP4 REVERT JUMPDEST DUP2 DUP5 ADD SWAP2 POP DUP5 PUSH1 0x1F DUP4 ADD SLT PUSH2 0x4C09 JUMPI DUP3 DUP4 REVERT JUMPDEST DUP2 MLOAD DUP2 DUP2 GT ISZERO PUSH2 0x4C17 JUMPI DUP4 DUP5 REVERT JUMPDEST PUSH1 0x40 MLOAD PUSH1 0x20 PUSH32 0xFFFFFFFFFFFFFFFFFFFFFFFFFFFFFFFFFFFFFFFFFFFFFFFFFFFFFFFFFFFFFFE0 PUSH1 0x1F DUP5 ADD AND DUP3 ADD ADD DUP2 DUP2 LT DUP5 DUP3 GT OR ISZERO PUSH2 0x4C55 JUMPI DUP6 DUP7 REVERT JUMPDEST PUSH1 0x40 MSTORE DUP2 DUP2 MSTORE DUP4 DUP3 ADD PUSH1 0x20 ADD DUP8 LT ISZERO PUSH2 0x4C6C JUMPI DUP5 DUP6 REVERT JUMPDEST PUSH2 0x4C7D DUP3 PUSH1 0x20 DUP4 ADD PUSH1 0x20 DUP8 ADD PUSH2 0x5896 JUMP JUMPDEST SWAP7 SWAP6 POP POP POP POP POP POP JUMP JUMPDEST PUSH20 0xFFFFFFFFFFFFFFFFFFFFFFFFFFFFFFFFFFFFFFFF AND DUP2 MSTORE PUSH1 0x20 ADD SWAP1 JUMP JUMPDEST PUSH1 0x0 DUP2 MLOAD DUP1 DUP5 MSTORE PUSH1 0x20 DUP1 DUP6 ADD SWAP5 POP DUP1 DUP5 ADD DUP4 JUMPDEST DUP4 DUP2 LT ISZERO PUSH2 0x4CD4 JUMPI DUP2 MLOAD DUP8 MSTORE SWAP6 DUP3 ADD SWAP6 SWAP1 DUP3 ADD SWAP1 PUSH1 0x1 ADD PUSH2 0x4CB8 JUMP JUMPDEST POP SWAP5 SWAP6 SWAP5 POP POP POP POP POP JUMP JUMPDEST PUSH1 0x0 DUP3 DUP5 MSTORE DUP3 DUP3 PUSH1 0x20 DUP7 ADD CALLDATACOPY DUP1 PUSH1 0x20 DUP5 DUP7 ADD ADD MSTORE PUSH1 0x20 PUSH32 0xFFFFFFFFFFFFFFFFFFFFFFFFFFFFFFFFFFFFFFFFFFFFFFFFFFFFFFFFFFFFFFE0 PUSH1 0x1F DUP6 ADD AND DUP6 ADD ADD SWAP1 POP SWAP4 SWAP3 POP POP POP JUMP JUMPDEST PUSH1 0x0 DUP2 MLOAD DUP1 DUP5 MSTORE PUSH2 0x4D3F DUP2 PUSH1 0x20 DUP7 ADD PUSH1 0x20 DUP7 ADD PUSH2 0x5896 JUMP JUMPDEST PUSH1 0x1F ADD PUSH32 0xFFFFFFFFFFFFFFFFFFFFFFFFFFFFFFFFFFFFFFFFFFFFFFFFFFFFFFFFFFFFFFE0 AND SWAP3 SWAP1 SWAP3 ADD PUSH1 0x20 ADD SWAP3 SWAP2 POP POP JUMP JUMPDEST PUSH1 0x0 DUP3 DUP5 DUP4 CALLDATACOPY SWAP2 ADD SWAP1 DUP2 MSTORE SWAP2 SWAP1 POP JUMP JUMPDEST PUSH1 0x0 DUP3 MLOAD PUSH2 0x4D93 DUP2 DUP5 PUSH1 0x20 DUP8 ADD PUSH2 0x5896 JUMP JUMPDEST SWAP2 SWAP1 SWAP2 ADD SWAP3 SWAP2 POP POP JUMP JUMPDEST PUSH1 0x0 DUP5 MLOAD PUSH2 0x4DAF DUP2 DUP5 PUSH1 0x20 DUP10 ADD PUSH2 0x5896 JUMP JUMPDEST SWAP2 SWAP1 SWAP2 ADD SWAP3 DUP4 MSTORE POP PUSH1 0x20 DUP3 ADD MSTORE PUSH1 0x40 ADD SWAP2 SWAP1 POP JUMP JUMPDEST SWAP1 JUMP JUMPDEST PUSH20 0xFFFFFFFFFFFFFFFFFFFFFFFFFFFFFFFFFFFFFFFF SWAP2 SWAP1 SWAP2 AND DUP2 MSTORE PUSH1 0x20 ADD SWAP1 JUMP JUMPDEST PUSH1 0x0 PUSH1 0xA0 DUP3 ADD PUSH20 0xFFFFFFFFFFFFFFFFFFFFFFFFFFFFFFFFFFFFFFFF DUP12 AND DUP4 MSTORE PUSH1 0x20 PUSH1 0xA0 DUP2 DUP6 ADD MSTORE DUP2 PUSH2 0x4E1A DUP12 DUP5 PUSH2 0x5071 JUMP JUMPDEST SWAP1 POP DUP12 SWAP3 POP DUP4 JUMPDEST DUP12 DUP2 LT ISZERO PUSH2 0x4E4C JUMPI DUP3 DUP5 ADD PUSH2 0x4E3F DUP4 PUSH2 0x4E3A DUP4 DUP9 PUSH2 0x45D4 JUMP JUMPDEST PUSH2 0x4C87 JUMP JUMPDEST SWAP1 SWAP5 POP SWAP2 POP PUSH1 0x1 ADD PUSH2 0x4E21 JUMP JUMPDEST POP DUP5 DUP2 SUB PUSH1 0x40 DUP7 ADD MSTORE DUP9 DUP2 MSTORE PUSH32 0x7FFFFFFFFFFFFFFFFFFFFFFFFFFFFFFFFFFFFFFFFFFFFFFFFFFFFFFFFFFFFFF DUP10 GT ISZERO PUSH2 0x4E84 JUMPI DUP4 DUP5 REVERT JUMPDEST DUP2 DUP10 MUL SWAP3 POP DUP3 DUP11 DUP4 DUP4 ADD CALLDATACOPY DUP3 DUP2 ADD SWAP3 POP POP DUP1 DUP3 ADD DUP4 DUP2 MSTORE DUP2 DUP6 DUP5 SUB ADD PUSH1 0x60 DUP7 ADD MSTORE PUSH2 0x4EAF DUP2 DUP10 PUSH2 0x4CA5 JUMP JUMPDEST SWAP3 POP POP POP DUP3 DUP2 SUB PUSH1 0x80 DUP5 ADD MSTORE PUSH2 0x4EC6 DUP2 DUP6 DUP8 PUSH2 0x4CDF JUMP JUMPDEST SWAP12 SWAP11 POP POP POP POP POP POP POP POP POP POP POP JUMP JUMPDEST PUSH1 0x0 PUSH20 0xFFFFFFFFFFFFFFFFFFFFFFFFFFFFFFFFFFFFFFFF DUP1 DUP10 AND DUP4 MSTORE DUP1 DUP9 AND PUSH1 0x20 DUP5 ADD MSTORE POP DUP6 PUSH1 0x40 DUP4 ADD MSTORE DUP5 PUSH1 0x60 DUP4 ADD MSTORE PUSH1 0xA0 PUSH1 0x80 DUP4 ADD MSTORE PUSH2 0x4F1B PUSH1 0xA0 DUP4 ADD DUP5 DUP7 PUSH2 0x4CDF JUMP JUMPDEST SWAP9 SWAP8 POP POP POP POP POP POP POP POP JUMP JUMPDEST PUSH20 0xFFFFFFFFFFFFFFFFFFFFFFFFFFFFFFFFFFFFFFFF SWAP4 DUP5 AND DUP2 MSTORE SWAP2 SWAP1 SWAP3 AND PUSH1 0x20 DUP3 ADD MSTORE PUSH1 0x40 DUP2 ADD SWAP2 SWAP1 SWAP2 MSTORE PUSH1 0x60 ADD SWAP1 JUMP JUMPDEST PUSH20 0xFFFFFFFFFFFFFFFFFFFFFFFFFFFFFFFFFFFFFFFF SWAP8 DUP9 AND DUP2 MSTORE SWAP6 SWAP1 SWAP7 AND PUSH1 0x20 DUP7 ADD MSTORE PUSH1 0x40 DUP6 ADD SWAP4 SWAP1 SWAP4 MSTORE PUSH1 0x60 DUP5 ADD SWAP2 SWAP1 SWAP2 MSTORE PUSH1 0xFF AND PUSH1 0x80 DUP4 ADD MSTORE PUSH1 0xA0 DUP3 ADD MSTORE PUSH1 0xC0 DUP2 ADD SWAP2 SWAP1 SWAP2 MSTORE PUSH1 0xE0 ADD SWAP1 JUMP JUMPDEST PUSH20 0xFFFFFFFFFFFFFFFFFFFFFFFFFFFFFFFFFFFFFFFF SWAP3 SWAP1 SWAP3 AND DUP3 MSTORE PUSH1 0x20 DUP3 ADD MSTORE PUSH1 0x40 ADD SWAP1 JUMP JUMPDEST PUSH1 0x40 DUP1 DUP3 MSTORE DUP4 MLOAD SWAP1 DUP3 ADD DUP2 SWAP1 MSTORE PUSH1 0x0 SWAP1 PUSH1 0x20 SWAP1 PUSH1 0x60 DUP5 ADD SWAP1 DUP3 DUP8 ADD DUP5 JUMPDEST DUP3 DUP2 LT ISZERO PUSH2 0x5007 JUMPI DUP2 MLOAD ISZERO ISZERO DUP5 MSTORE SWAP3 DUP5 ADD SWAP3 SWAP1 DUP5 ADD SWAP1 PUSH1 0x1 ADD PUSH2 0x4FE9 JUMP JUMPDEST POP POP POP DUP4 DUP2 SUB DUP3 DUP6 ADD MSTORE DUP1 DUP6 MLOAD PUSH2 0x501E DUP2 DUP5 PUSH2 0x5071 JUMP JUMPDEST SWAP2 POP DUP2 SWAP3 POP DUP4 DUP2 MUL DUP3 ADD DUP5 DUP9 ADD DUP7 JUMPDEST DUP4 DUP2 LT ISZERO PUSH2 0x5057 JUMPI DUP6 DUP4 SUB DUP6 MSTORE PUSH2 0x5045 DUP4 DUP4 MLOAD PUSH2 0x4D27 JUMP JUMPDEST SWAP5 DUP8 ADD SWAP5 SWAP3 POP SWAP1 DUP7 ADD SWAP1 PUSH1 0x1 ADD PUSH2 0x502D JUMP JUMPDEST POP SWAP1 SWAP10 SWAP9 POP POP POP POP POP POP POP POP POP JUMP JUMPDEST SWAP1 ISZERO ISZERO DUP2 MSTORE PUSH1 0x20 ADD SWAP1 JUMP JUMPDEST SWAP1 DUP2 MSTORE PUSH1 0x20 ADD SWAP1 JUMP JUMPDEST SWAP6 DUP7 MSTORE PUSH1 0x20 DUP7 ADD SWAP5 SWAP1 SWAP5 MSTORE PUSH20 0xFFFFFFFFFFFFFFFFFFFFFFFFFFFFFFFFFFFFFFFF SWAP3 DUP4 AND PUSH1 0x40 DUP7 ADD MSTORE SWAP2 AND PUSH1 0x60 DUP5 ADD MSTORE ISZERO ISZERO PUSH1 0x80 DUP4 ADD MSTORE PUSH1 0xA0 DUP3 ADD MSTORE PUSH1 0xC0 ADD SWAP1 JUMP JUMPDEST SWAP4 DUP5 MSTORE PUSH1 0x20 DUP5 ADD SWAP3 SWAP1 SWAP3 MSTORE PUSH1 0x40 DUP4 ADD MSTORE PUSH20 0xFFFFFFFFFFFFFFFFFFFFFFFFFFFFFFFFFFFFFFFF AND PUSH1 0x60 DUP3 ADD MSTORE PUSH1 0x80 ADD SWAP1 JUMP JUMPDEST SWAP4 DUP5 MSTORE PUSH1 0xFF SWAP3 SWAP1 SWAP3 AND PUSH1 0x20 DUP5 ADD MSTORE PUSH1 0x40 DUP4 ADD MSTORE PUSH1 0x60 DUP3 ADD MSTORE PUSH1 0x80 ADD SWAP1 JUMP JUMPDEST PUSH1 0x0 PUSH1 0x20 DUP3 MSTORE PUSH2 0x17CC PUSH1 0x20 DUP4 ADD DUP5 DUP7 PUSH2 0x4CDF JUMP JUMPDEST PUSH1 0x0 PUSH1 0x20 DUP3 MSTORE PUSH2 0x3D3D PUSH1 0x20 DUP4 ADD DUP5 PUSH2 0x4D27 JUMP JUMPDEST PUSH1 0x20 DUP1 DUP3 MSTORE PUSH1 0x15 SWAP1 DUP3 ADD MSTORE PUSH32 0x426F72696E674D6174683A20556E646572666C6F770000000000000000000000 PUSH1 0x40 DUP3 ADD MSTORE PUSH1 0x60 ADD SWAP1 JUMP JUMPDEST PUSH1 0x20 DUP1 DUP3 MSTORE PUSH1 0x17 SWAP1 DUP3 ADD MSTORE PUSH32 0x42656E746F426F783A20536B696D20746F6F206D756368000000000000000000 PUSH1 0x40 DUP3 ADD MSTORE PUSH1 0x60 ADD SWAP1 JUMP JUMPDEST PUSH1 0x20 DUP1 DUP3 MSTORE PUSH1 0x1C SWAP1 DUP3 ADD MSTORE PUSH32 0x4D6173746572434D67723A2043616E6E6F7420617070726F7665203000000000 PUSH1 0x40 DUP3 ADD MSTORE PUSH1 0x60 ADD SWAP1 JUMP JUMPDEST PUSH1 0x20 DUP1 DUP3 MSTORE PUSH1 0x1B SWAP1 DUP3 ADD MSTORE PUSH32 0x4D6173746572434D67723A2075736572206E6F742073656E6465720000000000 PUSH1 0x40 DUP3 ADD MSTORE PUSH1 0x60 ADD SWAP1 JUMP JUMPDEST PUSH1 0x20 DUP1 DUP3 MSTORE PUSH1 0x1C SWAP1 DUP3 ADD MSTORE PUSH32 0x426F72696E6745524332303A205472616E73666572206661696C656400000000 PUSH1 0x40 DUP3 ADD MSTORE PUSH1 0x60 ADD SWAP1 JUMP JUMPDEST PUSH1 0x20 DUP1 DUP3 MSTORE PUSH1 0x16 SWAP1 DUP3 ADD MSTORE PUSH32 0x42656E746F426F783A2063616E6E6F7420656D70747900000000000000000000 PUSH1 0x40 DUP3 ADD MSTORE PUSH1 0x60 ADD SWAP1 JUMP JUMPDEST PUSH1 0x20 DUP1 DUP3 MSTORE PUSH1 0x15 SWAP1 DUP3 ADD MSTORE PUSH32 0x4F776E61626C653A207A65726F20616464726573730000000000000000000000 PUSH1 0x40 DUP3 ADD MSTORE PUSH1 0x60 ADD SWAP1 JUMP JUMPDEST PUSH1 0x20 DUP1 DUP3 MSTORE PUSH1 0x13 SWAP1 DUP3 ADD MSTORE PUSH32 0x42656E746F426F783A204E6F20746F6B656E7300000000000000000000000000 PUSH1 0x40 DUP3 ADD MSTORE PUSH1 0x60 ADD SWAP1 JUMP JUMPDEST PUSH1 0x20 DUP1 DUP3 MSTORE PUSH1 0x1C SWAP1 DUP3 ADD MSTORE PUSH32 0x426F72696E674D6174683A2075696E74313238204F766572666C6F7700000000 PUSH1 0x40 DUP3 ADD MSTORE PUSH1 0x60 ADD SWAP1 JUMP JUMPDEST PUSH1 0x20 DUP1 DUP3 MSTORE PUSH1 0x18 SWAP1 DUP3 ADD MSTORE PUSH32 0x426F72696E674D6174683A20416464204F766572666C6F770000000000000000 PUSH1 0x40 DUP3 ADD MSTORE PUSH1 0x60 ADD SWAP1 JUMP JUMPDEST PUSH1 0x20 DUP1 DUP3 MSTORE PUSH1 0x17 SWAP1 DUP3 ADD MSTORE PUSH32 0x42656E746F426F783A20746F5B305D206E6F7420736574000000000000000000 PUSH1 0x40 DUP3 ADD MSTORE PUSH1 0x60 ADD SWAP1 JUMP JUMPDEST PUSH1 0x20 DUP1 DUP3 MSTORE PUSH1 0x14 SWAP1 DUP3 ADD MSTORE PUSH32 0x42656E746F426F783A20746F206E6F7420736574000000000000000000000000 PUSH1 0x40 DUP3 ADD MSTORE PUSH1 0x60 ADD SWAP1 JUMP JUMPDEST PUSH1 0x20 DUP1 DUP3 MSTORE PUSH1 0x1A SWAP1 DUP3 ADD MSTORE PUSH32 0x53747261746567794D616E616765723A20546F6F206561726C79000000000000 PUSH1 0x40 DUP3 ADD MSTORE PUSH1 0x60 ADD SWAP1 JUMP JUMPDEST PUSH1 0x20 DUP1 DUP3 MSTORE DUP2 DUP2 ADD MSTORE PUSH32 0x4F776E61626C653A2063616C6C6572206973206E6F7420746865206F776E6572 PUSH1 0x40 DUP3 ADD MSTORE PUSH1 0x60 ADD SWAP1 JUMP JUMPDEST PUSH1 0x20 DUP1 DUP3 MSTORE PUSH1 0x1F SWAP1 DUP3 ADD MSTORE PUSH32 0x42656E746F426F783A205472616E73666572206E6F7420617070726F76656400 PUSH1 0x40 DUP3 ADD MSTORE PUSH1 0x60 ADD SWAP1 JUMP JUMPDEST PUSH1 0x20 DUP1 DUP3 MSTORE DUP2 DUP2 ADD MSTORE PUSH32 0x4F776E61626C653A2063616C6C657220213D2070656E64696E67206F776E6572 PUSH1 0x40 DUP3 ADD MSTORE PUSH1 0x60 ADD SWAP1 JUMP JUMPDEST PUSH1 0x20 DUP1 DUP3 MSTORE PUSH1 0x1B SWAP1 DUP3 ADD MSTORE PUSH32 0x426F72696E674D6174683A2075696E743634204F766572666C6F770000000000 PUSH1 0x40 DUP3 ADD MSTORE PUSH1 0x60 ADD SWAP1 JUMP JUMPDEST PUSH1 0x20 DUP1 DUP3 MSTORE PUSH1 0x19 SWAP1 DUP3 ADD MSTORE PUSH32 0x4D6173746572434D67723A207573657220697320636C6F6E6500000000000000 PUSH1 0x40 DUP3 ADD MSTORE PUSH1 0x60 ADD SWAP1 JUMP JUMPDEST PUSH1 0x20 DUP1 DUP3 MSTORE PUSH1 0x1D SWAP1 DUP3 ADD MSTORE PUSH32 0x4D6173746572434D67723A20496E76616C6964205369676E6174757265000000 PUSH1 0x40 DUP3 ADD MSTORE PUSH1 0x60 ADD SWAP1 JUMP JUMPDEST PUSH1 0x20 DUP1 DUP3 MSTORE DUP2 DUP2 ADD MSTORE PUSH32 0x426F72696E67466163746F72793A204E6F206D6173746572436F6E7472616374 PUSH1 0x40 DUP3 ADD MSTORE PUSH1 0x60 ADD SWAP1 JUMP JUMPDEST PUSH1 0x20 DUP1 DUP3 MSTORE PUSH1 0x1B SWAP1 DUP3 ADD MSTORE PUSH32 0x4D6173746572434D67723A206D617374657243206E6F74207365740000000000 PUSH1 0x40 DUP3 ADD MSTORE PUSH1 0x60 ADD SWAP1 JUMP JUMPDEST PUSH1 0x20 DUP1 DUP3 MSTORE PUSH1 0x1B SWAP1 DUP3 ADD MSTORE PUSH32 0x42656E746F426F783A206E6F206D6173746572436F6E74726163740000000000 PUSH1 0x40 DUP3 ADD MSTORE PUSH1 0x60 ADD SWAP1 JUMP JUMPDEST PUSH1 0x20 DUP1 DUP3 MSTORE DUP2 DUP2 ADD MSTORE PUSH32 0x426F72696E6745524332303A205472616E7366657246726F6D206661696C6564 PUSH1 0x40 DUP3 ADD MSTORE PUSH1 0x60 ADD SWAP1 JUMP JUMPDEST PUSH1 0x20 DUP1 DUP3 MSTORE PUSH1 0x1C SWAP1 DUP3 ADD MSTORE PUSH32 0x4D6173746572434D67723A20557365722063616E6E6F74206265203000000000 PUSH1 0x40 DUP3 ADD MSTORE PUSH1 0x60 ADD SWAP1 JUMP JUMPDEST PUSH1 0x20 DUP1 DUP3 MSTORE PUSH1 0x16 SWAP1 DUP3 ADD MSTORE PUSH32 0x42656E746F426F783A2057726F6E6720616D6F756E7400000000000000000000 PUSH1 0x40 DUP3 ADD MSTORE PUSH1 0x60 ADD SWAP1 JUMP JUMPDEST PUSH1 0x20 DUP1 DUP3 MSTORE PUSH1 0x1B SWAP1 DUP3 ADD MSTORE PUSH32 0x4D6173746572434D67723A206E6F742077686974656C69737465640000000000 PUSH1 0x40 DUP3 ADD MSTORE PUSH1 0x60 ADD SWAP1 JUMP JUMPDEST PUSH1 0x20 DUP1 DUP3 MSTORE PUSH1 0x1D SWAP1 DUP3 ADD MSTORE PUSH32 0x42656E746F426F783A20455448207472616E73666572206661696C6564000000 PUSH1 0x40 DUP3 ADD MSTORE PUSH1 0x60 ADD SWAP1 JUMP JUMPDEST PUSH1 0x20 DUP1 DUP3 MSTORE PUSH1 0x18 SWAP1 DUP3 ADD MSTORE PUSH32 0x426F72696E674D6174683A204D756C204F766572666C6F770000000000000000 PUSH1 0x40 DUP3 ADD MSTORE PUSH1 0x60 ADD SWAP1 JUMP JUMPDEST PUSH1 0x20 DUP1 DUP3 MSTORE DUP2 DUP2 ADD MSTORE PUSH32 0x53747261746567794D616E616765723A2054617267657420746F6F2068696768 PUSH1 0x40 DUP3 ADD MSTORE PUSH1 0x60 ADD SWAP1 JUMP JUMPDEST PUSH16 0xFFFFFFFFFFFFFFFFFFFFFFFFFFFFFFFF SWAP2 SWAP1 SWAP2 AND DUP2 MSTORE PUSH1 0x20 ADD SWAP1 JUMP JUMPDEST PUSH16 0xFFFFFFFFFFFFFFFFFFFFFFFFFFFFFFFF SWAP3 SWAP1 SWAP3 AND DUP3 MSTORE PUSH20 0xFFFFFFFFFFFFFFFFFFFFFFFFFFFFFFFFFFFFFFFF AND PUSH1 0x20 DUP3 ADD MSTORE PUSH1 0x40 ADD SWAP1 JUMP JUMPDEST PUSH16 0xFFFFFFFFFFFFFFFFFFFFFFFFFFFFFFFF SWAP3 DUP4 AND DUP2 MSTORE SWAP2 AND PUSH1 0x20 DUP3 ADD MSTORE PUSH1 0x40 ADD SWAP1 JUMP JUMPDEST SWAP2 DUP3 MSTORE PUSH1 0x20 DUP3 ADD MSTORE PUSH1 0x40 ADD SWAP1 JUMP JUMPDEST PUSH8 0xFFFFFFFFFFFFFFFF SWAP2 SWAP1 SWAP2 AND DUP2 MSTORE PUSH1 0x20 ADD SWAP1 JUMP JUMPDEST PUSH8 0xFFFFFFFFFFFFFFFF SWAP4 DUP5 AND DUP2 MSTORE SWAP2 SWAP1 SWAP3 AND PUSH1 0x20 DUP3 ADD MSTORE PUSH16 0xFFFFFFFFFFFFFFFFFFFFFFFFFFFFFFFF SWAP1 SWAP2 AND PUSH1 0x40 DUP3 ADD MSTORE PUSH1 0x60 ADD SWAP1 JUMP JUMPDEST PUSH1 0x0 DUP1 DUP4 CALLDATALOAD PUSH32 0xFFFFFFFFFFFFFFFFFFFFFFFFFFFFFFFFFFFFFFFFFFFFFFFFFFFFFFFFFFFFFFE1 DUP5 CALLDATASIZE SUB ADD DUP2 SLT PUSH2 0x5867 JUMPI DUP3 DUP4 REVERT JUMPDEST DUP4 ADD DUP1 CALLDATALOAD SWAP2 POP PUSH8 0xFFFFFFFFFFFFFFFF DUP3 GT ISZERO PUSH2 0x5881 JUMPI DUP3 DUP4 REVERT JUMPDEST PUSH1 0x20 ADD SWAP2 POP CALLDATASIZE DUP2 SWAP1 SUB DUP3 SGT ISZERO PUSH2 0x458D JUMPI PUSH1 0x0 DUP1 REVERT JUMPDEST PUSH1 0x0 JUMPDEST DUP4 DUP2 LT ISZERO PUSH2 0x58B1 JUMPI DUP2 DUP2 ADD MLOAD DUP4 DUP3 ADD MSTORE PUSH1 0x20 ADD PUSH2 0x5899 JUMP JUMPDEST DUP4 DUP2 GT ISZERO PUSH2 0x58C0 JUMPI PUSH1 0x0 DUP5 DUP5 ADD MSTORE JUMPDEST POP POP POP POP JUMP JUMPDEST PUSH20 0xFFFFFFFFFFFFFFFFFFFFFFFFFFFFFFFFFFFFFFFF DUP2 AND DUP2 EQ PUSH2 0x58E8 JUMPI PUSH1 0x0 DUP1 REVERT JUMPDEST POP JUMP JUMPDEST DUP1 ISZERO ISZERO DUP2 EQ PUSH2 0x58E8 JUMPI PUSH1 0x0 DUP1 REVERT INVALID LOG2 PUSH5 0x6970667358 0x22 SLT KECCAK256 DUP9 0xB5 DUP1 0xCC 0x26 PUSH24 0xDF8688457CAB88886D2C6DFBE77EA376AEC2D08BBEACEC36 PUSH20 0x6064736F6C634300060C00330000000000000000 "},"gasEstimates":{"creation":{"codeDepositCost":"4566200","executionCost":"infinite","totalCost":"infinite"},"external":{"DOMAIN_SEPARATOR()":"infinite","balanceOf(address,address)":"infinite","batch(bytes[],bool)":"infinite","batchFlashLoan(address,address[],address[],uint256[],bytes)":"infinite","claimOwnership()":"45039","deploy(address,bytes,bool)":"infinite","deposit(address,address,address,uint256,uint256)":"infinite","flashLoan(address,address,address,uint256,bytes)":"infinite","harvest(address,bool,uint256)":"infinite","masterContractApproved(address,address)":"infinite","masterContractOf(address)":"1341","nonces(address)":"1302","owner()":"1136","pendingOwner()":"1157","pendingStrategy(address)":"1364","permitToken(address,address,address,uint256,uint256,uint8,bytes32,bytes32)":"infinite","registerProtocol()":"22240","setMasterContractApproval(address,address,bool,uint8,bytes32,bytes32)":"infinite","setStrategy(address,address)":"infinite","setStrategyTargetPercentage(address,uint64)":"23647","strategy(address)":"1342","strategyData(address)":"1447","toAmount(address,uint256,bool)":"infinite","toShare(address,uint256,bool)":"infinite","totals(address)":"1386","transfer(address,address,address,uint256)":"infinite","transferMultiple(address,address,address[],uint256[])":"infinite","transferOwnership(address,bool,bool)":"infinite","whitelistMasterContract(address,bool)":"infinite","whitelistedMasterContracts(address)":"1292","withdraw(address,address,address,uint256,uint256)":"infinite"},"internal":{"_tokenBalanceOf(contract IERC20)":"infinite"}},"methodIdentifiers":{"DOMAIN_SEPARATOR()":"3644e515","balanceOf(address,address)":"f7888aec","batch(bytes[],bool)":"d2423b51","batchFlashLoan(address,address[],address[],uint256[],bytes)":"f483b3da","claimOwnership()":"4e71e0c8","deploy(address,bytes,bool)":"1f54245b","deposit(address,address,address,uint256,uint256)":"02b9446c","flashLoan(address,address,address,uint256,bytes)":"f1676d37","harvest(address,bool,uint256)":"66c6bb0b","masterContractApproved(address,address)":"91e0eab5","masterContractOf(address)":"bafe4f14","nonces(address)":"7ecebe00","owner()":"8da5cb5b","pendingOwner()":"e30c3978","pendingStrategy(address)":"5108a558","permitToken(address,address,address,uint256,uint256,uint8,bytes32,bytes32)":"7c516e94","registerProtocol()":"aee4d1b2","setMasterContractApproval(address,address,bool,uint8,bytes32,bytes32)":"c0a47c93","setStrategy(address,address)":"72cb5d97","setStrategyTargetPercentage(address,uint64)":"3e2a9d4e","strategy(address)":"228bfd9f","strategyData(address)":"df23b45b","toAmount(address,uint256,bool)":"56623118","toShare(address,uint256,bool)":"da5139ca","totals(address)":"4ffe34db","transfer(address,address,address,uint256)":"f18d03cc","transferMultiple(address,address,address[],uint256[])":"0fca8843","transferOwnership(address,bool,bool)":"078dfbe7","whitelistMasterContract(address,bool)":"733a9d7c","whitelistedMasterContracts(address)":"12a90c8a","withdraw(address,address,address,uint256,uint256)":"97da6d30"}},"storageLayout":{"storage":[{"astId":905,"contract":"contracts/flat/BentoBoxV1Flat.sol:BentoBoxV1","label":"owner","offset":0,"slot":"0","type":"t_address"},{"astId":907,"contract":"contracts/flat/BentoBoxV1Flat.sol:BentoBoxV1","label":"pendingOwner","offset":0,"slot":"1","type":"t_address"},{"astId":1051,"contract":"contracts/flat/BentoBoxV1Flat.sol:BentoBoxV1","label":"masterContractOf","offset":0,"slot":"2","type":"t_mapping(t_address,t_address)"},{"astId":1145,"contract":"contracts/flat/BentoBoxV1Flat.sol:BentoBoxV1","label":"masterContractApproved","offset":0,"slot":"3","type":"t_mapping(t_address,t_mapping(t_address,t_bool))"},{"astId":1150,"contract":"contracts/flat/BentoBoxV1Flat.sol:BentoBoxV1","label":"whitelistedMasterContracts","offset":0,"slot":"4","type":"t_mapping(t_address,t_bool)"},{"astId":1155,"contract":"contracts/flat/BentoBoxV1Flat.sol:BentoBoxV1","label":"nonces","offset":0,"slot":"5","type":"t_mapping(t_address,t_uint256)"},{"astId":1706,"contract":"contracts/flat/BentoBoxV1Flat.sol:BentoBoxV1","label":"balanceOf","offset":0,"slot":"6","type":"t_mapping(t_contract(IERC20)72,t_mapping(t_address,t_uint256))"},{"astId":1710,"contract":"contracts/flat/BentoBoxV1Flat.sol:BentoBoxV1","label":"totals","offset":0,"slot":"7","type":"t_mapping(t_contract(IERC20)72,t_struct(Rebase)555_storage)"},{"astId":1714,"contract":"contracts/flat/BentoBoxV1Flat.sol:BentoBoxV1","label":"strategy","offset":0,"slot":"8","type":"t_mapping(t_contract(IERC20)72,t_contract(IStrategy)147)"},{"astId":1718,"contract":"contracts/flat/BentoBoxV1Flat.sol:BentoBoxV1","label":"pendingStrategy","offset":0,"slot":"9","type":"t_mapping(t_contract(IERC20)72,t_contract(IStrategy)147)"},{"astId":1722,"contract":"contracts/flat/BentoBoxV1Flat.sol:BentoBoxV1","label":"strategyData","offset":0,"slot":"10","type":"t_mapping(t_contract(IERC20)72,t_struct(StrategyData)1678_storage)"}],"types":{"t_address":{"encoding":"inplace","label":"address","numberOfBytes":"20"},"t_bool":{"encoding":"inplace","label":"bool","numberOfBytes":"1"},"t_contract(IERC20)72":{"encoding":"inplace","label":"contract IERC20","numberOfBytes":"20"},"t_contract(IStrategy)147":{"encoding":"inplace","label":"contract IStrategy","numberOfBytes":"20"},"t_mapping(t_address,t_address)":{"encoding":"mapping","key":"t_address","label":"mapping(address => address)","numberOfBytes":"32","value":"t_address"},"t_mapping(t_address,t_bool)":{"encoding":"mapping","key":"t_address","label":"mapping(address => bool)","numberOfBytes":"32","value":"t_bool"},"t_mapping(t_address,t_mapping(t_address,t_bool))":{"encoding":"mapping","key":"t_address","label":"mapping(address => mapping(address => bool))","numberOfBytes":"32","value":"t_mapping(t_address,t_bool)"},"t_mapping(t_address,t_uint256)":{"encoding":"mapping","key":"t_address","label":"mapping(address => uint256)","numberOfBytes":"32","value":"t_uint256"},"t_mapping(t_contract(IERC20)72,t_contract(IStrategy)147)":{"encoding":"mapping","key":"t_contract(IERC20)72","label":"mapping(contract IERC20 => contract IStrategy)","numberOfBytes":"32","value":"t_contract(IStrategy)147"},"t_mapping(t_contract(IERC20)72,t_mapping(t_address,t_uint256))":{"encoding":"mapping","key":"t_contract(IERC20)72","label":"mapping(contract IERC20 => mapping(address => uint256))","numberOfBytes":"32","value":"t_mapping(t_address,t_uint256)"},"t_mapping(t_contract(IERC20)72,t_struct(Rebase)555_storage)":{"encoding":"mapping","key":"t_contract(IERC20)72","label":"mapping(contract IERC20 => struct Rebase)","numberOfBytes":"32","value":"t_struct(Rebase)555_storage"},"t_mapping(t_contract(IERC20)72,t_struct(StrategyData)1678_storage)":{"encoding":"mapping","key":"t_contract(IERC20)72","label":"mapping(contract IERC20 => struct BentoBoxV1.StrategyData)","numberOfBytes":"32","value":"t_struct(StrategyData)1678_storage"},"t_struct(Rebase)555_storage":{"encoding":"inplace","label":"struct Rebase","members":[{"astId":552,"contract":"contracts/flat/BentoBoxV1Flat.sol:BentoBoxV1","label":"elastic","offset":0,"slot":"0","type":"t_uint128"},{"astId":554,"contract":"contracts/flat/BentoBoxV1Flat.sol:BentoBoxV1","label":"base","offset":16,"slot":"0","type":"t_uint128"}],"numberOfBytes":"32"},"t_struct(StrategyData)1678_storage":{"encoding":"inplace","label":"struct BentoBoxV1.StrategyData","members":[{"astId":1673,"contract":"contracts/flat/BentoBoxV1Flat.sol:BentoBoxV1","label":"strategyStartDate","offset":0,"slot":"0","type":"t_uint64"},{"astId":1675,"contract":"contracts/flat/BentoBoxV1Flat.sol:BentoBoxV1","label":"targetPercentage","offset":8,"slot":"0","type":"t_uint64"},{"astId":1677,"contract":"contracts/flat/BentoBoxV1Flat.sol:BentoBoxV1","label":"balance","offset":16,"slot":"0","type":"t_uint128"}],"numberOfBytes":"32"},"t_uint128":{"encoding":"inplace","label":"uint128","numberOfBytes":"16"},"t_uint256":{"encoding":"inplace","label":"uint256","numberOfBytes":"32"},"t_uint64":{"encoding":"inplace","label":"uint64","numberOfBytes":"8"}}},"userdoc":{"kind":"user","methods":{"batch(bytes[],bool)":{"notice":"Allows batched call to self (this contract)."},"batchFlashLoan(address,address[],address[],uint256[],bytes)":{"notice":"Support for batched flashloans. Useful to request multiple different `tokens` in a single transaction."},"claimOwnership()":{"notice":"Needs to be called by `pendingOwner` to claim ownership."},"deploy(address,bytes,bool)":{"notice":"Deploys a given master Contract as a clone. Any ETH transferred with this call is forwarded to the new clone. Emits `LogDeploy`."},"deposit(address,address,address,uint256,uint256)":{"notice":"Deposit an amount of `token` represented in either `amount` or `share`."},"flashLoan(address,address,address,uint256,bytes)":{"notice":"Flashloan ability."},"harvest(address,bool,uint256)":{"notice":"The actual process of yield farming. Executes the strategy of `token`. Optionally does housekeeping if `balance` is true. `maxChangeAmount` is relevant for skimming or withdrawing if `balance` is true."},"masterContractApproved(address,address)":{"notice":"masterContract to user to approval state"},"masterContractOf(address)":{"notice":"Mapping from clone contracts to their masterContract."},"nonces(address)":{"notice":"user nonces for masterContract approvals"},"permitToken(address,address,address,uint256,uint256,uint8,bytes32,bytes32)":{"notice":"Call wrapper that performs `ERC20.permit` on `token`. Lookup `IERC20.permit`."},"registerProtocol()":{"notice":"Other contracts need to register with this master contract so that users can approve them for the BentoBox."},"setMasterContractApproval(address,address,bool,uint8,bytes32,bytes32)":{"notice":"Approves or revokes a `masterContract` access to `user` funds."},"setStrategy(address,address)":{"notice":"Sets the contract address of a new strategy that conforms to `IStrategy` for `token`. Must be called twice with the same arguments. A new strategy becomes pending first and can be activated once `STRATEGY_DELAY` is over."},"setStrategyTargetPercentage(address,uint64)":{"notice":"Sets the target percentage of the strategy for `token`."},"transfer(address,address,address,uint256)":{"notice":"Transfer shares from a user account to another one."},"transferMultiple(address,address,address[],uint256[])":{"notice":"Transfer shares from a user account to multiple other ones."},"transferOwnership(address,bool,bool)":{"notice":"Transfers ownership to `newOwner`. Either directly or claimable by the new pending owner. Can only be invoked by the current `owner`."},"whitelistMasterContract(address,bool)":{"notice":"Enables or disables a contract for approval without signed message."},"whitelistedMasterContracts(address)":{"notice":"masterContract to whitelisted state for approval without signed message"},"withdraw(address,address,address,uint256,uint256)":{"notice":"Withdraws an amount of `token` from a user account."}},"notice":"The BentoBox is a vault for tokens. The stored tokens can be flash loaned and used in strategies. Yield from this will go to the token depositors. Rebasing tokens ARE NOT supported and WILL cause loss of funds. Any funds transfered directly onto the BentoBox will be lost, use the deposit function instead.","version":1}}}}