{"contracts/flat/BentoBoxV1Flat.sol":{"BoringOwnableData":{"abi":[{"inputs":[],"name":"owner","outputs":[{"internalType":"address","name":"","type":"address"}],"stateMutability":"view","type":"function"},{"inputs":[],"name":"pendingOwner","outputs":[{"internalType":"address","name":"","type":"address"}],"stateMutability":"view","type":"function"}],"devdoc":{"kind":"dev","methods":{},"version":1},"evm":{"bytecode":{"linkReferences":{},"object":"608060405234801561001057600080fd5b5060e68061001f6000396000f3fe6080604052348015600f57600080fd5b506004361060325760003560e01c80638da5cb5b146037578063e30c3978146051575b600080fd5b603d6057565b60405160489190608f565b60405180910390f35b603d6073565b60005473ffffffffffffffffffffffffffffffffffffffff1681565b60015473ffffffffffffffffffffffffffffffffffffffff1681565b73ffffffffffffffffffffffffffffffffffffffff9190911681526020019056fea26469706673582212203f00ee837a40053d5bc13e5f3907fa1b3264ce0b423bde1fb98770b40d14e77164736f6c634300060c0033","opcodes":"PUSH1 0x80 PUSH1 0x40 MSTORE CALLVALUE DUP1 ISZERO PUSH2 0x10 JUMPI PUSH1 0x0 DUP1 REVERT JUMPDEST POP PUSH1 0xE6 DUP1 PUSH2 0x1F PUSH1 0x0 CODECOPY PUSH1 0x0 RETURN INVALID PUSH1 0x80 PUSH1 0x40 MSTORE CALLVALUE DUP1 ISZERO PUSH1 0xF JUMPI PUSH1 0x0 DUP1 REVERT JUMPDEST POP PUSH1 0x4 CALLDATASIZE LT PUSH1 0x32 JUMPI PUSH1 0x0 CALLDATALOAD PUSH1 0xE0 SHR DUP1 PUSH4 0x8DA5CB5B EQ PUSH1 0x37 JUMPI DUP1 PUSH4 0xE30C3978 EQ PUSH1 0x51 JUMPI JUMPDEST PUSH1 0x0 DUP1 REVERT JUMPDEST PUSH1 0x3D PUSH1 0x57 JUMP JUMPDEST PUSH1 0x40 MLOAD PUSH1 0x48 SWAP2 SWAP1 PUSH1 0x8F JUMP JUMPDEST PUSH1 0x40 MLOAD DUP1 SWAP2 SUB SWAP1 RETURN JUMPDEST PUSH1 0x3D PUSH1 0x73 JUMP JUMPDEST PUSH1 0x0 SLOAD PUSH20 0xFFFFFFFFFFFFFFFFFFFFFFFFFFFFFFFFFFFFFFFF AND DUP2 JUMP JUMPDEST PUSH1 0x1 SLOAD PUSH20 0xFFFFFFFFFFFFFFFFFFFFFFFFFFFFFFFFFFFFFFFF AND DUP2 JUMP JUMPDEST PUSH20 0xFFFFFFFFFFFFFFFFFFFFFFFFFFFFFFFFFFFFFFFF SWAP2 SWAP1 SWAP2 AND DUP2 MSTORE PUSH1 0x20 ADD SWAP1 JUMP INVALID LOG2 PUSH5 0x6970667358 0x22 SLT KECCAK256 EXTCODEHASH STOP 0xEE DUP4 PUSH27 0x40053D5BC13E5F3907FA1B3264CE0B423BDE1FB98770B40D14E771 PUSH5 0x736F6C6343 STOP MOD 0xC STOP CALLER "},"gasEstimates":{"creation":{"codeDepositCost":"46000","executionCost":"99","totalCost":"46099"},"external":{"owner()":"1024","pendingOwner()":"1046"}},"methodIdentifiers":{"owner()":"8da5cb5b","pendingOwner()":"e30c3978"}},"storageLayout":{"storage":[{"astId":905,"contract":"contracts/flat/BentoBoxV1Flat.sol:BoringOwnableData","label":"owner","offset":0,"slot":"0","type":"t_address"},{"astId":907,"contract":"contracts/flat/BentoBoxV1Flat.sol:BoringOwnableData","label":"pendingOwner","offset":0,"slot":"1","type":"t_address"}],"types":{"t_address":{"encoding":"inplace","label":"address","numberOfBytes":"20"}}},"userdoc":{"kind":"user","methods":{},"version":1}}}}