{"contracts/FuroVestingRouter.sol":{"FuroVestingRouter":{"abi":[{"inputs":[{"internalType":"contract IBentoBoxMinimal","name":"_bentoBox","type":"address"},{"internalType":"contract IFuroVesting","name":"_furoVesting","type":"address"},{"internalType":"address","name":"_wETH","type":"address"}],"stateMutability":"nonpayable","type":"constructor"},{"inputs":[],"name":"InsufficientShares","type":"error"},{"inputs":[],"name":"bentoBox","outputs":[{"internalType":"contract IBentoBoxMinimal","name":"","type":"address"}],"stateMutability":"view","type":"function"},{"inputs":[{"components":[{"internalType":"contract IERC20","name":"token","type":"address"},{"internalType":"address","name":"recipient","type":"address"},{"internalType":"uint32","name":"start","type":"uint32"},{"internalType":"uint32","name":"cliffDuration","type":"uint32"},{"internalType":"uint32","name":"stepDuration","type":"uint32"},{"internalType":"uint32","name":"steps","type":"uint32"},{"internalType":"uint128","name":"stepPercentage","type":"uint128"},{"internalType":"uint128","name":"amount","type":"uint128"},{"internalType":"bool","name":"fromBentoBox","type":"bool"}],"internalType":"struct IFuroVesting.VestParams","name":"vestParams","type":"tuple"},{"internalType":"uint256","name":"minShare","type":"uint256"}],"name":"createVesting","outputs":[{"internalType":"uint256","name":"depositedShares","type":"uint256"},{"internalType":"uint256","name":"vestId","type":"uint256"},{"internalType":"uint128","name":"stepShares","type":"uint128"},{"internalType":"uint128","name":"cliffShares","type":"uint128"}],"stateMutability":"payable","type":"function"},{"inputs":[],"name":"furoVesting","outputs":[{"internalType":"contract IFuroVesting","name":"","type":"address"}],"stateMutability":"view","type":"function"},{"inputs":[{"internalType":"bytes[]","name":"data","type":"bytes[]"}],"name":"multicall","outputs":[{"internalType":"bytes[]","name":"results","type":"bytes[]"}],"stateMutability":"payable","type":"function"},{"inputs":[{"internalType":"address","name":"user","type":"address"},{"internalType":"bool","name":"approved","type":"bool"},{"internalType":"uint8","name":"v","type":"uint8"},{"internalType":"bytes32","name":"r","type":"bytes32"},{"internalType":"bytes32","name":"s","type":"bytes32"}],"name":"setBentoBoxApproval","outputs":[],"stateMutability":"payable","type":"function"},{"inputs":[],"name":"wETH","outputs":[{"internalType":"address","name":"","type":"address"}],"stateMutability":"view","type":"function"}],"devdoc":{"kind":"dev","methods":{},"version":1},"evm":{"bytecode":{"linkReferences":{},"object":"60e06040523480156200001157600080fd5b50604051620011d9380380620011d983398101604081905262000034916200013e565b6001600160a01b03838116608081905283821660a081905291831660c05260405163c0a47c9360e01b81523060048201526024810192909252600160448301526000606483018190526084830181905260a48301529063c0a47c939060c401600060405180830381600087803b158015620000ae57600080fd5b505af1158015620000c3573d6000803e3d6000fd5b50505050826001600160a01b031663aee4d1b26040518163ffffffff1660e01b8152600401600060405180830381600087803b1580156200010357600080fd5b505af115801562000118573d6000803e3d6000fd5b5050505050505062000192565b6001600160a01b03811681146200013b57600080fd5b50565b6000806000606084860312156200015457600080fd5b8351620001618162000125565b6020850151909350620001748162000125565b6040850151909250620001878162000125565b809150509250925092565b60805160a05160c051610fe7620001f26000396000818161018e015261025101526000818160cc015281816102b9015261037001526000818161013a015281816104540152818161068d0152818161075701526107d10152610fe76000f3fe6080604052600436106100655760003560e01c80636b2ace87116100435780636b2ace8714610128578063ac9650d81461015c578063f24286211461017c57600080fd5b8063061251b11461006a57806314b70579146100ba578063489bb0b214610113575b600080fd5b61007d61007836600461099c565b6101b0565b6040805194855260208501939093526fffffffffffffffffffffffffffffffff918216928401929092521660608201526080015b60405180910390f35b3480156100c657600080fd5b506100ee7f000000000000000000000000000000000000000000000000000000000000000081565b60405173ffffffffffffffffffffffffffffffffffffffff90911681526020016100b1565b610126610121366004610a6a565b6103ea565b005b34801561013457600080fd5b506100ee7f000000000000000000000000000000000000000000000000000000000000000081565b61016f61016a366004610ac9565b6104b7565b6040516100b19190610bb8565b34801561018857600080fd5b506100ee7f000000000000000000000000000000000000000000000000000000000000000081565b6000806000806101e2866000015133308960e001516fffffffffffffffffffffffffffffffff168a6101000151610632565b93508484101561021e576040517f3999656700000000000000000000000000000000000000000000000000000000815260040160405180910390fd5b855173ffffffffffffffffffffffffffffffffffffffff166102745773ffffffffffffffffffffffffffffffffffffffff7f00000000000000000000000000000000000000000000000000000000000000001686525b60016101008701526040517fe9d163c900000000000000000000000000000000000000000000000000000000815273ffffffffffffffffffffffffffffffffffffffff7f0000000000000000000000000000000000000000000000000000000000000000169063e9d163c9906102ee908990600401610c38565b6080604051808303816000875af115801561030d573d6000803e3d6000fd5b505050506040513d601f19601f820116820180604052508101906103319190610d39565b6040517f7192711f00000000000000000000000000000000000000000000000000000000815260048101849052336024820152939750919550935091507f000000000000000000000000000000000000000000000000000000000000000073ffffffffffffffffffffffffffffffffffffffff1690637192711f90604401600060405180830381600087803b1580156103c957600080fd5b505af11580156103dd573d6000803e3d6000fd5b5050505092959194509250565b6040517fc0a47c9300000000000000000000000000000000000000000000000000000000815273ffffffffffffffffffffffffffffffffffffffff8681166004830152306024830152851515604483015260ff851660648301526084820184905260a482018390527f0000000000000000000000000000000000000000000000000000000000000000169063c0a47c939060c401600060405180830381600087803b15801561049857600080fd5b505af11580156104ac573d6000803e3d6000fd5b505050505050505050565b60608167ffffffffffffffff8111156104d2576104d26108c1565b60405190808252806020026020018201604052801561050557816020015b60608152602001906001900390816104f05790505b50905060005b8281101561062b576000803086868581811061052957610529610d84565b905060200281019061053b9190610db3565b604051610549929190610e1f565b600060405180830381855af49150503d8060008114610584576040519150601f19603f3d011682016040523d82523d6000602084013e610589565b606091505b5091509150816105f8576044815110156105a257600080fd5b600481019050808060200190518101906105bc9190610e2f565b6040517f08c379a00000000000000000000000000000000000000000000000000000000081526004016105ef9190610efa565b60405180910390fd5b8084848151811061060b5761060b610d84565b60200260200101819052505050808061062390610f14565b91505061050b565b5092915050565b600081156107ba576040517fda5139ca00000000000000000000000000000000000000000000000000000000815273ffffffffffffffffffffffffffffffffffffffff878116600483015260248201859052600060448301527f0000000000000000000000000000000000000000000000000000000000000000169063da5139ca90606401602060405180830381865afa1580156106d4573d6000803e3d6000fd5b505050506040513d601f19601f820116820180604052508101906106f89190610f74565b6040517ff18d03cc00000000000000000000000000000000000000000000000000000000815273ffffffffffffffffffffffffffffffffffffffff888116600483015287811660248301528681166044830152606482018390529192507f00000000000000000000000000000000000000000000000000000000000000009091169063f18d03cc90608401600060405180830381600087803b15801561079d57600080fd5b505af11580156107b1573d6000803e3d6000fd5b505050506108b8565b73ffffffffffffffffffffffffffffffffffffffff7f00000000000000000000000000000000000000000000000000000000000000008116906302b9446c90881615610807576000610809565b845b6040517fffffffff0000000000000000000000000000000000000000000000000000000060e084901b16815273ffffffffffffffffffffffffffffffffffffffff808b166004830152808a16602483015288166044820152606481018790526000608482015260a401604080518083038185885af115801561088f573d6000803e3d6000fd5b50505050506040513d601f19601f820116820180604052508101906108b49190610f8d565b9150505b95945050505050565b7f4e487b7100000000000000000000000000000000000000000000000000000000600052604160045260246000fd5b604051610120810167ffffffffffffffff81118282101715610914576109146108c1565b60405290565b73ffffffffffffffffffffffffffffffffffffffff8116811461093c57600080fd5b50565b803561094a8161091a565b919050565b803563ffffffff8116811461094a57600080fd5b6fffffffffffffffffffffffffffffffff8116811461093c57600080fd5b803561094a81610963565b8035801515811461094a57600080fd5b6000808284036101408112156109b157600080fd5b610120808212156109c157600080fd5b6109c96108f0565b91506109d48561093f565b82526109e26020860161093f565b60208301526109f36040860161094f565b6040830152610a046060860161094f565b6060830152610a156080860161094f565b6080830152610a2660a0860161094f565b60a0830152610a3760c08601610981565b60c0830152610a4860e08601610981565b60e0830152610100610a5b81870161098c565b90830152909593013593505050565b600080600080600060a08688031215610a8257600080fd5b8535610a8d8161091a565b9450610a9b6020870161098c565b9350604086013560ff81168114610ab157600080fd5b94979396509394606081013594506080013592915050565b60008060208385031215610adc57600080fd5b823567ffffffffffffffff80821115610af457600080fd5b818501915085601f830112610b0857600080fd5b813581811115610b1757600080fd5b8660208260051b8501011115610b2c57600080fd5b60209290920196919550909350505050565b60005b83811015610b59578181015183820152602001610b41565b83811115610b68576000848401525b50505050565b60008151808452610b86816020860160208601610b3e565b601f017fffffffffffffffffffffffffffffffffffffffffffffffffffffffffffffffe0169290920160200192915050565b6000602080830181845280855180835260408601915060408160051b870101925083870160005b82811015610c2b577fffffffffffffffffffffffffffffffffffffffffffffffffffffffffffffffc0888603018452610c19858351610b6e565b94509285019290850190600101610bdf565b5092979650505050505050565b815173ffffffffffffffffffffffffffffffffffffffff168152602080830151610120830191610c7f9084018273ffffffffffffffffffffffffffffffffffffffff169052565b506040830151610c97604084018263ffffffff169052565b506060830151610caf606084018263ffffffff169052565b506080830151610cc7608084018263ffffffff169052565b5060a0830151610cdf60a084018263ffffffff169052565b5060c0830151610d0360c08401826fffffffffffffffffffffffffffffffff169052565b5060e0830151610d2760e08401826fffffffffffffffffffffffffffffffff169052565b50610100928301511515919092015290565b60008060008060808587031215610d4f57600080fd5b84519350602085015192506040850151610d6881610963565b6060860151909250610d7981610963565b939692955090935050565b7f4e487b7100000000000000000000000000000000000000000000000000000000600052603260045260246000fd5b60008083357fffffffffffffffffffffffffffffffffffffffffffffffffffffffffffffffe1843603018112610de857600080fd5b83018035915067ffffffffffffffff821115610e0357600080fd5b602001915036819003821315610e1857600080fd5b9250929050565b8183823760009101908152919050565b600060208284031215610e4157600080fd5b815167ffffffffffffffff80821115610e5957600080fd5b818401915084601f830112610e6d57600080fd5b815181811115610e7f57610e7f6108c1565b604051601f82017fffffffffffffffffffffffffffffffffffffffffffffffffffffffffffffffe0908116603f01168101908382118183101715610ec557610ec56108c1565b81604052828152876020848701011115610ede57600080fd5b610eef836020830160208801610b3e565b979650505050505050565b602081526000610f0d6020830184610b6e565b9392505050565b60007fffffffffffffffffffffffffffffffffffffffffffffffffffffffffffffffff821415610f6d577f4e487b7100000000000000000000000000000000000000000000000000000000600052601160045260246000fd5b5060010190565b600060208284031215610f8657600080fd5b5051919050565b60008060408385031215610fa057600080fd5b50508051602090910151909290915056fea2646970667358221220d00bc14454905f903ddf9db9035801cc8dbf0cbd3131ed9b0ddc4b59f4c165be64736f6c634300080a0033","opcodes":"PUSH1 0xE0 PUSH1 0x40 MSTORE CALLVALUE DUP1 ISZERO PUSH3 0x11 JUMPI PUSH1 0x0 DUP1 REVERT JUMPDEST POP PUSH1 0x40 MLOAD PUSH3 0x11D9 CODESIZE SUB DUP1 PUSH3 0x11D9 DUP4 CODECOPY DUP2 ADD PUSH1 0x40 DUP2 SWAP1 MSTORE PUSH3 0x34 SWAP2 PUSH3 0x13E JUMP JUMPDEST PUSH1 0x1 PUSH1 0x1 PUSH1 0xA0 SHL SUB DUP4 DUP2 AND PUSH1 0x80 DUP2 SWAP1 MSTORE DUP4 DUP3 AND PUSH1 0xA0 DUP2 SWAP1 MSTORE SWAP2 DUP4 AND PUSH1 0xC0 MSTORE PUSH1 0x40 MLOAD PUSH4 0xC0A47C93 PUSH1 0xE0 SHL DUP2 MSTORE ADDRESS PUSH1 0x4 DUP3 ADD MSTORE PUSH1 0x24 DUP2 ADD SWAP3 SWAP1 SWAP3 MSTORE PUSH1 0x1 PUSH1 0x44 DUP4 ADD MSTORE PUSH1 0x0 PUSH1 0x64 DUP4 ADD DUP2 SWAP1 MSTORE PUSH1 0x84 DUP4 ADD DUP2 SWAP1 MSTORE PUSH1 0xA4 DUP4 ADD MSTORE SWAP1 PUSH4 0xC0A47C93 SWAP1 PUSH1 0xC4 ADD PUSH1 0x0 PUSH1 0x40 MLOAD DUP1 DUP4 SUB DUP2 PUSH1 0x0 DUP8 DUP1 EXTCODESIZE ISZERO DUP1 ISZERO PUSH3 0xAE JUMPI PUSH1 0x0 DUP1 REVERT JUMPDEST POP GAS CALL ISZERO DUP1 ISZERO PUSH3 0xC3 JUMPI RETURNDATASIZE PUSH1 0x0 DUP1 RETURNDATACOPY RETURNDATASIZE PUSH1 0x0 REVERT JUMPDEST POP POP POP POP DUP3 PUSH1 0x1 PUSH1 0x1 PUSH1 0xA0 SHL SUB AND PUSH4 0xAEE4D1B2 PUSH1 0x40 MLOAD DUP2 PUSH4 0xFFFFFFFF AND PUSH1 0xE0 SHL DUP2 MSTORE PUSH1 0x4 ADD PUSH1 0x0 PUSH1 0x40 MLOAD DUP1 DUP4 SUB DUP2 PUSH1 0x0 DUP8 DUP1 EXTCODESIZE ISZERO DUP1 ISZERO PUSH3 0x103 JUMPI PUSH1 0x0 DUP1 REVERT JUMPDEST POP GAS CALL ISZERO DUP1 ISZERO PUSH3 0x118 JUMPI RETURNDATASIZE PUSH1 0x0 DUP1 RETURNDATACOPY RETURNDATASIZE PUSH1 0x0 REVERT JUMPDEST POP POP POP POP POP POP POP PUSH3 0x192 JUMP JUMPDEST PUSH1 0x1 PUSH1 0x1 PUSH1 0xA0 SHL SUB DUP2 AND DUP2 EQ PUSH3 0x13B JUMPI PUSH1 0x0 DUP1 REVERT JUMPDEST POP JUMP JUMPDEST PUSH1 0x0 DUP1 PUSH1 0x0 PUSH1 0x60 DUP5 DUP7 SUB SLT ISZERO PUSH3 0x154 JUMPI PUSH1 0x0 DUP1 REVERT JUMPDEST DUP4 MLOAD PUSH3 0x161 DUP2 PUSH3 0x125 JUMP JUMPDEST PUSH1 0x20 DUP6 ADD MLOAD SWAP1 SWAP4 POP PUSH3 0x174 DUP2 PUSH3 0x125 JUMP JUMPDEST PUSH1 0x40 DUP6 ADD MLOAD SWAP1 SWAP3 POP PUSH3 0x187 DUP2 PUSH3 0x125 JUMP JUMPDEST DUP1 SWAP2 POP POP SWAP3 POP SWAP3 POP SWAP3 JUMP JUMPDEST PUSH1 0x80 MLOAD PUSH1 0xA0 MLOAD PUSH1 0xC0 MLOAD PUSH2 0xFE7 PUSH3 0x1F2 PUSH1 0x0 CODECOPY PUSH1 0x0 DUP2 DUP2 PUSH2 0x18E ADD MSTORE PUSH2 0x251 ADD MSTORE PUSH1 0x0 DUP2 DUP2 PUSH1 0xCC ADD MSTORE DUP2 DUP2 PUSH2 0x2B9 ADD MSTORE PUSH2 0x370 ADD MSTORE PUSH1 0x0 DUP2 DUP2 PUSH2 0x13A ADD MSTORE DUP2 DUP2 PUSH2 0x454 ADD MSTORE DUP2 DUP2 PUSH2 0x68D ADD MSTORE DUP2 DUP2 PUSH2 0x757 ADD MSTORE PUSH2 0x7D1 ADD MSTORE PUSH2 0xFE7 PUSH1 0x0 RETURN INVALID PUSH1 0x80 PUSH1 0x40 MSTORE PUSH1 0x4 CALLDATASIZE LT PUSH2 0x65 JUMPI PUSH1 0x0 CALLDATALOAD PUSH1 0xE0 SHR DUP1 PUSH4 0x6B2ACE87 GT PUSH2 0x43 JUMPI DUP1 PUSH4 0x6B2ACE87 EQ PUSH2 0x128 JUMPI DUP1 PUSH4 0xAC9650D8 EQ PUSH2 0x15C JUMPI DUP1 PUSH4 0xF2428621 EQ PUSH2 0x17C JUMPI PUSH1 0x0 DUP1 REVERT JUMPDEST DUP1 PUSH4 0x61251B1 EQ PUSH2 0x6A JUMPI DUP1 PUSH4 0x14B70579 EQ PUSH2 0xBA JUMPI DUP1 PUSH4 0x489BB0B2 EQ PUSH2 0x113 JUMPI JUMPDEST PUSH1 0x0 DUP1 REVERT JUMPDEST PUSH2 0x7D PUSH2 0x78 CALLDATASIZE PUSH1 0x4 PUSH2 0x99C JUMP JUMPDEST PUSH2 0x1B0 JUMP JUMPDEST PUSH1 0x40 DUP1 MLOAD SWAP5 DUP6 MSTORE PUSH1 0x20 DUP6 ADD SWAP4 SWAP1 SWAP4 MSTORE PUSH16 0xFFFFFFFFFFFFFFFFFFFFFFFFFFFFFFFF SWAP2 DUP3 AND SWAP3 DUP5 ADD SWAP3 SWAP1 SWAP3 MSTORE AND PUSH1 0x60 DUP3 ADD MSTORE PUSH1 0x80 ADD JUMPDEST PUSH1 0x40 MLOAD DUP1 SWAP2 SUB SWAP1 RETURN JUMPDEST CALLVALUE DUP1 ISZERO PUSH2 0xC6 JUMPI PUSH1 0x0 DUP1 REVERT JUMPDEST POP PUSH2 0xEE PUSH32 0x0 DUP2 JUMP JUMPDEST PUSH1 0x40 MLOAD PUSH20 0xFFFFFFFFFFFFFFFFFFFFFFFFFFFFFFFFFFFFFFFF SWAP1 SWAP2 AND DUP2 MSTORE PUSH1 0x20 ADD PUSH2 0xB1 JUMP JUMPDEST PUSH2 0x126 PUSH2 0x121 CALLDATASIZE PUSH1 0x4 PUSH2 0xA6A JUMP JUMPDEST PUSH2 0x3EA JUMP JUMPDEST STOP JUMPDEST CALLVALUE DUP1 ISZERO PUSH2 0x134 JUMPI PUSH1 0x0 DUP1 REVERT JUMPDEST POP PUSH2 0xEE PUSH32 0x0 DUP2 JUMP JUMPDEST PUSH2 0x16F PUSH2 0x16A CALLDATASIZE PUSH1 0x4 PUSH2 0xAC9 JUMP JUMPDEST PUSH2 0x4B7 JUMP JUMPDEST PUSH1 0x40 MLOAD PUSH2 0xB1 SWAP2 SWAP1 PUSH2 0xBB8 JUMP JUMPDEST CALLVALUE DUP1 ISZERO PUSH2 0x188 JUMPI PUSH1 0x0 DUP1 REVERT JUMPDEST POP PUSH2 0xEE PUSH32 0x0 DUP2 JUMP JUMPDEST PUSH1 0x0 DUP1 PUSH1 0x0 DUP1 PUSH2 0x1E2 DUP7 PUSH1 0x0 ADD MLOAD CALLER ADDRESS DUP10 PUSH1 0xE0 ADD MLOAD PUSH16 0xFFFFFFFFFFFFFFFFFFFFFFFFFFFFFFFF AND DUP11 PUSH2 0x100 ADD MLOAD PUSH2 0x632 JUMP JUMPDEST SWAP4 POP DUP5 DUP5 LT ISZERO PUSH2 0x21E JUMPI PUSH1 0x40 MLOAD PUSH32 0x3999656700000000000000000000000000000000000000000000000000000000 DUP2 MSTORE PUSH1 0x4 ADD PUSH1 0x40 MLOAD DUP1 SWAP2 SUB SWAP1 REVERT JUMPDEST DUP6 MLOAD PUSH20 0xFFFFFFFFFFFFFFFFFFFFFFFFFFFFFFFFFFFFFFFF AND PUSH2 0x274 JUMPI PUSH20 0xFFFFFFFFFFFFFFFFFFFFFFFFFFFFFFFFFFFFFFFF PUSH32 0x0 AND DUP7 MSTORE JUMPDEST PUSH1 0x1 PUSH2 0x100 DUP8 ADD MSTORE PUSH1 0x40 MLOAD PUSH32 0xE9D163C900000000000000000000000000000000000000000000000000000000 DUP2 MSTORE PUSH20 0xFFFFFFFFFFFFFFFFFFFFFFFFFFFFFFFFFFFFFFFF PUSH32 0x0 AND SWAP1 PUSH4 0xE9D163C9 SWAP1 PUSH2 0x2EE SWAP1 DUP10 SWAP1 PUSH1 0x4 ADD PUSH2 0xC38 JUMP JUMPDEST PUSH1 0x80 PUSH1 0x40 MLOAD DUP1 DUP4 SUB DUP2 PUSH1 0x0 DUP8 GAS CALL ISZERO DUP1 ISZERO PUSH2 0x30D JUMPI RETURNDATASIZE PUSH1 0x0 DUP1 RETURNDATACOPY RETURNDATASIZE PUSH1 0x0 REVERT JUMPDEST POP POP POP POP PUSH1 0x40 MLOAD RETURNDATASIZE PUSH1 0x1F NOT PUSH1 0x1F DUP3 ADD AND DUP3 ADD DUP1 PUSH1 0x40 MSTORE POP DUP2 ADD SWAP1 PUSH2 0x331 SWAP2 SWAP1 PUSH2 0xD39 JUMP JUMPDEST PUSH1 0x40 MLOAD PUSH32 0x7192711F00000000000000000000000000000000000000000000000000000000 DUP2 MSTORE PUSH1 0x4 DUP2 ADD DUP5 SWAP1 MSTORE CALLER PUSH1 0x24 DUP3 ADD MSTORE SWAP4 SWAP8 POP SWAP2 SWAP6 POP SWAP4 POP SWAP2 POP PUSH32 0x0 PUSH20 0xFFFFFFFFFFFFFFFFFFFFFFFFFFFFFFFFFFFFFFFF AND SWAP1 PUSH4 0x7192711F SWAP1 PUSH1 0x44 ADD PUSH1 0x0 PUSH1 0x40 MLOAD DUP1 DUP4 SUB DUP2 PUSH1 0x0 DUP8 DUP1 EXTCODESIZE ISZERO DUP1 ISZERO PUSH2 0x3C9 JUMPI PUSH1 0x0 DUP1 REVERT JUMPDEST POP GAS CALL ISZERO DUP1 ISZERO PUSH2 0x3DD JUMPI RETURNDATASIZE PUSH1 0x0 DUP1 RETURNDATACOPY RETURNDATASIZE PUSH1 0x0 REVERT JUMPDEST POP POP POP POP SWAP3 SWAP6 SWAP2 SWAP5 POP SWAP3 POP JUMP JUMPDEST PUSH1 0x40 MLOAD PUSH32 0xC0A47C9300000000000000000000000000000000000000000000000000000000 DUP2 MSTORE PUSH20 0xFFFFFFFFFFFFFFFFFFFFFFFFFFFFFFFFFFFFFFFF DUP7 DUP2 AND PUSH1 0x4 DUP4 ADD MSTORE ADDRESS PUSH1 0x24 DUP4 ADD MSTORE DUP6 ISZERO ISZERO PUSH1 0x44 DUP4 ADD MSTORE PUSH1 0xFF DUP6 AND PUSH1 0x64 DUP4 ADD MSTORE PUSH1 0x84 DUP3 ADD DUP5 SWAP1 MSTORE PUSH1 0xA4 DUP3 ADD DUP4 SWAP1 MSTORE PUSH32 0x0 AND SWAP1 PUSH4 0xC0A47C93 SWAP1 PUSH1 0xC4 ADD PUSH1 0x0 PUSH1 0x40 MLOAD DUP1 DUP4 SUB DUP2 PUSH1 0x0 DUP8 DUP1 EXTCODESIZE ISZERO DUP1 ISZERO PUSH2 0x498 JUMPI PUSH1 0x0 DUP1 REVERT JUMPDEST POP GAS CALL ISZERO DUP1 ISZERO PUSH2 0x4AC JUMPI RETURNDATASIZE PUSH1 0x0 DUP1 RETURNDATACOPY RETURNDATASIZE PUSH1 0x0 REVERT JUMPDEST POP POP POP POP POP POP POP POP POP JUMP JUMPDEST PUSH1 0x60 DUP2 PUSH8 0xFFFFFFFFFFFFFFFF DUP2 GT ISZERO PUSH2 0x4D2 JUMPI PUSH2 0x4D2 PUSH2 0x8C1 JUMP JUMPDEST PUSH1 0x40 MLOAD SWAP1 DUP1 DUP3 MSTORE DUP1 PUSH1 0x20 MUL PUSH1 0x20 ADD DUP3 ADD PUSH1 0x40 MSTORE DUP1 ISZERO PUSH2 0x505 JUMPI DUP2 PUSH1 0x20 ADD JUMPDEST PUSH1 0x60 DUP2 MSTORE PUSH1 0x20 ADD SWAP1 PUSH1 0x1 SWAP1 SUB SWAP1 DUP2 PUSH2 0x4F0 JUMPI SWAP1 POP JUMPDEST POP SWAP1 POP PUSH1 0x0 JUMPDEST DUP3 DUP2 LT ISZERO PUSH2 0x62B JUMPI PUSH1 0x0 DUP1 ADDRESS DUP7 DUP7 DUP6 DUP2 DUP2 LT PUSH2 0x529 JUMPI PUSH2 0x529 PUSH2 0xD84 JUMP JUMPDEST SWAP1 POP PUSH1 0x20 MUL DUP2 ADD SWAP1 PUSH2 0x53B SWAP2 SWAP1 PUSH2 0xDB3 JUMP JUMPDEST PUSH1 0x40 MLOAD PUSH2 0x549 SWAP3 SWAP2 SWAP1 PUSH2 0xE1F JUMP JUMPDEST PUSH1 0x0 PUSH1 0x40 MLOAD DUP1 DUP4 SUB DUP2 DUP6 GAS DELEGATECALL SWAP2 POP POP RETURNDATASIZE DUP1 PUSH1 0x0 DUP2 EQ PUSH2 0x584 JUMPI PUSH1 0x40 MLOAD SWAP2 POP PUSH1 0x1F NOT PUSH1 0x3F RETURNDATASIZE ADD AND DUP3 ADD PUSH1 0x40 MSTORE RETURNDATASIZE DUP3 MSTORE RETURNDATASIZE PUSH1 0x0 PUSH1 0x20 DUP5 ADD RETURNDATACOPY PUSH2 0x589 JUMP JUMPDEST PUSH1 0x60 SWAP2 POP JUMPDEST POP SWAP2 POP SWAP2 POP DUP2 PUSH2 0x5F8 JUMPI PUSH1 0x44 DUP2 MLOAD LT ISZERO PUSH2 0x5A2 JUMPI PUSH1 0x0 DUP1 REVERT JUMPDEST PUSH1 0x4 DUP2 ADD SWAP1 POP DUP1 DUP1 PUSH1 0x20 ADD SWAP1 MLOAD DUP2 ADD SWAP1 PUSH2 0x5BC SWAP2 SWAP1 PUSH2 0xE2F JUMP JUMPDEST PUSH1 0x40 MLOAD PUSH32 0x8C379A000000000000000000000000000000000000000000000000000000000 DUP2 MSTORE PUSH1 0x4 ADD PUSH2 0x5EF SWAP2 SWAP1 PUSH2 0xEFA JUMP JUMPDEST PUSH1 0x40 MLOAD DUP1 SWAP2 SUB SWAP1 REVERT JUMPDEST DUP1 DUP5 DUP5 DUP2 MLOAD DUP2 LT PUSH2 0x60B JUMPI PUSH2 0x60B PUSH2 0xD84 JUMP JUMPDEST PUSH1 0x20 MUL PUSH1 0x20 ADD ADD DUP2 SWAP1 MSTORE POP POP POP DUP1 DUP1 PUSH2 0x623 SWAP1 PUSH2 0xF14 JUMP JUMPDEST SWAP2 POP POP PUSH2 0x50B JUMP JUMPDEST POP SWAP3 SWAP2 POP POP JUMP JUMPDEST PUSH1 0x0 DUP2 ISZERO PUSH2 0x7BA JUMPI PUSH1 0x40 MLOAD PUSH32 0xDA5139CA00000000000000000000000000000000000000000000000000000000 DUP2 MSTORE PUSH20 0xFFFFFFFFFFFFFFFFFFFFFFFFFFFFFFFFFFFFFFFF DUP8 DUP2 AND PUSH1 0x4 DUP4 ADD MSTORE PUSH1 0x24 DUP3 ADD DUP6 SWAP1 MSTORE PUSH1 0x0 PUSH1 0x44 DUP4 ADD MSTORE PUSH32 0x0 AND SWAP1 PUSH4 0xDA5139CA SWAP1 PUSH1 0x64 ADD PUSH1 0x20 PUSH1 0x40 MLOAD DUP1 DUP4 SUB DUP2 DUP7 GAS STATICCALL ISZERO DUP1 ISZERO PUSH2 0x6D4 JUMPI RETURNDATASIZE PUSH1 0x0 DUP1 RETURNDATACOPY RETURNDATASIZE PUSH1 0x0 REVERT JUMPDEST POP POP POP POP PUSH1 0x40 MLOAD RETURNDATASIZE PUSH1 0x1F NOT PUSH1 0x1F DUP3 ADD AND DUP3 ADD DUP1 PUSH1 0x40 MSTORE POP DUP2 ADD SWAP1 PUSH2 0x6F8 SWAP2 SWAP1 PUSH2 0xF74 JUMP JUMPDEST PUSH1 0x40 MLOAD PUSH32 0xF18D03CC00000000000000000000000000000000000000000000000000000000 DUP2 MSTORE PUSH20 0xFFFFFFFFFFFFFFFFFFFFFFFFFFFFFFFFFFFFFFFF DUP9 DUP2 AND PUSH1 0x4 DUP4 ADD MSTORE DUP8 DUP2 AND PUSH1 0x24 DUP4 ADD MSTORE DUP7 DUP2 AND PUSH1 0x44 DUP4 ADD MSTORE PUSH1 0x64 DUP3 ADD DUP4 SWAP1 MSTORE SWAP2 SWAP3 POP PUSH32 0x0 SWAP1 SWAP2 AND SWAP1 PUSH4 0xF18D03CC SWAP1 PUSH1 0x84 ADD PUSH1 0x0 PUSH1 0x40 MLOAD DUP1 DUP4 SUB DUP2 PUSH1 0x0 DUP8 DUP1 EXTCODESIZE ISZERO DUP1 ISZERO PUSH2 0x79D JUMPI PUSH1 0x0 DUP1 REVERT JUMPDEST POP GAS CALL ISZERO DUP1 ISZERO PUSH2 0x7B1 JUMPI RETURNDATASIZE PUSH1 0x0 DUP1 RETURNDATACOPY RETURNDATASIZE PUSH1 0x0 REVERT JUMPDEST POP POP POP POP PUSH2 0x8B8 JUMP JUMPDEST PUSH20 0xFFFFFFFFFFFFFFFFFFFFFFFFFFFFFFFFFFFFFFFF PUSH32 0x0 DUP2 AND SWAP1 PUSH4 0x2B9446C SWAP1 DUP9 AND ISZERO PUSH2 0x807 JUMPI PUSH1 0x0 PUSH2 0x809 JUMP JUMPDEST DUP5 JUMPDEST PUSH1 0x40 MLOAD PUSH32 0xFFFFFFFF00000000000000000000000000000000000000000000000000000000 PUSH1 0xE0 DUP5 SWAP1 SHL AND DUP2 MSTORE PUSH20 0xFFFFFFFFFFFFFFFFFFFFFFFFFFFFFFFFFFFFFFFF DUP1 DUP12 AND PUSH1 0x4 DUP4 ADD MSTORE DUP1 DUP11 AND PUSH1 0x24 DUP4 ADD MSTORE DUP9 AND PUSH1 0x44 DUP3 ADD MSTORE PUSH1 0x64 DUP2 ADD DUP8 SWAP1 MSTORE PUSH1 0x0 PUSH1 0x84 DUP3 ADD MSTORE PUSH1 0xA4 ADD PUSH1 0x40 DUP1 MLOAD DUP1 DUP4 SUB DUP2 DUP6 DUP9 GAS CALL ISZERO DUP1 ISZERO PUSH2 0x88F JUMPI RETURNDATASIZE PUSH1 0x0 DUP1 RETURNDATACOPY RETURNDATASIZE PUSH1 0x0 REVERT JUMPDEST POP POP POP POP POP PUSH1 0x40 MLOAD RETURNDATASIZE PUSH1 0x1F NOT PUSH1 0x1F DUP3 ADD AND DUP3 ADD DUP1 PUSH1 0x40 MSTORE POP DUP2 ADD SWAP1 PUSH2 0x8B4 SWAP2 SWAP1 PUSH2 0xF8D JUMP JUMPDEST SWAP2 POP POP JUMPDEST SWAP6 SWAP5 POP POP POP POP POP JUMP JUMPDEST PUSH32 0x4E487B7100000000000000000000000000000000000000000000000000000000 PUSH1 0x0 MSTORE PUSH1 0x41 PUSH1 0x4 MSTORE PUSH1 0x24 PUSH1 0x0 REVERT JUMPDEST PUSH1 0x40 MLOAD PUSH2 0x120 DUP2 ADD PUSH8 0xFFFFFFFFFFFFFFFF DUP2 GT DUP3 DUP3 LT OR ISZERO PUSH2 0x914 JUMPI PUSH2 0x914 PUSH2 0x8C1 JUMP JUMPDEST PUSH1 0x40 MSTORE SWAP1 JUMP JUMPDEST PUSH20 0xFFFFFFFFFFFFFFFFFFFFFFFFFFFFFFFFFFFFFFFF DUP2 AND DUP2 EQ PUSH2 0x93C JUMPI PUSH1 0x0 DUP1 REVERT JUMPDEST POP JUMP JUMPDEST DUP1 CALLDATALOAD PUSH2 0x94A DUP2 PUSH2 0x91A JUMP JUMPDEST SWAP2 SWAP1 POP JUMP JUMPDEST DUP1 CALLDATALOAD PUSH4 0xFFFFFFFF DUP2 AND DUP2 EQ PUSH2 0x94A JUMPI PUSH1 0x0 DUP1 REVERT JUMPDEST PUSH16 0xFFFFFFFFFFFFFFFFFFFFFFFFFFFFFFFF DUP2 AND DUP2 EQ PUSH2 0x93C JUMPI PUSH1 0x0 DUP1 REVERT JUMPDEST DUP1 CALLDATALOAD PUSH2 0x94A DUP2 PUSH2 0x963 JUMP JUMPDEST DUP1 CALLDATALOAD DUP1 ISZERO ISZERO DUP2 EQ PUSH2 0x94A JUMPI PUSH1 0x0 DUP1 REVERT JUMPDEST PUSH1 0x0 DUP1 DUP3 DUP5 SUB PUSH2 0x140 DUP2 SLT ISZERO PUSH2 0x9B1 JUMPI PUSH1 0x0 DUP1 REVERT JUMPDEST PUSH2 0x120 DUP1 DUP3 SLT ISZERO PUSH2 0x9C1 JUMPI PUSH1 0x0 DUP1 REVERT JUMPDEST PUSH2 0x9C9 PUSH2 0x8F0 JUMP JUMPDEST SWAP2 POP PUSH2 0x9D4 DUP6 PUSH2 0x93F JUMP JUMPDEST DUP3 MSTORE PUSH2 0x9E2 PUSH1 0x20 DUP7 ADD PUSH2 0x93F JUMP JUMPDEST PUSH1 0x20 DUP4 ADD MSTORE PUSH2 0x9F3 PUSH1 0x40 DUP7 ADD PUSH2 0x94F JUMP JUMPDEST PUSH1 0x40 DUP4 ADD MSTORE PUSH2 0xA04 PUSH1 0x60 DUP7 ADD PUSH2 0x94F JUMP JUMPDEST PUSH1 0x60 DUP4 ADD MSTORE PUSH2 0xA15 PUSH1 0x80 DUP7 ADD PUSH2 0x94F JUMP JUMPDEST PUSH1 0x80 DUP4 ADD MSTORE PUSH2 0xA26 PUSH1 0xA0 DUP7 ADD PUSH2 0x94F JUMP JUMPDEST PUSH1 0xA0 DUP4 ADD MSTORE PUSH2 0xA37 PUSH1 0xC0 DUP7 ADD PUSH2 0x981 JUMP JUMPDEST PUSH1 0xC0 DUP4 ADD MSTORE PUSH2 0xA48 PUSH1 0xE0 DUP7 ADD PUSH2 0x981 JUMP JUMPDEST PUSH1 0xE0 DUP4 ADD MSTORE PUSH2 0x100 PUSH2 0xA5B DUP2 DUP8 ADD PUSH2 0x98C JUMP JUMPDEST SWAP1 DUP4 ADD MSTORE SWAP1 SWAP6 SWAP4 ADD CALLDATALOAD SWAP4 POP POP POP JUMP JUMPDEST PUSH1 0x0 DUP1 PUSH1 0x0 DUP1 PUSH1 0x0 PUSH1 0xA0 DUP7 DUP9 SUB SLT ISZERO PUSH2 0xA82 JUMPI PUSH1 0x0 DUP1 REVERT JUMPDEST DUP6 CALLDATALOAD PUSH2 0xA8D DUP2 PUSH2 0x91A JUMP JUMPDEST SWAP5 POP PUSH2 0xA9B PUSH1 0x20 DUP8 ADD PUSH2 0x98C JUMP JUMPDEST SWAP4 POP PUSH1 0x40 DUP7 ADD CALLDATALOAD PUSH1 0xFF DUP2 AND DUP2 EQ PUSH2 0xAB1 JUMPI PUSH1 0x0 DUP1 REVERT JUMPDEST SWAP5 SWAP8 SWAP4 SWAP7 POP SWAP4 SWAP5 PUSH1 0x60 DUP2 ADD CALLDATALOAD SWAP5 POP PUSH1 0x80 ADD CALLDATALOAD SWAP3 SWAP2 POP POP JUMP JUMPDEST PUSH1 0x0 DUP1 PUSH1 0x20 DUP4 DUP6 SUB SLT ISZERO PUSH2 0xADC JUMPI PUSH1 0x0 DUP1 REVERT JUMPDEST DUP3 CALLDATALOAD PUSH8 0xFFFFFFFFFFFFFFFF DUP1 DUP3 GT ISZERO PUSH2 0xAF4 JUMPI PUSH1 0x0 DUP1 REVERT JUMPDEST DUP2 DUP6 ADD SWAP2 POP DUP6 PUSH1 0x1F DUP4 ADD SLT PUSH2 0xB08 JUMPI PUSH1 0x0 DUP1 REVERT JUMPDEST DUP2 CALLDATALOAD DUP2 DUP2 GT ISZERO PUSH2 0xB17 JUMPI PUSH1 0x0 DUP1 REVERT JUMPDEST DUP7 PUSH1 0x20 DUP3 PUSH1 0x5 SHL DUP6 ADD ADD GT ISZERO PUSH2 0xB2C JUMPI PUSH1 0x0 DUP1 REVERT JUMPDEST PUSH1 0x20 SWAP3 SWAP1 SWAP3 ADD SWAP7 SWAP2 SWAP6 POP SWAP1 SWAP4 POP POP POP POP JUMP JUMPDEST PUSH1 0x0 JUMPDEST DUP4 DUP2 LT ISZERO PUSH2 0xB59 JUMPI DUP2 DUP2 ADD MLOAD DUP4 DUP3 ADD MSTORE PUSH1 0x20 ADD PUSH2 0xB41 JUMP JUMPDEST DUP4 DUP2 GT ISZERO PUSH2 0xB68 JUMPI PUSH1 0x0 DUP5 DUP5 ADD MSTORE JUMPDEST POP POP POP POP JUMP JUMPDEST PUSH1 0x0 DUP2 MLOAD DUP1 DUP5 MSTORE PUSH2 0xB86 DUP2 PUSH1 0x20 DUP7 ADD PUSH1 0x20 DUP7 ADD PUSH2 0xB3E JUMP JUMPDEST PUSH1 0x1F ADD PUSH32 0xFFFFFFFFFFFFFFFFFFFFFFFFFFFFFFFFFFFFFFFFFFFFFFFFFFFFFFFFFFFFFFE0 AND SWAP3 SWAP1 SWAP3 ADD PUSH1 0x20 ADD SWAP3 SWAP2 POP POP JUMP JUMPDEST PUSH1 0x0 PUSH1 0x20 DUP1 DUP4 ADD DUP2 DUP5 MSTORE DUP1 DUP6 MLOAD DUP1 DUP4 MSTORE PUSH1 0x40 DUP7 ADD SWAP2 POP PUSH1 0x40 DUP2 PUSH1 0x5 SHL DUP8 ADD ADD SWAP3 POP DUP4 DUP8 ADD PUSH1 0x0 JUMPDEST DUP3 DUP2 LT ISZERO PUSH2 0xC2B JUMPI PUSH32 0xFFFFFFFFFFFFFFFFFFFFFFFFFFFFFFFFFFFFFFFFFFFFFFFFFFFFFFFFFFFFFFC0 DUP9 DUP7 SUB ADD DUP5 MSTORE PUSH2 0xC19 DUP6 DUP4 MLOAD PUSH2 0xB6E JUMP JUMPDEST SWAP5 POP SWAP3 DUP6 ADD SWAP3 SWAP1 DUP6 ADD SWAP1 PUSH1 0x1 ADD PUSH2 0xBDF JUMP JUMPDEST POP SWAP3 SWAP8 SWAP7 POP POP POP POP POP POP POP JUMP JUMPDEST DUP2 MLOAD PUSH20 0xFFFFFFFFFFFFFFFFFFFFFFFFFFFFFFFFFFFFFFFF AND DUP2 MSTORE PUSH1 0x20 DUP1 DUP4 ADD MLOAD PUSH2 0x120 DUP4 ADD SWAP2 PUSH2 0xC7F SWAP1 DUP5 ADD DUP3 PUSH20 0xFFFFFFFFFFFFFFFFFFFFFFFFFFFFFFFFFFFFFFFF AND SWAP1 MSTORE JUMP JUMPDEST POP PUSH1 0x40 DUP4 ADD MLOAD PUSH2 0xC97 PUSH1 0x40 DUP5 ADD DUP3 PUSH4 0xFFFFFFFF AND SWAP1 MSTORE JUMP JUMPDEST POP PUSH1 0x60 DUP4 ADD MLOAD PUSH2 0xCAF PUSH1 0x60 DUP5 ADD DUP3 PUSH4 0xFFFFFFFF AND SWAP1 MSTORE JUMP JUMPDEST POP PUSH1 0x80 DUP4 ADD MLOAD PUSH2 0xCC7 PUSH1 0x80 DUP5 ADD DUP3 PUSH4 0xFFFFFFFF AND SWAP1 MSTORE JUMP JUMPDEST POP PUSH1 0xA0 DUP4 ADD MLOAD PUSH2 0xCDF PUSH1 0xA0 DUP5 ADD DUP3 PUSH4 0xFFFFFFFF AND SWAP1 MSTORE JUMP JUMPDEST POP PUSH1 0xC0 DUP4 ADD MLOAD PUSH2 0xD03 PUSH1 0xC0 DUP5 ADD DUP3 PUSH16 0xFFFFFFFFFFFFFFFFFFFFFFFFFFFFFFFF AND SWAP1 MSTORE JUMP JUMPDEST POP PUSH1 0xE0 DUP4 ADD MLOAD PUSH2 0xD27 PUSH1 0xE0 DUP5 ADD DUP3 PUSH16 0xFFFFFFFFFFFFFFFFFFFFFFFFFFFFFFFF AND SWAP1 MSTORE JUMP JUMPDEST POP PUSH2 0x100 SWAP3 DUP4 ADD MLOAD ISZERO ISZERO SWAP2 SWAP1 SWAP3 ADD MSTORE SWAP1 JUMP JUMPDEST PUSH1 0x0 DUP1 PUSH1 0x0 DUP1 PUSH1 0x80 DUP6 DUP8 SUB SLT ISZERO PUSH2 0xD4F JUMPI PUSH1 0x0 DUP1 REVERT JUMPDEST DUP5 MLOAD SWAP4 POP PUSH1 0x20 DUP6 ADD MLOAD SWAP3 POP PUSH1 0x40 DUP6 ADD MLOAD PUSH2 0xD68 DUP2 PUSH2 0x963 JUMP JUMPDEST PUSH1 0x60 DUP7 ADD MLOAD SWAP1 SWAP3 POP PUSH2 0xD79 DUP2 PUSH2 0x963 JUMP JUMPDEST SWAP4 SWAP7 SWAP3 SWAP6 POP SWAP1 SWAP4 POP POP JUMP JUMPDEST PUSH32 0x4E487B7100000000000000000000000000000000000000000000000000000000 PUSH1 0x0 MSTORE PUSH1 0x32 PUSH1 0x4 MSTORE PUSH1 0x24 PUSH1 0x0 REVERT JUMPDEST PUSH1 0x0 DUP1 DUP4 CALLDATALOAD PUSH32 0xFFFFFFFFFFFFFFFFFFFFFFFFFFFFFFFFFFFFFFFFFFFFFFFFFFFFFFFFFFFFFFE1 DUP5 CALLDATASIZE SUB ADD DUP2 SLT PUSH2 0xDE8 JUMPI PUSH1 0x0 DUP1 REVERT JUMPDEST DUP4 ADD DUP1 CALLDATALOAD SWAP2 POP PUSH8 0xFFFFFFFFFFFFFFFF DUP3 GT ISZERO PUSH2 0xE03 JUMPI PUSH1 0x0 DUP1 REVERT JUMPDEST PUSH1 0x20 ADD SWAP2 POP CALLDATASIZE DUP2 SWAP1 SUB DUP3 SGT ISZERO PUSH2 0xE18 JUMPI PUSH1 0x0 DUP1 REVERT JUMPDEST SWAP3 POP SWAP3 SWAP1 POP JUMP JUMPDEST DUP2 DUP4 DUP3 CALLDATACOPY PUSH1 0x0 SWAP2 ADD SWAP1 DUP2 MSTORE SWAP2 SWAP1 POP JUMP JUMPDEST PUSH1 0x0 PUSH1 0x20 DUP3 DUP5 SUB SLT ISZERO PUSH2 0xE41 JUMPI PUSH1 0x0 DUP1 REVERT JUMPDEST DUP2 MLOAD PUSH8 0xFFFFFFFFFFFFFFFF DUP1 DUP3 GT ISZERO PUSH2 0xE59 JUMPI PUSH1 0x0 DUP1 REVERT JUMPDEST DUP2 DUP5 ADD SWAP2 POP DUP5 PUSH1 0x1F DUP4 ADD SLT PUSH2 0xE6D JUMPI PUSH1 0x0 DUP1 REVERT JUMPDEST DUP2 MLOAD DUP2 DUP2 GT ISZERO PUSH2 0xE7F JUMPI PUSH2 0xE7F PUSH2 0x8C1 JUMP JUMPDEST PUSH1 0x40 MLOAD PUSH1 0x1F DUP3 ADD PUSH32 0xFFFFFFFFFFFFFFFFFFFFFFFFFFFFFFFFFFFFFFFFFFFFFFFFFFFFFFFFFFFFFFE0 SWAP1 DUP2 AND PUSH1 0x3F ADD AND DUP2 ADD SWAP1 DUP4 DUP3 GT DUP2 DUP4 LT OR ISZERO PUSH2 0xEC5 JUMPI PUSH2 0xEC5 PUSH2 0x8C1 JUMP JUMPDEST DUP2 PUSH1 0x40 MSTORE DUP3 DUP2 MSTORE DUP8 PUSH1 0x20 DUP5 DUP8 ADD ADD GT ISZERO PUSH2 0xEDE JUMPI PUSH1 0x0 DUP1 REVERT JUMPDEST PUSH2 0xEEF DUP4 PUSH1 0x20 DUP4 ADD PUSH1 0x20 DUP9 ADD PUSH2 0xB3E JUMP JUMPDEST SWAP8 SWAP7 POP POP POP POP POP POP POP JUMP JUMPDEST PUSH1 0x20 DUP2 MSTORE PUSH1 0x0 PUSH2 0xF0D PUSH1 0x20 DUP4 ADD DUP5 PUSH2 0xB6E JUMP JUMPDEST SWAP4 SWAP3 POP POP POP JUMP JUMPDEST PUSH1 0x0 PUSH32 0xFFFFFFFFFFFFFFFFFFFFFFFFFFFFFFFFFFFFFFFFFFFFFFFFFFFFFFFFFFFFFFFF DUP3 EQ ISZERO PUSH2 0xF6D JUMPI PUSH32 0x4E487B7100000000000000000000000000000000000000000000000000000000 PUSH1 0x0 MSTORE PUSH1 0x11 PUSH1 0x4 MSTORE PUSH1 0x24 PUSH1 0x0 REVERT JUMPDEST POP PUSH1 0x1 ADD SWAP1 JUMP JUMPDEST PUSH1 0x0 PUSH1 0x20 DUP3 DUP5 SUB SLT ISZERO PUSH2 0xF86 JUMPI PUSH1 0x0 DUP1 REVERT JUMPDEST POP MLOAD SWAP2 SWAP1 POP JUMP JUMPDEST PUSH1 0x0 DUP1 PUSH1 0x40 DUP4 DUP6 SUB SLT ISZERO PUSH2 0xFA0 JUMPI PUSH1 0x0 DUP1 REVERT JUMPDEST POP POP DUP1 MLOAD PUSH1 0x20 SWAP1 SWAP2 ADD MLOAD SWAP1 SWAP3 SWAP1 SWAP2 POP JUMP INVALID LOG2 PUSH5 0x6970667358 0x22 SLT KECCAK256 0xD0 SIGNEXTEND 0xC1 DIFFICULTY SLOAD SWAP1 0x5F SWAP1 RETURNDATASIZE 0xDF SWAP14 0xB9 SUB PC ADD 0xCC DUP14 0xBF 0xC 0xBD BALANCE BALANCE 0xED SWAP12 0xD 0xDC 0x4B MSIZE DELEGATECALL 0xC1 PUSH6 0xBE64736F6C63 NUMBER STOP ADDMOD EXP STOP CALLER "},"gasEstimates":{"creation":{"codeDepositCost":"814200","executionCost":"infinite","totalCost":"infinite"},"external":{"bentoBox()":"infinite","createVesting((address,address,uint32,uint32,uint32,uint32,uint128,uint128,bool),uint256)":"infinite","furoVesting()":"infinite","multicall(bytes[])":"infinite","setBentoBoxApproval(address,bool,uint8,bytes32,bytes32)":"infinite","wETH()":"infinite"},"internal":{"_depositToken(address,address,address,uint256,bool)":"infinite"}},"methodIdentifiers":{"bentoBox()":"6b2ace87","createVesting((address,address,uint32,uint32,uint32,uint32,uint128,uint128,bool),uint256)":"061251b1","furoVesting()":"14b70579","multicall(bytes[])":"ac9650d8","setBentoBoxApproval(address,bool,uint8,bytes32,bytes32)":"489bb0b2","wETH()":"f2428621"}},"storageLayout":{"storage":[],"types":null},"userdoc":{"kind":"user","methods":{},"version":1}}}}