{"contracts/base/FuroVesting.sol":{"FuroVesting":{"abi":[{"inputs":[{"internalType":"contract IBentoBoxMinimal","name":"_bentoBox","type":"address"},{"internalType":"address","name":"_wETH","type":"address"}],"stateMutability":"nonpayable","type":"constructor"},{"inputs":[],"name":"InvalidStart","type":"error"},{"inputs":[],"name":"InvalidStepSetting","type":"error"},{"inputs":[],"name":"NotOwner","type":"error"},{"inputs":[],"name":"NotVestReceiver","type":"error"},{"anonymous":false,"inputs":[{"indexed":true,"internalType":"address","name":"owner","type":"address"},{"indexed":true,"internalType":"address","name":"spender","type":"address"},{"indexed":true,"internalType":"uint256","name":"id","type":"uint256"}],"name":"Approval","type":"event"},{"anonymous":false,"inputs":[{"indexed":true,"internalType":"address","name":"owner","type":"address"},{"indexed":true,"internalType":"address","name":"operator","type":"address"},{"indexed":false,"internalType":"bool","name":"approved","type":"bool"}],"name":"ApprovalForAll","type":"event"},{"anonymous":false,"inputs":[{"indexed":true,"internalType":"uint256","name":"vestId","type":"uint256"},{"indexed":true,"internalType":"uint256","name":"ownerAmount","type":"uint256"},{"indexed":true,"internalType":"uint256","name":"recipientAmount","type":"uint256"},{"indexed":false,"internalType":"contract IERC20","name":"token","type":"address"},{"indexed":false,"internalType":"bool","name":"toBentoBox","type":"bool"}],"name":"CancelVesting","type":"event"},{"anonymous":false,"inputs":[{"indexed":true,"internalType":"uint256","name":"vestId","type":"uint256"},{"indexed":false,"internalType":"contract IERC20","name":"token","type":"address"},{"indexed":true,"internalType":"address","name":"owner","type":"address"},{"indexed":true,"internalType":"address","name":"recipient","type":"address"},{"indexed":false,"internalType":"uint32","name":"start","type":"uint32"},{"indexed":false,"internalType":"uint32","name":"cliffDuration","type":"uint32"},{"indexed":false,"internalType":"uint32","name":"stepDuration","type":"uint32"},{"indexed":false,"internalType":"uint32","name":"steps","type":"uint32"},{"indexed":false,"internalType":"uint128","name":"cliffShares","type":"uint128"},{"indexed":false,"internalType":"uint128","name":"stepShares","type":"uint128"},{"indexed":false,"internalType":"bool","name":"fromBentoBox","type":"bool"}],"name":"CreateVesting","type":"event"},{"anonymous":false,"inputs":[{"indexed":true,"internalType":"uint256","name":"vestId","type":"uint256"},{"indexed":true,"internalType":"address","name":"newOwner","type":"address"}],"name":"LogUpdateOwner","type":"event"},{"anonymous":false,"inputs":[{"indexed":true,"internalType":"address","name":"previousOwner","type":"address"},{"indexed":true,"internalType":"address","name":"newOwner","type":"address"}],"name":"OwnershipTransferred","type":"event"},{"anonymous":false,"inputs":[{"indexed":true,"internalType":"address","name":"from","type":"address"},{"indexed":true,"internalType":"address","name":"to","type":"address"},{"indexed":true,"internalType":"uint256","name":"id","type":"uint256"}],"name":"Transfer","type":"event"},{"anonymous":false,"inputs":[{"indexed":true,"internalType":"uint256","name":"vestId","type":"uint256"},{"indexed":true,"internalType":"contract IERC20","name":"token","type":"address"},{"indexed":true,"internalType":"uint256","name":"amount","type":"uint256"},{"indexed":false,"internalType":"bool","name":"toBentoBox","type":"bool"}],"name":"Withdraw","type":"event"},{"inputs":[],"name":"PERCENTAGE_PRECISION","outputs":[{"internalType":"uint256","name":"","type":"uint256"}],"stateMutability":"view","type":"function"},{"inputs":[{"internalType":"address","name":"spender","type":"address"},{"internalType":"uint256","name":"id","type":"uint256"}],"name":"approve","outputs":[],"stateMutability":"nonpayable","type":"function"},{"inputs":[{"internalType":"address","name":"","type":"address"}],"name":"balanceOf","outputs":[{"internalType":"uint256","name":"","type":"uint256"}],"stateMutability":"view","type":"function"},{"inputs":[],"name":"bentoBox","outputs":[{"internalType":"contract IBentoBoxMinimal","name":"","type":"address"}],"stateMutability":"view","type":"function"},{"inputs":[],"name":"claimOwnership","outputs":[],"stateMutability":"nonpayable","type":"function"},{"inputs":[{"components":[{"internalType":"contract IERC20","name":"token","type":"address"},{"internalType":"address","name":"recipient","type":"address"},{"internalType":"uint32","name":"start","type":"uint32"},{"internalType":"uint32","name":"cliffDuration","type":"uint32"},{"internalType":"uint32","name":"stepDuration","type":"uint32"},{"internalType":"uint32","name":"steps","type":"uint32"},{"internalType":"uint128","name":"stepPercentage","type":"uint128"},{"internalType":"uint128","name":"amount","type":"uint128"},{"internalType":"bool","name":"fromBentoBox","type":"bool"}],"internalType":"struct IFuroVesting.VestParams","name":"vestParams","type":"tuple"}],"name":"createVesting","outputs":[{"internalType":"uint256","name":"depositedShares","type":"uint256"},{"internalType":"uint256","name":"vestId","type":"uint256"},{"internalType":"uint128","name":"stepShares","type":"uint128"},{"internalType":"uint128","name":"cliffShares","type":"uint128"}],"stateMutability":"payable","type":"function"},{"inputs":[{"internalType":"uint256","name":"","type":"uint256"}],"name":"getApproved","outputs":[{"internalType":"address","name":"","type":"address"}],"stateMutability":"view","type":"function"},{"inputs":[{"internalType":"address","name":"","type":"address"},{"internalType":"address","name":"","type":"address"}],"name":"isApprovedForAll","outputs":[{"internalType":"bool","name":"","type":"bool"}],"stateMutability":"view","type":"function"},{"inputs":[{"internalType":"bytes[]","name":"data","type":"bytes[]"}],"name":"multicall","outputs":[{"internalType":"bytes[]","name":"results","type":"bytes[]"}],"stateMutability":"payable","type":"function"},{"inputs":[],"name":"name","outputs":[{"internalType":"string","name":"","type":"string"}],"stateMutability":"view","type":"function"},{"inputs":[],"name":"owner","outputs":[{"internalType":"address","name":"","type":"address"}],"stateMutability":"view","type":"function"},{"inputs":[{"internalType":"uint256","name":"","type":"uint256"}],"name":"ownerOf","outputs":[{"internalType":"address","name":"","type":"address"}],"stateMutability":"view","type":"function"},{"inputs":[],"name":"pendingOwner","outputs":[{"internalType":"address","name":"","type":"address"}],"stateMutability":"view","type":"function"},{"inputs":[{"internalType":"address","name":"from","type":"address"},{"internalType":"address","name":"to","type":"address"},{"internalType":"uint256","name":"id","type":"uint256"}],"name":"safeTransferFrom","outputs":[],"stateMutability":"nonpayable","type":"function"},{"inputs":[{"internalType":"address","name":"from","type":"address"},{"internalType":"address","name":"to","type":"address"},{"internalType":"uint256","name":"id","type":"uint256"},{"internalType":"bytes","name":"data","type":"bytes"}],"name":"safeTransferFrom","outputs":[],"stateMutability":"nonpayable","type":"function"},{"inputs":[{"internalType":"address","name":"operator","type":"address"},{"internalType":"bool","name":"approved","type":"bool"}],"name":"setApprovalForAll","outputs":[],"stateMutability":"nonpayable","type":"function"},{"inputs":[{"internalType":"address","name":"user","type":"address"},{"internalType":"bool","name":"approved","type":"bool"},{"internalType":"uint8","name":"v","type":"uint8"},{"internalType":"bytes32","name":"r","type":"bytes32"},{"internalType":"bytes32","name":"s","type":"bytes32"}],"name":"setBentoBoxApproval","outputs":[],"stateMutability":"payable","type":"function"},{"inputs":[{"internalType":"address","name":"_fetcher","type":"address"}],"name":"setTokenURIFetcher","outputs":[],"stateMutability":"nonpayable","type":"function"},{"inputs":[{"internalType":"uint256","name":"vestId","type":"uint256"},{"internalType":"bool","name":"toBentoBox","type":"bool"}],"name":"stopVesting","outputs":[],"stateMutability":"nonpayable","type":"function"},{"inputs":[{"internalType":"bytes4","name":"interfaceId","type":"bytes4"}],"name":"supportsInterface","outputs":[{"internalType":"bool","name":"","type":"bool"}],"stateMutability":"pure","type":"function"},{"inputs":[],"name":"symbol","outputs":[{"internalType":"string","name":"","type":"string"}],"stateMutability":"view","type":"function"},{"inputs":[{"internalType":"uint256","name":"id","type":"uint256"}],"name":"tokenURI","outputs":[{"internalType":"string","name":"","type":"string"}],"stateMutability":"view","type":"function"},{"inputs":[],"name":"tokenURIFetcher","outputs":[{"internalType":"address","name":"","type":"address"}],"stateMutability":"view","type":"function"},{"inputs":[{"internalType":"address","name":"from","type":"address"},{"internalType":"address","name":"to","type":"address"},{"internalType":"uint256","name":"id","type":"uint256"}],"name":"transferFrom","outputs":[],"stateMutability":"nonpayable","type":"function"},{"inputs":[{"internalType":"address","name":"newOwner","type":"address"},{"internalType":"bool","name":"direct","type":"bool"},{"internalType":"bool","name":"renounce","type":"bool"}],"name":"transferOwnership","outputs":[],"stateMutability":"nonpayable","type":"function"},{"inputs":[{"internalType":"uint256","name":"vestId","type":"uint256"},{"internalType":"address","name":"newOwner","type":"address"}],"name":"updateOwner","outputs":[],"stateMutability":"nonpayable","type":"function"},{"inputs":[{"internalType":"uint256","name":"vestId","type":"uint256"}],"name":"vestBalance","outputs":[{"internalType":"uint256","name":"","type":"uint256"}],"stateMutability":"view","type":"function"},{"inputs":[],"name":"vestIds","outputs":[{"internalType":"uint256","name":"","type":"uint256"}],"stateMutability":"view","type":"function"},{"inputs":[{"internalType":"uint256","name":"","type":"uint256"}],"name":"vests","outputs":[{"internalType":"address","name":"owner","type":"address"},{"internalType":"contract IERC20","name":"token","type":"address"},{"internalType":"uint32","name":"start","type":"uint32"},{"internalType":"uint32","name":"cliffDuration","type":"uint32"},{"internalType":"uint32","name":"stepDuration","type":"uint32"},{"internalType":"uint32","name":"steps","type":"uint32"},{"internalType":"uint128","name":"cliffShares","type":"uint128"},{"internalType":"uint128","name":"stepShares","type":"uint128"},{"internalType":"uint128","name":"claimed","type":"uint128"}],"stateMutability":"view","type":"function"},{"inputs":[],"name":"wETH","outputs":[{"internalType":"address","name":"","type":"address"}],"stateMutability":"view","type":"function"},{"inputs":[{"internalType":"uint256","name":"vestId","type":"uint256"},{"internalType":"bytes","name":"taskData","type":"bytes"},{"internalType":"bool","name":"toBentoBox","type":"bool"}],"name":"withdraw","outputs":[],"stateMutability":"nonpayable","type":"function"}],"devdoc":{"kind":"dev","methods":{"transferOwnership(address,bool,bool)":{"params":{"direct":"True if `newOwner` should be set immediately. False if `newOwner` needs to use `claimOwnership`.","newOwner":"Address of the new owner.","renounce":"Allows the `newOwner` to be `address(0)` if `direct` and `renounce` is True. Has no effect otherwise."}}},"version":1},"evm":{"bytecode":{"linkReferences":{},"object":"60c06040523480156200001157600080fd5b50604051620039ac380380620039ac833981016040819052620000349162000216565b604080518082018252600c81526b4675726f2056657374696e6760a01b60208083019182528351808501909452600884526711955493d59154d560c21b908401528151919291620000889160009162000157565b5080516200009e90600190602084019062000157565b5050600680546001600160a01b031916339081179091556040519091506000907f8be0079c531659141344cd1fd0a4f28419497f9722a3daafe3b4186f6b6457e0908290a36001600160a01b03808316608081905290821660a0526001600a556040805163577268d960e11b8152905163aee4d1b29160048082019260009290919082900301818387803b1580156200013657600080fd5b505af11580156200014b573d6000803e3d6000fd5b50505050505062000292565b828054620001659062000255565b90600052602060002090601f016020900481019282620001895760008555620001d4565b82601f10620001a457805160ff1916838001178555620001d4565b82800160010185558215620001d4579182015b82811115620001d4578251825591602001919060010190620001b7565b50620001e2929150620001e6565b5090565b5b80821115620001e25760008155600101620001e7565b6001600160a01b03811681146200021357600080fd5b50565b600080604083850312156200022a57600080fd5b82516200023781620001fd565b60208401519092506200024a81620001fd565b809150509250929050565b600181811c908216806200026a57607f821691505b602082108114156200028c57634e487b7160e01b600052602260045260246000fd5b50919050565b60805160a0516136c3620002e9600039600081816107f601526121f40152600081816105a4015281816115910152818161269a0152818161275e0152818161282f015281816128f9015261297301526136c36000f3fe6080604052600436106101d85760003560e01c80636b2ace8711610102578063b3a2b2cf11610095578063e30c397811610064578063e30c397814610731578063e985e9c51461075e578063e9d163c914610799578063f2428621146107e457600080fd5b8063b3a2b2cf146106b5578063b88d4fde146106d5578063c87b56dd146106f5578063e256888f1461071557600080fd5b806395d89b41116100d157806395d89b4114610640578063a203db8e14610655578063a22cb46514610675578063ac9650d81461069557600080fd5b80636b2ace871461059257806370a08231146105c65780637192711f146105f35780638da5cb5b1461061357600080fd5b806323b872dd1161017a578063489bb0b211610149578063489bb0b2146103af5780634e71e0c8146103c257806351def556146103d75780636352211e1461054f57600080fd5b806323b872dd146103395780632bcea7361461035957806340e76eff1461036f57806342842e0e1461038f57600080fd5b806307d88aad116101b657806307d88aad14610256578063081812fc146102a8578063095ea7b3146102eb57806319f771711461030b57600080fd5b806301ffc9a7146101dd57806306fdde0314610212578063078dfbe714610234575b600080fd5b3480156101e957600080fd5b506101fd6101f8366004612c41565b610818565b60405190151581526020015b60405180910390f35b34801561021e57600080fd5b506102276108fd565b6040516102099190612cd4565b34801561024057600080fd5b5061025461024f366004612d1e565b61098b565b005b34801561026257600080fd5b506008546102839073ffffffffffffffffffffffffffffffffffffffff1681565b60405173ffffffffffffffffffffffffffffffffffffffff9091168152602001610209565b3480156102b457600080fd5b506102836102c3366004612d63565b60046020526000908152604090205473ffffffffffffffffffffffffffffffffffffffff1681565b3480156102f757600080fd5b50610254610306366004612d7c565b610b7c565b34801561031757600080fd5b5061032b610326366004612d63565b610cc6565b604051908152602001610209565b34801561034557600080fd5b50610254610354366004612da8565b610ded565b34801561036557600080fd5b5061032b600a5481565b34801561037b57600080fd5b5061025461038a366004612de9565b6110b4565b34801561039b57600080fd5b506102546103aa366004612da8565b6113c2565b6102546103bd366004612e76565b611527565b3480156103ce57600080fd5b506102546115f4565b3480156103e357600080fd5b506104d06103f2366004612d63565b600960205260009081526040902080546001820154600283015460039093015473ffffffffffffffffffffffffffffffffffffffff928316939282169263ffffffff740100000000000000000000000000000000000000008404811693780100000000000000000000000000000000000000000000000081048216937c0100000000000000000000000000000000000000000000000000000000909104821692918216916fffffffffffffffffffffffffffffffff640100000000909104811691808216917001000000000000000000000000000000009091041689565b6040805173ffffffffffffffffffffffffffffffffffffffff9a8b1681529990981660208a015263ffffffff96871697890197909752938516606088015291841660808701529290921660a08501526fffffffffffffffffffffffffffffffff91821660c0850152811660e08401521661010082015261012001610209565b34801561055b57600080fd5b5061028361056a366004612d63565b60036020526000908152604090205473ffffffffffffffffffffffffffffffffffffffff1681565b34801561059e57600080fd5b506102837f000000000000000000000000000000000000000000000000000000000000000081565b3480156105d257600080fd5b5061032b6105e1366004612ed5565b60026020526000908152604090205481565b3480156105ff57600080fd5b5061025461060e366004612ef2565b61170b565b34801561061f57600080fd5b506006546102839073ffffffffffffffffffffffffffffffffffffffff1681565b34801561064c57600080fd5b506102276117d9565b34801561066157600080fd5b50610254610670366004612f22565b6117e6565b34801561068157600080fd5b50610254610690366004612f4e565b611aa9565b6106a86106a3366004612f7a565b611b40565b6040516102099190612fef565b3480156106c157600080fd5b506102546106d0366004612ed5565b611cb2565b3480156106e157600080fd5b506102546106f0366004613133565b611d7a565b34801561070157600080fd5b50610227610710366004612d63565b611ecb565b34801561072157600080fd5b5061032b670de0b6b3a764000081565b34801561073d57600080fd5b506007546102839073ffffffffffffffffffffffffffffffffffffffff1681565b34801561076a57600080fd5b506101fd6107793660046131e2565b600560209081526000928352604080842090915290825290205460ff1681565b6107ac6107a7366004613210565b611f81565b6040805194855260208501939093526fffffffffffffffffffffffffffffffff91821692840192909252166060820152608001610209565b3480156107f057600080fd5b506102837f000000000000000000000000000000000000000000000000000000000000000081565b60007f01ffc9a7000000000000000000000000000000000000000000000000000000007fffffffff00000000000000000000000000000000000000000000000000000000831614806108ab57507f80ac58cd000000000000000000000000000000000000000000000000000000007fffffffff000000000000000000000000000000000000000000000000000000008316145b806108f757507f5b5e139f000000000000000000000000000000000000000000000000000000007fffffffff000000000000000000000000000000000000000000000000000000008316145b92915050565b6000805461090a90613229565b80601f016020809104026020016040519081016040528092919081815260200182805461093690613229565b80156109835780601f1061095857610100808354040283529160200191610983565b820191906000526020600020905b81548152906001019060200180831161096657829003601f168201915b505050505081565b60065473ffffffffffffffffffffffffffffffffffffffff163314610a11576040517f08c379a000000000000000000000000000000000000000000000000000000000815260206004820181905260248201527f4f776e61626c653a2063616c6c6572206973206e6f7420746865206f776e657260448201526064015b60405180910390fd5b8115610b365773ffffffffffffffffffffffffffffffffffffffff8316151580610a385750805b610a9e576040517f08c379a000000000000000000000000000000000000000000000000000000000815260206004820152601560248201527f4f776e61626c653a207a65726f206164647265737300000000000000000000006044820152606401610a08565b60065460405173ffffffffffffffffffffffffffffffffffffffff8086169216907f8be0079c531659141344cd1fd0a4f28419497f9722a3daafe3b4186f6b6457e090600090a36006805473ffffffffffffffffffffffffffffffffffffffff85167fffffffffffffffffffffffff000000000000000000000000000000000000000091821617909155600780549091169055505050565b600780547fffffffffffffffffffffffff00000000000000000000000000000000000000001673ffffffffffffffffffffffffffffffffffffffff85161790555b505050565b60008181526003602052604090205473ffffffffffffffffffffffffffffffffffffffff1633811480610bdf575073ffffffffffffffffffffffffffffffffffffffff8116600090815260056020908152604080832033845290915290205460ff165b610c45576040517f08c379a000000000000000000000000000000000000000000000000000000000815260206004820152600e60248201527f4e4f545f415554484f52495a45440000000000000000000000000000000000006044820152606401610a08565b60008281526004602052604080822080547fffffffffffffffffffffffff00000000000000000000000000000000000000001673ffffffffffffffffffffffffffffffffffffffff87811691821790925591518593918516917f8c5be1e5ebec7d5bd14f71427d1e84f3dd0314c0f7b2291e5b200ac8c7c3b92591a4505050565b6000818152600960209081526040808320815161012081018352815473ffffffffffffffffffffffffffffffffffffffff908116825260018301549081169482019490945263ffffffff74010000000000000000000000000000000000000000850481169382019390935278010000000000000000000000000000000000000000000000008404831660608201527c010000000000000000000000000000000000000000000000000000000090930482166080840152600281015491821660a08401526fffffffffffffffffffffffffffffffff640100000000909204821660c08401526003015480821660e08401527001000000000000000000000000000000009004166101008201819052610ddc82612584565b610de691906132a6565b9392505050565b60008181526003602052604090205473ffffffffffffffffffffffffffffffffffffffff848116911614610e7d576040517f08c379a000000000000000000000000000000000000000000000000000000000815260206004820152600a60248201527f57524f4e475f46524f4d000000000000000000000000000000000000000000006044820152606401610a08565b73ffffffffffffffffffffffffffffffffffffffff8216610efa576040517f08c379a000000000000000000000000000000000000000000000000000000000815260206004820152601160248201527f494e56414c49445f524543495049454e540000000000000000000000000000006044820152606401610a08565b3373ffffffffffffffffffffffffffffffffffffffff84161480610f41575060008181526004602052604090205473ffffffffffffffffffffffffffffffffffffffff1633145b80610f7c575073ffffffffffffffffffffffffffffffffffffffff8316600090815260056020908152604080832033845290915290205460ff165b610fe2576040517f08c379a000000000000000000000000000000000000000000000000000000000815260206004820152600e60248201527f4e4f545f415554484f52495a45440000000000000000000000000000000000006044820152606401610a08565b73ffffffffffffffffffffffffffffffffffffffff808416600081815260026020908152604080832080547fffffffffffffffffffffffffffffffffffffffffffffffffffffffffffffffff019055938616808352848320805460010190558583526003825284832080547fffffffffffffffffffffffff00000000000000000000000000000000000000009081168317909155600490925284832080549092169091559251849392917fddf252ad1be2c89b69c2b068fc378daa952ba7f163c4a11628f55a4df523b3ef91a4505050565b600084815260096020908152604080832060039092529091205473ffffffffffffffffffffffffffffffffffffffff1633811461111d576040517fe1c6117100000000000000000000000000000000000000000000000000000000815260040160405180910390fd5b60038201546040805161012081018252845473ffffffffffffffffffffffffffffffffffffffff90811682526001860154908116602083015274010000000000000000000000000000000000000000810463ffffffff9081169383019390935278010000000000000000000000000000000000000000000000008104831660608301527c0100000000000000000000000000000000000000000000000000000000900482166080820152600285015491821660a08201526fffffffffffffffffffffffffffffffff640100000000909204821660c082015281831660e082015270010000000000000000000000000000000090920416610100820181905260009161122790612584565b61123191906132a6565b905080611240575050506113bc565b808360030160108282829054906101000a90046fffffffffffffffffffffffffffffffff1661126f91906132bd565b92506101000a8154816fffffffffffffffffffffffffffffffff02191690836fffffffffffffffffffffffffffffffff1602179055506112d68360010160009054906101000a900473ffffffffffffffffffffffffffffffffffffffff1630848488612638565b8415611363576040517f330df28200000000000000000000000000000000000000000000000000000000815273ffffffffffffffffffffffffffffffffffffffff83169063330df2829061133090899089906004016132f1565b600060405180830381600087803b15801561134a57600080fd5b505af115801561135e573d6000803e3d6000fd5b505050505b60018301546040518515158152829173ffffffffffffffffffffffffffffffffffffffff169089907fff942d249898505febb2a9a00118e27567c084b9497d0aa3ba5e332c235b4f389060200160405180910390a45050505b50505050565b6113cd838383610ded565b73ffffffffffffffffffffffffffffffffffffffff82163b15806114c157506040517f150b7a020000000000000000000000000000000000000000000000000000000080825233600483015273ffffffffffffffffffffffffffffffffffffffff858116602484015260448301849052608060648401526000608484015290919084169063150b7a029060a4016020604051808303816000875af1158015611479573d6000803e3d6000fd5b505050506040513d601f19601f8201168201806040525081019061149d919061333e565b7fffffffff0000000000000000000000000000000000000000000000000000000016145b610b77576040517f08c379a000000000000000000000000000000000000000000000000000000000815260206004820152601060248201527f554e534146455f524543495049454e54000000000000000000000000000000006044820152606401610a08565b6040517fc0a47c9300000000000000000000000000000000000000000000000000000000815273ffffffffffffffffffffffffffffffffffffffff8681166004830152306024830152851515604483015260ff851660648301526084820184905260a482018390527f0000000000000000000000000000000000000000000000000000000000000000169063c0a47c939060c401600060405180830381600087803b1580156115d557600080fd5b505af11580156115e9573d6000803e3d6000fd5b505050505050505050565b60075473ffffffffffffffffffffffffffffffffffffffff16338114611676576040517f08c379a000000000000000000000000000000000000000000000000000000000815260206004820181905260248201527f4f776e61626c653a2063616c6c657220213d2070656e64696e67206f776e65726044820152606401610a08565b60065460405173ffffffffffffffffffffffffffffffffffffffff8084169216907f8be0079c531659141344cd1fd0a4f28419497f9722a3daafe3b4186f6b6457e090600090a36006805473ffffffffffffffffffffffffffffffffffffffff9092167fffffffffffffffffffffffff0000000000000000000000000000000000000000928316179055600780549091169055565b6000828152600960205260409020805473ffffffffffffffffffffffffffffffffffffffff163314611769576040517f30cd747100000000000000000000000000000000000000000000000000000000815260040160405180910390fd5b80547fffffffffffffffffffffffff00000000000000000000000000000000000000001673ffffffffffffffffffffffffffffffffffffffff8316908117825560405184907fca0251ba80971adc7e92434b097ca40450b2a317013c51c5c5cb6ae74500bb0090600090a3505050565b6001805461090a90613229565b600082815260096020908152604091829020825161012081018452815473ffffffffffffffffffffffffffffffffffffffff90811680835260018401549182169483019490945263ffffffff74010000000000000000000000000000000000000000820481169583019590955278010000000000000000000000000000000000000000000000008104851660608301527c0100000000000000000000000000000000000000000000000000000000900484166080820152600282015493841660a08201526fffffffffffffffffffffffffffffffff640100000000909404841660c082015260039091015480841660e08301527001000000000000000000000000000000009004909216610100830152331461192e576040517f30cd747100000000000000000000000000000000000000000000000000000000815260040160405180910390fd5b600061193982612584565b905060008261010001516fffffffffffffffffffffffffffffffff168261196091906132a6565b90506000828460e001518560a0015163ffffffff1661197f919061335b565b8560c0015161198e91906132bd565b6fffffffffffffffffffffffffffffffff166119aa91906132a6565b600087815260096020908152604080832080547fffffffffffffffffffffffff00000000000000000000000000000000000000009081168255600182018590556002820180549091169055600390810184905588830151925290912054919250611a2d91309073ffffffffffffffffffffffffffffffffffffffff168589612638565b611a3e846020015130338489612638565b8181877f061c75052be1ee7232bc654d7f489af163c983bb99c5affe5e8fc2e5225cb577876020015189604051611a9992919073ffffffffffffffffffffffffffffffffffffffff9290921682521515602082015260400190565b60405180910390a4505050505050565b33600081815260056020908152604080832073ffffffffffffffffffffffffffffffffffffffff87168085529083529281902080547fffffffffffffffffffffffffffffffffffffffffffffffffffffffffffffff001686151590811790915590519081529192917f17307eab39ab6107e8899845ad3d59bd9653f200f220920489ca2b5937696c31910160405180910390a35050565b60608167ffffffffffffffff811115611b5b57611b5b61306f565b604051908082528060200260200182016040528015611b8e57816020015b6060815260200190600190039081611b795790505b50905060005b82811015611cab5760008030868685818110611bb257611bb2613393565b9050602002810190611bc491906133c2565b604051611bd292919061342e565b600060405180830381855af49150503d8060008114611c0d576040519150601f19603f3d011682016040523d82523d6000602084013e611c12565b606091505b509150915081611c7857604481511015611c2b57600080fd5b60048101905080806020019051810190611c45919061343e565b6040517f08c379a0000000000000000000000000000000000000000000000000000000008152600401610a089190612cd4565b80848481518110611c8b57611c8b613393565b602002602001018190525050508080611ca3906134ac565b915050611b94565b5092915050565b60065473ffffffffffffffffffffffffffffffffffffffff163314611d33576040517f08c379a000000000000000000000000000000000000000000000000000000000815260206004820181905260248201527f4f776e61626c653a2063616c6c6572206973206e6f7420746865206f776e65726044820152606401610a08565b600880547fffffffffffffffffffffffff00000000000000000000000000000000000000001673ffffffffffffffffffffffffffffffffffffffff92909216919091179055565b611d85848484610ded565b73ffffffffffffffffffffffffffffffffffffffff83163b1580611e6557506040517f150b7a02000000000000000000000000000000000000000000000000000000008082529073ffffffffffffffffffffffffffffffffffffffff85169063150b7a0290611dfe9033908990889088906004016134e5565b6020604051808303816000875af1158015611e1d573d6000803e3d6000fd5b505050506040513d601f19601f82011682018060405250810190611e41919061333e565b7fffffffff0000000000000000000000000000000000000000000000000000000016145b6113bc576040517f08c379a000000000000000000000000000000000000000000000000000000000815260206004820152601060248201527f554e534146455f524543495049454e54000000000000000000000000000000006044820152606401610a08565b6008546040517fc981fac40000000000000000000000000000000000000000000000000000000081526004810183905260609173ffffffffffffffffffffffffffffffffffffffff169063c981fac490602401600060405180830381865afa158015611f3b573d6000803e3d6000fd5b505050506040513d6000823e601f3d9081017fffffffffffffffffffffffffffffffffffffffffffffffffffffffffffffffe01682016040526108f7919081019061343e565b600080808042611f97606087016040880161352e565b63ffffffff161015611fd5576040517f38356e4c00000000000000000000000000000000000000000000000000000000815260040160405180910390fd5b670de0b6b3a7640000611fee60e0870160c08801613554565b6fffffffffffffffffffffffffffffffff161115612038576040517fd276d51400000000000000000000000000000000000000000000000000000000815260040160405180910390fd5b61204860a086016080870161352e565b63ffffffff16158061206d575061206560c0860160a0870161352e565b63ffffffff16155b156120a4576040517fd276d51400000000000000000000000000000000000000000000000000000000815260040160405180910390fd5b6120f06120b46020870187612ed5565b33306120c76101008a0160e08b01613554565b6fffffffffffffffffffffffffffffffff166120eb6101208b016101008c01613586565b6127d4565b9350670de0b6b3a76400008461210c60e0880160c08901613554565b6fffffffffffffffffffffffffffffffff1661212891906135a1565b61213291906135de565b915061214460c0860160a0870161352e565b6121549063ffffffff168361335b565b612170906fffffffffffffffffffffffffffffffff16856132a6565b600a80549192506000612182836134ac565b9091555092506121a161219b6040870160208801612ed5565b84612a61565b6040805161012081019091523381526020808201906000906121c590890189612ed5565b73ffffffffffffffffffffffffffffffffffffffff16146121f2576121ed6020880188612ed5565b612214565b7f00000000000000000000000000000000000000000000000000000000000000005b73ffffffffffffffffffffffffffffffffffffffff16815260200161223f606088016040890161352e565b63ffffffff16815260200161225a608088016060890161352e565b63ffffffff16815260200161227560a088016080890161352e565b63ffffffff16815260200161229060c0880160a0890161352e565b63ffffffff90811682526fffffffffffffffffffffffffffffffff80851660208085019190915286821660408086019190915260006060958601819052898152600983528190208651815473ffffffffffffffffffffffffffffffffffffffff9182167fffffffffffffffffffffffff0000000000000000000000000000000000000000918216178355888501516001840180548b8701519a8c015160808d01518b167c0100000000000000000000000000000000000000000000000000000000027bffffffffffffffffffffffffffffffffffffffffffffffffffffffff918c167801000000000000000000000000000000000000000000000000029190911677ffffffffffffffffffffffffffffffffffffffffffffffff9c8c1674010000000000000000000000000000000000000000027fffffffffffffffff00000000000000000000000000000000000000000000000090931694909616939093171799909916929092179190911790965560a087015160028201805460c08a0151871664010000000002981691909616179590951790935560e085015161010090950151821670010000000000000000000000000000000002949091169390931760039092019190915561246891908701908701612ed5565b73ffffffffffffffffffffffffffffffffffffffff1633847f603bb53f65550199ed7346ba18d49bcb7ec77162b3167b272f8cd19b20d9510b6124ae60208a018a612ed5565b6124be60608b0160408c0161352e565b6124ce60808c0160608d0161352e565b6124de60a08d0160808e0161352e565b6124ee60c08e0160a08f0161352e565b898b8f6101000160208101906125049190613586565b6040805173ffffffffffffffffffffffffffffffffffffffff909916895263ffffffff97881660208a0152958716958801959095529285166060870152931660808501526fffffffffffffffffffffffffffffffff92831660a08501529190911660c0830152151560e08201526101000160405180910390a49193509193565b6000808260600151836040015161259b9190613619565b63ffffffff169050804210156125b15750919050565b60006125bd82426132a6565b905060006125ea8560a0015163ffffffff16866080015163ffffffff16846125e591906135de565b612bfa565b9050808560e001516fffffffffffffffffffffffffffffffff1661260e91906135a1565b8560c001516fffffffffffffffffffffffffffffffff1661262f9190613638565b95945050505050565b80156126fb576040517ff18d03cc00000000000000000000000000000000000000000000000000000000815273ffffffffffffffffffffffffffffffffffffffff868116600483015285811660248301528481166044830152606482018490527f0000000000000000000000000000000000000000000000000000000000000000169063f18d03cc90608401600060405180830381600087803b1580156126de57600080fd5b505af11580156126f2573d6000803e3d6000fd5b505050506127cd565b6040517f97da6d3000000000000000000000000000000000000000000000000000000000815273ffffffffffffffffffffffffffffffffffffffff86811660048301528581166024830152848116604483015260006064830152608482018490527f000000000000000000000000000000000000000000000000000000000000000016906397da6d309060a40160408051808303816000875af11580156127a6573d6000803e3d6000fd5b505050506040513d601f19601f820116820180604052508101906127ca9190613650565b50505b5050505050565b6000811561295c576040517fda5139ca00000000000000000000000000000000000000000000000000000000815273ffffffffffffffffffffffffffffffffffffffff878116600483015260248201859052600060448301527f0000000000000000000000000000000000000000000000000000000000000000169063da5139ca90606401602060405180830381865afa158015612876573d6000803e3d6000fd5b505050506040513d601f19601f8201168201806040525081019061289a9190613674565b6040517ff18d03cc00000000000000000000000000000000000000000000000000000000815273ffffffffffffffffffffffffffffffffffffffff888116600483015287811660248301528681166044830152606482018390529192507f00000000000000000000000000000000000000000000000000000000000000009091169063f18d03cc90608401600060405180830381600087803b15801561293f57600080fd5b505af1158015612953573d6000803e3d6000fd5b5050505061262f565b73ffffffffffffffffffffffffffffffffffffffff7f00000000000000000000000000000000000000000000000000000000000000008116906302b9446c908816156129a95760006129ab565b845b6040517fffffffff0000000000000000000000000000000000000000000000000000000060e084901b16815273ffffffffffffffffffffffffffffffffffffffff808b166004830152808a16602483015288166044820152606481018790526000608482015260a401604080518083038185885af1158015612a31573d6000803e3d6000fd5b50505050506040513d601f19601f82011682018060405250810190612a569190613650565b979650505050505050565b73ffffffffffffffffffffffffffffffffffffffff8216612ade576040517f08c379a000000000000000000000000000000000000000000000000000000000815260206004820152601160248201527f494e56414c49445f524543495049454e540000000000000000000000000000006044820152606401610a08565b60008181526003602052604090205473ffffffffffffffffffffffffffffffffffffffff1615612b6a576040517f08c379a000000000000000000000000000000000000000000000000000000000815260206004820152600e60248201527f414c52454144595f4d494e5445440000000000000000000000000000000000006044820152606401610a08565b73ffffffffffffffffffffffffffffffffffffffff8216600081815260026020908152604080832080546001019055848352600390915280822080547fffffffffffffffffffffffff0000000000000000000000000000000000000000168417905551839291907fddf252ad1be2c89b69c2b068fc378daa952ba7f163c4a11628f55a4df523b3ef908290a45050565b6000818310612c095781610de6565b5090919050565b7fffffffff0000000000000000000000000000000000000000000000000000000081168114612c3e57600080fd5b50565b600060208284031215612c5357600080fd5b8135610de681612c10565b60005b83811015612c79578181015183820152602001612c61565b838111156113bc5750506000910152565b60008151808452612ca2816020860160208601612c5e565b601f017fffffffffffffffffffffffffffffffffffffffffffffffffffffffffffffffe0169290920160200192915050565b602081526000610de66020830184612c8a565b73ffffffffffffffffffffffffffffffffffffffff81168114612c3e57600080fd5b80358015158114612d1957600080fd5b919050565b600080600060608486031215612d3357600080fd5b8335612d3e81612ce7565b9250612d4c60208501612d09565b9150612d5a60408501612d09565b90509250925092565b600060208284031215612d7557600080fd5b5035919050565b60008060408385031215612d8f57600080fd5b8235612d9a81612ce7565b946020939093013593505050565b600080600060608486031215612dbd57600080fd5b8335612dc881612ce7565b92506020840135612dd881612ce7565b929592945050506040919091013590565b60008060008060608587031215612dff57600080fd5b84359350602085013567ffffffffffffffff80821115612e1e57600080fd5b818701915087601f830112612e3257600080fd5b813581811115612e4157600080fd5b886020828501011115612e5357600080fd5b602083019550809450505050612e6b60408601612d09565b905092959194509250565b600080600080600060a08688031215612e8e57600080fd5b8535612e9981612ce7565b9450612ea760208701612d09565b9350604086013560ff81168114612ebd57600080fd5b94979396509394606081013594506080013592915050565b600060208284031215612ee757600080fd5b8135610de681612ce7565b60008060408385031215612f0557600080fd5b823591506020830135612f1781612ce7565b809150509250929050565b60008060408385031215612f3557600080fd5b82359150612f4560208401612d09565b90509250929050565b60008060408385031215612f6157600080fd5b8235612f6c81612ce7565b9150612f4560208401612d09565b60008060208385031215612f8d57600080fd5b823567ffffffffffffffff80821115612fa557600080fd5b818501915085601f830112612fb957600080fd5b813581811115612fc857600080fd5b8660208260051b8501011115612fdd57600080fd5b60209290920196919550909350505050565b6000602080830181845280855180835260408601915060408160051b870101925083870160005b82811015613062577fffffffffffffffffffffffffffffffffffffffffffffffffffffffffffffffc0888603018452613050858351612c8a565b94509285019290850190600101613016565b5092979650505050505050565b7f4e487b7100000000000000000000000000000000000000000000000000000000600052604160045260246000fd5b604051601f82017fffffffffffffffffffffffffffffffffffffffffffffffffffffffffffffffe016810167ffffffffffffffff811182821017156130e5576130e561306f565b604052919050565b600067ffffffffffffffff8211156131075761310761306f565b50601f017fffffffffffffffffffffffffffffffffffffffffffffffffffffffffffffffe01660200190565b6000806000806080858703121561314957600080fd5b843561315481612ce7565b9350602085013561316481612ce7565b925060408501359150606085013567ffffffffffffffff81111561318757600080fd5b8501601f8101871361319857600080fd5b80356131ab6131a6826130ed565b61309e565b8181528860208385010111156131c057600080fd5b8160208401602083013760006020838301015280935050505092959194509250565b600080604083850312156131f557600080fd5b823561320081612ce7565b91506020830135612f1781612ce7565b6000610120828403121561322357600080fd5b50919050565b600181811c9082168061323d57607f821691505b60208210811415613223577f4e487b7100000000000000000000000000000000000000000000000000000000600052602260045260246000fd5b7f4e487b7100000000000000000000000000000000000000000000000000000000600052601160045260246000fd5b6000828210156132b8576132b8613277565b500390565b60006fffffffffffffffffffffffffffffffff8083168185168083038211156132e8576132e8613277565b01949350505050565b60208152816020820152818360408301376000818301604090810191909152601f9092017fffffffffffffffffffffffffffffffffffffffffffffffffffffffffffffffe0160101919050565b60006020828403121561335057600080fd5b8151610de681612c10565b60006fffffffffffffffffffffffffffffffff8083168185168183048111821515161561338a5761338a613277565b02949350505050565b7f4e487b7100000000000000000000000000000000000000000000000000000000600052603260045260246000fd5b60008083357fffffffffffffffffffffffffffffffffffffffffffffffffffffffffffffffe18436030181126133f757600080fd5b83018035915067ffffffffffffffff82111561341257600080fd5b60200191503681900382131561342757600080fd5b9250929050565b8183823760009101908152919050565b60006020828403121561345057600080fd5b815167ffffffffffffffff81111561346757600080fd5b8201601f8101841361347857600080fd5b80516134866131a6826130ed565b81815285602083850101111561349b57600080fd5b61262f826020830160208601612c5e565b60007fffffffffffffffffffffffffffffffffffffffffffffffffffffffffffffffff8214156134de576134de613277565b5060010190565b600073ffffffffffffffffffffffffffffffffffffffff8087168352808616602084015250836040830152608060608301526135246080830184612c8a565b9695505050505050565b60006020828403121561354057600080fd5b813563ffffffff81168114610de657600080fd5b60006020828403121561356657600080fd5b81356fffffffffffffffffffffffffffffffff81168114610de657600080fd5b60006020828403121561359857600080fd5b610de682612d09565b6000817fffffffffffffffffffffffffffffffffffffffffffffffffffffffffffffffff04831182151516156135d9576135d9613277565b500290565b600082613614577f4e487b7100000000000000000000000000000000000000000000000000000000600052601260045260246000fd5b500490565b600063ffffffff8083168185168083038211156132e8576132e8613277565b6000821982111561364b5761364b613277565b500190565b6000806040838503121561366357600080fd5b505080516020909101519092909150565b60006020828403121561368657600080fd5b505191905056fea26469706673582212204d11dc1a33f402f82519daab1f6610ff0a0616a0ba0bfc96981b382a480497c864736f6c634300080a0033","opcodes":"PUSH1 0xC0 PUSH1 0x40 MSTORE CALLVALUE DUP1 ISZERO PUSH3 0x11 JUMPI PUSH1 0x0 DUP1 REVERT JUMPDEST POP PUSH1 0x40 MLOAD PUSH3 0x39AC CODESIZE SUB DUP1 PUSH3 0x39AC DUP4 CODECOPY DUP2 ADD PUSH1 0x40 DUP2 SWAP1 MSTORE PUSH3 0x34 SWAP2 PUSH3 0x216 JUMP JUMPDEST PUSH1 0x40 DUP1 MLOAD DUP1 DUP3 ADD DUP3 MSTORE PUSH1 0xC DUP2 MSTORE PUSH12 0x4675726F2056657374696E67 PUSH1 0xA0 SHL PUSH1 0x20 DUP1 DUP4 ADD SWAP2 DUP3 MSTORE DUP4 MLOAD DUP1 DUP6 ADD SWAP1 SWAP5 MSTORE PUSH1 0x8 DUP5 MSTORE PUSH8 0x11955493D59154D5 PUSH1 0xC2 SHL SWAP1 DUP5 ADD MSTORE DUP2 MLOAD SWAP2 SWAP3 SWAP2 PUSH3 0x88 SWAP2 PUSH1 0x0 SWAP2 PUSH3 0x157 JUMP JUMPDEST POP DUP1 MLOAD PUSH3 0x9E SWAP1 PUSH1 0x1 SWAP1 PUSH1 0x20 DUP5 ADD SWAP1 PUSH3 0x157 JUMP JUMPDEST POP POP PUSH1 0x6 DUP1 SLOAD PUSH1 0x1 PUSH1 0x1 PUSH1 0xA0 SHL SUB NOT AND CALLER SWAP1 DUP2 OR SWAP1 SWAP2 SSTORE PUSH1 0x40 MLOAD SWAP1 SWAP2 POP PUSH1 0x0 SWAP1 PUSH32 0x8BE0079C531659141344CD1FD0A4F28419497F9722A3DAAFE3B4186F6B6457E0 SWAP1 DUP3 SWAP1 LOG3 PUSH1 0x1 PUSH1 0x1 PUSH1 0xA0 SHL SUB DUP1 DUP4 AND PUSH1 0x80 DUP2 SWAP1 MSTORE SWAP1 DUP3 AND PUSH1 0xA0 MSTORE PUSH1 0x1 PUSH1 0xA SSTORE PUSH1 0x40 DUP1 MLOAD PUSH4 0x577268D9 PUSH1 0xE1 SHL DUP2 MSTORE SWAP1 MLOAD PUSH4 0xAEE4D1B2 SWAP2 PUSH1 0x4 DUP1 DUP3 ADD SWAP3 PUSH1 0x0 SWAP3 SWAP1 SWAP2 SWAP1 DUP3 SWAP1 SUB ADD DUP2 DUP4 DUP8 DUP1 EXTCODESIZE ISZERO DUP1 ISZERO PUSH3 0x136 JUMPI PUSH1 0x0 DUP1 REVERT JUMPDEST POP GAS CALL ISZERO DUP1 ISZERO PUSH3 0x14B JUMPI RETURNDATASIZE PUSH1 0x0 DUP1 RETURNDATACOPY RETURNDATASIZE PUSH1 0x0 REVERT JUMPDEST POP POP POP POP POP POP PUSH3 0x292 JUMP JUMPDEST DUP3 DUP1 SLOAD PUSH3 0x165 SWAP1 PUSH3 0x255 JUMP JUMPDEST SWAP1 PUSH1 0x0 MSTORE PUSH1 0x20 PUSH1 0x0 KECCAK256 SWAP1 PUSH1 0x1F ADD PUSH1 0x20 SWAP1 DIV DUP2 ADD SWAP3 DUP3 PUSH3 0x189 JUMPI PUSH1 0x0 DUP6 SSTORE PUSH3 0x1D4 JUMP JUMPDEST DUP3 PUSH1 0x1F LT PUSH3 0x1A4 JUMPI DUP1 MLOAD PUSH1 0xFF NOT AND DUP4 DUP1 ADD OR DUP6 SSTORE PUSH3 0x1D4 JUMP JUMPDEST DUP3 DUP1 ADD PUSH1 0x1 ADD DUP6 SSTORE DUP3 ISZERO PUSH3 0x1D4 JUMPI SWAP2 DUP3 ADD JUMPDEST DUP3 DUP2 GT ISZERO PUSH3 0x1D4 JUMPI DUP3 MLOAD DUP3 SSTORE SWAP2 PUSH1 0x20 ADD SWAP2 SWAP1 PUSH1 0x1 ADD SWAP1 PUSH3 0x1B7 JUMP JUMPDEST POP PUSH3 0x1E2 SWAP3 SWAP2 POP PUSH3 0x1E6 JUMP JUMPDEST POP SWAP1 JUMP JUMPDEST JUMPDEST DUP1 DUP3 GT ISZERO PUSH3 0x1E2 JUMPI PUSH1 0x0 DUP2 SSTORE PUSH1 0x1 ADD PUSH3 0x1E7 JUMP JUMPDEST PUSH1 0x1 PUSH1 0x1 PUSH1 0xA0 SHL SUB DUP2 AND DUP2 EQ PUSH3 0x213 JUMPI PUSH1 0x0 DUP1 REVERT JUMPDEST POP JUMP JUMPDEST PUSH1 0x0 DUP1 PUSH1 0x40 DUP4 DUP6 SUB SLT ISZERO PUSH3 0x22A JUMPI PUSH1 0x0 DUP1 REVERT JUMPDEST DUP3 MLOAD PUSH3 0x237 DUP2 PUSH3 0x1FD JUMP JUMPDEST PUSH1 0x20 DUP5 ADD MLOAD SWAP1 SWAP3 POP PUSH3 0x24A DUP2 PUSH3 0x1FD JUMP JUMPDEST DUP1 SWAP2 POP POP SWAP3 POP SWAP3 SWAP1 POP JUMP JUMPDEST PUSH1 0x1 DUP2 DUP2 SHR SWAP1 DUP3 AND DUP1 PUSH3 0x26A JUMPI PUSH1 0x7F DUP3 AND SWAP2 POP JUMPDEST PUSH1 0x20 DUP3 LT DUP2 EQ ISZERO PUSH3 0x28C JUMPI PUSH4 0x4E487B71 PUSH1 0xE0 SHL PUSH1 0x0 MSTORE PUSH1 0x22 PUSH1 0x4 MSTORE PUSH1 0x24 PUSH1 0x0 REVERT JUMPDEST POP SWAP2 SWAP1 POP JUMP JUMPDEST PUSH1 0x80 MLOAD PUSH1 0xA0 MLOAD PUSH2 0x36C3 PUSH3 0x2E9 PUSH1 0x0 CODECOPY PUSH1 0x0 DUP2 DUP2 PUSH2 0x7F6 ADD MSTORE PUSH2 0x21F4 ADD MSTORE PUSH1 0x0 DUP2 DUP2 PUSH2 0x5A4 ADD MSTORE DUP2 DUP2 PUSH2 0x1591 ADD MSTORE DUP2 DUP2 PUSH2 0x269A ADD MSTORE DUP2 DUP2 PUSH2 0x275E ADD MSTORE DUP2 DUP2 PUSH2 0x282F ADD MSTORE DUP2 DUP2 PUSH2 0x28F9 ADD MSTORE PUSH2 0x2973 ADD MSTORE PUSH2 0x36C3 PUSH1 0x0 RETURN INVALID PUSH1 0x80 PUSH1 0x40 MSTORE PUSH1 0x4 CALLDATASIZE LT PUSH2 0x1D8 JUMPI PUSH1 0x0 CALLDATALOAD PUSH1 0xE0 SHR DUP1 PUSH4 0x6B2ACE87 GT PUSH2 0x102 JUMPI DUP1 PUSH4 0xB3A2B2CF GT PUSH2 0x95 JUMPI DUP1 PUSH4 0xE30C3978 GT PUSH2 0x64 JUMPI DUP1 PUSH4 0xE30C3978 EQ PUSH2 0x731 JUMPI DUP1 PUSH4 0xE985E9C5 EQ PUSH2 0x75E JUMPI DUP1 PUSH4 0xE9D163C9 EQ PUSH2 0x799 JUMPI DUP1 PUSH4 0xF2428621 EQ PUSH2 0x7E4 JUMPI PUSH1 0x0 DUP1 REVERT JUMPDEST DUP1 PUSH4 0xB3A2B2CF EQ PUSH2 0x6B5 JUMPI DUP1 PUSH4 0xB88D4FDE EQ PUSH2 0x6D5 JUMPI DUP1 PUSH4 0xC87B56DD EQ PUSH2 0x6F5 JUMPI DUP1 PUSH4 0xE256888F EQ PUSH2 0x715 JUMPI PUSH1 0x0 DUP1 REVERT JUMPDEST DUP1 PUSH4 0x95D89B41 GT PUSH2 0xD1 JUMPI DUP1 PUSH4 0x95D89B41 EQ PUSH2 0x640 JUMPI DUP1 PUSH4 0xA203DB8E EQ PUSH2 0x655 JUMPI DUP1 PUSH4 0xA22CB465 EQ PUSH2 0x675 JUMPI DUP1 PUSH4 0xAC9650D8 EQ PUSH2 0x695 JUMPI PUSH1 0x0 DUP1 REVERT JUMPDEST DUP1 PUSH4 0x6B2ACE87 EQ PUSH2 0x592 JUMPI DUP1 PUSH4 0x70A08231 EQ PUSH2 0x5C6 JUMPI DUP1 PUSH4 0x7192711F EQ PUSH2 0x5F3 JUMPI DUP1 PUSH4 0x8DA5CB5B EQ PUSH2 0x613 JUMPI PUSH1 0x0 DUP1 REVERT JUMPDEST DUP1 PUSH4 0x23B872DD GT PUSH2 0x17A JUMPI DUP1 PUSH4 0x489BB0B2 GT PUSH2 0x149 JUMPI DUP1 PUSH4 0x489BB0B2 EQ PUSH2 0x3AF JUMPI DUP1 PUSH4 0x4E71E0C8 EQ PUSH2 0x3C2 JUMPI DUP1 PUSH4 0x51DEF556 EQ PUSH2 0x3D7 JUMPI DUP1 PUSH4 0x6352211E EQ PUSH2 0x54F JUMPI PUSH1 0x0 DUP1 REVERT JUMPDEST DUP1 PUSH4 0x23B872DD EQ PUSH2 0x339 JUMPI DUP1 PUSH4 0x2BCEA736 EQ PUSH2 0x359 JUMPI DUP1 PUSH4 0x40E76EFF EQ PUSH2 0x36F JUMPI DUP1 PUSH4 0x42842E0E EQ PUSH2 0x38F JUMPI PUSH1 0x0 DUP1 REVERT JUMPDEST DUP1 PUSH4 0x7D88AAD GT PUSH2 0x1B6 JUMPI DUP1 PUSH4 0x7D88AAD EQ PUSH2 0x256 JUMPI DUP1 PUSH4 0x81812FC EQ PUSH2 0x2A8 JUMPI DUP1 PUSH4 0x95EA7B3 EQ PUSH2 0x2EB JUMPI DUP1 PUSH4 0x19F77171 EQ PUSH2 0x30B JUMPI PUSH1 0x0 DUP1 REVERT JUMPDEST DUP1 PUSH4 0x1FFC9A7 EQ PUSH2 0x1DD JUMPI DUP1 PUSH4 0x6FDDE03 EQ PUSH2 0x212 JUMPI DUP1 PUSH4 0x78DFBE7 EQ PUSH2 0x234 JUMPI JUMPDEST PUSH1 0x0 DUP1 REVERT JUMPDEST CALLVALUE DUP1 ISZERO PUSH2 0x1E9 JUMPI PUSH1 0x0 DUP1 REVERT JUMPDEST POP PUSH2 0x1FD PUSH2 0x1F8 CALLDATASIZE PUSH1 0x4 PUSH2 0x2C41 JUMP JUMPDEST PUSH2 0x818 JUMP JUMPDEST PUSH1 0x40 MLOAD SWAP1 ISZERO ISZERO DUP2 MSTORE PUSH1 0x20 ADD JUMPDEST PUSH1 0x40 MLOAD DUP1 SWAP2 SUB SWAP1 RETURN JUMPDEST CALLVALUE DUP1 ISZERO PUSH2 0x21E JUMPI PUSH1 0x0 DUP1 REVERT JUMPDEST POP PUSH2 0x227 PUSH2 0x8FD JUMP JUMPDEST PUSH1 0x40 MLOAD PUSH2 0x209 SWAP2 SWAP1 PUSH2 0x2CD4 JUMP JUMPDEST CALLVALUE DUP1 ISZERO PUSH2 0x240 JUMPI PUSH1 0x0 DUP1 REVERT JUMPDEST POP PUSH2 0x254 PUSH2 0x24F CALLDATASIZE PUSH1 0x4 PUSH2 0x2D1E JUMP JUMPDEST PUSH2 0x98B JUMP JUMPDEST STOP JUMPDEST CALLVALUE DUP1 ISZERO PUSH2 0x262 JUMPI PUSH1 0x0 DUP1 REVERT JUMPDEST POP PUSH1 0x8 SLOAD PUSH2 0x283 SWAP1 PUSH20 0xFFFFFFFFFFFFFFFFFFFFFFFFFFFFFFFFFFFFFFFF AND DUP2 JUMP JUMPDEST PUSH1 0x40 MLOAD PUSH20 0xFFFFFFFFFFFFFFFFFFFFFFFFFFFFFFFFFFFFFFFF SWAP1 SWAP2 AND DUP2 MSTORE PUSH1 0x20 ADD PUSH2 0x209 JUMP JUMPDEST CALLVALUE DUP1 ISZERO PUSH2 0x2B4 JUMPI PUSH1 0x0 DUP1 REVERT JUMPDEST POP PUSH2 0x283 PUSH2 0x2C3 CALLDATASIZE PUSH1 0x4 PUSH2 0x2D63 JUMP JUMPDEST PUSH1 0x4 PUSH1 0x20 MSTORE PUSH1 0x0 SWAP1 DUP2 MSTORE PUSH1 0x40 SWAP1 KECCAK256 SLOAD PUSH20 0xFFFFFFFFFFFFFFFFFFFFFFFFFFFFFFFFFFFFFFFF AND DUP2 JUMP JUMPDEST CALLVALUE DUP1 ISZERO PUSH2 0x2F7 JUMPI PUSH1 0x0 DUP1 REVERT JUMPDEST POP PUSH2 0x254 PUSH2 0x306 CALLDATASIZE PUSH1 0x4 PUSH2 0x2D7C JUMP JUMPDEST PUSH2 0xB7C JUMP JUMPDEST CALLVALUE DUP1 ISZERO PUSH2 0x317 JUMPI PUSH1 0x0 DUP1 REVERT JUMPDEST POP PUSH2 0x32B PUSH2 0x326 CALLDATASIZE PUSH1 0x4 PUSH2 0x2D63 JUMP JUMPDEST PUSH2 0xCC6 JUMP JUMPDEST PUSH1 0x40 MLOAD SWAP1 DUP2 MSTORE PUSH1 0x20 ADD PUSH2 0x209 JUMP JUMPDEST CALLVALUE DUP1 ISZERO PUSH2 0x345 JUMPI PUSH1 0x0 DUP1 REVERT JUMPDEST POP PUSH2 0x254 PUSH2 0x354 CALLDATASIZE PUSH1 0x4 PUSH2 0x2DA8 JUMP JUMPDEST PUSH2 0xDED JUMP JUMPDEST CALLVALUE DUP1 ISZERO PUSH2 0x365 JUMPI PUSH1 0x0 DUP1 REVERT JUMPDEST POP PUSH2 0x32B PUSH1 0xA SLOAD DUP2 JUMP JUMPDEST CALLVALUE DUP1 ISZERO PUSH2 0x37B JUMPI PUSH1 0x0 DUP1 REVERT JUMPDEST POP PUSH2 0x254 PUSH2 0x38A CALLDATASIZE PUSH1 0x4 PUSH2 0x2DE9 JUMP JUMPDEST PUSH2 0x10B4 JUMP JUMPDEST CALLVALUE DUP1 ISZERO PUSH2 0x39B JUMPI PUSH1 0x0 DUP1 REVERT JUMPDEST POP PUSH2 0x254 PUSH2 0x3AA CALLDATASIZE PUSH1 0x4 PUSH2 0x2DA8 JUMP JUMPDEST PUSH2 0x13C2 JUMP JUMPDEST PUSH2 0x254 PUSH2 0x3BD CALLDATASIZE PUSH1 0x4 PUSH2 0x2E76 JUMP JUMPDEST PUSH2 0x1527 JUMP JUMPDEST CALLVALUE DUP1 ISZERO PUSH2 0x3CE JUMPI PUSH1 0x0 DUP1 REVERT JUMPDEST POP PUSH2 0x254 PUSH2 0x15F4 JUMP JUMPDEST CALLVALUE DUP1 ISZERO PUSH2 0x3E3 JUMPI PUSH1 0x0 DUP1 REVERT JUMPDEST POP PUSH2 0x4D0 PUSH2 0x3F2 CALLDATASIZE PUSH1 0x4 PUSH2 0x2D63 JUMP JUMPDEST PUSH1 0x9 PUSH1 0x20 MSTORE PUSH1 0x0 SWAP1 DUP2 MSTORE PUSH1 0x40 SWAP1 KECCAK256 DUP1 SLOAD PUSH1 0x1 DUP3 ADD SLOAD PUSH1 0x2 DUP4 ADD SLOAD PUSH1 0x3 SWAP1 SWAP4 ADD SLOAD PUSH20 0xFFFFFFFFFFFFFFFFFFFFFFFFFFFFFFFFFFFFFFFF SWAP3 DUP4 AND SWAP4 SWAP3 DUP3 AND SWAP3 PUSH4 0xFFFFFFFF PUSH21 0x10000000000000000000000000000000000000000 DUP5 DIV DUP2 AND SWAP4 PUSH25 0x1000000000000000000000000000000000000000000000000 DUP2 DIV DUP3 AND SWAP4 PUSH29 0x100000000000000000000000000000000000000000000000000000000 SWAP1 SWAP2 DIV DUP3 AND SWAP3 SWAP2 DUP3 AND SWAP2 PUSH16 0xFFFFFFFFFFFFFFFFFFFFFFFFFFFFFFFF PUSH5 0x100000000 SWAP1 SWAP2 DIV DUP2 AND SWAP2 DUP1 DUP3 AND SWAP2 PUSH17 0x100000000000000000000000000000000 SWAP1 SWAP2 DIV AND DUP10 JUMP JUMPDEST PUSH1 0x40 DUP1 MLOAD PUSH20 0xFFFFFFFFFFFFFFFFFFFFFFFFFFFFFFFFFFFFFFFF SWAP11 DUP12 AND DUP2 MSTORE SWAP10 SWAP1 SWAP9 AND PUSH1 0x20 DUP11 ADD MSTORE PUSH4 0xFFFFFFFF SWAP7 DUP8 AND SWAP8 DUP10 ADD SWAP8 SWAP1 SWAP8 MSTORE SWAP4 DUP6 AND PUSH1 0x60 DUP9 ADD MSTORE SWAP2 DUP5 AND PUSH1 0x80 DUP8 ADD MSTORE SWAP3 SWAP1 SWAP3 AND PUSH1 0xA0 DUP6 ADD MSTORE PUSH16 0xFFFFFFFFFFFFFFFFFFFFFFFFFFFFFFFF SWAP2 DUP3 AND PUSH1 0xC0 DUP6 ADD MSTORE DUP2 AND PUSH1 0xE0 DUP5 ADD MSTORE AND PUSH2 0x100 DUP3 ADD MSTORE PUSH2 0x120 ADD PUSH2 0x209 JUMP JUMPDEST CALLVALUE DUP1 ISZERO PUSH2 0x55B JUMPI PUSH1 0x0 DUP1 REVERT JUMPDEST POP PUSH2 0x283 PUSH2 0x56A CALLDATASIZE PUSH1 0x4 PUSH2 0x2D63 JUMP JUMPDEST PUSH1 0x3 PUSH1 0x20 MSTORE PUSH1 0x0 SWAP1 DUP2 MSTORE PUSH1 0x40 SWAP1 KECCAK256 SLOAD PUSH20 0xFFFFFFFFFFFFFFFFFFFFFFFFFFFFFFFFFFFFFFFF AND DUP2 JUMP JUMPDEST CALLVALUE DUP1 ISZERO PUSH2 0x59E JUMPI PUSH1 0x0 DUP1 REVERT JUMPDEST POP PUSH2 0x283 PUSH32 0x0 DUP2 JUMP JUMPDEST CALLVALUE DUP1 ISZERO PUSH2 0x5D2 JUMPI PUSH1 0x0 DUP1 REVERT JUMPDEST POP PUSH2 0x32B PUSH2 0x5E1 CALLDATASIZE PUSH1 0x4 PUSH2 0x2ED5 JUMP JUMPDEST PUSH1 0x2 PUSH1 0x20 MSTORE PUSH1 0x0 SWAP1 DUP2 MSTORE PUSH1 0x40 SWAP1 KECCAK256 SLOAD DUP2 JUMP JUMPDEST CALLVALUE DUP1 ISZERO PUSH2 0x5FF JUMPI PUSH1 0x0 DUP1 REVERT JUMPDEST POP PUSH2 0x254 PUSH2 0x60E CALLDATASIZE PUSH1 0x4 PUSH2 0x2EF2 JUMP JUMPDEST PUSH2 0x170B JUMP JUMPDEST CALLVALUE DUP1 ISZERO PUSH2 0x61F JUMPI PUSH1 0x0 DUP1 REVERT JUMPDEST POP PUSH1 0x6 SLOAD PUSH2 0x283 SWAP1 PUSH20 0xFFFFFFFFFFFFFFFFFFFFFFFFFFFFFFFFFFFFFFFF AND DUP2 JUMP JUMPDEST CALLVALUE DUP1 ISZERO PUSH2 0x64C JUMPI PUSH1 0x0 DUP1 REVERT JUMPDEST POP PUSH2 0x227 PUSH2 0x17D9 JUMP JUMPDEST CALLVALUE DUP1 ISZERO PUSH2 0x661 JUMPI PUSH1 0x0 DUP1 REVERT JUMPDEST POP PUSH2 0x254 PUSH2 0x670 CALLDATASIZE PUSH1 0x4 PUSH2 0x2F22 JUMP JUMPDEST PUSH2 0x17E6 JUMP JUMPDEST CALLVALUE DUP1 ISZERO PUSH2 0x681 JUMPI PUSH1 0x0 DUP1 REVERT JUMPDEST POP PUSH2 0x254 PUSH2 0x690 CALLDATASIZE PUSH1 0x4 PUSH2 0x2F4E JUMP JUMPDEST PUSH2 0x1AA9 JUMP JUMPDEST PUSH2 0x6A8 PUSH2 0x6A3 CALLDATASIZE PUSH1 0x4 PUSH2 0x2F7A JUMP JUMPDEST PUSH2 0x1B40 JUMP JUMPDEST PUSH1 0x40 MLOAD PUSH2 0x209 SWAP2 SWAP1 PUSH2 0x2FEF JUMP JUMPDEST CALLVALUE DUP1 ISZERO PUSH2 0x6C1 JUMPI PUSH1 0x0 DUP1 REVERT JUMPDEST POP PUSH2 0x254 PUSH2 0x6D0 CALLDATASIZE PUSH1 0x4 PUSH2 0x2ED5 JUMP JUMPDEST PUSH2 0x1CB2 JUMP JUMPDEST CALLVALUE DUP1 ISZERO PUSH2 0x6E1 JUMPI PUSH1 0x0 DUP1 REVERT JUMPDEST POP PUSH2 0x254 PUSH2 0x6F0 CALLDATASIZE PUSH1 0x4 PUSH2 0x3133 JUMP JUMPDEST PUSH2 0x1D7A JUMP JUMPDEST CALLVALUE DUP1 ISZERO PUSH2 0x701 JUMPI PUSH1 0x0 DUP1 REVERT JUMPDEST POP PUSH2 0x227 PUSH2 0x710 CALLDATASIZE PUSH1 0x4 PUSH2 0x2D63 JUMP JUMPDEST PUSH2 0x1ECB JUMP JUMPDEST CALLVALUE DUP1 ISZERO PUSH2 0x721 JUMPI PUSH1 0x0 DUP1 REVERT JUMPDEST POP PUSH2 0x32B PUSH8 0xDE0B6B3A7640000 DUP2 JUMP JUMPDEST CALLVALUE DUP1 ISZERO PUSH2 0x73D JUMPI PUSH1 0x0 DUP1 REVERT JUMPDEST POP PUSH1 0x7 SLOAD PUSH2 0x283 SWAP1 PUSH20 0xFFFFFFFFFFFFFFFFFFFFFFFFFFFFFFFFFFFFFFFF AND DUP2 JUMP JUMPDEST CALLVALUE DUP1 ISZERO PUSH2 0x76A JUMPI PUSH1 0x0 DUP1 REVERT JUMPDEST POP PUSH2 0x1FD PUSH2 0x779 CALLDATASIZE PUSH1 0x4 PUSH2 0x31E2 JUMP JUMPDEST PUSH1 0x5 PUSH1 0x20 SWAP1 DUP2 MSTORE PUSH1 0x0 SWAP3 DUP4 MSTORE PUSH1 0x40 DUP1 DUP5 KECCAK256 SWAP1 SWAP2 MSTORE SWAP1 DUP3 MSTORE SWAP1 KECCAK256 SLOAD PUSH1 0xFF AND DUP2 JUMP JUMPDEST PUSH2 0x7AC PUSH2 0x7A7 CALLDATASIZE PUSH1 0x4 PUSH2 0x3210 JUMP JUMPDEST PUSH2 0x1F81 JUMP JUMPDEST PUSH1 0x40 DUP1 MLOAD SWAP5 DUP6 MSTORE PUSH1 0x20 DUP6 ADD SWAP4 SWAP1 SWAP4 MSTORE PUSH16 0xFFFFFFFFFFFFFFFFFFFFFFFFFFFFFFFF SWAP2 DUP3 AND SWAP3 DUP5 ADD SWAP3 SWAP1 SWAP3 MSTORE AND PUSH1 0x60 DUP3 ADD MSTORE PUSH1 0x80 ADD PUSH2 0x209 JUMP JUMPDEST CALLVALUE DUP1 ISZERO PUSH2 0x7F0 JUMPI PUSH1 0x0 DUP1 REVERT JUMPDEST POP PUSH2 0x283 PUSH32 0x0 DUP2 JUMP JUMPDEST PUSH1 0x0 PUSH32 0x1FFC9A700000000000000000000000000000000000000000000000000000000 PUSH32 0xFFFFFFFF00000000000000000000000000000000000000000000000000000000 DUP4 AND EQ DUP1 PUSH2 0x8AB JUMPI POP PUSH32 0x80AC58CD00000000000000000000000000000000000000000000000000000000 PUSH32 0xFFFFFFFF00000000000000000000000000000000000000000000000000000000 DUP4 AND EQ JUMPDEST DUP1 PUSH2 0x8F7 JUMPI POP PUSH32 0x5B5E139F00000000000000000000000000000000000000000000000000000000 PUSH32 0xFFFFFFFF00000000000000000000000000000000000000000000000000000000 DUP4 AND EQ JUMPDEST SWAP3 SWAP2 POP POP JUMP JUMPDEST PUSH1 0x0 DUP1 SLOAD PUSH2 0x90A SWAP1 PUSH2 0x3229 JUMP JUMPDEST DUP1 PUSH1 0x1F ADD PUSH1 0x20 DUP1 SWAP2 DIV MUL PUSH1 0x20 ADD PUSH1 0x40 MLOAD SWAP1 DUP2 ADD PUSH1 0x40 MSTORE DUP1 SWAP3 SWAP2 SWAP1 DUP2 DUP2 MSTORE PUSH1 0x20 ADD DUP3 DUP1 SLOAD PUSH2 0x936 SWAP1 PUSH2 0x3229 JUMP JUMPDEST DUP1 ISZERO PUSH2 0x983 JUMPI DUP1 PUSH1 0x1F LT PUSH2 0x958 JUMPI PUSH2 0x100 DUP1 DUP4 SLOAD DIV MUL DUP4 MSTORE SWAP2 PUSH1 0x20 ADD SWAP2 PUSH2 0x983 JUMP JUMPDEST DUP3 ADD SWAP2 SWAP1 PUSH1 0x0 MSTORE PUSH1 0x20 PUSH1 0x0 KECCAK256 SWAP1 JUMPDEST DUP2 SLOAD DUP2 MSTORE SWAP1 PUSH1 0x1 ADD SWAP1 PUSH1 0x20 ADD DUP1 DUP4 GT PUSH2 0x966 JUMPI DUP3 SWAP1 SUB PUSH1 0x1F AND DUP3 ADD SWAP2 JUMPDEST POP POP POP POP POP DUP2 JUMP JUMPDEST PUSH1 0x6 SLOAD PUSH20 0xFFFFFFFFFFFFFFFFFFFFFFFFFFFFFFFFFFFFFFFF AND CALLER EQ PUSH2 0xA11 JUMPI PUSH1 0x40 MLOAD PUSH32 0x8C379A000000000000000000000000000000000000000000000000000000000 DUP2 MSTORE PUSH1 0x20 PUSH1 0x4 DUP3 ADD DUP2 SWAP1 MSTORE PUSH1 0x24 DUP3 ADD MSTORE PUSH32 0x4F776E61626C653A2063616C6C6572206973206E6F7420746865206F776E6572 PUSH1 0x44 DUP3 ADD MSTORE PUSH1 0x64 ADD JUMPDEST PUSH1 0x40 MLOAD DUP1 SWAP2 SUB SWAP1 REVERT JUMPDEST DUP2 ISZERO PUSH2 0xB36 JUMPI PUSH20 0xFFFFFFFFFFFFFFFFFFFFFFFFFFFFFFFFFFFFFFFF DUP4 AND ISZERO ISZERO DUP1 PUSH2 0xA38 JUMPI POP DUP1 JUMPDEST PUSH2 0xA9E JUMPI PUSH1 0x40 MLOAD PUSH32 0x8C379A000000000000000000000000000000000000000000000000000000000 DUP2 MSTORE PUSH1 0x20 PUSH1 0x4 DUP3 ADD MSTORE PUSH1 0x15 PUSH1 0x24 DUP3 ADD MSTORE PUSH32 0x4F776E61626C653A207A65726F20616464726573730000000000000000000000 PUSH1 0x44 DUP3 ADD MSTORE PUSH1 0x64 ADD PUSH2 0xA08 JUMP JUMPDEST PUSH1 0x6 SLOAD PUSH1 0x40 MLOAD PUSH20 0xFFFFFFFFFFFFFFFFFFFFFFFFFFFFFFFFFFFFFFFF DUP1 DUP7 AND SWAP3 AND SWAP1 PUSH32 0x8BE0079C531659141344CD1FD0A4F28419497F9722A3DAAFE3B4186F6B6457E0 SWAP1 PUSH1 0x0 SWAP1 LOG3 PUSH1 0x6 DUP1 SLOAD PUSH20 0xFFFFFFFFFFFFFFFFFFFFFFFFFFFFFFFFFFFFFFFF DUP6 AND PUSH32 0xFFFFFFFFFFFFFFFFFFFFFFFF0000000000000000000000000000000000000000 SWAP2 DUP3 AND OR SWAP1 SWAP2 SSTORE PUSH1 0x7 DUP1 SLOAD SWAP1 SWAP2 AND SWAP1 SSTORE POP POP POP JUMP JUMPDEST PUSH1 0x7 DUP1 SLOAD PUSH32 0xFFFFFFFFFFFFFFFFFFFFFFFF0000000000000000000000000000000000000000 AND PUSH20 0xFFFFFFFFFFFFFFFFFFFFFFFFFFFFFFFFFFFFFFFF DUP6 AND OR SWAP1 SSTORE JUMPDEST POP POP POP JUMP JUMPDEST PUSH1 0x0 DUP2 DUP2 MSTORE PUSH1 0x3 PUSH1 0x20 MSTORE PUSH1 0x40 SWAP1 KECCAK256 SLOAD PUSH20 0xFFFFFFFFFFFFFFFFFFFFFFFFFFFFFFFFFFFFFFFF AND CALLER DUP2 EQ DUP1 PUSH2 0xBDF JUMPI POP PUSH20 0xFFFFFFFFFFFFFFFFFFFFFFFFFFFFFFFFFFFFFFFF DUP2 AND PUSH1 0x0 SWAP1 DUP2 MSTORE PUSH1 0x5 PUSH1 0x20 SWAP1 DUP2 MSTORE PUSH1 0x40 DUP1 DUP4 KECCAK256 CALLER DUP5 MSTORE SWAP1 SWAP2 MSTORE SWAP1 KECCAK256 SLOAD PUSH1 0xFF AND JUMPDEST PUSH2 0xC45 JUMPI PUSH1 0x40 MLOAD PUSH32 0x8C379A000000000000000000000000000000000000000000000000000000000 DUP2 MSTORE PUSH1 0x20 PUSH1 0x4 DUP3 ADD MSTORE PUSH1 0xE PUSH1 0x24 DUP3 ADD MSTORE PUSH32 0x4E4F545F415554484F52495A4544000000000000000000000000000000000000 PUSH1 0x44 DUP3 ADD MSTORE PUSH1 0x64 ADD PUSH2 0xA08 JUMP JUMPDEST PUSH1 0x0 DUP3 DUP2 MSTORE PUSH1 0x4 PUSH1 0x20 MSTORE PUSH1 0x40 DUP1 DUP3 KECCAK256 DUP1 SLOAD PUSH32 0xFFFFFFFFFFFFFFFFFFFFFFFF0000000000000000000000000000000000000000 AND PUSH20 0xFFFFFFFFFFFFFFFFFFFFFFFFFFFFFFFFFFFFFFFF DUP8 DUP2 AND SWAP2 DUP3 OR SWAP1 SWAP3 SSTORE SWAP2 MLOAD DUP6 SWAP4 SWAP2 DUP6 AND SWAP2 PUSH32 0x8C5BE1E5EBEC7D5BD14F71427D1E84F3DD0314C0F7B2291E5B200AC8C7C3B925 SWAP2 LOG4 POP POP POP JUMP JUMPDEST PUSH1 0x0 DUP2 DUP2 MSTORE PUSH1 0x9 PUSH1 0x20 SWAP1 DUP2 MSTORE PUSH1 0x40 DUP1 DUP4 KECCAK256 DUP2 MLOAD PUSH2 0x120 DUP2 ADD DUP4 MSTORE DUP2 SLOAD PUSH20 0xFFFFFFFFFFFFFFFFFFFFFFFFFFFFFFFFFFFFFFFF SWAP1 DUP2 AND DUP3 MSTORE PUSH1 0x1 DUP4 ADD SLOAD SWAP1 DUP2 AND SWAP5 DUP3 ADD SWAP5 SWAP1 SWAP5 MSTORE PUSH4 0xFFFFFFFF PUSH21 0x10000000000000000000000000000000000000000 DUP6 DIV DUP2 AND SWAP4 DUP3 ADD SWAP4 SWAP1 SWAP4 MSTORE PUSH25 0x1000000000000000000000000000000000000000000000000 DUP5 DIV DUP4 AND PUSH1 0x60 DUP3 ADD MSTORE PUSH29 0x100000000000000000000000000000000000000000000000000000000 SWAP1 SWAP4 DIV DUP3 AND PUSH1 0x80 DUP5 ADD MSTORE PUSH1 0x2 DUP2 ADD SLOAD SWAP2 DUP3 AND PUSH1 0xA0 DUP5 ADD MSTORE PUSH16 0xFFFFFFFFFFFFFFFFFFFFFFFFFFFFFFFF PUSH5 0x100000000 SWAP1 SWAP3 DIV DUP3 AND PUSH1 0xC0 DUP5 ADD MSTORE PUSH1 0x3 ADD SLOAD DUP1 DUP3 AND PUSH1 0xE0 DUP5 ADD MSTORE PUSH17 0x100000000000000000000000000000000 SWAP1 DIV AND PUSH2 0x100 DUP3 ADD DUP2 SWAP1 MSTORE PUSH2 0xDDC DUP3 PUSH2 0x2584 JUMP JUMPDEST PUSH2 0xDE6 SWAP2 SWAP1 PUSH2 0x32A6 JUMP JUMPDEST SWAP4 SWAP3 POP POP POP JUMP JUMPDEST PUSH1 0x0 DUP2 DUP2 MSTORE PUSH1 0x3 PUSH1 0x20 MSTORE PUSH1 0x40 SWAP1 KECCAK256 SLOAD PUSH20 0xFFFFFFFFFFFFFFFFFFFFFFFFFFFFFFFFFFFFFFFF DUP5 DUP2 AND SWAP2 AND EQ PUSH2 0xE7D JUMPI PUSH1 0x40 MLOAD PUSH32 0x8C379A000000000000000000000000000000000000000000000000000000000 DUP2 MSTORE PUSH1 0x20 PUSH1 0x4 DUP3 ADD MSTORE PUSH1 0xA PUSH1 0x24 DUP3 ADD MSTORE PUSH32 0x57524F4E475F46524F4D00000000000000000000000000000000000000000000 PUSH1 0x44 DUP3 ADD MSTORE PUSH1 0x64 ADD PUSH2 0xA08 JUMP JUMPDEST PUSH20 0xFFFFFFFFFFFFFFFFFFFFFFFFFFFFFFFFFFFFFFFF DUP3 AND PUSH2 0xEFA JUMPI PUSH1 0x40 MLOAD PUSH32 0x8C379A000000000000000000000000000000000000000000000000000000000 DUP2 MSTORE PUSH1 0x20 PUSH1 0x4 DUP3 ADD MSTORE PUSH1 0x11 PUSH1 0x24 DUP3 ADD MSTORE PUSH32 0x494E56414C49445F524543495049454E54000000000000000000000000000000 PUSH1 0x44 DUP3 ADD MSTORE PUSH1 0x64 ADD PUSH2 0xA08 JUMP JUMPDEST CALLER PUSH20 0xFFFFFFFFFFFFFFFFFFFFFFFFFFFFFFFFFFFFFFFF DUP5 AND EQ DUP1 PUSH2 0xF41 JUMPI POP PUSH1 0x0 DUP2 DUP2 MSTORE PUSH1 0x4 PUSH1 0x20 MSTORE PUSH1 0x40 SWAP1 KECCAK256 SLOAD PUSH20 0xFFFFFFFFFFFFFFFFFFFFFFFFFFFFFFFFFFFFFFFF AND CALLER EQ JUMPDEST DUP1 PUSH2 0xF7C JUMPI POP PUSH20 0xFFFFFFFFFFFFFFFFFFFFFFFFFFFFFFFFFFFFFFFF DUP4 AND PUSH1 0x0 SWAP1 DUP2 MSTORE PUSH1 0x5 PUSH1 0x20 SWAP1 DUP2 MSTORE PUSH1 0x40 DUP1 DUP4 KECCAK256 CALLER DUP5 MSTORE SWAP1 SWAP2 MSTORE SWAP1 KECCAK256 SLOAD PUSH1 0xFF AND JUMPDEST PUSH2 0xFE2 JUMPI PUSH1 0x40 MLOAD PUSH32 0x8C379A000000000000000000000000000000000000000000000000000000000 DUP2 MSTORE PUSH1 0x20 PUSH1 0x4 DUP3 ADD MSTORE PUSH1 0xE PUSH1 0x24 DUP3 ADD MSTORE PUSH32 0x4E4F545F415554484F52495A4544000000000000000000000000000000000000 PUSH1 0x44 DUP3 ADD MSTORE PUSH1 0x64 ADD PUSH2 0xA08 JUMP JUMPDEST PUSH20 0xFFFFFFFFFFFFFFFFFFFFFFFFFFFFFFFFFFFFFFFF DUP1 DUP5 AND PUSH1 0x0 DUP2 DUP2 MSTORE PUSH1 0x2 PUSH1 0x20 SWAP1 DUP2 MSTORE PUSH1 0x40 DUP1 DUP4 KECCAK256 DUP1 SLOAD PUSH32 0xFFFFFFFFFFFFFFFFFFFFFFFFFFFFFFFFFFFFFFFFFFFFFFFFFFFFFFFFFFFFFFFF ADD SWAP1 SSTORE SWAP4 DUP7 AND DUP1 DUP4 MSTORE DUP5 DUP4 KECCAK256 DUP1 SLOAD PUSH1 0x1 ADD SWAP1 SSTORE DUP6 DUP4 MSTORE PUSH1 0x3 DUP3 MSTORE DUP5 DUP4 KECCAK256 DUP1 SLOAD PUSH32 0xFFFFFFFFFFFFFFFFFFFFFFFF0000000000000000000000000000000000000000 SWAP1 DUP2 AND DUP4 OR SWAP1 SWAP2 SSTORE PUSH1 0x4 SWAP1 SWAP3 MSTORE DUP5 DUP4 KECCAK256 DUP1 SLOAD SWAP1 SWAP3 AND SWAP1 SWAP2 SSTORE SWAP3 MLOAD DUP5 SWAP4 SWAP3 SWAP2 PUSH32 0xDDF252AD1BE2C89B69C2B068FC378DAA952BA7F163C4A11628F55A4DF523B3EF SWAP2 LOG4 POP POP POP JUMP JUMPDEST PUSH1 0x0 DUP5 DUP2 MSTORE PUSH1 0x9 PUSH1 0x20 SWAP1 DUP2 MSTORE PUSH1 0x40 DUP1 DUP4 KECCAK256 PUSH1 0x3 SWAP1 SWAP3 MSTORE SWAP1 SWAP2 KECCAK256 SLOAD PUSH20 0xFFFFFFFFFFFFFFFFFFFFFFFFFFFFFFFFFFFFFFFF AND CALLER DUP2 EQ PUSH2 0x111D JUMPI PUSH1 0x40 MLOAD PUSH32 0xE1C6117100000000000000000000000000000000000000000000000000000000 DUP2 MSTORE PUSH1 0x4 ADD PUSH1 0x40 MLOAD DUP1 SWAP2 SUB SWAP1 REVERT JUMPDEST PUSH1 0x3 DUP3 ADD SLOAD PUSH1 0x40 DUP1 MLOAD PUSH2 0x120 DUP2 ADD DUP3 MSTORE DUP5 SLOAD PUSH20 0xFFFFFFFFFFFFFFFFFFFFFFFFFFFFFFFFFFFFFFFF SWAP1 DUP2 AND DUP3 MSTORE PUSH1 0x1 DUP7 ADD SLOAD SWAP1 DUP2 AND PUSH1 0x20 DUP4 ADD MSTORE PUSH21 0x10000000000000000000000000000000000000000 DUP2 DIV PUSH4 0xFFFFFFFF SWAP1 DUP2 AND SWAP4 DUP4 ADD SWAP4 SWAP1 SWAP4 MSTORE PUSH25 0x1000000000000000000000000000000000000000000000000 DUP2 DIV DUP4 AND PUSH1 0x60 DUP4 ADD MSTORE PUSH29 0x100000000000000000000000000000000000000000000000000000000 SWAP1 DIV DUP3 AND PUSH1 0x80 DUP3 ADD MSTORE PUSH1 0x2 DUP6 ADD SLOAD SWAP2 DUP3 AND PUSH1 0xA0 DUP3 ADD MSTORE PUSH16 0xFFFFFFFFFFFFFFFFFFFFFFFFFFFFFFFF PUSH5 0x100000000 SWAP1 SWAP3 DIV DUP3 AND PUSH1 0xC0 DUP3 ADD MSTORE DUP2 DUP4 AND PUSH1 0xE0 DUP3 ADD MSTORE PUSH17 0x100000000000000000000000000000000 SWAP1 SWAP3 DIV AND PUSH2 0x100 DUP3 ADD DUP2 SWAP1 MSTORE PUSH1 0x0 SWAP2 PUSH2 0x1227 SWAP1 PUSH2 0x2584 JUMP JUMPDEST PUSH2 0x1231 SWAP2 SWAP1 PUSH2 0x32A6 JUMP JUMPDEST SWAP1 POP DUP1 PUSH2 0x1240 JUMPI POP POP POP PUSH2 0x13BC JUMP JUMPDEST DUP1 DUP4 PUSH1 0x3 ADD PUSH1 0x10 DUP3 DUP3 DUP3 SWAP1 SLOAD SWAP1 PUSH2 0x100 EXP SWAP1 DIV PUSH16 0xFFFFFFFFFFFFFFFFFFFFFFFFFFFFFFFF AND PUSH2 0x126F SWAP2 SWAP1 PUSH2 0x32BD JUMP JUMPDEST SWAP3 POP PUSH2 0x100 EXP DUP2 SLOAD DUP2 PUSH16 0xFFFFFFFFFFFFFFFFFFFFFFFFFFFFFFFF MUL NOT AND SWAP1 DUP4 PUSH16 0xFFFFFFFFFFFFFFFFFFFFFFFFFFFFFFFF AND MUL OR SWAP1 SSTORE POP PUSH2 0x12D6 DUP4 PUSH1 0x1 ADD PUSH1 0x0 SWAP1 SLOAD SWAP1 PUSH2 0x100 EXP SWAP1 DIV PUSH20 0xFFFFFFFFFFFFFFFFFFFFFFFFFFFFFFFFFFFFFFFF AND ADDRESS DUP5 DUP5 DUP9 PUSH2 0x2638 JUMP JUMPDEST DUP5 ISZERO PUSH2 0x1363 JUMPI PUSH1 0x40 MLOAD PUSH32 0x330DF28200000000000000000000000000000000000000000000000000000000 DUP2 MSTORE PUSH20 0xFFFFFFFFFFFFFFFFFFFFFFFFFFFFFFFFFFFFFFFF DUP4 AND SWAP1 PUSH4 0x330DF282 SWAP1 PUSH2 0x1330 SWAP1 DUP10 SWAP1 DUP10 SWAP1 PUSH1 0x4 ADD PUSH2 0x32F1 JUMP JUMPDEST PUSH1 0x0 PUSH1 0x40 MLOAD DUP1 DUP4 SUB DUP2 PUSH1 0x0 DUP8 DUP1 EXTCODESIZE ISZERO DUP1 ISZERO PUSH2 0x134A JUMPI PUSH1 0x0 DUP1 REVERT JUMPDEST POP GAS CALL ISZERO DUP1 ISZERO PUSH2 0x135E JUMPI RETURNDATASIZE PUSH1 0x0 DUP1 RETURNDATACOPY RETURNDATASIZE PUSH1 0x0 REVERT JUMPDEST POP POP POP POP JUMPDEST PUSH1 0x1 DUP4 ADD SLOAD PUSH1 0x40 MLOAD DUP6 ISZERO ISZERO DUP2 MSTORE DUP3 SWAP2 PUSH20 0xFFFFFFFFFFFFFFFFFFFFFFFFFFFFFFFFFFFFFFFF AND SWAP1 DUP10 SWAP1 PUSH32 0xFF942D249898505FEBB2A9A00118E27567C084B9497D0AA3BA5E332C235B4F38 SWAP1 PUSH1 0x20 ADD PUSH1 0x40 MLOAD DUP1 SWAP2 SUB SWAP1 LOG4 POP POP POP JUMPDEST POP POP POP POP JUMP JUMPDEST PUSH2 0x13CD DUP4 DUP4 DUP4 PUSH2 0xDED JUMP JUMPDEST PUSH20 0xFFFFFFFFFFFFFFFFFFFFFFFFFFFFFFFFFFFFFFFF DUP3 AND EXTCODESIZE ISZERO DUP1 PUSH2 0x14C1 JUMPI POP PUSH1 0x40 MLOAD PUSH32 0x150B7A0200000000000000000000000000000000000000000000000000000000 DUP1 DUP3 MSTORE CALLER PUSH1 0x4 DUP4 ADD MSTORE PUSH20 0xFFFFFFFFFFFFFFFFFFFFFFFFFFFFFFFFFFFFFFFF DUP6 DUP2 AND PUSH1 0x24 DUP5 ADD MSTORE PUSH1 0x44 DUP4 ADD DUP5 SWAP1 MSTORE PUSH1 0x80 PUSH1 0x64 DUP5 ADD MSTORE PUSH1 0x0 PUSH1 0x84 DUP5 ADD MSTORE SWAP1 SWAP2 SWAP1 DUP5 AND SWAP1 PUSH4 0x150B7A02 SWAP1 PUSH1 0xA4 ADD PUSH1 0x20 PUSH1 0x40 MLOAD DUP1 DUP4 SUB DUP2 PUSH1 0x0 DUP8 GAS CALL ISZERO DUP1 ISZERO PUSH2 0x1479 JUMPI RETURNDATASIZE PUSH1 0x0 DUP1 RETURNDATACOPY RETURNDATASIZE PUSH1 0x0 REVERT JUMPDEST POP POP POP POP PUSH1 0x40 MLOAD RETURNDATASIZE PUSH1 0x1F NOT PUSH1 0x1F DUP3 ADD AND DUP3 ADD DUP1 PUSH1 0x40 MSTORE POP DUP2 ADD SWAP1 PUSH2 0x149D SWAP2 SWAP1 PUSH2 0x333E JUMP JUMPDEST PUSH32 0xFFFFFFFF00000000000000000000000000000000000000000000000000000000 AND EQ JUMPDEST PUSH2 0xB77 JUMPI PUSH1 0x40 MLOAD PUSH32 0x8C379A000000000000000000000000000000000000000000000000000000000 DUP2 MSTORE PUSH1 0x20 PUSH1 0x4 DUP3 ADD MSTORE PUSH1 0x10 PUSH1 0x24 DUP3 ADD MSTORE PUSH32 0x554E534146455F524543495049454E5400000000000000000000000000000000 PUSH1 0x44 DUP3 ADD MSTORE PUSH1 0x64 ADD PUSH2 0xA08 JUMP JUMPDEST PUSH1 0x40 MLOAD PUSH32 0xC0A47C9300000000000000000000000000000000000000000000000000000000 DUP2 MSTORE PUSH20 0xFFFFFFFFFFFFFFFFFFFFFFFFFFFFFFFFFFFFFFFF DUP7 DUP2 AND PUSH1 0x4 DUP4 ADD MSTORE ADDRESS PUSH1 0x24 DUP4 ADD MSTORE DUP6 ISZERO ISZERO PUSH1 0x44 DUP4 ADD MSTORE PUSH1 0xFF DUP6 AND PUSH1 0x64 DUP4 ADD MSTORE PUSH1 0x84 DUP3 ADD DUP5 SWAP1 MSTORE PUSH1 0xA4 DUP3 ADD DUP4 SWAP1 MSTORE PUSH32 0x0 AND SWAP1 PUSH4 0xC0A47C93 SWAP1 PUSH1 0xC4 ADD PUSH1 0x0 PUSH1 0x40 MLOAD DUP1 DUP4 SUB DUP2 PUSH1 0x0 DUP8 DUP1 EXTCODESIZE ISZERO DUP1 ISZERO PUSH2 0x15D5 JUMPI PUSH1 0x0 DUP1 REVERT JUMPDEST POP GAS CALL ISZERO DUP1 ISZERO PUSH2 0x15E9 JUMPI RETURNDATASIZE PUSH1 0x0 DUP1 RETURNDATACOPY RETURNDATASIZE PUSH1 0x0 REVERT JUMPDEST POP POP POP POP POP POP POP POP POP JUMP JUMPDEST PUSH1 0x7 SLOAD PUSH20 0xFFFFFFFFFFFFFFFFFFFFFFFFFFFFFFFFFFFFFFFF AND CALLER DUP2 EQ PUSH2 0x1676 JUMPI PUSH1 0x40 MLOAD PUSH32 0x8C379A000000000000000000000000000000000000000000000000000000000 DUP2 MSTORE PUSH1 0x20 PUSH1 0x4 DUP3 ADD DUP2 SWAP1 MSTORE PUSH1 0x24 DUP3 ADD MSTORE PUSH32 0x4F776E61626C653A2063616C6C657220213D2070656E64696E67206F776E6572 PUSH1 0x44 DUP3 ADD MSTORE PUSH1 0x64 ADD PUSH2 0xA08 JUMP JUMPDEST PUSH1 0x6 SLOAD PUSH1 0x40 MLOAD PUSH20 0xFFFFFFFFFFFFFFFFFFFFFFFFFFFFFFFFFFFFFFFF DUP1 DUP5 AND SWAP3 AND SWAP1 PUSH32 0x8BE0079C531659141344CD1FD0A4F28419497F9722A3DAAFE3B4186F6B6457E0 SWAP1 PUSH1 0x0 SWAP1 LOG3 PUSH1 0x6 DUP1 SLOAD PUSH20 0xFFFFFFFFFFFFFFFFFFFFFFFFFFFFFFFFFFFFFFFF SWAP1 SWAP3 AND PUSH32 0xFFFFFFFFFFFFFFFFFFFFFFFF0000000000000000000000000000000000000000 SWAP3 DUP4 AND OR SWAP1 SSTORE PUSH1 0x7 DUP1 SLOAD SWAP1 SWAP2 AND SWAP1 SSTORE JUMP JUMPDEST PUSH1 0x0 DUP3 DUP2 MSTORE PUSH1 0x9 PUSH1 0x20 MSTORE PUSH1 0x40 SWAP1 KECCAK256 DUP1 SLOAD PUSH20 0xFFFFFFFFFFFFFFFFFFFFFFFFFFFFFFFFFFFFFFFF AND CALLER EQ PUSH2 0x1769 JUMPI PUSH1 0x40 MLOAD PUSH32 0x30CD747100000000000000000000000000000000000000000000000000000000 DUP2 MSTORE PUSH1 0x4 ADD PUSH1 0x40 MLOAD DUP1 SWAP2 SUB SWAP1 REVERT JUMPDEST DUP1 SLOAD PUSH32 0xFFFFFFFFFFFFFFFFFFFFFFFF0000000000000000000000000000000000000000 AND PUSH20 0xFFFFFFFFFFFFFFFFFFFFFFFFFFFFFFFFFFFFFFFF DUP4 AND SWAP1 DUP2 OR DUP3 SSTORE PUSH1 0x40 MLOAD DUP5 SWAP1 PUSH32 0xCA0251BA80971ADC7E92434B097CA40450B2A317013C51C5C5CB6AE74500BB00 SWAP1 PUSH1 0x0 SWAP1 LOG3 POP POP POP JUMP JUMPDEST PUSH1 0x1 DUP1 SLOAD PUSH2 0x90A SWAP1 PUSH2 0x3229 JUMP JUMPDEST PUSH1 0x0 DUP3 DUP2 MSTORE PUSH1 0x9 PUSH1 0x20 SWAP1 DUP2 MSTORE PUSH1 0x40 SWAP2 DUP3 SWAP1 KECCAK256 DUP3 MLOAD PUSH2 0x120 DUP2 ADD DUP5 MSTORE DUP2 SLOAD PUSH20 0xFFFFFFFFFFFFFFFFFFFFFFFFFFFFFFFFFFFFFFFF SWAP1 DUP2 AND DUP1 DUP4 MSTORE PUSH1 0x1 DUP5 ADD SLOAD SWAP2 DUP3 AND SWAP5 DUP4 ADD SWAP5 SWAP1 SWAP5 MSTORE PUSH4 0xFFFFFFFF PUSH21 0x10000000000000000000000000000000000000000 DUP3 DIV DUP2 AND SWAP6 DUP4 ADD SWAP6 SWAP1 SWAP6 MSTORE PUSH25 0x1000000000000000000000000000000000000000000000000 DUP2 DIV DUP6 AND PUSH1 0x60 DUP4 ADD MSTORE PUSH29 0x100000000000000000000000000000000000000000000000000000000 SWAP1 DIV DUP5 AND PUSH1 0x80 DUP3 ADD MSTORE PUSH1 0x2 DUP3 ADD SLOAD SWAP4 DUP5 AND PUSH1 0xA0 DUP3 ADD MSTORE PUSH16 0xFFFFFFFFFFFFFFFFFFFFFFFFFFFFFFFF PUSH5 0x100000000 SWAP1 SWAP5 DIV DUP5 AND PUSH1 0xC0 DUP3 ADD MSTORE PUSH1 0x3 SWAP1 SWAP2 ADD SLOAD DUP1 DUP5 AND PUSH1 0xE0 DUP4 ADD MSTORE PUSH17 0x100000000000000000000000000000000 SWAP1 DIV SWAP1 SWAP3 AND PUSH2 0x100 DUP4 ADD MSTORE CALLER EQ PUSH2 0x192E JUMPI PUSH1 0x40 MLOAD PUSH32 0x30CD747100000000000000000000000000000000000000000000000000000000 DUP2 MSTORE PUSH1 0x4 ADD PUSH1 0x40 MLOAD DUP1 SWAP2 SUB SWAP1 REVERT JUMPDEST PUSH1 0x0 PUSH2 0x1939 DUP3 PUSH2 0x2584 JUMP JUMPDEST SWAP1 POP PUSH1 0x0 DUP3 PUSH2 0x100 ADD MLOAD PUSH16 0xFFFFFFFFFFFFFFFFFFFFFFFFFFFFFFFF AND DUP3 PUSH2 0x1960 SWAP2 SWAP1 PUSH2 0x32A6 JUMP JUMPDEST SWAP1 POP PUSH1 0x0 DUP3 DUP5 PUSH1 0xE0 ADD MLOAD DUP6 PUSH1 0xA0 ADD MLOAD PUSH4 0xFFFFFFFF AND PUSH2 0x197F SWAP2 SWAP1 PUSH2 0x335B JUMP JUMPDEST DUP6 PUSH1 0xC0 ADD MLOAD PUSH2 0x198E SWAP2 SWAP1 PUSH2 0x32BD JUMP JUMPDEST PUSH16 0xFFFFFFFFFFFFFFFFFFFFFFFFFFFFFFFF AND PUSH2 0x19AA SWAP2 SWAP1 PUSH2 0x32A6 JUMP JUMPDEST PUSH1 0x0 DUP8 DUP2 MSTORE PUSH1 0x9 PUSH1 0x20 SWAP1 DUP2 MSTORE PUSH1 0x40 DUP1 DUP4 KECCAK256 DUP1 SLOAD PUSH32 0xFFFFFFFFFFFFFFFFFFFFFFFF0000000000000000000000000000000000000000 SWAP1 DUP2 AND DUP3 SSTORE PUSH1 0x1 DUP3 ADD DUP6 SWAP1 SSTORE PUSH1 0x2 DUP3 ADD DUP1 SLOAD SWAP1 SWAP2 AND SWAP1 SSTORE PUSH1 0x3 SWAP1 DUP2 ADD DUP5 SWAP1 SSTORE DUP9 DUP4 ADD MLOAD SWAP3 MSTORE SWAP1 SWAP2 KECCAK256 SLOAD SWAP2 SWAP3 POP PUSH2 0x1A2D SWAP2 ADDRESS SWAP1 PUSH20 0xFFFFFFFFFFFFFFFFFFFFFFFFFFFFFFFFFFFFFFFF AND DUP6 DUP10 PUSH2 0x2638 JUMP JUMPDEST PUSH2 0x1A3E DUP5 PUSH1 0x20 ADD MLOAD ADDRESS CALLER DUP5 DUP10 PUSH2 0x2638 JUMP JUMPDEST DUP2 DUP2 DUP8 PUSH32 0x61C75052BE1EE7232BC654D7F489AF163C983BB99C5AFFE5E8FC2E5225CB577 DUP8 PUSH1 0x20 ADD MLOAD DUP10 PUSH1 0x40 MLOAD PUSH2 0x1A99 SWAP3 SWAP2 SWAP1 PUSH20 0xFFFFFFFFFFFFFFFFFFFFFFFFFFFFFFFFFFFFFFFF SWAP3 SWAP1 SWAP3 AND DUP3 MSTORE ISZERO ISZERO PUSH1 0x20 DUP3 ADD MSTORE PUSH1 0x40 ADD SWAP1 JUMP JUMPDEST PUSH1 0x40 MLOAD DUP1 SWAP2 SUB SWAP1 LOG4 POP POP POP POP POP POP JUMP JUMPDEST CALLER PUSH1 0x0 DUP2 DUP2 MSTORE PUSH1 0x5 PUSH1 0x20 SWAP1 DUP2 MSTORE PUSH1 0x40 DUP1 DUP4 KECCAK256 PUSH20 0xFFFFFFFFFFFFFFFFFFFFFFFFFFFFFFFFFFFFFFFF DUP8 AND DUP1 DUP6 MSTORE SWAP1 DUP4 MSTORE SWAP3 DUP2 SWAP1 KECCAK256 DUP1 SLOAD PUSH32 0xFFFFFFFFFFFFFFFFFFFFFFFFFFFFFFFFFFFFFFFFFFFFFFFFFFFFFFFFFFFFFF00 AND DUP7 ISZERO ISZERO SWAP1 DUP2 OR SWAP1 SWAP2 SSTORE SWAP1 MLOAD SWAP1 DUP2 MSTORE SWAP2 SWAP3 SWAP2 PUSH32 0x17307EAB39AB6107E8899845AD3D59BD9653F200F220920489CA2B5937696C31 SWAP2 ADD PUSH1 0x40 MLOAD DUP1 SWAP2 SUB SWAP1 LOG3 POP POP JUMP JUMPDEST PUSH1 0x60 DUP2 PUSH8 0xFFFFFFFFFFFFFFFF DUP2 GT ISZERO PUSH2 0x1B5B JUMPI PUSH2 0x1B5B PUSH2 0x306F JUMP JUMPDEST PUSH1 0x40 MLOAD SWAP1 DUP1 DUP3 MSTORE DUP1 PUSH1 0x20 MUL PUSH1 0x20 ADD DUP3 ADD PUSH1 0x40 MSTORE DUP1 ISZERO PUSH2 0x1B8E JUMPI DUP2 PUSH1 0x20 ADD JUMPDEST PUSH1 0x60 DUP2 MSTORE PUSH1 0x20 ADD SWAP1 PUSH1 0x1 SWAP1 SUB SWAP1 DUP2 PUSH2 0x1B79 JUMPI SWAP1 POP JUMPDEST POP SWAP1 POP PUSH1 0x0 JUMPDEST DUP3 DUP2 LT ISZERO PUSH2 0x1CAB JUMPI PUSH1 0x0 DUP1 ADDRESS DUP7 DUP7 DUP6 DUP2 DUP2 LT PUSH2 0x1BB2 JUMPI PUSH2 0x1BB2 PUSH2 0x3393 JUMP JUMPDEST SWAP1 POP PUSH1 0x20 MUL DUP2 ADD SWAP1 PUSH2 0x1BC4 SWAP2 SWAP1 PUSH2 0x33C2 JUMP JUMPDEST PUSH1 0x40 MLOAD PUSH2 0x1BD2 SWAP3 SWAP2 SWAP1 PUSH2 0x342E JUMP JUMPDEST PUSH1 0x0 PUSH1 0x40 MLOAD DUP1 DUP4 SUB DUP2 DUP6 GAS DELEGATECALL SWAP2 POP POP RETURNDATASIZE DUP1 PUSH1 0x0 DUP2 EQ PUSH2 0x1C0D JUMPI PUSH1 0x40 MLOAD SWAP2 POP PUSH1 0x1F NOT PUSH1 0x3F RETURNDATASIZE ADD AND DUP3 ADD PUSH1 0x40 MSTORE RETURNDATASIZE DUP3 MSTORE RETURNDATASIZE PUSH1 0x0 PUSH1 0x20 DUP5 ADD RETURNDATACOPY PUSH2 0x1C12 JUMP JUMPDEST PUSH1 0x60 SWAP2 POP JUMPDEST POP SWAP2 POP SWAP2 POP DUP2 PUSH2 0x1C78 JUMPI PUSH1 0x44 DUP2 MLOAD LT ISZERO PUSH2 0x1C2B JUMPI PUSH1 0x0 DUP1 REVERT JUMPDEST PUSH1 0x4 DUP2 ADD SWAP1 POP DUP1 DUP1 PUSH1 0x20 ADD SWAP1 MLOAD DUP2 ADD SWAP1 PUSH2 0x1C45 SWAP2 SWAP1 PUSH2 0x343E JUMP JUMPDEST PUSH1 0x40 MLOAD PUSH32 0x8C379A000000000000000000000000000000000000000000000000000000000 DUP2 MSTORE PUSH1 0x4 ADD PUSH2 0xA08 SWAP2 SWAP1 PUSH2 0x2CD4 JUMP JUMPDEST DUP1 DUP5 DUP5 DUP2 MLOAD DUP2 LT PUSH2 0x1C8B JUMPI PUSH2 0x1C8B PUSH2 0x3393 JUMP JUMPDEST PUSH1 0x20 MUL PUSH1 0x20 ADD ADD DUP2 SWAP1 MSTORE POP POP POP DUP1 DUP1 PUSH2 0x1CA3 SWAP1 PUSH2 0x34AC JUMP JUMPDEST SWAP2 POP POP PUSH2 0x1B94 JUMP JUMPDEST POP SWAP3 SWAP2 POP POP JUMP JUMPDEST PUSH1 0x6 SLOAD PUSH20 0xFFFFFFFFFFFFFFFFFFFFFFFFFFFFFFFFFFFFFFFF AND CALLER EQ PUSH2 0x1D33 JUMPI PUSH1 0x40 MLOAD PUSH32 0x8C379A000000000000000000000000000000000000000000000000000000000 DUP2 MSTORE PUSH1 0x20 PUSH1 0x4 DUP3 ADD DUP2 SWAP1 MSTORE PUSH1 0x24 DUP3 ADD MSTORE PUSH32 0x4F776E61626C653A2063616C6C6572206973206E6F7420746865206F776E6572 PUSH1 0x44 DUP3 ADD MSTORE PUSH1 0x64 ADD PUSH2 0xA08 JUMP JUMPDEST PUSH1 0x8 DUP1 SLOAD PUSH32 0xFFFFFFFFFFFFFFFFFFFFFFFF0000000000000000000000000000000000000000 AND PUSH20 0xFFFFFFFFFFFFFFFFFFFFFFFFFFFFFFFFFFFFFFFF SWAP3 SWAP1 SWAP3 AND SWAP2 SWAP1 SWAP2 OR SWAP1 SSTORE JUMP JUMPDEST PUSH2 0x1D85 DUP5 DUP5 DUP5 PUSH2 0xDED JUMP JUMPDEST PUSH20 0xFFFFFFFFFFFFFFFFFFFFFFFFFFFFFFFFFFFFFFFF DUP4 AND EXTCODESIZE ISZERO DUP1 PUSH2 0x1E65 JUMPI POP PUSH1 0x40 MLOAD PUSH32 0x150B7A0200000000000000000000000000000000000000000000000000000000 DUP1 DUP3 MSTORE SWAP1 PUSH20 0xFFFFFFFFFFFFFFFFFFFFFFFFFFFFFFFFFFFFFFFF DUP6 AND SWAP1 PUSH4 0x150B7A02 SWAP1 PUSH2 0x1DFE SWAP1 CALLER SWAP1 DUP10 SWAP1 DUP9 SWAP1 DUP9 SWAP1 PUSH1 0x4 ADD PUSH2 0x34E5 JUMP JUMPDEST PUSH1 0x20 PUSH1 0x40 MLOAD DUP1 DUP4 SUB DUP2 PUSH1 0x0 DUP8 GAS CALL ISZERO DUP1 ISZERO PUSH2 0x1E1D JUMPI RETURNDATASIZE PUSH1 0x0 DUP1 RETURNDATACOPY RETURNDATASIZE PUSH1 0x0 REVERT JUMPDEST POP POP POP POP PUSH1 0x40 MLOAD RETURNDATASIZE PUSH1 0x1F NOT PUSH1 0x1F DUP3 ADD AND DUP3 ADD DUP1 PUSH1 0x40 MSTORE POP DUP2 ADD SWAP1 PUSH2 0x1E41 SWAP2 SWAP1 PUSH2 0x333E JUMP JUMPDEST PUSH32 0xFFFFFFFF00000000000000000000000000000000000000000000000000000000 AND EQ JUMPDEST PUSH2 0x13BC JUMPI PUSH1 0x40 MLOAD PUSH32 0x8C379A000000000000000000000000000000000000000000000000000000000 DUP2 MSTORE PUSH1 0x20 PUSH1 0x4 DUP3 ADD MSTORE PUSH1 0x10 PUSH1 0x24 DUP3 ADD MSTORE PUSH32 0x554E534146455F524543495049454E5400000000000000000000000000000000 PUSH1 0x44 DUP3 ADD MSTORE PUSH1 0x64 ADD PUSH2 0xA08 JUMP JUMPDEST PUSH1 0x8 SLOAD PUSH1 0x40 MLOAD PUSH32 0xC981FAC400000000000000000000000000000000000000000000000000000000 DUP2 MSTORE PUSH1 0x4 DUP2 ADD DUP4 SWAP1 MSTORE PUSH1 0x60 SWAP2 PUSH20 0xFFFFFFFFFFFFFFFFFFFFFFFFFFFFFFFFFFFFFFFF AND SWAP1 PUSH4 0xC981FAC4 SWAP1 PUSH1 0x24 ADD PUSH1 0x0 PUSH1 0x40 MLOAD DUP1 DUP4 SUB DUP2 DUP7 GAS STATICCALL ISZERO DUP1 ISZERO PUSH2 0x1F3B JUMPI RETURNDATASIZE PUSH1 0x0 DUP1 RETURNDATACOPY RETURNDATASIZE PUSH1 0x0 REVERT JUMPDEST POP POP POP POP PUSH1 0x40 MLOAD RETURNDATASIZE PUSH1 0x0 DUP3 RETURNDATACOPY PUSH1 0x1F RETURNDATASIZE SWAP1 DUP2 ADD PUSH32 0xFFFFFFFFFFFFFFFFFFFFFFFFFFFFFFFFFFFFFFFFFFFFFFFFFFFFFFFFFFFFFFE0 AND DUP3 ADD PUSH1 0x40 MSTORE PUSH2 0x8F7 SWAP2 SWAP1 DUP2 ADD SWAP1 PUSH2 0x343E JUMP JUMPDEST PUSH1 0x0 DUP1 DUP1 DUP1 TIMESTAMP PUSH2 0x1F97 PUSH1 0x60 DUP8 ADD PUSH1 0x40 DUP9 ADD PUSH2 0x352E JUMP JUMPDEST PUSH4 0xFFFFFFFF AND LT ISZERO PUSH2 0x1FD5 JUMPI PUSH1 0x40 MLOAD PUSH32 0x38356E4C00000000000000000000000000000000000000000000000000000000 DUP2 MSTORE PUSH1 0x4 ADD PUSH1 0x40 MLOAD DUP1 SWAP2 SUB SWAP1 REVERT JUMPDEST PUSH8 0xDE0B6B3A7640000 PUSH2 0x1FEE PUSH1 0xE0 DUP8 ADD PUSH1 0xC0 DUP9 ADD PUSH2 0x3554 JUMP JUMPDEST PUSH16 0xFFFFFFFFFFFFFFFFFFFFFFFFFFFFFFFF AND GT ISZERO PUSH2 0x2038 JUMPI PUSH1 0x40 MLOAD PUSH32 0xD276D51400000000000000000000000000000000000000000000000000000000 DUP2 MSTORE PUSH1 0x4 ADD PUSH1 0x40 MLOAD DUP1 SWAP2 SUB SWAP1 REVERT JUMPDEST PUSH2 0x2048 PUSH1 0xA0 DUP7 ADD PUSH1 0x80 DUP8 ADD PUSH2 0x352E JUMP JUMPDEST PUSH4 0xFFFFFFFF AND ISZERO DUP1 PUSH2 0x206D JUMPI POP PUSH2 0x2065 PUSH1 0xC0 DUP7 ADD PUSH1 0xA0 DUP8 ADD PUSH2 0x352E JUMP JUMPDEST PUSH4 0xFFFFFFFF AND ISZERO JUMPDEST ISZERO PUSH2 0x20A4 JUMPI PUSH1 0x40 MLOAD PUSH32 0xD276D51400000000000000000000000000000000000000000000000000000000 DUP2 MSTORE PUSH1 0x4 ADD PUSH1 0x40 MLOAD DUP1 SWAP2 SUB SWAP1 REVERT JUMPDEST PUSH2 0x20F0 PUSH2 0x20B4 PUSH1 0x20 DUP8 ADD DUP8 PUSH2 0x2ED5 JUMP JUMPDEST CALLER ADDRESS PUSH2 0x20C7 PUSH2 0x100 DUP11 ADD PUSH1 0xE0 DUP12 ADD PUSH2 0x3554 JUMP JUMPDEST PUSH16 0xFFFFFFFFFFFFFFFFFFFFFFFFFFFFFFFF AND PUSH2 0x20EB PUSH2 0x120 DUP12 ADD PUSH2 0x100 DUP13 ADD PUSH2 0x3586 JUMP JUMPDEST PUSH2 0x27D4 JUMP JUMPDEST SWAP4 POP PUSH8 0xDE0B6B3A7640000 DUP5 PUSH2 0x210C PUSH1 0xE0 DUP9 ADD PUSH1 0xC0 DUP10 ADD PUSH2 0x3554 JUMP JUMPDEST PUSH16 0xFFFFFFFFFFFFFFFFFFFFFFFFFFFFFFFF AND PUSH2 0x2128 SWAP2 SWAP1 PUSH2 0x35A1 JUMP JUMPDEST PUSH2 0x2132 SWAP2 SWAP1 PUSH2 0x35DE JUMP JUMPDEST SWAP2 POP PUSH2 0x2144 PUSH1 0xC0 DUP7 ADD PUSH1 0xA0 DUP8 ADD PUSH2 0x352E JUMP JUMPDEST PUSH2 0x2154 SWAP1 PUSH4 0xFFFFFFFF AND DUP4 PUSH2 0x335B JUMP JUMPDEST PUSH2 0x2170 SWAP1 PUSH16 0xFFFFFFFFFFFFFFFFFFFFFFFFFFFFFFFF AND DUP6 PUSH2 0x32A6 JUMP JUMPDEST PUSH1 0xA DUP1 SLOAD SWAP2 SWAP3 POP PUSH1 0x0 PUSH2 0x2182 DUP4 PUSH2 0x34AC JUMP JUMPDEST SWAP1 SWAP2 SSTORE POP SWAP3 POP PUSH2 0x21A1 PUSH2 0x219B PUSH1 0x40 DUP8 ADD PUSH1 0x20 DUP9 ADD PUSH2 0x2ED5 JUMP JUMPDEST DUP5 PUSH2 0x2A61 JUMP JUMPDEST PUSH1 0x40 DUP1 MLOAD PUSH2 0x120 DUP2 ADD SWAP1 SWAP2 MSTORE CALLER DUP2 MSTORE PUSH1 0x20 DUP1 DUP3 ADD SWAP1 PUSH1 0x0 SWAP1 PUSH2 0x21C5 SWAP1 DUP10 ADD DUP10 PUSH2 0x2ED5 JUMP JUMPDEST PUSH20 0xFFFFFFFFFFFFFFFFFFFFFFFFFFFFFFFFFFFFFFFF AND EQ PUSH2 0x21F2 JUMPI PUSH2 0x21ED PUSH1 0x20 DUP9 ADD DUP9 PUSH2 0x2ED5 JUMP JUMPDEST PUSH2 0x2214 JUMP JUMPDEST PUSH32 0x0 JUMPDEST PUSH20 0xFFFFFFFFFFFFFFFFFFFFFFFFFFFFFFFFFFFFFFFF AND DUP2 MSTORE PUSH1 0x20 ADD PUSH2 0x223F PUSH1 0x60 DUP9 ADD PUSH1 0x40 DUP10 ADD PUSH2 0x352E JUMP JUMPDEST PUSH4 0xFFFFFFFF AND DUP2 MSTORE PUSH1 0x20 ADD PUSH2 0x225A PUSH1 0x80 DUP9 ADD PUSH1 0x60 DUP10 ADD PUSH2 0x352E JUMP JUMPDEST PUSH4 0xFFFFFFFF AND DUP2 MSTORE PUSH1 0x20 ADD PUSH2 0x2275 PUSH1 0xA0 DUP9 ADD PUSH1 0x80 DUP10 ADD PUSH2 0x352E JUMP JUMPDEST PUSH4 0xFFFFFFFF AND DUP2 MSTORE PUSH1 0x20 ADD PUSH2 0x2290 PUSH1 0xC0 DUP9 ADD PUSH1 0xA0 DUP10 ADD PUSH2 0x352E JUMP JUMPDEST PUSH4 0xFFFFFFFF SWAP1 DUP2 AND DUP3 MSTORE PUSH16 0xFFFFFFFFFFFFFFFFFFFFFFFFFFFFFFFF DUP1 DUP6 AND PUSH1 0x20 DUP1 DUP6 ADD SWAP2 SWAP1 SWAP2 MSTORE DUP7 DUP3 AND PUSH1 0x40 DUP1 DUP7 ADD SWAP2 SWAP1 SWAP2 MSTORE PUSH1 0x0 PUSH1 0x60 SWAP6 DUP7 ADD DUP2 SWAP1 MSTORE DUP10 DUP2 MSTORE PUSH1 0x9 DUP4 MSTORE DUP2 SWAP1 KECCAK256 DUP7 MLOAD DUP2 SLOAD PUSH20 0xFFFFFFFFFFFFFFFFFFFFFFFFFFFFFFFFFFFFFFFF SWAP2 DUP3 AND PUSH32 0xFFFFFFFFFFFFFFFFFFFFFFFF0000000000000000000000000000000000000000 SWAP2 DUP3 AND OR DUP4 SSTORE DUP9 DUP6 ADD MLOAD PUSH1 0x1 DUP5 ADD DUP1 SLOAD DUP12 DUP8 ADD MLOAD SWAP11 DUP13 ADD MLOAD PUSH1 0x80 DUP14 ADD MLOAD DUP12 AND PUSH29 0x100000000000000000000000000000000000000000000000000000000 MUL PUSH28 0xFFFFFFFFFFFFFFFFFFFFFFFFFFFFFFFFFFFFFFFFFFFFFFFFFFFFFFFF SWAP2 DUP13 AND PUSH25 0x1000000000000000000000000000000000000000000000000 MUL SWAP2 SWAP1 SWAP2 AND PUSH24 0xFFFFFFFFFFFFFFFFFFFFFFFFFFFFFFFFFFFFFFFFFFFFFFFF SWAP13 DUP13 AND PUSH21 0x10000000000000000000000000000000000000000 MUL PUSH32 0xFFFFFFFFFFFFFFFF000000000000000000000000000000000000000000000000 SWAP1 SWAP4 AND SWAP5 SWAP1 SWAP7 AND SWAP4 SWAP1 SWAP4 OR OR SWAP10 SWAP1 SWAP10 AND SWAP3 SWAP1 SWAP3 OR SWAP2 SWAP1 SWAP2 OR SWAP1 SWAP7 SSTORE PUSH1 0xA0 DUP8 ADD MLOAD PUSH1 0x2 DUP3 ADD DUP1 SLOAD PUSH1 0xC0 DUP11 ADD MLOAD DUP8 AND PUSH5 0x100000000 MUL SWAP9 AND SWAP2 SWAP1 SWAP7 AND OR SWAP6 SWAP1 SWAP6 OR SWAP1 SWAP4 SSTORE PUSH1 0xE0 DUP6 ADD MLOAD PUSH2 0x100 SWAP1 SWAP6 ADD MLOAD DUP3 AND PUSH17 0x100000000000000000000000000000000 MUL SWAP5 SWAP1 SWAP2 AND SWAP4 SWAP1 SWAP4 OR PUSH1 0x3 SWAP1 SWAP3 ADD SWAP2 SWAP1 SWAP2 SSTORE PUSH2 0x2468 SWAP2 SWAP1 DUP8 ADD SWAP1 DUP8 ADD PUSH2 0x2ED5 JUMP JUMPDEST PUSH20 0xFFFFFFFFFFFFFFFFFFFFFFFFFFFFFFFFFFFFFFFF AND CALLER DUP5 PUSH32 0x603BB53F65550199ED7346BA18D49BCB7EC77162B3167B272F8CD19B20D9510B PUSH2 0x24AE PUSH1 0x20 DUP11 ADD DUP11 PUSH2 0x2ED5 JUMP JUMPDEST PUSH2 0x24BE PUSH1 0x60 DUP12 ADD PUSH1 0x40 DUP13 ADD PUSH2 0x352E JUMP JUMPDEST PUSH2 0x24CE PUSH1 0x80 DUP13 ADD PUSH1 0x60 DUP14 ADD PUSH2 0x352E JUMP JUMPDEST PUSH2 0x24DE PUSH1 0xA0 DUP14 ADD PUSH1 0x80 DUP15 ADD PUSH2 0x352E JUMP JUMPDEST PUSH2 0x24EE PUSH1 0xC0 DUP15 ADD PUSH1 0xA0 DUP16 ADD PUSH2 0x352E JUMP JUMPDEST DUP10 DUP12 DUP16 PUSH2 0x100 ADD PUSH1 0x20 DUP2 ADD SWAP1 PUSH2 0x2504 SWAP2 SWAP1 PUSH2 0x3586 JUMP JUMPDEST PUSH1 0x40 DUP1 MLOAD PUSH20 0xFFFFFFFFFFFFFFFFFFFFFFFFFFFFFFFFFFFFFFFF SWAP1 SWAP10 AND DUP10 MSTORE PUSH4 0xFFFFFFFF SWAP8 DUP9 AND PUSH1 0x20 DUP11 ADD MSTORE SWAP6 DUP8 AND SWAP6 DUP9 ADD SWAP6 SWAP1 SWAP6 MSTORE SWAP3 DUP6 AND PUSH1 0x60 DUP8 ADD MSTORE SWAP4 AND PUSH1 0x80 DUP6 ADD MSTORE PUSH16 0xFFFFFFFFFFFFFFFFFFFFFFFFFFFFFFFF SWAP3 DUP4 AND PUSH1 0xA0 DUP6 ADD MSTORE SWAP2 SWAP1 SWAP2 AND PUSH1 0xC0 DUP4 ADD MSTORE ISZERO ISZERO PUSH1 0xE0 DUP3 ADD MSTORE PUSH2 0x100 ADD PUSH1 0x40 MLOAD DUP1 SWAP2 SUB SWAP1 LOG4 SWAP2 SWAP4 POP SWAP2 SWAP4 JUMP JUMPDEST PUSH1 0x0 DUP1 DUP3 PUSH1 0x60 ADD MLOAD DUP4 PUSH1 0x40 ADD MLOAD PUSH2 0x259B SWAP2 SWAP1 PUSH2 0x3619 JUMP JUMPDEST PUSH4 0xFFFFFFFF AND SWAP1 POP DUP1 TIMESTAMP LT ISZERO PUSH2 0x25B1 JUMPI POP SWAP2 SWAP1 POP JUMP JUMPDEST PUSH1 0x0 PUSH2 0x25BD DUP3 TIMESTAMP PUSH2 0x32A6 JUMP JUMPDEST SWAP1 POP PUSH1 0x0 PUSH2 0x25EA DUP6 PUSH1 0xA0 ADD MLOAD PUSH4 0xFFFFFFFF AND DUP7 PUSH1 0x80 ADD MLOAD PUSH4 0xFFFFFFFF AND DUP5 PUSH2 0x25E5 SWAP2 SWAP1 PUSH2 0x35DE JUMP JUMPDEST PUSH2 0x2BFA JUMP JUMPDEST SWAP1 POP DUP1 DUP6 PUSH1 0xE0 ADD MLOAD PUSH16 0xFFFFFFFFFFFFFFFFFFFFFFFFFFFFFFFF AND PUSH2 0x260E SWAP2 SWAP1 PUSH2 0x35A1 JUMP JUMPDEST DUP6 PUSH1 0xC0 ADD MLOAD PUSH16 0xFFFFFFFFFFFFFFFFFFFFFFFFFFFFFFFF AND PUSH2 0x262F SWAP2 SWAP1 PUSH2 0x3638 JUMP JUMPDEST SWAP6 SWAP5 POP POP POP POP POP JUMP JUMPDEST DUP1 ISZERO PUSH2 0x26FB JUMPI PUSH1 0x40 MLOAD PUSH32 0xF18D03CC00000000000000000000000000000000000000000000000000000000 DUP2 MSTORE PUSH20 0xFFFFFFFFFFFFFFFFFFFFFFFFFFFFFFFFFFFFFFFF DUP7 DUP2 AND PUSH1 0x4 DUP4 ADD MSTORE DUP6 DUP2 AND PUSH1 0x24 DUP4 ADD MSTORE DUP5 DUP2 AND PUSH1 0x44 DUP4 ADD MSTORE PUSH1 0x64 DUP3 ADD DUP5 SWAP1 MSTORE PUSH32 0x0 AND SWAP1 PUSH4 0xF18D03CC SWAP1 PUSH1 0x84 ADD PUSH1 0x0 PUSH1 0x40 MLOAD DUP1 DUP4 SUB DUP2 PUSH1 0x0 DUP8 DUP1 EXTCODESIZE ISZERO DUP1 ISZERO PUSH2 0x26DE JUMPI PUSH1 0x0 DUP1 REVERT JUMPDEST POP GAS CALL ISZERO DUP1 ISZERO PUSH2 0x26F2 JUMPI RETURNDATASIZE PUSH1 0x0 DUP1 RETURNDATACOPY RETURNDATASIZE PUSH1 0x0 REVERT JUMPDEST POP POP POP POP PUSH2 0x27CD JUMP JUMPDEST PUSH1 0x40 MLOAD PUSH32 0x97DA6D3000000000000000000000000000000000000000000000000000000000 DUP2 MSTORE PUSH20 0xFFFFFFFFFFFFFFFFFFFFFFFFFFFFFFFFFFFFFFFF DUP7 DUP2 AND PUSH1 0x4 DUP4 ADD MSTORE DUP6 DUP2 AND PUSH1 0x24 DUP4 ADD MSTORE DUP5 DUP2 AND PUSH1 0x44 DUP4 ADD MSTORE PUSH1 0x0 PUSH1 0x64 DUP4 ADD MSTORE PUSH1 0x84 DUP3 ADD DUP5 SWAP1 MSTORE PUSH32 0x0 AND SWAP1 PUSH4 0x97DA6D30 SWAP1 PUSH1 0xA4 ADD PUSH1 0x40 DUP1 MLOAD DUP1 DUP4 SUB DUP2 PUSH1 0x0 DUP8 GAS CALL ISZERO DUP1 ISZERO PUSH2 0x27A6 JUMPI RETURNDATASIZE PUSH1 0x0 DUP1 RETURNDATACOPY RETURNDATASIZE PUSH1 0x0 REVERT JUMPDEST POP POP POP POP PUSH1 0x40 MLOAD RETURNDATASIZE PUSH1 0x1F NOT PUSH1 0x1F DUP3 ADD AND DUP3 ADD DUP1 PUSH1 0x40 MSTORE POP DUP2 ADD SWAP1 PUSH2 0x27CA SWAP2 SWAP1 PUSH2 0x3650 JUMP JUMPDEST POP POP JUMPDEST POP POP POP POP POP JUMP JUMPDEST PUSH1 0x0 DUP2 ISZERO PUSH2 0x295C JUMPI PUSH1 0x40 MLOAD PUSH32 0xDA5139CA00000000000000000000000000000000000000000000000000000000 DUP2 MSTORE PUSH20 0xFFFFFFFFFFFFFFFFFFFFFFFFFFFFFFFFFFFFFFFF DUP8 DUP2 AND PUSH1 0x4 DUP4 ADD MSTORE PUSH1 0x24 DUP3 ADD DUP6 SWAP1 MSTORE PUSH1 0x0 PUSH1 0x44 DUP4 ADD MSTORE PUSH32 0x0 AND SWAP1 PUSH4 0xDA5139CA SWAP1 PUSH1 0x64 ADD PUSH1 0x20 PUSH1 0x40 MLOAD DUP1 DUP4 SUB DUP2 DUP7 GAS STATICCALL ISZERO DUP1 ISZERO PUSH2 0x2876 JUMPI RETURNDATASIZE PUSH1 0x0 DUP1 RETURNDATACOPY RETURNDATASIZE PUSH1 0x0 REVERT JUMPDEST POP POP POP POP PUSH1 0x40 MLOAD RETURNDATASIZE PUSH1 0x1F NOT PUSH1 0x1F DUP3 ADD AND DUP3 ADD DUP1 PUSH1 0x40 MSTORE POP DUP2 ADD SWAP1 PUSH2 0x289A SWAP2 SWAP1 PUSH2 0x3674 JUMP JUMPDEST PUSH1 0x40 MLOAD PUSH32 0xF18D03CC00000000000000000000000000000000000000000000000000000000 DUP2 MSTORE PUSH20 0xFFFFFFFFFFFFFFFFFFFFFFFFFFFFFFFFFFFFFFFF DUP9 DUP2 AND PUSH1 0x4 DUP4 ADD MSTORE DUP8 DUP2 AND PUSH1 0x24 DUP4 ADD MSTORE DUP7 DUP2 AND PUSH1 0x44 DUP4 ADD MSTORE PUSH1 0x64 DUP3 ADD DUP4 SWAP1 MSTORE SWAP2 SWAP3 POP PUSH32 0x0 SWAP1 SWAP2 AND SWAP1 PUSH4 0xF18D03CC SWAP1 PUSH1 0x84 ADD PUSH1 0x0 PUSH1 0x40 MLOAD DUP1 DUP4 SUB DUP2 PUSH1 0x0 DUP8 DUP1 EXTCODESIZE ISZERO DUP1 ISZERO PUSH2 0x293F JUMPI PUSH1 0x0 DUP1 REVERT JUMPDEST POP GAS CALL ISZERO DUP1 ISZERO PUSH2 0x2953 JUMPI RETURNDATASIZE PUSH1 0x0 DUP1 RETURNDATACOPY RETURNDATASIZE PUSH1 0x0 REVERT JUMPDEST POP POP POP POP PUSH2 0x262F JUMP JUMPDEST PUSH20 0xFFFFFFFFFFFFFFFFFFFFFFFFFFFFFFFFFFFFFFFF PUSH32 0x0 DUP2 AND SWAP1 PUSH4 0x2B9446C SWAP1 DUP9 AND ISZERO PUSH2 0x29A9 JUMPI PUSH1 0x0 PUSH2 0x29AB JUMP JUMPDEST DUP5 JUMPDEST PUSH1 0x40 MLOAD PUSH32 0xFFFFFFFF00000000000000000000000000000000000000000000000000000000 PUSH1 0xE0 DUP5 SWAP1 SHL AND DUP2 MSTORE PUSH20 0xFFFFFFFFFFFFFFFFFFFFFFFFFFFFFFFFFFFFFFFF DUP1 DUP12 AND PUSH1 0x4 DUP4 ADD MSTORE DUP1 DUP11 AND PUSH1 0x24 DUP4 ADD MSTORE DUP9 AND PUSH1 0x44 DUP3 ADD MSTORE PUSH1 0x64 DUP2 ADD DUP8 SWAP1 MSTORE PUSH1 0x0 PUSH1 0x84 DUP3 ADD MSTORE PUSH1 0xA4 ADD PUSH1 0x40 DUP1 MLOAD DUP1 DUP4 SUB DUP2 DUP6 DUP9 GAS CALL ISZERO DUP1 ISZERO PUSH2 0x2A31 JUMPI RETURNDATASIZE PUSH1 0x0 DUP1 RETURNDATACOPY RETURNDATASIZE PUSH1 0x0 REVERT JUMPDEST POP POP POP POP POP PUSH1 0x40 MLOAD RETURNDATASIZE PUSH1 0x1F NOT PUSH1 0x1F DUP3 ADD AND DUP3 ADD DUP1 PUSH1 0x40 MSTORE POP DUP2 ADD SWAP1 PUSH2 0x2A56 SWAP2 SWAP1 PUSH2 0x3650 JUMP JUMPDEST SWAP8 SWAP7 POP POP POP POP POP POP POP JUMP JUMPDEST PUSH20 0xFFFFFFFFFFFFFFFFFFFFFFFFFFFFFFFFFFFFFFFF DUP3 AND PUSH2 0x2ADE JUMPI PUSH1 0x40 MLOAD PUSH32 0x8C379A000000000000000000000000000000000000000000000000000000000 DUP2 MSTORE PUSH1 0x20 PUSH1 0x4 DUP3 ADD MSTORE PUSH1 0x11 PUSH1 0x24 DUP3 ADD MSTORE PUSH32 0x494E56414C49445F524543495049454E54000000000000000000000000000000 PUSH1 0x44 DUP3 ADD MSTORE PUSH1 0x64 ADD PUSH2 0xA08 JUMP JUMPDEST PUSH1 0x0 DUP2 DUP2 MSTORE PUSH1 0x3 PUSH1 0x20 MSTORE PUSH1 0x40 SWAP1 KECCAK256 SLOAD PUSH20 0xFFFFFFFFFFFFFFFFFFFFFFFFFFFFFFFFFFFFFFFF AND ISZERO PUSH2 0x2B6A JUMPI PUSH1 0x40 MLOAD PUSH32 0x8C379A000000000000000000000000000000000000000000000000000000000 DUP2 MSTORE PUSH1 0x20 PUSH1 0x4 DUP3 ADD MSTORE PUSH1 0xE PUSH1 0x24 DUP3 ADD MSTORE PUSH32 0x414C52454144595F4D494E544544000000000000000000000000000000000000 PUSH1 0x44 DUP3 ADD MSTORE PUSH1 0x64 ADD PUSH2 0xA08 JUMP JUMPDEST PUSH20 0xFFFFFFFFFFFFFFFFFFFFFFFFFFFFFFFFFFFFFFFF DUP3 AND PUSH1 0x0 DUP2 DUP2 MSTORE PUSH1 0x2 PUSH1 0x20 SWAP1 DUP2 MSTORE PUSH1 0x40 DUP1 DUP4 KECCAK256 DUP1 SLOAD PUSH1 0x1 ADD SWAP1 SSTORE DUP5 DUP4 MSTORE PUSH1 0x3 SWAP1 SWAP2 MSTORE DUP1 DUP3 KECCAK256 DUP1 SLOAD PUSH32 0xFFFFFFFFFFFFFFFFFFFFFFFF0000000000000000000000000000000000000000 AND DUP5 OR SWAP1 SSTORE MLOAD DUP4 SWAP3 SWAP2 SWAP1 PUSH32 0xDDF252AD1BE2C89B69C2B068FC378DAA952BA7F163C4A11628F55A4DF523B3EF SWAP1 DUP3 SWAP1 LOG4 POP POP JUMP JUMPDEST PUSH1 0x0 DUP2 DUP4 LT PUSH2 0x2C09 JUMPI DUP2 PUSH2 0xDE6 JUMP JUMPDEST POP SWAP1 SWAP2 SWAP1 POP JUMP JUMPDEST PUSH32 0xFFFFFFFF00000000000000000000000000000000000000000000000000000000 DUP2 AND DUP2 EQ PUSH2 0x2C3E JUMPI PUSH1 0x0 DUP1 REVERT JUMPDEST POP JUMP JUMPDEST PUSH1 0x0 PUSH1 0x20 DUP3 DUP5 SUB SLT ISZERO PUSH2 0x2C53 JUMPI PUSH1 0x0 DUP1 REVERT JUMPDEST DUP2 CALLDATALOAD PUSH2 0xDE6 DUP2 PUSH2 0x2C10 JUMP JUMPDEST PUSH1 0x0 JUMPDEST DUP4 DUP2 LT ISZERO PUSH2 0x2C79 JUMPI DUP2 DUP2 ADD MLOAD DUP4 DUP3 ADD MSTORE PUSH1 0x20 ADD PUSH2 0x2C61 JUMP JUMPDEST DUP4 DUP2 GT ISZERO PUSH2 0x13BC JUMPI POP POP PUSH1 0x0 SWAP2 ADD MSTORE JUMP JUMPDEST PUSH1 0x0 DUP2 MLOAD DUP1 DUP5 MSTORE PUSH2 0x2CA2 DUP2 PUSH1 0x20 DUP7 ADD PUSH1 0x20 DUP7 ADD PUSH2 0x2C5E JUMP JUMPDEST PUSH1 0x1F ADD PUSH32 0xFFFFFFFFFFFFFFFFFFFFFFFFFFFFFFFFFFFFFFFFFFFFFFFFFFFFFFFFFFFFFFE0 AND SWAP3 SWAP1 SWAP3 ADD PUSH1 0x20 ADD SWAP3 SWAP2 POP POP JUMP JUMPDEST PUSH1 0x20 DUP2 MSTORE PUSH1 0x0 PUSH2 0xDE6 PUSH1 0x20 DUP4 ADD DUP5 PUSH2 0x2C8A JUMP JUMPDEST PUSH20 0xFFFFFFFFFFFFFFFFFFFFFFFFFFFFFFFFFFFFFFFF DUP2 AND DUP2 EQ PUSH2 0x2C3E JUMPI PUSH1 0x0 DUP1 REVERT JUMPDEST DUP1 CALLDATALOAD DUP1 ISZERO ISZERO DUP2 EQ PUSH2 0x2D19 JUMPI PUSH1 0x0 DUP1 REVERT JUMPDEST SWAP2 SWAP1 POP JUMP JUMPDEST PUSH1 0x0 DUP1 PUSH1 0x0 PUSH1 0x60 DUP5 DUP7 SUB SLT ISZERO PUSH2 0x2D33 JUMPI PUSH1 0x0 DUP1 REVERT JUMPDEST DUP4 CALLDATALOAD PUSH2 0x2D3E DUP2 PUSH2 0x2CE7 JUMP JUMPDEST SWAP3 POP PUSH2 0x2D4C PUSH1 0x20 DUP6 ADD PUSH2 0x2D09 JUMP JUMPDEST SWAP2 POP PUSH2 0x2D5A PUSH1 0x40 DUP6 ADD PUSH2 0x2D09 JUMP JUMPDEST SWAP1 POP SWAP3 POP SWAP3 POP SWAP3 JUMP JUMPDEST PUSH1 0x0 PUSH1 0x20 DUP3 DUP5 SUB SLT ISZERO PUSH2 0x2D75 JUMPI PUSH1 0x0 DUP1 REVERT JUMPDEST POP CALLDATALOAD SWAP2 SWAP1 POP JUMP JUMPDEST PUSH1 0x0 DUP1 PUSH1 0x40 DUP4 DUP6 SUB SLT ISZERO PUSH2 0x2D8F JUMPI PUSH1 0x0 DUP1 REVERT JUMPDEST DUP3 CALLDATALOAD PUSH2 0x2D9A DUP2 PUSH2 0x2CE7 JUMP JUMPDEST SWAP5 PUSH1 0x20 SWAP4 SWAP1 SWAP4 ADD CALLDATALOAD SWAP4 POP POP POP JUMP JUMPDEST PUSH1 0x0 DUP1 PUSH1 0x0 PUSH1 0x60 DUP5 DUP7 SUB SLT ISZERO PUSH2 0x2DBD JUMPI PUSH1 0x0 DUP1 REVERT JUMPDEST DUP4 CALLDATALOAD PUSH2 0x2DC8 DUP2 PUSH2 0x2CE7 JUMP JUMPDEST SWAP3 POP PUSH1 0x20 DUP5 ADD CALLDATALOAD PUSH2 0x2DD8 DUP2 PUSH2 0x2CE7 JUMP JUMPDEST SWAP3 SWAP6 SWAP3 SWAP5 POP POP POP PUSH1 0x40 SWAP2 SWAP1 SWAP2 ADD CALLDATALOAD SWAP1 JUMP JUMPDEST PUSH1 0x0 DUP1 PUSH1 0x0 DUP1 PUSH1 0x60 DUP6 DUP8 SUB SLT ISZERO PUSH2 0x2DFF JUMPI PUSH1 0x0 DUP1 REVERT JUMPDEST DUP5 CALLDATALOAD SWAP4 POP PUSH1 0x20 DUP6 ADD CALLDATALOAD PUSH8 0xFFFFFFFFFFFFFFFF DUP1 DUP3 GT ISZERO PUSH2 0x2E1E JUMPI PUSH1 0x0 DUP1 REVERT JUMPDEST DUP2 DUP8 ADD SWAP2 POP DUP8 PUSH1 0x1F DUP4 ADD SLT PUSH2 0x2E32 JUMPI PUSH1 0x0 DUP1 REVERT JUMPDEST DUP2 CALLDATALOAD DUP2 DUP2 GT ISZERO PUSH2 0x2E41 JUMPI PUSH1 0x0 DUP1 REVERT JUMPDEST DUP9 PUSH1 0x20 DUP3 DUP6 ADD ADD GT ISZERO PUSH2 0x2E53 JUMPI PUSH1 0x0 DUP1 REVERT JUMPDEST PUSH1 0x20 DUP4 ADD SWAP6 POP DUP1 SWAP5 POP POP POP POP PUSH2 0x2E6B PUSH1 0x40 DUP7 ADD PUSH2 0x2D09 JUMP JUMPDEST SWAP1 POP SWAP3 SWAP6 SWAP2 SWAP5 POP SWAP3 POP JUMP JUMPDEST PUSH1 0x0 DUP1 PUSH1 0x0 DUP1 PUSH1 0x0 PUSH1 0xA0 DUP7 DUP9 SUB SLT ISZERO PUSH2 0x2E8E JUMPI PUSH1 0x0 DUP1 REVERT JUMPDEST DUP6 CALLDATALOAD PUSH2 0x2E99 DUP2 PUSH2 0x2CE7 JUMP JUMPDEST SWAP5 POP PUSH2 0x2EA7 PUSH1 0x20 DUP8 ADD PUSH2 0x2D09 JUMP JUMPDEST SWAP4 POP PUSH1 0x40 DUP7 ADD CALLDATALOAD PUSH1 0xFF DUP2 AND DUP2 EQ PUSH2 0x2EBD JUMPI PUSH1 0x0 DUP1 REVERT JUMPDEST SWAP5 SWAP8 SWAP4 SWAP7 POP SWAP4 SWAP5 PUSH1 0x60 DUP2 ADD CALLDATALOAD SWAP5 POP PUSH1 0x80 ADD CALLDATALOAD SWAP3 SWAP2 POP POP JUMP JUMPDEST PUSH1 0x0 PUSH1 0x20 DUP3 DUP5 SUB SLT ISZERO PUSH2 0x2EE7 JUMPI PUSH1 0x0 DUP1 REVERT JUMPDEST DUP2 CALLDATALOAD PUSH2 0xDE6 DUP2 PUSH2 0x2CE7 JUMP JUMPDEST PUSH1 0x0 DUP1 PUSH1 0x40 DUP4 DUP6 SUB SLT ISZERO PUSH2 0x2F05 JUMPI PUSH1 0x0 DUP1 REVERT JUMPDEST DUP3 CALLDATALOAD SWAP2 POP PUSH1 0x20 DUP4 ADD CALLDATALOAD PUSH2 0x2F17 DUP2 PUSH2 0x2CE7 JUMP JUMPDEST DUP1 SWAP2 POP POP SWAP3 POP SWAP3 SWAP1 POP JUMP JUMPDEST PUSH1 0x0 DUP1 PUSH1 0x40 DUP4 DUP6 SUB SLT ISZERO PUSH2 0x2F35 JUMPI PUSH1 0x0 DUP1 REVERT JUMPDEST DUP3 CALLDATALOAD SWAP2 POP PUSH2 0x2F45 PUSH1 0x20 DUP5 ADD PUSH2 0x2D09 JUMP JUMPDEST SWAP1 POP SWAP3 POP SWAP3 SWAP1 POP JUMP JUMPDEST PUSH1 0x0 DUP1 PUSH1 0x40 DUP4 DUP6 SUB SLT ISZERO PUSH2 0x2F61 JUMPI PUSH1 0x0 DUP1 REVERT JUMPDEST DUP3 CALLDATALOAD PUSH2 0x2F6C DUP2 PUSH2 0x2CE7 JUMP JUMPDEST SWAP2 POP PUSH2 0x2F45 PUSH1 0x20 DUP5 ADD PUSH2 0x2D09 JUMP JUMPDEST PUSH1 0x0 DUP1 PUSH1 0x20 DUP4 DUP6 SUB SLT ISZERO PUSH2 0x2F8D JUMPI PUSH1 0x0 DUP1 REVERT JUMPDEST DUP3 CALLDATALOAD PUSH8 0xFFFFFFFFFFFFFFFF DUP1 DUP3 GT ISZERO PUSH2 0x2FA5 JUMPI PUSH1 0x0 DUP1 REVERT JUMPDEST DUP2 DUP6 ADD SWAP2 POP DUP6 PUSH1 0x1F DUP4 ADD SLT PUSH2 0x2FB9 JUMPI PUSH1 0x0 DUP1 REVERT JUMPDEST DUP2 CALLDATALOAD DUP2 DUP2 GT ISZERO PUSH2 0x2FC8 JUMPI PUSH1 0x0 DUP1 REVERT JUMPDEST DUP7 PUSH1 0x20 DUP3 PUSH1 0x5 SHL DUP6 ADD ADD GT ISZERO PUSH2 0x2FDD JUMPI PUSH1 0x0 DUP1 REVERT JUMPDEST PUSH1 0x20 SWAP3 SWAP1 SWAP3 ADD SWAP7 SWAP2 SWAP6 POP SWAP1 SWAP4 POP POP POP POP JUMP JUMPDEST PUSH1 0x0 PUSH1 0x20 DUP1 DUP4 ADD DUP2 DUP5 MSTORE DUP1 DUP6 MLOAD DUP1 DUP4 MSTORE PUSH1 0x40 DUP7 ADD SWAP2 POP PUSH1 0x40 DUP2 PUSH1 0x5 SHL DUP8 ADD ADD SWAP3 POP DUP4 DUP8 ADD PUSH1 0x0 JUMPDEST DUP3 DUP2 LT ISZERO PUSH2 0x3062 JUMPI PUSH32 0xFFFFFFFFFFFFFFFFFFFFFFFFFFFFFFFFFFFFFFFFFFFFFFFFFFFFFFFFFFFFFFC0 DUP9 DUP7 SUB ADD DUP5 MSTORE PUSH2 0x3050 DUP6 DUP4 MLOAD PUSH2 0x2C8A JUMP JUMPDEST SWAP5 POP SWAP3 DUP6 ADD SWAP3 SWAP1 DUP6 ADD SWAP1 PUSH1 0x1 ADD PUSH2 0x3016 JUMP JUMPDEST POP SWAP3 SWAP8 SWAP7 POP POP POP POP POP POP POP JUMP JUMPDEST PUSH32 0x4E487B7100000000000000000000000000000000000000000000000000000000 PUSH1 0x0 MSTORE PUSH1 0x41 PUSH1 0x4 MSTORE PUSH1 0x24 PUSH1 0x0 REVERT JUMPDEST PUSH1 0x40 MLOAD PUSH1 0x1F DUP3 ADD PUSH32 0xFFFFFFFFFFFFFFFFFFFFFFFFFFFFFFFFFFFFFFFFFFFFFFFFFFFFFFFFFFFFFFE0 AND DUP2 ADD PUSH8 0xFFFFFFFFFFFFFFFF DUP2 GT DUP3 DUP3 LT OR ISZERO PUSH2 0x30E5 JUMPI PUSH2 0x30E5 PUSH2 0x306F JUMP JUMPDEST PUSH1 0x40 MSTORE SWAP2 SWAP1 POP JUMP JUMPDEST PUSH1 0x0 PUSH8 0xFFFFFFFFFFFFFFFF DUP3 GT ISZERO PUSH2 0x3107 JUMPI PUSH2 0x3107 PUSH2 0x306F JUMP JUMPDEST POP PUSH1 0x1F ADD PUSH32 0xFFFFFFFFFFFFFFFFFFFFFFFFFFFFFFFFFFFFFFFFFFFFFFFFFFFFFFFFFFFFFFE0 AND PUSH1 0x20 ADD SWAP1 JUMP JUMPDEST PUSH1 0x0 DUP1 PUSH1 0x0 DUP1 PUSH1 0x80 DUP6 DUP8 SUB SLT ISZERO PUSH2 0x3149 JUMPI PUSH1 0x0 DUP1 REVERT JUMPDEST DUP5 CALLDATALOAD PUSH2 0x3154 DUP2 PUSH2 0x2CE7 JUMP JUMPDEST SWAP4 POP PUSH1 0x20 DUP6 ADD CALLDATALOAD PUSH2 0x3164 DUP2 PUSH2 0x2CE7 JUMP JUMPDEST SWAP3 POP PUSH1 0x40 DUP6 ADD CALLDATALOAD SWAP2 POP PUSH1 0x60 DUP6 ADD CALLDATALOAD PUSH8 0xFFFFFFFFFFFFFFFF DUP2 GT ISZERO PUSH2 0x3187 JUMPI PUSH1 0x0 DUP1 REVERT JUMPDEST DUP6 ADD PUSH1 0x1F DUP2 ADD DUP8 SGT PUSH2 0x3198 JUMPI PUSH1 0x0 DUP1 REVERT JUMPDEST DUP1 CALLDATALOAD PUSH2 0x31AB PUSH2 0x31A6 DUP3 PUSH2 0x30ED JUMP JUMPDEST PUSH2 0x309E JUMP JUMPDEST DUP2 DUP2 MSTORE DUP9 PUSH1 0x20 DUP4 DUP6 ADD ADD GT ISZERO PUSH2 0x31C0 JUMPI PUSH1 0x0 DUP1 REVERT JUMPDEST DUP2 PUSH1 0x20 DUP5 ADD PUSH1 0x20 DUP4 ADD CALLDATACOPY PUSH1 0x0 PUSH1 0x20 DUP4 DUP4 ADD ADD MSTORE DUP1 SWAP4 POP POP POP POP SWAP3 SWAP6 SWAP2 SWAP5 POP SWAP3 POP JUMP JUMPDEST PUSH1 0x0 DUP1 PUSH1 0x40 DUP4 DUP6 SUB SLT ISZERO PUSH2 0x31F5 JUMPI PUSH1 0x0 DUP1 REVERT JUMPDEST DUP3 CALLDATALOAD PUSH2 0x3200 DUP2 PUSH2 0x2CE7 JUMP JUMPDEST SWAP2 POP PUSH1 0x20 DUP4 ADD CALLDATALOAD PUSH2 0x2F17 DUP2 PUSH2 0x2CE7 JUMP JUMPDEST PUSH1 0x0 PUSH2 0x120 DUP3 DUP5 SUB SLT ISZERO PUSH2 0x3223 JUMPI PUSH1 0x0 DUP1 REVERT JUMPDEST POP SWAP2 SWAP1 POP JUMP JUMPDEST PUSH1 0x1 DUP2 DUP2 SHR SWAP1 DUP3 AND DUP1 PUSH2 0x323D JUMPI PUSH1 0x7F DUP3 AND SWAP2 POP JUMPDEST PUSH1 0x20 DUP3 LT DUP2 EQ ISZERO PUSH2 0x3223 JUMPI PUSH32 0x4E487B7100000000000000000000000000000000000000000000000000000000 PUSH1 0x0 MSTORE PUSH1 0x22 PUSH1 0x4 MSTORE PUSH1 0x24 PUSH1 0x0 REVERT JUMPDEST PUSH32 0x4E487B7100000000000000000000000000000000000000000000000000000000 PUSH1 0x0 MSTORE PUSH1 0x11 PUSH1 0x4 MSTORE PUSH1 0x24 PUSH1 0x0 REVERT JUMPDEST PUSH1 0x0 DUP3 DUP3 LT ISZERO PUSH2 0x32B8 JUMPI PUSH2 0x32B8 PUSH2 0x3277 JUMP JUMPDEST POP SUB SWAP1 JUMP JUMPDEST PUSH1 0x0 PUSH16 0xFFFFFFFFFFFFFFFFFFFFFFFFFFFFFFFF DUP1 DUP4 AND DUP2 DUP6 AND DUP1 DUP4 SUB DUP3 GT ISZERO PUSH2 0x32E8 JUMPI PUSH2 0x32E8 PUSH2 0x3277 JUMP JUMPDEST ADD SWAP5 SWAP4 POP POP POP POP JUMP JUMPDEST PUSH1 0x20 DUP2 MSTORE DUP2 PUSH1 0x20 DUP3 ADD MSTORE DUP2 DUP4 PUSH1 0x40 DUP4 ADD CALLDATACOPY PUSH1 0x0 DUP2 DUP4 ADD PUSH1 0x40 SWAP1 DUP2 ADD SWAP2 SWAP1 SWAP2 MSTORE PUSH1 0x1F SWAP1 SWAP3 ADD PUSH32 0xFFFFFFFFFFFFFFFFFFFFFFFFFFFFFFFFFFFFFFFFFFFFFFFFFFFFFFFFFFFFFFE0 AND ADD ADD SWAP2 SWAP1 POP JUMP JUMPDEST PUSH1 0x0 PUSH1 0x20 DUP3 DUP5 SUB SLT ISZERO PUSH2 0x3350 JUMPI PUSH1 0x0 DUP1 REVERT JUMPDEST DUP2 MLOAD PUSH2 0xDE6 DUP2 PUSH2 0x2C10 JUMP JUMPDEST PUSH1 0x0 PUSH16 0xFFFFFFFFFFFFFFFFFFFFFFFFFFFFFFFF DUP1 DUP4 AND DUP2 DUP6 AND DUP2 DUP4 DIV DUP2 GT DUP3 ISZERO ISZERO AND ISZERO PUSH2 0x338A JUMPI PUSH2 0x338A PUSH2 0x3277 JUMP JUMPDEST MUL SWAP5 SWAP4 POP POP POP POP JUMP JUMPDEST PUSH32 0x4E487B7100000000000000000000000000000000000000000000000000000000 PUSH1 0x0 MSTORE PUSH1 0x32 PUSH1 0x4 MSTORE PUSH1 0x24 PUSH1 0x0 REVERT JUMPDEST PUSH1 0x0 DUP1 DUP4 CALLDATALOAD PUSH32 0xFFFFFFFFFFFFFFFFFFFFFFFFFFFFFFFFFFFFFFFFFFFFFFFFFFFFFFFFFFFFFFE1 DUP5 CALLDATASIZE SUB ADD DUP2 SLT PUSH2 0x33F7 JUMPI PUSH1 0x0 DUP1 REVERT JUMPDEST DUP4 ADD DUP1 CALLDATALOAD SWAP2 POP PUSH8 0xFFFFFFFFFFFFFFFF DUP3 GT ISZERO PUSH2 0x3412 JUMPI PUSH1 0x0 DUP1 REVERT JUMPDEST PUSH1 0x20 ADD SWAP2 POP CALLDATASIZE DUP2 SWAP1 SUB DUP3 SGT ISZERO PUSH2 0x3427 JUMPI PUSH1 0x0 DUP1 REVERT JUMPDEST SWAP3 POP SWAP3 SWAP1 POP JUMP JUMPDEST DUP2 DUP4 DUP3 CALLDATACOPY PUSH1 0x0 SWAP2 ADD SWAP1 DUP2 MSTORE SWAP2 SWAP1 POP JUMP JUMPDEST PUSH1 0x0 PUSH1 0x20 DUP3 DUP5 SUB SLT ISZERO PUSH2 0x3450 JUMPI PUSH1 0x0 DUP1 REVERT JUMPDEST DUP2 MLOAD PUSH8 0xFFFFFFFFFFFFFFFF DUP2 GT ISZERO PUSH2 0x3467 JUMPI PUSH1 0x0 DUP1 REVERT JUMPDEST DUP3 ADD PUSH1 0x1F DUP2 ADD DUP5 SGT PUSH2 0x3478 JUMPI PUSH1 0x0 DUP1 REVERT JUMPDEST DUP1 MLOAD PUSH2 0x3486 PUSH2 0x31A6 DUP3 PUSH2 0x30ED JUMP JUMPDEST DUP2 DUP2 MSTORE DUP6 PUSH1 0x20 DUP4 DUP6 ADD ADD GT ISZERO PUSH2 0x349B JUMPI PUSH1 0x0 DUP1 REVERT JUMPDEST PUSH2 0x262F DUP3 PUSH1 0x20 DUP4 ADD PUSH1 0x20 DUP7 ADD PUSH2 0x2C5E JUMP JUMPDEST PUSH1 0x0 PUSH32 0xFFFFFFFFFFFFFFFFFFFFFFFFFFFFFFFFFFFFFFFFFFFFFFFFFFFFFFFFFFFFFFFF DUP3 EQ ISZERO PUSH2 0x34DE JUMPI PUSH2 0x34DE PUSH2 0x3277 JUMP JUMPDEST POP PUSH1 0x1 ADD SWAP1 JUMP JUMPDEST PUSH1 0x0 PUSH20 0xFFFFFFFFFFFFFFFFFFFFFFFFFFFFFFFFFFFFFFFF DUP1 DUP8 AND DUP4 MSTORE DUP1 DUP7 AND PUSH1 0x20 DUP5 ADD MSTORE POP DUP4 PUSH1 0x40 DUP4 ADD MSTORE PUSH1 0x80 PUSH1 0x60 DUP4 ADD MSTORE PUSH2 0x3524 PUSH1 0x80 DUP4 ADD DUP5 PUSH2 0x2C8A JUMP JUMPDEST SWAP7 SWAP6 POP POP POP POP POP POP JUMP JUMPDEST PUSH1 0x0 PUSH1 0x20 DUP3 DUP5 SUB SLT ISZERO PUSH2 0x3540 JUMPI PUSH1 0x0 DUP1 REVERT JUMPDEST DUP2 CALLDATALOAD PUSH4 0xFFFFFFFF DUP2 AND DUP2 EQ PUSH2 0xDE6 JUMPI PUSH1 0x0 DUP1 REVERT JUMPDEST PUSH1 0x0 PUSH1 0x20 DUP3 DUP5 SUB SLT ISZERO PUSH2 0x3566 JUMPI PUSH1 0x0 DUP1 REVERT JUMPDEST DUP2 CALLDATALOAD PUSH16 0xFFFFFFFFFFFFFFFFFFFFFFFFFFFFFFFF DUP2 AND DUP2 EQ PUSH2 0xDE6 JUMPI PUSH1 0x0 DUP1 REVERT JUMPDEST PUSH1 0x0 PUSH1 0x20 DUP3 DUP5 SUB SLT ISZERO PUSH2 0x3598 JUMPI PUSH1 0x0 DUP1 REVERT JUMPDEST PUSH2 0xDE6 DUP3 PUSH2 0x2D09 JUMP JUMPDEST PUSH1 0x0 DUP2 PUSH32 0xFFFFFFFFFFFFFFFFFFFFFFFFFFFFFFFFFFFFFFFFFFFFFFFFFFFFFFFFFFFFFFFF DIV DUP4 GT DUP3 ISZERO ISZERO AND ISZERO PUSH2 0x35D9 JUMPI PUSH2 0x35D9 PUSH2 0x3277 JUMP JUMPDEST POP MUL SWAP1 JUMP JUMPDEST PUSH1 0x0 DUP3 PUSH2 0x3614 JUMPI PUSH32 0x4E487B7100000000000000000000000000000000000000000000000000000000 PUSH1 0x0 MSTORE PUSH1 0x12 PUSH1 0x4 MSTORE PUSH1 0x24 PUSH1 0x0 REVERT JUMPDEST POP DIV SWAP1 JUMP JUMPDEST PUSH1 0x0 PUSH4 0xFFFFFFFF DUP1 DUP4 AND DUP2 DUP6 AND DUP1 DUP4 SUB DUP3 GT ISZERO PUSH2 0x32E8 JUMPI PUSH2 0x32E8 PUSH2 0x3277 JUMP JUMPDEST PUSH1 0x0 DUP3 NOT DUP3 GT ISZERO PUSH2 0x364B JUMPI PUSH2 0x364B PUSH2 0x3277 JUMP JUMPDEST POP ADD SWAP1 JUMP JUMPDEST PUSH1 0x0 DUP1 PUSH1 0x40 DUP4 DUP6 SUB SLT ISZERO PUSH2 0x3663 JUMPI PUSH1 0x0 DUP1 REVERT JUMPDEST POP POP DUP1 MLOAD PUSH1 0x20 SWAP1 SWAP2 ADD MLOAD SWAP1 SWAP3 SWAP1 SWAP2 POP JUMP JUMPDEST PUSH1 0x0 PUSH1 0x20 DUP3 DUP5 SUB SLT ISZERO PUSH2 0x3686 JUMPI PUSH1 0x0 DUP1 REVERT JUMPDEST POP MLOAD SWAP2 SWAP1 POP JUMP INVALID LOG2 PUSH5 0x6970667358 0x22 SLT KECCAK256 0x4D GT 0xDC BYTE CALLER DELEGATECALL MUL 0xF8 0x25 NOT 0xDA 0xAB 0x1F PUSH7 0x10FF0A0616A0BA SIGNEXTEND 0xFC SWAP7 SWAP9 SHL CODESIZE 0x2A BASEFEE DIV SWAP8 0xC8 PUSH5 0x736F6C6343 STOP ADDMOD EXP STOP CALLER "},"gasEstimates":{"creation":{"codeDepositCost":"2803800","executionCost":"infinite","totalCost":"infinite"},"external":{"PERCENTAGE_PRECISION()":"306","approve(address,uint256)":"31085","balanceOf(address)":"2569","bentoBox()":"infinite","claimOwnership()":"54438","createVesting((address,address,uint32,uint32,uint32,uint32,uint128,uint128,bool))":"infinite","getApproved(uint256)":"2521","isApprovedForAll(address,address)":"infinite","multicall(bytes[])":"infinite","name()":"infinite","owner()":"2425","ownerOf(uint256)":"2564","pendingOwner()":"2357","safeTransferFrom(address,address,uint256)":"infinite","safeTransferFrom(address,address,uint256,bytes)":"infinite","setApprovalForAll(address,bool)":"26671","setBentoBoxApproval(address,bool,uint8,bytes32,bytes32)":"infinite","setTokenURIFetcher(address)":"26699","stopVesting(uint256,bool)":"infinite","supportsInterface(bytes4)":"479","symbol()":"infinite","tokenURI(uint256)":"infinite","tokenURIFetcher()":"2359","transferFrom(address,address,uint256)":"infinite","transferOwnership(address,bool,bool)":"infinite","updateOwner(uint256,address)":"28362","vestBalance(uint256)":"infinite","vestIds()":"2363","vests(uint256)":"9236","wETH()":"infinite","withdraw(uint256,bytes,bool)":"infinite"},"internal":{"_balanceOf(struct IFuroVesting.Vest memory)":"infinite","_depositToken(address,address,address,uint256,bool)":"infinite","_transferToken(address,address,address,uint256,bool)":"infinite"}},"methodIdentifiers":{"PERCENTAGE_PRECISION()":"e256888f","approve(address,uint256)":"095ea7b3","balanceOf(address)":"70a08231","bentoBox()":"6b2ace87","claimOwnership()":"4e71e0c8","createVesting((address,address,uint32,uint32,uint32,uint32,uint128,uint128,bool))":"e9d163c9","getApproved(uint256)":"081812fc","isApprovedForAll(address,address)":"e985e9c5","multicall(bytes[])":"ac9650d8","name()":"06fdde03","owner()":"8da5cb5b","ownerOf(uint256)":"6352211e","pendingOwner()":"e30c3978","safeTransferFrom(address,address,uint256)":"42842e0e","safeTransferFrom(address,address,uint256,bytes)":"b88d4fde","setApprovalForAll(address,bool)":"a22cb465","setBentoBoxApproval(address,bool,uint8,bytes32,bytes32)":"489bb0b2","setTokenURIFetcher(address)":"b3a2b2cf","stopVesting(uint256,bool)":"a203db8e","supportsInterface(bytes4)":"01ffc9a7","symbol()":"95d89b41","tokenURI(uint256)":"c87b56dd","tokenURIFetcher()":"07d88aad","transferFrom(address,address,uint256)":"23b872dd","transferOwnership(address,bool,bool)":"078dfbe7","updateOwner(uint256,address)":"7192711f","vestBalance(uint256)":"19f77171","vestIds()":"2bcea736","vests(uint256)":"51def556","wETH()":"f2428621","withdraw(uint256,bytes,bool)":"40e76eff"}},"storageLayout":{"storage":[{"astId":1605,"contract":"contracts/base/FuroVesting.sol:FuroVesting","label":"name","offset":0,"slot":"0","type":"t_string_storage"},{"astId":1607,"contract":"contracts/base/FuroVesting.sol:FuroVesting","label":"symbol","offset":0,"slot":"1","type":"t_string_storage"},{"astId":1618,"contract":"contracts/base/FuroVesting.sol:FuroVesting","label":"balanceOf","offset":0,"slot":"2","type":"t_mapping(t_address,t_uint256)"},{"astId":1622,"contract":"contracts/base/FuroVesting.sol:FuroVesting","label":"ownerOf","offset":0,"slot":"3","type":"t_mapping(t_uint256,t_address)"},{"astId":1626,"contract":"contracts/base/FuroVesting.sol:FuroVesting","label":"getApproved","offset":0,"slot":"4","type":"t_mapping(t_uint256,t_address)"},{"astId":1632,"contract":"contracts/base/FuroVesting.sol:FuroVesting","label":"isApprovedForAll","offset":0,"slot":"5","type":"t_mapping(t_address,t_mapping(t_address,t_bool))"},{"astId":5895,"contract":"contracts/base/FuroVesting.sol:FuroVesting","label":"owner","offset":0,"slot":"6","type":"t_address"},{"astId":5897,"contract":"contracts/base/FuroVesting.sol:FuroVesting","label":"pendingOwner","offset":0,"slot":"7","type":"t_address"},{"astId":3816,"contract":"contracts/base/FuroVesting.sol:FuroVesting","label":"tokenURIFetcher","offset":0,"slot":"8","type":"t_address"},{"astId":3821,"contract":"contracts/base/FuroVesting.sol:FuroVesting","label":"vests","offset":0,"slot":"9","type":"t_mapping(t_uint256,t_struct(Vest)4931_storage)"},{"astId":3823,"contract":"contracts/base/FuroVesting.sol:FuroVesting","label":"vestIds","offset":0,"slot":"10","type":"t_uint256"}],"types":{"t_address":{"encoding":"inplace","label":"address","numberOfBytes":"20"},"t_bool":{"encoding":"inplace","label":"bool","numberOfBytes":"1"},"t_contract(IERC20)4652":{"encoding":"inplace","label":"contract IERC20","numberOfBytes":"20"},"t_mapping(t_address,t_bool)":{"encoding":"mapping","key":"t_address","label":"mapping(address => bool)","numberOfBytes":"32","value":"t_bool"},"t_mapping(t_address,t_mapping(t_address,t_bool))":{"encoding":"mapping","key":"t_address","label":"mapping(address => mapping(address => bool))","numberOfBytes":"32","value":"t_mapping(t_address,t_bool)"},"t_mapping(t_address,t_uint256)":{"encoding":"mapping","key":"t_address","label":"mapping(address => uint256)","numberOfBytes":"32","value":"t_uint256"},"t_mapping(t_uint256,t_address)":{"encoding":"mapping","key":"t_uint256","label":"mapping(uint256 => address)","numberOfBytes":"32","value":"t_address"},"t_mapping(t_uint256,t_struct(Vest)4931_storage)":{"encoding":"mapping","key":"t_uint256","label":"mapping(uint256 => struct IFuroVesting.Vest)","numberOfBytes":"32","value":"t_struct(Vest)4931_storage"},"t_string_storage":{"encoding":"bytes","label":"string","numberOfBytes":"32"},"t_struct(Vest)4931_storage":{"encoding":"inplace","label":"struct IFuroVesting.Vest","members":[{"astId":4913,"contract":"contracts/base/FuroVesting.sol:FuroVesting","label":"owner","offset":0,"slot":"0","type":"t_address"},{"astId":4916,"contract":"contracts/base/FuroVesting.sol:FuroVesting","label":"token","offset":0,"slot":"1","type":"t_contract(IERC20)4652"},{"astId":4918,"contract":"contracts/base/FuroVesting.sol:FuroVesting","label":"start","offset":20,"slot":"1","type":"t_uint32"},{"astId":4920,"contract":"contracts/base/FuroVesting.sol:FuroVesting","label":"cliffDuration","offset":24,"slot":"1","type":"t_uint32"},{"astId":4922,"contract":"contracts/base/FuroVesting.sol:FuroVesting","label":"stepDuration","offset":28,"slot":"1","type":"t_uint32"},{"astId":4924,"contract":"contracts/base/FuroVesting.sol:FuroVesting","label":"steps","offset":0,"slot":"2","type":"t_uint32"},{"astId":4926,"contract":"contracts/base/FuroVesting.sol:FuroVesting","label":"cliffShares","offset":4,"slot":"2","type":"t_uint128"},{"astId":4928,"contract":"contracts/base/FuroVesting.sol:FuroVesting","label":"stepShares","offset":0,"slot":"3","type":"t_uint128"},{"astId":4930,"contract":"contracts/base/FuroVesting.sol:FuroVesting","label":"claimed","offset":16,"slot":"3","type":"t_uint128"}],"numberOfBytes":"128"},"t_uint128":{"encoding":"inplace","label":"uint128","numberOfBytes":"16"},"t_uint256":{"encoding":"inplace","label":"uint256","numberOfBytes":"32"},"t_uint32":{"encoding":"inplace","label":"uint32","numberOfBytes":"4"}}},"userdoc":{"kind":"user","methods":{"claimOwnership()":{"notice":"Needs to be called by `pendingOwner` to claim ownership."},"transferOwnership(address,bool,bool)":{"notice":"Transfers ownership to `newOwner`. Either directly or claimable by the new pending owner. Can only be invoked by the current `owner`."}},"version":1}}}}