{"contracts/misc/StargateFeeV04Extraction.sol":{"StargateFeeV04Extraction":{"abi":[{"inputs":[],"stateMutability":"nonpayable","type":"constructor"},{"inputs":[],"name":"DELTA_1","outputs":[{"internalType":"uint256","name":"","type":"uint256"}],"stateMutability":"view","type":"function"},{"inputs":[],"name":"DELTA_2","outputs":[{"internalType":"uint256","name":"","type":"uint256"}],"stateMutability":"view","type":"function"},{"inputs":[],"name":"DENOMINATOR","outputs":[{"internalType":"uint256","name":"","type":"uint256"}],"stateMutability":"view","type":"function"},{"inputs":[],"name":"FIFTY_PERCENT","outputs":[{"internalType":"uint256","name":"","type":"uint256"}],"stateMutability":"view","type":"function"},{"inputs":[],"name":"LAMBDA_1","outputs":[{"internalType":"uint256","name":"","type":"uint256"}],"stateMutability":"view","type":"function"},{"inputs":[],"name":"LAMBDA_2","outputs":[{"internalType":"uint256","name":"","type":"uint256"}],"stateMutability":"view","type":"function"},{"inputs":[],"name":"LP_FEE","outputs":[{"internalType":"uint256","name":"","type":"uint256"}],"stateMutability":"view","type":"function"},{"inputs":[],"name":"PROTOCOL_FEE","outputs":[{"internalType":"uint256","name":"","type":"uint256"}],"stateMutability":"view","type":"function"},{"inputs":[],"name":"PROTOCOL_SUBSIDY","outputs":[{"internalType":"uint256","name":"","type":"uint256"}],"stateMutability":"view","type":"function"},{"inputs":[],"name":"SIXTY_PERCENT","outputs":[{"internalType":"uint256","name":"","type":"uint256"}],"stateMutability":"view","type":"function"},{"inputs":[{"components":[{"internalType":"uint256","name":"currentAssetSD","type":"uint256"},{"internalType":"uint256","name":"lpAsset","type":"uint256"},{"internalType":"uint256","name":"eqFeePool","type":"uint256"},{"internalType":"uint256","name":"idealBalance","type":"uint256"},{"internalType":"uint256","name":"currentBalance","type":"uint256"},{"internalType":"bool","name":"allocPointIsPositive","type":"bool"}],"internalType":"struct BridgeState","name":"state","type":"tuple"},{"internalType":"bool","name":"whitelisted","type":"bool"},{"internalType":"uint256","name":"amountSD","type":"uint256"}],"name":"getFees","outputs":[{"components":[{"internalType":"uint256","name":"eqFee","type":"uint256"},{"internalType":"uint256","name":"eqReward","type":"uint256"},{"internalType":"uint256","name":"lpFee","type":"uint256"},{"internalType":"uint256","name":"protocolFee","type":"uint256"}],"internalType":"struct Fees","name":"s","type":"tuple"}],"stateMutability":"pure","type":"function"}],"devdoc":{"kind":"dev","methods":{},"version":1},"evm":{"bytecode":{"linkReferences":{},"object":"608060405234801561001057600080fd5b50610940806100206000396000f3fe608060405234801561001057600080fd5b50600436106100c95760003560e01c80635e3f2727116100815780638afbd3781161005b5780638afbd37814610144578063918f86741461018a578063a810de6c1461019957600080fd5b80635e3f27271461012a5780637ba5c12f14610137578063886a9c501461010d57600080fd5b80631e04cbf3116100b25780631e04cbf3146100fe5780633dad0dd51461010d578063518a9f9f1461011c57600080fd5b8063012a1c2d146100ce5780630b4501fd146100f0575b600080fd5b6100dd670dd280b9144a000081565b6040519081526020015b60405180910390f35b6100dd6601c6bf5263400081565b6100dd6706f05b59d3b2000081565b6100dd670853a0d2313c000081565b6100dd66b1a2bc2ec5000081565b6100dd655af3107a400081565b6100dd651b48eb57e00081565b610157610152366004610764565b6101a7565b6040516100e791908151815260208083015190820152604080830151908201526060918201519181019190915260800190565b6100dd670de0b6b3a764000081565b6100dd660e35fa931a000081565b6101d26040518060800160405280600081526020016000815260200160008152602001600081525090565b6101dc848361021c565b602082015260006101ed85846102db565b908352905083156101fe5750610215565b6102098584836104aa565b60408401526060830152505b9392505050565b60008260000151836020015111610235575060006102d5565b825160208401516000916102499190610625565b9050604b610273856020015161026d6064886000015161063190919063ffffffff16565b9061063d565b1080156102935750610286816002610631565b610291846064610631565b115b156102ce576102b38161026d85876040015161063190919063ffffffff16565b915083604001518211156102c957836040015191505b6102d3565b600091505b505b92915050565b60808201516060830151600091829184821015610359576040517f08c379a000000000000000000000000000000000000000000000000000000000815260206004820152601c60248201527f53746172676174653a206e6f7420656e6f7567682062616c616e63650000000060448201526064015b60405180910390fd5b60006103658387610625565b90506000610387670de0b6b3a764000061026d85670853a0d2313c0000610631565b905060006103a8670de0b6b3a764000061026d8666b1a2bc2ec50000610631565b90506000808385106103da576103d0670de0b6b3a764000061026d8c651b48eb57e000610631565b915081905061049a565b8285106104125760008488106103f057846103f2565b875b905061040a660e35fa931a000060008787858b610649565b92505061049a565b82871061046f576000848810610428578461042a565b875b905061044c610445660e35fa931a000060008888868a610649565b8490610743565b925061040a610445670dd280b9144a0000660e35fa931a0000876000898c610649565b610497610490670dd280b9144a0000660e35fa931a00008660008c8b610649565b8390610743565b91505b909a909950975050505050505050565b6000806104d4836104ce670de0b6b3a764000061026d886601c6bf52634000610631565b90610625565b91506104f2670de0b6b3a764000061026d86655af3107a4000610631565b90508460a001511561050f576105088282610743565b9150600090505b602085015161051d5761061d565b600061054a670de0b6b3a764000061026d670853a0d2313c0000896060015161063190919063ffffffff16565b60808701516105599087610625565b1190506000610585876020015161026d670de0b6b3a76400008a6000015161063190919063ffffffff16565b90506706f05b59d3b20000811115801561059c5750815b156105ae57600093506000925061061a565b670853a0d2313c0000811080156105c25750815b1561061a5760006105e6600a6105e0846706f05b59d3b20000610625565b90610631565b90506105fe670de0b6b3a764000061026d8784610631565b9450610616670de0b6b3a764000061026d8684610631565b9350505b50505b935093915050565b60006102158284610863565b6000610215828461087a565b600061021582846108b7565b600083821015801561065b5750848311155b6106c1576040517f08c379a000000000000000000000000000000000000000000000000000000000815260206004820152601e60248201527f53746172676174653a2062616c616e6365206f7574206f6620626f756e6400006044820152606401610350565b60006106cd8686610625565b905060006106ed886106e78461026d8d6105e08d8c610625565b90610743565b90506000610707896106e78561026d8e6105e08e8c610625565b905060006107158787610625565b9050610734670de0b6b3a764000061026d600281856105e08989610743565b9b9a5050505050505050505050565b600061021582846108f2565b8035801515811461075f57600080fd5b919050565b600080600083850361010081121561077b57600080fd5b60c081121561078957600080fd5b5060405160c0810181811067ffffffffffffffff821117156107d4577f4e487b7100000000000000000000000000000000000000000000000000000000600052604160045260246000fd5b8060405250843581526020850135602082015260408501356040820152606085013560608201526080850135608082015261081160a0860161074f565b60a0820152925061082460c0850161074f565b915060e084013590509250925092565b7f4e487b7100000000000000000000000000000000000000000000000000000000600052601160045260246000fd5b60008282101561087557610875610834565b500390565b6000817fffffffffffffffffffffffffffffffffffffffffffffffffffffffffffffffff04831182151516156108b2576108b2610834565b500290565b6000826108ed577f4e487b7100000000000000000000000000000000000000000000000000000000600052601260045260246000fd5b500490565b6000821982111561090557610905610834565b50019056fea2646970667358221220cbeae1ea0ef7601972d65fabe39aebcb8286e9b774aec23a06a87e6b4159d5ab64736f6c634300080b0033","opcodes":"PUSH1 0x80 PUSH1 0x40 MSTORE CALLVALUE DUP1 ISZERO PUSH2 0x10 JUMPI PUSH1 0x0 DUP1 REVERT JUMPDEST POP PUSH2 0x940 DUP1 PUSH2 0x20 PUSH1 0x0 CODECOPY PUSH1 0x0 RETURN INVALID PUSH1 0x80 PUSH1 0x40 MSTORE CALLVALUE DUP1 ISZERO PUSH2 0x10 JUMPI PUSH1 0x0 DUP1 REVERT JUMPDEST POP PUSH1 0x4 CALLDATASIZE LT PUSH2 0xC9 JUMPI PUSH1 0x0 CALLDATALOAD PUSH1 0xE0 SHR DUP1 PUSH4 0x5E3F2727 GT PUSH2 0x81 JUMPI DUP1 PUSH4 0x8AFBD378 GT PUSH2 0x5B JUMPI DUP1 PUSH4 0x8AFBD378 EQ PUSH2 0x144 JUMPI DUP1 PUSH4 0x918F8674 EQ PUSH2 0x18A JUMPI DUP1 PUSH4 0xA810DE6C EQ PUSH2 0x199 JUMPI PUSH1 0x0 DUP1 REVERT JUMPDEST DUP1 PUSH4 0x5E3F2727 EQ PUSH2 0x12A JUMPI DUP1 PUSH4 0x7BA5C12F EQ PUSH2 0x137 JUMPI DUP1 PUSH4 0x886A9C50 EQ PUSH2 0x10D JUMPI PUSH1 0x0 DUP1 REVERT JUMPDEST DUP1 PUSH4 0x1E04CBF3 GT PUSH2 0xB2 JUMPI DUP1 PUSH4 0x1E04CBF3 EQ PUSH2 0xFE JUMPI DUP1 PUSH4 0x3DAD0DD5 EQ PUSH2 0x10D JUMPI DUP1 PUSH4 0x518A9F9F EQ PUSH2 0x11C JUMPI PUSH1 0x0 DUP1 REVERT JUMPDEST DUP1 PUSH4 0x12A1C2D EQ PUSH2 0xCE JUMPI DUP1 PUSH4 0xB4501FD EQ PUSH2 0xF0 JUMPI JUMPDEST PUSH1 0x0 DUP1 REVERT JUMPDEST PUSH2 0xDD PUSH8 0xDD280B9144A0000 DUP2 JUMP JUMPDEST PUSH1 0x40 MLOAD SWAP1 DUP2 MSTORE PUSH1 0x20 ADD JUMPDEST PUSH1 0x40 MLOAD DUP1 SWAP2 SUB SWAP1 RETURN JUMPDEST PUSH2 0xDD PUSH7 0x1C6BF52634000 DUP2 JUMP JUMPDEST PUSH2 0xDD PUSH8 0x6F05B59D3B20000 DUP2 JUMP JUMPDEST PUSH2 0xDD PUSH8 0x853A0D2313C0000 DUP2 JUMP JUMPDEST PUSH2 0xDD PUSH7 0xB1A2BC2EC50000 DUP2 JUMP JUMPDEST PUSH2 0xDD PUSH6 0x5AF3107A4000 DUP2 JUMP JUMPDEST PUSH2 0xDD PUSH6 0x1B48EB57E000 DUP2 JUMP JUMPDEST PUSH2 0x157 PUSH2 0x152 CALLDATASIZE PUSH1 0x4 PUSH2 0x764 JUMP JUMPDEST PUSH2 0x1A7 JUMP JUMPDEST PUSH1 0x40 MLOAD PUSH2 0xE7 SWAP2 SWAP1 DUP2 MLOAD DUP2 MSTORE PUSH1 0x20 DUP1 DUP4 ADD MLOAD SWAP1 DUP3 ADD MSTORE PUSH1 0x40 DUP1 DUP4 ADD MLOAD SWAP1 DUP3 ADD MSTORE PUSH1 0x60 SWAP2 DUP3 ADD MLOAD SWAP2 DUP2 ADD SWAP2 SWAP1 SWAP2 MSTORE PUSH1 0x80 ADD SWAP1 JUMP JUMPDEST PUSH2 0xDD PUSH8 0xDE0B6B3A7640000 DUP2 JUMP JUMPDEST PUSH2 0xDD PUSH7 0xE35FA931A0000 DUP2 JUMP JUMPDEST PUSH2 0x1D2 PUSH1 0x40 MLOAD DUP1 PUSH1 0x80 ADD PUSH1 0x40 MSTORE DUP1 PUSH1 0x0 DUP2 MSTORE PUSH1 0x20 ADD PUSH1 0x0 DUP2 MSTORE PUSH1 0x20 ADD PUSH1 0x0 DUP2 MSTORE PUSH1 0x20 ADD PUSH1 0x0 DUP2 MSTORE POP SWAP1 JUMP JUMPDEST PUSH2 0x1DC DUP5 DUP4 PUSH2 0x21C JUMP JUMPDEST PUSH1 0x20 DUP3 ADD MSTORE PUSH1 0x0 PUSH2 0x1ED DUP6 DUP5 PUSH2 0x2DB JUMP JUMPDEST SWAP1 DUP4 MSTORE SWAP1 POP DUP4 ISZERO PUSH2 0x1FE JUMPI POP PUSH2 0x215 JUMP JUMPDEST PUSH2 0x209 DUP6 DUP5 DUP4 PUSH2 0x4AA JUMP JUMPDEST PUSH1 0x40 DUP5 ADD MSTORE PUSH1 0x60 DUP4 ADD MSTORE POP JUMPDEST SWAP4 SWAP3 POP POP POP JUMP JUMPDEST PUSH1 0x0 DUP3 PUSH1 0x0 ADD MLOAD DUP4 PUSH1 0x20 ADD MLOAD GT PUSH2 0x235 JUMPI POP PUSH1 0x0 PUSH2 0x2D5 JUMP JUMPDEST DUP3 MLOAD PUSH1 0x20 DUP5 ADD MLOAD PUSH1 0x0 SWAP2 PUSH2 0x249 SWAP2 SWAP1 PUSH2 0x625 JUMP JUMPDEST SWAP1 POP PUSH1 0x4B PUSH2 0x273 DUP6 PUSH1 0x20 ADD MLOAD PUSH2 0x26D PUSH1 0x64 DUP9 PUSH1 0x0 ADD MLOAD PUSH2 0x631 SWAP1 SWAP2 SWAP1 PUSH4 0xFFFFFFFF AND JUMP JUMPDEST SWAP1 PUSH2 0x63D JUMP JUMPDEST LT DUP1 ISZERO PUSH2 0x293 JUMPI POP PUSH2 0x286 DUP2 PUSH1 0x2 PUSH2 0x631 JUMP JUMPDEST PUSH2 0x291 DUP5 PUSH1 0x64 PUSH2 0x631 JUMP JUMPDEST GT JUMPDEST ISZERO PUSH2 0x2CE JUMPI PUSH2 0x2B3 DUP2 PUSH2 0x26D DUP6 DUP8 PUSH1 0x40 ADD MLOAD PUSH2 0x631 SWAP1 SWAP2 SWAP1 PUSH4 0xFFFFFFFF AND JUMP JUMPDEST SWAP2 POP DUP4 PUSH1 0x40 ADD MLOAD DUP3 GT ISZERO PUSH2 0x2C9 JUMPI DUP4 PUSH1 0x40 ADD MLOAD SWAP2 POP JUMPDEST PUSH2 0x2D3 JUMP JUMPDEST PUSH1 0x0 SWAP2 POP JUMPDEST POP JUMPDEST SWAP3 SWAP2 POP POP JUMP JUMPDEST PUSH1 0x80 DUP3 ADD MLOAD PUSH1 0x60 DUP4 ADD MLOAD PUSH1 0x0 SWAP2 DUP3 SWAP2 DUP5 DUP3 LT ISZERO PUSH2 0x359 JUMPI PUSH1 0x40 MLOAD PUSH32 0x8C379A000000000000000000000000000000000000000000000000000000000 DUP2 MSTORE PUSH1 0x20 PUSH1 0x4 DUP3 ADD MSTORE PUSH1 0x1C PUSH1 0x24 DUP3 ADD MSTORE PUSH32 0x53746172676174653A206E6F7420656E6F7567682062616C616E636500000000 PUSH1 0x44 DUP3 ADD MSTORE PUSH1 0x64 ADD JUMPDEST PUSH1 0x40 MLOAD DUP1 SWAP2 SUB SWAP1 REVERT JUMPDEST PUSH1 0x0 PUSH2 0x365 DUP4 DUP8 PUSH2 0x625 JUMP JUMPDEST SWAP1 POP PUSH1 0x0 PUSH2 0x387 PUSH8 0xDE0B6B3A7640000 PUSH2 0x26D DUP6 PUSH8 0x853A0D2313C0000 PUSH2 0x631 JUMP JUMPDEST SWAP1 POP PUSH1 0x0 PUSH2 0x3A8 PUSH8 0xDE0B6B3A7640000 PUSH2 0x26D DUP7 PUSH7 0xB1A2BC2EC50000 PUSH2 0x631 JUMP JUMPDEST SWAP1 POP PUSH1 0x0 DUP1 DUP4 DUP6 LT PUSH2 0x3DA JUMPI PUSH2 0x3D0 PUSH8 0xDE0B6B3A7640000 PUSH2 0x26D DUP13 PUSH6 0x1B48EB57E000 PUSH2 0x631 JUMP JUMPDEST SWAP2 POP DUP2 SWAP1 POP PUSH2 0x49A JUMP JUMPDEST DUP3 DUP6 LT PUSH2 0x412 JUMPI PUSH1 0x0 DUP5 DUP9 LT PUSH2 0x3F0 JUMPI DUP5 PUSH2 0x3F2 JUMP JUMPDEST DUP8 JUMPDEST SWAP1 POP PUSH2 0x40A PUSH7 0xE35FA931A0000 PUSH1 0x0 DUP8 DUP8 DUP6 DUP12 PUSH2 0x649 JUMP JUMPDEST SWAP3 POP POP PUSH2 0x49A JUMP JUMPDEST DUP3 DUP8 LT PUSH2 0x46F JUMPI PUSH1 0x0 DUP5 DUP9 LT PUSH2 0x428 JUMPI DUP5 PUSH2 0x42A JUMP JUMPDEST DUP8 JUMPDEST SWAP1 POP PUSH2 0x44C PUSH2 0x445 PUSH7 0xE35FA931A0000 PUSH1 0x0 DUP9 DUP9 DUP7 DUP11 PUSH2 0x649 JUMP JUMPDEST DUP5 SWAP1 PUSH2 0x743 JUMP JUMPDEST SWAP3 POP PUSH2 0x40A PUSH2 0x445 PUSH8 0xDD280B9144A0000 PUSH7 0xE35FA931A0000 DUP8 PUSH1 0x0 DUP10 DUP13 PUSH2 0x649 JUMP JUMPDEST PUSH2 0x497 PUSH2 0x490 PUSH8 0xDD280B9144A0000 PUSH7 0xE35FA931A0000 DUP7 PUSH1 0x0 DUP13 DUP12 PUSH2 0x649 JUMP JUMPDEST DUP4 SWAP1 PUSH2 0x743 JUMP JUMPDEST SWAP2 POP JUMPDEST SWAP1 SWAP11 SWAP1 SWAP10 POP SWAP8 POP POP POP POP POP POP POP POP JUMP JUMPDEST PUSH1 0x0 DUP1 PUSH2 0x4D4 DUP4 PUSH2 0x4CE PUSH8 0xDE0B6B3A7640000 PUSH2 0x26D DUP9 PUSH7 0x1C6BF52634000 PUSH2 0x631 JUMP JUMPDEST SWAP1 PUSH2 0x625 JUMP JUMPDEST SWAP2 POP PUSH2 0x4F2 PUSH8 0xDE0B6B3A7640000 PUSH2 0x26D DUP7 PUSH6 0x5AF3107A4000 PUSH2 0x631 JUMP JUMPDEST SWAP1 POP DUP5 PUSH1 0xA0 ADD MLOAD ISZERO PUSH2 0x50F JUMPI PUSH2 0x508 DUP3 DUP3 PUSH2 0x743 JUMP JUMPDEST SWAP2 POP PUSH1 0x0 SWAP1 POP JUMPDEST PUSH1 0x20 DUP6 ADD MLOAD PUSH2 0x51D JUMPI PUSH2 0x61D JUMP JUMPDEST PUSH1 0x0 PUSH2 0x54A PUSH8 0xDE0B6B3A7640000 PUSH2 0x26D PUSH8 0x853A0D2313C0000 DUP10 PUSH1 0x60 ADD MLOAD PUSH2 0x631 SWAP1 SWAP2 SWAP1 PUSH4 0xFFFFFFFF AND JUMP JUMPDEST PUSH1 0x80 DUP8 ADD MLOAD PUSH2 0x559 SWAP1 DUP8 PUSH2 0x625 JUMP JUMPDEST GT SWAP1 POP PUSH1 0x0 PUSH2 0x585 DUP8 PUSH1 0x20 ADD MLOAD PUSH2 0x26D PUSH8 0xDE0B6B3A7640000 DUP11 PUSH1 0x0 ADD MLOAD PUSH2 0x631 SWAP1 SWAP2 SWAP1 PUSH4 0xFFFFFFFF AND JUMP JUMPDEST SWAP1 POP PUSH8 0x6F05B59D3B20000 DUP2 GT ISZERO DUP1 ISZERO PUSH2 0x59C JUMPI POP DUP2 JUMPDEST ISZERO PUSH2 0x5AE JUMPI PUSH1 0x0 SWAP4 POP PUSH1 0x0 SWAP3 POP PUSH2 0x61A JUMP JUMPDEST PUSH8 0x853A0D2313C0000 DUP2 LT DUP1 ISZERO PUSH2 0x5C2 JUMPI POP DUP2 JUMPDEST ISZERO PUSH2 0x61A JUMPI PUSH1 0x0 PUSH2 0x5E6 PUSH1 0xA PUSH2 0x5E0 DUP5 PUSH8 0x6F05B59D3B20000 PUSH2 0x625 JUMP JUMPDEST SWAP1 PUSH2 0x631 JUMP JUMPDEST SWAP1 POP PUSH2 0x5FE PUSH8 0xDE0B6B3A7640000 PUSH2 0x26D DUP8 DUP5 PUSH2 0x631 JUMP JUMPDEST SWAP5 POP PUSH2 0x616 PUSH8 0xDE0B6B3A7640000 PUSH2 0x26D DUP7 DUP5 PUSH2 0x631 JUMP JUMPDEST SWAP4 POP POP JUMPDEST POP POP JUMPDEST SWAP4 POP SWAP4 SWAP2 POP POP JUMP JUMPDEST PUSH1 0x0 PUSH2 0x215 DUP3 DUP5 PUSH2 0x863 JUMP JUMPDEST PUSH1 0x0 PUSH2 0x215 DUP3 DUP5 PUSH2 0x87A JUMP JUMPDEST PUSH1 0x0 PUSH2 0x215 DUP3 DUP5 PUSH2 0x8B7 JUMP JUMPDEST PUSH1 0x0 DUP4 DUP3 LT ISZERO DUP1 ISZERO PUSH2 0x65B JUMPI POP DUP5 DUP4 GT ISZERO JUMPDEST PUSH2 0x6C1 JUMPI PUSH1 0x40 MLOAD PUSH32 0x8C379A000000000000000000000000000000000000000000000000000000000 DUP2 MSTORE PUSH1 0x20 PUSH1 0x4 DUP3 ADD MSTORE PUSH1 0x1E PUSH1 0x24 DUP3 ADD MSTORE PUSH32 0x53746172676174653A2062616C616E6365206F7574206F6620626F756E640000 PUSH1 0x44 DUP3 ADD MSTORE PUSH1 0x64 ADD PUSH2 0x350 JUMP JUMPDEST PUSH1 0x0 PUSH2 0x6CD DUP7 DUP7 PUSH2 0x625 JUMP JUMPDEST SWAP1 POP PUSH1 0x0 PUSH2 0x6ED DUP9 PUSH2 0x6E7 DUP5 PUSH2 0x26D DUP14 PUSH2 0x5E0 DUP14 DUP13 PUSH2 0x625 JUMP JUMPDEST SWAP1 PUSH2 0x743 JUMP JUMPDEST SWAP1 POP PUSH1 0x0 PUSH2 0x707 DUP10 PUSH2 0x6E7 DUP6 PUSH2 0x26D DUP15 PUSH2 0x5E0 DUP15 DUP13 PUSH2 0x625 JUMP JUMPDEST SWAP1 POP PUSH1 0x0 PUSH2 0x715 DUP8 DUP8 PUSH2 0x625 JUMP JUMPDEST SWAP1 POP PUSH2 0x734 PUSH8 0xDE0B6B3A7640000 PUSH2 0x26D PUSH1 0x2 DUP2 DUP6 PUSH2 0x5E0 DUP10 DUP10 PUSH2 0x743 JUMP JUMPDEST SWAP12 SWAP11 POP POP POP POP POP POP POP POP POP POP POP JUMP JUMPDEST PUSH1 0x0 PUSH2 0x215 DUP3 DUP5 PUSH2 0x8F2 JUMP JUMPDEST DUP1 CALLDATALOAD DUP1 ISZERO ISZERO DUP2 EQ PUSH2 0x75F JUMPI PUSH1 0x0 DUP1 REVERT JUMPDEST SWAP2 SWAP1 POP JUMP JUMPDEST PUSH1 0x0 DUP1 PUSH1 0x0 DUP4 DUP6 SUB PUSH2 0x100 DUP2 SLT ISZERO PUSH2 0x77B JUMPI PUSH1 0x0 DUP1 REVERT JUMPDEST PUSH1 0xC0 DUP2 SLT ISZERO PUSH2 0x789 JUMPI PUSH1 0x0 DUP1 REVERT JUMPDEST POP PUSH1 0x40 MLOAD PUSH1 0xC0 DUP2 ADD DUP2 DUP2 LT PUSH8 0xFFFFFFFFFFFFFFFF DUP3 GT OR ISZERO PUSH2 0x7D4 JUMPI PUSH32 0x4E487B7100000000000000000000000000000000000000000000000000000000 PUSH1 0x0 MSTORE PUSH1 0x41 PUSH1 0x4 MSTORE PUSH1 0x24 PUSH1 0x0 REVERT JUMPDEST DUP1 PUSH1 0x40 MSTORE POP DUP5 CALLDATALOAD DUP2 MSTORE PUSH1 0x20 DUP6 ADD CALLDATALOAD PUSH1 0x20 DUP3 ADD MSTORE PUSH1 0x40 DUP6 ADD CALLDATALOAD PUSH1 0x40 DUP3 ADD MSTORE PUSH1 0x60 DUP6 ADD CALLDATALOAD PUSH1 0x60 DUP3 ADD MSTORE PUSH1 0x80 DUP6 ADD CALLDATALOAD PUSH1 0x80 DUP3 ADD MSTORE PUSH2 0x811 PUSH1 0xA0 DUP7 ADD PUSH2 0x74F JUMP JUMPDEST PUSH1 0xA0 DUP3 ADD MSTORE SWAP3 POP PUSH2 0x824 PUSH1 0xC0 DUP6 ADD PUSH2 0x74F JUMP JUMPDEST SWAP2 POP PUSH1 0xE0 DUP5 ADD CALLDATALOAD SWAP1 POP SWAP3 POP SWAP3 POP SWAP3 JUMP JUMPDEST PUSH32 0x4E487B7100000000000000000000000000000000000000000000000000000000 PUSH1 0x0 MSTORE PUSH1 0x11 PUSH1 0x4 MSTORE PUSH1 0x24 PUSH1 0x0 REVERT JUMPDEST PUSH1 0x0 DUP3 DUP3 LT ISZERO PUSH2 0x875 JUMPI PUSH2 0x875 PUSH2 0x834 JUMP JUMPDEST POP SUB SWAP1 JUMP JUMPDEST PUSH1 0x0 DUP2 PUSH32 0xFFFFFFFFFFFFFFFFFFFFFFFFFFFFFFFFFFFFFFFFFFFFFFFFFFFFFFFFFFFFFFFF DIV DUP4 GT DUP3 ISZERO ISZERO AND ISZERO PUSH2 0x8B2 JUMPI PUSH2 0x8B2 PUSH2 0x834 JUMP JUMPDEST POP MUL SWAP1 JUMP JUMPDEST PUSH1 0x0 DUP3 PUSH2 0x8ED JUMPI PUSH32 0x4E487B7100000000000000000000000000000000000000000000000000000000 PUSH1 0x0 MSTORE PUSH1 0x12 PUSH1 0x4 MSTORE PUSH1 0x24 PUSH1 0x0 REVERT JUMPDEST POP DIV SWAP1 JUMP JUMPDEST PUSH1 0x0 DUP3 NOT DUP3 GT ISZERO PUSH2 0x905 JUMPI PUSH2 0x905 PUSH2 0x834 JUMP JUMPDEST POP ADD SWAP1 JUMP INVALID LOG2 PUSH5 0x6970667358 0x22 SLT KECCAK256 0xCB 0xEA 0xE1 0xEA 0xE 0xF7 PUSH1 0x19 PUSH19 0xD65FABE39AEBCB8286E9B774AEC23A06A87E6B COINBASE MSIZE 0xD5 0xAB PUSH5 0x736F6C6343 STOP ADDMOD SIGNEXTEND STOP CALLER "},"gasEstimates":{"creation":{"codeDepositCost":"473600","executionCost":"505","totalCost":"474105"},"external":{"DELTA_1()":"229","DELTA_2()":"251","DENOMINATOR()":"228","FIFTY_PERCENT()":"207","LAMBDA_1()":"250","LAMBDA_2()":"208","LP_FEE()":"207","PROTOCOL_FEE()":"230","PROTOCOL_SUBSIDY()":"229","SIXTY_PERCENT()":"251","getFees((uint256,uint256,uint256,uint256,uint256,bool),bool,uint256)":"infinite"},"internal":{"_getEqReward(struct BridgeState memory,uint256)":"infinite","_getEquilibriumFee(struct BridgeState memory,uint256)":"infinite","_getProtocolAndLpFee(struct BridgeState memory,uint256,uint256)":"infinite","_getTrapezoidArea(uint256,uint256,uint256,uint256,uint256,uint256)":"infinite"}},"methodIdentifiers":{"DELTA_1()":"3dad0dd5","DELTA_2()":"518a9f9f","DENOMINATOR()":"918f8674","FIFTY_PERCENT()":"1e04cbf3","LAMBDA_1()":"a810de6c","LAMBDA_2()":"012a1c2d","LP_FEE()":"5e3f2727","PROTOCOL_FEE()":"0b4501fd","PROTOCOL_SUBSIDY()":"7ba5c12f","SIXTY_PERCENT()":"886a9c50","getFees((uint256,uint256,uint256,uint256,uint256,bool),bool,uint256)":"8afbd378"}},"storageLayout":{"storage":[],"types":null},"userdoc":{"kind":"user","methods":{},"version":1}}}}