{"contracts/SushiXSwap.sol":{"SushiXSwap":{"abi":[{"inputs":[{"internalType":"contract IBentoBoxMinimal","name":"_bentoBox","type":"address"},{"internalType":"contract IStargateRouter","name":"_stargateRouter","type":"address"},{"internalType":"address","name":"_factory","type":"address"},{"internalType":"bytes32","name":"_pairCodeHash","type":"bytes32"},{"internalType":"contract IStargateWidget","name":"_stargateWidget","type":"address"},{"internalType":"address","name":"_SGETH","type":"address"}],"stateMutability":"nonpayable","type":"constructor"},{"inputs":[],"name":"InsufficientGas","type":"error"},{"inputs":[],"name":"NotStargateRouter","type":"error"},{"inputs":[],"name":"TooLittleReceived","type":"error"},{"anonymous":false,"inputs":[{"indexed":true,"internalType":"bytes32","name":"srcContext","type":"bytes32"},{"indexed":false,"internalType":"bool","name":"failed","type":"bool"}],"name":"StargateSushiXSwapDst","type":"event"},{"anonymous":false,"inputs":[{"indexed":true,"internalType":"bytes32","name":"srcContext","type":"bytes32"}],"name":"StargateSushiXSwapSrc","type":"event"},{"inputs":[],"name":"SGETH","outputs":[{"internalType":"address","name":"","type":"address"}],"stateMutability":"view","type":"function"},{"inputs":[{"internalType":"contract IERC20","name":"token","type":"address"}],"name":"approveToStargateRouter","outputs":[],"stateMutability":"nonpayable","type":"function"},{"inputs":[],"name":"bentoBox","outputs":[{"internalType":"contract IBentoBoxMinimal","name":"","type":"address"}],"stateMutability":"view","type":"function"},{"inputs":[{"internalType":"uint8[]","name":"actions","type":"uint8[]"},{"internalType":"uint256[]","name":"values","type":"uint256[]"},{"internalType":"bytes[]","name":"datas","type":"bytes[]"}],"name":"cook","outputs":[],"stateMutability":"payable","type":"function"},{"inputs":[],"name":"factory","outputs":[{"internalType":"address","name":"","type":"address"}],"stateMutability":"view","type":"function"},{"inputs":[{"internalType":"uint16","name":"_dstChainId","type":"uint16"},{"internalType":"uint8","name":"_functionType","type":"uint8"},{"internalType":"address","name":"_receiver","type":"address"},{"internalType":"uint256","name":"_gas","type":"uint256"},{"internalType":"uint256","name":"_dustAmount","type":"uint256"},{"internalType":"bytes","name":"_payload","type":"bytes"}],"name":"getFee","outputs":[{"internalType":"uint256","name":"a","type":"uint256"},{"internalType":"uint256","name":"b","type":"uint256"}],"stateMutability":"view","type":"function"},{"inputs":[],"name":"pairCodeHash","outputs":[{"internalType":"bytes32","name":"","type":"bytes32"}],"stateMutability":"view","type":"function"},{"inputs":[{"internalType":"uint16","name":"","type":"uint16"},{"internalType":"bytes","name":"","type":"bytes"},{"internalType":"uint256","name":"","type":"uint256"},{"internalType":"address","name":"_token","type":"address"},{"internalType":"uint256","name":"amountLD","type":"uint256"},{"internalType":"bytes","name":"payload","type":"bytes"}],"name":"sgReceive","outputs":[],"stateMutability":"nonpayable","type":"function"},{"inputs":[],"name":"stargateRouter","outputs":[{"internalType":"contract IStargateRouter","name":"","type":"address"}],"stateMutability":"view","type":"function"},{"inputs":[],"name":"stargateWidget","outputs":[{"internalType":"contract IStargateWidget","name":"","type":"address"}],"stateMutability":"view","type":"function"},{"stateMutability":"payable","type":"receive"}],"devdoc":{"details":"Supports both BentoBox and Wallet. Supports both Trident and Legacy AMM. Uses Stargate as bridge.","kind":"dev","methods":{"approveToStargateRouter(address)":{"params":{"token":"token to approve"}},"cook(uint8[],uint256[],bytes[])":{"details":"The function gets invoked both at the src and dst chain.","params":{"actions":"An array with a sequence of actions to execute (see ACTION_ declarations).","datas":"A one-to-one mapped array to `actions`. Contains abi encoded data of function arguments.","values":"A one-to-one mapped array to `actions`. Native token amount to send along action."}},"getFee(uint16,uint8,address,uint256,uint256,bytes)":{"params":{"_dstChainId":"stargate dst chainId","_dustAmount":"dust amount to be received at the dst chain","_functionType":"stargate Function type 1 for swap. See more at https://stargateprotocol.gitbook.io/stargate/developers/function-types","_gas":"extra gas being sent","_payload":"payload being sent at the dst chain","_receiver":"sushiXswap on the dst chain"}},"sgReceive(uint16,bytes,uint256,address,uint256,bytes)":{"params":{"_token":"bridge token received","amountLD":"amount received","payload":"ABI-Encoded data received from src chain"}}},"title":"SushiXSwap","version":1},"evm":{"bytecode":{"linkReferences":{},"object":"6101406040523480156200001257600080fd5b50604051620051a7380380620051a78339810160408190526200003591620000da565b6001600160a01b03808716608081905281871660a05281841660c05281861660e052610100859052908216610120526040805163577268d960e11b8152905163aee4d1b29160048082019260009290919082900301818387803b1580156200009c57600080fd5b505af1158015620000b1573d6000803e3d6000fd5b5050505050505050505062000162565b6001600160a01b0381168114620000d757600080fd5b50565b60008060008060008060c08789031215620000f457600080fd5b86516200010181620000c1565b60208801519096506200011481620000c1565b60408801519095506200012781620000c1565b6060880151608089015191955093506200014181620000c1565b60a08801519092506200015481620000c1565b809150509295509295509295565b60805160a05160c05160e0516101005161012051614f1d6200028a6000396000818161027901528181610d8b0152610f5c0152600081816101af0152818161165b0152818161177e0152612f61015260008181610245015281816116380152818161172701528181612efb0152612f3e01526000818161017b01526127de0152600081816101f101528181610b6901528181610cfc015281816110a2015261258001526000818160e8015281816103a1015281816106210152818161064c015281816108350152818161114d0152818161122e015281816112fa015281816113c40152818161195101528181611978015281816119b901528181611bde01528181611df501528181611f3901528181612139015281816122ae01526123e50152614f1d6000f3fe6080604052600436106100b55760003560e01c8063a9e56f3c11610069578063c45a01551161004e578063c45a015514610233578063cf36fd2414610267578063d1ac35351461029b57600080fd5b8063a9e56f3c146101df578063ab8236f31461021357600080fd5b80636ce4fe031161009a5780636ce4fe03146101345780636f435ac2146101695780639aab92481461019d57600080fd5b8063656f3d64146100c15780636b2ace87146100d657600080fd5b366100bc57005b600080fd5b6100d46100cf366004613b34565b6102bb565b005b3480156100e257600080fd5b5061010a7f000000000000000000000000000000000000000000000000000000000000000081565b60405173ffffffffffffffffffffffffffffffffffffffff90911681526020015b60405180910390f35b34801561014057600080fd5b5061015461014f366004613c4c565b610b64565b6040805192835260208301919091520161012b565b34801561017557600080fd5b5061010a7f000000000000000000000000000000000000000000000000000000000000000081565b3480156101a957600080fd5b506101d17f000000000000000000000000000000000000000000000000000000000000000081565b60405190815260200161012b565b3480156101eb57600080fd5b5061010a7f000000000000000000000000000000000000000000000000000000000000000081565b34801561021f57600080fd5b506100d461022e366004613cd3565b610ce4565b34801561023f57600080fd5b5061010a7f000000000000000000000000000000000000000000000000000000000000000081565b34801561027357600080fd5b5061010a7f000000000000000000000000000000000000000000000000000000000000000081565b3480156102a757600080fd5b506100d46102b6366004613d63565b611086565b825160005b81811015610b5d5760008582815181106102dc576102dc613d87565b60200260200101519050600060ff168160ff16141561040957600080600080600088878151811061030f5761030f613d87565b602002602001015180602001905181019061032a9190613dd6565b6040517fc0a47c9300000000000000000000000000000000000000000000000000000000815273ffffffffffffffffffffffffffffffffffffffff8681166004830152306024830152851515604483015260ff851660648301526084820184905260a48201839052959a50939850919650945092507f00000000000000000000000000000000000000000000000000000000000000009091169063c0a47c939060c401600060405180830381600087803b1580156103e757600080fd5b505af11580156103fb573d6000803e3d6000fd5b505050505050505050610b54565b60ff8116600114156104805760008060008087868151811061042d5761042d613d87565b60200260200101518060200190518101906104489190613e30565b935093509350935061047784338585858e8c8151811061046a5761046a613d87565b60200260200101516110ea565b50505050610b54565b60ff8116600214156104e35760008060008060008887815181106104a6576104a6613d87565b60200260200101518060200190518101906104c19190613e78565b945094509450945094506104d98533868686866111c5565b5050505050610b54565b60ff8116600b141561053a57600080600086858151811061050657610506613d87565b60200260200101518060200190518101906105219190613ed5565b925092509250610532838383611428565b505050610b54565b60ff8116600314156106805760008060008087868151811061055e5761055e613d87565b60200260200101518060200190518101906105799190613e30565b9350935093509350816000141561061b576040517f70a0823100000000000000000000000000000000000000000000000000000000815230600482015273ffffffffffffffffffffffffffffffffffffffff8516906370a0823190602401602060405180830381865afa1580156105f4573d6000803e3d6000fd5b505050506040513d601f19601f820116820180604052508101906106189190613f18565b91505b610646847f00000000000000000000000000000000000000000000000000000000000000008461144f565b610477847f00000000000000000000000000000000000000000000000000000000000000008585858e8c8151811061046a5761046a613d87565b60ff81166004141561078c5760008060008685815181106106a3576106a3613d87565b60200260200101518060200190518101906106be9190613ed5565b92509250925080600014156107815773ffffffffffffffffffffffffffffffffffffffff83161561077e576040517f70a0823100000000000000000000000000000000000000000000000000000000815230600482015273ffffffffffffffffffffffffffffffffffffffff8416906370a0823190602401602060405180830381865afa158015610753573d6000803e3d6000fd5b505050506040513d601f19601f820116820180604052508101906107779190613f18565b9050610781565b50475b61053283838361144f565b60ff8116600514156108b15760008060008060008887815181106107b2576107b2613d87565b60200260200101518060200190518101906107cd9190613e78565b945094509450945094508260001480156107e5575081155b156108a3576040517ff7888aec00000000000000000000000000000000000000000000000000000000815273ffffffffffffffffffffffffffffffffffffffff86811660048301523060248301527f0000000000000000000000000000000000000000000000000000000000000000169063f7888aec90604401602060405180830381865afa15801561087c573d6000803e3d6000fd5b505050506040513d601f19601f820116820180604052508101906108a09190613f18565b91505b6104d98530868686866111c5565b60ff811660061415610902576000808584815181106108d2576108d2613d87565b60200260200101518060200190518101906108ed9190613f31565b915091506108fb82826114d5565b5050610b54565b60ff8116600c141561094c5760008085848151811061092357610923613d87565b602002602001015180602001905181019061093e9190613f6b565b915091506108fb82826115cb565b60ff811660071415610a6a5760008060008087868151811061097057610970613d87565b602002602001015180602001905181019061098b9190613f99565b935093509350935060008460001415610a5257826000815181106109b1576109b1613d87565b60209081029190910101516040517f70a0823100000000000000000000000000000000000000000000000000000000815230600482015273ffffffffffffffffffffffffffffffffffffffff909116906370a0823190602401602060405180830381865afa158015610a27573d6000803e3d6000fd5b505050506040513d601f19601f82011682018060405250810190610a4b9190613f18565b9450600190505b610a5f8585858585611630565b505050505050610b54565b60ff811660081415610ab0576000848381518110610a8a57610a8a613d87565b6020026020010151806020019051810190610aa591906140ca565b90506108fb816118a4565b60ff811660091415610afc576000848381518110610ad057610ad0613d87565b6020026020010151806020019051810190610aeb91906143f7565b9050610af681611bce565b50610b54565b60ff8116600a1415610b5457600080600080878681518110610b2057610b20613d87565b6020026020010151806020019051810190610b3b91906146f4565b9350935093509350610b4f84848484612506565b505050505b506001016102c0565b5050505050565b6000807f000000000000000000000000000000000000000000000000000000000000000073ffffffffffffffffffffffffffffffffffffffff16630a512369898989604051602001610be1919060609190911b7fffffffffffffffffffffffffffffffffffffffff00000000000000000000000016815260140190565b60405160208183030381529060405287604051602001610c019190614872565b60405160208183030381529060405260405180606001604052808c81526020018b81526020018d604051602001610c63919060609190911b7fffffffffffffffffffffffffffffffffffffffff00000000000000000000000016815260140190565b6040516020818303038152906040528152506040518663ffffffff1660e01b8152600401610c959594939291906148ae565b6040805180830381865afa158015610cb1573d6000803e3d6000fd5b505050506040513d601f19601f82011682018060405250810190610cd59190614906565b90999098509650505050505050565b3373ffffffffffffffffffffffffffffffffffffffff7f00000000000000000000000000000000000000000000000000000000000000001614610d53576040517f8c66bf5600000000000000000000000000000000000000000000000000000000815260040160405180910390fd5b600080600080600085806020019051810190610d6f919061492a565b939850919650945092509050620186a06000815a1015610ea7577f000000000000000000000000000000000000000000000000000000000000000073ffffffffffffffffffffffffffffffffffffffff168a73ffffffffffffffffffffffffffffffffffffffff1614610dfd57610dfd73ffffffffffffffffffffffffffffffffffffffff8b16888b612889565b4715610e625760405173ffffffffffffffffffffffffffffffffffffffff8816904790600081818185875af1925050503d8060008114610e59576040519150601f19603f3d011682016040523d82523d6000602084013e610e5e565b606091505b5050505b5060405160018082529083907fd02bbeba90c0a3636769d1b8c9f07e2b5e4131b8fbcc2d6ba56054e20b98d75d9060200160405180910390a25050505050505061107e565b6000825a610eb591906149ff565b6040517f656f3d64000000000000000000000000000000000000000000000000000000008152909150309063656f3d64908390610efa908b908b908b90600401614ad9565b600060405180830381600088803b158015610f1457600080fd5b5087f193505050508015610f26575060015b610fd4573d808015610f54576040519150601f19603f3d011682016040523d82523d6000602084013e610f59565b606091505b507f000000000000000000000000000000000000000000000000000000000000000073ffffffffffffffffffffffffffffffffffffffff168c73ffffffffffffffffffffffffffffffffffffffff1614610fce57610fce73ffffffffffffffffffffffffffffffffffffffff8d168a8d612889565b60019250505b47156110395760405173ffffffffffffffffffffffffffffffffffffffff8916904790600081818185875af1925050503d8060008114611030576040519150601f19603f3d011682016040523d82523d6000602084013e611035565b606091505b5050505b837fd02bbeba90c0a3636769d1b8c9f07e2b5e4131b8fbcc2d6ba56054e20b98d75d8360405161106d911515815260200190565b60405180910390a250505050505050505b505050505050565b6110e773ffffffffffffffffffffffffffffffffffffffff82167f00000000000000000000000000000000000000000000000000000000000000007fffffffffffffffffffffffffffffffffffffffffffffffffffffffffffffffff61295d565b50565b6040517f02b9446c00000000000000000000000000000000000000000000000000000000815273ffffffffffffffffffffffffffffffffffffffff87811660048301528681166024830152858116604483015260648201859052608482018490527f000000000000000000000000000000000000000000000000000000000000000016906302b9446c90839060a401604080518083038185885af1158015611196573d6000803e3d6000fd5b50505050506040513d601f19601f820116820180604052508101906111bb9190614906565b5050505050505050565b80156112a1576040517f97da6d3000000000000000000000000000000000000000000000000000000000815273ffffffffffffffffffffffffffffffffffffffff87811660048301528681166024830152858116604483015260648201859052608482018490527f000000000000000000000000000000000000000000000000000000000000000016906397da6d309060a40160408051808303816000875af1158015611276573d6000803e3d6000fd5b505050506040513d601f19601f8201168201806040525081019061129a9190614906565b505061107e565b8215611368576040517fda5139ca00000000000000000000000000000000000000000000000000000000815273ffffffffffffffffffffffffffffffffffffffff878116600483015260248201859052600060448301527f0000000000000000000000000000000000000000000000000000000000000000169063da5139ca90606401602060405180830381865afa158015611341573d6000803e3d6000fd5b505050506040513d601f19601f820116820180604052508101906113659190613f18565b91505b6040517ff18d03cc00000000000000000000000000000000000000000000000000000000815273ffffffffffffffffffffffffffffffffffffffff878116600483015286811660248301528581166044830152606482018490527f0000000000000000000000000000000000000000000000000000000000000000169063f18d03cc90608401600060405180830381600087803b15801561140857600080fd5b505af115801561141c573d6000803e3d6000fd5b50505050505050505050565b61144a73ffffffffffffffffffffffffffffffffffffffff8416338484612adf565b505050565b73ffffffffffffffffffffffffffffffffffffffff83161561148c5761144a73ffffffffffffffffffffffffffffffffffffffff84168383612889565b60405173ffffffffffffffffffffffffffffffffffffffff83169082156108fc029083906000818181858888f193505050501580156114cf573d6000803e3d6000fd5b50505050565b6040517f70a0823100000000000000000000000000000000000000000000000000000000815230600482015273ffffffffffffffffffffffffffffffffffffffff831690632e1a7d4d9082906370a0823190602401602060405180830381865afa158015611547573d6000803e3d6000fd5b505050506040513d601f19601f8201168201806040525081019061156b9190613f18565b6040518263ffffffff1660e01b815260040161158991815260200190565b600060405180830381600087803b1580156115a357600080fd5b505af11580156115b7573d6000803e3d6000fd5b505050506115c76000824761144f565b5050565b8173ffffffffffffffffffffffffffffffffffffffff1663d0e30db0826040518263ffffffff1660e01b81526004016000604051808303818588803b15801561161357600080fd5b505af1158015611627573d6000803e3d6000fd5b50505050505050565b60008061167f7f000000000000000000000000000000000000000000000000000000000000000088877f0000000000000000000000000000000000000000000000000000000000000000612b3d565b9050806001825161169091906149ff565b815181106116a0576116a0613d87565b6020026020010151915085821015611719576040517f08c379a000000000000000000000000000000000000000000000000000000000815260206004820152601760248201527f696e73756666696369656e742d616d6f756e742d6f757400000000000000000060448201526064015b60405180910390fd5b821561188f5761188f6117a27f00000000000000000000000000000000000000000000000000000000000000008760008151811061175957611759613d87565b60200260200101518860018151811061177457611774613d87565b60200260200101517f0000000000000000000000000000000000000000000000000000000000000000612ce4565b866000815181106117b5576117b5613d87565b60209081029190910101516040517f70a0823100000000000000000000000000000000000000000000000000000000815230600482015273ffffffffffffffffffffffffffffffffffffffff909116906370a0823190602401602060405180830381865afa15801561182b573d6000803e3d6000fd5b505050506040513d601f19601f8201168201806040525081019061184f9190613f18565b8760008151811061186257611862613d87565b602002602001015173ffffffffffffffffffffffffffffffffffffffff166128899092919063ffffffff16565b61189a818686612dfe565b5095945050505050565b6000816020015160001415611ab05781516040517f70a0823100000000000000000000000000000000000000000000000000000000815230600482015260009173ffffffffffffffffffffffffffffffffffffffff16906370a0823190602401602060405180830381865afa158015611921573d6000803e3d6000fd5b505050506040513d601f19601f820116820180604052508101906119459190613f18565b905061197683600001517f00000000000000000000000000000000000000000000000000000000000000008361144f565b7f000000000000000000000000000000000000000000000000000000000000000073ffffffffffffffffffffffffffffffffffffffff166302b9446c84600001517f000000000000000000000000000000000000000000000000000000000000000086606001516000815181106119ef576119ef613d87565b6020908102919091010151516040517fffffffff0000000000000000000000000000000000000000000000000000000060e086901b16815273ffffffffffffffffffffffffffffffffffffffff93841660048201529183166024830152919091166044820152606481018490526000608482015260a40160408051808303816000875af1158015611a84573d6000803e3d6000fd5b505050506040513d601f19601f82011682018060405250810190611aa89190614906565b602085015250505b60608201515160005b81811015611b895783606001518181518110611ad757611ad7613d87565b60200260200101516000015173ffffffffffffffffffffffffffffffffffffffff1663627dd56a85606001518381518110611b1457611b14613d87565b6020026020010151602001516040518263ffffffff1660e01b8152600401611b3c9190614872565b6020604051808303816000875af1158015611b5b573d6000803e3d6000fd5b505050506040513d601f19601f82011682018060405250810190611b7f9190613f18565b9250600101611ab9565b508260400151821015611bc8576040517fc9f52c7100000000000000000000000000000000000000000000000000000000815260040160405180910390fd5b50919050565b80515160005b81811015611dde577f000000000000000000000000000000000000000000000000000000000000000073ffffffffffffffffffffffffffffffffffffffff1663f18d03cc84600001518381518110611c2e57611c2e613d87565b6020026020010151600001513086600001518581518110611c5157611c51613d87565b60200260200101516020015187600001518681518110611c7357611c73613d87565b6020908102919091010151606001516040517fffffffff0000000000000000000000000000000000000000000000000000000060e087901b16815273ffffffffffffffffffffffffffffffffffffffff94851660048201529284166024840152921660448201526064810191909152608401600060405180830381600087803b158015611cff57600080fd5b505af1158015611d13573d6000803e3d6000fd5b5050505082600001518181518110611d2d57611d2d613d87565b60200260200101516020015173ffffffffffffffffffffffffffffffffffffffff1663627dd56a84600001518381518110611d6a57611d6a613d87565b6020026020010151608001516040518263ffffffff1660e01b8152600401611d929190614872565b6020604051808303816000875af1158015611db1573d6000803e3d6000fd5b505050506040513d601f19601f82011682018060405250810190611dd59190613f18565b50600101611bd4565b505060208101515160005b818110156121225760007f000000000000000000000000000000000000000000000000000000000000000073ffffffffffffffffffffffffffffffffffffffff1663f7888aec85602001518481518110611e4557611e45613d87565b6020908102919091010151516040517fffffffff0000000000000000000000000000000000000000000000000000000060e084901b16815273ffffffffffffffffffffffffffffffffffffffff9091166004820152306024820152604401602060405180830381865afa158015611ec0573d6000803e3d6000fd5b505050506040513d601f19601f82011682018060405250810190611ee49190613f18565b90506000611ef46008600a614c3c565b85602001518481518110611f0a57611f0a613d87565b60200260200101516040015167ffffffffffffffff1683611f2b9190614c4b565b611f359190614c88565b90507f000000000000000000000000000000000000000000000000000000000000000073ffffffffffffffffffffffffffffffffffffffff1663f18d03cc86602001518581518110611f8957611f89613d87565b6020026020010151600001513088602001518781518110611fac57611fac613d87565b60209081029190910181015101516040517fffffffff0000000000000000000000000000000000000000000000000000000060e086901b16815273ffffffffffffffffffffffffffffffffffffffff9384166004820152918316602483015291909116604482015260648101849052608401600060405180830381600087803b15801561203857600080fd5b505af115801561204c573d6000803e3d6000fd5b505050508460200151838151811061206657612066613d87565b60200260200101516020015173ffffffffffffffffffffffffffffffffffffffff1663627dd56a866020015185815181106120a3576120a3613d87565b6020026020010151606001516040518263ffffffff1660e01b81526004016120cb9190614872565b6020604051808303816000875af11580156120ea573d6000803e3d6000fd5b505050506040513d601f19601f8201168201806040525081019061210e9190613f18565b50505061211b8160010190565b9050611de9565b505060408101515160005b8181101561144a5760007f000000000000000000000000000000000000000000000000000000000000000073ffffffffffffffffffffffffffffffffffffffff1663f7888aec8560400151848151811061218957612189613d87565b6020908102919091010151516040517fffffffff0000000000000000000000000000000000000000000000000000000060e084901b16815273ffffffffffffffffffffffffffffffffffffffff9091166004820152306024820152604401602060405180830381865afa158015612204573d6000803e3d6000fd5b505050506040513d601f19601f820116820180604052508101906122289190613f18565b90508360400151828151811061224057612240613d87565b602002602001015160600151811015612285576040517fc9f52c7100000000000000000000000000000000000000000000000000000000815260040160405180910390fd5b8360400151828151811061229b5761229b613d87565b602002602001015160400151156123e3577f000000000000000000000000000000000000000000000000000000000000000073ffffffffffffffffffffffffffffffffffffffff166397da6d30856040015184815181106122fe576122fe613d87565b602002602001015160000151308760400151868151811061232157612321613d87565b60209081029190910181015101516040517fffffffff0000000000000000000000000000000000000000000000000000000060e086901b16815273ffffffffffffffffffffffffffffffffffffffff93841660048201529183166024830152919091166044820152600060648201526084810184905260a40160408051808303816000875af11580156123b8573d6000803e3d6000fd5b505050506040513d601f19601f820116820180604052508101906123dc9190614906565b50506124fd565b7f000000000000000000000000000000000000000000000000000000000000000073ffffffffffffffffffffffffffffffffffffffff1663f18d03cc8560400151848151811061243557612435613d87565b602002602001015160000151308760400151868151811061245857612458613d87565b60209081029190910181015101516040517fffffffff0000000000000000000000000000000000000000000000000000000060e086901b16815273ffffffffffffffffffffffffffffffffffffffff9384166004820152918316602483015291909116604482015260648101849052608401600060405180830381600087803b1580156124e457600080fd5b505af11580156124f8573d6000803e3d6000fd5b505050505b5060010161212d565b600084610100015184848488610140015160405160200161252b959493929190614cc3565b6040516020818303038152906040529050620186a0856101200151101561257e576040517f1c26714c00000000000000000000000000000000000000000000000000000000815260040160405180910390fd5b7f000000000000000000000000000000000000000000000000000000000000000073ffffffffffffffffffffffffffffffffffffffff16639fbf10fc47876000015188604001518960600151338b60800151600014156126715760208c01516040517f70a0823100000000000000000000000000000000000000000000000000000000815230600482015273ffffffffffffffffffffffffffffffffffffffff909116906370a0823190602401602060405180830381865afa158015612648573d6000803e3d6000fd5b505050506040513d601f19601f8201168201806040525081019061266c9190613f18565b612677565b8b608001515b8c60a0015160405180606001604052808f610120015181526020018f60c0015181526020018f60e001516040516020016126dc919060609190911b7fffffffffffffffffffffffffffffffffffffffff00000000000000000000000016815260140190565b6040516020818303038152906040528152508e60e0015160405160200161272e919060609190911b7fffffffffffffffffffffffffffffffffffffffff00000000000000000000000016815260140190565b6040516020818303038152906040528b6040518b63ffffffff1660e01b815260040161276299989796959493929190614d2b565b6000604051808303818588803b15801561277b57600080fd5b505af115801561278f573d6000803e3d6000fd5b50506040517fa87376e90000000000000000000000000000000000000000000000000000000081527e0100000000000000000000000000000000000000000000000000000000000060048201527f000000000000000000000000000000000000000000000000000000000000000073ffffffffffffffffffffffffffffffffffffffff16935063a87376e992506024019050600060405180830381600087803b15801561283b57600080fd5b505af115801561284f573d6000803e3d6000fd5b505050506101408501516040517fef89f27cad105cfe7c63f4a5c70e6b1392b571ff544a83de4bf71ceb46bacfee90600090a25050505050565b60405173ffffffffffffffffffffffffffffffffffffffff831660248201526044810182905261144a9084907fa9059cbb00000000000000000000000000000000000000000000000000000000906064015b604080517fffffffffffffffffffffffffffffffffffffffffffffffffffffffffffffffe08184030181529190526020810180517bffffffffffffffffffffffffffffffffffffffffffffffffffffffff167fffffffff000000000000000000000000000000000000000000000000000000009093169290921790915261303b565b8015806129fd57506040517fdd62ed3e00000000000000000000000000000000000000000000000000000000815230600482015273ffffffffffffffffffffffffffffffffffffffff838116602483015284169063dd62ed3e90604401602060405180830381865afa1580156129d7573d6000803e3d6000fd5b505050506040513d601f19601f820116820180604052508101906129fb9190613f18565b155b612a89576040517f08c379a000000000000000000000000000000000000000000000000000000000815260206004820152603660248201527f5361666545524332303a20617070726f76652066726f6d206e6f6e2d7a65726f60448201527f20746f206e6f6e2d7a65726f20616c6c6f77616e6365000000000000000000006064820152608401611710565b60405173ffffffffffffffffffffffffffffffffffffffff831660248201526044810182905261144a9084907f095ea7b300000000000000000000000000000000000000000000000000000000906064016128db565b60405173ffffffffffffffffffffffffffffffffffffffff808516602483015283166044820152606481018290526114cf9085907f23b872dd00000000000000000000000000000000000000000000000000000000906084016128db565b6060600283511015612bab576040517f08c379a000000000000000000000000000000000000000000000000000000000815260206004820152601e60248201527f556e697377617056324c6962726172793a20494e56414c49445f5041544800006044820152606401611710565b825167ffffffffffffffff811115612bc557612bc561384b565b604051908082528060200260200182016040528015612bee578160200160208202803683370190505b5090508381600081518110612c0557612c05613d87565b60200260200101818152505060005b60018451612c2291906149ff565b811015612cdb57600080612c7688878581518110612c4257612c42613d87565b602002602001015188866001612c589190614db6565b81518110612c6857612c68613d87565b602002602001015188613147565b91509150612c9e848481518110612c8f57612c8f613d87565b60200260200101518383613248565b84612caa856001614db6565b81518110612cba57612cba613d87565b60200260200101818152505050508080612cd390614dce565b915050612c14565b50949350505050565b6000806000612cf386866133c2565b6040517fffffffffffffffffffffffffffffffffffffffff000000000000000000000000606084811b8216602084015283901b166034820152919350915087906048016040516020818303038152906040528051906020012085604051602001612dbd939291907fff00000000000000000000000000000000000000000000000000000000000000815260609390931b7fffffffffffffffffffffffffffffffffffffffff0000000000000000000000001660018401526015830191909152603582015260550190565b604080517fffffffffffffffffffffffffffffffffffffffffffffffffffffffffffffffe08184030181529190528051602090910120979650505050505050565b60005b60018351612e0f91906149ff565b8110156114cf57600080848381518110612e2b57612e2b613d87565b602002602001015185846001612e419190614db6565b81518110612e5157612e51613d87565b6020026020010151915091506000612e6983836133c2565b509050600087612e7a866001614db6565b81518110612e8a57612e8a613d87565b602002602001015190506000808373ffffffffffffffffffffffffffffffffffffffff168673ffffffffffffffffffffffffffffffffffffffff1614612ed257826000612ed6565b6000835b91509150600060028a51612eea91906149ff565b8810612ef65788612f37565b612f377f0000000000000000000000000000000000000000000000000000000000000000878c612f278c6002614db6565b8151811061177457611774613d87565b9050612f857f000000000000000000000000000000000000000000000000000000000000000088887f0000000000000000000000000000000000000000000000000000000000000000612ce4565b73ffffffffffffffffffffffffffffffffffffffff1663022c0d9f84848460006040519080825280601f01601f191660200182016040528015612fcf576020820181803683370190505b506040518563ffffffff1660e01b8152600401612fef9493929190614e07565b600060405180830381600087803b15801561300957600080fd5b505af115801561301d573d6000803e3d6000fd5b5050505050505050505050808061303390614dce565b915050612e01565b600061309d826040518060400160405280602081526020017f5361666545524332303a206c6f772d6c6576656c2063616c6c206661696c65648152508573ffffffffffffffffffffffffffffffffffffffff166135479092919063ffffffff16565b80519091501561144a57808060200190518101906130bb9190614e42565b61144a576040517f08c379a000000000000000000000000000000000000000000000000000000000815260206004820152602a60248201527f5361666545524332303a204552433230206f7065726174696f6e20646964206e60448201527f6f742073756363656564000000000000000000000000000000000000000000006064820152608401611710565b600080600061315686866133c2565b50905060008061316889898989612ce4565b73ffffffffffffffffffffffffffffffffffffffff16630902f1ac6040518163ffffffff1660e01b8152600401606060405180830381865afa1580156131b2573d6000803e3d6000fd5b505050506040513d601f19601f820116820180604052508101906131d69190614e7b565b506dffffffffffffffffffffffffffff1691506dffffffffffffffffffffffffffff1691508273ffffffffffffffffffffffffffffffffffffffff168873ffffffffffffffffffffffffffffffffffffffff1614613235578082613238565b81815b909a909950975050505050505050565b60008084116132d9576040517f08c379a000000000000000000000000000000000000000000000000000000000815260206004820152602b60248201527f556e697377617056324c6962726172793a20494e53554646494349454e545f4960448201527f4e5055545f414d4f554e540000000000000000000000000000000000000000006064820152608401611710565b6000831180156132e95750600082115b613375576040517f08c379a000000000000000000000000000000000000000000000000000000000815260206004820152602860248201527f556e697377617056324c6962726172793a20494e53554646494349454e545f4c60448201527f49515549444954590000000000000000000000000000000000000000000000006064820152608401611710565b6000613383856103e561355e565b90506000613391828561355e565b905060006133ab836133a5886103e861355e565b906135ee565b90506133b78183614c88565b979650505050505050565b6000808273ffffffffffffffffffffffffffffffffffffffff168473ffffffffffffffffffffffffffffffffffffffff161415613481576040517f08c379a000000000000000000000000000000000000000000000000000000000815260206004820152602560248201527f556e697377617056324c6962726172793a204944454e544943414c5f4144445260448201527f45535345530000000000000000000000000000000000000000000000000000006064820152608401611710565b8273ffffffffffffffffffffffffffffffffffffffff168473ffffffffffffffffffffffffffffffffffffffff16106134bb5782846134be565b83835b909250905073ffffffffffffffffffffffffffffffffffffffff8216613540576040517f08c379a000000000000000000000000000000000000000000000000000000000815260206004820152601e60248201527f556e697377617056324c6962726172793a205a45524f5f4144445245535300006044820152606401611710565b9250929050565b60606135568484600085613666565b949350505050565b6000811580613582575082826135748183614c4b565b92506135809083614c88565b145b6135e8576040517f08c379a000000000000000000000000000000000000000000000000000000000815260206004820152601460248201527f64732d6d6174682d6d756c2d6f766572666c6f770000000000000000000000006044820152606401611710565b92915050565b6000826135fb8382614db6565b91508110156135e8576040517f08c379a000000000000000000000000000000000000000000000000000000000815260206004820152601460248201527f64732d6d6174682d6164642d6f766572666c6f770000000000000000000000006044820152606401611710565b6060824710156136f8576040517f08c379a000000000000000000000000000000000000000000000000000000000815260206004820152602660248201527f416464726573733a20696e73756666696369656e742062616c616e636520666f60448201527f722063616c6c00000000000000000000000000000000000000000000000000006064820152608401611710565b6000808673ffffffffffffffffffffffffffffffffffffffff1685876040516137219190614ecb565b60006040518083038185875af1925050503d806000811461375e576040519150601f19603f3d011682016040523d82523d6000602084013e613763565b606091505b50915091506133b787838387606083156138025782516137fb5773ffffffffffffffffffffffffffffffffffffffff85163b6137fb576040517f08c379a000000000000000000000000000000000000000000000000000000000815260206004820152601d60248201527f416464726573733a2063616c6c20746f206e6f6e2d636f6e74726163740000006044820152606401611710565b5081613556565b61355683838151156138175781518083602001fd5b806040517f08c379a00000000000000000000000000000000000000000000000000000000081526004016117109190614872565b7f4e487b7100000000000000000000000000000000000000000000000000000000600052604160045260246000fd5b6040516080810167ffffffffffffffff8111828210171561389d5761389d61384b565b60405290565b6040805190810167ffffffffffffffff8111828210171561389d5761389d61384b565b6040516060810167ffffffffffffffff8111828210171561389d5761389d61384b565b60405160a0810167ffffffffffffffff8111828210171561389d5761389d61384b565b604051610160810167ffffffffffffffff8111828210171561389d5761389d61384b565b604051601f82017fffffffffffffffffffffffffffffffffffffffffffffffffffffffffffffffe016810167ffffffffffffffff811182821017156139775761397761384b565b604052919050565b600067ffffffffffffffff8211156139995761399961384b565b5060051b60200190565b60ff811681146110e757600080fd5b600082601f8301126139c357600080fd5b813560206139d86139d38361397f565b613930565b82815260059290921b840181019181810190868411156139f757600080fd5b8286015b84811015613a1257803583529183019183016139fb565b509695505050505050565b600067ffffffffffffffff821115613a3757613a3761384b565b50601f017fffffffffffffffffffffffffffffffffffffffffffffffffffffffffffffffe01660200190565b600082601f830112613a7457600080fd5b8135613a826139d382613a1d565b818152846020838601011115613a9757600080fd5b816020850160208301376000918101602001919091529392505050565b600082601f830112613ac557600080fd5b81356020613ad56139d38361397f565b82815260059290921b84018101918181019086841115613af457600080fd5b8286015b84811015613a1257803567ffffffffffffffff811115613b185760008081fd5b613b268986838b0101613a63565b845250918301918301613af8565b600080600060608486031215613b4957600080fd5b833567ffffffffffffffff80821115613b6157600080fd5b818601915086601f830112613b7557600080fd5b81356020613b856139d38361397f565b82815260059290921b8401810191818101908a841115613ba457600080fd5b948201945b83861015613bcb578535613bbc816139a3565b82529482019490820190613ba9565b97505087013592505080821115613be157600080fd5b613bed878388016139b2565b93506040860135915080821115613c0357600080fd5b50613c1086828701613ab4565b9150509250925092565b61ffff811681146110e757600080fd5b73ffffffffffffffffffffffffffffffffffffffff811681146110e757600080fd5b60008060008060008060c08789031215613c6557600080fd5b8635613c7081613c1a565b95506020870135613c80816139a3565b94506040870135613c9081613c2a565b9350606087013592506080870135915060a087013567ffffffffffffffff811115613cba57600080fd5b613cc689828a01613a63565b9150509295509295509295565b60008060008060008060c08789031215613cec57600080fd5b8635613cf781613c1a565b9550602087013567ffffffffffffffff80821115613d1457600080fd5b613d208a838b01613a63565b96506040890135955060608901359150613d3982613c2a565b9093506080880135925060a08801359080821115613d5657600080fd5b50613cc689828a01613a63565b600060208284031215613d7557600080fd5b8135613d8081613c2a565b9392505050565b7f4e487b7100000000000000000000000000000000000000000000000000000000600052603260045260246000fd5b8051613dc181613c2a565b919050565b80518015158114613dc157600080fd5b600080600080600060a08688031215613dee57600080fd5b8551613df981613c2a565b9450613e0760208701613dc6565b93506040860151613e17816139a3565b6060870151608090970151959894975095949392505050565b60008060008060808587031215613e4657600080fd5b8451613e5181613c2a565b6020860151909450613e6281613c2a565b6040860151606090960151949790965092505050565b600080600080600060a08688031215613e9057600080fd5b8551613e9b81613c2a565b6020870151909550613eac81613c2a565b6040870151606088015191955093509150613ec960808701613dc6565b90509295509295909350565b600080600060608486031215613eea57600080fd5b8351613ef581613c2a565b6020850151909350613f0681613c2a565b80925050604084015190509250925092565b600060208284031215613f2a57600080fd5b5051919050565b60008060408385031215613f4457600080fd5b8251613f4f81613c2a565b6020840151909250613f6081613c2a565b809150509250929050565b60008060408385031215613f7e57600080fd5b8251613f8981613c2a565b6020939093015192949293505050565b60008060008060808587031215613faf57600080fd5b845193506020808601519350604086015167ffffffffffffffff811115613fd557600080fd5b8601601f81018813613fe657600080fd5b8051613ff46139d38261397f565b81815260059190911b8201830190838101908a83111561401357600080fd5b928401925b8284101561403a57835161402b81613c2a565b82529284019290840190614018565b809650505050505061404e60608601613db6565b905092959194509250565b60005b8381101561407457818101518382015260200161405c565b838111156114cf5750506000910152565b600082601f83011261409657600080fd5b81516140a46139d382613a1d565b8181528460208386010111156140b957600080fd5b613556826020830160208701614059565b600060208083850312156140dd57600080fd5b825167ffffffffffffffff808211156140f557600080fd5b908401906080828703121561410957600080fd5b61411161387a565b825161411c81613c2a565b815282840151848201526040808401518183015260608401518381111561414257600080fd5b80850194505087601f85011261415757600080fd5b83516141656139d38261397f565b81815260059190911b8501860190868101908a83111561418457600080fd5b8787015b8381101561421e578051878111156141a05760008081fd5b8801808d037fffffffffffffffffffffffffffffffffffffffffffffffffffffffffffffffe0018613156141d45760008081fd5b6141dc6138a3565b8a8201516141e981613c2a565b815281870151898111156141fd5760008081fd5b61420b8f8d83860101614085565b828d015250845250918801918801614188565b506060850152509198975050505050505050565b600082601f83011261424357600080fd5b815160206142536139d38361397f565b82815260059290921b8401810191818101908684111561427257600080fd5b8286015b84811015613a1257805167ffffffffffffffff808211156142975760008081fd5b81890191506080807fffffffffffffffffffffffffffffffffffffffffffffffffffffffffffffffe0848d030112156142d05760008081fd5b6142d861387a565b878401516142e581613c2a565b81526040848101516142f681613c2a565b828a0152606085810151858116811461430f5760008081fd5b8383015292850151928484111561432857600091508182fd5b6143368e8b86890101614085565b90830152508652505050918301918301614276565b600082601f83011261435c57600080fd5b8151602061436c6139d38361397f565b82815260079290921b8401810191818101908684111561438b57600080fd5b8286015b84811015613a1257608081890312156143a85760008081fd5b6143b061387a565b81516143bb81613c2a565b8152818501516143ca81613c2a565b8186015260406143db838201613dc6565b908201526060828101519082015283529183019160800161438f565b6000602080838503121561440a57600080fd5b825167ffffffffffffffff8082111561442257600080fd5b908401906060828703121561443657600080fd5b61443e6138c6565b82518281111561444d57600080fd5b8301601f8101881361445e57600080fd5b805161446c6139d38261397f565b81815260059190911b8201860190868101908a83111561448b57600080fd5b8784015b83811015614553578051878111156144a657600080fd5b850160a0818e037fffffffffffffffffffffffffffffffffffffffffffffffffffffffffffffffe00112156144da57600080fd5b6144e26138e9565b8a8201516144ef81613c2a565b815260408201516144ff81613c2a565b818c015261450f60608301613dc6565b60408201526080820151606082015260a0820151898111156145315760008081fd5b61453f8f8d83860101614085565b60808301525084525091880191880161448f565b508452505050828401518281111561456a57600080fd5b61457688828601614232565b8583015250604083015193508184111561458f57600080fd5b61459b8785850161434b565b60408201529695505050505050565b8051613dc181613c1a565b600082601f8301126145c657600080fd5b815160206145d66139d38361397f565b82815260059290921b840181019181810190868411156145f557600080fd5b8286015b84811015613a1257805161460c816139a3565b83529183019183016145f9565b600082601f83011261462a57600080fd5b8151602061463a6139d38361397f565b82815260059290921b8401810191818101908684111561465957600080fd5b8286015b84811015613a12578051835291830191830161465d565b600082601f83011261468557600080fd5b815160206146956139d38361397f565b82815260059290921b840181019181810190868411156146b457600080fd5b8286015b84811015613a1257805167ffffffffffffffff8111156146d85760008081fd5b6146e68986838b0101614085565b8452509183019183016146b8565b6000806000808486036101c081121561470c57600080fd5b6101608082121561471c57600080fd5b61472461390c565b915061472f876145aa565b825261473d60208801613db6565b602083015260408701516040830152606087015160608301526080870151608083015260a087015160a083015260c087015160c083015261478060e08801613db6565b60e0830152610100614793818901613db6565b908301526101208781015190830152610140808801519083015286015190945067ffffffffffffffff808211156147c957600080fd5b6147d5888389016145b5565b94506101808701519150808211156147ec57600080fd5b6147f888838901614619565b93506101a087015191508082111561480f57600080fd5b5061481c87828801614674565b91505092959194509250565b60008151808452614840816020860160208601614059565b601f017fffffffffffffffffffffffffffffffffffffffffffffffffffffffffffffffe0169290920160200192915050565b602081526000613d806020830184614828565b805182526020810151602083015260006040820151606060408501526135566060850182614828565b61ffff8616815260ff8516602082015260a0604082015260006148d460a0830186614828565b82810360608401526148e68186614828565b905082810360808401526148fa8185614885565b98975050505050505050565b6000806040838503121561491957600080fd5b505080516020909101519092909150565b600080600080600060a0868803121561494257600080fd5b855161494d81613c2a565b602087015190955067ffffffffffffffff8082111561496b57600080fd5b61497789838a016145b5565b9550604088015191508082111561498d57600080fd5b61499989838a01614619565b945060608801519150808211156149af57600080fd5b506149bc88828901614674565b925050608086015190509295509295909350565b7f4e487b7100000000000000000000000000000000000000000000000000000000600052601160045260246000fd5b600082821015614a1157614a116149d0565b500390565b600081518084526020808501945080840160005b83811015614a4957815160ff1687529582019590820190600101614a2a565b509495945050505050565b600081518084526020808501945080840160005b83811015614a4957815187529582019590820190600101614a68565b600081518084526020808501808196508360051b8101915082860160005b85811015614acc578284038952614aba848351614828565b98850198935090840190600101614aa2565b5091979650505050505050565b606081526000614aec6060830186614a16565b8281036020840152614afe8186614a54565b90508281036040840152614b128185614a84565b9695505050505050565b600181815b80851115614b7557817fffffffffffffffffffffffffffffffffffffffffffffffffffffffffffffffff04821115614b5b57614b5b6149d0565b80851615614b6857918102915b93841c9390800290614b21565b509250929050565b600082614b8c575060016135e8565b81614b99575060006135e8565b8160018114614baf5760028114614bb957614bd5565b60019150506135e8565b60ff841115614bca57614bca6149d0565b50506001821b6135e8565b5060208310610133831016604e8410600b8410161715614bf8575081810a6135e8565b614c028383614b1c565b807fffffffffffffffffffffffffffffffffffffffffffffffffffffffffffffffff04821115614c3457614c346149d0565b029392505050565b6000613d8060ff841683614b7d565b6000817fffffffffffffffffffffffffffffffffffffffffffffffffffffffffffffffff0483118215151615614c8357614c836149d0565b500290565b600082614cbe577f4e487b7100000000000000000000000000000000000000000000000000000000600052601260045260246000fd5b500490565b73ffffffffffffffffffffffffffffffffffffffff8616815260a060208201526000614cf260a0830187614a16565b8281036040840152614d048187614a54565b90508281036060840152614d188186614a84565b9150508260808301529695505050505050565b600061012061ffff8c1683528a602084015289604084015273ffffffffffffffffffffffffffffffffffffffff891660608401528760808401528660a08401528060c0840152614d7d81840187614885565b905082810360e0840152614d918186614828565b9050828103610100840152614da68185614828565b9c9b505050505050505050505050565b60008219821115614dc957614dc96149d0565b500190565b60007fffffffffffffffffffffffffffffffffffffffffffffffffffffffffffffffff821415614e0057614e006149d0565b5060010190565b84815283602082015273ffffffffffffffffffffffffffffffffffffffff83166040820152608060608201526000614b126080830184614828565b600060208284031215614e5457600080fd5b613d8082613dc6565b80516dffffffffffffffffffffffffffff81168114613dc157600080fd5b600080600060608486031215614e9057600080fd5b614e9984614e5d565b9250614ea760208501614e5d565b9150604084015163ffffffff81168114614ec057600080fd5b809150509250925092565b60008251614edd818460208701614059565b919091019291505056fea2646970667358221220d1c92f34fa9d16ac6233aac7636ba0334520e544df3523bc916d278f3b0df89364736f6c634300080b0033","opcodes":"PUSH2 0x140 PUSH1 0x40 MSTORE CALLVALUE DUP1 ISZERO PUSH3 0x12 JUMPI PUSH1 0x0 DUP1 REVERT JUMPDEST POP PUSH1 0x40 MLOAD PUSH3 0x51A7 CODESIZE SUB DUP1 PUSH3 0x51A7 DUP4 CODECOPY DUP2 ADD PUSH1 0x40 DUP2 SWAP1 MSTORE PUSH3 0x35 SWAP2 PUSH3 0xDA JUMP JUMPDEST PUSH1 0x1 PUSH1 0x1 PUSH1 0xA0 SHL SUB DUP1 DUP8 AND PUSH1 0x80 DUP2 SWAP1 MSTORE DUP2 DUP8 AND PUSH1 0xA0 MSTORE DUP2 DUP5 AND PUSH1 0xC0 MSTORE DUP2 DUP7 AND PUSH1 0xE0 MSTORE PUSH2 0x100 DUP6 SWAP1 MSTORE SWAP1 DUP3 AND PUSH2 0x120 MSTORE PUSH1 0x40 DUP1 MLOAD PUSH4 0x577268D9 PUSH1 0xE1 SHL DUP2 MSTORE SWAP1 MLOAD PUSH4 0xAEE4D1B2 SWAP2 PUSH1 0x4 DUP1 DUP3 ADD SWAP3 PUSH1 0x0 SWAP3 SWAP1 SWAP2 SWAP1 DUP3 SWAP1 SUB ADD DUP2 DUP4 DUP8 DUP1 EXTCODESIZE ISZERO DUP1 ISZERO PUSH3 0x9C JUMPI PUSH1 0x0 DUP1 REVERT JUMPDEST POP GAS CALL ISZERO DUP1 ISZERO PUSH3 0xB1 JUMPI RETURNDATASIZE PUSH1 0x0 DUP1 RETURNDATACOPY RETURNDATASIZE PUSH1 0x0 REVERT JUMPDEST POP POP POP POP POP POP POP POP POP POP PUSH3 0x162 JUMP JUMPDEST PUSH1 0x1 PUSH1 0x1 PUSH1 0xA0 SHL SUB DUP2 AND DUP2 EQ PUSH3 0xD7 JUMPI PUSH1 0x0 DUP1 REVERT JUMPDEST POP JUMP JUMPDEST PUSH1 0x0 DUP1 PUSH1 0x0 DUP1 PUSH1 0x0 DUP1 PUSH1 0xC0 DUP8 DUP10 SUB SLT ISZERO PUSH3 0xF4 JUMPI PUSH1 0x0 DUP1 REVERT JUMPDEST DUP7 MLOAD PUSH3 0x101 DUP2 PUSH3 0xC1 JUMP JUMPDEST PUSH1 0x20 DUP9 ADD MLOAD SWAP1 SWAP7 POP PUSH3 0x114 DUP2 PUSH3 0xC1 JUMP JUMPDEST PUSH1 0x40 DUP9 ADD MLOAD SWAP1 SWAP6 POP PUSH3 0x127 DUP2 PUSH3 0xC1 JUMP JUMPDEST PUSH1 0x60 DUP9 ADD MLOAD PUSH1 0x80 DUP10 ADD MLOAD SWAP2 SWAP6 POP SWAP4 POP PUSH3 0x141 DUP2 PUSH3 0xC1 JUMP JUMPDEST PUSH1 0xA0 DUP9 ADD MLOAD SWAP1 SWAP3 POP PUSH3 0x154 DUP2 PUSH3 0xC1 JUMP JUMPDEST DUP1 SWAP2 POP POP SWAP3 SWAP6 POP SWAP3 SWAP6 POP SWAP3 SWAP6 JUMP JUMPDEST PUSH1 0x80 MLOAD PUSH1 0xA0 MLOAD PUSH1 0xC0 MLOAD PUSH1 0xE0 MLOAD PUSH2 0x100 MLOAD PUSH2 0x120 MLOAD PUSH2 0x4F1D PUSH3 0x28A PUSH1 0x0 CODECOPY PUSH1 0x0 DUP2 DUP2 PUSH2 0x279 ADD MSTORE DUP2 DUP2 PUSH2 0xD8B ADD MSTORE PUSH2 0xF5C ADD MSTORE PUSH1 0x0 DUP2 DUP2 PUSH2 0x1AF ADD MSTORE DUP2 DUP2 PUSH2 0x165B ADD MSTORE DUP2 DUP2 PUSH2 0x177E ADD MSTORE PUSH2 0x2F61 ADD MSTORE PUSH1 0x0 DUP2 DUP2 PUSH2 0x245 ADD MSTORE DUP2 DUP2 PUSH2 0x1638 ADD MSTORE DUP2 DUP2 PUSH2 0x1727 ADD MSTORE DUP2 DUP2 PUSH2 0x2EFB ADD MSTORE PUSH2 0x2F3E ADD MSTORE PUSH1 0x0 DUP2 DUP2 PUSH2 0x17B ADD MSTORE PUSH2 0x27DE ADD MSTORE PUSH1 0x0 DUP2 DUP2 PUSH2 0x1F1 ADD MSTORE DUP2 DUP2 PUSH2 0xB69 ADD MSTORE DUP2 DUP2 PUSH2 0xCFC ADD MSTORE DUP2 DUP2 PUSH2 0x10A2 ADD MSTORE PUSH2 0x2580 ADD MSTORE PUSH1 0x0 DUP2 DUP2 PUSH1 0xE8 ADD MSTORE DUP2 DUP2 PUSH2 0x3A1 ADD MSTORE DUP2 DUP2 PUSH2 0x621 ADD MSTORE DUP2 DUP2 PUSH2 0x64C ADD MSTORE DUP2 DUP2 PUSH2 0x835 ADD MSTORE DUP2 DUP2 PUSH2 0x114D ADD MSTORE DUP2 DUP2 PUSH2 0x122E ADD MSTORE DUP2 DUP2 PUSH2 0x12FA ADD MSTORE DUP2 DUP2 PUSH2 0x13C4 ADD MSTORE DUP2 DUP2 PUSH2 0x1951 ADD MSTORE DUP2 DUP2 PUSH2 0x1978 ADD MSTORE DUP2 DUP2 PUSH2 0x19B9 ADD MSTORE DUP2 DUP2 PUSH2 0x1BDE ADD MSTORE DUP2 DUP2 PUSH2 0x1DF5 ADD MSTORE DUP2 DUP2 PUSH2 0x1F39 ADD MSTORE DUP2 DUP2 PUSH2 0x2139 ADD MSTORE DUP2 DUP2 PUSH2 0x22AE ADD MSTORE PUSH2 0x23E5 ADD MSTORE PUSH2 0x4F1D PUSH1 0x0 RETURN INVALID PUSH1 0x80 PUSH1 0x40 MSTORE PUSH1 0x4 CALLDATASIZE LT PUSH2 0xB5 JUMPI PUSH1 0x0 CALLDATALOAD PUSH1 0xE0 SHR DUP1 PUSH4 0xA9E56F3C GT PUSH2 0x69 JUMPI DUP1 PUSH4 0xC45A0155 GT PUSH2 0x4E JUMPI DUP1 PUSH4 0xC45A0155 EQ PUSH2 0x233 JUMPI DUP1 PUSH4 0xCF36FD24 EQ PUSH2 0x267 JUMPI DUP1 PUSH4 0xD1AC3535 EQ PUSH2 0x29B JUMPI PUSH1 0x0 DUP1 REVERT JUMPDEST DUP1 PUSH4 0xA9E56F3C EQ PUSH2 0x1DF JUMPI DUP1 PUSH4 0xAB8236F3 EQ PUSH2 0x213 JUMPI PUSH1 0x0 DUP1 REVERT JUMPDEST DUP1 PUSH4 0x6CE4FE03 GT PUSH2 0x9A JUMPI DUP1 PUSH4 0x6CE4FE03 EQ PUSH2 0x134 JUMPI DUP1 PUSH4 0x6F435AC2 EQ PUSH2 0x169 JUMPI DUP1 PUSH4 0x9AAB9248 EQ PUSH2 0x19D JUMPI PUSH1 0x0 DUP1 REVERT JUMPDEST DUP1 PUSH4 0x656F3D64 EQ PUSH2 0xC1 JUMPI DUP1 PUSH4 0x6B2ACE87 EQ PUSH2 0xD6 JUMPI PUSH1 0x0 DUP1 REVERT JUMPDEST CALLDATASIZE PUSH2 0xBC JUMPI STOP JUMPDEST PUSH1 0x0 DUP1 REVERT JUMPDEST PUSH2 0xD4 PUSH2 0xCF CALLDATASIZE PUSH1 0x4 PUSH2 0x3B34 JUMP JUMPDEST PUSH2 0x2BB JUMP JUMPDEST STOP JUMPDEST CALLVALUE DUP1 ISZERO PUSH2 0xE2 JUMPI PUSH1 0x0 DUP1 REVERT JUMPDEST POP PUSH2 0x10A PUSH32 0x0 DUP2 JUMP JUMPDEST PUSH1 0x40 MLOAD PUSH20 0xFFFFFFFFFFFFFFFFFFFFFFFFFFFFFFFFFFFFFFFF SWAP1 SWAP2 AND DUP2 MSTORE PUSH1 0x20 ADD JUMPDEST PUSH1 0x40 MLOAD DUP1 SWAP2 SUB SWAP1 RETURN JUMPDEST CALLVALUE DUP1 ISZERO PUSH2 0x140 JUMPI PUSH1 0x0 DUP1 REVERT JUMPDEST POP PUSH2 0x154 PUSH2 0x14F CALLDATASIZE PUSH1 0x4 PUSH2 0x3C4C JUMP JUMPDEST PUSH2 0xB64 JUMP JUMPDEST PUSH1 0x40 DUP1 MLOAD SWAP3 DUP4 MSTORE PUSH1 0x20 DUP4 ADD SWAP2 SWAP1 SWAP2 MSTORE ADD PUSH2 0x12B JUMP JUMPDEST CALLVALUE DUP1 ISZERO PUSH2 0x175 JUMPI PUSH1 0x0 DUP1 REVERT JUMPDEST POP PUSH2 0x10A PUSH32 0x0 DUP2 JUMP JUMPDEST CALLVALUE DUP1 ISZERO PUSH2 0x1A9 JUMPI PUSH1 0x0 DUP1 REVERT JUMPDEST POP PUSH2 0x1D1 PUSH32 0x0 DUP2 JUMP JUMPDEST PUSH1 0x40 MLOAD SWAP1 DUP2 MSTORE PUSH1 0x20 ADD PUSH2 0x12B JUMP JUMPDEST CALLVALUE DUP1 ISZERO PUSH2 0x1EB JUMPI PUSH1 0x0 DUP1 REVERT JUMPDEST POP PUSH2 0x10A PUSH32 0x0 DUP2 JUMP JUMPDEST CALLVALUE DUP1 ISZERO PUSH2 0x21F JUMPI PUSH1 0x0 DUP1 REVERT JUMPDEST POP PUSH2 0xD4 PUSH2 0x22E CALLDATASIZE PUSH1 0x4 PUSH2 0x3CD3 JUMP JUMPDEST PUSH2 0xCE4 JUMP JUMPDEST CALLVALUE DUP1 ISZERO PUSH2 0x23F JUMPI PUSH1 0x0 DUP1 REVERT JUMPDEST POP PUSH2 0x10A PUSH32 0x0 DUP2 JUMP JUMPDEST CALLVALUE DUP1 ISZERO PUSH2 0x273 JUMPI PUSH1 0x0 DUP1 REVERT JUMPDEST POP PUSH2 0x10A PUSH32 0x0 DUP2 JUMP JUMPDEST CALLVALUE DUP1 ISZERO PUSH2 0x2A7 JUMPI PUSH1 0x0 DUP1 REVERT JUMPDEST POP PUSH2 0xD4 PUSH2 0x2B6 CALLDATASIZE PUSH1 0x4 PUSH2 0x3D63 JUMP JUMPDEST PUSH2 0x1086 JUMP JUMPDEST DUP3 MLOAD PUSH1 0x0 JUMPDEST DUP2 DUP2 LT ISZERO PUSH2 0xB5D JUMPI PUSH1 0x0 DUP6 DUP3 DUP2 MLOAD DUP2 LT PUSH2 0x2DC JUMPI PUSH2 0x2DC PUSH2 0x3D87 JUMP JUMPDEST PUSH1 0x20 MUL PUSH1 0x20 ADD ADD MLOAD SWAP1 POP PUSH1 0x0 PUSH1 0xFF AND DUP2 PUSH1 0xFF AND EQ ISZERO PUSH2 0x409 JUMPI PUSH1 0x0 DUP1 PUSH1 0x0 DUP1 PUSH1 0x0 DUP9 DUP8 DUP2 MLOAD DUP2 LT PUSH2 0x30F JUMPI PUSH2 0x30F PUSH2 0x3D87 JUMP JUMPDEST PUSH1 0x20 MUL PUSH1 0x20 ADD ADD MLOAD DUP1 PUSH1 0x20 ADD SWAP1 MLOAD DUP2 ADD SWAP1 PUSH2 0x32A SWAP2 SWAP1 PUSH2 0x3DD6 JUMP JUMPDEST PUSH1 0x40 MLOAD PUSH32 0xC0A47C9300000000000000000000000000000000000000000000000000000000 DUP2 MSTORE PUSH20 0xFFFFFFFFFFFFFFFFFFFFFFFFFFFFFFFFFFFFFFFF DUP7 DUP2 AND PUSH1 0x4 DUP4 ADD MSTORE ADDRESS PUSH1 0x24 DUP4 ADD MSTORE DUP6 ISZERO ISZERO PUSH1 0x44 DUP4 ADD MSTORE PUSH1 0xFF DUP6 AND PUSH1 0x64 DUP4 ADD MSTORE PUSH1 0x84 DUP3 ADD DUP5 SWAP1 MSTORE PUSH1 0xA4 DUP3 ADD DUP4 SWAP1 MSTORE SWAP6 SWAP11 POP SWAP4 SWAP9 POP SWAP2 SWAP7 POP SWAP5 POP SWAP3 POP PUSH32 0x0 SWAP1 SWAP2 AND SWAP1 PUSH4 0xC0A47C93 SWAP1 PUSH1 0xC4 ADD PUSH1 0x0 PUSH1 0x40 MLOAD DUP1 DUP4 SUB DUP2 PUSH1 0x0 DUP8 DUP1 EXTCODESIZE ISZERO DUP1 ISZERO PUSH2 0x3E7 JUMPI PUSH1 0x0 DUP1 REVERT JUMPDEST POP GAS CALL ISZERO DUP1 ISZERO PUSH2 0x3FB JUMPI RETURNDATASIZE PUSH1 0x0 DUP1 RETURNDATACOPY RETURNDATASIZE PUSH1 0x0 REVERT JUMPDEST POP POP POP POP POP POP POP POP POP PUSH2 0xB54 JUMP JUMPDEST PUSH1 0xFF DUP2 AND PUSH1 0x1 EQ ISZERO PUSH2 0x480 JUMPI PUSH1 0x0 DUP1 PUSH1 0x0 DUP1 DUP8 DUP7 DUP2 MLOAD DUP2 LT PUSH2 0x42D JUMPI PUSH2 0x42D PUSH2 0x3D87 JUMP JUMPDEST PUSH1 0x20 MUL PUSH1 0x20 ADD ADD MLOAD DUP1 PUSH1 0x20 ADD SWAP1 MLOAD DUP2 ADD SWAP1 PUSH2 0x448 SWAP2 SWAP1 PUSH2 0x3E30 JUMP JUMPDEST SWAP4 POP SWAP4 POP SWAP4 POP SWAP4 POP PUSH2 0x477 DUP5 CALLER DUP6 DUP6 DUP6 DUP15 DUP13 DUP2 MLOAD DUP2 LT PUSH2 0x46A JUMPI PUSH2 0x46A PUSH2 0x3D87 JUMP JUMPDEST PUSH1 0x20 MUL PUSH1 0x20 ADD ADD MLOAD PUSH2 0x10EA JUMP JUMPDEST POP POP POP POP PUSH2 0xB54 JUMP JUMPDEST PUSH1 0xFF DUP2 AND PUSH1 0x2 EQ ISZERO PUSH2 0x4E3 JUMPI PUSH1 0x0 DUP1 PUSH1 0x0 DUP1 PUSH1 0x0 DUP9 DUP8 DUP2 MLOAD DUP2 LT PUSH2 0x4A6 JUMPI PUSH2 0x4A6 PUSH2 0x3D87 JUMP JUMPDEST PUSH1 0x20 MUL PUSH1 0x20 ADD ADD MLOAD DUP1 PUSH1 0x20 ADD SWAP1 MLOAD DUP2 ADD SWAP1 PUSH2 0x4C1 SWAP2 SWAP1 PUSH2 0x3E78 JUMP JUMPDEST SWAP5 POP SWAP5 POP SWAP5 POP SWAP5 POP SWAP5 POP PUSH2 0x4D9 DUP6 CALLER DUP7 DUP7 DUP7 DUP7 PUSH2 0x11C5 JUMP JUMPDEST POP POP POP POP POP PUSH2 0xB54 JUMP JUMPDEST PUSH1 0xFF DUP2 AND PUSH1 0xB EQ ISZERO PUSH2 0x53A JUMPI PUSH1 0x0 DUP1 PUSH1 0x0 DUP7 DUP6 DUP2 MLOAD DUP2 LT PUSH2 0x506 JUMPI PUSH2 0x506 PUSH2 0x3D87 JUMP JUMPDEST PUSH1 0x20 MUL PUSH1 0x20 ADD ADD MLOAD DUP1 PUSH1 0x20 ADD SWAP1 MLOAD DUP2 ADD SWAP1 PUSH2 0x521 SWAP2 SWAP1 PUSH2 0x3ED5 JUMP JUMPDEST SWAP3 POP SWAP3 POP SWAP3 POP PUSH2 0x532 DUP4 DUP4 DUP4 PUSH2 0x1428 JUMP JUMPDEST POP POP POP PUSH2 0xB54 JUMP JUMPDEST PUSH1 0xFF DUP2 AND PUSH1 0x3 EQ ISZERO PUSH2 0x680 JUMPI PUSH1 0x0 DUP1 PUSH1 0x0 DUP1 DUP8 DUP7 DUP2 MLOAD DUP2 LT PUSH2 0x55E JUMPI PUSH2 0x55E PUSH2 0x3D87 JUMP JUMPDEST PUSH1 0x20 MUL PUSH1 0x20 ADD ADD MLOAD DUP1 PUSH1 0x20 ADD SWAP1 MLOAD DUP2 ADD SWAP1 PUSH2 0x579 SWAP2 SWAP1 PUSH2 0x3E30 JUMP JUMPDEST SWAP4 POP SWAP4 POP SWAP4 POP SWAP4 POP DUP2 PUSH1 0x0 EQ ISZERO PUSH2 0x61B JUMPI PUSH1 0x40 MLOAD PUSH32 0x70A0823100000000000000000000000000000000000000000000000000000000 DUP2 MSTORE ADDRESS PUSH1 0x4 DUP3 ADD MSTORE PUSH20 0xFFFFFFFFFFFFFFFFFFFFFFFFFFFFFFFFFFFFFFFF DUP6 AND SWAP1 PUSH4 0x70A08231 SWAP1 PUSH1 0x24 ADD PUSH1 0x20 PUSH1 0x40 MLOAD DUP1 DUP4 SUB DUP2 DUP7 GAS STATICCALL ISZERO DUP1 ISZERO PUSH2 0x5F4 JUMPI RETURNDATASIZE PUSH1 0x0 DUP1 RETURNDATACOPY RETURNDATASIZE PUSH1 0x0 REVERT JUMPDEST POP POP POP POP PUSH1 0x40 MLOAD RETURNDATASIZE PUSH1 0x1F NOT PUSH1 0x1F DUP3 ADD AND DUP3 ADD DUP1 PUSH1 0x40 MSTORE POP DUP2 ADD SWAP1 PUSH2 0x618 SWAP2 SWAP1 PUSH2 0x3F18 JUMP JUMPDEST SWAP2 POP JUMPDEST PUSH2 0x646 DUP5 PUSH32 0x0 DUP5 PUSH2 0x144F JUMP JUMPDEST PUSH2 0x477 DUP5 PUSH32 0x0 DUP6 DUP6 DUP6 DUP15 DUP13 DUP2 MLOAD DUP2 LT PUSH2 0x46A JUMPI PUSH2 0x46A PUSH2 0x3D87 JUMP JUMPDEST PUSH1 0xFF DUP2 AND PUSH1 0x4 EQ ISZERO PUSH2 0x78C JUMPI PUSH1 0x0 DUP1 PUSH1 0x0 DUP7 DUP6 DUP2 MLOAD DUP2 LT PUSH2 0x6A3 JUMPI PUSH2 0x6A3 PUSH2 0x3D87 JUMP JUMPDEST PUSH1 0x20 MUL PUSH1 0x20 ADD ADD MLOAD DUP1 PUSH1 0x20 ADD SWAP1 MLOAD DUP2 ADD SWAP1 PUSH2 0x6BE SWAP2 SWAP1 PUSH2 0x3ED5 JUMP JUMPDEST SWAP3 POP SWAP3 POP SWAP3 POP DUP1 PUSH1 0x0 EQ ISZERO PUSH2 0x781 JUMPI PUSH20 0xFFFFFFFFFFFFFFFFFFFFFFFFFFFFFFFFFFFFFFFF DUP4 AND ISZERO PUSH2 0x77E JUMPI PUSH1 0x40 MLOAD PUSH32 0x70A0823100000000000000000000000000000000000000000000000000000000 DUP2 MSTORE ADDRESS PUSH1 0x4 DUP3 ADD MSTORE PUSH20 0xFFFFFFFFFFFFFFFFFFFFFFFFFFFFFFFFFFFFFFFF DUP5 AND SWAP1 PUSH4 0x70A08231 SWAP1 PUSH1 0x24 ADD PUSH1 0x20 PUSH1 0x40 MLOAD DUP1 DUP4 SUB DUP2 DUP7 GAS STATICCALL ISZERO DUP1 ISZERO PUSH2 0x753 JUMPI RETURNDATASIZE PUSH1 0x0 DUP1 RETURNDATACOPY RETURNDATASIZE PUSH1 0x0 REVERT JUMPDEST POP POP POP POP PUSH1 0x40 MLOAD RETURNDATASIZE PUSH1 0x1F NOT PUSH1 0x1F DUP3 ADD AND DUP3 ADD DUP1 PUSH1 0x40 MSTORE POP DUP2 ADD SWAP1 PUSH2 0x777 SWAP2 SWAP1 PUSH2 0x3F18 JUMP JUMPDEST SWAP1 POP PUSH2 0x781 JUMP JUMPDEST POP SELFBALANCE JUMPDEST PUSH2 0x532 DUP4 DUP4 DUP4 PUSH2 0x144F JUMP JUMPDEST PUSH1 0xFF DUP2 AND PUSH1 0x5 EQ ISZERO PUSH2 0x8B1 JUMPI PUSH1 0x0 DUP1 PUSH1 0x0 DUP1 PUSH1 0x0 DUP9 DUP8 DUP2 MLOAD DUP2 LT PUSH2 0x7B2 JUMPI PUSH2 0x7B2 PUSH2 0x3D87 JUMP JUMPDEST PUSH1 0x20 MUL PUSH1 0x20 ADD ADD MLOAD DUP1 PUSH1 0x20 ADD SWAP1 MLOAD DUP2 ADD SWAP1 PUSH2 0x7CD SWAP2 SWAP1 PUSH2 0x3E78 JUMP JUMPDEST SWAP5 POP SWAP5 POP SWAP5 POP SWAP5 POP SWAP5 POP DUP3 PUSH1 0x0 EQ DUP1 ISZERO PUSH2 0x7E5 JUMPI POP DUP2 ISZERO JUMPDEST ISZERO PUSH2 0x8A3 JUMPI PUSH1 0x40 MLOAD PUSH32 0xF7888AEC00000000000000000000000000000000000000000000000000000000 DUP2 MSTORE PUSH20 0xFFFFFFFFFFFFFFFFFFFFFFFFFFFFFFFFFFFFFFFF DUP7 DUP2 AND PUSH1 0x4 DUP4 ADD MSTORE ADDRESS PUSH1 0x24 DUP4 ADD MSTORE PUSH32 0x0 AND SWAP1 PUSH4 0xF7888AEC SWAP1 PUSH1 0x44 ADD PUSH1 0x20 PUSH1 0x40 MLOAD DUP1 DUP4 SUB DUP2 DUP7 GAS STATICCALL ISZERO DUP1 ISZERO PUSH2 0x87C JUMPI RETURNDATASIZE PUSH1 0x0 DUP1 RETURNDATACOPY RETURNDATASIZE PUSH1 0x0 REVERT JUMPDEST POP POP POP POP PUSH1 0x40 MLOAD RETURNDATASIZE PUSH1 0x1F NOT PUSH1 0x1F DUP3 ADD AND DUP3 ADD DUP1 PUSH1 0x40 MSTORE POP DUP2 ADD SWAP1 PUSH2 0x8A0 SWAP2 SWAP1 PUSH2 0x3F18 JUMP JUMPDEST SWAP2 POP JUMPDEST PUSH2 0x4D9 DUP6 ADDRESS DUP7 DUP7 DUP7 DUP7 PUSH2 0x11C5 JUMP JUMPDEST PUSH1 0xFF DUP2 AND PUSH1 0x6 EQ ISZERO PUSH2 0x902 JUMPI PUSH1 0x0 DUP1 DUP6 DUP5 DUP2 MLOAD DUP2 LT PUSH2 0x8D2 JUMPI PUSH2 0x8D2 PUSH2 0x3D87 JUMP JUMPDEST PUSH1 0x20 MUL PUSH1 0x20 ADD ADD MLOAD DUP1 PUSH1 0x20 ADD SWAP1 MLOAD DUP2 ADD SWAP1 PUSH2 0x8ED SWAP2 SWAP1 PUSH2 0x3F31 JUMP JUMPDEST SWAP2 POP SWAP2 POP PUSH2 0x8FB DUP3 DUP3 PUSH2 0x14D5 JUMP JUMPDEST POP POP PUSH2 0xB54 JUMP JUMPDEST PUSH1 0xFF DUP2 AND PUSH1 0xC EQ ISZERO PUSH2 0x94C JUMPI PUSH1 0x0 DUP1 DUP6 DUP5 DUP2 MLOAD DUP2 LT PUSH2 0x923 JUMPI PUSH2 0x923 PUSH2 0x3D87 JUMP JUMPDEST PUSH1 0x20 MUL PUSH1 0x20 ADD ADD MLOAD DUP1 PUSH1 0x20 ADD SWAP1 MLOAD DUP2 ADD SWAP1 PUSH2 0x93E SWAP2 SWAP1 PUSH2 0x3F6B JUMP JUMPDEST SWAP2 POP SWAP2 POP PUSH2 0x8FB DUP3 DUP3 PUSH2 0x15CB JUMP JUMPDEST PUSH1 0xFF DUP2 AND PUSH1 0x7 EQ ISZERO PUSH2 0xA6A JUMPI PUSH1 0x0 DUP1 PUSH1 0x0 DUP1 DUP8 DUP7 DUP2 MLOAD DUP2 LT PUSH2 0x970 JUMPI PUSH2 0x970 PUSH2 0x3D87 JUMP JUMPDEST PUSH1 0x20 MUL PUSH1 0x20 ADD ADD MLOAD DUP1 PUSH1 0x20 ADD SWAP1 MLOAD DUP2 ADD SWAP1 PUSH2 0x98B SWAP2 SWAP1 PUSH2 0x3F99 JUMP JUMPDEST SWAP4 POP SWAP4 POP SWAP4 POP SWAP4 POP PUSH1 0x0 DUP5 PUSH1 0x0 EQ ISZERO PUSH2 0xA52 JUMPI DUP3 PUSH1 0x0 DUP2 MLOAD DUP2 LT PUSH2 0x9B1 JUMPI PUSH2 0x9B1 PUSH2 0x3D87 JUMP JUMPDEST PUSH1 0x20 SWAP1 DUP2 MUL SWAP2 SWAP1 SWAP2 ADD ADD MLOAD PUSH1 0x40 MLOAD PUSH32 0x70A0823100000000000000000000000000000000000000000000000000000000 DUP2 MSTORE ADDRESS PUSH1 0x4 DUP3 ADD MSTORE PUSH20 0xFFFFFFFFFFFFFFFFFFFFFFFFFFFFFFFFFFFFFFFF SWAP1 SWAP2 AND SWAP1 PUSH4 0x70A08231 SWAP1 PUSH1 0x24 ADD PUSH1 0x20 PUSH1 0x40 MLOAD DUP1 DUP4 SUB DUP2 DUP7 GAS STATICCALL ISZERO DUP1 ISZERO PUSH2 0xA27 JUMPI RETURNDATASIZE PUSH1 0x0 DUP1 RETURNDATACOPY RETURNDATASIZE PUSH1 0x0 REVERT JUMPDEST POP POP POP POP PUSH1 0x40 MLOAD RETURNDATASIZE PUSH1 0x1F NOT PUSH1 0x1F DUP3 ADD AND DUP3 ADD DUP1 PUSH1 0x40 MSTORE POP DUP2 ADD SWAP1 PUSH2 0xA4B SWAP2 SWAP1 PUSH2 0x3F18 JUMP JUMPDEST SWAP5 POP PUSH1 0x1 SWAP1 POP JUMPDEST PUSH2 0xA5F DUP6 DUP6 DUP6 DUP6 DUP6 PUSH2 0x1630 JUMP JUMPDEST POP POP POP POP POP POP PUSH2 0xB54 JUMP JUMPDEST PUSH1 0xFF DUP2 AND PUSH1 0x8 EQ ISZERO PUSH2 0xAB0 JUMPI PUSH1 0x0 DUP5 DUP4 DUP2 MLOAD DUP2 LT PUSH2 0xA8A JUMPI PUSH2 0xA8A PUSH2 0x3D87 JUMP JUMPDEST PUSH1 0x20 MUL PUSH1 0x20 ADD ADD MLOAD DUP1 PUSH1 0x20 ADD SWAP1 MLOAD DUP2 ADD SWAP1 PUSH2 0xAA5 SWAP2 SWAP1 PUSH2 0x40CA JUMP JUMPDEST SWAP1 POP PUSH2 0x8FB DUP2 PUSH2 0x18A4 JUMP JUMPDEST PUSH1 0xFF DUP2 AND PUSH1 0x9 EQ ISZERO PUSH2 0xAFC JUMPI PUSH1 0x0 DUP5 DUP4 DUP2 MLOAD DUP2 LT PUSH2 0xAD0 JUMPI PUSH2 0xAD0 PUSH2 0x3D87 JUMP JUMPDEST PUSH1 0x20 MUL PUSH1 0x20 ADD ADD MLOAD DUP1 PUSH1 0x20 ADD SWAP1 MLOAD DUP2 ADD SWAP1 PUSH2 0xAEB SWAP2 SWAP1 PUSH2 0x43F7 JUMP JUMPDEST SWAP1 POP PUSH2 0xAF6 DUP2 PUSH2 0x1BCE JUMP JUMPDEST POP PUSH2 0xB54 JUMP JUMPDEST PUSH1 0xFF DUP2 AND PUSH1 0xA EQ ISZERO PUSH2 0xB54 JUMPI PUSH1 0x0 DUP1 PUSH1 0x0 DUP1 DUP8 DUP7 DUP2 MLOAD DUP2 LT PUSH2 0xB20 JUMPI PUSH2 0xB20 PUSH2 0x3D87 JUMP JUMPDEST PUSH1 0x20 MUL PUSH1 0x20 ADD ADD MLOAD DUP1 PUSH1 0x20 ADD SWAP1 MLOAD DUP2 ADD SWAP1 PUSH2 0xB3B SWAP2 SWAP1 PUSH2 0x46F4 JUMP JUMPDEST SWAP4 POP SWAP4 POP SWAP4 POP SWAP4 POP PUSH2 0xB4F DUP5 DUP5 DUP5 DUP5 PUSH2 0x2506 JUMP JUMPDEST POP POP POP POP JUMPDEST POP PUSH1 0x1 ADD PUSH2 0x2C0 JUMP JUMPDEST POP POP POP POP POP JUMP JUMPDEST PUSH1 0x0 DUP1 PUSH32 0x0 PUSH20 0xFFFFFFFFFFFFFFFFFFFFFFFFFFFFFFFFFFFFFFFF AND PUSH4 0xA512369 DUP10 DUP10 DUP10 PUSH1 0x40 MLOAD PUSH1 0x20 ADD PUSH2 0xBE1 SWAP2 SWAP1 PUSH1 0x60 SWAP2 SWAP1 SWAP2 SHL PUSH32 0xFFFFFFFFFFFFFFFFFFFFFFFFFFFFFFFFFFFFFFFF000000000000000000000000 AND DUP2 MSTORE PUSH1 0x14 ADD SWAP1 JUMP JUMPDEST PUSH1 0x40 MLOAD PUSH1 0x20 DUP2 DUP4 SUB SUB DUP2 MSTORE SWAP1 PUSH1 0x40 MSTORE DUP8 PUSH1 0x40 MLOAD PUSH1 0x20 ADD PUSH2 0xC01 SWAP2 SWAP1 PUSH2 0x4872 JUMP JUMPDEST PUSH1 0x40 MLOAD PUSH1 0x20 DUP2 DUP4 SUB SUB DUP2 MSTORE SWAP1 PUSH1 0x40 MSTORE PUSH1 0x40 MLOAD DUP1 PUSH1 0x60 ADD PUSH1 0x40 MSTORE DUP1 DUP13 DUP2 MSTORE PUSH1 0x20 ADD DUP12 DUP2 MSTORE PUSH1 0x20 ADD DUP14 PUSH1 0x40 MLOAD PUSH1 0x20 ADD PUSH2 0xC63 SWAP2 SWAP1 PUSH1 0x60 SWAP2 SWAP1 SWAP2 SHL PUSH32 0xFFFFFFFFFFFFFFFFFFFFFFFFFFFFFFFFFFFFFFFF000000000000000000000000 AND DUP2 MSTORE PUSH1 0x14 ADD SWAP1 JUMP JUMPDEST PUSH1 0x40 MLOAD PUSH1 0x20 DUP2 DUP4 SUB SUB DUP2 MSTORE SWAP1 PUSH1 0x40 MSTORE DUP2 MSTORE POP PUSH1 0x40 MLOAD DUP7 PUSH4 0xFFFFFFFF AND PUSH1 0xE0 SHL DUP2 MSTORE PUSH1 0x4 ADD PUSH2 0xC95 SWAP6 SWAP5 SWAP4 SWAP3 SWAP2 SWAP1 PUSH2 0x48AE JUMP JUMPDEST PUSH1 0x40 DUP1 MLOAD DUP1 DUP4 SUB DUP2 DUP7 GAS STATICCALL ISZERO DUP1 ISZERO PUSH2 0xCB1 JUMPI RETURNDATASIZE PUSH1 0x0 DUP1 RETURNDATACOPY RETURNDATASIZE PUSH1 0x0 REVERT JUMPDEST POP POP POP POP PUSH1 0x40 MLOAD RETURNDATASIZE PUSH1 0x1F NOT PUSH1 0x1F DUP3 ADD AND DUP3 ADD DUP1 PUSH1 0x40 MSTORE POP DUP2 ADD SWAP1 PUSH2 0xCD5 SWAP2 SWAP1 PUSH2 0x4906 JUMP JUMPDEST SWAP1 SWAP10 SWAP1 SWAP9 POP SWAP7 POP POP POP POP POP POP POP JUMP JUMPDEST CALLER PUSH20 0xFFFFFFFFFFFFFFFFFFFFFFFFFFFFFFFFFFFFFFFF PUSH32 0x0 AND EQ PUSH2 0xD53 JUMPI PUSH1 0x40 MLOAD PUSH32 0x8C66BF5600000000000000000000000000000000000000000000000000000000 DUP2 MSTORE PUSH1 0x4 ADD PUSH1 0x40 MLOAD DUP1 SWAP2 SUB SWAP1 REVERT JUMPDEST PUSH1 0x0 DUP1 PUSH1 0x0 DUP1 PUSH1 0x0 DUP6 DUP1 PUSH1 0x20 ADD SWAP1 MLOAD DUP2 ADD SWAP1 PUSH2 0xD6F SWAP2 SWAP1 PUSH2 0x492A JUMP JUMPDEST SWAP4 SWAP9 POP SWAP2 SWAP7 POP SWAP5 POP SWAP3 POP SWAP1 POP PUSH3 0x186A0 PUSH1 0x0 DUP2 GAS LT ISZERO PUSH2 0xEA7 JUMPI PUSH32 0x0 PUSH20 0xFFFFFFFFFFFFFFFFFFFFFFFFFFFFFFFFFFFFFFFF AND DUP11 PUSH20 0xFFFFFFFFFFFFFFFFFFFFFFFFFFFFFFFFFFFFFFFF AND EQ PUSH2 0xDFD JUMPI PUSH2 0xDFD PUSH20 0xFFFFFFFFFFFFFFFFFFFFFFFFFFFFFFFFFFFFFFFF DUP12 AND DUP9 DUP12 PUSH2 0x2889 JUMP JUMPDEST SELFBALANCE ISZERO PUSH2 0xE62 JUMPI PUSH1 0x40 MLOAD PUSH20 0xFFFFFFFFFFFFFFFFFFFFFFFFFFFFFFFFFFFFFFFF DUP9 AND SWAP1 SELFBALANCE SWAP1 PUSH1 0x0 DUP2 DUP2 DUP2 DUP6 DUP8 GAS CALL SWAP3 POP POP POP RETURNDATASIZE DUP1 PUSH1 0x0 DUP2 EQ PUSH2 0xE59 JUMPI PUSH1 0x40 MLOAD SWAP2 POP PUSH1 0x1F NOT PUSH1 0x3F RETURNDATASIZE ADD AND DUP3 ADD PUSH1 0x40 MSTORE RETURNDATASIZE DUP3 MSTORE RETURNDATASIZE PUSH1 0x0 PUSH1 0x20 DUP5 ADD RETURNDATACOPY PUSH2 0xE5E JUMP JUMPDEST PUSH1 0x60 SWAP2 POP JUMPDEST POP POP POP JUMPDEST POP PUSH1 0x40 MLOAD PUSH1 0x1 DUP1 DUP3 MSTORE SWAP1 DUP4 SWAP1 PUSH32 0xD02BBEBA90C0A3636769D1B8C9F07E2B5E4131B8FBCC2D6BA56054E20B98D75D SWAP1 PUSH1 0x20 ADD PUSH1 0x40 MLOAD DUP1 SWAP2 SUB SWAP1 LOG2 POP POP POP POP POP POP POP PUSH2 0x107E JUMP JUMPDEST PUSH1 0x0 DUP3 GAS PUSH2 0xEB5 SWAP2 SWAP1 PUSH2 0x49FF JUMP JUMPDEST PUSH1 0x40 MLOAD PUSH32 0x656F3D6400000000000000000000000000000000000000000000000000000000 DUP2 MSTORE SWAP1 SWAP2 POP ADDRESS SWAP1 PUSH4 0x656F3D64 SWAP1 DUP4 SWAP1 PUSH2 0xEFA SWAP1 DUP12 SWAP1 DUP12 SWAP1 DUP12 SWAP1 PUSH1 0x4 ADD PUSH2 0x4AD9 JUMP JUMPDEST PUSH1 0x0 PUSH1 0x40 MLOAD DUP1 DUP4 SUB DUP2 PUSH1 0x0 DUP9 DUP1 EXTCODESIZE ISZERO DUP1 ISZERO PUSH2 0xF14 JUMPI PUSH1 0x0 DUP1 REVERT JUMPDEST POP DUP8 CALL SWAP4 POP POP POP POP DUP1 ISZERO PUSH2 0xF26 JUMPI POP PUSH1 0x1 JUMPDEST PUSH2 0xFD4 JUMPI RETURNDATASIZE DUP1 DUP1 ISZERO PUSH2 0xF54 JUMPI PUSH1 0x40 MLOAD SWAP2 POP PUSH1 0x1F NOT PUSH1 0x3F RETURNDATASIZE ADD AND DUP3 ADD PUSH1 0x40 MSTORE RETURNDATASIZE DUP3 MSTORE RETURNDATASIZE PUSH1 0x0 PUSH1 0x20 DUP5 ADD RETURNDATACOPY PUSH2 0xF59 JUMP JUMPDEST PUSH1 0x60 SWAP2 POP JUMPDEST POP PUSH32 0x0 PUSH20 0xFFFFFFFFFFFFFFFFFFFFFFFFFFFFFFFFFFFFFFFF AND DUP13 PUSH20 0xFFFFFFFFFFFFFFFFFFFFFFFFFFFFFFFFFFFFFFFF AND EQ PUSH2 0xFCE JUMPI PUSH2 0xFCE PUSH20 0xFFFFFFFFFFFFFFFFFFFFFFFFFFFFFFFFFFFFFFFF DUP14 AND DUP11 DUP14 PUSH2 0x2889 JUMP JUMPDEST PUSH1 0x1 SWAP3 POP POP JUMPDEST SELFBALANCE ISZERO PUSH2 0x1039 JUMPI PUSH1 0x40 MLOAD PUSH20 0xFFFFFFFFFFFFFFFFFFFFFFFFFFFFFFFFFFFFFFFF DUP10 AND SWAP1 SELFBALANCE SWAP1 PUSH1 0x0 DUP2 DUP2 DUP2 DUP6 DUP8 GAS CALL SWAP3 POP POP POP RETURNDATASIZE DUP1 PUSH1 0x0 DUP2 EQ PUSH2 0x1030 JUMPI PUSH1 0x40 MLOAD SWAP2 POP PUSH1 0x1F NOT PUSH1 0x3F RETURNDATASIZE ADD AND DUP3 ADD PUSH1 0x40 MSTORE RETURNDATASIZE DUP3 MSTORE RETURNDATASIZE PUSH1 0x0 PUSH1 0x20 DUP5 ADD RETURNDATACOPY PUSH2 0x1035 JUMP JUMPDEST PUSH1 0x60 SWAP2 POP JUMPDEST POP POP POP JUMPDEST DUP4 PUSH32 0xD02BBEBA90C0A3636769D1B8C9F07E2B5E4131B8FBCC2D6BA56054E20B98D75D DUP4 PUSH1 0x40 MLOAD PUSH2 0x106D SWAP2 ISZERO ISZERO DUP2 MSTORE PUSH1 0x20 ADD SWAP1 JUMP JUMPDEST PUSH1 0x40 MLOAD DUP1 SWAP2 SUB SWAP1 LOG2 POP POP POP POP POP POP POP POP JUMPDEST POP POP POP POP POP POP JUMP JUMPDEST PUSH2 0x10E7 PUSH20 0xFFFFFFFFFFFFFFFFFFFFFFFFFFFFFFFFFFFFFFFF DUP3 AND PUSH32 0x0 PUSH32 0xFFFFFFFFFFFFFFFFFFFFFFFFFFFFFFFFFFFFFFFFFFFFFFFFFFFFFFFFFFFFFFFF PUSH2 0x295D JUMP JUMPDEST POP JUMP JUMPDEST PUSH1 0x40 MLOAD PUSH32 0x2B9446C00000000000000000000000000000000000000000000000000000000 DUP2 MSTORE PUSH20 0xFFFFFFFFFFFFFFFFFFFFFFFFFFFFFFFFFFFFFFFF DUP8 DUP2 AND PUSH1 0x4 DUP4 ADD MSTORE DUP7 DUP2 AND PUSH1 0x24 DUP4 ADD MSTORE DUP6 DUP2 AND PUSH1 0x44 DUP4 ADD MSTORE PUSH1 0x64 DUP3 ADD DUP6 SWAP1 MSTORE PUSH1 0x84 DUP3 ADD DUP5 SWAP1 MSTORE PUSH32 0x0 AND SWAP1 PUSH4 0x2B9446C SWAP1 DUP4 SWAP1 PUSH1 0xA4 ADD PUSH1 0x40 DUP1 MLOAD DUP1 DUP4 SUB DUP2 DUP6 DUP9 GAS CALL ISZERO DUP1 ISZERO PUSH2 0x1196 JUMPI RETURNDATASIZE PUSH1 0x0 DUP1 RETURNDATACOPY RETURNDATASIZE PUSH1 0x0 REVERT JUMPDEST POP POP POP POP POP PUSH1 0x40 MLOAD RETURNDATASIZE PUSH1 0x1F NOT PUSH1 0x1F DUP3 ADD AND DUP3 ADD DUP1 PUSH1 0x40 MSTORE POP DUP2 ADD SWAP1 PUSH2 0x11BB SWAP2 SWAP1 PUSH2 0x4906 JUMP JUMPDEST POP POP POP POP POP POP POP POP JUMP JUMPDEST DUP1 ISZERO PUSH2 0x12A1 JUMPI PUSH1 0x40 MLOAD PUSH32 0x97DA6D3000000000000000000000000000000000000000000000000000000000 DUP2 MSTORE PUSH20 0xFFFFFFFFFFFFFFFFFFFFFFFFFFFFFFFFFFFFFFFF DUP8 DUP2 AND PUSH1 0x4 DUP4 ADD MSTORE DUP7 DUP2 AND PUSH1 0x24 DUP4 ADD MSTORE DUP6 DUP2 AND PUSH1 0x44 DUP4 ADD MSTORE PUSH1 0x64 DUP3 ADD DUP6 SWAP1 MSTORE PUSH1 0x84 DUP3 ADD DUP5 SWAP1 MSTORE PUSH32 0x0 AND SWAP1 PUSH4 0x97DA6D30 SWAP1 PUSH1 0xA4 ADD PUSH1 0x40 DUP1 MLOAD DUP1 DUP4 SUB DUP2 PUSH1 0x0 DUP8 GAS CALL ISZERO DUP1 ISZERO PUSH2 0x1276 JUMPI RETURNDATASIZE PUSH1 0x0 DUP1 RETURNDATACOPY RETURNDATASIZE PUSH1 0x0 REVERT JUMPDEST POP POP POP POP PUSH1 0x40 MLOAD RETURNDATASIZE PUSH1 0x1F NOT PUSH1 0x1F DUP3 ADD AND DUP3 ADD DUP1 PUSH1 0x40 MSTORE POP DUP2 ADD SWAP1 PUSH2 0x129A SWAP2 SWAP1 PUSH2 0x4906 JUMP JUMPDEST POP POP PUSH2 0x107E JUMP JUMPDEST DUP3 ISZERO PUSH2 0x1368 JUMPI PUSH1 0x40 MLOAD PUSH32 0xDA5139CA00000000000000000000000000000000000000000000000000000000 DUP2 MSTORE PUSH20 0xFFFFFFFFFFFFFFFFFFFFFFFFFFFFFFFFFFFFFFFF DUP8 DUP2 AND PUSH1 0x4 DUP4 ADD MSTORE PUSH1 0x24 DUP3 ADD DUP6 SWAP1 MSTORE PUSH1 0x0 PUSH1 0x44 DUP4 ADD MSTORE PUSH32 0x0 AND SWAP1 PUSH4 0xDA5139CA SWAP1 PUSH1 0x64 ADD PUSH1 0x20 PUSH1 0x40 MLOAD DUP1 DUP4 SUB DUP2 DUP7 GAS STATICCALL ISZERO DUP1 ISZERO PUSH2 0x1341 JUMPI RETURNDATASIZE PUSH1 0x0 DUP1 RETURNDATACOPY RETURNDATASIZE PUSH1 0x0 REVERT JUMPDEST POP POP POP POP PUSH1 0x40 MLOAD RETURNDATASIZE PUSH1 0x1F NOT PUSH1 0x1F DUP3 ADD AND DUP3 ADD DUP1 PUSH1 0x40 MSTORE POP DUP2 ADD SWAP1 PUSH2 0x1365 SWAP2 SWAP1 PUSH2 0x3F18 JUMP JUMPDEST SWAP2 POP JUMPDEST PUSH1 0x40 MLOAD PUSH32 0xF18D03CC00000000000000000000000000000000000000000000000000000000 DUP2 MSTORE PUSH20 0xFFFFFFFFFFFFFFFFFFFFFFFFFFFFFFFFFFFFFFFF DUP8 DUP2 AND PUSH1 0x4 DUP4 ADD MSTORE DUP7 DUP2 AND PUSH1 0x24 DUP4 ADD MSTORE DUP6 DUP2 AND PUSH1 0x44 DUP4 ADD MSTORE PUSH1 0x64 DUP3 ADD DUP5 SWAP1 MSTORE PUSH32 0x0 AND SWAP1 PUSH4 0xF18D03CC SWAP1 PUSH1 0x84 ADD PUSH1 0x0 PUSH1 0x40 MLOAD DUP1 DUP4 SUB DUP2 PUSH1 0x0 DUP8 DUP1 EXTCODESIZE ISZERO DUP1 ISZERO PUSH2 0x1408 JUMPI PUSH1 0x0 DUP1 REVERT JUMPDEST POP GAS CALL ISZERO DUP1 ISZERO PUSH2 0x141C JUMPI RETURNDATASIZE PUSH1 0x0 DUP1 RETURNDATACOPY RETURNDATASIZE PUSH1 0x0 REVERT JUMPDEST POP POP POP POP POP POP POP POP POP POP JUMP JUMPDEST PUSH2 0x144A PUSH20 0xFFFFFFFFFFFFFFFFFFFFFFFFFFFFFFFFFFFFFFFF DUP5 AND CALLER DUP5 DUP5 PUSH2 0x2ADF JUMP JUMPDEST POP POP POP JUMP JUMPDEST PUSH20 0xFFFFFFFFFFFFFFFFFFFFFFFFFFFFFFFFFFFFFFFF DUP4 AND ISZERO PUSH2 0x148C JUMPI PUSH2 0x144A PUSH20 0xFFFFFFFFFFFFFFFFFFFFFFFFFFFFFFFFFFFFFFFF DUP5 AND DUP4 DUP4 PUSH2 0x2889 JUMP JUMPDEST PUSH1 0x40 MLOAD PUSH20 0xFFFFFFFFFFFFFFFFFFFFFFFFFFFFFFFFFFFFFFFF DUP4 AND SWAP1 DUP3 ISZERO PUSH2 0x8FC MUL SWAP1 DUP4 SWAP1 PUSH1 0x0 DUP2 DUP2 DUP2 DUP6 DUP9 DUP9 CALL SWAP4 POP POP POP POP ISZERO DUP1 ISZERO PUSH2 0x14CF JUMPI RETURNDATASIZE PUSH1 0x0 DUP1 RETURNDATACOPY RETURNDATASIZE PUSH1 0x0 REVERT JUMPDEST POP POP POP POP JUMP JUMPDEST PUSH1 0x40 MLOAD PUSH32 0x70A0823100000000000000000000000000000000000000000000000000000000 DUP2 MSTORE ADDRESS PUSH1 0x4 DUP3 ADD MSTORE PUSH20 0xFFFFFFFFFFFFFFFFFFFFFFFFFFFFFFFFFFFFFFFF DUP4 AND SWAP1 PUSH4 0x2E1A7D4D SWAP1 DUP3 SWAP1 PUSH4 0x70A08231 SWAP1 PUSH1 0x24 ADD PUSH1 0x20 PUSH1 0x40 MLOAD DUP1 DUP4 SUB DUP2 DUP7 GAS STATICCALL ISZERO DUP1 ISZERO PUSH2 0x1547 JUMPI RETURNDATASIZE PUSH1 0x0 DUP1 RETURNDATACOPY RETURNDATASIZE PUSH1 0x0 REVERT JUMPDEST POP POP POP POP PUSH1 0x40 MLOAD RETURNDATASIZE PUSH1 0x1F NOT PUSH1 0x1F DUP3 ADD AND DUP3 ADD DUP1 PUSH1 0x40 MSTORE POP DUP2 ADD SWAP1 PUSH2 0x156B SWAP2 SWAP1 PUSH2 0x3F18 JUMP JUMPDEST PUSH1 0x40 MLOAD DUP3 PUSH4 0xFFFFFFFF AND PUSH1 0xE0 SHL DUP2 MSTORE PUSH1 0x4 ADD PUSH2 0x1589 SWAP2 DUP2 MSTORE PUSH1 0x20 ADD SWAP1 JUMP JUMPDEST PUSH1 0x0 PUSH1 0x40 MLOAD DUP1 DUP4 SUB DUP2 PUSH1 0x0 DUP8 DUP1 EXTCODESIZE ISZERO DUP1 ISZERO PUSH2 0x15A3 JUMPI PUSH1 0x0 DUP1 REVERT JUMPDEST POP GAS CALL ISZERO DUP1 ISZERO PUSH2 0x15B7 JUMPI RETURNDATASIZE PUSH1 0x0 DUP1 RETURNDATACOPY RETURNDATASIZE PUSH1 0x0 REVERT JUMPDEST POP POP POP POP PUSH2 0x15C7 PUSH1 0x0 DUP3 SELFBALANCE PUSH2 0x144F JUMP JUMPDEST POP POP JUMP JUMPDEST DUP2 PUSH20 0xFFFFFFFFFFFFFFFFFFFFFFFFFFFFFFFFFFFFFFFF AND PUSH4 0xD0E30DB0 DUP3 PUSH1 0x40 MLOAD DUP3 PUSH4 0xFFFFFFFF AND PUSH1 0xE0 SHL DUP2 MSTORE PUSH1 0x4 ADD PUSH1 0x0 PUSH1 0x40 MLOAD DUP1 DUP4 SUB DUP2 DUP6 DUP9 DUP1 EXTCODESIZE ISZERO DUP1 ISZERO PUSH2 0x1613 JUMPI PUSH1 0x0 DUP1 REVERT JUMPDEST POP GAS CALL ISZERO DUP1 ISZERO PUSH2 0x1627 JUMPI RETURNDATASIZE PUSH1 0x0 DUP1 RETURNDATACOPY RETURNDATASIZE PUSH1 0x0 REVERT JUMPDEST POP POP POP POP POP POP POP JUMP JUMPDEST PUSH1 0x0 DUP1 PUSH2 0x167F PUSH32 0x0 DUP9 DUP8 PUSH32 0x0 PUSH2 0x2B3D JUMP JUMPDEST SWAP1 POP DUP1 PUSH1 0x1 DUP3 MLOAD PUSH2 0x1690 SWAP2 SWAP1 PUSH2 0x49FF JUMP JUMPDEST DUP2 MLOAD DUP2 LT PUSH2 0x16A0 JUMPI PUSH2 0x16A0 PUSH2 0x3D87 JUMP JUMPDEST PUSH1 0x20 MUL PUSH1 0x20 ADD ADD MLOAD SWAP2 POP DUP6 DUP3 LT ISZERO PUSH2 0x1719 JUMPI PUSH1 0x40 MLOAD PUSH32 0x8C379A000000000000000000000000000000000000000000000000000000000 DUP2 MSTORE PUSH1 0x20 PUSH1 0x4 DUP3 ADD MSTORE PUSH1 0x17 PUSH1 0x24 DUP3 ADD MSTORE PUSH32 0x696E73756666696369656E742D616D6F756E742D6F7574000000000000000000 PUSH1 0x44 DUP3 ADD MSTORE PUSH1 0x64 ADD JUMPDEST PUSH1 0x40 MLOAD DUP1 SWAP2 SUB SWAP1 REVERT JUMPDEST DUP3 ISZERO PUSH2 0x188F JUMPI PUSH2 0x188F PUSH2 0x17A2 PUSH32 0x0 DUP8 PUSH1 0x0 DUP2 MLOAD DUP2 LT PUSH2 0x1759 JUMPI PUSH2 0x1759 PUSH2 0x3D87 JUMP JUMPDEST PUSH1 0x20 MUL PUSH1 0x20 ADD ADD MLOAD DUP9 PUSH1 0x1 DUP2 MLOAD DUP2 LT PUSH2 0x1774 JUMPI PUSH2 0x1774 PUSH2 0x3D87 JUMP JUMPDEST PUSH1 0x20 MUL PUSH1 0x20 ADD ADD MLOAD PUSH32 0x0 PUSH2 0x2CE4 JUMP JUMPDEST DUP7 PUSH1 0x0 DUP2 MLOAD DUP2 LT PUSH2 0x17B5 JUMPI PUSH2 0x17B5 PUSH2 0x3D87 JUMP JUMPDEST PUSH1 0x20 SWAP1 DUP2 MUL SWAP2 SWAP1 SWAP2 ADD ADD MLOAD PUSH1 0x40 MLOAD PUSH32 0x70A0823100000000000000000000000000000000000000000000000000000000 DUP2 MSTORE ADDRESS PUSH1 0x4 DUP3 ADD MSTORE PUSH20 0xFFFFFFFFFFFFFFFFFFFFFFFFFFFFFFFFFFFFFFFF SWAP1 SWAP2 AND SWAP1 PUSH4 0x70A08231 SWAP1 PUSH1 0x24 ADD PUSH1 0x20 PUSH1 0x40 MLOAD DUP1 DUP4 SUB DUP2 DUP7 GAS STATICCALL ISZERO DUP1 ISZERO PUSH2 0x182B JUMPI RETURNDATASIZE PUSH1 0x0 DUP1 RETURNDATACOPY RETURNDATASIZE PUSH1 0x0 REVERT JUMPDEST POP POP POP POP PUSH1 0x40 MLOAD RETURNDATASIZE PUSH1 0x1F NOT PUSH1 0x1F DUP3 ADD AND DUP3 ADD DUP1 PUSH1 0x40 MSTORE POP DUP2 ADD SWAP1 PUSH2 0x184F SWAP2 SWAP1 PUSH2 0x3F18 JUMP JUMPDEST DUP8 PUSH1 0x0 DUP2 MLOAD DUP2 LT PUSH2 0x1862 JUMPI PUSH2 0x1862 PUSH2 0x3D87 JUMP JUMPDEST PUSH1 0x20 MUL PUSH1 0x20 ADD ADD MLOAD PUSH20 0xFFFFFFFFFFFFFFFFFFFFFFFFFFFFFFFFFFFFFFFF AND PUSH2 0x2889 SWAP1 SWAP3 SWAP2 SWAP1 PUSH4 0xFFFFFFFF AND JUMP JUMPDEST PUSH2 0x189A DUP2 DUP7 DUP7 PUSH2 0x2DFE JUMP JUMPDEST POP SWAP6 SWAP5 POP POP POP POP POP JUMP JUMPDEST PUSH1 0x0 DUP2 PUSH1 0x20 ADD MLOAD PUSH1 0x0 EQ ISZERO PUSH2 0x1AB0 JUMPI DUP2 MLOAD PUSH1 0x40 MLOAD PUSH32 0x70A0823100000000000000000000000000000000000000000000000000000000 DUP2 MSTORE ADDRESS PUSH1 0x4 DUP3 ADD MSTORE PUSH1 0x0 SWAP2 PUSH20 0xFFFFFFFFFFFFFFFFFFFFFFFFFFFFFFFFFFFFFFFF AND SWAP1 PUSH4 0x70A08231 SWAP1 PUSH1 0x24 ADD PUSH1 0x20 PUSH1 0x40 MLOAD DUP1 DUP4 SUB DUP2 DUP7 GAS STATICCALL ISZERO DUP1 ISZERO PUSH2 0x1921 JUMPI RETURNDATASIZE PUSH1 0x0 DUP1 RETURNDATACOPY RETURNDATASIZE PUSH1 0x0 REVERT JUMPDEST POP POP POP POP PUSH1 0x40 MLOAD RETURNDATASIZE PUSH1 0x1F NOT PUSH1 0x1F DUP3 ADD AND DUP3 ADD DUP1 PUSH1 0x40 MSTORE POP DUP2 ADD SWAP1 PUSH2 0x1945 SWAP2 SWAP1 PUSH2 0x3F18 JUMP JUMPDEST SWAP1 POP PUSH2 0x1976 DUP4 PUSH1 0x0 ADD MLOAD PUSH32 0x0 DUP4 PUSH2 0x144F JUMP JUMPDEST PUSH32 0x0 PUSH20 0xFFFFFFFFFFFFFFFFFFFFFFFFFFFFFFFFFFFFFFFF AND PUSH4 0x2B9446C DUP5 PUSH1 0x0 ADD MLOAD PUSH32 0x0 DUP7 PUSH1 0x60 ADD MLOAD PUSH1 0x0 DUP2 MLOAD DUP2 LT PUSH2 0x19EF JUMPI PUSH2 0x19EF PUSH2 0x3D87 JUMP JUMPDEST PUSH1 0x20 SWAP1 DUP2 MUL SWAP2 SWAP1 SWAP2 ADD ADD MLOAD MLOAD PUSH1 0x40 MLOAD PUSH32 0xFFFFFFFF00000000000000000000000000000000000000000000000000000000 PUSH1 0xE0 DUP7 SWAP1 SHL AND DUP2 MSTORE PUSH20 0xFFFFFFFFFFFFFFFFFFFFFFFFFFFFFFFFFFFFFFFF SWAP4 DUP5 AND PUSH1 0x4 DUP3 ADD MSTORE SWAP2 DUP4 AND PUSH1 0x24 DUP4 ADD MSTORE SWAP2 SWAP1 SWAP2 AND PUSH1 0x44 DUP3 ADD MSTORE PUSH1 0x64 DUP2 ADD DUP5 SWAP1 MSTORE PUSH1 0x0 PUSH1 0x84 DUP3 ADD MSTORE PUSH1 0xA4 ADD PUSH1 0x40 DUP1 MLOAD DUP1 DUP4 SUB DUP2 PUSH1 0x0 DUP8 GAS CALL ISZERO DUP1 ISZERO PUSH2 0x1A84 JUMPI RETURNDATASIZE PUSH1 0x0 DUP1 RETURNDATACOPY RETURNDATASIZE PUSH1 0x0 REVERT JUMPDEST POP POP POP POP PUSH1 0x40 MLOAD RETURNDATASIZE PUSH1 0x1F NOT PUSH1 0x1F DUP3 ADD AND DUP3 ADD DUP1 PUSH1 0x40 MSTORE POP DUP2 ADD SWAP1 PUSH2 0x1AA8 SWAP2 SWAP1 PUSH2 0x4906 JUMP JUMPDEST PUSH1 0x20 DUP6 ADD MSTORE POP POP JUMPDEST PUSH1 0x60 DUP3 ADD MLOAD MLOAD PUSH1 0x0 JUMPDEST DUP2 DUP2 LT ISZERO PUSH2 0x1B89 JUMPI DUP4 PUSH1 0x60 ADD MLOAD DUP2 DUP2 MLOAD DUP2 LT PUSH2 0x1AD7 JUMPI PUSH2 0x1AD7 PUSH2 0x3D87 JUMP JUMPDEST PUSH1 0x20 MUL PUSH1 0x20 ADD ADD MLOAD PUSH1 0x0 ADD MLOAD PUSH20 0xFFFFFFFFFFFFFFFFFFFFFFFFFFFFFFFFFFFFFFFF AND PUSH4 0x627DD56A DUP6 PUSH1 0x60 ADD MLOAD DUP4 DUP2 MLOAD DUP2 LT PUSH2 0x1B14 JUMPI PUSH2 0x1B14 PUSH2 0x3D87 JUMP JUMPDEST PUSH1 0x20 MUL PUSH1 0x20 ADD ADD MLOAD PUSH1 0x20 ADD MLOAD PUSH1 0x40 MLOAD DUP3 PUSH4 0xFFFFFFFF AND PUSH1 0xE0 SHL DUP2 MSTORE PUSH1 0x4 ADD PUSH2 0x1B3C SWAP2 SWAP1 PUSH2 0x4872 JUMP JUMPDEST PUSH1 0x20 PUSH1 0x40 MLOAD DUP1 DUP4 SUB DUP2 PUSH1 0x0 DUP8 GAS CALL ISZERO DUP1 ISZERO PUSH2 0x1B5B JUMPI RETURNDATASIZE PUSH1 0x0 DUP1 RETURNDATACOPY RETURNDATASIZE PUSH1 0x0 REVERT JUMPDEST POP POP POP POP PUSH1 0x40 MLOAD RETURNDATASIZE PUSH1 0x1F NOT PUSH1 0x1F DUP3 ADD AND DUP3 ADD DUP1 PUSH1 0x40 MSTORE POP DUP2 ADD SWAP1 PUSH2 0x1B7F SWAP2 SWAP1 PUSH2 0x3F18 JUMP JUMPDEST SWAP3 POP PUSH1 0x1 ADD PUSH2 0x1AB9 JUMP JUMPDEST POP DUP3 PUSH1 0x40 ADD MLOAD DUP3 LT ISZERO PUSH2 0x1BC8 JUMPI PUSH1 0x40 MLOAD PUSH32 0xC9F52C7100000000000000000000000000000000000000000000000000000000 DUP2 MSTORE PUSH1 0x4 ADD PUSH1 0x40 MLOAD DUP1 SWAP2 SUB SWAP1 REVERT JUMPDEST POP SWAP2 SWAP1 POP JUMP JUMPDEST DUP1 MLOAD MLOAD PUSH1 0x0 JUMPDEST DUP2 DUP2 LT ISZERO PUSH2 0x1DDE JUMPI PUSH32 0x0 PUSH20 0xFFFFFFFFFFFFFFFFFFFFFFFFFFFFFFFFFFFFFFFF AND PUSH4 0xF18D03CC DUP5 PUSH1 0x0 ADD MLOAD DUP4 DUP2 MLOAD DUP2 LT PUSH2 0x1C2E JUMPI PUSH2 0x1C2E PUSH2 0x3D87 JUMP JUMPDEST PUSH1 0x20 MUL PUSH1 0x20 ADD ADD MLOAD PUSH1 0x0 ADD MLOAD ADDRESS DUP7 PUSH1 0x0 ADD MLOAD DUP6 DUP2 MLOAD DUP2 LT PUSH2 0x1C51 JUMPI PUSH2 0x1C51 PUSH2 0x3D87 JUMP JUMPDEST PUSH1 0x20 MUL PUSH1 0x20 ADD ADD MLOAD PUSH1 0x20 ADD MLOAD DUP8 PUSH1 0x0 ADD MLOAD DUP7 DUP2 MLOAD DUP2 LT PUSH2 0x1C73 JUMPI PUSH2 0x1C73 PUSH2 0x3D87 JUMP JUMPDEST PUSH1 0x20 SWAP1 DUP2 MUL SWAP2 SWAP1 SWAP2 ADD ADD MLOAD PUSH1 0x60 ADD MLOAD PUSH1 0x40 MLOAD PUSH32 0xFFFFFFFF00000000000000000000000000000000000000000000000000000000 PUSH1 0xE0 DUP8 SWAP1 SHL AND DUP2 MSTORE PUSH20 0xFFFFFFFFFFFFFFFFFFFFFFFFFFFFFFFFFFFFFFFF SWAP5 DUP6 AND PUSH1 0x4 DUP3 ADD MSTORE SWAP3 DUP5 AND PUSH1 0x24 DUP5 ADD MSTORE SWAP3 AND PUSH1 0x44 DUP3 ADD MSTORE PUSH1 0x64 DUP2 ADD SWAP2 SWAP1 SWAP2 MSTORE PUSH1 0x84 ADD PUSH1 0x0 PUSH1 0x40 MLOAD DUP1 DUP4 SUB DUP2 PUSH1 0x0 DUP8 DUP1 EXTCODESIZE ISZERO DUP1 ISZERO PUSH2 0x1CFF JUMPI PUSH1 0x0 DUP1 REVERT JUMPDEST POP GAS CALL ISZERO DUP1 ISZERO PUSH2 0x1D13 JUMPI RETURNDATASIZE PUSH1 0x0 DUP1 RETURNDATACOPY RETURNDATASIZE PUSH1 0x0 REVERT JUMPDEST POP POP POP POP DUP3 PUSH1 0x0 ADD MLOAD DUP2 DUP2 MLOAD DUP2 LT PUSH2 0x1D2D JUMPI PUSH2 0x1D2D PUSH2 0x3D87 JUMP JUMPDEST PUSH1 0x20 MUL PUSH1 0x20 ADD ADD MLOAD PUSH1 0x20 ADD MLOAD PUSH20 0xFFFFFFFFFFFFFFFFFFFFFFFFFFFFFFFFFFFFFFFF AND PUSH4 0x627DD56A DUP5 PUSH1 0x0 ADD MLOAD DUP4 DUP2 MLOAD DUP2 LT PUSH2 0x1D6A JUMPI PUSH2 0x1D6A PUSH2 0x3D87 JUMP JUMPDEST PUSH1 0x20 MUL PUSH1 0x20 ADD ADD MLOAD PUSH1 0x80 ADD MLOAD PUSH1 0x40 MLOAD DUP3 PUSH4 0xFFFFFFFF AND PUSH1 0xE0 SHL DUP2 MSTORE PUSH1 0x4 ADD PUSH2 0x1D92 SWAP2 SWAP1 PUSH2 0x4872 JUMP JUMPDEST PUSH1 0x20 PUSH1 0x40 MLOAD DUP1 DUP4 SUB DUP2 PUSH1 0x0 DUP8 GAS CALL ISZERO DUP1 ISZERO PUSH2 0x1DB1 JUMPI RETURNDATASIZE PUSH1 0x0 DUP1 RETURNDATACOPY RETURNDATASIZE PUSH1 0x0 REVERT JUMPDEST POP POP POP POP PUSH1 0x40 MLOAD RETURNDATASIZE PUSH1 0x1F NOT PUSH1 0x1F DUP3 ADD AND DUP3 ADD DUP1 PUSH1 0x40 MSTORE POP DUP2 ADD SWAP1 PUSH2 0x1DD5 SWAP2 SWAP1 PUSH2 0x3F18 JUMP JUMPDEST POP PUSH1 0x1 ADD PUSH2 0x1BD4 JUMP JUMPDEST POP POP PUSH1 0x20 DUP2 ADD MLOAD MLOAD PUSH1 0x0 JUMPDEST DUP2 DUP2 LT ISZERO PUSH2 0x2122 JUMPI PUSH1 0x0 PUSH32 0x0 PUSH20 0xFFFFFFFFFFFFFFFFFFFFFFFFFFFFFFFFFFFFFFFF AND PUSH4 0xF7888AEC DUP6 PUSH1 0x20 ADD MLOAD DUP5 DUP2 MLOAD DUP2 LT PUSH2 0x1E45 JUMPI PUSH2 0x1E45 PUSH2 0x3D87 JUMP JUMPDEST PUSH1 0x20 SWAP1 DUP2 MUL SWAP2 SWAP1 SWAP2 ADD ADD MLOAD MLOAD PUSH1 0x40 MLOAD PUSH32 0xFFFFFFFF00000000000000000000000000000000000000000000000000000000 PUSH1 0xE0 DUP5 SWAP1 SHL AND DUP2 MSTORE PUSH20 0xFFFFFFFFFFFFFFFFFFFFFFFFFFFFFFFFFFFFFFFF SWAP1 SWAP2 AND PUSH1 0x4 DUP3 ADD MSTORE ADDRESS PUSH1 0x24 DUP3 ADD MSTORE PUSH1 0x44 ADD PUSH1 0x20 PUSH1 0x40 MLOAD DUP1 DUP4 SUB DUP2 DUP7 GAS STATICCALL ISZERO DUP1 ISZERO PUSH2 0x1EC0 JUMPI RETURNDATASIZE PUSH1 0x0 DUP1 RETURNDATACOPY RETURNDATASIZE PUSH1 0x0 REVERT JUMPDEST POP POP POP POP PUSH1 0x40 MLOAD RETURNDATASIZE PUSH1 0x1F NOT PUSH1 0x1F DUP3 ADD AND DUP3 ADD DUP1 PUSH1 0x40 MSTORE POP DUP2 ADD SWAP1 PUSH2 0x1EE4 SWAP2 SWAP1 PUSH2 0x3F18 JUMP JUMPDEST SWAP1 POP PUSH1 0x0 PUSH2 0x1EF4 PUSH1 0x8 PUSH1 0xA PUSH2 0x4C3C JUMP JUMPDEST DUP6 PUSH1 0x20 ADD MLOAD DUP5 DUP2 MLOAD DUP2 LT PUSH2 0x1F0A JUMPI PUSH2 0x1F0A PUSH2 0x3D87 JUMP JUMPDEST PUSH1 0x20 MUL PUSH1 0x20 ADD ADD MLOAD PUSH1 0x40 ADD MLOAD PUSH8 0xFFFFFFFFFFFFFFFF AND DUP4 PUSH2 0x1F2B SWAP2 SWAP1 PUSH2 0x4C4B JUMP JUMPDEST PUSH2 0x1F35 SWAP2 SWAP1 PUSH2 0x4C88 JUMP JUMPDEST SWAP1 POP PUSH32 0x0 PUSH20 0xFFFFFFFFFFFFFFFFFFFFFFFFFFFFFFFFFFFFFFFF AND PUSH4 0xF18D03CC DUP7 PUSH1 0x20 ADD MLOAD DUP6 DUP2 MLOAD DUP2 LT PUSH2 0x1F89 JUMPI PUSH2 0x1F89 PUSH2 0x3D87 JUMP JUMPDEST PUSH1 0x20 MUL PUSH1 0x20 ADD ADD MLOAD PUSH1 0x0 ADD MLOAD ADDRESS DUP9 PUSH1 0x20 ADD MLOAD DUP8 DUP2 MLOAD DUP2 LT PUSH2 0x1FAC JUMPI PUSH2 0x1FAC PUSH2 0x3D87 JUMP JUMPDEST PUSH1 0x20 SWAP1 DUP2 MUL SWAP2 SWAP1 SWAP2 ADD DUP2 ADD MLOAD ADD MLOAD PUSH1 0x40 MLOAD PUSH32 0xFFFFFFFF00000000000000000000000000000000000000000000000000000000 PUSH1 0xE0 DUP7 SWAP1 SHL AND DUP2 MSTORE PUSH20 0xFFFFFFFFFFFFFFFFFFFFFFFFFFFFFFFFFFFFFFFF SWAP4 DUP5 AND PUSH1 0x4 DUP3 ADD MSTORE SWAP2 DUP4 AND PUSH1 0x24 DUP4 ADD MSTORE SWAP2 SWAP1 SWAP2 AND PUSH1 0x44 DUP3 ADD MSTORE PUSH1 0x64 DUP2 ADD DUP5 SWAP1 MSTORE PUSH1 0x84 ADD PUSH1 0x0 PUSH1 0x40 MLOAD DUP1 DUP4 SUB DUP2 PUSH1 0x0 DUP8 DUP1 EXTCODESIZE ISZERO DUP1 ISZERO PUSH2 0x2038 JUMPI PUSH1 0x0 DUP1 REVERT JUMPDEST POP GAS CALL ISZERO DUP1 ISZERO PUSH2 0x204C JUMPI RETURNDATASIZE PUSH1 0x0 DUP1 RETURNDATACOPY RETURNDATASIZE PUSH1 0x0 REVERT JUMPDEST POP POP POP POP DUP5 PUSH1 0x20 ADD MLOAD DUP4 DUP2 MLOAD DUP2 LT PUSH2 0x2066 JUMPI PUSH2 0x2066 PUSH2 0x3D87 JUMP JUMPDEST PUSH1 0x20 MUL PUSH1 0x20 ADD ADD MLOAD PUSH1 0x20 ADD MLOAD PUSH20 0xFFFFFFFFFFFFFFFFFFFFFFFFFFFFFFFFFFFFFFFF AND PUSH4 0x627DD56A DUP7 PUSH1 0x20 ADD MLOAD DUP6 DUP2 MLOAD DUP2 LT PUSH2 0x20A3 JUMPI PUSH2 0x20A3 PUSH2 0x3D87 JUMP JUMPDEST PUSH1 0x20 MUL PUSH1 0x20 ADD ADD MLOAD PUSH1 0x60 ADD MLOAD PUSH1 0x40 MLOAD DUP3 PUSH4 0xFFFFFFFF AND PUSH1 0xE0 SHL DUP2 MSTORE PUSH1 0x4 ADD PUSH2 0x20CB SWAP2 SWAP1 PUSH2 0x4872 JUMP JUMPDEST PUSH1 0x20 PUSH1 0x40 MLOAD DUP1 DUP4 SUB DUP2 PUSH1 0x0 DUP8 GAS CALL ISZERO DUP1 ISZERO PUSH2 0x20EA JUMPI RETURNDATASIZE PUSH1 0x0 DUP1 RETURNDATACOPY RETURNDATASIZE PUSH1 0x0 REVERT JUMPDEST POP POP POP POP PUSH1 0x40 MLOAD RETURNDATASIZE PUSH1 0x1F NOT PUSH1 0x1F DUP3 ADD AND DUP3 ADD DUP1 PUSH1 0x40 MSTORE POP DUP2 ADD SWAP1 PUSH2 0x210E SWAP2 SWAP1 PUSH2 0x3F18 JUMP JUMPDEST POP POP POP PUSH2 0x211B DUP2 PUSH1 0x1 ADD SWAP1 JUMP JUMPDEST SWAP1 POP PUSH2 0x1DE9 JUMP JUMPDEST POP POP PUSH1 0x40 DUP2 ADD MLOAD MLOAD PUSH1 0x0 JUMPDEST DUP2 DUP2 LT ISZERO PUSH2 0x144A JUMPI PUSH1 0x0 PUSH32 0x0 PUSH20 0xFFFFFFFFFFFFFFFFFFFFFFFFFFFFFFFFFFFFFFFF AND PUSH4 0xF7888AEC DUP6 PUSH1 0x40 ADD MLOAD DUP5 DUP2 MLOAD DUP2 LT PUSH2 0x2189 JUMPI PUSH2 0x2189 PUSH2 0x3D87 JUMP JUMPDEST PUSH1 0x20 SWAP1 DUP2 MUL SWAP2 SWAP1 SWAP2 ADD ADD MLOAD MLOAD PUSH1 0x40 MLOAD PUSH32 0xFFFFFFFF00000000000000000000000000000000000000000000000000000000 PUSH1 0xE0 DUP5 SWAP1 SHL AND DUP2 MSTORE PUSH20 0xFFFFFFFFFFFFFFFFFFFFFFFFFFFFFFFFFFFFFFFF SWAP1 SWAP2 AND PUSH1 0x4 DUP3 ADD MSTORE ADDRESS PUSH1 0x24 DUP3 ADD MSTORE PUSH1 0x44 ADD PUSH1 0x20 PUSH1 0x40 MLOAD DUP1 DUP4 SUB DUP2 DUP7 GAS STATICCALL ISZERO DUP1 ISZERO PUSH2 0x2204 JUMPI RETURNDATASIZE PUSH1 0x0 DUP1 RETURNDATACOPY RETURNDATASIZE PUSH1 0x0 REVERT JUMPDEST POP POP POP POP PUSH1 0x40 MLOAD RETURNDATASIZE PUSH1 0x1F NOT PUSH1 0x1F DUP3 ADD AND DUP3 ADD DUP1 PUSH1 0x40 MSTORE POP DUP2 ADD SWAP1 PUSH2 0x2228 SWAP2 SWAP1 PUSH2 0x3F18 JUMP JUMPDEST SWAP1 POP DUP4 PUSH1 0x40 ADD MLOAD DUP3 DUP2 MLOAD DUP2 LT PUSH2 0x2240 JUMPI PUSH2 0x2240 PUSH2 0x3D87 JUMP JUMPDEST PUSH1 0x20 MUL PUSH1 0x20 ADD ADD MLOAD PUSH1 0x60 ADD MLOAD DUP2 LT ISZERO PUSH2 0x2285 JUMPI PUSH1 0x40 MLOAD PUSH32 0xC9F52C7100000000000000000000000000000000000000000000000000000000 DUP2 MSTORE PUSH1 0x4 ADD PUSH1 0x40 MLOAD DUP1 SWAP2 SUB SWAP1 REVERT JUMPDEST DUP4 PUSH1 0x40 ADD MLOAD DUP3 DUP2 MLOAD DUP2 LT PUSH2 0x229B JUMPI PUSH2 0x229B PUSH2 0x3D87 JUMP JUMPDEST PUSH1 0x20 MUL PUSH1 0x20 ADD ADD MLOAD PUSH1 0x40 ADD MLOAD ISZERO PUSH2 0x23E3 JUMPI PUSH32 0x0 PUSH20 0xFFFFFFFFFFFFFFFFFFFFFFFFFFFFFFFFFFFFFFFF AND PUSH4 0x97DA6D30 DUP6 PUSH1 0x40 ADD MLOAD DUP5 DUP2 MLOAD DUP2 LT PUSH2 0x22FE JUMPI PUSH2 0x22FE PUSH2 0x3D87 JUMP JUMPDEST PUSH1 0x20 MUL PUSH1 0x20 ADD ADD MLOAD PUSH1 0x0 ADD MLOAD ADDRESS DUP8 PUSH1 0x40 ADD MLOAD DUP7 DUP2 MLOAD DUP2 LT PUSH2 0x2321 JUMPI PUSH2 0x2321 PUSH2 0x3D87 JUMP JUMPDEST PUSH1 0x20 SWAP1 DUP2 MUL SWAP2 SWAP1 SWAP2 ADD DUP2 ADD MLOAD ADD MLOAD PUSH1 0x40 MLOAD PUSH32 0xFFFFFFFF00000000000000000000000000000000000000000000000000000000 PUSH1 0xE0 DUP7 SWAP1 SHL AND DUP2 MSTORE PUSH20 0xFFFFFFFFFFFFFFFFFFFFFFFFFFFFFFFFFFFFFFFF SWAP4 DUP5 AND PUSH1 0x4 DUP3 ADD MSTORE SWAP2 DUP4 AND PUSH1 0x24 DUP4 ADD MSTORE SWAP2 SWAP1 SWAP2 AND PUSH1 0x44 DUP3 ADD MSTORE PUSH1 0x0 PUSH1 0x64 DUP3 ADD MSTORE PUSH1 0x84 DUP2 ADD DUP5 SWAP1 MSTORE PUSH1 0xA4 ADD PUSH1 0x40 DUP1 MLOAD DUP1 DUP4 SUB DUP2 PUSH1 0x0 DUP8 GAS CALL ISZERO DUP1 ISZERO PUSH2 0x23B8 JUMPI RETURNDATASIZE PUSH1 0x0 DUP1 RETURNDATACOPY RETURNDATASIZE PUSH1 0x0 REVERT JUMPDEST POP POP POP POP PUSH1 0x40 MLOAD RETURNDATASIZE PUSH1 0x1F NOT PUSH1 0x1F DUP3 ADD AND DUP3 ADD DUP1 PUSH1 0x40 MSTORE POP DUP2 ADD SWAP1 PUSH2 0x23DC SWAP2 SWAP1 PUSH2 0x4906 JUMP JUMPDEST POP POP PUSH2 0x24FD JUMP JUMPDEST PUSH32 0x0 PUSH20 0xFFFFFFFFFFFFFFFFFFFFFFFFFFFFFFFFFFFFFFFF AND PUSH4 0xF18D03CC DUP6 PUSH1 0x40 ADD MLOAD DUP5 DUP2 MLOAD DUP2 LT PUSH2 0x2435 JUMPI PUSH2 0x2435 PUSH2 0x3D87 JUMP JUMPDEST PUSH1 0x20 MUL PUSH1 0x20 ADD ADD MLOAD PUSH1 0x0 ADD MLOAD ADDRESS DUP8 PUSH1 0x40 ADD MLOAD DUP7 DUP2 MLOAD DUP2 LT PUSH2 0x2458 JUMPI PUSH2 0x2458 PUSH2 0x3D87 JUMP JUMPDEST PUSH1 0x20 SWAP1 DUP2 MUL SWAP2 SWAP1 SWAP2 ADD DUP2 ADD MLOAD ADD MLOAD PUSH1 0x40 MLOAD PUSH32 0xFFFFFFFF00000000000000000000000000000000000000000000000000000000 PUSH1 0xE0 DUP7 SWAP1 SHL AND DUP2 MSTORE PUSH20 0xFFFFFFFFFFFFFFFFFFFFFFFFFFFFFFFFFFFFFFFF SWAP4 DUP5 AND PUSH1 0x4 DUP3 ADD MSTORE SWAP2 DUP4 AND PUSH1 0x24 DUP4 ADD MSTORE SWAP2 SWAP1 SWAP2 AND PUSH1 0x44 DUP3 ADD MSTORE PUSH1 0x64 DUP2 ADD DUP5 SWAP1 MSTORE PUSH1 0x84 ADD PUSH1 0x0 PUSH1 0x40 MLOAD DUP1 DUP4 SUB DUP2 PUSH1 0x0 DUP8 DUP1 EXTCODESIZE ISZERO DUP1 ISZERO PUSH2 0x24E4 JUMPI PUSH1 0x0 DUP1 REVERT JUMPDEST POP GAS CALL ISZERO DUP1 ISZERO PUSH2 0x24F8 JUMPI RETURNDATASIZE PUSH1 0x0 DUP1 RETURNDATACOPY RETURNDATASIZE PUSH1 0x0 REVERT JUMPDEST POP POP POP POP JUMPDEST POP PUSH1 0x1 ADD PUSH2 0x212D JUMP JUMPDEST PUSH1 0x0 DUP5 PUSH2 0x100 ADD MLOAD DUP5 DUP5 DUP5 DUP9 PUSH2 0x140 ADD MLOAD PUSH1 0x40 MLOAD PUSH1 0x20 ADD PUSH2 0x252B SWAP6 SWAP5 SWAP4 SWAP3 SWAP2 SWAP1 PUSH2 0x4CC3 JUMP JUMPDEST PUSH1 0x40 MLOAD PUSH1 0x20 DUP2 DUP4 SUB SUB DUP2 MSTORE SWAP1 PUSH1 0x40 MSTORE SWAP1 POP PUSH3 0x186A0 DUP6 PUSH2 0x120 ADD MLOAD LT ISZERO PUSH2 0x257E JUMPI PUSH1 0x40 MLOAD PUSH32 0x1C26714C00000000000000000000000000000000000000000000000000000000 DUP2 MSTORE PUSH1 0x4 ADD PUSH1 0x40 MLOAD DUP1 SWAP2 SUB SWAP1 REVERT JUMPDEST PUSH32 0x0 PUSH20 0xFFFFFFFFFFFFFFFFFFFFFFFFFFFFFFFFFFFFFFFF AND PUSH4 0x9FBF10FC SELFBALANCE DUP8 PUSH1 0x0 ADD MLOAD DUP9 PUSH1 0x40 ADD MLOAD DUP10 PUSH1 0x60 ADD MLOAD CALLER DUP12 PUSH1 0x80 ADD MLOAD PUSH1 0x0 EQ ISZERO PUSH2 0x2671 JUMPI PUSH1 0x20 DUP13 ADD MLOAD PUSH1 0x40 MLOAD PUSH32 0x70A0823100000000000000000000000000000000000000000000000000000000 DUP2 MSTORE ADDRESS PUSH1 0x4 DUP3 ADD MSTORE PUSH20 0xFFFFFFFFFFFFFFFFFFFFFFFFFFFFFFFFFFFFFFFF SWAP1 SWAP2 AND SWAP1 PUSH4 0x70A08231 SWAP1 PUSH1 0x24 ADD PUSH1 0x20 PUSH1 0x40 MLOAD DUP1 DUP4 SUB DUP2 DUP7 GAS STATICCALL ISZERO DUP1 ISZERO PUSH2 0x2648 JUMPI RETURNDATASIZE PUSH1 0x0 DUP1 RETURNDATACOPY RETURNDATASIZE PUSH1 0x0 REVERT JUMPDEST POP POP POP POP PUSH1 0x40 MLOAD RETURNDATASIZE PUSH1 0x1F NOT PUSH1 0x1F DUP3 ADD AND DUP3 ADD DUP1 PUSH1 0x40 MSTORE POP DUP2 ADD SWAP1 PUSH2 0x266C SWAP2 SWAP1 PUSH2 0x3F18 JUMP JUMPDEST PUSH2 0x2677 JUMP JUMPDEST DUP12 PUSH1 0x80 ADD MLOAD JUMPDEST DUP13 PUSH1 0xA0 ADD MLOAD PUSH1 0x40 MLOAD DUP1 PUSH1 0x60 ADD PUSH1 0x40 MSTORE DUP1 DUP16 PUSH2 0x120 ADD MLOAD DUP2 MSTORE PUSH1 0x20 ADD DUP16 PUSH1 0xC0 ADD MLOAD DUP2 MSTORE PUSH1 0x20 ADD DUP16 PUSH1 0xE0 ADD MLOAD PUSH1 0x40 MLOAD PUSH1 0x20 ADD PUSH2 0x26DC SWAP2 SWAP1 PUSH1 0x60 SWAP2 SWAP1 SWAP2 SHL PUSH32 0xFFFFFFFFFFFFFFFFFFFFFFFFFFFFFFFFFFFFFFFF000000000000000000000000 AND DUP2 MSTORE PUSH1 0x14 ADD SWAP1 JUMP JUMPDEST PUSH1 0x40 MLOAD PUSH1 0x20 DUP2 DUP4 SUB SUB DUP2 MSTORE SWAP1 PUSH1 0x40 MSTORE DUP2 MSTORE POP DUP15 PUSH1 0xE0 ADD MLOAD PUSH1 0x40 MLOAD PUSH1 0x20 ADD PUSH2 0x272E SWAP2 SWAP1 PUSH1 0x60 SWAP2 SWAP1 SWAP2 SHL PUSH32 0xFFFFFFFFFFFFFFFFFFFFFFFFFFFFFFFFFFFFFFFF000000000000000000000000 AND DUP2 MSTORE PUSH1 0x14 ADD SWAP1 JUMP JUMPDEST PUSH1 0x40 MLOAD PUSH1 0x20 DUP2 DUP4 SUB SUB DUP2 MSTORE SWAP1 PUSH1 0x40 MSTORE DUP12 PUSH1 0x40 MLOAD DUP12 PUSH4 0xFFFFFFFF AND PUSH1 0xE0 SHL DUP2 MSTORE PUSH1 0x4 ADD PUSH2 0x2762 SWAP10 SWAP9 SWAP8 SWAP7 SWAP6 SWAP5 SWAP4 SWAP3 SWAP2 SWAP1 PUSH2 0x4D2B JUMP JUMPDEST PUSH1 0x0 PUSH1 0x40 MLOAD DUP1 DUP4 SUB DUP2 DUP6 DUP9 DUP1 EXTCODESIZE ISZERO DUP1 ISZERO PUSH2 0x277B JUMPI PUSH1 0x0 DUP1 REVERT JUMPDEST POP GAS CALL ISZERO DUP1 ISZERO PUSH2 0x278F JUMPI RETURNDATASIZE PUSH1 0x0 DUP1 RETURNDATACOPY RETURNDATASIZE PUSH1 0x0 REVERT JUMPDEST POP POP PUSH1 0x40 MLOAD PUSH32 0xA87376E900000000000000000000000000000000000000000000000000000000 DUP2 MSTORE PUSH31 0x1000000000000000000000000000000000000000000000000000000000000 PUSH1 0x4 DUP3 ADD MSTORE PUSH32 0x0 PUSH20 0xFFFFFFFFFFFFFFFFFFFFFFFFFFFFFFFFFFFFFFFF AND SWAP4 POP PUSH4 0xA87376E9 SWAP3 POP PUSH1 0x24 ADD SWAP1 POP PUSH1 0x0 PUSH1 0x40 MLOAD DUP1 DUP4 SUB DUP2 PUSH1 0x0 DUP8 DUP1 EXTCODESIZE ISZERO DUP1 ISZERO PUSH2 0x283B JUMPI PUSH1 0x0 DUP1 REVERT JUMPDEST POP GAS CALL ISZERO DUP1 ISZERO PUSH2 0x284F JUMPI RETURNDATASIZE PUSH1 0x0 DUP1 RETURNDATACOPY RETURNDATASIZE PUSH1 0x0 REVERT JUMPDEST POP POP POP POP PUSH2 0x140 DUP6 ADD MLOAD PUSH1 0x40 MLOAD PUSH32 0xEF89F27CAD105CFE7C63F4A5C70E6B1392B571FF544A83DE4BF71CEB46BACFEE SWAP1 PUSH1 0x0 SWAP1 LOG2 POP POP POP POP POP JUMP JUMPDEST PUSH1 0x40 MLOAD PUSH20 0xFFFFFFFFFFFFFFFFFFFFFFFFFFFFFFFFFFFFFFFF DUP4 AND PUSH1 0x24 DUP3 ADD MSTORE PUSH1 0x44 DUP2 ADD DUP3 SWAP1 MSTORE PUSH2 0x144A SWAP1 DUP5 SWAP1 PUSH32 0xA9059CBB00000000000000000000000000000000000000000000000000000000 SWAP1 PUSH1 0x64 ADD JUMPDEST PUSH1 0x40 DUP1 MLOAD PUSH32 0xFFFFFFFFFFFFFFFFFFFFFFFFFFFFFFFFFFFFFFFFFFFFFFFFFFFFFFFFFFFFFFE0 DUP2 DUP5 SUB ADD DUP2 MSTORE SWAP2 SWAP1 MSTORE PUSH1 0x20 DUP2 ADD DUP1 MLOAD PUSH28 0xFFFFFFFFFFFFFFFFFFFFFFFFFFFFFFFFFFFFFFFFFFFFFFFFFFFFFFFF AND PUSH32 0xFFFFFFFF00000000000000000000000000000000000000000000000000000000 SWAP1 SWAP4 AND SWAP3 SWAP1 SWAP3 OR SWAP1 SWAP2 MSTORE PUSH2 0x303B JUMP JUMPDEST DUP1 ISZERO DUP1 PUSH2 0x29FD JUMPI POP PUSH1 0x40 MLOAD PUSH32 0xDD62ED3E00000000000000000000000000000000000000000000000000000000 DUP2 MSTORE ADDRESS PUSH1 0x4 DUP3 ADD MSTORE PUSH20 0xFFFFFFFFFFFFFFFFFFFFFFFFFFFFFFFFFFFFFFFF DUP4 DUP2 AND PUSH1 0x24 DUP4 ADD MSTORE DUP5 AND SWAP1 PUSH4 0xDD62ED3E SWAP1 PUSH1 0x44 ADD PUSH1 0x20 PUSH1 0x40 MLOAD DUP1 DUP4 SUB DUP2 DUP7 GAS STATICCALL ISZERO DUP1 ISZERO PUSH2 0x29D7 JUMPI RETURNDATASIZE PUSH1 0x0 DUP1 RETURNDATACOPY RETURNDATASIZE PUSH1 0x0 REVERT JUMPDEST POP POP POP POP PUSH1 0x40 MLOAD RETURNDATASIZE PUSH1 0x1F NOT PUSH1 0x1F DUP3 ADD AND DUP3 ADD DUP1 PUSH1 0x40 MSTORE POP DUP2 ADD SWAP1 PUSH2 0x29FB SWAP2 SWAP1 PUSH2 0x3F18 JUMP JUMPDEST ISZERO JUMPDEST PUSH2 0x2A89 JUMPI PUSH1 0x40 MLOAD PUSH32 0x8C379A000000000000000000000000000000000000000000000000000000000 DUP2 MSTORE PUSH1 0x20 PUSH1 0x4 DUP3 ADD MSTORE PUSH1 0x36 PUSH1 0x24 DUP3 ADD MSTORE PUSH32 0x5361666545524332303A20617070726F76652066726F6D206E6F6E2D7A65726F PUSH1 0x44 DUP3 ADD MSTORE PUSH32 0x20746F206E6F6E2D7A65726F20616C6C6F77616E636500000000000000000000 PUSH1 0x64 DUP3 ADD MSTORE PUSH1 0x84 ADD PUSH2 0x1710 JUMP JUMPDEST PUSH1 0x40 MLOAD PUSH20 0xFFFFFFFFFFFFFFFFFFFFFFFFFFFFFFFFFFFFFFFF DUP4 AND PUSH1 0x24 DUP3 ADD MSTORE PUSH1 0x44 DUP2 ADD DUP3 SWAP1 MSTORE PUSH2 0x144A SWAP1 DUP5 SWAP1 PUSH32 0x95EA7B300000000000000000000000000000000000000000000000000000000 SWAP1 PUSH1 0x64 ADD PUSH2 0x28DB JUMP JUMPDEST PUSH1 0x40 MLOAD PUSH20 0xFFFFFFFFFFFFFFFFFFFFFFFFFFFFFFFFFFFFFFFF DUP1 DUP6 AND PUSH1 0x24 DUP4 ADD MSTORE DUP4 AND PUSH1 0x44 DUP3 ADD MSTORE PUSH1 0x64 DUP2 ADD DUP3 SWAP1 MSTORE PUSH2 0x14CF SWAP1 DUP6 SWAP1 PUSH32 0x23B872DD00000000000000000000000000000000000000000000000000000000 SWAP1 PUSH1 0x84 ADD PUSH2 0x28DB JUMP JUMPDEST PUSH1 0x60 PUSH1 0x2 DUP4 MLOAD LT ISZERO PUSH2 0x2BAB JUMPI PUSH1 0x40 MLOAD PUSH32 0x8C379A000000000000000000000000000000000000000000000000000000000 DUP2 MSTORE PUSH1 0x20 PUSH1 0x4 DUP3 ADD MSTORE PUSH1 0x1E PUSH1 0x24 DUP3 ADD MSTORE PUSH32 0x556E697377617056324C6962726172793A20494E56414C49445F504154480000 PUSH1 0x44 DUP3 ADD MSTORE PUSH1 0x64 ADD PUSH2 0x1710 JUMP JUMPDEST DUP3 MLOAD PUSH8 0xFFFFFFFFFFFFFFFF DUP2 GT ISZERO PUSH2 0x2BC5 JUMPI PUSH2 0x2BC5 PUSH2 0x384B JUMP JUMPDEST PUSH1 0x40 MLOAD SWAP1 DUP1 DUP3 MSTORE DUP1 PUSH1 0x20 MUL PUSH1 0x20 ADD DUP3 ADD PUSH1 0x40 MSTORE DUP1 ISZERO PUSH2 0x2BEE JUMPI DUP2 PUSH1 0x20 ADD PUSH1 0x20 DUP3 MUL DUP1 CALLDATASIZE DUP4 CALLDATACOPY ADD SWAP1 POP JUMPDEST POP SWAP1 POP DUP4 DUP2 PUSH1 0x0 DUP2 MLOAD DUP2 LT PUSH2 0x2C05 JUMPI PUSH2 0x2C05 PUSH2 0x3D87 JUMP JUMPDEST PUSH1 0x20 MUL PUSH1 0x20 ADD ADD DUP2 DUP2 MSTORE POP POP PUSH1 0x0 JUMPDEST PUSH1 0x1 DUP5 MLOAD PUSH2 0x2C22 SWAP2 SWAP1 PUSH2 0x49FF JUMP JUMPDEST DUP2 LT ISZERO PUSH2 0x2CDB JUMPI PUSH1 0x0 DUP1 PUSH2 0x2C76 DUP9 DUP8 DUP6 DUP2 MLOAD DUP2 LT PUSH2 0x2C42 JUMPI PUSH2 0x2C42 PUSH2 0x3D87 JUMP JUMPDEST PUSH1 0x20 MUL PUSH1 0x20 ADD ADD MLOAD DUP9 DUP7 PUSH1 0x1 PUSH2 0x2C58 SWAP2 SWAP1 PUSH2 0x4DB6 JUMP JUMPDEST DUP2 MLOAD DUP2 LT PUSH2 0x2C68 JUMPI PUSH2 0x2C68 PUSH2 0x3D87 JUMP JUMPDEST PUSH1 0x20 MUL PUSH1 0x20 ADD ADD MLOAD DUP9 PUSH2 0x3147 JUMP JUMPDEST SWAP2 POP SWAP2 POP PUSH2 0x2C9E DUP5 DUP5 DUP2 MLOAD DUP2 LT PUSH2 0x2C8F JUMPI PUSH2 0x2C8F PUSH2 0x3D87 JUMP JUMPDEST PUSH1 0x20 MUL PUSH1 0x20 ADD ADD MLOAD DUP4 DUP4 PUSH2 0x3248 JUMP JUMPDEST DUP5 PUSH2 0x2CAA DUP6 PUSH1 0x1 PUSH2 0x4DB6 JUMP JUMPDEST DUP2 MLOAD DUP2 LT PUSH2 0x2CBA JUMPI PUSH2 0x2CBA PUSH2 0x3D87 JUMP JUMPDEST PUSH1 0x20 MUL PUSH1 0x20 ADD ADD DUP2 DUP2 MSTORE POP POP POP POP DUP1 DUP1 PUSH2 0x2CD3 SWAP1 PUSH2 0x4DCE JUMP JUMPDEST SWAP2 POP POP PUSH2 0x2C14 JUMP JUMPDEST POP SWAP5 SWAP4 POP POP POP POP JUMP JUMPDEST PUSH1 0x0 DUP1 PUSH1 0x0 PUSH2 0x2CF3 DUP7 DUP7 PUSH2 0x33C2 JUMP JUMPDEST PUSH1 0x40 MLOAD PUSH32 0xFFFFFFFFFFFFFFFFFFFFFFFFFFFFFFFFFFFFFFFF000000000000000000000000 PUSH1 0x60 DUP5 DUP2 SHL DUP3 AND PUSH1 0x20 DUP5 ADD MSTORE DUP4 SWAP1 SHL AND PUSH1 0x34 DUP3 ADD MSTORE SWAP2 SWAP4 POP SWAP2 POP DUP8 SWAP1 PUSH1 0x48 ADD PUSH1 0x40 MLOAD PUSH1 0x20 DUP2 DUP4 SUB SUB DUP2 MSTORE SWAP1 PUSH1 0x40 MSTORE DUP1 MLOAD SWAP1 PUSH1 0x20 ADD KECCAK256 DUP6 PUSH1 0x40 MLOAD PUSH1 0x20 ADD PUSH2 0x2DBD SWAP4 SWAP3 SWAP2 SWAP1 PUSH32 0xFF00000000000000000000000000000000000000000000000000000000000000 DUP2 MSTORE PUSH1 0x60 SWAP4 SWAP1 SWAP4 SHL PUSH32 0xFFFFFFFFFFFFFFFFFFFFFFFFFFFFFFFFFFFFFFFF000000000000000000000000 AND PUSH1 0x1 DUP5 ADD MSTORE PUSH1 0x15 DUP4 ADD SWAP2 SWAP1 SWAP2 MSTORE PUSH1 0x35 DUP3 ADD MSTORE PUSH1 0x55 ADD SWAP1 JUMP JUMPDEST PUSH1 0x40 DUP1 MLOAD PUSH32 0xFFFFFFFFFFFFFFFFFFFFFFFFFFFFFFFFFFFFFFFFFFFFFFFFFFFFFFFFFFFFFFE0 DUP2 DUP5 SUB ADD DUP2 MSTORE SWAP2 SWAP1 MSTORE DUP1 MLOAD PUSH1 0x20 SWAP1 SWAP2 ADD KECCAK256 SWAP8 SWAP7 POP POP POP POP POP POP POP JUMP JUMPDEST PUSH1 0x0 JUMPDEST PUSH1 0x1 DUP4 MLOAD PUSH2 0x2E0F SWAP2 SWAP1 PUSH2 0x49FF JUMP JUMPDEST DUP2 LT ISZERO PUSH2 0x14CF JUMPI PUSH1 0x0 DUP1 DUP5 DUP4 DUP2 MLOAD DUP2 LT PUSH2 0x2E2B JUMPI PUSH2 0x2E2B PUSH2 0x3D87 JUMP JUMPDEST PUSH1 0x20 MUL PUSH1 0x20 ADD ADD MLOAD DUP6 DUP5 PUSH1 0x1 PUSH2 0x2E41 SWAP2 SWAP1 PUSH2 0x4DB6 JUMP JUMPDEST DUP2 MLOAD DUP2 LT PUSH2 0x2E51 JUMPI PUSH2 0x2E51 PUSH2 0x3D87 JUMP JUMPDEST PUSH1 0x20 MUL PUSH1 0x20 ADD ADD MLOAD SWAP2 POP SWAP2 POP PUSH1 0x0 PUSH2 0x2E69 DUP4 DUP4 PUSH2 0x33C2 JUMP JUMPDEST POP SWAP1 POP PUSH1 0x0 DUP8 PUSH2 0x2E7A DUP7 PUSH1 0x1 PUSH2 0x4DB6 JUMP JUMPDEST DUP2 MLOAD DUP2 LT PUSH2 0x2E8A JUMPI PUSH2 0x2E8A PUSH2 0x3D87 JUMP JUMPDEST PUSH1 0x20 MUL PUSH1 0x20 ADD ADD MLOAD SWAP1 POP PUSH1 0x0 DUP1 DUP4 PUSH20 0xFFFFFFFFFFFFFFFFFFFFFFFFFFFFFFFFFFFFFFFF AND DUP7 PUSH20 0xFFFFFFFFFFFFFFFFFFFFFFFFFFFFFFFFFFFFFFFF AND EQ PUSH2 0x2ED2 JUMPI DUP3 PUSH1 0x0 PUSH2 0x2ED6 JUMP JUMPDEST PUSH1 0x0 DUP4 JUMPDEST SWAP2 POP SWAP2 POP PUSH1 0x0 PUSH1 0x2 DUP11 MLOAD PUSH2 0x2EEA SWAP2 SWAP1 PUSH2 0x49FF JUMP JUMPDEST DUP9 LT PUSH2 0x2EF6 JUMPI DUP9 PUSH2 0x2F37 JUMP JUMPDEST PUSH2 0x2F37 PUSH32 0x0 DUP8 DUP13 PUSH2 0x2F27 DUP13 PUSH1 0x2 PUSH2 0x4DB6 JUMP JUMPDEST DUP2 MLOAD DUP2 LT PUSH2 0x1774 JUMPI PUSH2 0x1774 PUSH2 0x3D87 JUMP JUMPDEST SWAP1 POP PUSH2 0x2F85 PUSH32 0x0 DUP9 DUP9 PUSH32 0x0 PUSH2 0x2CE4 JUMP JUMPDEST PUSH20 0xFFFFFFFFFFFFFFFFFFFFFFFFFFFFFFFFFFFFFFFF AND PUSH4 0x22C0D9F DUP5 DUP5 DUP5 PUSH1 0x0 PUSH1 0x40 MLOAD SWAP1 DUP1 DUP3 MSTORE DUP1 PUSH1 0x1F ADD PUSH1 0x1F NOT AND PUSH1 0x20 ADD DUP3 ADD PUSH1 0x40 MSTORE DUP1 ISZERO PUSH2 0x2FCF JUMPI PUSH1 0x20 DUP3 ADD DUP2 DUP1 CALLDATASIZE DUP4 CALLDATACOPY ADD SWAP1 POP JUMPDEST POP PUSH1 0x40 MLOAD DUP6 PUSH4 0xFFFFFFFF AND PUSH1 0xE0 SHL DUP2 MSTORE PUSH1 0x4 ADD PUSH2 0x2FEF SWAP5 SWAP4 SWAP3 SWAP2 SWAP1 PUSH2 0x4E07 JUMP JUMPDEST PUSH1 0x0 PUSH1 0x40 MLOAD DUP1 DUP4 SUB DUP2 PUSH1 0x0 DUP8 DUP1 EXTCODESIZE ISZERO DUP1 ISZERO PUSH2 0x3009 JUMPI PUSH1 0x0 DUP1 REVERT JUMPDEST POP GAS CALL ISZERO DUP1 ISZERO PUSH2 0x301D JUMPI RETURNDATASIZE PUSH1 0x0 DUP1 RETURNDATACOPY RETURNDATASIZE PUSH1 0x0 REVERT JUMPDEST POP POP POP POP POP POP POP POP POP POP POP DUP1 DUP1 PUSH2 0x3033 SWAP1 PUSH2 0x4DCE JUMP JUMPDEST SWAP2 POP POP PUSH2 0x2E01 JUMP JUMPDEST PUSH1 0x0 PUSH2 0x309D DUP3 PUSH1 0x40 MLOAD DUP1 PUSH1 0x40 ADD PUSH1 0x40 MSTORE DUP1 PUSH1 0x20 DUP2 MSTORE PUSH1 0x20 ADD PUSH32 0x5361666545524332303A206C6F772D6C6576656C2063616C6C206661696C6564 DUP2 MSTORE POP DUP6 PUSH20 0xFFFFFFFFFFFFFFFFFFFFFFFFFFFFFFFFFFFFFFFF AND PUSH2 0x3547 SWAP1 SWAP3 SWAP2 SWAP1 PUSH4 0xFFFFFFFF AND JUMP JUMPDEST DUP1 MLOAD SWAP1 SWAP2 POP ISZERO PUSH2 0x144A JUMPI DUP1 DUP1 PUSH1 0x20 ADD SWAP1 MLOAD DUP2 ADD SWAP1 PUSH2 0x30BB SWAP2 SWAP1 PUSH2 0x4E42 JUMP JUMPDEST PUSH2 0x144A JUMPI PUSH1 0x40 MLOAD PUSH32 0x8C379A000000000000000000000000000000000000000000000000000000000 DUP2 MSTORE PUSH1 0x20 PUSH1 0x4 DUP3 ADD MSTORE PUSH1 0x2A PUSH1 0x24 DUP3 ADD MSTORE PUSH32 0x5361666545524332303A204552433230206F7065726174696F6E20646964206E PUSH1 0x44 DUP3 ADD MSTORE PUSH32 0x6F74207375636365656400000000000000000000000000000000000000000000 PUSH1 0x64 DUP3 ADD MSTORE PUSH1 0x84 ADD PUSH2 0x1710 JUMP JUMPDEST PUSH1 0x0 DUP1 PUSH1 0x0 PUSH2 0x3156 DUP7 DUP7 PUSH2 0x33C2 JUMP JUMPDEST POP SWAP1 POP PUSH1 0x0 DUP1 PUSH2 0x3168 DUP10 DUP10 DUP10 DUP10 PUSH2 0x2CE4 JUMP JUMPDEST PUSH20 0xFFFFFFFFFFFFFFFFFFFFFFFFFFFFFFFFFFFFFFFF AND PUSH4 0x902F1AC PUSH1 0x40 MLOAD DUP2 PUSH4 0xFFFFFFFF AND PUSH1 0xE0 SHL DUP2 MSTORE PUSH1 0x4 ADD PUSH1 0x60 PUSH1 0x40 MLOAD DUP1 DUP4 SUB DUP2 DUP7 GAS STATICCALL ISZERO DUP1 ISZERO PUSH2 0x31B2 JUMPI RETURNDATASIZE PUSH1 0x0 DUP1 RETURNDATACOPY RETURNDATASIZE PUSH1 0x0 REVERT JUMPDEST POP POP POP POP PUSH1 0x40 MLOAD RETURNDATASIZE PUSH1 0x1F NOT PUSH1 0x1F DUP3 ADD AND DUP3 ADD DUP1 PUSH1 0x40 MSTORE POP DUP2 ADD SWAP1 PUSH2 0x31D6 SWAP2 SWAP1 PUSH2 0x4E7B JUMP JUMPDEST POP PUSH14 0xFFFFFFFFFFFFFFFFFFFFFFFFFFFF AND SWAP2 POP PUSH14 0xFFFFFFFFFFFFFFFFFFFFFFFFFFFF AND SWAP2 POP DUP3 PUSH20 0xFFFFFFFFFFFFFFFFFFFFFFFFFFFFFFFFFFFFFFFF AND DUP9 PUSH20 0xFFFFFFFFFFFFFFFFFFFFFFFFFFFFFFFFFFFFFFFF AND EQ PUSH2 0x3235 JUMPI DUP1 DUP3 PUSH2 0x3238 JUMP JUMPDEST DUP2 DUP2 JUMPDEST SWAP1 SWAP11 SWAP1 SWAP10 POP SWAP8 POP POP POP POP POP POP POP POP JUMP JUMPDEST PUSH1 0x0 DUP1 DUP5 GT PUSH2 0x32D9 JUMPI PUSH1 0x40 MLOAD PUSH32 0x8C379A000000000000000000000000000000000000000000000000000000000 DUP2 MSTORE PUSH1 0x20 PUSH1 0x4 DUP3 ADD MSTORE PUSH1 0x2B PUSH1 0x24 DUP3 ADD MSTORE PUSH32 0x556E697377617056324C6962726172793A20494E53554646494349454E545F49 PUSH1 0x44 DUP3 ADD MSTORE PUSH32 0x4E5055545F414D4F554E54000000000000000000000000000000000000000000 PUSH1 0x64 DUP3 ADD MSTORE PUSH1 0x84 ADD PUSH2 0x1710 JUMP JUMPDEST PUSH1 0x0 DUP4 GT DUP1 ISZERO PUSH2 0x32E9 JUMPI POP PUSH1 0x0 DUP3 GT JUMPDEST PUSH2 0x3375 JUMPI PUSH1 0x40 MLOAD PUSH32 0x8C379A000000000000000000000000000000000000000000000000000000000 DUP2 MSTORE PUSH1 0x20 PUSH1 0x4 DUP3 ADD MSTORE PUSH1 0x28 PUSH1 0x24 DUP3 ADD MSTORE PUSH32 0x556E697377617056324C6962726172793A20494E53554646494349454E545F4C PUSH1 0x44 DUP3 ADD MSTORE PUSH32 0x4951554944495459000000000000000000000000000000000000000000000000 PUSH1 0x64 DUP3 ADD MSTORE PUSH1 0x84 ADD PUSH2 0x1710 JUMP JUMPDEST PUSH1 0x0 PUSH2 0x3383 DUP6 PUSH2 0x3E5 PUSH2 0x355E JUMP JUMPDEST SWAP1 POP PUSH1 0x0 PUSH2 0x3391 DUP3 DUP6 PUSH2 0x355E JUMP JUMPDEST SWAP1 POP PUSH1 0x0 PUSH2 0x33AB DUP4 PUSH2 0x33A5 DUP9 PUSH2 0x3E8 PUSH2 0x355E JUMP JUMPDEST SWAP1 PUSH2 0x35EE JUMP JUMPDEST SWAP1 POP PUSH2 0x33B7 DUP2 DUP4 PUSH2 0x4C88 JUMP JUMPDEST SWAP8 SWAP7 POP POP POP POP POP POP POP JUMP JUMPDEST PUSH1 0x0 DUP1 DUP3 PUSH20 0xFFFFFFFFFFFFFFFFFFFFFFFFFFFFFFFFFFFFFFFF AND DUP5 PUSH20 0xFFFFFFFFFFFFFFFFFFFFFFFFFFFFFFFFFFFFFFFF AND EQ ISZERO PUSH2 0x3481 JUMPI PUSH1 0x40 MLOAD PUSH32 0x8C379A000000000000000000000000000000000000000000000000000000000 DUP2 MSTORE PUSH1 0x20 PUSH1 0x4 DUP3 ADD MSTORE PUSH1 0x25 PUSH1 0x24 DUP3 ADD MSTORE PUSH32 0x556E697377617056324C6962726172793A204944454E544943414C5F41444452 PUSH1 0x44 DUP3 ADD MSTORE PUSH32 0x4553534553000000000000000000000000000000000000000000000000000000 PUSH1 0x64 DUP3 ADD MSTORE PUSH1 0x84 ADD PUSH2 0x1710 JUMP JUMPDEST DUP3 PUSH20 0xFFFFFFFFFFFFFFFFFFFFFFFFFFFFFFFFFFFFFFFF AND DUP5 PUSH20 0xFFFFFFFFFFFFFFFFFFFFFFFFFFFFFFFFFFFFFFFF AND LT PUSH2 0x34BB JUMPI DUP3 DUP5 PUSH2 0x34BE JUMP JUMPDEST DUP4 DUP4 JUMPDEST SWAP1 SWAP3 POP SWAP1 POP PUSH20 0xFFFFFFFFFFFFFFFFFFFFFFFFFFFFFFFFFFFFFFFF DUP3 AND PUSH2 0x3540 JUMPI PUSH1 0x40 MLOAD PUSH32 0x8C379A000000000000000000000000000000000000000000000000000000000 DUP2 MSTORE PUSH1 0x20 PUSH1 0x4 DUP3 ADD MSTORE PUSH1 0x1E PUSH1 0x24 DUP3 ADD MSTORE PUSH32 0x556E697377617056324C6962726172793A205A45524F5F414444524553530000 PUSH1 0x44 DUP3 ADD MSTORE PUSH1 0x64 ADD PUSH2 0x1710 JUMP JUMPDEST SWAP3 POP SWAP3 SWAP1 POP JUMP JUMPDEST PUSH1 0x60 PUSH2 0x3556 DUP5 DUP5 PUSH1 0x0 DUP6 PUSH2 0x3666 JUMP JUMPDEST SWAP5 SWAP4 POP POP POP POP JUMP JUMPDEST PUSH1 0x0 DUP2 ISZERO DUP1 PUSH2 0x3582 JUMPI POP DUP3 DUP3 PUSH2 0x3574 DUP2 DUP4 PUSH2 0x4C4B JUMP JUMPDEST SWAP3 POP PUSH2 0x3580 SWAP1 DUP4 PUSH2 0x4C88 JUMP JUMPDEST EQ JUMPDEST PUSH2 0x35E8 JUMPI PUSH1 0x40 MLOAD PUSH32 0x8C379A000000000000000000000000000000000000000000000000000000000 DUP2 MSTORE PUSH1 0x20 PUSH1 0x4 DUP3 ADD MSTORE PUSH1 0x14 PUSH1 0x24 DUP3 ADD MSTORE PUSH32 0x64732D6D6174682D6D756C2D6F766572666C6F77000000000000000000000000 PUSH1 0x44 DUP3 ADD MSTORE PUSH1 0x64 ADD PUSH2 0x1710 JUMP JUMPDEST SWAP3 SWAP2 POP POP JUMP JUMPDEST PUSH1 0x0 DUP3 PUSH2 0x35FB DUP4 DUP3 PUSH2 0x4DB6 JUMP JUMPDEST SWAP2 POP DUP2 LT ISZERO PUSH2 0x35E8 JUMPI PUSH1 0x40 MLOAD PUSH32 0x8C379A000000000000000000000000000000000000000000000000000000000 DUP2 MSTORE PUSH1 0x20 PUSH1 0x4 DUP3 ADD MSTORE PUSH1 0x14 PUSH1 0x24 DUP3 ADD MSTORE PUSH32 0x64732D6D6174682D6164642D6F766572666C6F77000000000000000000000000 PUSH1 0x44 DUP3 ADD MSTORE PUSH1 0x64 ADD PUSH2 0x1710 JUMP JUMPDEST PUSH1 0x60 DUP3 SELFBALANCE LT ISZERO PUSH2 0x36F8 JUMPI PUSH1 0x40 MLOAD PUSH32 0x8C379A000000000000000000000000000000000000000000000000000000000 DUP2 MSTORE PUSH1 0x20 PUSH1 0x4 DUP3 ADD MSTORE PUSH1 0x26 PUSH1 0x24 DUP3 ADD MSTORE PUSH32 0x416464726573733A20696E73756666696369656E742062616C616E636520666F PUSH1 0x44 DUP3 ADD MSTORE PUSH32 0x722063616C6C0000000000000000000000000000000000000000000000000000 PUSH1 0x64 DUP3 ADD MSTORE PUSH1 0x84 ADD PUSH2 0x1710 JUMP JUMPDEST PUSH1 0x0 DUP1 DUP7 PUSH20 0xFFFFFFFFFFFFFFFFFFFFFFFFFFFFFFFFFFFFFFFF AND DUP6 DUP8 PUSH1 0x40 MLOAD PUSH2 0x3721 SWAP2 SWAP1 PUSH2 0x4ECB JUMP JUMPDEST PUSH1 0x0 PUSH1 0x40 MLOAD DUP1 DUP4 SUB DUP2 DUP6 DUP8 GAS CALL SWAP3 POP POP POP RETURNDATASIZE DUP1 PUSH1 0x0 DUP2 EQ PUSH2 0x375E JUMPI PUSH1 0x40 MLOAD SWAP2 POP PUSH1 0x1F NOT PUSH1 0x3F RETURNDATASIZE ADD AND DUP3 ADD PUSH1 0x40 MSTORE RETURNDATASIZE DUP3 MSTORE RETURNDATASIZE PUSH1 0x0 PUSH1 0x20 DUP5 ADD RETURNDATACOPY PUSH2 0x3763 JUMP JUMPDEST PUSH1 0x60 SWAP2 POP JUMPDEST POP SWAP2 POP SWAP2 POP PUSH2 0x33B7 DUP8 DUP4 DUP4 DUP8 PUSH1 0x60 DUP4 ISZERO PUSH2 0x3802 JUMPI DUP3 MLOAD PUSH2 0x37FB JUMPI PUSH20 0xFFFFFFFFFFFFFFFFFFFFFFFFFFFFFFFFFFFFFFFF DUP6 AND EXTCODESIZE PUSH2 0x37FB JUMPI PUSH1 0x40 MLOAD PUSH32 0x8C379A000000000000000000000000000000000000000000000000000000000 DUP2 MSTORE PUSH1 0x20 PUSH1 0x4 DUP3 ADD MSTORE PUSH1 0x1D PUSH1 0x24 DUP3 ADD MSTORE PUSH32 0x416464726573733A2063616C6C20746F206E6F6E2D636F6E7472616374000000 PUSH1 0x44 DUP3 ADD MSTORE PUSH1 0x64 ADD PUSH2 0x1710 JUMP JUMPDEST POP DUP2 PUSH2 0x3556 JUMP JUMPDEST PUSH2 0x3556 DUP4 DUP4 DUP2 MLOAD ISZERO PUSH2 0x3817 JUMPI DUP2 MLOAD DUP1 DUP4 PUSH1 0x20 ADD REVERT JUMPDEST DUP1 PUSH1 0x40 MLOAD PUSH32 0x8C379A000000000000000000000000000000000000000000000000000000000 DUP2 MSTORE PUSH1 0x4 ADD PUSH2 0x1710 SWAP2 SWAP1 PUSH2 0x4872 JUMP JUMPDEST PUSH32 0x4E487B7100000000000000000000000000000000000000000000000000000000 PUSH1 0x0 MSTORE PUSH1 0x41 PUSH1 0x4 MSTORE PUSH1 0x24 PUSH1 0x0 REVERT JUMPDEST PUSH1 0x40 MLOAD PUSH1 0x80 DUP2 ADD PUSH8 0xFFFFFFFFFFFFFFFF DUP2 GT DUP3 DUP3 LT OR ISZERO PUSH2 0x389D JUMPI PUSH2 0x389D PUSH2 0x384B JUMP JUMPDEST PUSH1 0x40 MSTORE SWAP1 JUMP JUMPDEST PUSH1 0x40 DUP1 MLOAD SWAP1 DUP2 ADD PUSH8 0xFFFFFFFFFFFFFFFF DUP2 GT DUP3 DUP3 LT OR ISZERO PUSH2 0x389D JUMPI PUSH2 0x389D PUSH2 0x384B JUMP JUMPDEST PUSH1 0x40 MLOAD PUSH1 0x60 DUP2 ADD PUSH8 0xFFFFFFFFFFFFFFFF DUP2 GT DUP3 DUP3 LT OR ISZERO PUSH2 0x389D JUMPI PUSH2 0x389D PUSH2 0x384B JUMP JUMPDEST PUSH1 0x40 MLOAD PUSH1 0xA0 DUP2 ADD PUSH8 0xFFFFFFFFFFFFFFFF DUP2 GT DUP3 DUP3 LT OR ISZERO PUSH2 0x389D JUMPI PUSH2 0x389D PUSH2 0x384B JUMP JUMPDEST PUSH1 0x40 MLOAD PUSH2 0x160 DUP2 ADD PUSH8 0xFFFFFFFFFFFFFFFF DUP2 GT DUP3 DUP3 LT OR ISZERO PUSH2 0x389D JUMPI PUSH2 0x389D PUSH2 0x384B JUMP JUMPDEST PUSH1 0x40 MLOAD PUSH1 0x1F DUP3 ADD PUSH32 0xFFFFFFFFFFFFFFFFFFFFFFFFFFFFFFFFFFFFFFFFFFFFFFFFFFFFFFFFFFFFFFE0 AND DUP2 ADD PUSH8 0xFFFFFFFFFFFFFFFF DUP2 GT DUP3 DUP3 LT OR ISZERO PUSH2 0x3977 JUMPI PUSH2 0x3977 PUSH2 0x384B JUMP JUMPDEST PUSH1 0x40 MSTORE SWAP2 SWAP1 POP JUMP JUMPDEST PUSH1 0x0 PUSH8 0xFFFFFFFFFFFFFFFF DUP3 GT ISZERO PUSH2 0x3999 JUMPI PUSH2 0x3999 PUSH2 0x384B JUMP JUMPDEST POP PUSH1 0x5 SHL PUSH1 0x20 ADD SWAP1 JUMP JUMPDEST PUSH1 0xFF DUP2 AND DUP2 EQ PUSH2 0x10E7 JUMPI PUSH1 0x0 DUP1 REVERT JUMPDEST PUSH1 0x0 DUP3 PUSH1 0x1F DUP4 ADD SLT PUSH2 0x39C3 JUMPI PUSH1 0x0 DUP1 REVERT JUMPDEST DUP2 CALLDATALOAD PUSH1 0x20 PUSH2 0x39D8 PUSH2 0x39D3 DUP4 PUSH2 0x397F JUMP JUMPDEST PUSH2 0x3930 JUMP JUMPDEST DUP3 DUP2 MSTORE PUSH1 0x5 SWAP3 SWAP1 SWAP3 SHL DUP5 ADD DUP2 ADD SWAP2 DUP2 DUP2 ADD SWAP1 DUP7 DUP5 GT ISZERO PUSH2 0x39F7 JUMPI PUSH1 0x0 DUP1 REVERT JUMPDEST DUP3 DUP7 ADD JUMPDEST DUP5 DUP2 LT ISZERO PUSH2 0x3A12 JUMPI DUP1 CALLDATALOAD DUP4 MSTORE SWAP2 DUP4 ADD SWAP2 DUP4 ADD PUSH2 0x39FB JUMP JUMPDEST POP SWAP7 SWAP6 POP POP POP POP POP POP JUMP JUMPDEST PUSH1 0x0 PUSH8 0xFFFFFFFFFFFFFFFF DUP3 GT ISZERO PUSH2 0x3A37 JUMPI PUSH2 0x3A37 PUSH2 0x384B JUMP JUMPDEST POP PUSH1 0x1F ADD PUSH32 0xFFFFFFFFFFFFFFFFFFFFFFFFFFFFFFFFFFFFFFFFFFFFFFFFFFFFFFFFFFFFFFE0 AND PUSH1 0x20 ADD SWAP1 JUMP JUMPDEST PUSH1 0x0 DUP3 PUSH1 0x1F DUP4 ADD SLT PUSH2 0x3A74 JUMPI PUSH1 0x0 DUP1 REVERT JUMPDEST DUP2 CALLDATALOAD PUSH2 0x3A82 PUSH2 0x39D3 DUP3 PUSH2 0x3A1D JUMP JUMPDEST DUP2 DUP2 MSTORE DUP5 PUSH1 0x20 DUP4 DUP7 ADD ADD GT ISZERO PUSH2 0x3A97 JUMPI PUSH1 0x0 DUP1 REVERT JUMPDEST DUP2 PUSH1 0x20 DUP6 ADD PUSH1 0x20 DUP4 ADD CALLDATACOPY PUSH1 0x0 SWAP2 DUP2 ADD PUSH1 0x20 ADD SWAP2 SWAP1 SWAP2 MSTORE SWAP4 SWAP3 POP POP POP JUMP JUMPDEST PUSH1 0x0 DUP3 PUSH1 0x1F DUP4 ADD SLT PUSH2 0x3AC5 JUMPI PUSH1 0x0 DUP1 REVERT JUMPDEST DUP2 CALLDATALOAD PUSH1 0x20 PUSH2 0x3AD5 PUSH2 0x39D3 DUP4 PUSH2 0x397F JUMP JUMPDEST DUP3 DUP2 MSTORE PUSH1 0x5 SWAP3 SWAP1 SWAP3 SHL DUP5 ADD DUP2 ADD SWAP2 DUP2 DUP2 ADD SWAP1 DUP7 DUP5 GT ISZERO PUSH2 0x3AF4 JUMPI PUSH1 0x0 DUP1 REVERT JUMPDEST DUP3 DUP7 ADD JUMPDEST DUP5 DUP2 LT ISZERO PUSH2 0x3A12 JUMPI DUP1 CALLDATALOAD PUSH8 0xFFFFFFFFFFFFFFFF DUP2 GT ISZERO PUSH2 0x3B18 JUMPI PUSH1 0x0 DUP1 DUP2 REVERT JUMPDEST PUSH2 0x3B26 DUP10 DUP7 DUP4 DUP12 ADD ADD PUSH2 0x3A63 JUMP JUMPDEST DUP5 MSTORE POP SWAP2 DUP4 ADD SWAP2 DUP4 ADD PUSH2 0x3AF8 JUMP JUMPDEST PUSH1 0x0 DUP1 PUSH1 0x0 PUSH1 0x60 DUP5 DUP7 SUB SLT ISZERO PUSH2 0x3B49 JUMPI PUSH1 0x0 DUP1 REVERT JUMPDEST DUP4 CALLDATALOAD PUSH8 0xFFFFFFFFFFFFFFFF DUP1 DUP3 GT ISZERO PUSH2 0x3B61 JUMPI PUSH1 0x0 DUP1 REVERT JUMPDEST DUP2 DUP7 ADD SWAP2 POP DUP7 PUSH1 0x1F DUP4 ADD SLT PUSH2 0x3B75 JUMPI PUSH1 0x0 DUP1 REVERT JUMPDEST DUP2 CALLDATALOAD PUSH1 0x20 PUSH2 0x3B85 PUSH2 0x39D3 DUP4 PUSH2 0x397F JUMP JUMPDEST DUP3 DUP2 MSTORE PUSH1 0x5 SWAP3 SWAP1 SWAP3 SHL DUP5 ADD DUP2 ADD SWAP2 DUP2 DUP2 ADD SWAP1 DUP11 DUP5 GT ISZERO PUSH2 0x3BA4 JUMPI PUSH1 0x0 DUP1 REVERT JUMPDEST SWAP5 DUP3 ADD SWAP5 JUMPDEST DUP4 DUP7 LT ISZERO PUSH2 0x3BCB JUMPI DUP6 CALLDATALOAD PUSH2 0x3BBC DUP2 PUSH2 0x39A3 JUMP JUMPDEST DUP3 MSTORE SWAP5 DUP3 ADD SWAP5 SWAP1 DUP3 ADD SWAP1 PUSH2 0x3BA9 JUMP JUMPDEST SWAP8 POP POP DUP8 ADD CALLDATALOAD SWAP3 POP POP DUP1 DUP3 GT ISZERO PUSH2 0x3BE1 JUMPI PUSH1 0x0 DUP1 REVERT JUMPDEST PUSH2 0x3BED DUP8 DUP4 DUP9 ADD PUSH2 0x39B2 JUMP JUMPDEST SWAP4 POP PUSH1 0x40 DUP7 ADD CALLDATALOAD SWAP2 POP DUP1 DUP3 GT ISZERO PUSH2 0x3C03 JUMPI PUSH1 0x0 DUP1 REVERT JUMPDEST POP PUSH2 0x3C10 DUP7 DUP3 DUP8 ADD PUSH2 0x3AB4 JUMP JUMPDEST SWAP2 POP POP SWAP3 POP SWAP3 POP SWAP3 JUMP JUMPDEST PUSH2 0xFFFF DUP2 AND DUP2 EQ PUSH2 0x10E7 JUMPI PUSH1 0x0 DUP1 REVERT JUMPDEST PUSH20 0xFFFFFFFFFFFFFFFFFFFFFFFFFFFFFFFFFFFFFFFF DUP2 AND DUP2 EQ PUSH2 0x10E7 JUMPI PUSH1 0x0 DUP1 REVERT JUMPDEST PUSH1 0x0 DUP1 PUSH1 0x0 DUP1 PUSH1 0x0 DUP1 PUSH1 0xC0 DUP8 DUP10 SUB SLT ISZERO PUSH2 0x3C65 JUMPI PUSH1 0x0 DUP1 REVERT JUMPDEST DUP7 CALLDATALOAD PUSH2 0x3C70 DUP2 PUSH2 0x3C1A JUMP JUMPDEST SWAP6 POP PUSH1 0x20 DUP8 ADD CALLDATALOAD PUSH2 0x3C80 DUP2 PUSH2 0x39A3 JUMP JUMPDEST SWAP5 POP PUSH1 0x40 DUP8 ADD CALLDATALOAD PUSH2 0x3C90 DUP2 PUSH2 0x3C2A JUMP JUMPDEST SWAP4 POP PUSH1 0x60 DUP8 ADD CALLDATALOAD SWAP3 POP PUSH1 0x80 DUP8 ADD CALLDATALOAD SWAP2 POP PUSH1 0xA0 DUP8 ADD CALLDATALOAD PUSH8 0xFFFFFFFFFFFFFFFF DUP2 GT ISZERO PUSH2 0x3CBA JUMPI PUSH1 0x0 DUP1 REVERT JUMPDEST PUSH2 0x3CC6 DUP10 DUP3 DUP11 ADD PUSH2 0x3A63 JUMP JUMPDEST SWAP2 POP POP SWAP3 SWAP6 POP SWAP3 SWAP6 POP SWAP3 SWAP6 JUMP JUMPDEST PUSH1 0x0 DUP1 PUSH1 0x0 DUP1 PUSH1 0x0 DUP1 PUSH1 0xC0 DUP8 DUP10 SUB SLT ISZERO PUSH2 0x3CEC JUMPI PUSH1 0x0 DUP1 REVERT JUMPDEST DUP7 CALLDATALOAD PUSH2 0x3CF7 DUP2 PUSH2 0x3C1A JUMP JUMPDEST SWAP6 POP PUSH1 0x20 DUP8 ADD CALLDATALOAD PUSH8 0xFFFFFFFFFFFFFFFF DUP1 DUP3 GT ISZERO PUSH2 0x3D14 JUMPI PUSH1 0x0 DUP1 REVERT JUMPDEST PUSH2 0x3D20 DUP11 DUP4 DUP12 ADD PUSH2 0x3A63 JUMP JUMPDEST SWAP7 POP PUSH1 0x40 DUP10 ADD CALLDATALOAD SWAP6 POP PUSH1 0x60 DUP10 ADD CALLDATALOAD SWAP2 POP PUSH2 0x3D39 DUP3 PUSH2 0x3C2A JUMP JUMPDEST SWAP1 SWAP4 POP PUSH1 0x80 DUP9 ADD CALLDATALOAD SWAP3 POP PUSH1 0xA0 DUP9 ADD CALLDATALOAD SWAP1 DUP1 DUP3 GT ISZERO PUSH2 0x3D56 JUMPI PUSH1 0x0 DUP1 REVERT JUMPDEST POP PUSH2 0x3CC6 DUP10 DUP3 DUP11 ADD PUSH2 0x3A63 JUMP JUMPDEST PUSH1 0x0 PUSH1 0x20 DUP3 DUP5 SUB SLT ISZERO PUSH2 0x3D75 JUMPI PUSH1 0x0 DUP1 REVERT JUMPDEST DUP2 CALLDATALOAD PUSH2 0x3D80 DUP2 PUSH2 0x3C2A JUMP JUMPDEST SWAP4 SWAP3 POP POP POP JUMP JUMPDEST PUSH32 0x4E487B7100000000000000000000000000000000000000000000000000000000 PUSH1 0x0 MSTORE PUSH1 0x32 PUSH1 0x4 MSTORE PUSH1 0x24 PUSH1 0x0 REVERT JUMPDEST DUP1 MLOAD PUSH2 0x3DC1 DUP2 PUSH2 0x3C2A JUMP JUMPDEST SWAP2 SWAP1 POP JUMP JUMPDEST DUP1 MLOAD DUP1 ISZERO ISZERO DUP2 EQ PUSH2 0x3DC1 JUMPI PUSH1 0x0 DUP1 REVERT JUMPDEST PUSH1 0x0 DUP1 PUSH1 0x0 DUP1 PUSH1 0x0 PUSH1 0xA0 DUP7 DUP9 SUB SLT ISZERO PUSH2 0x3DEE JUMPI PUSH1 0x0 DUP1 REVERT JUMPDEST DUP6 MLOAD PUSH2 0x3DF9 DUP2 PUSH2 0x3C2A JUMP JUMPDEST SWAP5 POP PUSH2 0x3E07 PUSH1 0x20 DUP8 ADD PUSH2 0x3DC6 JUMP JUMPDEST SWAP4 POP PUSH1 0x40 DUP7 ADD MLOAD PUSH2 0x3E17 DUP2 PUSH2 0x39A3 JUMP JUMPDEST PUSH1 0x60 DUP8 ADD MLOAD PUSH1 0x80 SWAP1 SWAP8 ADD MLOAD SWAP6 SWAP9 SWAP5 SWAP8 POP SWAP6 SWAP5 SWAP4 SWAP3 POP POP POP JUMP JUMPDEST PUSH1 0x0 DUP1 PUSH1 0x0 DUP1 PUSH1 0x80 DUP6 DUP8 SUB SLT ISZERO PUSH2 0x3E46 JUMPI PUSH1 0x0 DUP1 REVERT JUMPDEST DUP5 MLOAD PUSH2 0x3E51 DUP2 PUSH2 0x3C2A JUMP JUMPDEST PUSH1 0x20 DUP7 ADD MLOAD SWAP1 SWAP5 POP PUSH2 0x3E62 DUP2 PUSH2 0x3C2A JUMP JUMPDEST PUSH1 0x40 DUP7 ADD MLOAD PUSH1 0x60 SWAP1 SWAP7 ADD MLOAD SWAP5 SWAP8 SWAP1 SWAP7 POP SWAP3 POP POP POP JUMP JUMPDEST PUSH1 0x0 DUP1 PUSH1 0x0 DUP1 PUSH1 0x0 PUSH1 0xA0 DUP7 DUP9 SUB SLT ISZERO PUSH2 0x3E90 JUMPI PUSH1 0x0 DUP1 REVERT JUMPDEST DUP6 MLOAD PUSH2 0x3E9B DUP2 PUSH2 0x3C2A JUMP JUMPDEST PUSH1 0x20 DUP8 ADD MLOAD SWAP1 SWAP6 POP PUSH2 0x3EAC DUP2 PUSH2 0x3C2A JUMP JUMPDEST PUSH1 0x40 DUP8 ADD MLOAD PUSH1 0x60 DUP9 ADD MLOAD SWAP2 SWAP6 POP SWAP4 POP SWAP2 POP PUSH2 0x3EC9 PUSH1 0x80 DUP8 ADD PUSH2 0x3DC6 JUMP JUMPDEST SWAP1 POP SWAP3 SWAP6 POP SWAP3 SWAP6 SWAP1 SWAP4 POP JUMP JUMPDEST PUSH1 0x0 DUP1 PUSH1 0x0 PUSH1 0x60 DUP5 DUP7 SUB SLT ISZERO PUSH2 0x3EEA JUMPI PUSH1 0x0 DUP1 REVERT JUMPDEST DUP4 MLOAD PUSH2 0x3EF5 DUP2 PUSH2 0x3C2A JUMP JUMPDEST PUSH1 0x20 DUP6 ADD MLOAD SWAP1 SWAP4 POP PUSH2 0x3F06 DUP2 PUSH2 0x3C2A JUMP JUMPDEST DUP1 SWAP3 POP POP PUSH1 0x40 DUP5 ADD MLOAD SWAP1 POP SWAP3 POP SWAP3 POP SWAP3 JUMP JUMPDEST PUSH1 0x0 PUSH1 0x20 DUP3 DUP5 SUB SLT ISZERO PUSH2 0x3F2A JUMPI PUSH1 0x0 DUP1 REVERT JUMPDEST POP MLOAD SWAP2 SWAP1 POP JUMP JUMPDEST PUSH1 0x0 DUP1 PUSH1 0x40 DUP4 DUP6 SUB SLT ISZERO PUSH2 0x3F44 JUMPI PUSH1 0x0 DUP1 REVERT JUMPDEST DUP3 MLOAD PUSH2 0x3F4F DUP2 PUSH2 0x3C2A JUMP JUMPDEST PUSH1 0x20 DUP5 ADD MLOAD SWAP1 SWAP3 POP PUSH2 0x3F60 DUP2 PUSH2 0x3C2A JUMP JUMPDEST DUP1 SWAP2 POP POP SWAP3 POP SWAP3 SWAP1 POP JUMP JUMPDEST PUSH1 0x0 DUP1 PUSH1 0x40 DUP4 DUP6 SUB SLT ISZERO PUSH2 0x3F7E JUMPI PUSH1 0x0 DUP1 REVERT JUMPDEST DUP3 MLOAD PUSH2 0x3F89 DUP2 PUSH2 0x3C2A JUMP JUMPDEST PUSH1 0x20 SWAP4 SWAP1 SWAP4 ADD MLOAD SWAP3 SWAP5 SWAP3 SWAP4 POP POP POP JUMP JUMPDEST PUSH1 0x0 DUP1 PUSH1 0x0 DUP1 PUSH1 0x80 DUP6 DUP8 SUB SLT ISZERO PUSH2 0x3FAF JUMPI PUSH1 0x0 DUP1 REVERT JUMPDEST DUP5 MLOAD SWAP4 POP PUSH1 0x20 DUP1 DUP7 ADD MLOAD SWAP4 POP PUSH1 0x40 DUP7 ADD MLOAD PUSH8 0xFFFFFFFFFFFFFFFF DUP2 GT ISZERO PUSH2 0x3FD5 JUMPI PUSH1 0x0 DUP1 REVERT JUMPDEST DUP7 ADD PUSH1 0x1F DUP2 ADD DUP9 SGT PUSH2 0x3FE6 JUMPI PUSH1 0x0 DUP1 REVERT JUMPDEST DUP1 MLOAD PUSH2 0x3FF4 PUSH2 0x39D3 DUP3 PUSH2 0x397F JUMP JUMPDEST DUP2 DUP2 MSTORE PUSH1 0x5 SWAP2 SWAP1 SWAP2 SHL DUP3 ADD DUP4 ADD SWAP1 DUP4 DUP2 ADD SWAP1 DUP11 DUP4 GT ISZERO PUSH2 0x4013 JUMPI PUSH1 0x0 DUP1 REVERT JUMPDEST SWAP3 DUP5 ADD SWAP3 JUMPDEST DUP3 DUP5 LT ISZERO PUSH2 0x403A JUMPI DUP4 MLOAD PUSH2 0x402B DUP2 PUSH2 0x3C2A JUMP JUMPDEST DUP3 MSTORE SWAP3 DUP5 ADD SWAP3 SWAP1 DUP5 ADD SWAP1 PUSH2 0x4018 JUMP JUMPDEST DUP1 SWAP7 POP POP POP POP POP POP PUSH2 0x404E PUSH1 0x60 DUP7 ADD PUSH2 0x3DB6 JUMP JUMPDEST SWAP1 POP SWAP3 SWAP6 SWAP2 SWAP5 POP SWAP3 POP JUMP JUMPDEST PUSH1 0x0 JUMPDEST DUP4 DUP2 LT ISZERO PUSH2 0x4074 JUMPI DUP2 DUP2 ADD MLOAD DUP4 DUP3 ADD MSTORE PUSH1 0x20 ADD PUSH2 0x405C JUMP JUMPDEST DUP4 DUP2 GT ISZERO PUSH2 0x14CF JUMPI POP POP PUSH1 0x0 SWAP2 ADD MSTORE JUMP JUMPDEST PUSH1 0x0 DUP3 PUSH1 0x1F DUP4 ADD SLT PUSH2 0x4096 JUMPI PUSH1 0x0 DUP1 REVERT JUMPDEST DUP2 MLOAD PUSH2 0x40A4 PUSH2 0x39D3 DUP3 PUSH2 0x3A1D JUMP JUMPDEST DUP2 DUP2 MSTORE DUP5 PUSH1 0x20 DUP4 DUP7 ADD ADD GT ISZERO PUSH2 0x40B9 JUMPI PUSH1 0x0 DUP1 REVERT JUMPDEST PUSH2 0x3556 DUP3 PUSH1 0x20 DUP4 ADD PUSH1 0x20 DUP8 ADD PUSH2 0x4059 JUMP JUMPDEST PUSH1 0x0 PUSH1 0x20 DUP1 DUP4 DUP6 SUB SLT ISZERO PUSH2 0x40DD JUMPI PUSH1 0x0 DUP1 REVERT JUMPDEST DUP3 MLOAD PUSH8 0xFFFFFFFFFFFFFFFF DUP1 DUP3 GT ISZERO PUSH2 0x40F5 JUMPI PUSH1 0x0 DUP1 REVERT JUMPDEST SWAP1 DUP5 ADD SWAP1 PUSH1 0x80 DUP3 DUP8 SUB SLT ISZERO PUSH2 0x4109 JUMPI PUSH1 0x0 DUP1 REVERT JUMPDEST PUSH2 0x4111 PUSH2 0x387A JUMP JUMPDEST DUP3 MLOAD PUSH2 0x411C DUP2 PUSH2 0x3C2A JUMP JUMPDEST DUP2 MSTORE DUP3 DUP5 ADD MLOAD DUP5 DUP3 ADD MSTORE PUSH1 0x40 DUP1 DUP5 ADD MLOAD DUP2 DUP4 ADD MSTORE PUSH1 0x60 DUP5 ADD MLOAD DUP4 DUP2 GT ISZERO PUSH2 0x4142 JUMPI PUSH1 0x0 DUP1 REVERT JUMPDEST DUP1 DUP6 ADD SWAP5 POP POP DUP8 PUSH1 0x1F DUP6 ADD SLT PUSH2 0x4157 JUMPI PUSH1 0x0 DUP1 REVERT JUMPDEST DUP4 MLOAD PUSH2 0x4165 PUSH2 0x39D3 DUP3 PUSH2 0x397F JUMP JUMPDEST DUP2 DUP2 MSTORE PUSH1 0x5 SWAP2 SWAP1 SWAP2 SHL DUP6 ADD DUP7 ADD SWAP1 DUP7 DUP2 ADD SWAP1 DUP11 DUP4 GT ISZERO PUSH2 0x4184 JUMPI PUSH1 0x0 DUP1 REVERT JUMPDEST DUP8 DUP8 ADD JUMPDEST DUP4 DUP2 LT ISZERO PUSH2 0x421E JUMPI DUP1 MLOAD DUP8 DUP2 GT ISZERO PUSH2 0x41A0 JUMPI PUSH1 0x0 DUP1 DUP2 REVERT JUMPDEST DUP9 ADD DUP1 DUP14 SUB PUSH32 0xFFFFFFFFFFFFFFFFFFFFFFFFFFFFFFFFFFFFFFFFFFFFFFFFFFFFFFFFFFFFFFE0 ADD DUP7 SGT ISZERO PUSH2 0x41D4 JUMPI PUSH1 0x0 DUP1 DUP2 REVERT JUMPDEST PUSH2 0x41DC PUSH2 0x38A3 JUMP JUMPDEST DUP11 DUP3 ADD MLOAD PUSH2 0x41E9 DUP2 PUSH2 0x3C2A JUMP JUMPDEST DUP2 MSTORE DUP2 DUP8 ADD MLOAD DUP10 DUP2 GT ISZERO PUSH2 0x41FD JUMPI PUSH1 0x0 DUP1 DUP2 REVERT JUMPDEST PUSH2 0x420B DUP16 DUP14 DUP4 DUP7 ADD ADD PUSH2 0x4085 JUMP JUMPDEST DUP3 DUP14 ADD MSTORE POP DUP5 MSTORE POP SWAP2 DUP9 ADD SWAP2 DUP9 ADD PUSH2 0x4188 JUMP JUMPDEST POP PUSH1 0x60 DUP6 ADD MSTORE POP SWAP2 SWAP9 SWAP8 POP POP POP POP POP POP POP POP JUMP JUMPDEST PUSH1 0x0 DUP3 PUSH1 0x1F DUP4 ADD SLT PUSH2 0x4243 JUMPI PUSH1 0x0 DUP1 REVERT JUMPDEST DUP2 MLOAD PUSH1 0x20 PUSH2 0x4253 PUSH2 0x39D3 DUP4 PUSH2 0x397F JUMP JUMPDEST DUP3 DUP2 MSTORE PUSH1 0x5 SWAP3 SWAP1 SWAP3 SHL DUP5 ADD DUP2 ADD SWAP2 DUP2 DUP2 ADD SWAP1 DUP7 DUP5 GT ISZERO PUSH2 0x4272 JUMPI PUSH1 0x0 DUP1 REVERT JUMPDEST DUP3 DUP7 ADD JUMPDEST DUP5 DUP2 LT ISZERO PUSH2 0x3A12 JUMPI DUP1 MLOAD PUSH8 0xFFFFFFFFFFFFFFFF DUP1 DUP3 GT ISZERO PUSH2 0x4297 JUMPI PUSH1 0x0 DUP1 DUP2 REVERT JUMPDEST DUP2 DUP10 ADD SWAP2 POP PUSH1 0x80 DUP1 PUSH32 0xFFFFFFFFFFFFFFFFFFFFFFFFFFFFFFFFFFFFFFFFFFFFFFFFFFFFFFFFFFFFFFE0 DUP5 DUP14 SUB ADD SLT ISZERO PUSH2 0x42D0 JUMPI PUSH1 0x0 DUP1 DUP2 REVERT JUMPDEST PUSH2 0x42D8 PUSH2 0x387A JUMP JUMPDEST DUP8 DUP5 ADD MLOAD PUSH2 0x42E5 DUP2 PUSH2 0x3C2A JUMP JUMPDEST DUP2 MSTORE PUSH1 0x40 DUP5 DUP2 ADD MLOAD PUSH2 0x42F6 DUP2 PUSH2 0x3C2A JUMP JUMPDEST DUP3 DUP11 ADD MSTORE PUSH1 0x60 DUP6 DUP2 ADD MLOAD DUP6 DUP2 AND DUP2 EQ PUSH2 0x430F JUMPI PUSH1 0x0 DUP1 DUP2 REVERT JUMPDEST DUP4 DUP4 ADD MSTORE SWAP3 DUP6 ADD MLOAD SWAP3 DUP5 DUP5 GT ISZERO PUSH2 0x4328 JUMPI PUSH1 0x0 SWAP2 POP DUP2 DUP3 REVERT JUMPDEST PUSH2 0x4336 DUP15 DUP12 DUP7 DUP10 ADD ADD PUSH2 0x4085 JUMP JUMPDEST SWAP1 DUP4 ADD MSTORE POP DUP7 MSTORE POP POP POP SWAP2 DUP4 ADD SWAP2 DUP4 ADD PUSH2 0x4276 JUMP JUMPDEST PUSH1 0x0 DUP3 PUSH1 0x1F DUP4 ADD SLT PUSH2 0x435C JUMPI PUSH1 0x0 DUP1 REVERT JUMPDEST DUP2 MLOAD PUSH1 0x20 PUSH2 0x436C PUSH2 0x39D3 DUP4 PUSH2 0x397F JUMP JUMPDEST DUP3 DUP2 MSTORE PUSH1 0x7 SWAP3 SWAP1 SWAP3 SHL DUP5 ADD DUP2 ADD SWAP2 DUP2 DUP2 ADD SWAP1 DUP7 DUP5 GT ISZERO PUSH2 0x438B JUMPI PUSH1 0x0 DUP1 REVERT JUMPDEST DUP3 DUP7 ADD JUMPDEST DUP5 DUP2 LT ISZERO PUSH2 0x3A12 JUMPI PUSH1 0x80 DUP2 DUP10 SUB SLT ISZERO PUSH2 0x43A8 JUMPI PUSH1 0x0 DUP1 DUP2 REVERT JUMPDEST PUSH2 0x43B0 PUSH2 0x387A JUMP JUMPDEST DUP2 MLOAD PUSH2 0x43BB DUP2 PUSH2 0x3C2A JUMP JUMPDEST DUP2 MSTORE DUP2 DUP6 ADD MLOAD PUSH2 0x43CA DUP2 PUSH2 0x3C2A JUMP JUMPDEST DUP2 DUP7 ADD MSTORE PUSH1 0x40 PUSH2 0x43DB DUP4 DUP3 ADD PUSH2 0x3DC6 JUMP JUMPDEST SWAP1 DUP3 ADD MSTORE PUSH1 0x60 DUP3 DUP2 ADD MLOAD SWAP1 DUP3 ADD MSTORE DUP4 MSTORE SWAP2 DUP4 ADD SWAP2 PUSH1 0x80 ADD PUSH2 0x438F JUMP JUMPDEST PUSH1 0x0 PUSH1 0x20 DUP1 DUP4 DUP6 SUB SLT ISZERO PUSH2 0x440A JUMPI PUSH1 0x0 DUP1 REVERT JUMPDEST DUP3 MLOAD PUSH8 0xFFFFFFFFFFFFFFFF DUP1 DUP3 GT ISZERO PUSH2 0x4422 JUMPI PUSH1 0x0 DUP1 REVERT JUMPDEST SWAP1 DUP5 ADD SWAP1 PUSH1 0x60 DUP3 DUP8 SUB SLT ISZERO PUSH2 0x4436 JUMPI PUSH1 0x0 DUP1 REVERT JUMPDEST PUSH2 0x443E PUSH2 0x38C6 JUMP JUMPDEST DUP3 MLOAD DUP3 DUP2 GT ISZERO PUSH2 0x444D JUMPI PUSH1 0x0 DUP1 REVERT JUMPDEST DUP4 ADD PUSH1 0x1F DUP2 ADD DUP9 SGT PUSH2 0x445E JUMPI PUSH1 0x0 DUP1 REVERT JUMPDEST DUP1 MLOAD PUSH2 0x446C PUSH2 0x39D3 DUP3 PUSH2 0x397F JUMP JUMPDEST DUP2 DUP2 MSTORE PUSH1 0x5 SWAP2 SWAP1 SWAP2 SHL DUP3 ADD DUP7 ADD SWAP1 DUP7 DUP2 ADD SWAP1 DUP11 DUP4 GT ISZERO PUSH2 0x448B JUMPI PUSH1 0x0 DUP1 REVERT JUMPDEST DUP8 DUP5 ADD JUMPDEST DUP4 DUP2 LT ISZERO PUSH2 0x4553 JUMPI DUP1 MLOAD DUP8 DUP2 GT ISZERO PUSH2 0x44A6 JUMPI PUSH1 0x0 DUP1 REVERT JUMPDEST DUP6 ADD PUSH1 0xA0 DUP2 DUP15 SUB PUSH32 0xFFFFFFFFFFFFFFFFFFFFFFFFFFFFFFFFFFFFFFFFFFFFFFFFFFFFFFFFFFFFFFE0 ADD SLT ISZERO PUSH2 0x44DA JUMPI PUSH1 0x0 DUP1 REVERT JUMPDEST PUSH2 0x44E2 PUSH2 0x38E9 JUMP JUMPDEST DUP11 DUP3 ADD MLOAD PUSH2 0x44EF DUP2 PUSH2 0x3C2A JUMP JUMPDEST DUP2 MSTORE PUSH1 0x40 DUP3 ADD MLOAD PUSH2 0x44FF DUP2 PUSH2 0x3C2A JUMP JUMPDEST DUP2 DUP13 ADD MSTORE PUSH2 0x450F PUSH1 0x60 DUP4 ADD PUSH2 0x3DC6 JUMP JUMPDEST PUSH1 0x40 DUP3 ADD MSTORE PUSH1 0x80 DUP3 ADD MLOAD PUSH1 0x60 DUP3 ADD MSTORE PUSH1 0xA0 DUP3 ADD MLOAD DUP10 DUP2 GT ISZERO PUSH2 0x4531 JUMPI PUSH1 0x0 DUP1 DUP2 REVERT JUMPDEST PUSH2 0x453F DUP16 DUP14 DUP4 DUP7 ADD ADD PUSH2 0x4085 JUMP JUMPDEST PUSH1 0x80 DUP4 ADD MSTORE POP DUP5 MSTORE POP SWAP2 DUP9 ADD SWAP2 DUP9 ADD PUSH2 0x448F JUMP JUMPDEST POP DUP5 MSTORE POP POP POP DUP3 DUP5 ADD MLOAD DUP3 DUP2 GT ISZERO PUSH2 0x456A JUMPI PUSH1 0x0 DUP1 REVERT JUMPDEST PUSH2 0x4576 DUP9 DUP3 DUP7 ADD PUSH2 0x4232 JUMP JUMPDEST DUP6 DUP4 ADD MSTORE POP PUSH1 0x40 DUP4 ADD MLOAD SWAP4 POP DUP2 DUP5 GT ISZERO PUSH2 0x458F JUMPI PUSH1 0x0 DUP1 REVERT JUMPDEST PUSH2 0x459B DUP8 DUP6 DUP6 ADD PUSH2 0x434B JUMP JUMPDEST PUSH1 0x40 DUP3 ADD MSTORE SWAP7 SWAP6 POP POP POP POP POP POP JUMP JUMPDEST DUP1 MLOAD PUSH2 0x3DC1 DUP2 PUSH2 0x3C1A JUMP JUMPDEST PUSH1 0x0 DUP3 PUSH1 0x1F DUP4 ADD SLT PUSH2 0x45C6 JUMPI PUSH1 0x0 DUP1 REVERT JUMPDEST DUP2 MLOAD PUSH1 0x20 PUSH2 0x45D6 PUSH2 0x39D3 DUP4 PUSH2 0x397F JUMP JUMPDEST DUP3 DUP2 MSTORE PUSH1 0x5 SWAP3 SWAP1 SWAP3 SHL DUP5 ADD DUP2 ADD SWAP2 DUP2 DUP2 ADD SWAP1 DUP7 DUP5 GT ISZERO PUSH2 0x45F5 JUMPI PUSH1 0x0 DUP1 REVERT JUMPDEST DUP3 DUP7 ADD JUMPDEST DUP5 DUP2 LT ISZERO PUSH2 0x3A12 JUMPI DUP1 MLOAD PUSH2 0x460C DUP2 PUSH2 0x39A3 JUMP JUMPDEST DUP4 MSTORE SWAP2 DUP4 ADD SWAP2 DUP4 ADD PUSH2 0x45F9 JUMP JUMPDEST PUSH1 0x0 DUP3 PUSH1 0x1F DUP4 ADD SLT PUSH2 0x462A JUMPI PUSH1 0x0 DUP1 REVERT JUMPDEST DUP2 MLOAD PUSH1 0x20 PUSH2 0x463A PUSH2 0x39D3 DUP4 PUSH2 0x397F JUMP JUMPDEST DUP3 DUP2 MSTORE PUSH1 0x5 SWAP3 SWAP1 SWAP3 SHL DUP5 ADD DUP2 ADD SWAP2 DUP2 DUP2 ADD SWAP1 DUP7 DUP5 GT ISZERO PUSH2 0x4659 JUMPI PUSH1 0x0 DUP1 REVERT JUMPDEST DUP3 DUP7 ADD JUMPDEST DUP5 DUP2 LT ISZERO PUSH2 0x3A12 JUMPI DUP1 MLOAD DUP4 MSTORE SWAP2 DUP4 ADD SWAP2 DUP4 ADD PUSH2 0x465D JUMP JUMPDEST PUSH1 0x0 DUP3 PUSH1 0x1F DUP4 ADD SLT PUSH2 0x4685 JUMPI PUSH1 0x0 DUP1 REVERT JUMPDEST DUP2 MLOAD PUSH1 0x20 PUSH2 0x4695 PUSH2 0x39D3 DUP4 PUSH2 0x397F JUMP JUMPDEST DUP3 DUP2 MSTORE PUSH1 0x5 SWAP3 SWAP1 SWAP3 SHL DUP5 ADD DUP2 ADD SWAP2 DUP2 DUP2 ADD SWAP1 DUP7 DUP5 GT ISZERO PUSH2 0x46B4 JUMPI PUSH1 0x0 DUP1 REVERT JUMPDEST DUP3 DUP7 ADD JUMPDEST DUP5 DUP2 LT ISZERO PUSH2 0x3A12 JUMPI DUP1 MLOAD PUSH8 0xFFFFFFFFFFFFFFFF DUP2 GT ISZERO PUSH2 0x46D8 JUMPI PUSH1 0x0 DUP1 DUP2 REVERT JUMPDEST PUSH2 0x46E6 DUP10 DUP7 DUP4 DUP12 ADD ADD PUSH2 0x4085 JUMP JUMPDEST DUP5 MSTORE POP SWAP2 DUP4 ADD SWAP2 DUP4 ADD PUSH2 0x46B8 JUMP JUMPDEST PUSH1 0x0 DUP1 PUSH1 0x0 DUP1 DUP5 DUP7 SUB PUSH2 0x1C0 DUP2 SLT ISZERO PUSH2 0x470C JUMPI PUSH1 0x0 DUP1 REVERT JUMPDEST PUSH2 0x160 DUP1 DUP3 SLT ISZERO PUSH2 0x471C JUMPI PUSH1 0x0 DUP1 REVERT JUMPDEST PUSH2 0x4724 PUSH2 0x390C JUMP JUMPDEST SWAP2 POP PUSH2 0x472F DUP8 PUSH2 0x45AA JUMP JUMPDEST DUP3 MSTORE PUSH2 0x473D PUSH1 0x20 DUP9 ADD PUSH2 0x3DB6 JUMP JUMPDEST PUSH1 0x20 DUP4 ADD MSTORE PUSH1 0x40 DUP8 ADD MLOAD PUSH1 0x40 DUP4 ADD MSTORE PUSH1 0x60 DUP8 ADD MLOAD PUSH1 0x60 DUP4 ADD MSTORE PUSH1 0x80 DUP8 ADD MLOAD PUSH1 0x80 DUP4 ADD MSTORE PUSH1 0xA0 DUP8 ADD MLOAD PUSH1 0xA0 DUP4 ADD MSTORE PUSH1 0xC0 DUP8 ADD MLOAD PUSH1 0xC0 DUP4 ADD MSTORE PUSH2 0x4780 PUSH1 0xE0 DUP9 ADD PUSH2 0x3DB6 JUMP JUMPDEST PUSH1 0xE0 DUP4 ADD MSTORE PUSH2 0x100 PUSH2 0x4793 DUP2 DUP10 ADD PUSH2 0x3DB6 JUMP JUMPDEST SWAP1 DUP4 ADD MSTORE PUSH2 0x120 DUP8 DUP2 ADD MLOAD SWAP1 DUP4 ADD MSTORE PUSH2 0x140 DUP1 DUP9 ADD MLOAD SWAP1 DUP4 ADD MSTORE DUP7 ADD MLOAD SWAP1 SWAP5 POP PUSH8 0xFFFFFFFFFFFFFFFF DUP1 DUP3 GT ISZERO PUSH2 0x47C9 JUMPI PUSH1 0x0 DUP1 REVERT JUMPDEST PUSH2 0x47D5 DUP9 DUP4 DUP10 ADD PUSH2 0x45B5 JUMP JUMPDEST SWAP5 POP PUSH2 0x180 DUP8 ADD MLOAD SWAP2 POP DUP1 DUP3 GT ISZERO PUSH2 0x47EC JUMPI PUSH1 0x0 DUP1 REVERT JUMPDEST PUSH2 0x47F8 DUP9 DUP4 DUP10 ADD PUSH2 0x4619 JUMP JUMPDEST SWAP4 POP PUSH2 0x1A0 DUP8 ADD MLOAD SWAP2 POP DUP1 DUP3 GT ISZERO PUSH2 0x480F JUMPI PUSH1 0x0 DUP1 REVERT JUMPDEST POP PUSH2 0x481C DUP8 DUP3 DUP9 ADD PUSH2 0x4674 JUMP JUMPDEST SWAP2 POP POP SWAP3 SWAP6 SWAP2 SWAP5 POP SWAP3 POP JUMP JUMPDEST PUSH1 0x0 DUP2 MLOAD DUP1 DUP5 MSTORE PUSH2 0x4840 DUP2 PUSH1 0x20 DUP7 ADD PUSH1 0x20 DUP7 ADD PUSH2 0x4059 JUMP JUMPDEST PUSH1 0x1F ADD PUSH32 0xFFFFFFFFFFFFFFFFFFFFFFFFFFFFFFFFFFFFFFFFFFFFFFFFFFFFFFFFFFFFFFE0 AND SWAP3 SWAP1 SWAP3 ADD PUSH1 0x20 ADD SWAP3 SWAP2 POP POP JUMP JUMPDEST PUSH1 0x20 DUP2 MSTORE PUSH1 0x0 PUSH2 0x3D80 PUSH1 0x20 DUP4 ADD DUP5 PUSH2 0x4828 JUMP JUMPDEST DUP1 MLOAD DUP3 MSTORE PUSH1 0x20 DUP2 ADD MLOAD PUSH1 0x20 DUP4 ADD MSTORE PUSH1 0x0 PUSH1 0x40 DUP3 ADD MLOAD PUSH1 0x60 PUSH1 0x40 DUP6 ADD MSTORE PUSH2 0x3556 PUSH1 0x60 DUP6 ADD DUP3 PUSH2 0x4828 JUMP JUMPDEST PUSH2 0xFFFF DUP7 AND DUP2 MSTORE PUSH1 0xFF DUP6 AND PUSH1 0x20 DUP3 ADD MSTORE PUSH1 0xA0 PUSH1 0x40 DUP3 ADD MSTORE PUSH1 0x0 PUSH2 0x48D4 PUSH1 0xA0 DUP4 ADD DUP7 PUSH2 0x4828 JUMP JUMPDEST DUP3 DUP2 SUB PUSH1 0x60 DUP5 ADD MSTORE PUSH2 0x48E6 DUP2 DUP7 PUSH2 0x4828 JUMP JUMPDEST SWAP1 POP DUP3 DUP2 SUB PUSH1 0x80 DUP5 ADD MSTORE PUSH2 0x48FA DUP2 DUP6 PUSH2 0x4885 JUMP JUMPDEST SWAP9 SWAP8 POP POP POP POP POP POP POP POP JUMP JUMPDEST PUSH1 0x0 DUP1 PUSH1 0x40 DUP4 DUP6 SUB SLT ISZERO PUSH2 0x4919 JUMPI PUSH1 0x0 DUP1 REVERT JUMPDEST POP POP DUP1 MLOAD PUSH1 0x20 SWAP1 SWAP2 ADD MLOAD SWAP1 SWAP3 SWAP1 SWAP2 POP JUMP JUMPDEST PUSH1 0x0 DUP1 PUSH1 0x0 DUP1 PUSH1 0x0 PUSH1 0xA0 DUP7 DUP9 SUB SLT ISZERO PUSH2 0x4942 JUMPI PUSH1 0x0 DUP1 REVERT JUMPDEST DUP6 MLOAD PUSH2 0x494D DUP2 PUSH2 0x3C2A JUMP JUMPDEST PUSH1 0x20 DUP8 ADD MLOAD SWAP1 SWAP6 POP PUSH8 0xFFFFFFFFFFFFFFFF DUP1 DUP3 GT ISZERO PUSH2 0x496B JUMPI PUSH1 0x0 DUP1 REVERT JUMPDEST PUSH2 0x4977 DUP10 DUP4 DUP11 ADD PUSH2 0x45B5 JUMP JUMPDEST SWAP6 POP PUSH1 0x40 DUP9 ADD MLOAD SWAP2 POP DUP1 DUP3 GT ISZERO PUSH2 0x498D JUMPI PUSH1 0x0 DUP1 REVERT JUMPDEST PUSH2 0x4999 DUP10 DUP4 DUP11 ADD PUSH2 0x4619 JUMP JUMPDEST SWAP5 POP PUSH1 0x60 DUP9 ADD MLOAD SWAP2 POP DUP1 DUP3 GT ISZERO PUSH2 0x49AF JUMPI PUSH1 0x0 DUP1 REVERT JUMPDEST POP PUSH2 0x49BC DUP9 DUP3 DUP10 ADD PUSH2 0x4674 JUMP JUMPDEST SWAP3 POP POP PUSH1 0x80 DUP7 ADD MLOAD SWAP1 POP SWAP3 SWAP6 POP SWAP3 SWAP6 SWAP1 SWAP4 POP JUMP JUMPDEST PUSH32 0x4E487B7100000000000000000000000000000000000000000000000000000000 PUSH1 0x0 MSTORE PUSH1 0x11 PUSH1 0x4 MSTORE PUSH1 0x24 PUSH1 0x0 REVERT JUMPDEST PUSH1 0x0 DUP3 DUP3 LT ISZERO PUSH2 0x4A11 JUMPI PUSH2 0x4A11 PUSH2 0x49D0 JUMP JUMPDEST POP SUB SWAP1 JUMP JUMPDEST PUSH1 0x0 DUP2 MLOAD DUP1 DUP5 MSTORE PUSH1 0x20 DUP1 DUP6 ADD SWAP5 POP DUP1 DUP5 ADD PUSH1 0x0 JUMPDEST DUP4 DUP2 LT ISZERO PUSH2 0x4A49 JUMPI DUP2 MLOAD PUSH1 0xFF AND DUP8 MSTORE SWAP6 DUP3 ADD SWAP6 SWAP1 DUP3 ADD SWAP1 PUSH1 0x1 ADD PUSH2 0x4A2A JUMP JUMPDEST POP SWAP5 SWAP6 SWAP5 POP POP POP POP POP JUMP JUMPDEST PUSH1 0x0 DUP2 MLOAD DUP1 DUP5 MSTORE PUSH1 0x20 DUP1 DUP6 ADD SWAP5 POP DUP1 DUP5 ADD PUSH1 0x0 JUMPDEST DUP4 DUP2 LT ISZERO PUSH2 0x4A49 JUMPI DUP2 MLOAD DUP8 MSTORE SWAP6 DUP3 ADD SWAP6 SWAP1 DUP3 ADD SWAP1 PUSH1 0x1 ADD PUSH2 0x4A68 JUMP JUMPDEST PUSH1 0x0 DUP2 MLOAD DUP1 DUP5 MSTORE PUSH1 0x20 DUP1 DUP6 ADD DUP1 DUP2 SWAP7 POP DUP4 PUSH1 0x5 SHL DUP2 ADD SWAP2 POP DUP3 DUP7 ADD PUSH1 0x0 JUMPDEST DUP6 DUP2 LT ISZERO PUSH2 0x4ACC JUMPI DUP3 DUP5 SUB DUP10 MSTORE PUSH2 0x4ABA DUP5 DUP4 MLOAD PUSH2 0x4828 JUMP JUMPDEST SWAP9 DUP6 ADD SWAP9 SWAP4 POP SWAP1 DUP5 ADD SWAP1 PUSH1 0x1 ADD PUSH2 0x4AA2 JUMP JUMPDEST POP SWAP2 SWAP8 SWAP7 POP POP POP POP POP POP POP JUMP JUMPDEST PUSH1 0x60 DUP2 MSTORE PUSH1 0x0 PUSH2 0x4AEC PUSH1 0x60 DUP4 ADD DUP7 PUSH2 0x4A16 JUMP JUMPDEST DUP3 DUP2 SUB PUSH1 0x20 DUP5 ADD MSTORE PUSH2 0x4AFE DUP2 DUP7 PUSH2 0x4A54 JUMP JUMPDEST SWAP1 POP DUP3 DUP2 SUB PUSH1 0x40 DUP5 ADD MSTORE PUSH2 0x4B12 DUP2 DUP6 PUSH2 0x4A84 JUMP JUMPDEST SWAP7 SWAP6 POP POP POP POP POP POP JUMP JUMPDEST PUSH1 0x1 DUP2 DUP2 JUMPDEST DUP1 DUP6 GT ISZERO PUSH2 0x4B75 JUMPI DUP2 PUSH32 0xFFFFFFFFFFFFFFFFFFFFFFFFFFFFFFFFFFFFFFFFFFFFFFFFFFFFFFFFFFFFFFFF DIV DUP3 GT ISZERO PUSH2 0x4B5B JUMPI PUSH2 0x4B5B PUSH2 0x49D0 JUMP JUMPDEST DUP1 DUP6 AND ISZERO PUSH2 0x4B68 JUMPI SWAP2 DUP2 MUL SWAP2 JUMPDEST SWAP4 DUP5 SHR SWAP4 SWAP1 DUP1 MUL SWAP1 PUSH2 0x4B21 JUMP JUMPDEST POP SWAP3 POP SWAP3 SWAP1 POP JUMP JUMPDEST PUSH1 0x0 DUP3 PUSH2 0x4B8C JUMPI POP PUSH1 0x1 PUSH2 0x35E8 JUMP JUMPDEST DUP2 PUSH2 0x4B99 JUMPI POP PUSH1 0x0 PUSH2 0x35E8 JUMP JUMPDEST DUP2 PUSH1 0x1 DUP2 EQ PUSH2 0x4BAF JUMPI PUSH1 0x2 DUP2 EQ PUSH2 0x4BB9 JUMPI PUSH2 0x4BD5 JUMP JUMPDEST PUSH1 0x1 SWAP2 POP POP PUSH2 0x35E8 JUMP JUMPDEST PUSH1 0xFF DUP5 GT ISZERO PUSH2 0x4BCA JUMPI PUSH2 0x4BCA PUSH2 0x49D0 JUMP JUMPDEST POP POP PUSH1 0x1 DUP3 SHL PUSH2 0x35E8 JUMP JUMPDEST POP PUSH1 0x20 DUP4 LT PUSH2 0x133 DUP4 LT AND PUSH1 0x4E DUP5 LT PUSH1 0xB DUP5 LT AND OR ISZERO PUSH2 0x4BF8 JUMPI POP DUP2 DUP2 EXP PUSH2 0x35E8 JUMP JUMPDEST PUSH2 0x4C02 DUP4 DUP4 PUSH2 0x4B1C JUMP JUMPDEST DUP1 PUSH32 0xFFFFFFFFFFFFFFFFFFFFFFFFFFFFFFFFFFFFFFFFFFFFFFFFFFFFFFFFFFFFFFFF DIV DUP3 GT ISZERO PUSH2 0x4C34 JUMPI PUSH2 0x4C34 PUSH2 0x49D0 JUMP JUMPDEST MUL SWAP4 SWAP3 POP POP POP JUMP JUMPDEST PUSH1 0x0 PUSH2 0x3D80 PUSH1 0xFF DUP5 AND DUP4 PUSH2 0x4B7D JUMP JUMPDEST PUSH1 0x0 DUP2 PUSH32 0xFFFFFFFFFFFFFFFFFFFFFFFFFFFFFFFFFFFFFFFFFFFFFFFFFFFFFFFFFFFFFFFF DIV DUP4 GT DUP3 ISZERO ISZERO AND ISZERO PUSH2 0x4C83 JUMPI PUSH2 0x4C83 PUSH2 0x49D0 JUMP JUMPDEST POP MUL SWAP1 JUMP JUMPDEST PUSH1 0x0 DUP3 PUSH2 0x4CBE JUMPI PUSH32 0x4E487B7100000000000000000000000000000000000000000000000000000000 PUSH1 0x0 MSTORE PUSH1 0x12 PUSH1 0x4 MSTORE PUSH1 0x24 PUSH1 0x0 REVERT JUMPDEST POP DIV SWAP1 JUMP JUMPDEST PUSH20 0xFFFFFFFFFFFFFFFFFFFFFFFFFFFFFFFFFFFFFFFF DUP7 AND DUP2 MSTORE PUSH1 0xA0 PUSH1 0x20 DUP3 ADD MSTORE PUSH1 0x0 PUSH2 0x4CF2 PUSH1 0xA0 DUP4 ADD DUP8 PUSH2 0x4A16 JUMP JUMPDEST DUP3 DUP2 SUB PUSH1 0x40 DUP5 ADD MSTORE PUSH2 0x4D04 DUP2 DUP8 PUSH2 0x4A54 JUMP JUMPDEST SWAP1 POP DUP3 DUP2 SUB PUSH1 0x60 DUP5 ADD MSTORE PUSH2 0x4D18 DUP2 DUP7 PUSH2 0x4A84 JUMP JUMPDEST SWAP2 POP POP DUP3 PUSH1 0x80 DUP4 ADD MSTORE SWAP7 SWAP6 POP POP POP POP POP POP JUMP JUMPDEST PUSH1 0x0 PUSH2 0x120 PUSH2 0xFFFF DUP13 AND DUP4 MSTORE DUP11 PUSH1 0x20 DUP5 ADD MSTORE DUP10 PUSH1 0x40 DUP5 ADD MSTORE PUSH20 0xFFFFFFFFFFFFFFFFFFFFFFFFFFFFFFFFFFFFFFFF DUP10 AND PUSH1 0x60 DUP5 ADD MSTORE DUP8 PUSH1 0x80 DUP5 ADD MSTORE DUP7 PUSH1 0xA0 DUP5 ADD MSTORE DUP1 PUSH1 0xC0 DUP5 ADD MSTORE PUSH2 0x4D7D DUP2 DUP5 ADD DUP8 PUSH2 0x4885 JUMP JUMPDEST SWAP1 POP DUP3 DUP2 SUB PUSH1 0xE0 DUP5 ADD MSTORE PUSH2 0x4D91 DUP2 DUP7 PUSH2 0x4828 JUMP JUMPDEST SWAP1 POP DUP3 DUP2 SUB PUSH2 0x100 DUP5 ADD MSTORE PUSH2 0x4DA6 DUP2 DUP6 PUSH2 0x4828 JUMP JUMPDEST SWAP13 SWAP12 POP POP POP POP POP POP POP POP POP POP POP POP JUMP JUMPDEST PUSH1 0x0 DUP3 NOT DUP3 GT ISZERO PUSH2 0x4DC9 JUMPI PUSH2 0x4DC9 PUSH2 0x49D0 JUMP JUMPDEST POP ADD SWAP1 JUMP JUMPDEST PUSH1 0x0 PUSH32 0xFFFFFFFFFFFFFFFFFFFFFFFFFFFFFFFFFFFFFFFFFFFFFFFFFFFFFFFFFFFFFFFF DUP3 EQ ISZERO PUSH2 0x4E00 JUMPI PUSH2 0x4E00 PUSH2 0x49D0 JUMP JUMPDEST POP PUSH1 0x1 ADD SWAP1 JUMP JUMPDEST DUP5 DUP2 MSTORE DUP4 PUSH1 0x20 DUP3 ADD MSTORE PUSH20 0xFFFFFFFFFFFFFFFFFFFFFFFFFFFFFFFFFFFFFFFF DUP4 AND PUSH1 0x40 DUP3 ADD MSTORE PUSH1 0x80 PUSH1 0x60 DUP3 ADD MSTORE PUSH1 0x0 PUSH2 0x4B12 PUSH1 0x80 DUP4 ADD DUP5 PUSH2 0x4828 JUMP JUMPDEST PUSH1 0x0 PUSH1 0x20 DUP3 DUP5 SUB SLT ISZERO PUSH2 0x4E54 JUMPI PUSH1 0x0 DUP1 REVERT JUMPDEST PUSH2 0x3D80 DUP3 PUSH2 0x3DC6 JUMP JUMPDEST DUP1 MLOAD PUSH14 0xFFFFFFFFFFFFFFFFFFFFFFFFFFFF DUP2 AND DUP2 EQ PUSH2 0x3DC1 JUMPI PUSH1 0x0 DUP1 REVERT JUMPDEST PUSH1 0x0 DUP1 PUSH1 0x0 PUSH1 0x60 DUP5 DUP7 SUB SLT ISZERO PUSH2 0x4E90 JUMPI PUSH1 0x0 DUP1 REVERT JUMPDEST PUSH2 0x4E99 DUP5 PUSH2 0x4E5D JUMP JUMPDEST SWAP3 POP PUSH2 0x4EA7 PUSH1 0x20 DUP6 ADD PUSH2 0x4E5D JUMP JUMPDEST SWAP2 POP PUSH1 0x40 DUP5 ADD MLOAD PUSH4 0xFFFFFFFF DUP2 AND DUP2 EQ PUSH2 0x4EC0 JUMPI PUSH1 0x0 DUP1 REVERT JUMPDEST DUP1 SWAP2 POP POP SWAP3 POP SWAP3 POP SWAP3 JUMP JUMPDEST PUSH1 0x0 DUP3 MLOAD PUSH2 0x4EDD DUP2 DUP5 PUSH1 0x20 DUP8 ADD PUSH2 0x4059 JUMP JUMPDEST SWAP2 SWAP1 SWAP2 ADD SWAP3 SWAP2 POP POP JUMP INVALID LOG2 PUSH5 0x6970667358 0x22 SLT KECCAK256 0xD1 0xC9 0x2F CALLVALUE STATICCALL SWAP14 AND 0xAC PUSH3 0x33AAC7 PUSH4 0x6BA03345 KECCAK256 0xE5 DIFFICULTY 0xDF CALLDATALOAD 0x23 0xBC SWAP2 PUSH14 0x278F3B0DF89364736F6C63430008 SIGNEXTEND STOP CALLER "},"gasEstimates":{"creation":{"codeDepositCost":"4050600","executionCost":"infinite","totalCost":"infinite"},"external":{"SGETH()":"infinite","approveToStargateRouter(address)":"infinite","bentoBox()":"infinite","cook(uint8[],uint256[],bytes[])":"infinite","factory()":"infinite","getFee(uint16,uint8,address,uint256,uint256,bytes)":"infinite","pairCodeHash()":"infinite","sgReceive(uint16,bytes,uint256,address,uint256,bytes)":"infinite","stargateRouter()":"infinite","stargateWidget()":"infinite"}},"methodIdentifiers":{"SGETH()":"cf36fd24","approveToStargateRouter(address)":"d1ac3535","bentoBox()":"6b2ace87","cook(uint8[],uint256[],bytes[])":"656f3d64","factory()":"c45a0155","getFee(uint16,uint8,address,uint256,uint256,bytes)":"6ce4fe03","pairCodeHash()":"9aab9248","sgReceive(uint16,bytes,uint256,address,uint256,bytes)":"ab8236f3","stargateRouter()":"a9e56f3c","stargateWidget()":"6f435ac2"}},"storageLayout":{"storage":[],"types":null},"userdoc":{"kind":"user","methods":{"SGETH()":{"notice":"Address of the Stargate ETH Vault"},"approveToStargateRouter(address)":{"notice":"Approves token to the Stargate Router"},"bentoBox()":{"notice":"BentoBox token vault"},"cook(uint8[],uint256[],bytes[])":{"notice":"Executes a set of actions and allows composability (contract calls) to other contracts."},"factory()":{"notice":"Sushiswap Legacy AMM Factory"},"getFee(uint16,uint8,address,uint256,uint256,bytes)":{"notice":"Get the fees to be paid in native token for the swap"},"pairCodeHash()":{"notice":"Sushiswap Legacy AMM PairCodeHash"},"sgReceive(uint16,bytes,uint256,address,uint256,bytes)":{"notice":"Receiver function on dst chain"},"stargateRouter()":{"notice":"Stargate Router for cross chain interaction"},"stargateWidget()":{"notice":"Stargate Widget for stargate partner fee"}},"notice":"Enables cross chain swap for sushiswap.","version":1}}}}